:020000040800F2
:105000000004002011510008E1510008E15100089E
:10501000E1510008E1510008E1510008E1510008A8
:10502000E1510008E1510008E15100081152000867
:10503000E1510008E1510008E1510008E152000887
:10504000E1510008E1510008E1510008E170000859
:10505000E1510008E1510008E1510008E151000868
:10506000E1510008E1510008E1510008A16B00087E
:10507000D16B0008016C0008316C0008616C0008FD
:10508000916C0008C16C0008E1510008E151000872
:10509000E1510008E1510008E1510008E151000828
:1050A000E151000831750008E15100086175000800
:1050B000E1510008E1510008C1750008E151000804
:1050C000E1510008E1510008E1510008E1510008F8
:1050D000E1510008E1510008B1780008E1510008F1
:0C50E000E1510008E1510008E151000816
:1050F000704700BFAFF30080AFF30080AFF30080D4
:10510000FEE700BFAFF30080AFF30080AFF3008095
:1051100072B6244A82F30988022383F31488BFF30A
:105120006F8F214B21498B4205D24FF0553043F808
:10513000040B8B42FBD31E4B934205D24FF05531EB
:1051400043F8041B9342FBD302F052FC194B1A485C
:10515000834206D2194A52F8041B43F8041B8342C7
:10516000F9D3174B174A934204D2002143F8041B8A
:105170009342FBD3144D154CFFF7BAFFAC4204D257
:1051800054F8043B9847AC42FAD3114D114C03F04C
:105190003FFAAC4204D254F8043B9847AC42FAD3ED
:1051A000FFF7AEFF000800200000002000040020F0
:1051B000000400200008002068080020489800082B
:1051C00068080020E0150020EC500008EC500008B2
:1051D000EC500008EC500008AFF30080AFF3008003
:1051E000FEE700BFAFF30080AFF30080AFF30080B5
:1051F00072B6FEE7AFF30080AFF30080AFF300803C
:1052000000F0CEFA00DF00BFAFF30080AFF3008004
:10521000EFF30983203383F30988002383F3118894
:10522000704700BFAFF30080AFF30080AFF30080A2
:1052300008B54FF440724FF46D43CEF20003C0F254
:10524000FA52002199600720DA60102100F0B0F8CE
:105250000A20202100F0ACF80B20802100F0A8F8F3
:1052600008BD00BFAFF30080AFF30080AFF3008054
:10527000202383F311884FF46D43CEF200035B6863
:1052800013F4006316D0EFF30983203B83F30988FE
:1052900010494FF080708A69D861D07F68B1096881
:1052A00092688968914294BF0022012272B10A4A31
:1052B0009A6101E083F311887047096892688968F0
:1052C000914234BF00220122002AF0D1034A9A61A0
:1052D000F2E700BF800900200152000804520008D4
:1052E00008B5202383F3118800F0C2F8002383F36C
:1052F0001188FFF7BDFF08BDAFF30080AFF300805A
:105300002DE9F04FC1F80CD0D0F80CD0BDE8F08FEB
:10531000002383F311882846A04700F009FB70475B
:1053200000F0030330B4DB00FF259D4000F01F02B6
:1053300011FA03F34FF0010C0CFA02FC84084FF44D
:105340006142CEF20002C03452F82410400921EA32
:10535000050141EA030300F1600142F8243042F8FC
:1053600021C042F820C030BC704700BFAFF30080BE
:1053700000F01F034FF0010C0CFA03FC00F00302D5
:10538000FF23D20013FA02F241094FF46143CEF237
:1053900000032031800843F821C0C03053F82010AA
:1053A00021EA020243F82020704700BFAFF30080DB
:1053B00000F0030310B4DB00FF249C4011FA03F358
:1053C00080084FF46D42CEF20002063052F820C041
:1053D0002CEA040141EA030342F8203010BC704774
:1053E000024B034A9B699A61FEE700BF80090020D7
:1053F000008E0008AFF30080AFF30080AFF30080B1
:1054000000B583B0FFF714FF00F0E2F800F060F899
:1054100000F086FD00F0BCFD40F668004021C2F2BD
:10542000000000F0CDF940F68011C2F20001012227
:1054300088610277002383F3118862B648F6106C06
:105440008969C0F6000CC1F818C040F6B000002110
:1054500045F2E1330091C0F60003C021C2F2000022
:1054600000F016FA03B000BDAFF30080AFF3008088
:1054700070B5134B9B69DA7F0AB1013ADA771A6A81
:10548000104C01321A62E36821680133A142E360E3
:1054900015D08D68013D8D608DB926460B68CA68B0
:1054A0005E602360CD602B4683F3118808699047C6
:1054B000202383F3118821688B68002BEED070BD08
:1054C0008009002070090020AFF30080AFF3008056
:1054D00040F67013C2F200034FF0FF329A600022D0
:1054E0005B601B60DA607047AFF30080AFF3008051
:1054F000DFF834C030B4DCF800400361A568C26056
:10550000A94204D92468491BA5688D42FAD363686F
:1055100064450460436018606060816002D0A368E5
:10552000591AA16030BC704770090020AFF30080A9
:105530000368074A934203D0996882688A189A6080
:105540004268002113600368C1605A60704700BF61
:1055500070090020AFF30080AFF30080AFF300804C
:10556000202383F31188037F0D2B11D8DFE803F08C
:1055700024101007100B101010101010100B436A9D
:105580009A6801329A60436802681A600268536040
:105590004FF0FF3242620A4B0022816802771B689B
:1055A0009A689142FBD95A68036042601060586063
:1055B000002383F311887047002383F31188FAE7EF
:1055C00080090020AFF30080AFF30080AFF30080CC
:1055D00040F68013C2F2000300225B601B609A60F9
:1055E0005B611B61704700BFAFF30080AFF30080C9
:1055F0000022064B816802771B689A688A42FBD2B8
:105600005A6803604260106058607047800900204B
:1056100008B540F68013C2F2000399691422087796
:10562000CA7718684FF0010C026880F81CC05360FC
:105630001A609861FFF764FE08BD00BFAFF30080F9
:1056400070B5B1F1FF3F86B0054612D00B4C01AEEC
:10565000A3690B4A3046FFF74BFF2846FFF7D8FFF8
:10566000049B13B13046FFF763FFA369586A06B085
:1056700070BDFFF7CDFF014CF7E700BF80090020A8
:1056800061550008AFF30080AFF30080AFF30080F6
:10569000154A10B593698468D3F808C0416264451F
:1056A0000BD800230377126893689C42FBD9536898
:1056B000026043601860506010BD002119771146E8
:1056C0000968D1F808E0F445FAD9D1F804C01960A6
:1056D000C3F804C04B600121CCF800300177906121
:1056E0001946FFF70DFEE7E780090020AFF30080C1
:1056F0000F4A10B510689169D0F800E01346CEF853
:105700000420D1F808C0C2F800E0906114220124FE
:10571000CA77002204770A771B689A689445FBD9F8
:105720005A680B604A6011605960FFF7E9FD10BDCF
:1057300080090020AFF30080AFF30080AFF300805A
:105740000E4A10B510689169D0F800E01346CEF803
:105750000420D1F808C00124C2F800E090610022C2
:1057600004770A771B689A686245FBD85A680B6011
:105770004A6011605960FFF7C3FD10BD8009002029
:1057800008B5054B1A689B6992689B689A4201D9D3
:10579000FFF7D6FF08BD00BF80090020AFF30080EF
:1057A00008B5054B9B69DB7F13B1FFF7C9FF08BD47
:1057B000FFF79EFFFBE700BF80090020AFF30080EA
:1057C0004FF0020C80F81CC04FF0140C002380F83E
:1057D0001FC040F680124FF0010CC2F20002437766
:1057E00080F81EC0D2F814C030B400F12C0400F1CF
:1057F000280502618160C0F814C001645061C36370
:10580000836303628361CCF8100085620463C46221
:1058100030BC7047AFF30080AFF30080AFF300807F
:10582000243930B44418C4604350029B4FF0000C3C
:10583000636045F21133C0F600032362022303774D
:105840001423C37740F680150123C2F2000580F8C7
:105850001DC083776B6900F12C0100F128040561FC
:105860008260436102646861C0F83CC0C0F838C01F
:10587000C0F820C0C0F818C0186184620163C1621A
:1058800030BC7047AFF30080AFF30080AFF300800F
:1058900010B59C4682B0202383F311886346DDF85F
:1058A00010C0CDF800C0FFF7BBFF00210446FFF792
:1058B000EFFE002383F31188204602B010BD00BF25
:1058C00008B50146202383F311880620FFF7B8FEB0
:1058D000002383F3118808BDAFF30080AFF300808D
:1058E0000F4A38B594690346254655F8280F636278
:1058F000A84206D00368A362FFF77AFEA06AA84216
:10590000F8D1637F13F0030F01BF226963691A6145
:10591000226908BF53610E20FFF77AFE38BD00BF31
:1059200080090020AFF30080AFF30080AFF3008068
:1059300008B5202383F31188FFF7D2FF08BD00BF0D
:105940004060006081607047AFF30080AFF300807B
:10595000826808B50346501E0028986001DB0020CD
:1059600008BD71B1094AD3F804C0926903201360DD
:105970005362C2F804C05A60CCF80020FFF760FE02
:10598000EEE79A604FF0FF30EAE700BF80090020A1
:1059900008B583680133002B836000DD08BD036810
:1059A0001A680260506000225A621846FFF720FE13
:1059B000F4E700BFAFF30080AFF30080AFF30080E7
:1059C0000023406000608360704700BFAFF3008039
:1059D00038B50546304B80689C69002856D0A268CF
:1059E0008368934206D2037F8260042B32D0052B5A
:1059F0001AD08BB12B461B689D4203D09968A268D0
:105A00009142F8D25A682360626014605C606562FB
:105A10000420FFF7FDFD38BD436802681A60026884
:105A20005360FFF7E5FDE5E741680368D0F824C05F
:105A30000B60D0F800E06346CEF804101B689C456C
:105A400002D099688A42F9D95A68036042601060AE
:105A50005860CFE741680368D0F824C00B60D0F8E5
:105A600000E06346CEF804101B689C4502D099689C
:105A70009142F9D25A680360426010605860DCF8C5
:105A80000800A26883689342ADD3B3E7E36BAC60D0
:105A9000EB60E563BFE700BF80090020AFF3008043
:105AA00008B5202383F31188FFF792FF002383F3C7
:105AB000118808BDAFF30080AFF30080AFF3008022
:105AC000164A10B52023926983F31188D46B20689D
:105AD000E368A042D3631DD0D2F840C04BB119682F
:105AE000994203D089688C4538BF8C46DB68002B0F
:105AF000F5D1C16B0368C2F808C023605C60E16047
:105B0000A0600021C463FFF7C3FD002383F3118865
:105B1000204610BD0023A360F7E700BF80090020E6
:105B200008B5836B027F41EA0303082A83630BD025
:105B3000092A00D008BD426A13409A42FAD1FFF701
:105B400057FD00234362F5E7426A1342F2D0FFF7A4
:105B50004FFD00234362EDE7AFF30080AFF3008019
:105B600070B50468054684420E4609D0E368606853
:105B70003343A168E360FFF7D3FF2468AC42F5D15B
:105B800070BD00BFAFF30080AFF30080AFF30080C3
:105B900010B50B46044601EB820C00F11C001146C7
:105BA000E360A3602360C4F804C0FFF7C9FE04F1FA
:105BB00010000021FFF7C4FE10BD00BFAFF300804E
:105BC00008B5436A002BD8BF4FF0FF3010DD826864
:105BD000013BD0F804C0436242F8041B624528BF71
:105BE0000368826028BF83601030FFF7D1FE002079
:105BF00008BD00BFAFF30080AFF30080AFF30080BB
:105C000070B504460D4600F110001146FFF7A0FEE6
:105C1000064678B9E368626853F8041B04F11C0077
:105C200093422960E36024BF2368E360FFF7B0FE7E
:105C3000FFF7A6FD304670BDAFF30080AFF30080E4
:105C400008B5202383F31188FFF7DAFF002383F3DD
:105C5000118808BDAFF30080AFF30080AFF3008080
:105C600008B503464FF0FF3069B1074AD3F804C0C6
:105C700092690D2013605362C2F804C05A60CCF8D8
:105C80000020FFF7DDFC08BD80090020AFF3008095
:105C9000C361009B8A184FF0000C40600060C0F8A0
:105CA00008C041618161C16002610362704700BF49
:105CB000426908B503468069824218BF986817D0C8
:105CC0000130986002F8011B19695A618A4201D3B8
:105CD000DA685A611868984208D002681A605360FE
:105CE000FFF786FC00234362184608BD0020FCE74E
:105CF00098680028E4D06FF00300F6E7AFF3008067
:105D000070B5202304460D4683F31188C36903B19F
:105D10009847A668204629463EB9FFF7A1FF00280C
:105D2000F7DA334683F3118870BDA369013EA6609C
:105D300013F8010B2269A361934224BFE368A361B6
:105D4000002383F31188EFE7AFF30080AFF3008007
:105D50002DE9F0471D4604460E469246D0F81C80B9
:105D6000202383F311880027B8F1000F01D02046CB
:105D7000C047D4F8089020462946B9F1000F09D150
:105D8000FFF76EFF0028F4D04B4683F311883846A6
:105D9000BDE8F087A36909F1FF39C4F8089013F84A
:105DA000012BF2552269A361934224BFE368A361EA
:105DB000002383F311880137BA45E8D0202383F309
:105DC0001188D1E7AFF30080AFF30080AFF300801C
:105DD000C361009B01EB020C406000608260416186
:105DE0008161C160C0F810C003627047AFF30080EA
:105DF000F8B504460D461646202383F31188A7689C
:105E0000204631463FB9FFF72BFF0028F7DA3B4623
:105E100083F31188F8BD6369013FA76003F8015B54
:105E200022696361934224BFE3686361E3690BB154
:105E300020469847002383F311881846EAE700BFFD
:105E40004169826910B59142034618BF816815D037
:105E50000131996012F8014B19699A618A4201D3A4
:105E6000DA689A611868984206D002681A6053602E
:105E7000FFF7BEFB00234362204610BD81686FF030
:105E800002000029F9D1E3E7AFF30080AFF300800F
:105E90002DE9F0471E4604460D461746D0F81CA0D3
:105EA000202383F311884FF00008D4F8089009F1FB
:105EB000FF33B9F1000F22D0A3602A78636903F899
:105EC000012B22696361934224BFE3686361BAF1E5
:105ED000000F01D02046D047002383F3118817F12B
:105EE000FF3708F1010813D00135202383F311880F
:105EF000D4F8089009F1FF33B9F1000FDCD1204646
:105F00003146FFF7ADFE0028CFD04B4683F3118812
:105F10004046BDE8F08700BFAFF30080AFF30080DC
:105F200042F20001084840F6A01240F69C13C2F26B
:105F30000001C2F2000220F00700C2F2000321F0CB
:105F40000701106019607047E7150020AFF300806B
:105F5000202383F31188094A094913680968073027
:105F600020F00700C91A884206D818181060184691
:105F7000002383F3118870470020F9E7A00900206F
:105F80009C090020AFF30080AFF30080AFF30080E6
:105F900008B545F6517140F6A813C2F2000300227D
:105FA000C0F6000103F1100019609A60DA60FFF793
:105FB00007FD08BDAFF30080AFF30080AFF30080B2
:105FC00008B500F015FF00F0C3FD49F22000C0F64F
:105FD000000001F005F800F013F800F001FC00F0FB
:105FE00087FC00F0D5FC00F03BFA00F039FC01F032
:105FF00007FD08BDAFF30080AFF30080AFF3008072
:1060000008B500F0ADFF08BDAFF30080AFF300802E
:1060100008B500220346012100F1180019705A60EA
:106020009A60DA601A615A61FFF7CAFC08BD00BFC6
:106030000379052B01D001207047836A00204B6053
:106040004FF400730B60F7E7AFF30080AFF300800D
:1060500070B582B00646092401AD33680121186885
:106060002A4600F02DFD9DF80400FF2802D114F10E
:10607000FF34F2D102B070BDAFF30080AFF3008007
:1060800070B5064682B0336801AD012118682A4612
:1060900000F016FD9DF804301024FF2B0CD014F1F5
:1060A000FF340ED03368012118682A4600F008FD3D
:1060B0009DF80430FF2BF2D102B070BD0120FFF734
:1060C000FFFB3368012118682A4600F0F9FC9DF8AF
:1060D0000430FF2BF2D1EFE7AFF30080AFF3008085
:1060E00070B5154682B00E46044600F12C00FFF74D
:1060F000C7FF46F04006280E290C2B0A6A468DF889
:1061000001008DF802108DF80330DFF83CC08DF8E7
:1061100000608DF804506B46101D002101E013F85B
:10612000016F86EA410683421CF80610F7D1490048
:1061300041F00101E36A8DF80510186806216A46EE
:1061400000F0A6FC02B070BD308E0008AFF30080F6
:10615000C36A70B504460E461868154600F050FC38
:106160002A4631462046FFF7BBFF04F12C00FFF71B
:106170006FFFE36A0546186800F052FC284670BDC0
:10618000F8B50446C06A0F46154600681E4600F082
:1061900037FC39462A462046FFF7A2FF04F12C00BF
:1061A000FFF756FFE36A054604211868324600F0FF
:1061B00087FCE36A186800F033FC2846F8BD00BF8E
:1061C00030B5036883B00446186801AD00F018FCD0
:1061D00002E00120FFF774FB2368012118682A46BA
:1061E00000F06EFC9DF80430FF2BF2D12368186894
:1061F00000F016FC03B030BDAFF30080AFF30080B9
:1062000070B505790446052D01D0012070BD064604
:1062100056F82C3F186899680823237100F0D0FBCA
:106220003046FFF7CDFF25710020EFE7AFF3008088
:1062300038B50446202383F311880379022B16D046
:1062400004230371002383F31188054655F82C3F7E
:106250001868996800F0B4FB2846FFF7B1FFE36ABD
:10626000186800F0BDFB02232371002038BD002315
:1062700083F31188F9E700BFAFF30080AFF300802C
:106280002DE9F041C36A054684B018680C46904673
:1062900000F0B6FB284621460022FFF721FF05F15A
:1062A0002C00FFF7D5FE00283AD104466E4642F294
:1062B000107701E0BC4239D0EB6A012118686A46C8
:1062C00000F0FEFB9DF800300134FE2BF2D1EB6AAA
:1062D000102118686A4600F0F3FB043608F1100339
:1062E00016F8032C16F804CC16F8010C120416F854
:1062F000021C42EA0C62024342EA012243F8042DE6
:1063000004364345ECD1EB6A0221186800F0A8FB83
:10631000EB6A186800F084FB002004B0BDE8F0814F
:10632000EB6A186800F07CFB0120F6E70120F4E737
:10633000F0B5C36A05465968186803232B7183B00A
:1063400000F03EFBEB6A10211868002400F088FB87
:1063500002E00A20FFF7B4FA00210A462846FFF7B8
:10636000F7FE013401280AD00A2CF2D1EB6A186832
:1063700000F036FB02232B71012003B0F0BD01AF0A
:10638000082128464FF4D5723B46FFF7F9FE052851
:1063900027D0002404E0642CE8D00A20FFF790FA0C
:1063A000372100222846FFF7D3FE01340128064694
:1063B000F1D14FF4D572C4F2000229213B462846A0
:1063C000FFF7DEFE02460028E5D13A213B4628468B
:1063D000FFF7D6FE9DF8043013F0400F18BF85F884
:1063E0003060002406E00128C0D1642CBED00A2011
:1063F000FFF766FA0121002228460134FFF7A8FEC4
:106400000028F0D1EB6A1868996800F0D9FA28469C
:1064100010214FF40072FFF79BFE0028A6D105F172
:106420001804284609212246FFF72AFF00289DD19B
:10643000204600F0ADF9A862002897D005F10802C7
:1064400028460A21FFF71CFF00288FD105232B7156
:1064500093E700BFAFF30080AFF30080AFF300809D
:10646000704700BFAFF30080AFF30080AFF3008050
:1064700048F65072C0F60002002302600122027149
:10648000C36280F830307047AFF30080AFF3008014
:106490000223C16203717047AFF30080AFF3008045
:1064A00038B5C36A044618689B68062222710D46F7
:1064B000194600F085FAE36A186800F0A1FA94F82A
:1064C00030308BB1204612212A46FFF709FE04F135
:1064D0002C00FFF7BDFD30B1E36A186800F080FAC8
:1064E00005232371012038BD6A0220461221FFF7DF
:1064F000F7FDECE7AFF30080AFF30080AFF300806F
:10650000037970B5062B06460D4601D0012070BDFB
:1065100042F2107402E014F1FF3416D0F36A012144
:1065200018682A4600F0CCFA2B78FE2BF3D1F36AD8
:106530004FF4007118682A4600F0C2FAF36A02218B
:10654000186800F08DFA0020E1E7F36A186800F09F
:1065500067FAF36A186800F043FA052333710120E3
:10656000D5E700BFAFF30080AFF30080AFF300804A
:1065700038B503790446062B01D0012038BD054605
:1065800055F82C3F07211868064A00F081FA284682
:10659000FFF75EFDE36A186800F042FA05232371F5
:1065A0000020EBE7408F0008AFF30080AFF30080DE
:1065B00070B5044615461E46FFF772FF60B92EB946
:1065C0000CE016F1FF3609D005F500752946204686
:1065D000FFF796FF0028F4D0012070BD2046FFF79A
:1065E000C7FFFAE7AFF30080AFF30080AFF300809E
:1065F00038B5C36A044618689B68072222710D46A5
:10660000194600F0DDF9E36A186800F0F9F994F82A
:1066100030308BB1204619212A46FFF761FD04F185
:106620002C00FFF715FD30B1E36A186800F0D8F9C7
:1066300005232371012038BD6A0220461921FFF786
:106640004FFDECE7AFF30080AFF30080AFF30080C5
:1066500030B5037983B0072B04460D4602D00120E4
:1066600003B030BDC36A02211868164A00F010FA60
:10667000E36A2A4618684FF4007100F009FAE36AE9
:106680000221186800F0ECF9E36A0121186801AAF8
:1066900000F016FA9DF8043003F01F03052B0BD011
:1066A000E36A186800F0BCF9E36A186800F098F92A
:1066B000052323710120D3E704F12C00FFF7E0FC50
:1066C0000020CDE7308F0008AFF30080AFF30080EB
:1066D000037910B5072B044601D0012010BDC36A11
:1066E00002211868054A00F0D3F9E36A186800F03F
:1066F00097F9052323710020F0E700BF708F000891
:1067000070B5044615461E46FFF772FF60B92EB9F4
:106710000CE016F1FF3609D005F500752946204634
:10672000FFF796FF0028F4D0012070BD2046FFF748
:10673000CFFFFAE7AFF30080AFF30080AFF3008044
:1067400001F01F0301334FF0010C0CFA03F3490968
:106750004FEA521C013B8C4510B402F01F0206D3D5
:1067600050F82C00034033FA02F010BC704750F888
:10677000214050F82C102340C2F1200C03FA0CF0F9
:1067800031FA02F21043F0E7AFF30080AFF300807C
:10679000C36870B59B0F044617D149213E22FFF70D
:1067A000CFFF312106462F222046FFF7C9FF532194
:1067B000054650222046FFF7C3FF0136023516FA80
:1067C00005F5093815FA00F070BD012B01D0002045
:1067D000FAE745213022FFF7B3FF01308002F3E7EB
:1067E00008B500F025FF08BDAFF30080AFF30080CF
:1067F0000123037000234360704700BFAFF30080A4
:1068000010B52023044683F31188416089880181F3
:1068100000F02EFF02232370002383F3118810BDA4
:1068200010B52023044683F3118800F0D9FF01231B
:106830002370002383F3118810BD00BFAFF30080E5
:1068400008B5202383F3118800F0FAFF002383F3B7
:10685000118808BDAFF30080AFF30080AFF3008074
:1068600008B500F095FC08BDAFF30080AFF30080E1
:1068700008B50C30FFF76CFA08BD00BFAFF300801D
:1068800008B50C304FF0FF33FFF762FA08BD00BFC8
:1068900008B53030FFF7FCFA08BD00BFAFF3008049
:1068A00008B530304FF0FF33FFF7F2FA08BD00BFF4
:1068B00008B50C30FFF724FA08BD00BFAFF3008025
:1068C00008B50C304FF0FF31FFF71AFA08BD00BFD2
:1068D00008B53030FFF78CFA08BD00BFAFF3008079
:1068E00008B530304FF0FF32FFF782FA08BD00BF25
:1068F00008B501F065F808BDAFF30080AFF3008084
:1069000030B50B4648F680718446C0F60001044657
:106910004CF8041BC4F804C04FF0010C83B004F120
:106920005401154684F808C0102200F10C000094B0
:10693000FFF7AEF904F1640104F1300010222B4698
:106940000094FFF745FA03B030BD00BFAFF30080FD
:1069500038B5436904460D463BB104F10C002946A5
:10696000FFF7A6F900280BDB38BD04300421FFF740
:10697000F7F804F10C002946FFF79AF90028F3DA3A
:10698000201D8021FFF7ECF8EEE700BFAFF3008099
:1069900008B500F06DFC08BDAFF30080AFF30080D8
:1069A00008B500220346012100F10C0019705A605D
:1069B0009A60FFF705F808BDAFF30080AFF30080E1
:1069C00010B52023044683F31188416000F090FC49
:1069D00002232370002383F3118810BDAFF30080DE
:1069E00010B52023044683F3118800F029FD2046CA
:1069F00000F0EEFC01232370002383F3118810BD07
:106A000008B5202383F3118800F012FD002383F3DF
:106A1000118808BDAFF30080AFF30080AFF30080B2
:106A200008B5202383F3118800F00AFD002383F3C7
:106A3000118808BDAFF30080AFF30080AFF3008092
:106A400008B5202383F311880323037000F020FD91
:106A5000002383F3118808BDAFF30080AFF30080FB
:106A600010B52023044683F311880323237000F01C
:106A7000EFFC40F68013C2F200039B690220A36082
:106A8000FEF7C6FD002383F3118810BDAFF300802D
:106A900010B52023044683F311880323237000F0EC
:106AA000F7FC40F68013C2F200039B690220A3604A
:106AB000FEF7AEFD002383F3118810BDAFF3008015
:106AC00010B52023044683F311880323237000F0BC
:106AD00007FD40F68013C2F200039B690220A36009
:106AE000FEF796FD002383F3118810BDAFF30080FD
:106AF00008B50C30FEF7D4FF08BD00BFAFF300802F
:106B000008B5FEF7DDFF08BDAFF30080AFF30080EE
:106B10004FF48053CEF200035B688360704700BF80
:106B20004FF48053CEF2000308495A68836809681D
:106B3000D31AC2685B1A9342836088BFC36003D8CC
:106B40000269934238BF0361704700BFC809002043
:106B500030B546F6113287B0C0F6000240F6C814D0
:106B6000002301ADC2F20004019246F62132C0F6C4
:106B7000000228462360039304934FF0FF330292F0
:106B80000593FFF7C5FF029B28469847039B2360A8
:106B900007B030BDAFF30080AFF30080AFF30080EB
:106BA0000022C4F202020648116808B5036801F029
:106BB0000F0151600BB140689847FEF759FB08BDC3
:106BC000CC090020AFF30080AFF30080AFF300806A
:106BD0000022C4F202021168074808B5C1F303118C
:106BE00083684FEA011CC2F804C00BB1C068984723
:106BF000FEF73EFB08BD00BFCC090020AFF30080CC
:106C00000022C4F202021168074808B5C1F303214B
:106C100003694FEA012CC2F804C00BB140699847E0
:106C2000FEF726FB08BD00BFCC090020AFF30080B3
:106C30000022C4F202021168074808B5C1F303310B
:106C400083694FEA013CC2F804C00BB1C0699847A0
:106C5000FEF70EFB08BD00BFCC090020AFF300809B
:106C60000022C4F202021168074808B5C1F30341CB
:106C7000036A4FEA014CC2F804C00BB1406A98475E
:106C8000FEF7F6FA08BD00BFCC090020AFF3008084
:106C90000022C4F202021168074808B5C1F303518B
:106CA000836A4FEA015CC2F804C00BB1C06A98471E
:106CB000FEF7DEFA08BD00BFCC090020AFF300806C
:106CC0000022C4F202021168074808B5C1F303614B
:106CD000036B4FEA016CC2F804C00BB1406B9847DC
:106CE000FEF7C6FA08BD00BFCC090020AFF3008054
:106CF0000C49002310B4DFF830C00C4C0B601A466E
:106D00001946E0580C3301604CF802100832542B3D
:106D1000F7D10023C4F202034FF0FF325A6010BCD7
:106D2000704700BF040A0020CC090020A08F000893
:106D3000F8B590F809C0012606FA0CF5194C276839
:106D40003D4218BF304629D1174E3D4315F07F0F05
:106D500006EBCC077B601CBF4FF48053C4F20203E8
:106D6000256046F83C201EBFD3F814C04CF0010C3F
:106D7000C3F814C0037A0F249C400368D0F804C001
:106D80001D68002625F00F051D60CCF800401E6030
:106D90002AB1807A0901FEF7C3FA3046F8BD1046E1
:106DA000FCE700BF040A0020CC090020AFF30080FC
:106DB00010B50446807AFEF7DBFA637A012212FAF4
:106DC00003F3094A116821EA030313F07F0F1360EC
:106DD00001BF4FF48053C4F202035A6922F001024A
:106DE00008BF5A6110BD00BF040A0020AFF3008045
:106DF0004FF48053C4F2020300214FF0FF30D3F868
:106E000010C010B54EF2100218611961D3F80CE0F1
:106E1000CEF20002D86045F6BF50D9604EF6F05C65
:106E2000506007209160CEF2000C1060DCF80C205E
:106E30004FF4805042F08072CCF80C20CEF200006B
:106E4000D0F800C04FF4E0424CF0010CC0F800C094
:106E5000D869C4F2000240F08050D861D8694FF47C
:106E6000805440F00060D8611068C4F2020440F41D
:106E7000807010601A6A02F44072B2F5407F1EBF43
:106E80004FF480321A621962236A13F4004F09D159
:106E9000236A43F44073236200F05AF9236A43F4EF
:106EA00000432362FFF724FF10BD00BFAFF3008053
:106EB0004FF48053C4F202031A68194642F00102EB
:106EC0001A600A684FF4805312F0020FC4F20203F2
:106ED000F7D01A68194602F0F9021A6000225A60C7
:106EE0004A684FF4805312F00C0FC4F20203F7D13A
:106EF0001A68194642F480321A600A684FF48053C7
:106F000012F4003FC4F20203F7D05A68194642F463
:106F1000A0225A601A6842F080721A600A684FF420
:106F2000805312F0007FC4F20203F7D04FF4C8413F
:106F3000C0F245014FF400525960C4F20202102120
:106F4000116059681A4641F002015960536803F014
:106F50000C03082BFAD17047AFF30080AFF3008029
:106F600010B51D4C2046FFF753F842F28A534FF4F8
:106F700080522363C4F20202906918494FF41053FF
:106F8000C4F2010340F40070E162A3629061002248
:106F90005A6001229A60092219469A608A684FF461
:106FA000105312F0080FC4F20103F7D105229A60C2
:106FB00019468B684FF4105213F00403C4F2010217
:106FC000F7D14FF480519360C4F202018B6923F42E
:106FD00000738B6110BD00BF080A0020A08F00085D
:106FE0004FF48053C4F202039A6942F07D029A6121
:106FF00003684FF40062C4F20102D36081684FF469
:10700000406351604168C4F201031160C2684FF4EB
:107010008051DA604269C4F201015A60D0F810C0B0
:107020004FF4A052C3F800C08369C4F20102CB60E0
:10703000D0F820C04FF4C053C1F804C0D0F81CC031
:10704000C4F20103C1F800C0416AD160C16A516055
:10705000816A1160026BDA60826B5A60426B1A605F
:10706000704700BFAFF30080AFF30080AFF3008044
:10707000032A70B408BF016102D0042A08BF41612D
:10708000DFF858C000231CF8026008259C461A4609
:107090001C4600E04900120124011B0111F0800F81
:1070A00008BF42F00F024FEA0C1C18BF334311F423
:1070B000004F0CBF44F00F044CEA060C15F1FF35ED
:1070C000E8D141680C4044EA0C0CC0F804C00168E7
:1070D0000A4042EA0303036070BC70470090000856
:1070E00010B54FF42051C4F200018A884FF42053A8
:1070F00012F0080FC4F20003F7D019889C889A8810
:10710000A4B222F0070212040C40120C14F0010F7A
:107110009A8011D114F0020F09D114F0040F03D09A
:107120000848022103689847FEF7A2F810BD0548F9
:10713000012103689847F0E7024800210368984757
:10714000E8E700BF3C0A0020AFF30080AFF3008007
:107150004FF42051C4F200018A884FF4205312F0FA
:10716000200FC4F20003F7D09A8892B242F01002C6
:107170009A8000221A814FF223429A819A8822F043
:1071800010021204120C9A80704700BFAFF3008007
:107190004FF42051C4F2000108B58B880A4623F051
:1071A00008031B041B0C8B80938813F0080FFBD083
:1071B0004FF42051C4F200018A884FF4205312F09A
:1071C000200FC4F20003F7D000221A80034B0320E3
:1071D0001A60F021FEF7A4F808BD00BF3C0A0020A9
:1071E00011F0080F08B501D0FEF702F808BD00BF86
:1071F00011F0080F38B5044634D1636A0F2193F8B3
:1072000008C01A6801FA0CFC1568586825F00F05CB
:10721000236A1560C0F800C0187A1A688140656852
:10722000D2F800C058682B682CF00F0CC2F800C0D0
:107230000160A3B104222270204698472378042BD2
:107240000DD0202383F31188A06820B10023A36010
:107250004362FEF7CDF9002383F3118838BD022382
:107260002370EEE7FDF7C4FFC7E700BFAFF3008070
:107270002DE9F04140F6402340F64425C2F20005D6
:10728000C2F200034FF0FF32154E1A80284640F636
:107290007424FFF785FBC2F200044FF4405306F15B
:1072A0000C02C4F2010341F20A0841F21807204619
:1072B000EB612E626A62C5F82880EF62FFF770FB0F
:1072C0004FF4605306F11802C4F200032436E36160
:1072D00022626662C4F82880E762BDE8F08100BFE0
:1072E000AC8F0008AFF30080AFF30080AFF30080F5
:1072F000037810B5012B044618BFC36926D0626815
:10730000528912F4006F18D0A06AE16A20F470600C
:1073100021F4706140F4A06041F4A061A062E162D8
:1073200042F44172002119801A8007229A801A883B
:1073300092B242F040021A8010BDA06AE16A20F4C5
:10734000706021F47061A062E162E9E71C4B984231
:107350000CD01C4B98421ED0216A626AE36908680F
:10736000116803F10C0282608A60C8E70A21164A9C
:107370002346006AFFF7DCFC144A2346606A0A21B0
:10738000FFF7D6FC4FF48053C4F202039A6942F42B
:1073900080529A61E0E70A210B4A2346006AFFF710
:1073A000C7FC0A4A2346606A0A21FFF7C1FC4FF472
:1073B0008053C4F20203DA6942F48042DA61CBE717
:1073C000440A0020740A0020F1710008E1710008ED
:1073D000037810B5022B044600D010BDC36900220B
:1073E000006A1A809A80FFF7E3FC606AFFF7E0FC0E
:1073F0000C4B9C420CD00C4B9C4201BF4FF4805371
:10740000C4F20203DA6922F4804208BFDA61E4E7D9
:107410004FF48053C4F202039A6922F480529A61B5
:10742000DBE700BF440A0020740A0020AFF30080AD
:10743000436801211A895B6811FA02F25A617047A8
:10744000436801211A895B6811FA02F21A617047D8
:10745000026A436A30B41268856A1B68C46A40F6DF
:10746000A42C40F64020C2F2000CC2F20000C2F888
:107470000CC051601560D86059601C60116841F003
:10748000010111601A6842F001021A6030BC7047B5
:10749000D0F820C0436A30B4C56ADCF800C0846A02
:1074A0001B6840F6A420C2F2000045F08005CCF82D
:1074B0000C00CCF80410CCF80040DA6059601D6074
:1074C000DCF8002042F00102CCF800201A6842F0FB
:1074D00001021A6030BC7047AFF30080AFF3008048
:1074E000D0F820C0436A30B4856ADCF800C01B685D
:1074F000C46A40F6402045F08005C2F20000CCF896
:107500000C20CCF80410CCF80050D86059601C60F6
:10751000DCF8002042F00102CCF800201A6842F0AA
:1075200001021A6030BC7047AFF30080AFF30080F7
:1075300040F6A820C2F2000008B542684FF430536C
:107540006FF00101C4F20103196193689847FDF7D8
:107550008FFE08BDAFF30080AFF30080AFF3008073
:107560004FF43053C4F2010310B51C69DA681440BB
:10757000E4B2E24314F0020F1A6119D114F0040FBF
:1075800011D114F0080F09D114F0100F03D00B48DB
:1075900043689B6A9847FDF76BFE10BD0748436838
:1075A0001B6A9847F0E7054843689B699847E8E7F6
:1075B000024843681B699847E0E700BFA80A00201B
:1075C00038B5194D2B691C69DA681440E4B2E243FE
:1075D00014F0020F1A6121D114F0040F19D114F024
:1075E000080F11D114F0100F09D114F0010F03D0BE
:1075F0006B680D489B689847FDF73AFE38BD6B688D
:1076000009489B6A9847F0E76B6807481B6A9847E8
:10761000E8E76B6804489B699847E0E76B68284691
:107620001B699847D8E700BFBC0A0020AFF3008071
:1076300038B540F6A825C2F20005284640F6BC241D
:10764000FFF7D6F8C2F200044FF43053C4F201033E
:1076500020462B61FFF7CCF84FF40063C4F200031F
:10766000236138BDAFF30080AFF30080AFF300803B
:10767000037810B5012B04466CD042680369106B87
:10768000002120F0FF001960D860196159639963E7
:10769000D96319645962E0681168B4F808C0B0FB96
:1076A000F1F4D168D06A013C0CF1FF3C01F00F010C
:1076B000A4B21FFA8CFC01299C62C3F82CC058604C
:1076C00003D002290CBF03210021506900F00F00F4
:1076D000012824D0022820D0D06900F00F00012812
:1076E00024D0022831D0506A00F00F00012824D0A5
:1076F000022825D0196201215961D9689268002AAF
:107700000CBF0A4641F00102DA6000221A614FF410
:1077100000425A6485221A6010BD41F02001D069F0
:1077200041F0100100F00F000128DAD141F480711E
:10773000506A00F00F000128DAD141F48051D9E7F6
:1077400041F4005141F48051D4E741F4007141F417
:107750008071EDE7204B984209D0204B984222D00F
:10776000236946F6680199616268D96193E74FF42D
:107770008053C4F202039A69192042F400629A61AC
:10778000DA68702142F40062DA600022DA60FDF704
:10779000C7FD1B207021FDF7C3FD4FF45853C0F205
:1077A0006E13E360DCE74FF48053C4F20203DA693E
:1077B0001E2042F00402DA611A69702142F00402CC
:1077C0001A6100221A61FDF7ABFD4FF45853C0F265
:1077D0006E13E360C4E700BFA80A0020BC0A0020C3
:1077E00008B50378022B00D008BD036900221A6097
:1077F000DA601A615A64104B98420ED00F4B9842CF
:10780000F2D11E20FDF7B4FD4FF48053C4F2020301
:10781000DA6922F00402DA61E6E71920FDF7A8FD33
:107820001B20FDF7A5FD4FF48053C4F202039A69B3
:1078300022F400629A61D7E7A80A0020BC0A00205F
:107840004368006903EBC10301F10C0C1B6900EBF9
:107850008C0CCCF8042053B1022313FA01F1C36855
:10786000194204D141EA0303C943C360016170476F
:1078700002238B4002690C3102EB81010020486039
:10788000D16821EA0303D360704700BFAFF30080E3
:107890004FF48843C4F200039A8992B242F0800206
:1078A0009A817047AFF30080AFF30080AFF30080A0
:1078B0003D4870B5456FAE892C88B6B2A4B214F4B9
:1078C000807F49D1202383F3118814F0200F22D028
:1078D00014F00F0F15D014F0080118BF802114F018
:1078E000010F18BF41F0200114F0020F18BF41F042
:1078F000400114F0040F18BF41F480712B48FEF7CB
:107900002FF9A9882848C9B2FFF722F82C88A4B219
:1079100014F0200FDCD1002383F3118816F0800FC0
:1079200002D014F0800F26D114F0400F11D0202384
:1079300083F311881D481021FEF712F9002383F309
:1079400011884FF63F7306EA0303AB814FF6BF730E
:107950002B80FDF78DFC70BD202383F311884FF43D
:1079600000710430FEF7FCF8002383F311884FF612
:10797000FF632B80A6E7202383F311880C48FEF7D2
:107980005FFA0028A4BF80B2A88003DB002383F342
:107990001188C9E705480821FEF7E2F826F0C00380
:1079A00043F04003AB81F1E7D00A0020D40A002065
:1079B000000B0020AFF30080AFF30080AFF3008036
:1079C00010B540F6D024C2F2000447F69102C0F68A
:1079D000000220460021FEF793FF4FF48843C4F2D3
:1079E0000003636710BD00BFAFF30080AFF30080FA
:1079F00008B5FFF75DFA08BDAFF30080AFF3008074
:107A0000704700BFAFF30080AFF30080AFF300809A
:107A100010B510B10224204610BD06480479053C7B
:107A200018BF012401F0E4F90028F4D044F0040464
:107A3000E4B2F0E778130020AFF30080AFF30080EA
:107A400010B510B10224204610BD06480479053C4B
:107A500018BF012401F0CCF90028F4D044F004044C
:107A6000E4B2F0E778130020AFF30080AFF30080BA
:107A700038B50C461D4608B1042038BD0E480379C0
:107A8000052B01D00320F8E71146FEF709FD60B988
:107A90001DB90CE05DB104F5007421460648FEF7FF
:107AA0002FFD013DEDB20028F4D00120E5E70248AA
:107AB000FEF75EFDE1E700BF78130020AFF3008022
:107AC00008B520B1037813B1C3888B4201D00920D7
:107AD00008BD4078FFF7B4FF10F0010018BF032085
:107AE000F6E700BFAFF30080AFF30080AFF3008094
:107AF00038B5036A05468B420C460ED0084601B9DC
:107B000038BD687805F1240122460123FFF7B0FF54
:107B100008B92C62F4E70120F2E70020F0E700BF8B
:107B200038B5044604F124050A4640782946012365
:107B3000FFF79EFFC8B9B4F822224AF655239A42AD
:107B400001D0022038BDD5F8362044F2461322F089
:107B50007F42C0F254039A42F4D0D5F8520020F08C
:107B60007F40C01A18BF0120ECE70320EAE700BFFE
:107B70000129F8B50C4605460CD9C368994209D2CB
:107B80000378022B08D0032B35D0012B10D04FF0F7
:107B9000FF30F8BD0120FCE7416901EB1421FFF73C
:107BA000A7FF0028F3D1240605EBD455A88CF0E7F5
:107BB000416904EB540601EB5621FFF799FF0028B9
:107BC000E5D1F30569690136DB0DEB1801EB5621B0
:107BD000284693F82470FFF78BFF0028D7D1F605CD
:107BE000F60DAE1996F8240014F0010F47EA0020B4
:107BF0000FD00009CDE7416901EBD411FFF778FF01
:107C00000028C4D1640605EBD455686A20F07040A2
:107C1000BFE70005000DBCE7AFF30080AFF30080C5
:107C200081680023012910B50446C38015D000687F
:107C3000C368994211D291B1827832B121E0012812
:107C40000BD92068C368994207D2FFF791FFB0F1C2
:107C5000FF3F0146F3D1012000E0022010BD027871
:107C6000032A0AD003890022E260002BF5D0836941
:107C70002361243060610020F0E781690029F1D0A0
:107C8000DAE7023BA1F1020C9C4538BFC369E16011
:107C900034BF02FB0C3200222261EAE7AFF300801E
:107CA00048B9064B1A6802B1107009B100220A7077
:107CB0001960002070470B20FCE700BF4C0D00202E
:107CC0002DE9F04F002391B0029003600B780C4631
:107CD000303B092B039203D84A783A2A00F0A1805E
:107CE000DFF8F0361D680495002D00F034832B7802
:107CF0005BB9002028706870FFF78AFE10F001065B
:107D00007CD0032011B0BDE8F08F6878FFF798FEB3
:107D100010F0010FEDD10DAB0A93DFF8BC360B93D9
:107D200023782F2B14BF002201225C2B14BF134693
:107D300042F0010303B101340023069320781F2889
:107D400088BFDFF8948640F208832F2814BF0023F1
:107D500001235C2808BF43F001036BB1631C1C4680
:107D600013F8010B2F2814BF002201225C2808BF42
:107D700042F00102002AF2D11F288CBF0025012504
:107D80002F2808BF45F00105002D40F0E6805C2853
:107D900000F0BC80C0B2012147462646012500F014
:107DA000FFFB48B37F280AD8222825D0DFF82C26ED
:107DB00001E0984220D012F8013F002BF9D127F8BA
:107DC000020B16F8010F6B1C1F288CBF002201222A
:107DD0002F2808BF42F00102002A40F0C0805C2832
:107DE00000F09580B3F5807F06D0C0B201211D461A
:107DF00000F0D6FB0028D5D1062083E7284631467F
:107E0000FFF78EFE012811D0032800F0C78230B999
:107E100005F12403B3F80B20B2F5007F11D00D203B
:107E200070E7002B00F0C1820B206BE795F8E6317C
:107E3000002BF4D0D5F8EA6128463146FFF770FEF2
:107E4000E2E7D88A00B9586A95F834A028610AF1A7
:107E5000FF32D2B2012A85F803A0E0D895F831109C
:107E6000A9700029DBD04A1E0A42D8D1B3F81120EC
:107E700012F00F0F2A81D2D1B3F81380B8F1000F9E
:107E800001D1D3F82080DF89002FC8D00AFB00FA87
:107E900007EB121CD444C445C1D8CCEB0808B8FB8E
:107EA000F1F10029BBD040F6F578414540F29082CF
:107EB00008F57048414500F27C820223B444023147
:107EC000F619E960C5F81CC06E61002AA7D05644B7
:107ED000022BAE6100F06B82032303FB01F301F080
:107EE000010101EB5301012301F5FE720332B0EBF6
:107EF000522F94D3DFF8E8142B700A880023013244
:107F000092B20A80EA802B622B7104E70123E41805
:107F10000027002D3FF470AF6B1E38F8132008EBDC
:107F20004301B2F12E0018BF0120202A0CBF00220D
:107F300000F001026AB117E031F8022D013BB2F105
:107F4000200018BF01202E2A0CBF002200F00102E1
:107F500052B91D46002BEFD14EE700250123E4184E
:107F60001F28D5D80427D4E700200A9908EB450C30
:107F700028F8150000232022CA5401330B2BFBD113
:107F8000B8F800002E2814BF00260126202808BFBC
:107F900046F001068EB14246002632F8020F013645
:107FA000202814BF002301232E2808BF43F001031B
:107FB000002BF2D10EB147F00307634602E015F142
:107FC000FF3503D033F8022D2E2AF8D14FF0000AE6
:107FD000DFF810344FF00809D34628B301362028C3
:107FE00000F01481AA1B18BF01222E2814BF002103
:107FF00002F00101002940F00981CA4534BF002187
:108000000121B54208BF41F00101002900F00381C0
:10801000B9F10B0F00F0BD81002A00F05F81AE4284
:1080200047F0030740F25A810A9B1A78E52A00F0CC
:108030006B81B9F1080F04BF4FEA8B0B5FFA8BFB22
:108040000BF00C020C2A00F05C810BF003010329F9
:1080500000F0578117F0020F0AD10BF0030BBBF1B0
:10806000010F08BF47F01007042A08BF47F00807B0
:10807000DF7204A8FFF7D4FD002840F0BC804FF069
:10808000FF080498089946464FF00D0AFFF730FDA7
:10809000002840F0B080099F3D78002D00F0558108
:1080A000E52D07F10B0CFB7A00F0868003F03F030F
:1080B000B3F10F0218BF012212EAD3027CD10F2BB9
:1080C00035D08EB93E460B22034601E016F8015F1B
:1080D000D90141EA53035B1912F1FF3203F0FF03A8
:1080E000F4D1984500F05C810A9D4FF0FF31ADF866
:1080F0003010EE7A16F001035ED1F95CEA5C0133D0
:10810000914259D10B2BF8D116F0040F40F0BA80F0
:108110009CF8003013F0100F00F02681BA8A7B8B98
:10812000DDF82C8043EA0243069320780DE6DDF863
:108130002C90B9F1000F40D015F0400F00F0DA801C
:10814000BDF816107B7B07F10D0205F0BF05ADF8F9
:10815000301092F80080984518BF98462CD197F8B7
:1081600000B001232BF0400B0BF1FF3B22469E4E4B
:108170000AFB0BFB1C4608E04FF6FF7398421AD12E
:10818000DFF868C2664500F0F18016F8013FF85A42
:10819000002CF1D0019200F023FABBF1FE0F04464F
:1081A000019A08D839F81B0000F01AFA84420BF142
:1081B000010B019AE4D01446FF26BDF81650013594
:1081C000ADB2BDB10899A9B115F00F0718BF049859
:1081D00008D1079B01310891002B5CD104980389D9
:1081E000AB4207D900F1240303EB4717ADF8165053
:1081F00009974BE704200A9B0428DB7A7FF482ADC1
:1082000013F0040F0CBF052004207BE547F00307A3
:1082100038F81600E1E67F281CD82B2827D07449AF
:1082200001E0904223D011F8012F002AF9D1A0F1EA
:10823000410292B2192A9CBF4BF0020BC0B219D96D
:10824000A0F1610292B2192A02D820384BF0010B3A
:10825000C0B20FE0019300F0A3F9019B002877D092
:10826000181810F8800C47F002070028D5D147F005
:1082700003075F200A9A02F80A0038F816000AF18C
:10828000010AAAE6002F3FF4B7ADFB7A13F0100302
:108290003ED0042036E5049890F8029009F1FF39A9
:1082A00019EA15199ED11946FFF762FC0128034609
:1082B00072D9B0F1FF3F76D00498C268934299D248
:1082C000A3F1020C023A944538BF8178079336BF78
:1082D000C369494601FB0C31089183E74FEA8B0BD8
:1082E0002E465FFA8BFB4FF00B094FF0080A38F867
:1082F000160072E6B5427FF45FAF07F10D02434608
:1083000027E747F00207A5E605221A700A9B90E6C8
:10831000DDF80CC002990CF001028A71B7F814C0A4
:10832000798B049A41EA0C41DDF808C0CCF81010B2
:10833000F969CCF80020D288CCF80830CCF80C10C1
:10834000CCF81830ACF80420DCE40A9BDB7A57E761
:1083500047F002078BE70C20D4E404A8FFF760FC89
:10836000002808BF0620CDE40520CBE423461446B0
:108370003A78C2F38012002B0CBF002302F00103F5
:1083800023B139F81B30002B7FF416AF013DEEB25C
:1083900013E747F0030747E602202CE70120B1E48A
:1083A0000A9BDE7AB0E6012025E78C1C98E44900A0
:1083B0009AE5B4440231F619E960C5F81CC06E6153
:1083C000002A7FF42CADDB6A8900AB6103238BE5C7
:1083D000012373E54C0D00204C0B0020E0900008B9
:1083E000480B002060900008FF9000080C910008E6
:1083F000EC900008AFF30080AFF30080AFF3008093
:108400002DE9F0470546B5F804C01F460023006873
:108410000C463B6061469246FFF752FB80460028BF
:1084200076D1AB7913F0800F18BF4FF002086FD1EF
:1084300013F0010F08BF4FF0070869D0A968EE6874
:10844000761AB24538BF5646002E61D04FEAC15A5F
:108450004FEADA5ABAF1000F42D02868AA691146E9
:10846000FFF746FB002840F08880A9682A68CB0502
:10847000CAF5007A2432DB0DB24528BFB246D218C5
:10848000BAF1030F9CBFA446504610D9135823508D
:108490000430C0EB0A03032BF8D8AAF1040020F043
:1084A0000303043304EB030CD21800F0030038B1CB
:1084B0000023D15C0CF8031001339842F9D1A9686C
:1084C0003B6851445344B6EB0A06A9603B601FD099
:1084D00054444FEAC15A4FEADA5ABAF1000FBCD1FC
:1084E000286890F8029009F1FF3909EA51295FFAEA
:1084F00089F9B9F1000F0ED06B69C268023B023AEC
:10850000934217D3AB794FF0020863F07F03AB714E
:108510004046BDE8F087002936D12B69012BF1D9FF
:10852000B3F1FF3F29D028686B61C268023B023A71
:108530009342E7D28178C26901FB0322002AE1D08D
:108540005FEA562A4A4410D009EB0A038B4288BFDF
:10855000C9EB010A40785FFA8AF32146FFF788FAEF
:1085600058B94FEA4A2AA968AAE7D5F808A0AA612B
:108570004FEACA5A4FEADA5A71E7AB794FF001086D
:1085800063F07F03AB71C3E76969FFF7F1FA034654
:10859000C4E700BFAFF30080AFF30080AFF300800B
:1085A0007F2807D90C4B51B1FF2812D80B4B8038CC
:1085B00033F8100070471FFA8CF1802905D033F88A
:1085C000022F01F1010C8242F5D101F18000C0B20D
:1085D000F0E70020EEE700BF0E91000810910008C0
:1085E00061280AD00749002201E0834206D031F811
:1085F000023F0132002BF8D170470022024B33F8C2
:108600001200F9E710920008F0930008AFF3008021
:1086100008B5FDF7D5FCFCF7F3FE00F079F800F0A3
:10862000DFFA00F055F90020014600F061F9012061
:10863000034900F05DFA034800F0A2F8FBE700BF31
:10864000D0950008D4950008AFF30080AFF3008008
:1086500070B5294C294A236842F21070D25C48F266
:10866000810100FB02F2C8F2800181FB0201244D6E
:108670008A182889D21100FB02F241F25971CDF219
:10868000B711A1FB020201330021C2F34F32284689
:108690002360FEF7D5F82368B3F5007F0ED0B3F55D
:1086A000806F00D070BD174E3368FBB9164B1B6846
:1086B000BBB90123336000232360F3E7114E336815
:1086C0002BB9114B1B683BB901233360EAE72846FD
:1086D0000021FFF7CDF8F4E700210C48FDF770FA10
:1086E000E0E701210948FDF76BFAE4E7284600219D
:1086F000FFF7BEF8DAE700BF500D0020780F00202A
:10870000A80A0020D8130020D4130020AC130020A6
:1087100010B541F2AC3041F2DC314FF44064C4F2A8
:1087200001040122C2F20000C2F20001FDF730FA9A
:10873000102220464FF40051FEF79AFC20461022EA
:108740004FF48041FEF794FC204610224FF4004184
:10875000FEF78EFC204606224FF48051FEF788FC7F
:108760004FF480534FF40060C4F2010023614FF4D2
:1087700080711022FEF77CFC10BD00BFAFF30080BB
:10878000F0B53F4B00223F4E8DB01A6007460124E2
:108790003D483460FDF76CFE3B483C49FDF778FEF0
:1087A0003948FDF7C5FD00285BD003AD28463946A2
:1087B0000122FFF785FA002850D1354A354B106069
:1087C00003F5806203F8010F9342FBD10CAF4FF425
:1087D000806347F8043D3B4628462F494FF400721A
:1087E000FFF70EFE0B9B002B42D12C482C49FEF7C5
:1087F00007F8002129480A46FEF722F80AAC0B9B2D
:1088000021460022274893B1FDF71AFA0028F6D135
:108810000A9BDBB920494FF400723B462846FFF71C
:10882000EFFD0B9B214600221E48002BECD1194680
:10883000184633600193FFF733FA1348FDF7F8FC4D
:108840001648FDF7EDFF019B184608E0284616493B
:108850004FF400723B46FFF7D3FDD0E702200DB086
:10886000F0BD1249FFF71CFA00289ED02046F6E71B
:1088700028460D494FF400723B46FFF7C1FDB4E7AF
:10888000D8130020D41300207813002034080020CF
:10889000500D0020770F0020780F0020A80A00203C
:1088A00000080020AC13002078110020540D002097
:1088B00010B5044600F074FA00F062FA204600F0A9
:1088C00037FA10BDAFF30080AFF30080AFF3008044
:1088D000054B002103F5FC7203F8011F9342FBD105
:1088E000024B01221A707047E7130020E0130020AA
:1088F000013800EB400043000139542000FB0130F7
:1089000041F2E433C2F2000318607047AFF3008015
:108910001F292DE9F00F4DD9972936D9C02900F02C
:10892000BF80C22900F0C080C72900F0BB80C929E0
:1089300000F0BC80CA2900F0BB80CE2900F0BA80CC
:10894000E02900F0AD80E22900F0AE80E72900F0D8
:10895000B380E82900F0B280E92900F0B180EA296B
:1089600000F0A680EB2900F0AD80EE2900F0A28097
:10897000EF2900F0A980F42900F0A880F92900F07F
:10898000A780FB2914BF94219621012815D0022825
:108990002DD05048DFF840C1D0F800B00BF10103F2
:1089A000002203604D4B0CF80B2001221A70BDE829
:1089B000F00F704794210128E9D14648484BD0F880
:1089C00000B02039DFF810C101EB81010BF1FF325B
:1089D000C91862440023013311F8014FDBB264006F
:1089E000052B02F8014FF6D10BF1050BD6E73948FC
:1089F000D0F800B0BBF15403D9D4DFF8DCC0203983
:108A0000374A01EB8101ACF14A098D186344D9441E
:108A100015F8011F4900C9B20A0902F001046600F5
:108A200002F00207341901F0040A01F00208002FD5
:108A300014BF0C27002702F00406BAF1000F14BF80
:108A40004FF0300A4FF0000AB8F1000F14BF4FF09A
:108A50000C084FF00008002E14BF3026002601F04D
:108A6000080144EA070702F00802002914BFC021E8
:108A70000021002A14BFC02200224AEA080A47EA5D
:108A8000060414434AEA01011970597083F85440EE
:108A900083F8554002334B45BAD10BF10B0B7DE700
:108AA000852172E7802170E783216EE790216CE7D2
:108AB00088216AE78C2168E7872166E78A2164E7D5
:108AC000822162E7892160E78B215EE793215CE7E1
:108AD00097215AE7E4130020E8130020E013002058
:108AE000EF950008AFF30080AFF30080AFF3008094
:108AF00038B50C460978054631B12846FFF708FF1E
:108B000014F8011F0029F8D138BD00BFAFF3008071
:108B1000002814BF24202020012908BF40F00200B3
:108B2000012A08B508BF40F00100FFF7C1FE08BDEB
:108B3000012808B508D0022808D003280CBF0D2052
:108B40000820FFF7B5FE08BD0C20FAE70920F8E77A
:108B500000F0070008B540F04000FFF7A9FE08BD8F
:108B600008B540F08000FFF7A3FE08BDAFF300801A
:108B700038B500F01DF9002108460A46FFF7C8FF86
:108B80000020FFF7E5FF0020FFF7EAFF00F000F903
:108B9000064C04F5FC7514F8010F00F0C9F8AC425E
:108BA000F9D1034B00221A7038BD00BFE713002033
:108BB000E0130020AFF30080AFF30080AFF300803C
:108BC00000F0030008B540F00400FFF771FE08BD97
:108BD00000F0070008B540F01000FFF769FE08BD7F
:108BE00008B500F055F84FF4802000F041F800F08F
:108BF000E7F84FF4802000F03BF800F0E9F84FF47C
:108C0000802000F035F8002101220846FFF780FFA0
:108C10000320FFF7DDFF0020FFF7D2FF0020014611
:108C20000246FFF775FF0120FFF782FF0A4803782D
:108C3000012B02D0FFF79CFF08BD084B002103F574
:108C4000FC7203F8011F9342FBD1054B01221A70FD
:108C500000230370EEE700BF58080020E713002050
:108C6000E0130020AFF30080AFF30080AFF300808B
:108C7000002382B00193019B984205DD019B0133E3
:108C80000193019B8342F9DB02B07047AFF3008090
:108C9000F0B54FF480541025C4F201044FF4006085
:108CA00083B02021C4F201002A462561FEF7E0F9D5
:108CB0004FF4006080212A46C4F20100FEF7D8F983
:108CC000062220462946FEF7D3F94FF440600126DC
:108CD000C4F2010020272561062206613146276182
:108CE000FEF7C6F9062220462946FEF7C1F90622FC
:108CF00020463946FEF7BCF900230193019A48F259
:108D00009F6366F31F439A4209DC48F29F62C0F2F8
:108D10000102019B01330193019B9342F9DD03B0F2
:108D2000F0BD00BFAFF30080AFF30080AFF3008071
:108D300030B540F6442483B0C2F20004034602ADCD
:108D4000204605F8013DFDF7D3FE40F65C01C2F276
:108D500000012046FDF734FE2046FDF751FE204677
:108D600001212A46FDF76CFE2046FDF759FE2046FC
:108D7000FDF7C6FE03B030BDAFF30080AFF3008057
:108D80004FF44063C4F2010301225A61704700BFEF
:108D90004FF44063C4F2010301221A61704700BF1F
:108DA0004FF48053C4F2010310225A61704700BF90
:108DB0004FF48053C4F2010310221A61704700BFC0
:108DC0004FF48053C4F2010320225A61704700BF60
:108DD0004FF48053C4F2010320221A61704700BF90
:108DE00001207047AFF30080AFF30080AFF3008045
:108DF00001207047AFF30080AFF30080AFF3008035
:108E000069646C65000000000000000000000000C4
:108E10006D61696E00168311040448080C10141863
:108E2000001C1D1E1F2000000000000000000000AC
:108E30000009121B242D363F48415A536C657E773A
:108E400019100B023D342F265158434A757C676E2A
:108E5000323B2029161F040D7A7368615E574C451A
:108E60002B2239300F061D14636A7178474E555C0A
:108E7000646D767F4049525B2C253E3708011A13FA
:108E80007D746F6659504B42353C272E1118030AEA
:108E9000565F444D727B60691E170C053A332821DA
:108EA0004F465D546B627970070E151C232A3138CA
:108EB0004148535A656C777E09001B122D243F36BA
:108EC00058514A437C756E671019020B343D262FAA
:108ED000737A6168575E454C3B3229201F160D049A
:108EE0006A6378714E475C55222B3039060F141D8A
:108EF000252C373E0108131A6D647F7649405B527A
:108F00003C352E2718110A03747D666F5059424B69
:108F1000171E050C333A21285F564D447B72696059
:108F20000E071C152A233831464F545D626B707949
:108F3000FFFC000000000000000000000000000036
:108F40004C0000000001FF000000000000000000D5
:108F5000E18D0008F18D00083163000831620008DE
:108F6000B16500080167000801620008316000086F
:108F7000FDFF0000000000000000000000000000F5
:108F8000A168000881680008E1680008C16800085D
:108F9000D1680008B168000891680008716800088D
:108FA000080002400400024000000B001C000240C8
:108FB0000400024004010C003000024004000240A2
:108FC00008020D0044000240040002400C030E00A1
:108FD000580002400400024010040F006C000240E0
:108FE000040002401405100080000240040002400A
:108FF0001806110000000000000000000000000042
:1090000004020408080003070808080808080808FC
:109010000B0F000000000000000000000000000036
:10902000FFFFFFFF4444444444444444FFFFFFFF28
:109030004444444444444444FFFFFFFF4444444404
:1090400044444444FFFFFFFF4444444444444444F4
:10905000FFFFFFFF888888888888888800000000D4
:10906000808182828485868788898A8B8C8D8E8F89
:10907000809192939495969798998A9B8C8D8E8FD8
:10908000A0A2A2A3A4A5A6A7A8A9AAABACADAEAF67
:10909000B0B1B2B2A5B5B6B7A8B9AABBA3BDBDAFB2
:1090A000C0C1C2C3C4C5C6C7C8C9CACBCCCDCECF48
:1090B000D0D1D2D3D4D5D6D7D8D9DADBDCDDDEDF38
:1090C000C0C1C2C3C4C5C6C7C8C9CACBCCCDCECF28
:1090D000D0D1D2D3D4D5D6D7D8D9DADBDCDDDEDF18
:1090E000222A3A3C3E3F7C7F000000002B2C3B3D77
:1090F0005B5D0000000000000000000000000000B8
:1091000001030507090E10121416181C1E0000009A
:10911000020403041A2053041E20262020202120AC
:10912000AC203020090439200A040C040B040F047D
:109130005204182019201C201D2022201320142046
:109140000000112159043A205A045C045B045F04B6
:10915000A0000E045E040804A4009004A600A7006A
:109160000104A9000404AB00AC00AD00AE0007048C
:10917000B000B100060456049104B500B600B70073
:10918000510416215404BB00580405045504570427
:109190001004110412041304140415041604170413
:1091A000180419041A041B041C041D041E041F04C3
:1091B0002004210422042304240425042604270473
:1091C000280429042A042B042C042D042E042F0423
:1091D00030043104320433043404350436043704D3
:1091E000380439043A043B043C043D043E043F0483
:1091F0004004410442044304440445044604470433
:10920000480449044A044B044C044D044E044F04E2
:10921000610062006300640065006600670068002A
:1092200069006A006B006C006D006E006F007000DA
:10923000710072007300740075007600770078008A
:1092400079007A00A100A200A300A500AC00AF0045
:10925000E000E100E200E300E400E500E600E700F2
:10926000E800E900EA00EB00EC00ED00EE00EF00A2
:10927000F000F100F200F300F400F500F600F80051
:10928000F900FA00FB00FC00FD00FE00FF000101F8
:1092900003010501070109010B010D010F01110176
:1092A00013011501170119011B011D011F012101E6
:1092B00023012501270129012B012D012F01310156
:1092C0003301350137013A013C013E0140014201C1
:1092D0004401460148014B014D014F015101530129
:1092E0005501570159015B015D015F016101630196
:1092F0006501670169016B016D016F017101730106
:10930000750177017A017C017E019201B103B203FC
:10931000B303B403B503B603B703B803B903BA0381
:10932000BB03BC03BD03BE03BF03C003C103C30330
:10933000C403C503C603C703C803C903CA03300473
:109340003104320433043404350436043704380459
:1093500039043A043B043C043D043E043F04400409
:1093600041044204430444044504460447044804B9
:1093700049044A044B044C044D044E044F04510468
:109380005204530454045504560457045804590411
:109390005A045B045C045E045F0470217121722135
:1093A00073217421752176217721782179217A2101
:1093B0007B217C217D217E217F2141FF42FF43FFD4
:1093C00044FF45FF46FF47FF48FF49FF4AFF4BFF69
:1093D0004CFF4DFF4EFF4FFF50FF51FF52FF53FF19
:1093E00054FF55FF56FF57FF58FF59FF5AFF000023
:1093F0004100420043004400450046004700480049
:1094000049004A004B004C004D004E004F005000F8
:1094100051005200530054005500560057005800A8
:1094200059005A002100E0FFE1FFE5FFE2FFE3FF02
:10943000C000C100C200C300C400C500C600C70010
:10944000C800C900CA00CB00CC00CD00CE00CF00C0
:10945000D000D100D200D300D400D500D600D8006F
:10946000D900DA00DB00DC00DD00DE00780100015D
:1094700002010401060108010A010C010E0110019C
:1094800012011401160118011A011C011E0120010C
:1094900022012401260128012A012C012E0130017C
:1094A00032013401360139013B013D013F014101E7
:1094B0004301450147014A014C014E01500152014F
:1094C0005401560158015A015C015E0160016201BC
:1094D0006401660168016A016C016E01700172012C
:1094E0007401760179017B017D0191019103920361
:1094F00093039403950396039703980399039A03A0
:109500009B039C039D039E039F03A003A103A3034E
:10951000A403A503A603A703A803A903AA03100491
:109520001104120413041404150416041704180477
:1095300019041A041B041C041D041E041F04200427
:1095400021042204230424042504260427042804D7
:1095500029042A042B042C042D042E042F040104B6
:1095600002040304040405040604070408040904AF
:109570000A040B040C040E040F0460216121622113
:1095800063216421652166216721682169216A219F
:109590006B216C216D216E216F2121FF22FF23FFA2
:1095A00024FF25FF26FF27FF28FF29FF2AFF2BFF87
:1095B0002CFF2DFF2EFF2FFF30FF31FF32FF33FF37
:1095C00034FF35FF36FF37FF38FF39FF3AFF000021
:1095D00048692100303A616E7468656D30312E72D1
:1095E00061770000000000000000000000000000A3
:1095F000000000000000002F00000007000700141A
:109600007F147F14242A7F2A12C4C81026463649A4
:109610005522500005030000001C22410000412299
:109620001C0014083E081408083E080800005030CA
:1096300000101010101000606000002010080402DC
:109640003E5149453E00427F40004261514946211A
:1096500041454B311814127F1027454545393C4A86
:1096600049493001710905033649494936064949D6
:10967000291E00363600000056360000081422412C
:109680000014141414140041221408020151090694
:10969000324959513E7E1111117E7F494949363E6A
:1096A000414141227F4141221C7F494949417F0973
:1096B0000909013E4149497A7F0808087F00417F36
:1096C00041002040413F017F081422417F4040403B
:1096D000407F020C027F7F0408107F3E4141413EE3
:1096E0007F090909063E4151215E7F091929464635
:1096F0004949493101017F01013F4040403F1F205E
:1097000040201F3F4038403F63140814630708702F
:1097100008076151494543007F4141000204081098
:10972000200041417F0004020102044040404040CB
:10973000000102040020545454787F4844443838CF
:1097400044444420384444487F3854545418087ED4
:109750000901020C5252523E7F0804047800447DF5
:1097600040002040443D007F1028440000417F40DD
:10977000007C041804787C08040478384444443895
:109780007C14141408081414187C7C080404084879
:1097900054545420043F4440203C4040207C1C2032
:1097A00040201C3C4030403C44281028440C505081
:1097B000503C4464544C44000836410000007F0093
:1097C00000004136080004020408040000360000CE
:1097D0000E513111083C4140217C38545655182017
:1097E00056555678205554557820555654780808C3
:1097F0002A1C080E51311108385655561838555440
:109800005518385556541800457C410000467D4295
:10981000007F7F7F7F7F7F7F7F7F7F7F7F7F7F7FD7
:109820007C545655447F7F7F7F7F7F7F7F7F7F384B
:10983000464546387F7F7F7F7F38454644383C42E7
:0898400041227C3C4142207CE6
:1098480000366E01E80300005186000801000000A0
:109858000000000000000000000000000000000000
:1098680000000000000000000000000000000000F0
:1098780000000000740A0020400800204C08002066
:1098880000000000000C01400C0030000000000047
:10989800000C01400C000000010000000000000066
:0898A800000C01400C0030002F
:04000005080051118D
:00000001FF
