:020000040800F2
:100000000004002021090008F1090008F109000896
:10001000F1090008F1090008F1090008F1090008D8
:10002000F1090008F1090008F1090008310A000887
:10003000F1090008F1090008F1090008110A000897
:10004000F1090008513B0008F1090008813D000852
:10005000F1090008F10900080139000831390008E8
:100060006139000891390008C139000801330008DE
:100070004133000891330008E133000831340008AF
:1000800081340008D1340008F1090008F1090008A2
:10009000F1090008F1090008F1090008F139000828
:1000A000F1090008E1450008F109000811460008BF
:1000B000F1090008F1090008B1460008F10900083B
:1000C000F1090008F1090008F1090008F109000828
:1000D000F1090008F1090008E14C0008F1090008E5
:0C00E000913A0008813B0008B13B000889
:1000F000002200F0C7B800BF0000000000000000B0
:100100002DE9F04F85B0044600F092FA40F2B17349
:100110009C42844640F39880A4F5F66248F21F5151
:10012000C5F2EB1102F1430002F5B673561E81FBD6
:100130000057033381FB0458C01781FB0351A0EB28
:100140006710E51700EBA606023AC5EB6810C5EB91
:10015000E81840F26D15DB1747F6D03905FB02624F
:100160004FF4C875C3EBE113642105FB184842F254
:10017000934B01FB10404FF4A34AB8F1000F0CBFA2
:100180003021002165460027C0F60009CDF80C801B
:10019000C9F2492BC0F2010A8046D318029104F03B
:1001A000030200930192CCF804402B7A4A2B4DD0E5
:1001B000442B5FD0019A002A41D0029EEC684E4445
:1001C000012C5BDD009A31460123013351F8040B09
:1001D000A3420244F9D1013B9C00131D8BFB031089
:1001E000D917C018C1EBA0013059C1EBC101591A90
:1001F0006B69591A2B6948BF0731013BC3EBC30335
:10020000CB18834202DB073B8342FCDA9B18296A46
:100210000137AA69022F0A440AFB032245F81C2F62
:10022000C3D1DCF838300120DCF81C209A42ACBF86
:1002300000230123CCF8003005B0BDE8F08FB8F101
:10024000000FBAD03026B9E70020F5E7009A6969B7
:100250005318019A42B9B8F1000F05D03B29D4BF19
:1002600000210121CB18D2E7039A002AF6D0002101
:10027000CB18CCE76B690099CB18C8E7009A00242B
:10028000ABE700BF2DE9F84F05460C46164600F0D7
:10029000CFF92A684FF4A341C0F20101D717834672
:1002A00044F20750CCF22E2080FB02839B18C7EB50
:1002B000234301FB1322002A05DA02F5A832013B91
:1002C00012F5C072F9D44BF2C5314FEAE279C9F2A6
:1002D000A21142F29348181DC9F2492881FB02A1DC
:1002E00048F6890788FB00A88918C8F688074FEAEE
:1002F000E07CC9EBE1214FF46169A16009FB1122A7
:1003000008EB0001CCEBA101C1EBC10187FB02C7E7
:10031000411A4FEAE27C002907EB0200A161CCEB15
:1003200060106060C0EB0010A2EB80022260C0F29F
:10033000A680002B75DB47F6D03C48F21F5040F2F8
:10034000B277C0F6000CC5F2EB104FF4C8794FF04D
:10035000640A01E001379B1A80FB0728FA1717F09F
:10036000030F07D1C2EB681801210AFB1878B8F116
:10037000000F09D180FB0781C2EBE11109FB11716C
:10038000D1F1010138BF00210CEB8102126E9342C2
:10039000E0DA4A00A7F5EC6052180C380021E3615E
:1003A0001201606121610CEB02085CF802209342AB
:1003B00007DB40469B1A0131216150F8042F9A4215
:1003C000F8DD0133E36026B1002320462362BDE857
:1003D000F88F00F025F940F6D003C2F200031B6845
:1003E000002B4FD0DBF80430BB4205D03846FFF776
:1003F00087FE002800F0DD80DBF80030002B00F0E5
:10040000C5802B68DBF81C209342C0F2DF80DBF84C
:100410003820934280F2DA800123DBF83C1023621B
:1004200033E047F6D03C48F21F5040F2B277C0F6B6
:10043000000CC5F2EB104FF4C8794FF0640A013F8D
:1004400017F0030F80FB07284FEAE77207D1C2EBD2
:10045000681801210AFB1878B8F1000F09D180FB58
:100460000781C2EBE11109FB1171D1F1010138BF24
:1004700000210CEB8102126E9B18E0D489E7073152
:10048000A16156E72662DBF820104BF2C532CD178A
:10049000C9F2A212D4F808E048F68900276882FB66
:1004A00001A6C8F6880062687618F612731B4FF42E
:1004B0006166C3EB0E05A56006FB131380FB03C149
:1004C000DE17C918C6EB6111521A6260C1EB011147
:1004D000A3EB8103FB1A23603B2B2BDD01323C3B5A
:1004E000626023603B2A48DD6B1C3C3AA36062607B
:1004F000172B26DDA269E1690132A2610131062ACA
:10050000E16101DD0022A2612169A3F11802E36823
:10051000A2600133E36058F82120934205DD0131E8
:100520009B1A0C292161E36047D000F07BF820463C
:10053000BDE8F88F002BD5DA013A3C3362602360C6
:10054000D0E7002BF1DAA269E169013AA261013931
:10055000002AE1613DDBE2681833A360531EE360CB
:10056000002BE2D12369013B2361002B34DB58F8D7
:100570002330E36000F056F8D9E7002AA8BF2B46E5
:10058000B6DA6B1E3C32A3606260B1E72B68DBF821
:100590001C209342BFF640AFDBF838209342ACBF3B
:1005A000002301232362002B3FF46DAFDBF83C10E6
:1005B0006BE74FF0FF33236265E762690023236135
:1005C0000132E361626100F02DF8B0E7002323629D
:1005D00059E70622A261BEE765690B232361013D4D
:1005E000656115F0030F0BD12846642100F072F904
:1005F00031B1012101F5B6720B230132E261B6E798
:1006000028464FF4C87100F065F9D1F1010138BFF7
:100610000021EFE7000000000000000000000000E3
:10062000704700BF704700BF0000000000000000DE
:1006300040F60000C2F20000704700BF000000005A
:10064000002900F03E8180EA010C48BF49424A1E61
:1006500000F01F81030048BF43428B4240F21E81DD
:10066000114200F02381B3FA83F2B1FA81F0A0EBDA
:100670000202C2F11F0204A000EB02124FF00000C0
:10068000974600BFAFF30080B3EBC17F00BF40EBE4
:10069000000028BFA3EBC173B3EB817F00BF40EB29
:1006A000000028BFA3EB8173B3EB417F00BF40EB99
:1006B000000028BFA3EB4173B3EB017F00BF40EB09
:1006C000000028BFA3EB0173B3EBC16F00BF40EB89
:1006D000000028BFA3EBC163B3EB816F00BF40EB09
:1006E000000028BFA3EB8163B3EB416F00BF40EB79
:1006F000000028BFA3EB4163B3EB016F00BF40EBE9
:10070000000028BFA3EB0163B3EBC15F00BF40EB68
:10071000000028BFA3EBC153B3EB815F00BF40EBE8
:10072000000028BFA3EB8153B3EB415F00BF40EB58
:10073000000028BFA3EB4153B3EB015F00BF40EBC8
:10074000000028BFA3EB0153B3EBC14F00BF40EB48
:10075000000028BFA3EBC143B3EB814F00BF40EBC8
:10076000000028BFA3EB8143B3EB414F00BF40EB38
:10077000000028BFA3EB4143B3EB014F00BF40EBA8
:10078000000028BFA3EB0143B3EBC13F00BF40EB28
:10079000000028BFA3EBC133B3EB813F00BF40EBA8
:1007A000000028BFA3EB8133B3EB413F00BF40EB18
:1007B000000028BFA3EB4133B3EB013F00BF40EB88
:1007C000000028BFA3EB0133B3EBC12F00BF40EB08
:1007D000000028BFA3EBC123B3EB812F00BF40EB88
:1007E000000028BFA3EB8123B3EB412F00BF40EBF8
:1007F000000028BFA3EB4123B3EB012F00BF40EB68
:10080000000028BFA3EB0123B3EBC11F00BF40EBE7
:10081000000028BFA3EBC113B3EB811F00BF40EB67
:10082000000028BFA3EB8113B3EB411F00BF40EBD7
:10083000000028BFA3EB4113B3EB011F00BF40EB47
:10084000000028BFA3EB0113B3EBC10F00BF40EBC7
:10085000000028BFA3EBC103B3EB810F00BF40EB47
:10086000000028BFA3EB8103B3EB410F00BF40EBB7
:10087000000028BFA3EB4103B3EB010F00BF40EB27
:10088000000028BFA3EB0103BCF1000F48BF4042AA
:1008900070479CEA000F48BF4042704738BF0020B5
:1008A00004BF4FEAEC7040F001007047B1FA81F2EA
:1008B000C2F11F02BCF1000F23FA02F048BF404210
:1008C00070470028C8BF6FF00040B8BF4FF000402D
:1008D00000F00EB80029F4D02DE90340FFF7B3FE75
:1008E000BDE8064002FB00F3A1EB0301704700BF27
:1008F000704700BF00000000000000000000000082
:10090000704700BFAFF30080AFF30080AFF300800B
:10091000FEE700BFAFF30080AFF30080AFF30080CD
:1009200072B6264C84F309884FF0020484F31488CD
:10093000BFF36F8F224C234D04E04FF055332360FB
:1009400004F10404AC42F8D31F4C1C4D04E04FF0FA
:100950005533236004F10404AC42F8D304F0E8F901
:100960001A4D1B4C05E02B68236004F1040405F1CB
:100970000405184B9C42F6D3174C184D04E04FF079
:100980000003236004F10404AC42F8D3FFF7B8FF7E
:10099000134C03E02368984704F10404114B9C4274
:1009A000F8D307F0CDF8104C03E02368984704F122
:1009B00004040E4B9C42F8D3FFF7AAFF0008002066
:1009C0000000002000040020000400200081000836
:1009D00000080020D0080020D008002010140020BB
:1009E000EC000008EC000008EC000008EC00000837
:1009F000FEE700BFAFF30080AFF30080AFF30080ED
:100A000072B6FEE7AFF30080AFF30080AFF3008073
:100A100008B54FF0200383F3118800F0C1F94FF0BF
:100A2000000383F3118800F03BF808BDAFF30080AA
:100A300010B483B0EFF309840194019B03F1200308
:100A40000193019B83F309884FF0000383F311881E
:100A500003B010BC704700BFAFF30080AFF300805D
:100A600008B50D4B4FF000029A600B4B0B4ADA6051
:100A70004FF007004FF0100100F012F94FF00A009C
:100A80004FF0200100F00CF94FF00B004FF0800107
:100A900000F006F908BD00BF00ED00E00003FA0514
:100AA00010B483B04FF0200383F31188204B5B68B0
:100AB00003F40063002B33D0EFF309840194019B0E
:100AC000A3F120030193019B83F30988019B4FF05D
:100AD0008072DA61174B9B69DB7F002B0BD0154BC3
:100AE0001B689A68134B9B699B689A4294BF0023CA
:100AF0000123DBB20AE00F4B1B689A680D4B9B6920
:100B00009B689A4234BF00230123DBB2002B03D041
:100B1000019B094A9A6107E0019B084A9A6103E038
:100B20004FF0000383F3118803B010BC704700BF7F
:100B300000ED00E0F0090020410B0008440B000824
:100B400000F0AEFB00DF00BFAFF30080AFF300802A
:100B500003460A462DE9F04FC2F80CD0D3F80CD06A
:100B6000BDE8F08FAFF30080AFF30080AFF30080FB
:100B70004FF0000383F311882846A04700F068FC7B
:100B8000704700BFAFF30080AFF30080AFF3008089
:100B900010B485B001900091019B03F003034FEA6C
:100BA000C30303931E4B019A4FEA92021C4901981A
:100BB0004FEA900000F1C00051F8200003994FF077
:100BC000FF0404FA01F16FEA010108400399009C57
:100BD00004FA01F140EA010102F1C00243F82210D7
:100BE0000F4B019A4FEA5212019901F01F014FF089
:100BF000010000FA01F102F1600243F82210084BF3
:100C0000019A4FEA5212019901F01F014FF00100C1
:100C100000FA01F143F8221005B010BC704700BF84
:100C200000E100E0AFF30080AFF30080AFF300809D
:100C300010B485B00190019B03F003034FEAC30396
:100C40000393154B019A4FEA5212019901F01F01CB
:100C50004FF0010000FA01F102F1200243F82210E6
:100C60000D4B019A4FEA92020B4901984FEA90000E
:100C700000F1C00051F8200003994FF0FF0404FA7E
:100C800001F16FEA010100EA010102F1C00243F83B
:100C9000221005B010BC704700E100E0AFF3008007
:100CA00010B485B001900091019B03F003034FEA5B
:100CB000C3030393104B019A4FEA92020E49019825
:100CC0004FEA900000F1060051F8200003994FF020
:100CD000FF0404FA01F16FEA010108400399009C46
:100CE00004FA01F140EA010102F1060243F8221080
:100CF00005B010BC704700BF00ED00E0AFF300800E
:100D000082B00190024B9B69024A9A61FEE700BFE4
:100D1000F0090020907B0008AFF30080AFF3008063
:100D200000B583B0FFF79CFE00F03AF900F088F8B8
:100D300001F036F801F08CF811484FF0400100F056
:100D4000CFFA02460F4B9A610E4B9B694FF001029E
:100D50001A774FF0000383F3118862B6094B9B6941
:100D6000094A9A61094B4FF00002009208484FF07F
:100D7000C0014FF0010200F033FB03B000BD00BF23
:100D800098090020F0090020407C0008010D0008AF
:100D9000D8080020AFF30080AFF30080AFF30080ED
:100DA00000B583B0244B9B69DB7F002B06D0224B20
:100DB0009B69DA7F02F1FF32D2B2DA771E4B9B6970
:100DC0001A6A02F101021A621C4BDB6803F101028C
:100DD0001A4BDA60194B1B681A46184B9A4229D0F5
:100DE000164B1B689A6802F1FF329A601BE0019B68
:100DF000DB680093019B4FF00002DA60019B1B68E7
:100E00000E4A5A60019B1A680C4B1A604FF000039F
:100E100083F31188019B1A69009B104698474FF095
:100E2000200383F31188054B1B680193019B9B688A
:100E3000002BDCD003B000BDF0090020E009002049
:100E4000074A074B5A60064B5A68054B1A60044B19
:100E50004FF0FF329A60024B4FF00002DA607047A9
:100E6000E0090020AFF30080AFF30080AFF3008013
:100E700086B00390029101920093039B002B04D053
:100E8000019B002B01D0029B002B039B009A1A614F
:100E9000039B019ADA60184B1B68059307E0059BDA
:100EA0009B68029AD31A0293059B1B680593059BC6
:100EB0009A68029B9A42F2D3039B059A1A60039B9D
:100EC0001B685A68039B5A60039B5B68059A0399E9
:100ED0005160059A52681A60039B029A9A60059ABB
:100EE000054B9A4205D0059B9A68029BD21A059B36
:100EF0009A6006B0704700BFE0090020AFF30080A1
:100F000082B00190019B1A680D4B9A4208D0019B58
:100F10001B68019A12689168019A92688A189A600F
:100F2000019B5B68019A12681A60019B1B68019A19
:100F300052685A60019B4FF00002DA6002B07047BD
:100F4000E0090020AFF30080AFF30080AFF3008032
:100F500084B00190019B1B680393039B1A68019B5B
:100F60001A60019B1B68019A5A60039B184604B0E3
:100F7000704700BFAFF30080AFF30080AFF3008095
:100F800082B00190019B5B68019A12681A60019B14
:100F90001B68019A52685A60019B184602B070475C
:100FA000094A094B5A60084B5A68074B1A60064BAE
:100FB0004FF000029A60044A034B5A61024B5A698F
:100FC000014B1A61704700BFF0090020AFF30080A9
:100FD00084B00190019B1B7F002B03D0019B1B7FE2
:100FE0000E2B00BF019B4FF000021A770E4B0393AC
:100FF000039B1B680393039B9A68019B9B689A421F
:10100000F6D2019B039A1A60039B5A68019B5A60AF
:10101000019B5B68039A01995160039A52681A60B8
:10102000019B184604B07047F0090020AFF3008020
:1010300000B585B003468DF807300F4B9B690393CD
:10104000039B9DF807201A77039B4FF01402DA7771
:101050000948FFF77DFF0246074B9A61064B9B69E3
:101060004FF001021A77044B9B6918460399FFF76A
:101070006FFD05B000BD00BFF0090020AFF3008098
:1010800000B585B00190019B03934FF0200383F3DB
:101090001188039B1B7F0D2B2CD801A252F823F043
:1010A000D9100008F5100008F5100008E31000083A
:1010B000F5100008EF100008F5100008F510000802
:1010C000F5100008F5100008F5100008F5100008EC
:1010D000F5100008EF1000084FF0000383F31188AB
:1010E00013E0039B5B6A9A6802F101029A6003981D
:1010F000FFF746FF039B4FF0FF325A620398FFF75A
:1011000067FF4FF0000383F3118805B000BD00BFF7
:1011100000B589B0034600918DF80730009BB3F10C
:10112000FF3F14D00F4B9B6903AA104600990E4A4B
:10113000FFF79EFE9DF807301846FFF779FF069BE4
:10114000002B09D003AB1846FFF7DAFE04E09DF848
:1011500007301846FFF76CFF024B9B695B6A184625
:1011600009B000BDF009002081100008AFF3008035
:1011700000B585B001900091019B009A5A62019BD5
:101180009A680E4B9B699B689A4203D80198FFF7B7
:101190001FFF10E0094B9B691846FFF719FF0390EA
:1011A000064B019A9A61019B4FF001021A77019850
:1011B0000399FFF7CDFC05B000BD00BFF00900208A
:1011C00008B5054B1B689A68034B9B699B689A425C
:1011D00001D900F02DF808BDF0090020AFF3008020
:1011E00000B583B00E4B9B6901930D48FFF7B0FE2D
:1011F00002460B4B9A610A4B9B694FF001021A772A
:10120000019B4FF01402DA770198FFF7E1FE044BDF
:101210009B6918460199FFF79BFC03B000BD00BF16
:10122000F0090020AFF30080AFF30080AFF300803F
:1012300000B583B0194B9B6900931848FFF788FEEF
:101240000246164B9A61154B9B694FF001021A77C3
:10125000009B4FF000021A77104B0193019B1B6813
:101260000193019B9A68009B9B689A42F6D8009B69
:10127000019A1A60019B5A68009B5A60009B5B6848
:10128000019A00995160019A52681A60034B9B6958
:1012900018460099FFF75CFC03B000BDF009002080
:1012A00008B5054B9B69DB7F002B02D1FFF798FF48
:1012B00001E0FFF7BDFF08BDF0090020AFF300809B
:1012C00084B00190019B1B680393039B1A68019BE8
:1012D0001A60039B184604B0704700BFAFF300804C
:1012E00082B001900091019B009A9A60019B4FF09F
:1012F00002021A77019B4FF000025A77019B4FF0D0
:101300001402DA77019B009A1A64019B4FF00002E5
:10131000DA63019B4FF000029A63019B4FF00002D9
:101320001A62019B4FF001029A77019B4FF0000275
:101330009A61114A019B1A610F4B5A69019B5A61CC
:10134000019B5B690C4A019951610B4A52691A6110
:10135000019B03F128031A46019B9A62019B03F14A
:101360002C031A46019B1A63019B1A6B019BDA62DC
:10137000019B184602B07047F0090020AFF30080CF
:1013800000B587B00390029101920093039B0593EF
:10139000039B002B07D0029BAF2B04D9019B7F2B13
:1013A00001D8009B002B039A029BA3F12403D218BF
:1013B000059BDA60059BDB68009A1A60059BDB6879
:1013C000089A5A60059BDB68044A1A6205980199DD
:1013D000FFF786FF0346184607B000BD710B0008F3
:1013E00000B589B005900491039202934FF0200359
:1013F00083F311880A9B009305980499039A029B32
:10140000FFF7BEFF079007984FF00001FFF7B0FE0F
:101410004FF0000383F31188079B184609B000BD05
:1014200000B583B001904FF0200383F311884FF093
:1014300006000199FFF76CFE4FF0000383F311885B
:1014400003B000BDAFF30080AFF30080AFF30080C6
:1014500000B583B001904FF0200383F31188019809
:1014600000F006F803B000BDAFF30080AFF30080DA
:1014700000B585B00190174B9B690393039B019ABC
:101480005A6209E0039B03F128031846FFF718FF8F
:1014900003461846FFF79CFD039B9A6A039B03F1E2
:1014A00028039A42EED1039B5B7F03F00303002BDA
:1014B00009D1039B5B69039A12691A61039B1B693B
:1014C000039A52695A614FF00E00FFF7B1FD05B063
:1014D00000BD00BFF0090020AFF30080AFF3008033
:1014E00082B001900091009A019B1A60009B5A689B
:1014F000019B5A60019B5B68009A01995160009AB8
:1015000052681A6002B07047AFF30080AFF30080FA
:1015100084B00190019B1B680393039B1A68019B95
:101520001A60019B1B68019A5A60039B184604B01D
:10153000704700BFAFF30080AFF30080AFF30080CF
:1015400082B001900091019B002B01D0009B002BE9
:10155000019B1A46019B5A60019B5A68019B1A60C5
:10156000019B009A9A6002B0704700BFAFF3008001
:1015700000B583B001900091019B9B68002B04DBB8
:10158000019B1A68019B9A4208D0019B9B68002B23
:1015900005DA019B1A68019B9A4200E000BF019B9B
:1015A0009B6803F1FF32019B9A60019B9B68002BB3
:1015B0001DDA009B002B08D1019B9B6803F10102FF
:1015C000019B9A604FF0FF3313E00B4B9B69019A2C
:1015D0005A62094B9A69019B10461946FFF780FF32
:1015E0004FF003000099FFF793FD034601E04FF031
:1015F0000003184603B000BDF0090020AFF30080DF
:1016000000B585B00190019B9B68002B04DB019B1A
:101610001A68019B9A4208D0019B9B68002B05DA4F
:10162000019B1A68019B9A4200E000BF019B9B68E6
:1016300003F10102019B9A60019B9B68002B0BDC6C
:10164000019B1846FFF764FF0390039B4FF00002D5
:101650005A620398FFF7BCFC05B000BDAFF30080F1
:1016600082B00190019B1A46019B5A60019B5A6807
:10167000019B1A60019B4FF000029A6002B0704714
:1016800000B585B001900091019B1B68039310E0A9
:10169000039BDA68009B1A43039BDA60039B5A683A
:1016A000039B9B681046194600F00AF8039B1B68D1
:1016B0000393019B039A9A42EAD105B000BD00BF93
:1016C00000B583B001900091019B9A6B009B1A4377
:1016D000019B9A63019B1B7F082B07D1019B9A6B8F
:1016E000019B5B6A02EA0303002B0CD1019B1B7F69
:1016F000092B0FD1019B9A6B019B5B6A1A40019BDE
:101700005B6A9A4206D10198FFF762FC03464FF0EC
:1017100000025A6203B000BDAFF30080AFF3008057
:1017200000B585B0039002910192039B002B04D079
:10173000029B002B01D0019B002B039B029ADA60D5
:10174000039BDA68039B9A60039B9A68039B1A6069
:10175000019B4FEA8303029AD218039B5A60039BB2
:1017600003F11C0318460199FFF7EAFE039B03F1FE
:10177000100318464FF00001FFF7E2FE05B000BD70
:1017800000B583B001900091019B5B6A002B02DCE5
:101790004FF0FF331FE0019B5B6A03F1FF32019BB7
:1017A0005A62019B9B68009A1A6003F10402019B34
:1017B0009A60019B9A68019B5B689A4203D3019BE4
:1017C0001A68019B9A60019B03F110031846FFF70A
:1017D00017FF4FF00003184603B000BDAFF30080C1
:1017E00000B587B00390029101924FF0200383F37C
:1017F000118803980299019A00F00AF805904FF0B9
:10180000000383F31188059B184607B000BD00BF95
:1018100000B587B0039002910192039B002B01D089
:10182000029B002B039B03F1100318460199FFF75D
:101830009FFE0590059B002B1AD1039BDB6819685E
:10184000029A116003F10402039BDA60039BDA68D9
:10185000039B5B689A4203D3039B1A68039BDA607D
:10186000039B03F11C031846FFF7CAFEFFF7A8FC11
:10187000059B184607B000BDAFF30080AFF30080B2
:1018800082B001900091009A019B1A60009B5A68F7
:10189000019B5A60019B5B68009A01995160009A14
:1018A00052681A6002B07047AFF30080AFF3008057
:1018B00084B00190019B1B680393039B1A68019BF2
:1018C0001A60019B1B68019A5A60039B184604B07A
:1018D000704700BFAFF30080AFF30080AFF300802C
:1018E00000B583B001900091009B002B02D14FF016
:1018F000FF3310E0094B9B69019A5A62074B9A69C2
:10190000019B10461946FFF7BBFF4FF00D000099F1
:10191000FFF7FEFB0346184603B000BDF0090020A8
:1019200084B00390029101920093039B1A46039B9B
:101930005A60039B5A68039B1A60039B4FF0000296
:101940009A60039B029A5A61039B5A69039B9A61AE
:10195000039B9A69039BDA60029A019BD218039B4E
:101960001A61039B009ADA61039B049A1A6204B01D
:10197000704700BFAFF30080AFF30080AFF300808B
:1019800000B583B001900B468DF80330019B5A6976
:10199000019B9B699A4206D1019B9B68002B02D058
:1019A0004FF0010301E04FF00003DBB2002B02D047
:1019B0006FF003032BE0019B9B6803F10102019B85
:1019C0009A60019B5B699DF803201A7003F1010284
:1019D000019B5A61019B5A69019B1B699A4203D37F
:1019E000019BDA68019B5A61019B1A68019B9A422C
:1019F0000BD0019B1846FFF75BFF03461846FFF725
:101A0000E7FA03464FF000025A624FF0000318460F
:101A100003B000BDAFF30080AFF30080AFF30080F0
:101A200000B585B0019000914FF0200383F3118839
:101A3000019BDB69002B12D0019BDB690198984761
:101A40000EE001980099FFF74BFF0390039B002BDA
:101A500006DA4FF0000383F31188039B23E000BFF5
:101A6000019B9B68002BECD0019B9B6803F1FF322C
:101A7000019B9A60019B9B691A788DF80B2003F1FA
:101A80000102019B9A61019B9A69019B1B699A4221
:101A900003D3019BDA68019B9A614FF0000383F343
:101AA00011889DF80B30184605B000BDAFF30080DB
:101AB00000B587B00390029101920093039BDB690C
:101AC00004934FF0000305934FF0200383F3118834
:101AD000049B002B10D0049B039898470DE00398BB
:101AE0000099FFF7FDFE0346002B06D04FF00003E0
:101AF00083F31188059B37E000BF039B9B68002B95
:101B0000EDD0039B9B6803F1FF32039B9A60039B1C
:101B10009B691978029A1170029A02F101020292ED
:101B200003F10102039B9A61039B9A69039B1B6962
:101B30009A4203D3039BDA68039B9A614FF0000338
:101B400083F31188059B03F101030593019B03F1C6
:101B5000FF330193019B002B01D1059B04E04FF063
:101B6000200383F31188B3E7184607B000BD00BF18
:101B700084B00390029101920093039B1A46039B49
:101B80005A60039B5A68039B1A60039B019A9A60F0
:101B9000039B029A5A61039B5A69039B9A61039BB8
:101BA0009A69039BDA60029A019BD218039B1A611F
:101BB000039B009ADA61039B049A1A6204B070478F
:101BC00000B587B003900B4601928DF80B304FF0B3
:101BD000200383F311880DE003980199FFF780FE3D
:101BE0000590059B002B05DA4FF0000383F3118865
:101BF000059B2AE0039B9B68002BEDD0039B9B6811
:101C000003F1FF32039B9A60039B5B699DF80B20F5
:101C10001A7003F10102039B5A61039B5A69039BEB
:101C20001B699A4203D3039BDA68039B5A61039BA7
:101C3000DB69002B03D0039BDB69039898474FF0C7
:101C4000000383F311884FF00003184607B000BD6E
:101C500000B585B00190019B5A69019B9B699A422E
:101C600006D1019B9B68002B02D04FF0010301E0DD
:101C70004FF00003DBB2002B02D06FF002032BE029
:101C8000019B9B6803F10102019B9A60019B9B6988
:101C90001A788DF80F2003F10102019B9A61019BD4
:101CA0009A69019B1B699A4203D3019BDA68019BE5
:101CB0009A61019B1A68019B9A420BD0019B1846BE
:101CC000FFF7F6FD03461846FFF782F903464FF08B
:101CD00000025A629DF80F30184605B000BD00BFE3
:101CE00000B587B00390029101920093039BDB69DA
:101CF00004934FF0000305934FF0200383F3118802
:101D00000CE003980099FFF7EBFD0346002B05D08C
:101D10004FF0000383F31188059B3DE0039B9B6814
:101D2000002BEED0039B9B6803F1FF32039B9A606C
:101D3000039B5B69029A12781A7003F10102039BFC
:101D40005A61029B03F101030293039B5A69039BAF
:101D50001B699A4203D3039BDA68039B5A61049B75
:101D6000002B02D0049B039898474FF0000383F3A5
:101D70001188059B03F101030593019B03F1FF33D8
:101D80000193019B002B01D1059B05E04FF020033F
:101D900083F3118800BFC1E7184607B000BD00BF3C
:101DA000074B03F1070323F007031A46054B1A609C
:101DB000054B23F007031A46044B1A60704700BF17
:101DC000101400200C0A002000200020100A00201F
:101DD00000B585B001904FF0200383F3118801987E
:101DE00000F00EF803904FF0000383F31188039B7B
:101DF000184605B000BD00BFAFF30080AFF3008010
:101E000084B00190019B03F1070323F007030193C2
:101E10000C4B1B681A460C4B1B68D31A1A46019BC5
:101E20009A4202D24FF0000309E0074B1B6803936C
:101E3000054B1A68019BD218034B1A60039B184686
:101E400004B07047100A00200C0A0020AFF3008095
:101E500008B5074B074A1A60054B4FF000029A601D
:101E6000034B4FF00002DA600348FFF7F9FB08BDAF
:101E7000180A0020D11D0008280A0020AFF30080B6
:101E800008B501F04DFC01F0FBF90A4801F0B0FE85
:101E900000F016F800F044F800F0B2FE01F038F857
:101EA00001F09EF800F0BCFA00F03AFF02F048FFA3
:101EB00008BD00BF507E0008AFF30080AFF3008084
:101EC00008B501F0D5FC08BDAFF30080AFF300808A
:101ED00000B583B00190019B4FF001021A70019B85
:101EE0004FF000025A60019B4FF000029A60019B84
:101EF0004FF00002DA60019B4FF000021A61019B73
:101F00004FF000025A61019B03F118031846FFF7D6
:101F1000A7FB03B000BD00BFAFF30080AFF30080AC
:101F200008B501F05DFE08BDAFF30080AFF300809F
:101F300082B00190019B4FF001021A70019B4FF09B
:101F400000025A6002B07047AFF30080AFF3008028
:101F500000B585B00390029101920093039B18464F
:101F6000029900F0DDFB0346002B15D04FF0010372
:101F700021E0039B1846019900F01AFC0346002B50
:101F800002D04FF0010316E0019B03F500730193AB
:101F9000009B03F1FF330093009B002BE9D1039BCF
:101FA000184600F05DFC0346002B02D04FF0010301
:101FB00001E04FF00003184605B000BDAFF300800C
:101FC00000B585B00390029101920093039B1846DF
:101FD000029900F06DFC0346002B15D04FF0010371
:101FE00021E0039B1846019900F0AAFC0346002B50
:101FF00002D04FF0010316E0019B03F5007301933B
:10200000009B03F1FF330093009B002BE9D1039B5E
:10201000184600F0EDFC0346002B02D04FF0010300
:1020200001E04FF00003184605B000BDAFF300809B
:1020300084B00346029101928DF80F300FE09DF8B5
:102040000F304FEA4302029B1B7882EA03030C4ADB
:10205000D35C8DF80F30029B03F101030293019BC7
:10206000002B0CBF00230123DBB2019A02F1FF32E7
:102070000192002BE3D19DF80F30184604B0704751
:10208000807C0008AFF30080AFF30080AFF30080E6
:1020900000B585B001904FF00003039311E0019B60
:1020A000DB6A1A6802AB10464FF001011A4601F0D4
:1020B00077F89DF80830FF2B19D0039B03F101033B
:1020C0000393039B0F2BEADD019BDB6A1A6802ABCB
:1020D00010464FF001011A4601F062F89DF80830F1
:1020E000FF2B06D04FF00100FFF79AF9ECE700BF95
:1020F00000E000BF05B000BDAFF30080AFF300808B
:1021000000B587B003900B4601928DF80B30039811
:10211000FFF7BEFF9DF80B3043F04003DBB28DF8B4
:102120001030019B4FEA1363DBB28DF81130019B35
:102130004FEA1343DBB28DF81230019B4FEA1323B1
:10214000DBB28DF81330019BDBB28DF8143004AB99
:102150004FF0000019464FF00502FFF769FF0346F4
:102160004FEA4303DBB243F00103DBB2DBB28DF88D
:102170001530039BDB6A1A6804AB10464FF006016A
:102180001A4600F0DDFF07B000BD00BFAFF30080CE
:1021900000B585B001904FF00003039314E0019B5C
:1021A000DB6A1A6802AB10464FF001011A4600F0D4
:1021B000F7FF9DF80830FF2B02D09DF8083008E0AB
:1021C000039B03F101030393039B082BE7DD4FF00F
:1021D000FF03184605B000BDAFF30080AFF30080E9
:1021E00000B585B0019000910198FFF7D1FF03463B
:1021F0008DF80F30019BDB6A1B6818464FF0040115
:10220000009A00F0CDFF9DF80F30184605B000BDD4
:1022100000B587B003900B4601928DF80B30039BFD
:10222000DB6A1B68184600F043FF9DF80B300398EB
:102230001946019AFFF764FF0398FFF7A9FF0346C9
:102240008DF81730039BDB6A1B68184600F040FFCF
:102250009DF81730184607B000BD00BFAFF30080EF
:1022600000B587B00390019200930B468DF80B30B8
:10227000039BDB6A1B68184600F01AFF9DF80B30C1
:1022800003981946019AFFF73BFF03980099FFF75F
:10229000A7FF03468DF81730039BDB6A1B681846BF
:1022A00000F016FF9DF81730184607B000BD00BFBC
:1022B00000B58DB003900B4601928DF80B30039B57
:1022C000DB6A1B68184600F0F3FE9DF80B3003989C
:1022D00019464FF00002FFF713FF0398FFF758FF6E
:1022E0000346002B08D0039BDB6A1B68184600F0EE
:1022F000EFFE4FF0010363E04FF000030B9358E053
:10230000039BDB6A1A6805AB10464FF001011A46C1
:1023100000F046FF9DF81430FE2B46D1039BDB6A8C
:102320001A6805AB10464FF010011A4600F038FF4E
:1023300005AB0A93019B03F10C03099320E00A9B70
:102340001B784FEA03620A9B03F101031B784FEAF3
:1023500003431A430A9B03F102031B784FEA03234A
:102360001A430A9B03F103031B781A43099B1A6063
:102370000A9B03F104030A93099BA3F10403099345
:10238000099A019B9A42DAD2039BDB6A1B681846C2
:102390004FF0020100F0ACFE039BDB6A1B6818469D
:1023A00000F096FE4FF000030AE00B9B03F10103DF
:1023B0000B930B9A42F20F739A42A1D94FF001038B
:1023C00018460DB000BD00BFAFF30080AFF3008032
:1023D00000B585B00190019BDB6A1B68184600F0D0
:1023E00067FE019BDB6A1A6803AB10464FF00101E0
:1023F0001A4600F0D5FE9DF80C30FF2B07D1019B4B
:10240000DB6A1B68184600F063FE05B000BD4FF0A4
:102410000100FFF705F8E4E7AFF30080AFF30080B9
:10242000704700BFAFF30080AFF30080AFF30080D0
:1024300082B00190019B084A1A60019B4FF0010293
:102440001A71019B4FF00002DA62019B4FF000020B
:1024500083F8302002B07047607C0008AFF3008042
:1024600082B001900091019B002B01D0009B002BBA
:10247000019B1B79012B03D0019B1B79022B00BF11
:10248000019B009ADA62019B4FF002021A7102B0BE
:10249000704700BFAFF30080AFF30080AFF3008060
:1024A00000B587B00190019B1B79022B03D0019BE3
:1024B0001B79052B00BF019B4FF003021A71019B92
:1024C000DB6A1A68019BDB6A5B681046194600F0FC
:1024D000A7FD019BDB6A1B6818464FF0100100F056
:1024E00007FE4FF00003059301984FF000014FF0F5
:1024F0000002FFF78DFE0346012B0BD103AB0198C1
:102500004FF008014FF4D572FFF7AAFE0346052BE2
:102510000DD143E0059B03F101030593059B092BB6
:1025200000F29E804FF00A00FEF77AFFDCE74FF0E2
:102530000003059301984FF037014FF00002FFF7B9
:1025400067FE0346012B18D103AB01984FF0290118
:10255000524AFFF785FE0346002B0ED103AB0198CC
:102560004FF03A014FF00002FFF77AFE9DF80C3071
:1025700003F04003002B0CD110E0059B03F1010395
:102580000593059B632B6DD84FF00A00FEF748FFBB
:10259000D0E7019B4FF0010283F830204FF0000399
:1025A000059301984FF001014FF00002FFF730FE54
:1025B00003468DF813309DF81330002B14D1019B86
:1025C000DB6A1A68019BDB6A9B681046194600F0BB
:1025D00027FD01984FF010014FF40072FFF718FE2D
:1025E0000346002B40D10FE09DF81330012B3DD165
:1025F000059B03F101030593059B632B38D84FF02E
:102600000A00FEF70DFFCCE7019B03F118030198C8
:102610004FF009011A46FFF74BFE0346002B29D164
:10262000019B03F11803184600F0A2FA0246019B31
:102630009A62019B9B6A002B1ED0019B03F1080349
:1026400001984FF00A011A46FFF732FE0346002BAD
:1026500014D1019B4FF005021A714FF000031AE0EC
:1026600000BF0CE000BF0AE000BF08E000BF06E0CA
:1026700000BF04E000BF02E000BF00E000BF019B1C
:10268000DB6A1B68184600F0F3FC019B4FF0020266
:102690001A714FF00103184607B000BDAA010040AF
:1026A00000B583B001904FF0200383F31188019BA4
:1026B0001B79022B03D0019B1B79052B00BF019BCB
:1026C0001B79022B06D14FF0000383F311884FF0E2
:1026D000000320E0019B4FF004021A714FF0000349
:1026E00083F31188019BDB6A1A68019BDB6A9B6894
:1026F0001046194600F094FC0198FFF769FE019B13
:10270000DB6A1B68184600F0B3FC019B4FF0020225
:102710001A714FF00003184603B000BDAFF30080FC
:1027200000B583B001900091019B4FF006021A7131
:10273000019BDB6A1A68019BDB6A9B68104619469D
:1027400000F06EFC019BDB6A1B68184600F0B0FCD1
:10275000019B93F83030002B06D001984FF0120106
:10276000009AFFF7CDFC08E0009B4FEA4323019855
:102770004FF012011A46FFF7C3FC0198FFF708FD5E
:102780000346002B0CD0019BDB6A1B68184600F047
:102790006FFC019B4FF005021A714FF0010301E03D
:1027A0004FF00003184603B000BD00BFAFF3008038
:1027B00000B585B001900091019B002B01D0009BDA
:1027C000002B019B1B79062B02D04FF001033FE049
:1027D0004FF00003039324E0019BDB6A1B6818465B
:1027E0004FF00101009A00F0DBFC009B1B78FE2BF0
:1027F00013D1019BDB6A1B6818464FF40071009AE5
:1028000000F0CEFC019BDB6A1B6818464FF002010A
:1028100000F06EFC4FF000031AE0039B03F101038C
:102820000393039A42F20F739A42D5DD019BDB6A50
:102830001B68184600F04CFC019BDB6A1B681846BD
:1028400000F016FC019B4FF005021A714FF00103D6
:10285000184605B000BD00BFAFF30080AFF30080A5
:1028600000B583B00190019B1B79062B02D04FF07D
:10287000010317E0019BDB6A1B6818464FF0070154
:102880000A4A00F05DFC0198FFF782FC019BDB6ABD
:102890001B68184600F01CFC019B4FF005021A71E2
:1028A0004FF00003184603B000BD00BFA07D000834
:1028B00000B583B001900091019B4FF007021A719F
:1028C000019BDB6A1A68019BDB6A9B68104619460C
:1028D00000F0A6FB019BDB6A1B68184600F0E8FBD2
:1028E000019B93F83030002B06D001984FF019016E
:1028F000009AFFF705FC08E0009B4FEA432301988C
:102900004FF019011A46FFF7FBFB0198FFF740FC57
:102910000346002B0CD0019BDB6A1B68184600F0B5
:10292000A7FB019B4FF005021A714FF0010301E074
:102930004FF00003184603B000BD00BFAFF30080A6
:1029400000B585B001900091019B002B01D0009B48
:10295000002B019B1B79072B02D04FF0010341E0B4
:10296000019BDB6A1B6818464FF002011F4A00F00A
:10297000E7FB019BDB6A1B6818464FF40071009A65
:1029800000F0DEFB019BDB6A1B6818464FF002017A
:1029900000F0AEFB019BDB6A1A6803AB10464FF0F8
:1029A00001011A4600F0FCFB9DF80C3003F01F03F8
:1029B000052B05D10198FFF76BFB4FF0000311E0E9
:1029C000019BDB6A1B68184600F082FB019BDB6AF7
:1029D0001B68184600F04CFB019B4FF005021A7172
:1029E0004FF00103184605B000BD00BF907D000800
:1029F00000B583B00190019B1B79072B02D04FF0EB
:102A0000010314E0019BDB6A1B6818464FF00201CA
:102A1000084A00F095FB019BDB6A1B68184600F032
:102A200057FB019B4FF005021A714FF00003184647
:102A300003B000BD807D0008AFF30080AFF30080DD
:102A400000B583B00190019B1B79052B02D04FF09C
:102A5000010316E0019B4FF008021A71019BDB6A2B
:102A60001A68019BDB6A9B681046194600F0D8FA89
:102A70000198FFF7ADFC019B4FF005021A714FF072
:102A80000003184603B000BDAFF30080AFF3008031
:102A900082B001900091019B002B01D0009B002B84
:102AA000019B1B79052B02D04FF0010309E0019B2C
:102AB0009A6A009B5A60009B4FF400721A604FF0B4
:102AC0000003184602B07047AFF30080AFF30080F8
:102AD00088B0039002910192029A019B9A4203D31B
:102AE000029A019BD31A1F2B019B4FEA53130793A2
:102AF000019B03F01F030693029B4FEA53130593B8
:102B0000029B03F01F0303F101034FF0010202FADD
:102B100003F303F1FF330493079A059B9A4218D2FB
:102B2000079B4FEA8303039AD3181A68069B22FA7D
:102B300003F2059B4FEA83030399CB181968049BA2
:102B40001940069BC3F1200301FA03F342EA030391
:102B50000AE0079B4FEA8303039AD3181A68049B81
:102B60001A40069B22FA03F3184608B0704700BFCC
:102B700000B587B00190019B03F10C031B684FEA7D
:102B80009373002B02D0012B26D032E001984FF036
:102B900049014FF03E02FFF79BFF059001984FF06F
:102BA00031014FF02F02FFF793FF049001984FF08F
:102BB00053014FF05002FFF78BFF0390059B03F189
:102BC0000102049B03F1020302FA03F2039BA3F147
:102BD000090302FA03F30EE001984FF045014FF0AC
:102BE0003002FFF775FF034603F101034FEA832329
:102BF00001E04FF00003184607B000BDAFF30080BE
:102C000008B501F065FD08BDAFF30080AFF30080AB
:102C100082B00190019B4FF001021A70019B4FF0AE
:102C200000025A6002B07047AFF30080AFF300803B
:102C300000B583B001900091019B002B01D0009B57
:102C4000002B4FF0200383F31188019B1B78012B8D
:102C500003D0019B1B78022B00BF019B009A5A6096
:102C6000009B9A88019B1A81019801F049FD019B04
:102C70004FF002021A704FF0000383F3118803B083
:102C800000BD00BFAFF30080AFF30080AFF3008062
:102C900000B583B001904FF0200383F31188019BAE
:102CA0001B78012B03D0019B1B78022B00BF0198DE
:102CB00001F05EFE019B4FF001021A704FF000031D
:102CC00083F3118803B000BDAFF30080AFF3008041
:102CD00000B583B0019013460A468DF80320ADF885
:102CE0000030019B002B02D09DF80330032B4FF0E6
:102CF000200383F311889DF80320BDF8003001986C
:102D000011461A4601F07CFE4FF0000383F3118850
:102D100003B000BDAFF30080AFF30080AFF30080DD
:102D200008B501F09DF808BDAFF30080AFF3008057
:102D300000B583B001900091019B002B01D0009B56
:102D4000002B4FF0200383F311880198009901F0C4
:102D5000B7F84FF0000383F3118803B000BD00BF44
:102D600000B583B0019000914FF0200383F31188E8
:102D70000198009901F0ECF84FF0000383F31188FB
:102D800003B000BDAFF30080AFF30080AFF300806D
:102D900000B583B00190019801F00AF90346184686
:102DA00003B000BDAFF30080AFF30080AFF300804D
:102DB00000B585B0039002910192039B03F13003AB
:102DC00018460299019A4FF0FF33FEF789FF034638
:102DD000184605B000BD00BFAFF30080AFF3008020
:102DE00000B585B0039002910192039B03F10C039F
:102DF00018460299019A4FF0FF33FEF759FE034639
:102E0000184605B000BD00BFAFF30080AFF30080EF
:102E100000B583B001900B468DF80330019B03F1A0
:102E200030029DF80330104619464FF0FF32FEF78E
:102E3000C7FE0346184603B000BD00BFAFF30080D5
:102E400000B583B00190019B03F10C0318464FF0CD
:102E5000FF31FEF7E5FD0346184603B000BD00BF95
:102E600000B585B003900B4601928DF80B30039BA3
:102E700003F130029DF80B3010461946019AFEF717
:102E80009FFE0346184605B000BD00BFAFF30080AB
:102E900000B583B001900091019B03F10C0318462B
:102EA0000099FEF7BDFD0346184603B000BD00BF04
:102EB00000B585B00390029101920093039B03F14A
:102EC000300318460299019A009BFEF709FF03465A
:102ED000184605B000BD00BFAFF30080AFF300801F
:102EE00000B585B00390029101920093039B03F11A
:102EF0000C0318460299019A009BFEF7D9FD034680
:102F0000184605B000BD00BFAFF30080AFF30080EE
:102F100008B501F0F5FE08BDAFF30080AFF3008007
:102F200000B587B0059004910392059B154A1A607D
:102F3000059B03F104031A46059B5A60059B4FF05D
:102F400001021A72059B03F10C02059B03F1540365
:102F500005990091104619464FF01002049BFEF7A8
:102F6000DFFC059B03F13002059B03F16403059927
:102F70000091104619464FF01002039BFEF7F8FD32
:102F800007B000BDB07D0008AFF30080AFF3008054
:102F900000B583B001900B468DF80330019B5B694F
:102FA000002B07D1019B03F1040318464FF00401E5
:102FB000FEF766FB019B03F10C029DF803301046FF
:102FC0001946FEF7DDFC0346002B07DA019B03F1EF
:102FD000040318464FF08001FEF752FB03B000BD1A
:102FE00008B501F09DF808BDAFF30080AFF3008095
:102FF00000B583B00190019B4FF001021A70019B54
:103000004FF000025A60019B4FF000029A60019B52
:1030100003F10C031846FEF723FB03B000BD00BF0D
:1030200000B583B001900091019B002B01D0009B63
:10303000002B4FF0200383F31188019B1B78012B99
:1030400003D0019B1B78022B00BF019B009A5A60A2
:10305000019801F0A5F8019B4FF002021A704FF0A1
:10306000000383F3118803B000BD00BFAFF30080FD
:1030700000B583B001904FF0200383F31188019BCA
:103080001B78012B03D0019B1B78022B00BF0198FA
:1030900001F07EF9019801F033F9019B4FF0010234
:1030A0001A704FF0000383F3118803B000BD00BF16
:1030B00000B583B001904FF0200383F3118801988D
:1030C00001F056F94FF0000383F3118803B000BDFF
:1030D00000B583B001904FF0200383F3118801986D
:1030E00001F056F94FF0000383F3118803B000BDDF
:1030F00000B583B001900091019B002B01D0009B93
:10310000002B4FF0200383F31188019B4FF0030243
:103110001A700198009901F04BF9074B9A69019BCD
:103120009A604FF00200FDF783FF4FF0000383F336
:10313000118803B000BD00BFF0090020AFF300808C
:1031400000B585B0039002910192039B002B04D03F
:10315000029B002B01D0019B002B4FF0200383F337
:103160001188039B4FF003021A7003980299019A89
:1031700001F05EF9064B9A69039B9A604FF00200DA
:10318000FDF756FF4FF0000383F3118805B000BD33
:10319000F0090020AFF30080AFF30080AFF30080B0
:1031A00000B585B0039002910192039B002B04D0DF
:1031B000029B002B01D0019B002B4FF0200383F3D7
:1031C0001188039B4FF003021A7003980299019A29
:1031D00001F06EF9064B9A69039B9A604FF002006A
:1031E000FDF726FF4FF0000383F3118805B000BD03
:1031F000F0090020AFF30080AFF30080AFF3008050
:1032000082B00190024B5A68019B9A6002B07047ED
:10321000001000E0AFF30080AFF30080AFF3008058
:1032200084B00190114B5B680393019B9B68039AE8
:10323000D21A0F4B1B68D21A019B9A60019B9A68A5
:10324000019BDB689A4204D9019B9A68019BDA6072
:1032500009E0019B9A68019B1B699A4203D2019B7A
:103260009A68019B1A6104B0704700BF001000E02B
:10327000380A0020AFF30080AFF30080AFF3008086
:1032800000B587B00A4B4FF000021A6001AB184638
:1032900000F016F8019B01AA10469847029B01AA6C
:1032A00010469847039A024B1A6007B000BD00BF52
:1032B000380A0020AFF30080AFF30080AFF3008046
:1032C00082B00190019B094A1A60019B084A5A602A
:1032D000019B4FF000029A60019B4FF00002DA6000
:1032E000019B4FF0FF321A6102B0704701320008B3
:1032F00021320008AFF30080AFF30080AFF300800D
:1033000000B583B00B4B1B6803F00F030193094B0F
:10331000019A5A60084B1B68002B06D0064B1B68AD
:10332000054A5268104601999847FDF7B9FB03B06A
:1033300000BD00BF00000240400A0020AFF3008043
:1033400000B583B00D4B1B684FEA131303F00F0356
:1033500001930A4B019A4FEA02125A60084B9B688C
:10336000002B06D0064B9B68054AD268104601998F
:103370009847FDF795FB03B000BD00BF0000024079
:10338000400A0020AFF30080AFF30080AFF300806D
:1033900000B583B00D4B1B684FEA132303F00F03F6
:1033A00001930A4B019A4FEA02225A60084B1B69AB
:1033B000002B06D0064B1B69054A5269104601993D
:1033C0009847FDF76DFB03B000BD00BF0000024051
:1033D000400A0020AFF30080AFF30080AFF300801D
:1033E00000B583B00D4B1B684FEA133303F00F0396
:1033F00001930A4B019A4FEA02325A60084B9B69CB
:10340000002B06D0064B9B69054AD26910460199EC
:103410009847FDF745FB03B000BD00BF0000024028
:10342000400A0020AFF30080AFF30080AFF30080CC
:1034300000B583B00D4B1B684FEA134303F00F0335
:1034400001930A4B019A4FEA02425A60084B1B6AE9
:10345000002B06D0064B1B6A054A526A104601999A
:103460009847FDF71DFB03B000BD00BF0000024000
:10347000400A0020AFF30080AFF30080AFF300807C
:1034800000B583B00D4B1B684FEA135303F00F03D5
:1034900001930A4B019A4FEA02525A60084B9B6A09
:1034A000002B06D0064B9B6A054AD26A104601994A
:1034B0009847FDF7F5FA03B000BD00BF00000240D9
:1034C000400A0020AFF30080AFF30080AFF300802C
:1034D00000B583B00D4B1B684FEA136303F00F0375
:1034E00001930A4B019A4FEA02625A60084B1B6B28
:1034F000002B06D0064B1B6B054A526B10460199F8
:103500009847FDF7CDFA03B000BD00BF00000240B0
:10351000400A0020AFF30080AFF30080AFF30080DB
:1035200082B0144B4FF000021A604FF00003019379
:1035300016E01149019A13464FEA43039B184FEADC
:103540008303CB181B684FF000021A600B4B019AE3
:103550004FF0000143F83210019B03F10103019386
:10356000019B062BE5DD064B4FF0FF325A6002B09F
:10357000704700BF3C0A0020D07D0008400A0020B0
:1035800000000240AFF30080AFF30080AFF3008093
:1035900000B585B00390029101920093039B5B7A82
:1035A0004FF0010202FA03F31A462C4B1B6802EAA1
:1035B0000303002B02D04FF001034BE0039B5B7A27
:1035C0001A46274B019943F83210039B5B7A244A31
:1035D0004FEAC303D318009A5A60039B5B7A4FF0FB
:1035E000010202FA03F31A461C4B1B681A431B4BD9
:1035F0001A601A4B1B6803F07F03002B05D0194B90
:10360000184A526942F001025A61039B1B68039AEF
:103610001268126822F00F021A60039B5B68039A1B
:10362000127A4FF00F0101FA02F21A60039B1B6835
:103630004FF000021A60019B002B09D0039B9B7A7C
:103640001A46029B4FEA031310461946FDF7A0FAEB
:103650004FF00003184605B000BD00BF3C0A002033
:10366000400A002000100240AFF30080AFF300805A
:1036700000B583B00190019B9B7A1846FDF7D8FAFC
:10368000019B5B7A4FF0010202FA03F36FEA030336
:103690001A46094B1B681A40074B1A60064B1B68F9
:1036A00003F07F03002B05D1044B044A526922F03A
:1036B00001025A6103B000BD3C0A00200010024024
:1036C00008B5154B144A126842F480721A60134B05
:1036D0001B6A03F44073B3F5407F07D00F4B4FF4E0
:1036E00080321A620D4B4FF000021A620B4B1B6ABC
:1036F00003F40043002B0DD1084B084A126A42F430
:1037000040721A6200F084FB044B044A126A42F4CD
:1037100000421A6208BD00BF007000400010024065
:1037200008B51E4B1B691D4B4FF0FF321A611B4B36
:103730004FF000021A61194BDB68184B4FF0FF3253
:10374000DA60164B4FF00002DA60154B45F6BF52B7
:103750005A60134B4FF000029A60114B4FF0070272
:103760001A60104B0F4AD26842F08072DA600E4B3A
:103770000D4A126842F001021A60084B074AD269EA
:1037800042F08052DA61054B044AD26942F000628D
:10379000DA61FFF795FFFFF7C3FE08BD0010024096
:1037A00010E000E0F0ED00E0001000E0AFF300807A
:1037B000294B294A126842F001021A6000BF264BC9
:1037C0001B6803F00203002BF9D0234B224A126836
:1037D00002F0F9021A60204B4FF000025A6000BF5D
:1037E0001D4B5B6803F00C03002BF9D11A4B1A4AEE
:1037F000126842F480321A6000BF174B1B6803F452
:103800000033002BF9D0144B134A526842F4A02223
:103810005A60114B104A126842F080721A6000BF61
:103820000D4B1B6803F00073002BF9D00A4B0B4AB9
:103830005A600B4B4FF010021A60074B064A526851
:1038400042F002025A6000BF034B5B6803F00C03B6
:10385000082BF9D1704700BF0010024000644500FA
:1038600000200240AFF30080AFF30080AFF3008090
:1038700008B51E48FEF72CFB1C4B1D4A9A621B4BD9
:103880001C4ADA62194B42F28A521A631A4B1A4ADC
:10389000926942F400729A61154B4FF000025A602F
:1038A000134B4FF001029A60114B4FF009029A60DE
:1038B00000BF0F4B9B6803F00803002BF9D10C4BA2
:1038C0004FF005029A6000BF094B9B6803F00403A8
:1038D000002BF9D1064B4FF000029A60064B064AC6
:1038E000926922F400729A6108BD00BF780A002034
:1038F00000240140D07D000800100240AFF300809A
:1039000008B5074B4FF001025A61064B5B685B68D4
:1039100004484FF000019847FDF7C2F808BD00BF0A
:1039200000040140AC0A0020AFF30080AFF3008038
:1039300008B5074B4FF002025A61064B5B68DB6823
:1039400004484FF001019847FDF7AAF808BD00BFF1
:1039500000040140AC0A0020AFF30080AFF3008008
:1039600008B5074B4FF004025A61064B5B685B6970
:1039700004484FF002019847FDF792F808BD00BFD8
:1039800000040140AC0A0020AFF30080AFF30080D8
:1039900008B5074B4FF008025A61064B5B68DB69BC
:1039A00004484FF003019847FDF77AF808BD00BFBF
:1039B00000040140AC0A0020AFF30080AFF30080A8
:1039C00008B5074B4FF010025A61064B5B685B6A03
:1039D00004484FF004019847FDF762F808BD00BFA6
:1039E00000040140AC0A0020AFF30080AFF3008078
:1039F00000B583B0234B5B6903F478730193214BCB
:103A0000019A5A61019B03F02003002B06D01E4B44
:103A10005B68DB6A1C484FF005019847019B03F087
:103A20004003002B06D0184B5B685B6B16484FF0C9
:103A300006019847019B03F08003002B06D0124B30
:103A40005B68DB6B10484FF007019847019B03F45C
:103A50008073002B06D00C4B5B685B6C0A484FF000
:103A600008019847019B03F40073002B06D0064B16
:103A70005B68DB6C04484FF009019847FDF710F8CC
:103A800003B000BD00040140AC0A0020AFF3008089
:103A900000B583B0294B5B6903F47C430193274B4A
:103AA000019A5A61019B03F48063002B06D0244BDA
:103AB0005B685B6D22484FF00A019847019B03F455
:103AC0000063002B06D01E4B5B68DB6D1C484FF07B
:103AD0000B019847019B03F48053002B06D0184B31
:103AE0005B685B6E16484FF00C019847019B03F42E
:103AF0000053002B06D0124B5B68DB6E10484FF072
:103B00000D019847019B03F48043002B06D00C4B1A
:103B10005B685B6F0A484FF00E019847019B03F406
:103B20000043002B06D0064B5B68DB6F04484FF068
:103B30000F019847FCF7B4FF03B000BD000401403B
:103B4000AC0A0020AFF30080AFF30080AFF3008039
:103B500008B5074B4FF480325A61064B5B68D3F8C7
:103B6000843004484FF010019847FCF799FF08BDD6
:103B700000040140AC0A0020AFF30080AFF30080E6
:103B800008B5074B4FF400325A61064B5B68D3F817
:103B90008C3004484FF011019847FCF781FF08BDB5
:103BA00000040140AC0A0020AFF30080AFF30080B6
:103BB00008B5074B4FF480225A61064B5B68D3F877
:103BC000943004484FF012019847FCF769FF08BD94
:103BD00000040140AC0A0020AFF30080AFF3008086
:103BE00008B50248FEF7A4F908BD00BFAC0A0020E2
:103BF00082B00190214B214A926942F07D029A6184
:103C00001F4B019A1268DA601D4B019A92685A6044
:103C10001B4B019A52681A601A4B019AD268DA60FB
:103C2000184B019A52695A60164B019A12691A6030
:103C3000154B019A9269DA60134B019A126A5A6025
:103C4000114B019AD2691A60104B019A526ADA60DC
:103C50000E4B019AD26A5A600C4B019A926A1A6012
:103C60000B4B019A126BDA60094B019A926B5A6006
:103C7000074B019A526B1A6002B070470010024065
:103C800000080140000C01400010014000140140F8
:103C900000180140AFF30080AFF30080AFF3008065
:103CA0008AB0039002910192019B032B03D1039BE5
:103CB000029A1A6105E0019B042B02D1039B029A30
:103CC0005A612E4A019BD3181B7804934FF00003CE
:103CD0000693069B0793079B0893089B09934FF055
:103CE0000003059335E0089B4FEA03130893099BF3
:103CF0004FEA03130993069B4FEA03130693079BAE
:103D00004FEA03130793029B03F08003002B04D1B7
:103D1000089B43F00F03089304E0069A049B42EAD1
:103D200003030693029B03F40043002B04D1099B79
:103D300043F00F03099304E0079A049B42EA03034C
:103D40000793029B4FEA43030293059B03F1010390
:103D50000593059B072BC6D9039B5A68099B1A40FC
:103D6000079B1A43039B5A60039B1A68089B1A40DF
:103D7000069B1A43039B1A600AB07047307E000806
:103D800000B583B0204B9B889BB203F00803002B47
:103D9000F8D01D4B1B889AB21B4B9B889BB202EA42
:103DA0000303ADF80630184B174A928892B222F0FE
:103DB000070292B29A80BDF8063003F00103DBB22D
:103DC000002B05D0114B1B6810484FF0000198479D
:103DD000BDF8063003F00203002B05D00B4B1B6827
:103DE0000A484FF001019847BDF8063003F004037C
:103DF000002B05D0054B1B6804484FF00201984783
:103E0000FCF74EFE03B000BD00280040B40A0020BD
:103E10000F4B9B889BB203F02003002BF8D00C4B78
:103E20000B4A928892B242F0100292B29A80084BEA
:103E30004FF000021A81064B4FF223429A81044B45
:103E4000034A928892B222F0100292B29A8070478E
:103E500000280040AFF30080AFF30080AFF3008094
:103E600008B5124B114A928892B222F0080292B21F
:103E70009A800E4B9B889BB203F00803002BF8D06E
:103E80000A4B9B889BB203F02003002BF8D0074B12
:103E90004FF000021A80064B4FF000021A604FF0FC
:103EA00003004FF0F001FCF773FE08BD002800404E
:103EB000B40A0020AFF30080AFF30080AFF30080BE
:103EC00084B0019000911D4B9B889BB203F00803C6
:103ED000002BF8D0194B1B8B9BB24FEA0342174BB8
:103EE0009B8B9BB2D218009B1A60144B1B8A9BB20F
:103EF0004FEA0342114B9B8A9BB2D3180393009B5A
:103F00001A680E4B1B8B9BB24FEA03410B4B9B8BEA
:103F10009BB2CB189A42DDD1039B094A02FB03F204
:103F2000084BD318084AA2FB03134FEA93339BB202
:103F30001A46009B5A6004B0704700BF002800403A
:103F400018FCFFFFB8A8B90383DE1B43AFF3008062
:103F500082B001900091009B002B16D0019B009A2B
:103F60001A60124B9B889BB203F02003002BF8D001
:103F70000E4B0E4A928892B222F0070292B29A80B9
:103F80000A4B4FF007021A800EE0084B9B889BB249
:103F900003F02003002BF8D0044B4FF000021A80EE
:103FA000019B4FF000021A6002B0704700280040E9
:103FB00000B58FB0019002AB0198194602F0B0FC39
:103FC000029B4FEA63030D93039B4FEA43130D9A41
:103FD00042EA03030D93049B4FEAC3230D9A42EA7E
:103FE00003030D93059B4FEA03430D9A42EA030333
:103FF0000D93069B03F101034FEA43530D9A42EAE6
:1040000003030D93079BA3F150034FEA43630D9AFB
:1040100042EA03030D930D9B18460FB000BD00BF8D
:1040200000B585B001900091009B03F00803002BC0
:1040300001D0FCF7E5FC019B5B6A1B68019A526AA0
:104040001268126822F00F021A60019B5B6A5B68BB
:10405000019A526A127A4FF00F0101FA02F21A60C5
:10406000019B1B6A1B68019A126A1268126822F08F
:104070000F021A60019B1B6A5B68019A126A127A2E
:104080004FF00F0101FA02F21A60019B5B681B6896
:10409000002B11D0019B4FF004021A70019B5B684A
:1040A0001B6801989847019B1B78042B08D1019B42
:1040B0004FF002021A7003E0019B4FF002021A70E7
:1040C0004FF0200383F31188019B9B68002B0DD0D8
:1040D000019B9B680393019B4FF000029A60039B36
:1040E0004FF000025A620398FCF772FF4FF0000392
:1040F00083F3118805B000BDAFF30080AFF30080FB
:1041000000B583B001900091009B03F00803002BE1
:1041100001D0FCF775FC03B000BD00BFAFF3008019
:1041200008B5164B4FF6FF721A801548FEF760FF70
:10413000134B144ADA61124B134A1A62104B134A9A
:104140005A620F4B41F20A029A620D4B41F2180279
:10415000DA620F48FEF74CFF0D4B0E4ADA610C4B4A
:104160000D4A1A620A4B0D4A5A62094B41F20A0281
:104170009A62074B41F21802DA6208BD180B002060
:10418000B80A002000300140DC7D0008E87D00080E
:10419000E80A002000380040F47D0008007E000896
:1041A00000B585B00190019B1B78012B57D1019A76
:1041B0004C4B9A421FD1019B1A6A4B4B10464FF051
:1041C0000A011A46019BFFF7E3F903468DF80F3009
:1041D000019B5A6A454B10464FF00A011A46019B53
:1041E000FFF7D6F903468DF80F30414B404A9269EC
:1041F00042F480529A61019A3E4B9A421FD1019B30
:104200001A6A394B10464FF00A011A46019BFFF714
:10421000BFF903468DF80E30019B5A6A334B1046A6
:104220004FF00A011A46019BFFF7B2F903468DF8D9
:104230000E302F4B2E4AD26942F48042DA61019B44
:104240001B6A1B68019AD26902F10C029A60019BF9
:104250005B6A1B68019AD26902F10C029A60019BA9
:104260005B685B8903F40063002B0CD1019B9B6AA4
:1042700023F47062019B9A62019BDB6A23F47062F3
:10428000019BDA620FE0019B9B6A23F4706343F4A5
:10429000A062019B9A62019BDB6A23F4706343F482
:1042A000A062019BDA62019BDB694FF000021A8079
:1042B000019BDB69019A5268528942F4417292B2C1
:1042C0001A80019BDB694FF007029A80019BDB6932
:1042D000019AD269128892B242F0400292B21A80D8
:1042E00005B000BDB80A00202140000801410008C7
:1042F00000100240E80A0020AFF30080AFF3008016
:1043000000B583B00190019B1B78022B27D1019B44
:10431000DB694FF000021A80019BDB694FF000025D
:104320009A80019B1B6A1846FFF7A2F9019B5B6A02
:104330001846FFF79DF9019A0A4B9A4205D10A4B9C
:10434000094A926922F480529A61019A074B9A4273
:1043500005D1054B044AD26922F48042DA6103B0E8
:1043600000BD00BFB80A002000100240E80A00208B
:1043700082B00190019B5B685B68019A5268128968
:104380004FF0010101FA02F25A6102B0704700BF1A
:1043900082B00190019B5B685B68019A5268128948
:1043A0004FF0010101FA02F21A6102B0704700BF3A
:1043B00082B001900091019B1B6A1B68194ADA6068
:1043C000019B1B6A1B68009A5A60019B1B6A1B6851
:1043D000019A926A1A60019B5B6A1B68124ADA6052
:1043E000019B5B6A1B68009A5A60019B5B6A1B68B1
:1043F000019AD26A1A60019B1B6A1B68019A126AB1
:104400001268126842F001021A60019B5B6A1B6825
:10441000019A526A1268126842F001021A6002B0F0
:10442000704700BF1A0B0020180B0020AFF300806C
:1044300084B0039002910192039B1B6A1B681A4A85
:10444000DA60039B1B6A1B68029A5A60039B1B6A13
:104450001B68039A926A1A60039B5B6A1B68019A45
:10446000DA60039B5B6A1B68029A5A60039B5B6A73
:104470001B68039AD26A42F080021A60039B1B6A8F
:104480001B68039A126A1268126842F001021A60ED
:10449000039B5B6A1B68039A526A1268126842F0B7
:1044A00001021A6004B070471A0B0020AFF30080BD
:1044B00084B0039002910192039B1B6A1B68019ACE
:1044C000DA60039B1B6A1B68029A5A60039B1B6A93
:1044D0001B68039A926A42F080021A60039B5B6A2F
:1044E0001B68114ADA60039B5B6A1B68029A5A6078
:1044F000039B5B6A1B68039AD26A1A60039B1B6A60
:104500001B68039A126A1268126842F001021A606C
:10451000039B5B6A1B68039A526A1268126842F036
:1045200001021A6004B07047180B0020AFF300803E
:1045300000B585B00190019B1B691B69ADF80E3079
:10454000019B1B69DB689AB2BDF80E3002EA0303D7
:104550009BB203F0FF03ADF80E30019B1B69BDF861
:104560000E206FEA02021A61BDF80E3003F002035A
:10457000002B04D0019B5B681B6901989847BDF82C
:104580000E3003F00403002B04D0019B5B689B6991
:1045900001989847BDF80E3003F00803002B04D0B3
:1045A000019B5B681B6A01989847BDF80E3003F0C9
:1045B0001003002B04D0019B5B689B6A019898470D
:1045C000BDF80E3003F00103DBB2002B04D0019BD9
:1045D0005B689B680198984705B000BDAFF3008009
:1045E00008B5064B6FF001021A61054B5B689B68CA
:1045F00003489847FCF754FA08BD00BF002C01405F
:104600001C0B0020AFF30080AFF30080AFF30080FD
:1046100000B583B0214B1B699AB2204BDB689BB27B
:1046200002EA03039BB203F0FF03ADF806301B4B15
:10463000BDF806206FEA02021A61BDF8063003F0E9
:104640000203002B04D0164B5B681B691448984783
:10465000BDF8063003F00403002B04D0104B5B6858
:104660009B690F489847BDF8063003F00803002BFC
:1046700004D00B4B5B681B6A09489847BDF80630AD
:1046800003F01003002B04D0054B5B689B6A0448C1
:104690009847FCF705FA03B000BD00BF002C0140AD
:1046A0001C0B0020AFF30080AFF30080AFF300805D
:1046B00008B50348FFF73CFFFCF7F2F908BD00BF5F
:1046C000300B0020AFF30080AFF30080AFF3008029
:1046D00008B50648FEF79CFA044B054A1A610548DE
:1046E000FEF796FA034B044A1A6108BD1C0B002022
:1046F000002C0140300B002000080040AFF3008088
:1047000000B585B00190019B1B78012B4AD1019A1D
:10471000924B9A421ED1924B914A926942F40062A6
:104720009A618F4B8E4AD26842F40062DA608C4BF9
:104730004FF00002DA604FF019004FF07001FCF703
:1047400027FA4FF01B004FF07001FCF721FA019B94
:10475000844ADA60019A844B9A4218D1804B804A8D
:10476000D26942F00402DA617D4B7D4A126942F05F
:1047700004021A617A4B4FF000021A614FF01E00DA
:104780004FF07001FCF704FA019B764ADA60019B56
:104790001B6946F668029A61019B1B6946F668022E
:1047A000DA612AE0019B1B694FF000021A60019B4D
:1047B0001B69019A5268126B22F0FF02DA60019BBA
:1047C0001B694FF000021A61019B1B694FF0000248
:1047D0005A63019B1B694FF000029A63019B1B699E
:1047E0004FF00002DA63019B1B694FF000021A646C
:1047F000019B1B694FF000025A62019BDA68019B22
:104800005B681B68B2FBF3F303F1FF330293029A78
:104810004FF6FF739A420BD8029B03F10103019AF2
:104820005268126802FB03F2019BDB689A4200BFE8
:10483000019B1B69029A92B29A62019B1B69019AC1
:10484000128902F1FF3292B2DA62019B1B69019A6E
:104850005268D26A5A604FF00003ADF80E30019BE7
:104860005B68DB6803F00F03012B07D0022B0BD131
:10487000BDF80E3043F00203ADF80E30BDF80E3037
:1048800043F00103ADF80E30019B5B685B6903F0F8
:104890000F03012B07D0022B0BD1BDF80E3043F0D4
:1048A0002003ADF80E30BDF80E3043F01003ADF824
:1048B0000E30019B5B68DB6903F00F03012B07D00F
:1048C000022B0BD1BDF80E3043F40073ADF80E305F
:1048D000BDF80E3043F48073ADF80E30019B5B6879
:1048E0005B6A03F00F03012B07D0022B0BD1BDF83D
:1048F0000E3043F40053ADF80E30BDF80E3043F4E3
:104900008053ADF80E30019B1B69BDF80E201A6272
:10491000019B1B694FF001025A61019B1B69019ABF
:104920001269D168019A52689268002A0CBF00226D
:10493000012241EA0202DA60019B1B694FF000028A
:104940001A61019B1B694FF400425A64019B1B6969
:104950004FF085021A6005B000BD00BF1C0B00209F
:104960000010024000366E01300B0020AFF30080D3
:1049700000B583B00190019B1B78022B33D1019BC2
:104980001B694FF000021A60019B1B694FF0000287
:10499000DA60019B1B694FF000021A61019B1B69E1
:1049A0004FF000025A64019A104B9A420DD14FF019
:1049B0001900FCF73DF94FF01B00FCF739F90C4BDF
:1049C0000B4A926922F400629A61019A094B9A4259
:1049D00009D14FF01E00FCF72BF9054B044AD269B0
:1049E00022F00402DA6103B000BD00BF1C0B0020FE
:1049F00000100240300B0020AFF30080AFF30080C6
:104A000084B0019013460A468DF80320ADF80030BB
:104A1000019B19699DF80330BDF8002003F10C03D8
:104A20004FEA8303CB185A60019B5A689DF8033004
:104A300003F101034FEAC303D3189B68002B27D06F
:104A4000019B1B69DB6803939DF803304FF0020262
:104A500002FA03F31A46039B02EA0303002B17D161
:104A6000019B1B699DF803204FF0020101FA02F23D
:104A70001146039A41EA0202DA60019B1B699DF824
:104A800003204FF0020101FA02F26FEA02021A61FA
:104A900004B07047AFF30080AFF30080AFF3008045
:104AA00082B001900B468DF80330019B1A699DF886
:104AB000033003F10C034FEA8303D3184FF00002D5
:104AC0005A60019B1B69019A1269D1689DF8032005
:104AD0004FF0020000FA02F26FEA020201EA02025B
:104AE000DA6002B0704700BFAFF30080AFF3008020
:104AF00000B585B001900B46ADF802304FF00003D1
:104B00000393BDF8023003F00803002B03D0039B8E
:104B100043F080030393BDF8023003F00103DBB2DE
:104B2000002B03D0039B43F020030393BDF8023016
:104B300003F00203002B03D0039B43F040030393D5
:104B4000BDF8023003F00403002B03D0039B43F4B1
:104B500080730393019B03F1040318460399FCF748
:104B60008FFD05B000BD00BFAFF30080AFF3008044
:104B700000B587B00190019B5B6F0493049B9B89F8
:104B8000ADF80E30049B1B88ADF81630BDF816301A
:104B900003F48073002B13D04FF0200383F31188AC
:104BA000019B03F1040318464FF40071FCF768FD04
:104BB0004FF0000383F31188049B4FF6FF621A80C5
:104BC0004FF0200383F3118817E0BDF8163003F08F
:104BD0000F03002B05D0BDF8163001981946FFF7DA
:104BE00087FF049B9B889BB2DBB201981946FEF7B6
:104BF000CFF9049B1B88ADF81630BDF8163003F0D2
:104C00002003002BE1D14FF0000383F31188BDF89E
:104C10000E3003F08003002B2FD0BDF8163003F0C8
:104C20008003002B29D04FF0200383F31188019BD0
:104C300003F130031846FDF70BF80290029B002B9E
:104C400013DA019B03F1040318464FF00801FCF747
:104C500017FDBDF80E3023F0C0039BB243F04003B4
:104C60009BB29AB2049B9A8103E0029B9AB2049B86
:104C70009A804FF0000383F31188BDF8163003F0DB
:104C80004003002B1AD04FF0200383F31188019BBF
:104C900003F1040318464FF01001FCF7F1FC4FF04C
:104CA000000383F31188BDF80E3023F0C0039AB2DD
:104CB000049B9A81049B4FF6BF721A8007B000BD17
:104CC00082B00190044B044A928992B242F0800271
:104CD00092B29A8102B0704700440040AFF3008066
:104CE00008B50348FFF744FFFBF7DAFE08BD00BF35
:104CF000440B0020AFF30080AFF30080AFF30080DF
:104D000008B505484FF00001044AFEF709F9024BC7
:104D1000034A5A6708BD00BF440B0020C14C00087D
:104D200000440040AFF30080AFF30080AFF3008099
:104D300008B5FEF73DFD08BDAFF30080AFF300807E
:104D4000704700BFAFF30080AFF30080AFF3008087
:104D500084B003468DF807300C4B1B889BB203933D
:104D60009DF80730002B04D1039B43F038030393D5
:104D700005E0039B23F0380343F008030393034B40
:104D8000039A92B21A8004B0704700BF0038004006
:104D9000704700BFAFF30080AFF30080AFF3008037
:104DA000704700BFAFF30080AFF30080AFF3008027
:104DB00082B003468DF8073002B07047AFF3008031
:104DC00000B583B003468DF807309DF807309BB2DD
:104DD0000A48194601F06CFE00BF08484FF0010177
:104DE00001F09EFE0346002BF7D0044801F070FE50
:104DF0000346DBB2184603B000BD00BF00380040D8
:104E000008B54FF0FF00FFF7DBFF0346184608BD6B
:104E100000B583B00B4B4FF032021A60FFF7F0FF82
:104E2000FFF7EEFF03468DF807309DF80730FF2BA4
:104E300003D0044B1B68002BF2D19DF807301846B5
:104E400003B000BDC00B0020AFF30080AFF30080C3
:104E500008B504484FF4805101F06AFFFFF7D0FF16
:104E600008BD00BF000C0140AFF30080AFF300802D
:104E700000B589B04FF008004FF0010101F078FF54
:104E80004FF480404FF0010101F092FF4FF001001C
:104E9000FFF78EFFFFF784FFFFF77AFF4FF0000365
:104EA000009304E000BF009B03F101030093009A0C
:104EB00047F22F539A42F5DD4FF48053ADF8083096
:104EC0004FF010038DF80B304FF003038DF80A30CC
:104ED00002AB3648194601F04BFE34484FF480517E
:104EE00001F026FF4FF42043ADF808304FF00303E4
:104EF0008DF80A304FF018038DF80B3002AB2B48B9
:104F0000194601F035FE4FF48043ADF808304FF0FC
:104F100048038DF80B3002AB2448194601F028FEF7
:104F20004FF00003ADF80C304FF48273ADF80E3043
:104F30004FF00003ADF810304FF00003ADF8123021
:104F40004FF00003ADF814304FF40073ADF8163095
:104F50004FF03803ADF818304FF00003ADF81A30B9
:104F60004FF00703ADF81C3003AB1148194601F0B0
:104F70002FFD0F484FF0000101F0B2FD0C484FF03B
:104F8000010101F075FD00BF09484FF0020101F079
:104F9000C7FD0346002BF7D0054801F099FD0346F5
:104FA000DBB28DF8073009B000BD00BF000C014036
:104FB00000380040AFF30080AFF30080AFF3008013
:104FC00000B583B01C4B1B78DBB203F00103002B50
:104FD00008D11A484FF4805101F0BAFEFFF718FFCC
:104FE000FFF736FF164801F0B3FC15484FF00001FB
:104FF00001F03EFD4FF480404FF0000101F0D8FE7B
:105000004FF46043ADF804304FF028038DF80730BB
:1050100001AB0A48194601F0ABFD4FF00000FFF765
:10502000C7FE054B1B78DBB243F00103DAB2024B3B
:105030001A7003B000BD00BF40080020000C014002
:1050400000380040AFF30080AFF30080AFF3008082
:1050500000B585B0019000912B4B4FF00A021A6009
:10506000FFF7CEFE03468DF80F309DF80F30FF2B73
:1050700003D1254B1B68002BF2D19DF80F30FE2B7E
:1050800002D04FF000033CE04FF0FF00FFF798FE26
:1050900003461A46019B1A70019B03F10103019319
:1050A0004FF0FF00FFF78CFE03461A46019B1A7073
:1050B000019B03F1010301934FF0FF00FFF780FE16
:1050C00003461A46019B1A70019B03F101030193E9
:1050D0004FF0FF00FFF774FE03461A46019B1A705B
:1050E000019B03F101030193009BA3F104030093CF
:1050F000009B002BC8D1FFF783FEFFF781FE4FF026
:105100000103184605B000BDBC0B0020AFF30080C2
:1051100000B585B0034600918DF807309DF8073043
:105120005BB2002B15DA9DF8073003F07F038DF892
:1051300007304FF077004FF00001FFF7E9FF03461B
:105140008DF80E309DF80E30012B02D99DF80E30EF
:1051500069E036484FF4805101F0EAFD33484FF4DE
:10516000805101F0F5FDFFF753FE0346FF2B02D0FF
:105170004FF0FF0357E09DF807301846FFF720FE79
:10518000009B4FEA1363DBB21846FFF719FE009B42
:105190004FEA1343DBB21846FFF712FE009B4FEABB
:1051A0001323DBB21846FFF70BFE009BDBB2184659
:1051B000FFF706FE4FF001038DF80F309DF8073022
:1051C000402B03D14FF095038DF80F309DF8073039
:1051D000482B03D14FF087038DF80F309DF80F3027
:1051E0001846FFF7EDFD9DF807304C2B01D1FFF776
:1051F00007FE4FF00A038DF80F30FFF701FE03465C
:105200008DF80E309DF80E305BB2002B09DA9DF858
:105210000F3003F1FF338DF80F309DF80F30002B66
:10522000EBD19DF80E30184605B000BD000C0140D2
:1052300010B584B003468DF807309DF80730002B79
:1052400002D04FF00103F5E07C4B1B78DBB203F09A
:105250000203002B03D0794B1B78DBB2EAE0FFF7A7
:1052600007FE4FF00000FFF773FD4FF00A038DF8C3
:105270000F3007E0FFF7C4FD9DF80F3003F1FF3357
:105280008DF80F309DF80F30002BF3D14FF0000355
:105290008DF80D304FF040004FF00001FFF738FF60
:1052A0000346012B40F0AA80654B4FF064021A6060
:1052B0004FF048004FF4D571FFF72AFF0346012B4A
:1052C00062D14FF000038DF80F300FE09DF80F40D2
:1052D000FFF796FD03461A4604A90B1903F8082C9C
:1052E0009DF80F3003F101038DF80F309DF80F305A
:1052F000032BEBD99DF80A30012B7FD19DF80B30A1
:10530000AA2B7BD100BF4E4B1B68002B08D04FF05F
:10531000E9004FF08041FFF7FBFE0346002BF2D17E
:10532000474B1B68002B69D04FF07A004FF000010B
:10533000FFF7EEFE0346002B60D14FF000038DF81F
:105340000F300FE09DF80F40FFF75AFD03461A4655
:1053500004A90B1903F8082C9DF80F3003F1010381
:105360008DF80F309DF80F30032BEBD99DF80830E6
:1053700003F04003002B02D04FF00C0301E04FF08C
:1053800004038DF80D3039E04FF0E9004FF00001D3
:10539000FFF7BEFE0346012B08D84FF002038DF83D
:1053A0000D304FF0E9038DF80E3008E04FF00103A7
:1053B0008DF80D304FF041038DF80E3000BF204BBB
:1053C0001B68002B09D09DF80E3018464FF00001E5
:1053D000FFF79EFE0346002BF1D1194B1B68002BF3
:1053E00008D04FF050004FF40071FFF791FE0346D4
:1053F000002B03D04FF000038DF80D30114B9DF8BA
:105400000D201A70FFF724FD9DF80D30002B0CD0F5
:105410000A4B1B78DBB223F00103DAB2074B1A7098
:105420004FF00100FFF794FC01E0FFF7C9FD034BCB
:105430001B78DBB2184604B010BD00BF4008002046
:10544000BC0B0020C40B0020AFF30080AFF3008042
:1054500082B003468DF807309DF80730002B02D04C
:105460004FF0010302E0034B1B78DBB2184602B099
:10547000704700BF40080020AFF30080AFF300800A
:1054800000B585B00291019202468DF80F208DF88B
:1054900003309DF80F30002B03D19DF80330002B13
:1054A00002D14FF004035CE02F4B1B78DBB203F01A
:1054B0000103DBB2002B02D04FF0030351E02B4B72
:1054C0001B7803F00803002B03D1019B4FEA432311
:1054D00001939DF80330012B14D14FF05100019935
:1054E000FFF716FE0346002B32D102984FF40071ED
:1054F000FFF7AEFD0346002B2AD04FF000038DF8D6
:10550000033025E04FF052000199FFF701FE0346FA
:10551000002B1DD102984FF40071FFF799FD03464F
:10552000002B0ED0029B03F5007302939DF803300D
:1055300003F1FF338DF803309DF80330002BE9D1E0
:1055400000E000BF4FF04C004FF00001FFF7E0FD1E
:10555000FFF77EFC9DF80330002B0CBF00230123D6
:10556000DBB2184605B000BD40080020C40B002087
:1055700086B0039002910192039B0593029B0493D2
:105580000BE0049B1A78059B1A70059B03F101033D
:105590000593049B03F101030493019B002B0CBFB3
:1055A00000230123DBB2019A02F1FF320192002BAA
:1055B000E7D106B0704700BFAFF30080AFF30080C3
:1055C00086B0039002910192039B059307E0029B32
:1055D000DAB2059B1A70059B03F101030593019B49
:1055E000002B0CBF00230123DBB2019A02F1FF3232
:1055F0000192002BEBD106B0704700BFAFF30080E3
:1056000088B0039002910192039B0793029B06933B
:105610004FF00003059300BF019B002B0CBF00233C
:105620000123DBB2019A02F1FF320192002B16D066
:10563000079B1B781A46069B1B78D31A0593059B7C
:10564000002B14BF00230123DBB2079A02F10102F1
:105650000792069A02F101020692002BDCD1059B0B
:10566000184608B0704700BFAFF30080AFF300806A
:1056700082B00190009103E0019B03F101030193CB
:10568000019B1B78002B05D0019B1B781A46009BC1
:105690009A42F1D1019B1B78184602B0704700BFB7
:1056A00000B585B001900091019B1B6A0393039A9A
:1056B000009B9A4217D0009B002B14D0019B5A7874
:1056C000019B03F1240310461946009A4FF0010391
:1056D000FFF7D6FE0346002B02D04FF0010304E093
:1056E000019B009A1A624FF00003184605B000BDF6
:1056F00082B001900091009BA3F102030093019BF3
:10570000DB68A3F10202009B9A4202D84FF000032B
:1057100007E0019B9B78009A02FB03F2019BDB6987
:10572000D318184602B07047AFF30080AFF3008083
:1057300000B587B001900091009B012B04D9019B1B
:10574000DA68009B9A4202D84FF00103BCE0019B4B
:105750001B78022B54D0032B79D0012B40F0B28060
:10576000009B0593059B4FEA5303059AD3180593B5
:10577000019B5A69059B4FEA5323D3180198194698
:10578000FFF78EFF0346002B40F09580059B4FEA04
:10579000C3534FEAD353019AD31893F82430049398
:1057A000059B03F101030593019B5A69059B4FEA91
:1057B0005323D31801981946FFF772FF0346002BB5
:1057C0007BD1059B4FEAC3534FEAD353019AD318B9
:1057D00093F824304FEA0323049A42EA0303049324
:1057E000009B03F00103DBB2002B03D0049B4FEAC4
:1057F000131304E0049B4FEA03534FEA135363E08F
:10580000019B5A69009B4FEA1323D318019819464C
:10581000FFF746FF0346002B51D1019B03F1240201
:10582000009B4FEA43034FEAC3534FEAD353D318C5
:105830000393039B03F101031B784FEA03239AB2FE
:10584000039B1B7842EA03039BB29BB23CE0019BA3
:105850005A69009B4FEAD313D31801981946FFF7F2
:105860001FFF0346002B2CD1019B03F12402009B58
:105870004FEA83034FEAC3534FEAD353D31803933A
:10588000039B03F103031B784FEA0362039B03F1BD
:1058900002031B784FEA03431A43039B03F10103FE
:1058A0001B784FEA03231A43039B1B7842EA030346
:1058B00023F0704308E000BF04E000BF02E000BF37
:1058C00000E000BF4FF0FF33184607B000BD00BF37
:1058D00000B585B001900B46ADF80230019BBDF8D4
:1058E0000220DA80019B9B680393039B012B05D068
:1058F000019B1B68DA68039B9A4202D84FF00203AF
:1059000077E0039B002B08D1019B1B681B78032BBE
:1059100003D1019B1B689B690393039B002B18D148
:10592000019B039ADA60019B1B681B89BDF802206A
:105930009A4202D34FF002035BE0019B1B689A6915
:10594000BDF802304FEA13139BB2D218019B1A61C3
:1059500040E0019B1B689B784FEA0313ADF80A30C7
:1059600020E0019B1B6818460399FFF7E1FE0390B6
:10597000039BB3F1FF3F02D14FF0010339E0039BDA
:10598000012B05D9019B1B68DA68039B9A4202D858
:105990004FF002032DE0BDF80220BDF80A30D31A03
:1059A000ADF80230BDF80220BDF80A309A42D8D2D4
:1059B000019B039ADA60019B1B6818460399FFF765
:1059C00097FE0246BDF802304FEA13139BB2D2187D
:1059D000019B1A61019B1B6803F12402BDF8023090
:1059E00003F00F034FEA4313D218019B5A614FF0A3
:1059F0000003184605B000BDAFF30080AFF3008090
:105A000000B585B001900091019BDB8803F1010393
:105A1000ADF80E30BDF80E30002B03D0019B1B6992
:105A2000002B02D14FF0040367E0BDF80E3003F005
:105A30000F039BB2002B4DD1019B1B6903F10102A7
:105A4000019B1A61019BDB68002B09D1019B1B683C
:105A50001B89BDF80E209A423CD34FF004034CE062
:105A6000BDF80E304FEA13139BB21A46019B1B6818
:105A70009B7803F1FF3302EA0303002B2AD1019B39
:105A80001A68019BDB6810461946FFF751FE029029
:105A9000029B012B02D84FF002032EE0029BB3F1D0
:105AA000FF3F02D14FF0010327E0019B1B68DA683A
:105AB000029B9A4202D84FF004031EE0019B029A17
:105AC000DA60019B1B6818460299FFF711FE024637
:105AD000019B1A61019BBDF80E20DA80019B1B68B7
