:020000040800F2
:10000000000400201101000801020008010200089C
:1000100001020008010200080102000801020008B4
:100020000102000801020008010200084102000864
:100030000102000801020008010200082102000874
:10004000010200080102000801020008313800081E
:100050000102000801020008010200080102000874
:10006000010200080102000801020008112E000828
:10007000612E0008C12E0008212F0008812F0008E2
:10008000E12F0008413000080102000801020008C9
:100090000102000801020008010200080102000834
:1000A000010200087141000801020008A141000896
:1000B0000102000801020008714200080102000864
:1000C0000102000801020008010200080102000804
:1000D000010200080102000821490008010200088D
:0C00E000010200080102000801020008F3
:1000F000704700BFAFF30080AFF30080AFF3008024
:10010000FEE700BFAFF30080AFF30080AFF30080E5
:1001100072B640F60004C2F2000484F309884FF07E
:10012000020484F31488BFF36F8F40F20004C2F21C
:10013000000440F20045C2F2000504E04FF05533E0
:10014000236004F10404AC42F8D340F20044C2F24C
:10015000000440F60005C2F2000504E04FF05533FC
:10016000236004F10404AC42F8D304F001FC47F628
:10017000E035C0F6000540F60004C2F2000405E0D8
:100180002B68236004F1040405F1040540F65C03C8
:10019000C2F200039C42F3D340F66004C2F20004B2
:1001A00041F29035C2F2000504E04FF000032360F5
:1001B00004F10404AC42F8D3FFF79AFF40F2EC04D8
:1001C000C0F6000403E02368984704F1040440F2F9
:1001D000EC03C0F600039C42F5D307F061FA40F24D
:1001E000EC04C0F6000403E02368984704F104041B
:1001F00040F2EC03C0F600039C42F5D3FFF780FF0A
:10020000FEE700BFAFF30080AFF30080AFF30080E4
:1002100072B6FEE7AFF30080AFF30080AFF300806B
:1002200008B54FF0200383F3118800F0F9F94FF07F
:10023000000383F3118800F043F808BDAFF300809A
:1002400010B483B0EFF309840194019B03F1200300
:100250000193019B83F309884FF0000383F3118816
:1002600003B010BC704700BFAFF30080AFF3008055
:1002700008B54FF46D43CEF200034FF000029A60D0
:100280004FF46D43CEF200034FF44072C0F2FA52C5
:10029000DA604FF007004FF0100100F031F94FF035
:1002A0000A004FF0200100F02BF94FF00B004FF047
:1002B000800100F025F908BDAFF30080AFF30080A6
:1002C00010B483B04FF0200383F311884FF46D43D3
:1002D000CEF200035B6803F40063002B48D0EFF319
:1002E00009840194019BA3F120030193019B83F3F3
:1002F0000988019B4FF08072DA6140F67813C2F2F0
:1003000000039B69DB7F002B11D040F67813C2F20B
:1003100000031B689A6840F67813C2F200039B69D9
:100320009B689A4294BF00230123DBB210E040F6A1
:100330007813C2F200031B689A6840F67813C2F281
:1003400000039B699B689A4234BF00230123DBB200
:10035000002B06D0019A40F28133C0F6000393616E
:100360000AE0019A40F28433C0F60003936103E08F
:100370004FF0000383F3118803B010BC704700BF37
:1003800000F05EFC00DF00BFAFF30080AFF3008041
:1003900003460A462DE9F04FC2F80CD0D3F80CD032
:1003A000BDE8F08FAFF30080AFF30080AFF30080C3
:1003B0004FF0000383F311882846A04700F030FD7A
:1003C000704700BFAFF30080AFF30080AFF3008051
:1003D00084B001900091019B03F003034FEAC30333
:1003E00003934FF46143CEF20003019A4FEA920067
:1003F0004FF46142CEF2000201994FEA910101F1FE
:10040000C00152F82110039A4FF0FF0C0CFA02F2CF
:100410006FEA020201EA0201039ADDF800C00CFA59
:1004200002F241EA020100F1C00243F822104FF447
:100430006143CEF20003019A4FEA5212019901F092
:100440001F014FF0010000FA01F102F1600243F8D0
:1004500022104FF46143CEF20003019A4FEA521288
:10046000019901F01F014FF0010000FA01F143F87A
:10047000221004B0704700BFAFF30080AFF30080DC
:1004800084B00190019B03F003034FEAC30303937D
:100490004FF46143CEF20003019A4FEA52120199E0
:1004A00001F01F014FF0010000FA01F102F12002FA
:1004B00043F822104FF46143CEF20003019A4FEA51
:1004C00092004FF46142CEF2000201994FEA91018D
:1004D00001F1C00152F82110039A4FF0FF0C0CFA01
:1004E00002F26FEA020201EA020100F1C00243F8DF
:1004F000221004B0704700BFAFF30080AFF300805C
:1005000084B001900091019B03F003034FEAC30301
:1005100003934FF46D43CEF20003019A4FEA920029
:100520004FF46D42CEF2000201994FEA910101F1C0
:10053000060152F82110039A4FF0FF0C0CFA02F258
:100540006FEA020201EA0201039ADDF800C00CFA28
:1005500002F241EA020100F1060243F8221004B05F
:10056000704700BFAFF30080AFF30080AFF30080AF
:1005700082B0019040F67813C2F200039A6947F204
:10058000E063C0F600039361FEE700BFAFF30080B5
:1005900000B583B0FFF76CFE00F07AF900F0B0F818
:1005A00001F026F901F094F940F62010C2F20000A3
:1005B0004FF0400100F064FB024640F67813C2F2AF
:1005C00000039A6140F67813C2F200039B694FF072
:1005D00001021A774FF0000383F3118862B640F6E8
:1005E0007813C2F200039A6947F22073C0F6000341
:1005F000936140F27153C0F600034FF00002009285
:1006000040F66000C2F200004FF0C0014FF001025E
:1006100000F0C6FB03B000BDAFF30080AFF3008075
:1006200000B583B040F67813C2F200039B69DB7F0C
:10063000002B09D040F67813C2F200039B69DA7FE1
:1006400002F1FF32D2B2DA7740F67813C2F2000339
:100650009B691A6A02F101021A6240F66813C2F23B
:100660000003DB6803F1010240F66813C2F20003E5
:10067000DA6040F66813C2F200031B681A4640F6BF
:100680006813C2F200039A4235D040F66813C2F2F2
:1006900000031B689A6802F1FF329A6021E0019B17
:1006A000DB680093019B4FF00002DA60019B1A683F
:1006B00040F66813C2F200035360019B1A6840F6CB
:1006C0006813C2F200031A604FF0000383F311882D
:1006D000019B1A69009B104698474FF0200383F353
:1006E000118840F66813C2F200031B680193019B56
:1006F0009B68002BD3D003B000BD00BFAFF30080D8
:1007000040F66812C2F2000240F66813C2F200031B
:100710005A6040F66813C2F200035A6840F6681344
:10072000C2F200031A6040F66813C2F200034FF0F1
:10073000FF329A6040F66813C2F200034FF00002E5
:10074000DA607047AFF30080AFF30080AFF3008052
:1007500086B00390029101920093039B002B04D07A
:10076000019B002B01D0029B002B039B009A1A6176
:10077000039B019ADA6040F66813C2F200031B681B
:10078000059308E0059B9B68029AC3EB0203029362
:10079000059B1B680593059B9A68029B9A42F1D3BF
:1007A000039B059A1A60039B1B685A68039B5A6057
:1007B000039B5B68059A03995160059A52681A6019
:1007C000039B029A9A60059A40F66813C2F20003EE
:1007D0009A4206D0059B9A68029BC3EB0202059BD6
:1007E0009A6006B0704700BFAFF30080AFF300809F
:1007F00082B00190019B002B019BDB68002B019BC9
:100800001A6840F66813C2F200039A4208D0019BAE
:100810001B68019A12689168019A92680A449A606A
:10082000019B5B68019A12681A60019B1B68019A20
:1008300052685A60019B4FF00002DA6002B07047C4
:1008400084B00190019B1B680393039B1A68019B72
:100850001A60019B1B68019A5A60039B184604B0FA
:10086000704700BFAFF30080AFF30080AFF30080AC
:1008700082B00190019B5B68019A12681A60019B2B
:100880001B68019A52685A60019B184602B0704773
:1008900040F67812C2F2000240F67813C2F200036A
:1008A0005A6040F67813C2F200035A6840F6781393
:1008B000C2F200031A6040F67813C2F200034FF050
:1008C00000029A6040F67812C2F2000240F67813F5
:1008D000C2F200035A6140F67813C2F200035A696B
:1008E00040F67813C2F200031A617047AFF300803C
:1008F00084B00190019B1B7F002B03D0019B1B7FC9
:100900000E2B00BF019B4FF000021A7740F67813C0
:10091000C2F200030393039B1B680393039B9A6833
:10092000019B9B689A42F6D2019B039A1A60039B33
:100930005A68019B5A60019B5B68039A0199516058
:10094000039A52681A60019B184604B0704700BFB2
:1009500000B585B003468DF8073040F67813C2F233
:1009600000039B690393039B9DF807201A77039B61
:100970004FF01402DA7740F67810C2F20000FFF769
:100980005FFF024640F67813C2F200039A6140F618
:100990007813C2F200039B694FF001021A7740F608
:1009A0007813C2F200039B6918460399FFF7F0FC25
:1009B00005B000BDAFF30080AFF30080AFF300805F
:1009C00000B585B00190019B03934FF0200383F3A2
:1009D0001188039B1B7F0D2B2CD801A252F823F00A
:1009E000190A0008350A0008350A0008230A000819
:1009F000350A00082F0A0008350A0008350A0008E1
:100A0000350A0008350A0008350A0008350A0008CA
:100A1000350A00082F0A00084FF0000383F31188FD
:100A200013E0039B5B6A9A6802F101029A600398E3
:100A3000FFF71EFF039B4FF0FF325A620398FFF748
:100A400057FF4FF0000383F3118805B000BD00BFCE
:100A500000B589B0034600918DF80730009BB3F1D3
:100A6000FF3F1AD040F67813C2F200039B6903AA35
:100A70001046009940F6C112C0F60002FFF768FE6A
:100A80009DF807301846FFF763FF069B002B0AD03E
:100A900003AB1846FFF7ACFE06E09DF8073018469A
:100AA000FFF756FF00E000BF40F67813C2F20003E4
:100AB0009B695B6A184609B000BD00BFAFF30080B8
:100AC00000B585B001900091019B009A5A62019B8C
:100AD0009A6840F67813C2F200039B699B689A42B9
:100AE00003D80198FFF704FF17E040F67813C2F22D
:100AF00000039B691846FFF7FBFE0346039340F68D
:100B00007813C2F20003019A9A61019B4FF001022F
:100B10001A7701980399FFF73BFC05B000BD00BFB1
:100B200008B540F67813C2F200031B689A6840F6D5
:100B30007813C2F200039B699B689A4201D900F0C6
:100B400037F808BDAFF30080AFF30080AFF300804B
:100B500000B583B040F67813C2F200039B6901939D
:100B600040F67810C2F20000FFF76AFE024640F637
:100B70007813C2F200039A6140F67813C2F20003C0
:100B80009B694FF001021A77019B4FF01402DA774C
:100B90000198FFF7ADFE40F67813C2F200039B699F
:100BA00018460199FFF7F4FB03B000BDAFF30080D6
:100BB00000B583B040F67813C2F200039B6900933E
:100BC00040F67810C2F20000FFF73AFE024640F607
:100BD0007813C2F200039A6140F67813C2F2000360
:100BE0009B694FF001021A77009B4FF000021A77C1
:100BF00040F67813C2F200030193019B1B68019336
:100C0000019B9A68009B9B689A42F6D8009B019AC8
:100C10001A60019B5A68009B5A60009B5B68019AAE
:100C200000995160019A52681A6040F67813C2F236
:100C300000039B6918460099FFF7AAFB03B000BDAB
:100C400008B540F67813C2F200039B69DB7F002BE6
:100C500002D1FFF77DFF01E0FFF7AAFF08BD00BF4B
:100C600084B00190019B1B680393039B1A68019B4E
:100C70001A60039B184604B0704700BFAFF30080B2
:100C800082B001900091019B009A9A60019B4FF005
:100C900002021A77019B4FF000025A77019B4FF036
:100CA0001402DA77019B009A1A64019B4FF000024C
:100CB000DA63019B4FF000029A63019B4FF0000240
:100CC0001A62019B4FF001029A77019B4FF00002DC
:100CD0009A6140F67813C2F20003019A136140F65C
:100CE0007813C2F200035A69019B5A61019B5A6949
:100CF00040F67813C2F200030199596140F6781367
:100D0000C2F200035B691361019B03F128031A46D9
:100D1000019B9A62019B03F12C031A46019B1A6303
:100D2000019B1A6B019BDA62019B184602B0704767
:100D300000B587B00390029101920093039B059345
:100D4000039B002B07D0029BAF2B04D9019B7F2B69
:100D500001D8009B002B039A029BA3F124031A44A1
:100D6000059BDA60059BDB68009A1A60059BDB68CF
:100D7000089A5A60059BDA6840F2B133C0F6000366
:100D8000136205980199FFF77BFF0346184607B0E9
:100D900000BD00BFAFF30080AFF30080AFF3008071
:100DA00000B589B005900491039202934FF020039F
:100DB00083F311880A9B009305980499039A029B78
:100DC000FFF7B6FF0346079307984FF00001FFF7C0
:100DD00077FE4FF0000383F31188079B184609B094
:100DE00000BD00BFAFF30080AFF30080AFF3008021
:100DF00000B583B00190019B002B4FF0200383F3DB
:100E000011884FF006000199FFF722FE4FF0000312
:100E100083F3118803B000BDAFF30080AFF300800F
:100E200000B583B001904FF0200383F3118801983F
:100E300000F006F803B000BDAFF30080AFF3008010
:100E400000B585B0019040F67813C2F200039B69AB
:100E50000393039B019A5A6209E0039B03F1280361
:100E60001846FFF7FDFE03461846FFF741FD039BBA
:100E70009A6A039B03F128039A42EED1039B5B7F9E
:100E800003F00303002B09D1039B5B69039A1269EA
:100E90001A61039B1B69039A52695A614FF00E0055
:100EA000FFF756FD05B000BDAFF30080AFF3008043
:100EB00082B001900091009A019B1A60009B5A68D1
:100EC000019B5A60019B5B68009A01995160009AEE
:100ED00052681A6002B07047AFF30080AFF3008031
:100EE00084B00190019B1B680393039B1A68019BCC
:100EF0001A60019B1B68019A5A60039B184604B054
:100F0000704700BFAFF30080AFF30080AFF3008005
:100F100082B001900091019B002B01D0009B002B1F
:100F2000019B1A46019B5A60019B5A68019B1A60FB
:100F3000019B009A9A6002B0704700BFAFF3008037
:100F400000B583B001900091019B002B019B9B6831
:100F5000002B04DB019B1A68019B9A4208D0019B7D
:100F60009B68002B05DA019B1A68019B9A4200E0FE
:100F700000BF019B9B6803F1FF32019B9A60019BBC
:100F80009B68002B23DA009B002B08D1019B9B68F8
:100F900003F10102019B9A604FF0FF3319E040F624
:100FA0007813C2F200039B69019A5A6240F67813E3
:100FB000C2F200039A69019B10461946FFF778FFB9
:100FC0004FF003000099FFF743FD034601E04FF0A7
:100FD0000003184603B000BDAFF30080AFF30080FC
:100FE00000B585B00190019B002B019B9B68002BF5
:100FF00004DB019B1A68019B9A4208D0019B9B6805
:10100000002B05DA019B1A68019B9A4200E000BFA1
:10101000019B9B6803F10102019B9A60019B9B6805
:10102000002B0CDC019B1846FFF75AFF0346039385
:10103000039B4FF000025A620398FFF759FC05B07A
:1010400000BD00BFAFF30080AFF30080AFF30080BE
:1010500082B00190019B002B019B1A46019B5A60B4
:10106000019B5A68019B1A60019B4FF000029A6035
:1010700002B07047AFF30080AFF30080AFF30080A1
:1010800000B585B001900091019B002B019B1B686E
:10109000039311E0039BDA68009B42EA0302039B7F
:1010A000DA60039B5A68039B9B681046194600F060
:1010B0000FF8039B1B680393019B039A9A42E9D1A3
:1010C00005B000BDAFF30080AFF30080AFF3008048
:1010D00000B583B001900091019B002B019B9A6B9E
:1010E000009B42EA0302019B9A63019B1B7F082B32
:1010F00007D1019B9A6B019B5B6A02EA0303002BF9
:101100000DD1019B1B7F092B10D1019B9A6B019B79
:101110005B6A02EA0302019B5B6A9A4206D101986C
:10112000FFF7E6FB03464FF000025A6203B000BD32
:1011300000B585B0039002910192039B002B04D06F
:10114000029B002B01D0019B002B039B029ADA60CB
:10115000039BDA68039B9A60039B9A68039B1A605F
:10116000019B4FEA8303029A1A44039B5A60039B34
:1011700003F11C0318460199FFF7CAFE039B03F114
:10118000100318464FF00001FFF7C2FE05B000BD86
:1011900000B583B001900091019B002B019B5B6A1D
:1011A000002B02DC4FF0FF331FE0019B5B6A03F171
:1011B000FF32019B5A62019B9B68009A1A6003F1FF
:1011C0000402019B9A60019B9A68019B5B689A42AA
:1011D00003D3019B1A68019B9A60019B03F11003E2
:1011E0001846FFF7FDFE4FF00003184603B000BDA0
:1011F00000B587B00390029101924FF0200383F372
:10120000118803980299019A00F00AF803460593A1
:101210004FF0000383F31188059B184607B000BD0B
:1012200000B587B0039002910192039B002B01D07F
:10123000029B002B039B03F1100318460199FFF753
:101240007FFE03460593059B002B1AD1039BDB68A9
:101250001968029A116003F10402039BDA60039B90
:10126000DA68039B5B689A4203D3039B1A68039B6B
:10127000DA60039B03F11C031846FFF7B1FEFFF78A
:101280004FFC059B184607B000BD00BFAFF30080C0
:1012900082B001900091009A019B1A60009B5A68ED
:1012A000019B5A60019B5B68009A01995160009A0A
:1012B00052681A6002B07047AFF30080AFF300804D
:1012C00084B00190019B1B680393039B1A68019BE8
:1012D0001A60019B1B68019A5A60039B184604B070
:1012E000704700BFAFF30080AFF30080AFF3008022
:1012F00000B583B001900091009B002B02D14FF00C
:10130000FF3316E040F67813C2F200039B69019A9E
:101310005A6240F67813C2F200039A69019B1046A4
:101320001946FFF7B5FF4FF00D000099FFF790FB4E
:101330000346184603B000BDAFF30080AFF3008052
:1013400084B00390029101920093039B1A46039B81
:101350005A60039B5A68039B1A60039B4FF000027C
:101360009A60039B029A5A61039B5A69039B9A6194
:10137000039B9A69039BDA60029A019B1A44039BC0
:101380001A61039B009ADA61039B049A1A6204B003
:10139000704700BFAFF30080AFF30080AFF3008071
:1013A00000B583B001900B468DF80330019B5A695C
:1013B000019B9B699A4206D1019B9B68002B02D03E
:1013C0004FF0010301E04FF00003DBB2002B02D02D
:1013D0006FF003032BE0019B9B6803F10102019B6B
:1013E0009A60019B5B699DF803201A7003F101026A
:1013F000019B5A61019B5A69019B1B699A4203D365
:10140000019BDA68019B5A61019B1A68019B9A4211
:101410000BD0019B1846FFF753FF03461846FFF712
:1014200067FA03464FF000025A624FF00003184675
:1014300003B000BDAFF30080AFF30080AFF30080D6
:1014400000B585B0019000914FF0200383F311881F
:10145000019BDB69002B13D0019BDB690198984746
:101460000FE001980099FFF743FF03460393039BA6
:10147000002B06DA4FF0000383F31188039B23E06F
:1014800000BF019B9B68002BEBD0019B9B6803F185
:10149000FF32019B9A60019B9B691A788DF80B20A3
:1014A00003F10102019B9A61019B9A69019B1B69EF
:1014B0009A4203D3019BDA68019B9A614FF00003C3
:1014C00083F311889DF80B30184605B000BD00BFAE
:1014D00000B587B00390029101920093039BDB69F2
:1014E00004934FF000030593019B002B4FF0200362
:1014F00083F31188049B002B10D0049B039898471A
:101500000DE003980099FFF7F3FE0346002B06D089
:101510004FF0000383F31188059B37E000BF039B66
:101520009B68002BEDD0039B9B6803F1FF32039B6C
:101530009A60039B9B691978029A1170029A02F1D2
:101540000102029203F10102039B9A61039B9A69D3
:10155000039B1B699A4203D3039BDA68039B9A613E
:101560004FF0000383F31188059B03F101030593FA
:10157000019B03F1FF330193019B002B01D1059BDC
:1015800004E04FF0200383F31188B3E7184607B057
:1015900000BD00BFAFF30080AFF30080AFF3008069
:1015A00084B00390029101920093039B1A46039B1F
:1015B0005A60039B5A68039B1A60039B019A9A60C6
:1015C000039B029A5A61039B5A69039B9A61039B8E
:1015D0009A69039BDA60029A019B1A44039B1A6181
:1015E000039B009ADA61039B049A1A6204B0704765
:1015F00000B587B003900B4601928DF80B304FF089
:10160000200383F311880EE003980199FFF770FE21
:1016100003460593059B002B05DA4FF0000383F387
:101620001188059B2AE0039B9B68002BECD0039B51
:101630009B6803F1FF32039B9A60039B5B699DF8F3
:101640000B201A7003F10102039B5A61039B5A6934
:10165000039B1B699A4203D3039BDA68039B5A617D
:10166000039BDB69002B03D0039BDB69039898473E
:101670004FF0000383F311884FF00003184607B0C2
:1016800000BD00BFAFF30080AFF30080AFF3008078
:1016900000B585B00190019B5A69019B9B699A42F4
:1016A00006D1019B9B68002B02D04FF0010301E0A3
:1016B0004FF00003DBB2002B02D06FF002032BE0EF
:1016C000019B9B6803F10102019B9A60019B9B694E
:1016D0001A788DF80F2003F10102019B9A61019B9A
:1016E0009A69019B1B699A4203D3019BDA68019BAB
:1016F0009A61019B1A68019B9A420BD0019B184684
:10170000FFF7DEFD03461846FFF7F2F803464FF0F9
:1017100000025A629DF80F30184605B000BD00BFA8
:1017200000B587B00390029101920093039BDB699F
:1017300004934FF000030593019B002B4FF020030F
:1017400083F311880CE003980099FFF7D1FD03465D
:10175000002B05D04FF0000383F31188059B3DE07B
:10176000039B9B68002BEED0039B9B6803F1FF3229
:10177000039B9A60039B5B69029A12781A7003F1CB
:101780000102039B5A61029B03F101030293039B35
:101790005A69039B1B699A4203D3039BDA68039B34
:1017A0005A61049B002B02D0049B039898474FF08A
:1017B000000383F31188059B03F101030593019B4B
:1017C00003F1FF330193019B002B01D1059B05E041
:1017D0004FF0200383F3118800BFC1E7184607B01C
:1017E00000BD00BFAFF30080AFF30080AFF3008017
:1017F00041F29033C2F2000303F1070323F0070321
:101800001A4640F69413C2F200031A6042F2000333
:10181000C2F2000323F007031A4640F69813C2F2FF
:1018200000031A60704700BFAFF30080AFF3008081
:1018300000B585B001904FF0200383F31188019823
:1018400000F00EF8034603934FF0000383F3118872
:10185000039B184605B000BDAFF30080AFF30080D6
:1018600084B00190019B03F1070323F00703019368
:1018700040F69813C2F200031B681A4640F6941310
:10188000C2F200031B68C3EB02031A46019B9A4293
:1018900002D24FF0000312E040F69413C2F20003AC
:1018A0001B68039340F69413C2F200031A68019B6D
:1018B0001A4440F69413C2F200031A60039B1846C0
:1018C00004B07047AFF30080AFF30080AFF3008047
:1018D00008B540F6A013C2F2000341F63102C0F68B
:1018E00000021A6040F6A013C2F200034FF000029B
:1018F0009A6040F6A013C2F200034FF00002DA60D3
:101900000148FFF7A5FB08BDB0090020AFF3008038
:1019100008B501F015FD01F03BFA47F63010C0F6AE
:10192000000001F08DFE00F013F800F0C9FE01F098
:101930003FF801F0ADF800F0A3FA00F051FF03F01A
:101940001FF808BDAFF30080AFF30080AFF3008055
:1019500008B501F005FE08BDAFF30080AFF30080CD
:1019600000B583B00190019B4FF001021A70019BFA
:101970004FF000025A60019B4FF000029A60019BF9
:101980004FF00002DA60019B4FF000021A61019BE8
:101990004FF000025A61019B03F118031846FFF74C
:1019A00057FB03B000BD00BFAFF30080AFF3008072
:1019B00000B585B00390029101920093039B1846F5
:1019C000029900F0E5FB0346002B15D04FF0010310
:1019D00021E0039B1846019900F02AFC0346002BE6
:1019E00002D04FF0010316E0019B03F50073019351
:1019F000009B03F1FF330093009B002BE9D1039B75
:101A0000184600F06DFC0346002B02D04FF0010396
:101A100001E04FF00003184605B000BDAFF30080B1
:101A200000B585B00390029101920093039B184684
:101A3000029900F085FC0346002B15D04FF00103FE
:101A400021E0039B1846019900F0CAFC0346002BD5
:101A500002D04FF0010316E0019B03F500730193E0
:101A6000009B03F1FF330093009B002BE9D1039B04
:101A7000184600F00DFD0346002B02D04FF0010385
:101A800001E04FF00003184605B000BDAFF3008041
:101A900084B00346029101928DF80F3012E09DF858
:101AA0000F304FEA4302029B1B7882EA030247F29F
:101AB0006073C0F600039B5C8DF80F30029B03F14E
:101AC00001030293019B002B0CBF00230123DBB217
:101AD000019A02F1FF320192002BE0D19DF80F3004
:101AE000184604B0704700BFAFF30080AFF300802A
:101AF00000B585B001904FF00003039311E0019B06
:101B0000DB6A1A6802AB10464FF001011A4601F079
:101B1000C7F89DF80830FF2B19D0039B03F1010390
:101B20000393039B0F2BEADD019BDB6A1A6802AB70
:101B300010464FF001011A4601F0B2F89DF8083046
:101B4000FF2B06D04FF00100FFF752F9ECE700BF82
:101B500000E000BF05B000BDAFF30080AFF3008030
:101B600000B587B003900B4601928DF80B300398B7
:101B7000FFF7BEFF9DF80B3043F04003DBB28DF85A
:101B80001030019B4FEA1363DBB28DF81130019BDB
:101B90004FEA1343DBB28DF81230019B4FEA132357
:101BA000DBB28DF81330019BDBB28DF8143004AB3F
:101BB0004FF0000019464FF00502FFF769FF03469A
:101BC0004FEA4303DBB243F00103DBB2DBB28DF833
:101BD0001530039BDB6A1A6804AB10464FF0060110
:101BE0001A4601F025F807B000BD00BFAFF3008032
:101BF00000B585B001904FF00003039314E0019B02
:101C0000DB6A1A6802AB10464FF001011A4601F078
:101C100047F89DF80830FF2B02D09DF8083008E007
:101C2000039B03F101030393039B082BE7DD4FF0B4
:101C3000FF03184605B000BDAFF30080AFF300808E
:101C400000B585B0019000910198FFF7D1FF0346E0
:101C50008DF80F30019BDB6A1B6818464FF00401BA
:101C6000009A01F01DF89DF80F30184605B000BD30
:101C700000B587B003900B4601928DF80B30039BA3
:101C8000DB6A1B68184600F073FF9DF80B30039861
:101C90001946019AFFF764FF0398FFF7A9FF03466F
:101CA0008DF81730039BDB6A1B68184600F078FF3D
:101CB0009DF81730184607B000BD00BFAFF3008095
:101CC00000B587B00390019200930B468DF80B305E
:101CD000039BDB6A1B68184600F04AFF9DF80B3037
:101CE00003981946019AFFF73BFF03980099FFF705
:101CF000A7FF03468DF81730039BDB6A1B68184665
:101D000000F04EFF9DF81730184607B000BD00BF29
:101D100000B58DB003900B4601928DF80B30039BFC
:101D2000DB6A1B68184600F023FF9DF80B30039810
:101D300019464FF00002FFF713FF0398FFF758FF13
:101D40000346002B08D0039BDB6A1B68184600F093
:101D500027FF4FF0010366E04FF000030B935BE0B9
:101D6000039BDB6A1A6805AB10464FF001011A4667
:101D700000F096FF9DF81430FE2B49D1039BDB6ADF
:101D80001A6805AB10464FF010011A4600F088FFA4
:101D900005AB0A93019B03F10C03099323E00A9B13
:101DA0001B784FEA03620A9B03F101031B784FEA99
:101DB000034342EA03020A9B03F102031B784FEA42
:101DC000032342EA03020A9B03F103031B7842EA5E
:101DD0000302099B1A600A9B03F104030A93099BFF
:101DE000A3F104030993099A019B9A42D7D2039B5A
:101DF000DB6A1B6818464FF0020100F0E9FE039B06
:101E0000DB6A1B68184600F0CBFE4FF000030AE0C7
:101E10000B9B03F101030B930B9A42F20F739A424F
:101E20009ED94FF0010318460DB000BDAFF30080FE
:101E300000B585B00190019BDB6A1B68184600F075
:101E400097FE019BDB6A1A6803AB10464FF0010155
:101E50001A4600F025FF9DF80C30FF2B07D1019B9F
:101E6000DB6A1B68184600F09BFE05B000BD4FF012
:101E70000100FEF7BDFFE4E7AFF30080AFF30080A1
:101E8000704700BFAFF30080AFF30080AFF3008076
:101E900082B00190019A47F24073C0F600031360CC
:101EA000019B4FF001021A71019B4FF00002DA62B0
:101EB000019B4FF0000283F8302002B0704700BF52
:101EC00082B001900091019B002B01D0009B002B60
:101ED000019B1B79012B03D0019B1B79022B00BFB7
:101EE000019B009ADA62019B4FF002021A7102B064
:101EF000704700BFAFF30080AFF30080AFF3008006
:101F000000B587B00190019B002B019B1B79022B30
:101F100003D0019B1B79052B00BF019B4FF00302EF
:101F20001A71019BDB6A1A68019BDB6A5B681046C9
:101F3000194600F0CDFD019BDB6A1B6818464FF087
:101F4000100100F045FE4FF00003059301984FF09B
:101F500000014FF00002FFF78BFE0346012B0BD16F
:101F600003AB01984FF008014FF4D572FFF7A8FEBC
:101F70000346052B0DD146E0059B03F101030593B4
:101F8000059B092B00F2A1804FF00A00FEF730FFFD
:101F9000DCE74FF00003059301984FF037014FF055
:101FA0000002FFF765FE0346012B1BD103AB01982E
:101FB0004FF029014FF4D572C4F20002FFF780FE02
:101FC0000346002B0ED103AB01984FF03A014FF0BE
:101FD0000002FFF775FE9DF80C3003F04003002B64
:101FE0000CD110E0059B03F101030593059B632BC6
:101FF0006DD84FF00A00FEF7FBFECDE7019B4FF0D6
:10200000010283F830204FF00003059301984FF050
:1020100001014FF00002FFF72BFE03468DF813304D
:102020009DF81330002B14D1019BDB6A1A68019BC9
:10203000DB6A9B681046194600F04AFD01984FF094
:1020400010014FF40072FFF713FE0346002B40D13E
:102050000FE09DF81330012B3DD1059B03F10103E7
:102060000593059B632B38D84FF00A00FEF7C0FE9E
:10207000CCE7019B03F1180301984FF009011A46C0
:10208000FFF746FE0346002B29D1019B03F11803FD
:10209000184600F0C5FA0246019B9A62019B9B6AB2
:1020A000002B1ED0019B03F1080301984FF00A0199
:1020B0001A46FFF72DFE0346002B14D1019B4FF06B
:1020C00005021A714FF000031AE000BF0CE000BFD8
:1020D0000AE000BF08E000BF06E000BF04E000BF68
:1020E00002E000BF00E000BF019BDB6A1B681846EE
:1020F00000F016FD019B4FF002021A714FF0010330
:10210000184607B000BD00BFAFF30080AFF30080FA
:1021100000B583B00190019B002B4FF0200383F3A7
:102120001188019B1B79022B03D0019B1B79052B86
:1021300000BF019B1B79022B06D14FF0000383F3F4
:1021400011884FF0000320E0019B4FF004021A7148
:102150004FF0000383F31188019BDB6A1A68019B2F
:10216000DB6A9B681046194600F0B2FC0198FFF745
:102170005FFE019BDB6A1B68184600F0D1FC019BE7
:102180004FF002021A714FF00003184603B000BD71
:1021900000B583B001900091019B002B019B1B793E
:1021A000052B019B4FF006021A71019BDB6A1A682E
:1021B000019BDB6A9B681046194600F089FC019B75
:1021C000DB6A1B68184600F0D3FC019B93F83030A3
:1021D000002B06D001984FF01201009AFFF7C0FCC7
:1021E00008E0009B4FEA432301984FF012011A4682
:1021F000FFF7B6FC0198FFF7FBFC0346002B0CD061
:10220000019BDB6A1B68184600F08AFC019B4FF0BB
:1022100005021A714FF0010301E04FF00003184668
:1022200003B000BDAFF30080AFF30080AFF30080D8
:1022300000B585B001900091019B002B01D0009B5F
:10224000002B019B1B79062B02D04FF001033FE0CE
:102250004FF00003039324E0019BDB6A1B681846E0
:102260004FF00101009A00F01BFD009B1B78FE2B34
:1022700013D1019BDB6A1B6818464FF40071009A6A
:1022800000F00EFD019BDB6A1B6818464FF002014F
:1022900000F09EFC4FF000031AE0039B03F10103E2
:1022A0000393039A42F20F739A42D5DD019BDB6AD6
:1022B0001B68184600F074FC019BDB6A1B6818461B
:1022C00000F02EFC019B4FF005021A714FF0010344
:1022D000184605B000BD00BFAFF30080AFF300802B
:1022E00000B583B00190019B002B019B1B79062B4D
:1022F00002D04FF001031AE0019BDB6A1B6818460D
:102300004FF0070147F68002C0F6000200F090FC93
:102310000198FFF76DFC019BDB6A1B68184600F013
:102320003FFC019B4FF005021A714FF00003184665
:1023300003B000BDAFF30080AFF30080AFF30080C7
:1023400000B583B001900091019B002B019B1B798C
:10235000052B019B4FF007021A71019BDB6A1A687B
:10236000019BDB6A9B681046194600F0B1FB019B9C
:10237000DB6A1B68184600F0FBFB019B93F83030CA
:10238000002B06D001984FF01901009AFFF7E8FBE7
:1023900008E0009B4FEA432301984FF019011A46C9
:1023A000FFF7DEFB0198FFF723FC0346002B0CD060
:1023B000019BDB6A1B68184600F0B2FB019B4FF0E3
:1023C00005021A714FF0010301E04FF000031846B7
:1023D00003B000BDAFF30080AFF30080AFF3008027
:1023E00000B585B001900091019B002B01D0009BAE
:1023F000002B019B1B79072B02D04FF0010344E017
:10240000019BDB6A1B6818464FF0020147F6700219
:10241000C0F6000200F00CFC019BDB6A1B6818464A
:102420004FF40071009A00F003FC019BDB6A1B680B
:1024300018464FF0020100F0CBFB019BDB6A1A68E3
:1024400003AB10464FF001011A4600F029FC9DF83D
:102450000C3003F01F03052B05D10198FFF748FB53
:102460004FF0000311E0019BDB6A1B68184600F087
:1024700097FB019BDB6A1B68184600F051FB019B30
:102480004FF005021A714FF00103184605B000BD68
:1024900000B583B00190019B002B019B1B79072B9A
:1024A00002D04FF0010317E0019BDB6A1B6818465E
:1024B0004FF0020147F66002C0F6000200F0B8FBE0
:1024C000019BDB6A1B68184600F06AFB019B4FF01A
:1024D00005021A714FF00003184603B000BD00BF9B
:1024E00000B583B00190019B002B019B1B79052B4C
:1024F00002D04FF0010316E0019B4FF008021A7161
:10250000019BDB6A1A68019BDB6A9B6810461946CF
:1025100000F0DEFA0198FFF78BFC019B4FF00502FB
:102520001A714FF00003184603B000BDAFF30080EE
:1025300082B001900091019B002B01D0009B002BE9
:10254000019B1B79052B02D04FF0010309E0019B91
:102550009A6A009B5A60009B4FF400721A604FF019
:102560000003184602B07047AFF30080AFF300805D
:1025700088B0039002910192029A019B9A4204D37F
:10258000029A019BC3EB02031F2B019B4FEA5313DB
:102590000793019B03F01F030693029B4FEA53131B
:1025A0000593029B03F01F0303F101034FF00102A7
:1025B00002FA03F303F1FF330493079A059B9A424F
:1025C00019D2079B4FEA8303039A13441A68069BA8
:1025D00022FA03F2059B4FEA830303990B4419681F
:1025E000049B01EA0301069BC3F1200301FA03F3F4
:1025F00042EA03030BE0079B4FEA8303039A134469
:102600001A68049B02EA0302069B22FA03F31846A7
:1026100008B07047AFF30080AFF30080AFF30080E5
:1026200000B587B00190019B03F10C031B684FEAD2
:102630009373002B02D0012B29D035E001984FF085
:1026400049014FF03E02FFF793FF034605930198BF
:102650004FF031014FF02F02FFF78AFF034604933A
:1026600001984FF053014FF05002FFF781FF0346EE
:102670000393059B03F10102049B03F1020302FA99
:1026800003F2039BA3F1090302FA03F30EE001989E
:102690004FF045014FF03002FFF76AFF034603F1A8
:1026A00001034FEA832301E04FF00003184607B00F
:1026B00000BD00BFAFF30080AFF30080AFF3008038
:1026C00008B501F0E5FD08BDAFF30080AFF3008071
:1026D00082B00190019B4FF001021A70019B4FF0F4
:1026E00000025A6002B07047AFF30080AFF3008081
:1026F00000B583B001900091019B002B01D0009B9D
:10270000002B4FF0200383F31188019B1B78012BD2
:1027100003D0019B1B78022B00BF019B009A5A60DB
:10272000009B9A88019B1A81019801F0D1FD019BC1
:102730004FF002021A704FF0000383F3118803B0C8
:1027400000BD00BFAFF30080AFF30080AFF30080A7
:1027500000B583B00190019B002B4FF0200383F361
:102760001188019B1B78012B03D0019B1B78022B46
:1027700000BF019801F004FF019B4FF001021A70A5
:102780004FF0000383F3118803B000BDAFF3008066
:1027900000B583B0019013460A468DF80320ADF8CA
:1027A0000030019B002B02D09DF80330032B4FF02B
:1027B000200383F31188019B1B78022B9DF80320D3
:1027C000BDF80030019811461A4601F029FF4FF07C
:1027D000000383F3118803B000BD00BFAFF3008096
:1027E00008B501F0C5F808BDAFF30080AFF3008075
:1027F00000B583B001900091019B002B01D0009B9C
:10280000002B4FF0200383F311880198009901F009
:10281000E7F84FF0000383F3118803B000BD00BF59
:1028200000B583B001900091019B002B4FF0200375
:1028300083F311880198009901F032F94FF00003F9
:1028400083F3118803B000BDAFF30080AFF30080C5
:1028500000B585B0039002910192039B03F1300310
:1028600018460299019A4FF0FF33FEF759FF0346CD
:10287000184605B000BD00BFAFF30080AFF3008085
:1028800000B585B0039002910192039B03F10C0304
:1028900018460299019A4FF0FF33FEF719FE0346DE
:1028A000184605B000BD00BFAFF30080AFF3008055
:1028B00000B583B001900B468DF80330019B03F106
:1028C00030029DF80330104619464FF0FF32FEF7F4
:1028D0008FFE0346184603B000BD00BFAFF3008073
:1028E00000B583B00190019B03F10C0318464FF033
:1028F000FF31FEF7A5FD0346184603B000BD00BF3B
:1029000000B585B003900B4601928DF80B30039B08
:1029100003F130029DF80B3010461946019AFEF77C
:1029200067FE0346184605B000BD00BFAFF3008048
:1029300000B583B001900091019B03F10C03184690
:102940000099FEF77DFD0346184603B000BD00BFA9
:1029500000B585B00390029101920093039B03F1AF
:10296000300318460299019A009BFEF7D9FE0346F0
:10297000184605B000BD00BFAFF30080AFF3008084
:1029800000B585B00390029101920093039B03F17F
:102990000C0318460299019A009BFEF799FD034625
:1029A000184605B000BD00BFAFF30080AFF3008054
:1029B00008B501F0C5FF08BDAFF30080AFF300809C
:1029C00000B587B0059004910392059A47F69003ED
:1029D000C0F600031360059B03F104031A46059B30
:1029E0005A60059B4FF001021A72059B03F10C021D
:1029F000059B03F1540305990091104619464FF0C9
:102A00001002049BFEF79CFC059B03F13002059B22
:102A100003F1640305990091104619464FF0100226
:102A2000039BFEF7BDFD07B000BD00BFAFF3008004
:102A300000B583B001900B468DF80330019B002B4D
:102A4000019B5B69002B07D1019B03F1040318462E
:102A50004FF00401FEF714FB019B03F10C029DF8FB
:102A6000033010461946FEF79BFC0346002B07DA9D
:102A7000019B03F1040318464FF08001FEF700FBB1
:102A800003B000BDAFF30080AFF30080AFF3008070
:102A900008B501F0C5F808BDAFF30080AFF30080C2
:102AA00000B583B00190019B4FF001021A70019BA9
:102AB0004FF000025A60019B4FF000029A60019BA8
:102AC00003F10C031846FEF7C3FA03B000BD00BFC4
:102AD00000B583B001900091019B002B01D0009BB9
:102AE000002B4FF0200383F31188019B1B78012BEF
:102AF00003D0019B1B78022B00BF019B009A5A60F8
:102B0000019801F0F5F8019B4FF002021A704FF0A6
:102B1000000383F3118803B000BD00BFAFF3008052
:102B200000B583B00190019B002B4FF0200383F38D
:102B30001188019B1B78012B03D0019B1B78022B72
:102B400000BF019801F0ECF9019801F091F9019BA7
:102B50004FF001021A704FF0000383F3118803B0A5
:102B600000BD00BFAFF30080AFF30080AFF3008083
:102B700000B583B00190019B002B4FF0200383F33D
:102B80001188019B1B78022B019801F0B9F94FF0D5
:102B9000000383F3118803B000BD00BFAFF30080D2
:102BA00000B583B00190019B002B4FF0200383F30D
:102BB0001188019B1B78022B019801F0B1F94FF0AD
:102BC000000383F3118803B000BD00BFAFF30080A2
:102BD00000B583B001900091019B002B01D0009BB8
:102BE000002B4FF0200383F31188019B1B78022BED
:102BF000019B5B681B68002B019B4FF003021A705E
:102C00000198009901F09CF9019B9B68002B40F60C
:102C10007813C2F200039A69019B9A604FF0020098
:102C2000FDF796FE4FF0000383F3118803B000BD5B
:102C300000B585B0039002910192039B002B04D054
:102C4000029B002B01D0019B002B4FF0200383F34C
:102C50001188039B1B78022B039B5B681B68002B6E
:102C6000039B4FF003021A7003980299019A01F036
:102C7000A7F9039B9B68002B40F67813C2F2000370
:102C80009A69039B9A604FF00200FDF761FE4FF0D6
:102C9000000383F3118805B000BD00BFAFF30080CF
:102CA00000B585B0039002910192039B002B04D0E4
:102CB000029B002B01D0019B002B4FF0200383F3DC
:102CC0001188039B1B78022B039B5B681B68002BFE
:102CD000039B4FF003021A7003980299019A01F0C6
:102CE000AFF9039B9B68002B40F67813C2F20003F8
:102CF0009A69039B9A604FF00200FDF729FE4FF09E
:102D0000000383F3118805B000BD00BFAFF300805E
:102D100082B001904FF48053CEF200035A68019BB9
:102D20009A6002B0704700BFAFF30080AFF300803D
:102D300084B001904FF48053CEF200035B6803939C
:102D4000019B9B68039AC3EB020240F6C013C2F2D8
:102D500000031B68C3EB0202019B9A60019B9A6807
:102D6000019BDB689A4204D9019B9A68019BDA6057
:102D700009E0019B9A68019B1B699A4203D2019B5F
:102D80009A68019B1A6104B0704700BFAFF30080DE
:102D900000B587B040F6C013C2F200034FF0000246
:102DA0001A6001AB184600F013F8019B01AA104607
:102DB0009847029B01AA10469847039A40F6C01311
:102DC000C2F200031A6007B000BD00BFAFF300807D
:102DD00082B00190019A42F61153C0F600031360CD
:102DE000019A42F63153C0F600035360019B4FF045
:102DF00000029A60019B4FF00002DA60019B4FF0E5
:102E0000FF321A6102B07047AFF30080AFF3008069
:102E100000B583B04FF00003C4F202031B6803F057
:102E20000F0301934FF00003C4F20203019A5A60AA
:102E300040F6C813C2F200031B68002B0CD040F60A
:102E4000C813C2F200031A6840F6C813C2F20003A6
:102E50005B68184601999047FDF732FA03B000BD50
:102E600000B583B04FF00003C4F202031B684FEAC1
:102E7000131303F00F0301934FF00003C4F2020396
:102E8000019A4FEA02125A6040F6C813C2F20003D8
:102E90009B68002B0CD040F6C813C2F200039A685E
:102EA00040F6C813C2F20003DB6818460199904748
:102EB000FDF706FA03B000BDAFF30080AFF300806A
:102EC00000B583B04FF00003C4F202031B684FEA61
:102ED000132303F00F0301934FF00003C4F2020326
:102EE000019A4FEA02225A6040F6C813C2F2000368
:102EF0001B69002B0CD040F6C813C2F200031A69FC
:102F000040F6C813C2F200035B6918460199904766
:102F1000FDF7D6F903B000BDAFF30080AFF300803A
:102F200000B583B04FF00003C4F202031B684FEA00
:102F3000133303F00F0301934FF00003C4F20203B5
:102F4000019A4FEA02325A6040F6C813C2F20003F7
:102F50009B69002B0CD040F6C813C2F200039A699B
:102F600040F6C813C2F20003DB6918460199904786
:102F7000FDF7A6F903B000BDAFF30080AFF300800A
:102F800000B583B04FF00003C4F202031B684FEAA0
:102F9000134303F00F0301934FF00003C4F2020345
:102FA000019A4FEA02425A6040F6C813C2F2000387
:102FB0001B6A002B0CD040F6C813C2F200031A6A39
:102FC00040F6C813C2F200035B6A184601999047A5
:102FD000FDF776F903B000BDAFF30080AFF30080DA
:102FE00000B583B04FF00003C4F202031B684FEA40
:102FF000135303F00F0301934FF00003C4F20203D5
:10300000019A4FEA02525A6040F6C813C2F2000316
:103010009B6A002B0CD040F6C813C2F200039A6AD8
:1030200040F6C813C2F20003DB6A184601999047C4
:10303000FDF746F903B000BDAFF30080AFF30080A9
:1030400000B583B04FF00003C4F202031B684FEADF
:10305000136303F00F0301934FF00003C4F2020364
:10306000019A4FEA02625A6040F6C813C2F20003A6
:103070001B6B002B0CD040F6C813C2F200031A6B76
:1030800040F6C813C2F200035B6B184601999047E3
:10309000FDF716F903B000BDAFF30080AFF3008079
:1030A00082B040F6C413C2F200034FF000021A606F
:1030B0004FF0000301931CE047F6B002C0F6000297
:1030C00001990B464FEA43030B444FEA8303134431
:1030D0001B684FF000021A6040F6C813C2F20003EA
:1030E000019A4FF0000143F83210019B03F10103F4
:1030F0000193019B062BDFDD4FF00003C4F20203B6
:103100004FF0FF325A6002B0704700BFAFF300804B
:1031100000B585B00390029101920093039B002BB0
:10312000039B5B7A4FF0010202FA03F31A4640F662
:10313000C413C2F200031B6802EA0303002B02D08F
:103140004FF0010361E0039B5B7A1A4640F6C81317
:10315000C2F20003019943F83210039B5B7A40F6F8
:10316000C812C2F200024FEAC3031344009A5A6025
:10317000039B5B7A4FF0010202FA03F31A4640F612
:10318000C413C2F200031B6842EA030240F6C413F0
:10319000C2F200031A6040F6C413C2F200031B68B7
:1031A00003F07F03002B0BD04FF48053C4F20203D3
:1031B0004FF48052C4F20202526942F001025A6195
:1031C000039B1B68039A1268126822F00F021A60B0
:1031D000039B5B68039A127A4FF00F0101FA02F227
:1031E0001A60039B1B684FF000021A60019B002BC2
:1031F00009D0039B9B7A1A46029B4FEA03131046A1
:103200001946FDF7E5F84FF00003184605B000BD7C
:1032100000B583B00190019B002B019B5B7A4FF0BE
:10322000010202FA03F31A4640F6C413C2F2000385
:103230001B6802EA0303002B019B9B7A1846FDF7EB
:103240001FF9019B5B7A4FF0010202FA03F36FEA68
:1032500003031A4640F6C413C2F200031B6802EAD5
:10326000030240F6C413C2F200031A6040F6C4130E
:10327000C2F200031B6803F07F03002B0BD14FF455
:103280008053C4F202034FF48052C4F20202526926
:1032900022F001025A6103B000BD00BFAFF300800D
:1032A00008B54FF4E043C4F200034FF4E042C4F227
:1032B0000002126842F480721A604FF48053C4F224
:1032C00002031B6A03F44073B3F5407F0DD04FF443
:1032D0008053C4F202034FF480321A624FF48053D9
:1032E000C4F202034FF000021A624FF48053C4F29A
:1032F00002031B6A03F40043002B19D14FF48053DF
:10330000C4F202034FF48052C4F20202126A42F481
:1033100040721A6200F0F4FA4FF48053C4F20203D0
:103320004FF48052C4F20202126A42F400421A625E
:1033300008BD00BFAFF30080AFF30080AFF30080A3
:1033400008B54FF48053C4F202031B694FF4805355
:10335000C4F202034FF0FF321A614FF48053C4F2FB
:1033600002034FF000021A614FF48053C4F20203CB
:10337000DB684FF48053C4F202034FF0FF32DA608F
:103380004FF48053C4F202034FF00002DA604EF2B1
:103390001003CEF2000345F6BF525A604EF21003FE
:1033A000CEF200034FF000029A604EF21003CEF20C
:1033B00000034FF007021A604EF6F053CEF20003FE
:1033C0004EF6F052CEF20002D26842F08072DA601D
:1033D0004FF48053CEF200034FF48052CEF200023D
:1033E000126842F001021A604FF48053C4F20203E3
:1033F0004FF48052C4F20202D26942F08052DA6184
:103400004FF48053C4F202034FF48052C4F202021C
:10341000D26942F00062DA61FFF742FFFFF740FE37
:1034200008BD00BFAFF30080AFF30080AFF30080B2
:103430004FF48053C4F202034FF48052C4F20202EC
:10344000126842F001021A6000BF4FF48053C4F2C8
:1034500002031B6803F00203002BF6D04FF48053E5
:10346000C4F202034FF48052C4F20202126802F066
:10347000F9021A604FF48053C4F202034FF00002C5
:103480005A6000BF4FF48053C4F202035B6803F03C
:103490000C03002BF6D14FF48053C4F202034FF417
:1034A0008052C4F20202126842F480321A6000BFF5
:1034B0004FF48053C4F202031B6803F40033002B63
:1034C000F6D04FF48053C4F202034FF48052C4F29A
:1034D0000202526842F4A0225A604FF48053C4F2B0
:1034E00002034FF48052C4F20202126842F080726A
:1034F0001A6000BF4FF48053C4F202031B6803F04C
:103500000073002BF6D04FF48053C4F202034FF443
:10351000C842C0F245025A604FF40053C4F202039D
:103520004FF010021A604FF48053C4F202034FF4BC
:103530008052C4F20202526842F002025A6000BF96
:103540004FF48053C4F202035B6803F00C03082BB2
:10355000F6D17047AFF30080AFF30080AFF3008087
:1035600008B540F60020C2F20000FEF7F9F940F677
:103570000023C2F200034FF41052C4F201029A6217
:1035800040F60023C2F2000347F6B002C0F6000284
:10359000DA6240F60023C2F2000342F28A521A6352
:1035A0004FF48053C4F202034FF48052C4F202027B
:1035B000926942F400729A614FF41053C4F201030D
:1035C0004FF000025A604FF41053C4F201034FF061
:1035D00001029A604FF41053C4F201034FF0090244
:1035E0009A6000BF4FF41053C4F201039B6803F0CC
:1035F0000803002BF6D14FF41053C4F201034FF02F
:1036000005029A6000BF4FF41053C4F201039B6897
:1036100003F00403002BF6D14FF41053C4F201035E
:103620004FF000029A604FF48053C4F202034FF44B
:103630008052C4F20202926922F400729A6108BDBB
:1036400082B001904FF48053C4F202034FF48052D1
:10365000C4F20202926942F07D029A614FF4006363
:10366000C4F20103019A1268DA604FF40063C4F2F5
:103670000103019A92685A604FF40063C4F2010397
:10368000019A52681A604FF44063C4F20103019A30
:10369000D268DA604FF44063C4F20103019A5269C0
:1036A0005A604FF44063C4F20103019A12691A6030
:1036B0004FF48053C4F20103019A9269DA604FF427
:1036C0008053C4F20103019A126A5A604FF4805386
:1036D000C4F20103019AD2691A604FF4A053C4F2F4
:1036E0000103019A526ADA604FF4A053C4F2010355
:1036F000019AD26A5A604FF4A053C4F20103019AAE
:10370000926A1A604FF4C053C4F20103019A126B1B
:10371000DA604FF4C053C4F20103019A926B5A600D
:103720004FF4C053C4F20103019A526B1A6002B005
:10373000704700BFAFF30080AFF30080AFF30080AD
:103740008AB0039002910192019B032B03D1039B4A
:10375000029A1A6105E0019B042B02D1039B029A95
:103760005A6147F61013C0F60003019A13441B7800
:1037700004934FF000030693069B0793079B08935F
:10378000089B09934FF00003059335E0089B4FEA2F
:1037900003130893099B4FEA03130993069B4FEA0F
:1037A00003130693079B4FEA03130793029B03F04F
:1037B0008003002B04D1089B43F00F03089304E01F
:1037C000069A049B42EA03030693029B03F4004318
:1037D000002B04D1099B43F00F03099304E0079ADF
:1037E000049B42EA03030793029B4FEA43030293BD
:1037F000059B03F101030593059B072BC6D9039B8A
:103800005A68099B02EA0302079B42EA0302039BF0
:103810005A60039B1A68089B02EA0302069B42EA6D
:103820000302039B1A600AB0704700BFAFF3008029
:1038300000B583B04FF42053C4F200039B889BB2C1
:1038400003F00803002BF5D04FF42053C4F200031B
:103850001B889AB24FF42053C4F200039B889BB29A
:1038600002EA0303ADF806304FF42053C4F200031C
:103870004FF42052C4F20002928892B222F0070262
:1038800092B29A80BDF8063003F00103DBB2002B40
:103890000BD040F63423C2F200031B6840F63420FC
:1038A000C2F200004FF000019847BDF8063003F067
:1038B0000203002B0BD040F63423C2F200031B6836
:1038C00040F63420C2F200004FF001019847BDF8E5
:1038D000063003F00403002B0BD040F63423C2F271
:1038E00000031B6840F63420C2F200004FF00201D2
:1038F0009847FCF7E5FC03B000BD00BFAFF30080C4
:103900004FF42053C4F200039B889BB203F02003C2
:10391000002BF5D04FF42053C4F200034FF4205293
:10392000C4F20002928892B242F0100292B29A80DF
:103930004FF42053C4F200034FF000021A814FF4F9
:103940002053C4F200034FF223429A814FF42053D4
:10395000C4F200034FF42052C4F20002928892B2E3
:1039600022F0100292B29A80704700BFAFF300803D
:1039700008B54FF42053C4F200034FF42052C4F2B0
:103980000002928892B222F0080292B29A804FF41A
:103990002053C4F200039B889BB203F00803002B62
:1039A000F5D04FF42053C4F200039B889BB203F080
:1039B0002003002BF5D04FF42053C4F200034FF046
:1039C00000021A8040F63423C2F200034FF00002D6
:1039D0001A604FF003004FF0F001FCF7F9FC08BD4E
:1039E00084B0019000914FF42053C4F200039B88EF
:1039F0009BB203F00803002BF5D04FF42053C4F220
:103A000000031B8B9BB24FEA03424FF42053C4F2D6
:103A100000039B8B9BB21A44009B1A604FF4205307
:103A2000C4F200031B8A9BB24FEA03424FF42053B7
:103A3000C4F200039B8A9BB213440393009B1A6851
:103A40004FF42053C4F200031B8B9BB24FEA034197
:103A50004FF42053C4F200039B8B9BB20B449A4259
:103A6000CBD1039A4FF61843CFF6FF7303FB02F254
:103A70004AF6B803C0F2B93313444DF68362C4F278
:103A80001B32A2FB03134FEA93339BB21A46009BEF
:103A90005A6004B0704700BFAFF30080AFF30080FE
:103AA00082B001900091009B002B22D0019B009AD4
:103AB0001A604FF42053C4F200039B889BB203F0BA
:103AC0002003002BF5D04FF42053C4F200034FF431
:103AD0002052C4F20002928892B222F0070292B2FF
:103AE0009A804FF42053C4F200034FF007021A806B
:103AF00014E04FF42053C4F200039B889BB203F000
:103B00002003002BF5D04FF42053C4F200034FF0F4
:103B100000021A80019B4FF000021A6002B0704749
:103B200000B585B001900091009B03F00803002BC5
:103B300001D0FCF76DFB019B5B6A1B68019A526A1E
:103B40001268126822F00F021A60019B5B6A5B68C0
:103B5000019A526A127A4FF00F0101FA02F21A60CA
:103B6000019B1B6A1B68019A126A1268126822F094
:103B70000F021A60019B1B6A5B68019A126A127A33
:103B80004FF00F0101FA02F21A60019B5B681B689B
:103B9000002B11D0019B4FF004021A70019B5B684F
:103BA0001B6801989847019B1B78042B08D1019B47
:103BB0004FF002021A7003E0019B4FF002021A70EC
:103BC0004FF0200383F31188019B9B68002B0DD0DD
:103BD000019B9B680393019B4FF000029A60039B3B
:103BE0004FF000025A620398FCF782FE4FF0000388
:103BF00083F3118805B000BDAFF30080AFF3008000
:103C000000B583B001900091009B03F00803002BE6
:103C100001D0FCF7FDFA03B000BD00BFAFF3008098
:103C200008B540F69823C2F200034FF6FF721A80DF
:103C300040F63820C2F20000FEF732FF40F638238B
:103C4000C2F200034FF44052C4F20102DA6140F6BE
:103C50003823C2F20003204A1A6240F63823C2F227
:103C600000031E4A5A6240F63823C2F2000341F2B2
:103C70000A029A6240F63823C2F2000341F21802A7
:103C8000DA6240F66820C2F20000FEF709FF40F653
:103C90006823C2F200034FF46052C4F20002DA61FA
:103CA00040F66823C2F200030D4A1A6240F6682308
:103CB000C2F200030B4A5A6240F66823C2F20003C4
:103CC00041F20A029A6240F66823C2F2000341F20E
:103CD0001802DA6208BD00BFBC780008C878000886
:103CE000D4780008E0780008AFF30080AFF30080DC
:103CF00000B585B00190019B1B78012B75D1019A0D
:103D000040F63823C2F200039A422BD1019B1A6A73
:103D100043F62133C0F6000310464FF00A011A465D
:103D2000019BFFF7F5F903468DF80F30019B5A6AA6
:103D300043F60143C0F6000310464FF00A011A464D
:103D4000019BFFF7E5F903468DF80F304FF48053E0
:103D5000C4F202034FF48052C4F20202926942F4A8
:103D600080529A61019A40F66823C2F200039A4297
:103D70002BD1019B1A6A43F62133C0F6000310468B
:103D80004FF00A011A46019BFFF7C2F903468DF86E
:103D90000E30019B5A6A43F60143C0F600031046F9
:103DA0004FF00A011A46019BFFF7B2F903468DF85E
:103DB0000E304FF48053C4F202034FF48052C4F229
:103DC0000202D26942F48042DA61019B1B6A1B68DD
:103DD000019AD26902F10C029A60019B5B6A1B682E
:103DE000019AD26902F10C029A60019B5B685B89BF
:103DF00003F40063002B0CD1019B9B6A23F47062D7
:103E0000019B9A62019BDB6A23F47062019BDA6278
:103E10000FE0019B9B6A23F4706343F4A062019B53
:103E20009A62019BDB6A23F4706343F4A062019BF6
:103E3000DA62019BDB694FF000021A80019BDB69AB
:103E4000019A5268528942F4417292B21A80019BDF
:103E5000DB694FF007029A80019BDB69019AD26906
:103E6000128892B242F0400292B21A8005B000BDB0
:103E700000B583B00190019B1B78022B39D1019BC7
:103E8000DB694FF000021A80019BDB694FF00002F2
:103E90009A80019B1B6A1846FFF7BAF9019B5B6A7F
:103EA0001846FFF7B5F9019A40F63823C2F200032D
:103EB0009A420BD14FF48053C4F202034FF4805264
:103EC000C4F20202926922F480529A61019A40F689
:103ED0006823C2F200039A420BD14FF48053C4F21C
:103EE00002034FF48052C4F20202D26922F48042EB
:103EF000DA6103B000BD00BFAFF30080AFF3008014
:103F000082B00190019B5B685B68019A52681289DC
:103F10004FF0010101FA02F25A6102B0704700BF8E
:103F200082B00190019B5B685B68019A52681289BC
:103F30004FF0010101FA02F21A6102B0704700BFAE
:103F400082B001900091019B1B6A1A6840F69A2387
:103F5000C2F20003D360019B1B6A1B68009A5A607F
:103F6000019B1B6A1B68019A926A1A60019B5B6A3B
:103F70001A6840F69823C2F20003D360019B5B6A83
:103F80001B68009A5A60019B5B6A1B68019AD26A9F
:103F90001A60019B1B6A1B68019A126A12681268F8
:103FA00042F001021A60019B5B6A1B68019A526A27
:103FB0001268126842F001021A6002B0704700BF36
:103FC00084B0039002910192039B1B6A1A6840F629
:103FD0009A23C2F20003D360039B1B6A1B68029AF8
:103FE0005A60039B1B6A1B68039A926A1A60039BC0
:103FF0005B6A1B68019ADA60039B5B6A1B68029A22
:104000005A60039B5B6A1B68039AD26A42F0800283
:104010001A60039B1B6A1B68039A126A1268126873
:1040200042F001021A60039B5B6A1B68039A526AA2
:104030001268126842F001021A6004B0704700BFB3
:1040400084B0039002910192039B1B6A1B68019A42
:10405000DA60039B1B6A1B68029A5A60039B1B6A07
:104060001B68039A926A42F080021A60039B5B6AA3
:104070001A6840F69823C2F20003D360039B5B6A80
:104080001B68029A5A60039B5B6A1B68039AD26A98
:104090001A60039B1B6A1B68039A126A12681268F3
:1040A00042F001021A60039B5B6A1B68039A526A22
:1040B0001268126842F001021A6004B0704700BF33
:1040C00000B585B00190019B1B691B69ADF80E30EE
:1040D000019B1B69DB689AB2BDF80E3002EA03034C
:1040E0009BB203F0FF03ADF80E30019B1B69BDF8D6
:1040F0000E206FEA02021A61BDF80E3003F00203CF
:10410000002B04D0019B5B681B6901989847BDF8A0
:104110000E3003F00403002B04D0019B5B689B6905
:1041200001989847BDF80E3003F00803002B04D027
:10413000019B5B681B6A01989847BDF80E3003F03D
:104140001003002B04D0019B5B689B6A0198984781
:10415000BDF80E3003F00103DBB2002B04D0019B4D
:104160005B689B680198984705B000BDAFF300807D
:1041700008B54FF43053C4F201036FF001021A6125
:1041800040F69C23C2F200035B689B6840F69C20CB
:10419000C2F200009847FCF793F808BDAFF3008027
:1041A00000B583B04FF43053C4F201031B699AB2D7
:1041B0004FF43053C4F20103DB689BB202EA0303FD
:1041C0009BB203F0FF03ADF806304FF43053C4F256
:1041D0000103BDF806206FEA02021A61BDF806303D
:1041E00003F00203002B0AD040F69C23C2F2000326
:1041F0005B681B6940F69C20C2F200009847BDF83E
:10420000063003F00403002B0AD040F69C23C2F2D0
:1042100000035B689B6940F69C20C2F2000098474F
:10422000BDF8063003F00803002B0AD040F69C23AB
:10423000C2F200035B681B6A40F69C20C2F20000D9
:104240009847BDF8063003F01003002B0AD040F663
:104250009C23C2F200035B689B6A40F69C20C2F27A
:1042600000009847FCF72CF803B000BDAFF30080C6
:1042700008B540F6B020C2F20000FFF721FFFCF7BE
:104280001FF808BDAFF30080AFF30080AFF30080EC
:1042900008B540F69C20C2F20000FEF719FA40F67D
:1042A0009C23C2F200034FF43052C4F201021A619F
:1042B00040F6B020C2F20000FEF70AFA40F6B02342
:1042C000C2F200034FF40062C4F200021A6108BD9A
:1042D00000B585B00190019B1B78012B74D1019A28
:1042E00040F69C23C2F200039A4230D14FF480532F
:1042F000C4F202034FF48052C4F20202926942F403
:1043000000629A614FF48053C4F202034FF480526A
:10431000C4F20202D26842F40062DA604FF48053C1
:10432000C4F202034FF00002DA604FF019004FF0C0
:104330007001FCF74DF84FF01B004FF07001FCF7D7
:1043400047F8019A4FF45853C0F26E13D360019AA4
:1043500040F6B023C2F200039A422AD14FF48053B0
:10436000C4F202034FF48052C4F20202D26942F056
:104370000402DA614FF48053C4F202034FF4805216
:10438000C4F20202126942F004021A614FF480532F
:10439000C4F202034FF000021A614FF01E004FF00A
:1043A0007001FCF715F8019A4FF45853C0F26E13E0
:1043B000D360019B1B6946F668029A61019B1B69E9
:1043C00046F66802DA612AE0019B1B694FF00002A1
:1043D0001A60019B1B69019A5268126B22F0FF025E
:1043E000DA60019B1B694FF000021A61019B1B6997
:1043F0004FF000025A63019B1B694FF000029A6361
:10440000019B1B694FF00002DA63019B1B694FF0AF
:1044100000021A64019B1B694FF000025A62019B63
:10442000DA68019B5B681B68B2FBF3F303F1FF33AF
:104430000293029A4FF6FF739A420BD8029B03F144
:104440000103019A5268126802FB03F2019BDB68C8
:104450009A4200BF019B1B69029A92B29A62019B29
:104460001B69019A128902F1FF3292B2DA62019B52
:104470001B69019A5268D26A5A604FF00003ADF886
:104480000E30019B5B68DB6803F00F03012B07D044
:10449000022B0BD1BDF80E3043F00203ADF80E3005
:1044A000BDF80E3043F00103ADF80E30019B5B68A0
:1044B0005B6903F00F03012B07D0022B0BD1BDF872
:1044C0000E3043F02003ADF80E30BDF80E3043F04F
:1044D0001003ADF80E30019B5B68DB6903F00F033E
:1044E000012B07D0022B0BD1BDF80E3043F4007323
:1044F000ADF80E30BDF80E3043F48073ADF80E30D9
:10450000019B5B685B6A03F00F03012B07D0022B52
:104510000BD1BDF80E3043F40053ADF80E30BDF8AA
:104520000E3043F48053ADF80E30019B1B69BDF88B
:104530000E201A62019B1B694FF001025A61019B18
:104540001B69019A1269D168019A52689268002A1F
:104550000CBF0022012241EA0202DA60019B1B69C2
:104560004FF000021A61019B1B694FF400425A642C
:10457000019B1B694FF085021A6005B000BD00BFAA
:1045800000B583B00190019B1B78022B45D1019BA4
:104590001B694FF000021A60019B1B694FF000027B
:1045A000DA60019B1B694FF000021A61019B1B69D5
:1045B0004FF000025A64019A40F69C23C2F20003B5
:1045C0009A4213D14FF01900FBF75AFF4FF01B002E
:1045D000FBF756FF4FF48053C4F202034FF48052AE
:1045E000C4F20202926922F400629A61019A40F6D2
:1045F000B023C2F200039A420FD14FF01E00FBF726
:104600003FFF4FF48053C4F202034FF48052C4F2D0
:104610000202D26922F00402DA6103B000BD00BFD9
:1046200084B0019013460A468DF80320ADF800309F
:10463000019B19699DF80330BDF8002003F10C03BC
:104640004FEA83030B445A60019B5A689DF803307C
:1046500003F101034FEAC30313449B68002B27D0E7
:10466000019B1B69DB6803939DF803304FF0020246
:1046700002FA03F31A46039B02EA0303002B17D145
:10468000019B1B699DF803204FF0020101FA02F221
:104690001146039A41EA0202DA60019B1B699DF808
:1046A00003204FF0020101FA02F26FEA02021A61DE
:1046B00004B07047AFF30080AFF30080AFF3008029
:1046C00082B001900B468DF80330019B1A699DF86A
:1046D000033003F10C034FEA830313444FF000024D
:1046E0005A60019B1B69019A1269D1689DF80320E9
:1046F0004FF0020000FA02F26FEA020201EA02023F
:10470000DA6002B0704700BFAFF30080AFF3008003
:1047100000B585B001900B46ADF802304FF00003B4
:104720000393BDF8023003F00803002B03D0039B72
:1047300043F080030393BDF8023003F00103DBB2C2
:10474000002B03D0039B43F020030393BDF80230FA
:1047500003F00203002B03D0039B43F040030393B9
:10476000BDF8023003F00403002B03D0039B43F495
:1047700080730393019B03F1040318460399FCF72C
:104780007FFC05B000BD00BFAFF30080AFF3008039
:1047900000B587B00190019B5B6F0493049B9B89DC
:1047A000ADF80E30049B1B88ADF81630BDF81630FE
:1047B00003F48073002B13D04FF0200383F3118890
:1047C000019B03F1040318464FF40071FCF758FCF9
:1047D0004FF0000383F31188049B4FF6FF621A80A9
:1047E0004FF0200383F3118817E0BDF8163003F073
:1047F0000F03002B05D0BDF8163001981946FFF7BE
:1048000087FF049B9B889BB2DBB201981946FEF799
:104810000FF9049B1B88ADF81630BDF8163003F075
:104820002003002BE1D14FF0000383F31188BDF882
:104830000E3003F08003002B30D0BDF8163003F0AB
:104840008003002B2AD04FF0200383F31188019BB3
:1048500003F130031846FCF71BFF03460293029B4B
:10486000002B13DA019B03F1040318464FF00801F3
:10487000FCF706FCBDF80E3023F0C0039BB243F0FA
:1048800040039BB29AB2049B9A8103E0029B9AB2C6
:10489000049B9A804FF0000383F31188BDF8163013
:1048A00003F04003002B1AD04FF0200383F311884C
:1048B000019B03F1040318464FF01001FCF7E0FBE5
:1048C0004FF0000383F31188BDF80E3023F0C003CE
:1048D0009AB2049B9A81049B4FF6BF721A8007B06C
:1048E00000BD00BFAFF30080AFF30080AFF30080E6
:1048F00082B001904FF48843C4F200034FF4884221
:10490000C4F20002928992B242F0800292B29A817D
:1049100002B07047AFF30080AFF30080AFF30080C8
:1049200008B540F6C420C2F20000FFF731FFFBF7E4
:10493000C7FC08BDAFF30080AFF30080AFF3008089
:1049400008B540F6C420C2F200004FF0000144F662
:10495000F102C0F60002FEF733F840F6C423C2F2BB
:1049600000034FF48842C4F200025A6708BD00BF3A
:1049700008B5FEF75DFD08BDAFF30080AFF3008022
:10498000704700BFAFF30080AFF30080AFF300804B
:1049900084B003468DF807304FF46053C4F200032F
:1049A0001B889BB203939DF80730002B04D1039B17
:1049B00043F03803039305E0039B23F0380343F0EF
:1049C000080303934FF46053C4F20003039A92B2B6
:1049D0001A8004B0704700BFAFF30080AFF30080CF
:1049E000704700BFAFF30080AFF30080AFF30080EB
:1049F000704700BFAFF30080AFF30080AFF30080DB
:104A000082B003468DF8073002B07047AFF30080E4
:104A100000B583B003468DF807309DF807309BB290
:104A20004FF46050C4F20000194601F0F1FE00BFDF
:104A30004FF46050C4F200004FF0010101F020FF7C
:104A40000346002BF4D04FF46050C4F2000001F094
:104A5000EFFE0346DBB2184603B000BDAFF30080A3
:104A600008B54FF0FF00FFF7D3FF0346184608BD17
:104A700000B583B040F64033C2F200034FF032027B
:104A80001A60FFF7EDFFFFF7EBFF03468DF80730E5
:104A90009DF80730FF2B06D040F64033C2F20003EA
:104AA0001B68002BEFD19DF80730184603B000BDFE
:104AB00008B54FF44060C4F201004FF4805101F09A
:104AC000E7FFFFF7CDFF08BDAFF30080AFF3008035
:104AD00000B589B04FF008004FF0010101F0F8FF78
:104AE0004FF480404FF0010102F01AF84FF001003E
:104AF000FFF786FFFFF77CFFFFF772FF4FF0000321
:104B0000009304E000BF009B03F101030093009AAF
:104B100047F22F539A42F5DD4FF48053ADF8083039
:104B20004FF010038DF80B304FF003038DF80A306F
:104B300002AB4FF44060C4F20100194601F0C8FE18
:104B40004FF44060C4F201004FF4805101F0A0FF27
:104B50004FF42043ADF808304FF003038DF80A30CE
:104B60004FF018038DF80B3002AB4FF44060C4F2E5
:104B70000100194601F0ACFE4FF48043ADF8083057
:104B80004FF048038DF80B3002AB4FF44060C4F295
:104B90000100194601F09CFE4FF00003ADF80C3007
:104BA0004FF48273ADF80E304FF00003ADF81030C3
:104BB0004FF00003ADF812304FF00003ADF81430A1
:104BC0004FF40073ADF816304FF03803ADF81830DD
:104BD0004FF00003ADF81A304FF00703ADF81C306A
:104BE00003AB4FF46050C4F20000194601F0A0FD81
:104BF0004FF46050C4F200004FF0000101F020FEBD
:104C00004FF46050C4F200004FF0010101F0E0FDEC
:104C100000BF4FF46050C4F200004FF0020101F0F9
:104C20002FFE0346002BF4D04FF46050C4F2000076
:104C300001F0FEFD0346DBB28DF8073009B000BD80
:104C400000B583B040F60003C2F200031B78DBB26C
:104C500003F00103002B0BD14FF44060C4F20100BC
:104C60004FF4805101F024FFFFF702FFFFF720FF10
:104C70004FF46050C4F2000001F01AFD4FF4605090
:104C8000C4F200004FF0000101F0A2FD4FF480409B
:104C90004FF0000101F044FF4FF46043ADF80430E1
:104CA0004FF028038DF8073001AB4FF44060C4F299
:104CB0000100194601F00CFE4FF00000FFF7A0FEC6
:104CC00040F60003C2F200031B78DBB243F001039D
:104CD000DAB240F60003C2F200031A7003B000BD5E
:104CE00000B585B00190009140F63C33C2F200035C
:104CF0004FF00A021A60FFF7B3FE03468DF80F303B
:104D00009DF80F30FF2B06D140F63C33C2F2000372
:104D10001B68002BEFD19DF80F30FE2B02D04FF017
:104D200000033CE04FF0FF00FFF772FE03461A4617
:104D3000019B1A70019B03F1010301934FF0FF00E7
:104D4000FFF766FE03461A46019B1A70019B03F1AA
:104D5000010301934FF0FF00FFF75AFE03461A4686
:104D6000019B1A70019B03F1010301934FF0FF00B7
:104D7000FFF74EFE03461A46019B1A70019B03F192
:104D800001030193009BA3F104030093009B002BFC
:104D9000C8D1FFF765FEFFF763FE4FF00103184629
:104DA00005B000BDAFF30080AFF30080AFF300802B
:104DB00000B585B0034600918DF807309DF80730A7
:104DC0005BB2002B15DA9DF8073003F07F038DF8F6
:104DD00007304FF077004FF00001FFF7E9FF03467F
:104DE0008DF80E309DF80E30012B02D99DF80E3053
:104DF0006FE04FF44060C4F201004FF4805101F0C5
:104E000047FE4FF44060C4F201004FF4805101F0BE
:104E10004FFEFFF72DFE0346FF2B02D04FF0FF039E
:104E200057E09DF807301846FFF7F2FD009B4FEA68
:104E30001363DBB21846FFF7EBFD009B4FEA134309
:104E4000DBB21846FFF7E4FD009B4FEA1323DBB209
:104E50001846FFF7DDFD009BDBB21846FFF7D8FDD3
:104E60004FF001038DF80F309DF80730402B03D130
:104E70004FF095038DF80F309DF80730482B03D184
:104E80004FF087038DF80F309DF80F301846FFF76D
:104E9000BFFD9DF807304C2B01D1FFF7E1FD4FF02E
:104EA0000A038DF80F30FFF7DBFD03468DF80E3057
:104EB0009DF80E305BB2002B09DA9DF80F3003F13C
:104EC000FF338DF80F309DF80F30002BEBD19DF89C
:104ED0000E30184605B000BDAFF30080AFF3008080
:104EE00010B584B003468DF807309DF80730002BCD
:104EF00002D04FF0010322E140F60003C2F20003AA
:104F00001B78DBB203F00203002B06D040F600034F
:104F1000C2F200031B78DBB211E1FFF7D9FD4FF0BD
:104F20000000FFF735FD4FF00A038DF80F3007E062
:104F3000FFF796FD9DF80F3003F1FF338DF80F302A
:104F40009DF80F30002BF3D14FF000038DF80D309A
:104F50004FF040004FF00001FFF72AFF0346012BFE
:104F600040F0C58040F63C33C2F200034FF06402CB
:104F70001A604FF048004FF4D571FFF719FF034650
:104F8000012B6CD14FF000038DF80F3010E09DF82D
:104F90000F40FFF765FD03461A4604A901EB040321
:104FA00003F8082C9DF80F3003F101038DF80F3042
:104FB0009DF80F30032BEAD99DF80A30012B40F001
:104FC0008F809DF80B30AA2B40F08C8000BF40F6FC
:104FD0003C33C2F200031B68002B08D04FF0E900FD
:104FE0004FF08041FFF7E4FE0346002BEFD140F67F
:104FF0003C33C2F200031B68002B75D04FF07A00DF
:105000004FF00001FFF7D4FE0346002B6ED14FF0A6
:1050100000038DF80F3010E09DF80F40FFF720FDE2
:1050200003461A4604A901EB040303F8082C9DF873
:105030000F3003F101038DF80F309DF80F30032B73
:10504000EAD99DF8083003F04003002B02D04FF05E
:105050000C0301E04FF004038DF80D3047E04FF0F2
:10506000E9004FF00001FFF7A3FE0346012B08D82B
:105070004FF002038DF80D304FF0E9038DF80E303C
:1050800008E04FF001038DF80D304FF041038DF82B
:105090000E3000BF40F63C33C2F200031B68002B09
:1050A00009D09DF80E3018464FF00001FFF780FE42
:1050B0000346002BEED140F63C33C2F200031B68DE
:1050C000002B08D04FF050004FF40071FFF770FE36
:1050D0000346002B0BD04FF000038DF80D3006E097
:1050E00000BF04E000BF02E000BF00E000BF40F6E8
:1050F0004433C2F200039DF80D201A70FFF7D8FC6C
:105100009DF80D30002B12D040F60003C2F20003D0
:105110001B78DBB223F00103DAB240F60003C2F2DF
:1051200000031A704FF00100FFF732FC01E0FFF7B7
:1051300087FD40F60003C2F200031B78DBB218467D
:1051400004B010BDAFF30080AFF30080AFF3008078
:1051500082B003468DF807309DF80730002B02D04F
:105160004FF0010305E040F60003C2F200031B7894
:10517000DBB2184602B07047AFF30080AFF3008097
:1051800000B585B00291019202468DF80F208DF88E
:1051900003309DF80F30002B03D19DF80330002B16
:1051A00002D14FF0040366E040F60003C2F20003B0
:1051B0001B78DBB203F00103DBB2002B02D04FF00F
:1051C000030358E040F64433C2F200031B7803F0B7
:1051D0000803002B03D1019B4FEA432301939DF861
:1051E0000330012B14D14FF051000199FFF7E0FD7E
:1051F0000346002B33D102984FF40071FFF770FD86
:105200000346002B2DD04FF000038DF8033029E02A
:105210004FF052000199FFF7CBFD0346002B21D13F
:1052200002984FF40071FFF75BFD0346002B0ED090
:10523000029B03F5007302939DF8033003F1FF33E3
:105240008DF803309DF80330002BE9D100E000BF5A
:105250004FF04C004FF00001FFF7AAFD02E000BF45
:1052600000E000BFFFF724FC9DF80330002B0CBFCB
:1052700000230123DBB2184605B000BDAFF3008068
:1052800086B0039002910192039B0593029B0493C5
:105290000BE0049B1A78059B1A70059B03F1010330
:1052A0000593049B03F101030493019B002B0CBFA6
:1052B00000230123DBB2019A02F1FF320192002B9D
:1052C000E7D106B0704700BFAFF30080AFF30080B6
:1052D00086B0039002910192039B059307E0029B25
:1052E000DAB2059B1A70059B03F101030593019B3C
:1052F000002B0CBF00230123DBB2019A02F1FF3225
:105300000192002BEBD106B0704700BFAFF30080D5
:1053100088B0039002910192039B0793029B06932E
:105320004FF00003059300BF019B002B0CBF00232F
:105330000123DBB2019A02F1FF320192002B17D058
:10534000079B1B781A46069B1B78C3EB0203059349
:10535000059B002B14BF00230123DBB2079A02F147
:1053600001020792069A02F101020692002BDBD19C
:10537000059B184608B07047AFF30080AFF300807C
:1053800082B00190009103E0019B03F101030193BE
:10539000019B1B78002B05D0019B1B781A46009BB4
:1053A0009A42F1D1019B1B78184602B0704700BFAA
:1053B00000B585B001900091019B1B6A0393039A8D
:1053C000009B9A4217D0009B002B14D0019B5A7867
:1053D000019B03F1240310461946009A4FF0010384
:1053E000FFF7CEFE0346002B02D04FF0010304E08E
:1053F000019B009A1A624FF00003184605B000BDE9
:1054000082B001900091009BA3F102030093019BE5
:10541000DB68A3F10202009B9A4202D84FF000031E
:1054200007E0019B9B78009A02FB03F2019BDB697A
:105430001344184602B07047AFF30080AFF300800A
:1054400000B587B001900091009B012B04D9019B0E
:10545000DA68009B9A4202D84FF00103BEE0019B3C
:105460001B78022B54D0032B79D0012B40F0B48051
:10547000009B0593059B4FEA5303059A134405933C
:10548000019B5A69059B4FEA53231344019819461F
:10549000FFF78EFF0346002B40F09780059B4FEAF5
:1054A000C3534FEAD353019A134493F8243004931F
:1054B000059B03F101030593019B5A69059B4FEA84
:1054C0005323134401981946FFF772FF0346002B3C
:1054D0007DD1059B4FEAC3534FEAD353019A13443E
:1054E00093F824304FEA0323049A42EA0303049317
:1054F000009B03F00103DBB2002B03D0049B4FEAB7
:10550000131304E0049B4FEA03534FEA135365E07F
:10551000019B5A69009B4FEA1323134401981946D3
:10552000FFF746FF0346002B53D1019B03F12402F2
:10553000009B4FEA43034FEAC3534FEAD35313444C
:105540000393039B03F101031B784FEA03239AB2F1
:10555000039B1B7842EA03039BB29BB23EE0019B94
:105560005A69009B4FEAD313134401981946FFF779
:105570001FFF0346002B2ED1019B03F12402009B49
:105580004FEA83034FEAC3534FEAD35313440393C1
:10559000039B03F103031B784FEA0362039B03F1B0
:1055A00002031B784FEA034342EA0302039B03F121
:1055B00001031B784FEA032342EA0302039B1B7893
:1055C00042EA030323F0704308E000BF04E000BF99
:1055D00002E000BF00E000BF4FF0FF33184607B005
:1055E00000BD00BFAFF30080AFF30080AFF30080D9
:1055F00000B585B001900B46ADF80230019BBDF8B7
:105600000220DA80019B9B680393039B012B05D04A
:10561000019B1B68DA68039B9A4202D84FF0020391
:1056200079E0039B002B08D1019B1B681B78032B9F
:1056300003D1019B1B689B690393039B002B18D12B
:10564000019B039ADA60019B1B681B89BDF802204D
:105650009A4202D34FF002035DE0019B1B689A69F6
:10566000BDF802304FEA13139BB21A44019B1A6132
:1056700042E0019B1B689B784FEA0313ADF80A30A8
:1056800022E0019B1B6818460399FFF7D9FE0346E9
:105690000393039BB3F1FF3F02D14FF001033AE0C4
:1056A000039B012B05D9019B1B68DA68039B9A4277
:1056B00002D84FF002032EE0BDF80220BDF80A30F8
:1056C000C3EB0203ADF80230BDF80220BDF80A308A
:1056D0009A42D6D2019B039ADA60019B1B68184656
:1056E0000399FFF78DFE0246BDF802304FEA13130F
:1056F0009BB21A44019B1A61019B1B6803F12402AF
:10570000BDF8023003F00F034FEA43131A44019B24
:105710005A614FF00003184605B000BDAFF300809A
:1057200000B585B001900091019BDB8803F1010376
:10573000ADF80E30BDF80E30002B03D0019B1B6975
:10574000002B02D14FF004036AE0BDF80E3003F0E5
:105750000F039BB2002B50D1019B1B6903F1010287
:10576000019B1A61019BDB68002B09D1019B1B681F
:105770001B89BDF80E209A423ED34FF004034FE040
:10578000BDF80E304FEA13139BB21A46019B1B68FB
:105790009B7803F1FF3302EA0303002B2DD1019B19
:1057A0001A68019BDB6810461946FFF749FE03465D
:1057B0000293029B012B02D84FF0020330E0029BC0
:1057C000B3F1FF3F02D14FF0010329E0019B1B68B9
:1057D000DA68029B9A4202D84FF0040320E0019B52
:1057E000029ADA60019B1B6818460299FFF708FECF
:1057F0000246019B1A6100E000BF019BBDF80E202C
:10580000DA80019B1B6803F12402BDF80E3003F01F
:105810000F034FEA43131A44019B5A614FF00003F0
:10582000184605B000BD00BFAFF30080AFF30080A5
:1058300000B587B0019001984FF00001FFF7D8FE46
:1058400003468DF817309DF81730002B02D09DF8D5
:10585000173043E0019B1A68019B1B6910461946EB
:10586000FFF7A6FD03468DF817309DF81730002B83
:105870002FD1019B5B690493049B1B788DF80F303B
:105880009DF80F30002B04D14FF004038DF8173032
:1058900022E0049B03F10B031B7803F00803002BA9
:1058A0000AD1019B9B69049819464FF00B02FFF740
:1058B0002FFD0346002B0ED001984FF00001FFF79B
:1058C0002FFF03468DF817309DF81730002BC1D0FD
:1058D00002E000BF00E000BF9DF81730184607B097
:1058E00000BD00BFAFF30080AFF30080AFF30080D6
:1058F00000B589B001900091009B1B68039303E001
:10590000039B03F101030393039B1B782F2BF7D019
:10591000039B1B785C2BF3D0019B9B69029302983D
:105920004FF020014FF00B02FFF7D2FC4FF00003C5
:105930008DF81F304FF000030493049B05934FF044
:1059400008030693039A059B13441B788DF81E30B9
:10595000059B03F1010305939DF81E30202B7AD996
:105960009DF81E302F2B76D09DF81E305C2B72D008
:105970009DF81E302E2B03D0049A069B9A4217D313
:10598000069B082B03D19DF81E302E2B02D04FF022
:105990000603A7E04FF0080304934FF00B030693B0
:1059A0009DF81F304FEA83038DF81F3000BFC9E711
:1059B0009DF81E305BB2002B10DA9DF81F3043F0CB
:1059C00003038DF81F309DF81E30A3F1800247F6C7
:1059D0007013C0F600039B5C8DF81E309DF81E30DE
:1059E00047F2F060C0F600001946FFF7C9FC034615
:1059F000002B02D04FF0060374E09DF81E30402BC0
:105A00000AD99DF81E305A2B06D89DF81F3043F056
:105A100002038DF81F3013E09DF81E30602B0FD964
:105A20009DF81E307A2B0BD89DF81F3043F00103F0
:105A30008DF81F309DF81E30A3F120038DF81E3025
:105A4000029A049B13449DF81E201A70049B03F1D4
:105A50000103049376E7039A059B1A44009B1A609E
:105A60009DF81E30202B02D84FF0040301E04FF0C8
:105A700000038DF81E30049B002B02D14FF006036B
:105A800030E0029B1B78E52B03D1029B4FF005020F
:105A90001A70069B082B05D19DF81F304FEA83032F
:105AA0008DF81F309DF81F3003F00303012B05D143
:105AB0009DF81E3043F010038DF81E309DF81F3006
:105AC00003F00C03042B05D19DF81E3043F00803AE
:105AD0008DF81E30029B03F10B039DF81E201A70F7
