:020000040800F2
:100000000004002031090008210A0008210A000824
:10001000210A0008210A0008210A0008210A000814
:10002000210A0008210A0008210A0008710A0008B4
:10003000210A0008210A0008210A0008410A0008D4
:10004000210A0008210A0008210A0008314C000892
:10005000210A0008210A0008210A0008210A0008D4
:10006000210A0008210A0008210A0008A14300080B
:100070000144000861440008C1440008214500080B
:1000800081450008E1450008210A0008B15900082F
:10009000C1590008210A0008210A0008210A0008A5
:1000A000210A0008210A0008210A0008210A000884
:1000B000210A0008210A0008210A0008210A000874
:1000C000210A0008210A0008210A0008210A000864
:1000D000210A0008210A0008C1550008210A000869
:0C00E000210A0008210A0008210A00087B
:1000F00008B5002200F0C4F808BD00BF00000000F1
:100100002DE9F04F85B0054600F09AFA40F2B17340
:100110009D42074640F39680A5F5F66248F21F51CE
:1001200002F14300C5F2EB1102F5B673541E81FBD8
:10013000006C033381FB0568C61781FB0301A6EB46
:100140006C1CE8170CEBA40CC0EB6819023AC0EB6E
:10015000E81840F26D10DB1742F2934B00FB02C22D
:100160004FF4C8704FF4A34AC3EBE11300FB1858D7
:1001700064213C460026C9F2492BC0F2010AD3187B
:100180007D6001FB19590193B8F1000F0CBF3021BC
:10019000002105F0030303910293237A4A2B53D0E5
:1001A000442B65D00298002847D0039DD4F80CC09A
:1001B00048F68001C0F600014D19BCF1010F5BDD6E
:1001C000019A2946012351F8040B013312186345A3
:1001D000F9D1013B9B00111DEB588BFB01C04FEA8D
:1001E000E17C4018CCEBA0004FEAC00CC0EB0C0047
:1001F000081A6169081A216948BF0730013900EB04
:10020000C100411A994202DB07399942FCDA891888
:10021000226A0136A369D318022E0AFB013144F881
:100220001C1FBAD1FA690120BB6B9A42ACBF0023F4
:1002300001233B6005B0BDE8F08FB9F1000FB4D0E9
:100240003025B3E70020F5E76369DDF804C00298C4
:100250000CEB030238B9B9F1000F04D03B2BD4BF2B
:1002600000210121D3E7B8F1000FF7D00021CEE73C
:100270006169019B5918CBE7019A0023ABE700BFE6
:100280002DE9F84F05460C46164600F0D9F92A68C4
:100290004FF4A341C0F201014FEAE27C834644F2ED
:1002A0000750CCF22E2080FB02739B18CCEB23432B
:1002B00001FB1322002A05DA02F5A832013B12F5F0
:1002C000C072F9D445F27F11C0F201018A4206DD05
:1002D000A2F5A8320133A2F5C0728A42F8DC4BF2D3
:1002E000C5374FEAE27AC9F2A21742F29341181DCC
:1002F000C9F2492187FB028748F6890C81FB0091EE
:10030000BF18C8F6880C4FEAE078CAEBE7274FF42D
:10031000616A0918A7600AFB1722C8EBA1014FEA1E
:10032000C108C1EB0801411AA1618CFB027CD717FF
:1003300000299444C7EB6C1060604FEA801C02EB0C
:100340008002CCEB02022260C0F2A080002B71DBA5
:1003500048F21F50DFF8D0C240F2B277C5F2EB107E
:100360004FF4C87A4FF0640901E001379B1A80FB13
:100370000728FA1717F0030F07D1C2EB68180121FD
:1003800009FB1878B8F1000F09D180FB0781C2EB97
:10039000E1110AFB1171D1F1010138BF00210CEB11
:1003A0008102126E9342E0DA4800A7F5EC62411830
:1003B0000C3AE36109016261002222615CF80120CC
:1003C0000CEB0108934208DB4046012121619B1A96
:1003D00050F8042F01319A42F8DD0133E36026B171
:1003E000002323622046BDE8F88F00F021F98F4BEF
:1003F0001B68002B4DD0DBF80430BB4205D03846DB
:10040000FFF77EFE002800F0DE80DBF80030002BD6
:1004100000F0C6802B68DBF81C209342C0F2E0801D
:10042000DBF83820934280F2DB800123DBF83C10BC
:10043000236231E048F21F50DFF8ECC140F2B2779E
:10044000C5F2EB104FF4C87A4FF06409013F17F082
:10045000030F80FB07284FEAE77207D1C2EB681849
:10046000012109FB1878B8F1000F09D180FB078141
:10047000C2EBE1110AFB1171D1F1010138BF00217A
:100480000CEB8102126E9B18E0D48DE70731A1615D
:100490005CE72662DBF820104BF2C5324FEAE17CC4
:1004A000C9F2A212A76848F68900256882FB019E5E
:1004B0004FF46162C8F6880066688E444FEAEE2EFB
:1004C000CCEB0E03C3EB070CC4F808C002FB1313FC
:1004D00080FB0321DA17C918C2EB6111721A62603E
:1004E000880103EB81031B1AEB1A23603B2B2ADDE7
:1004F00001323C3B626023603B2A47DD0CF1010383
:100500003C3AA3606260172B24DDA269E1690132E5
:10051000A2610131062AE16101DD0022A2612169A7
:10052000A3F11802E368A2600133E36058F82120C8
:10053000934205DD01319B1A0C292161E36046D00D
:1005400000F078F84EE7002BD6DA013A3C336260CF
:100550002360D1E7002BF3DAA269E169013AA261D5
:100560000139002AE1613EDBE2681833A360531EC3
:10057000E360002BE4D12369013B2361002B35DBD1
:1005800058F82330E36000F055F82BE7002AA8BFA5
:100590006346B8DA0CF1FF333C32A3606260B2E725
:1005A0002B68DBF81C209342BFF63FAFDBF8382006
:1005B0009342ACBF002301232362002B3FF46AAFB8
:1005C000DBF83C1068E74FF0FF33236262E76269B3
:1005D000002323610132E361626100F02BF801E73F
:1005E0000023236256E70622A261BDE765690B235B
:1005F0002361013D656115F0030F0BD1284664218D
:1006000000F070F931B1012202F5B6720B2301320C
:10061000E261B5E728464FF4C87100F063F9D1F103
:10062000010238BF0022EFE7808800086808002038
:10063000704700BF704700BF0000000000000000CE
:1006400040F60000C2F20000704700BF000000004A
:10065000002900F03E8180EA010C48BF49424A1E51
:1006600000F01F81031C48BF43428B4240F21E81B1
:10067000114200F02381B3FA83F2B1FA81F0A0EBCA
:100680000202C2F11F0204A000EB02124FF00000B0
:10069000974600BFAFF30080B3EBC17F00BF40EBD4
:1006A000000028BFA3EBC173B3EB817F00BF40EB19
:1006B000000028BFA3EB8173B3EB417F00BF40EB89
:1006C000000028BFA3EB4173B3EB017F00BF40EBF9
:1006D000000028BFA3EB0173B3EBC16F00BF40EB79
:1006E000000028BFA3EBC163B3EB816F00BF40EBF9
:1006F000000028BFA3EB8163B3EB416F00BF40EB69
:10070000000028BFA3EB4163B3EB016F00BF40EBD8
:10071000000028BFA3EB0163B3EBC15F00BF40EB58
:10072000000028BFA3EBC153B3EB815F00BF40EBD8
:10073000000028BFA3EB8153B3EB415F00BF40EB48
:10074000000028BFA3EB4153B3EB015F00BF40EBB8
:10075000000028BFA3EB0153B3EBC14F00BF40EB38
:10076000000028BFA3EBC143B3EB814F00BF40EBB8
:10077000000028BFA3EB8143B3EB414F00BF40EB28
:10078000000028BFA3EB4143B3EB014F00BF40EB98
:10079000000028BFA3EB0143B3EBC13F00BF40EB18
:1007A000000028BFA3EBC133B3EB813F00BF40EB98
:1007B000000028BFA3EB8133B3EB413F00BF40EB08
:1007C000000028BFA3EB4133B3EB013F00BF40EB78
:1007D000000028BFA3EB0133B3EBC12F00BF40EBF8
:1007E000000028BFA3EBC123B3EB812F00BF40EB78
:1007F000000028BFA3EB8123B3EB412F00BF40EBE8
:10080000000028BFA3EB4123B3EB012F00BF40EB57
:10081000000028BFA3EB0123B3EBC11F00BF40EBD7
:10082000000028BFA3EBC113B3EB811F00BF40EB57
:10083000000028BFA3EB8113B3EB411F00BF40EBC7
:10084000000028BFA3EB4113B3EB011F00BF40EB37
:10085000000028BFA3EB0113B3EBC10F00BF40EBB7
:10086000000028BFA3EBC103B3EB810F00BF40EB37
:10087000000028BFA3EB8103B3EB410F00BF40EBA7
:10088000000028BFA3EB4103B3EB010F00BF40EB17
:10089000000028BFA3EB0103BCF1000F48BF40429A
:1008A00070479CEA000F48BF4042704738BF0020A5
:1008B00004BF4FEAEC7040F001007047B1FA81F2DA
:1008C000C2F11F02BCF1000F23FA02F048BF404200
:1008D00070470028C8BF6FF00040B8BF4FF000401D
:1008E00000F00EB80029F4D02DE90340FFF7B3FE65
:1008F000BDE8064002FB00F3A1EB0301704700BF17
:10090000704700BF00000000000000000000000071
:10091000704700BFAFF30080AFF30080AFF30080FB
:10092000FEE700BFAFF30080AFF30080AFF30080BD
:1009300072B640F60004C2F2000484F309884FF056
:10094000020484F31488BFF36F8F40F20004C2F2F4
:10095000000440F20045C2F2000504E04FF05533B8
:10096000236004F10404AC42F8D340F20044C2F224
:10097000000440F60005C2F2000504E04FF05533D4
:10098000236004F10404AC42F8D305F079FD48F685
:100990000045C0F6000540F60004C2F2000405E080
:1009A0002B68236004F1040405F1040540F6680394
:1009B000C2F200039C42F3D340F66804C2F2000482
:1009C00040F6DC55C2F2000504E04FF0000323605E
:1009D00004F10404AC42F8D3FFF79AFF40F2EC04B0
:1009E000C0F6000403E02368984704F1040440F2D1
:1009F000EC03C0F600039C42F5D307F051FA40F235
:100A0000EC04C0F6000403E02368984704F10404F2
:100A100040F2EC03C0F600039C42F5D3FFF780FFE1
:100A2000FEE700BFAFF30080AFF30080AFF30080BC
:100A300072B6FEE7AFF30080AFF30080AFF3008043
:100A400008B500F025FB4FF0200383F3118800F078
:100A5000DFFA00F00DFA00F0FBFA4FF0000383F329
:100A6000118800F045FB00F043F808BDAFF30080AB
:100A700010B483B0EFF309840194019B03F12003C8
:100A80000193019B83F309884FF0000383F31188DE
:100A900003B010BC704700BFAFF30080AFF300801D
:100AA00008B54FF46D43CEF200034FF000029A6098
:100AB0004FF46D43CEF200034FF44072C0F2FA528D
:100AC000DA604FF007004FF0100100F031F94FF0FD
:100AD0000A004FF0200100F02BF94FF00B004FF00F
:100AE000800100F025F908BDAFF30080AFF300806E
:100AF00010B483B04FF0200383F311884FF46D439B
:100B0000CEF200035B6803F40063002B49D0EFF3DF
:100B100009840194019BA3F120030193019B83F3BA
:100B20000988019B4FF08072DA6140F69813C2F297
:100B300000039B6993F82330002B11D040F69813E3
:100B4000C2F200031B689A6840F69813C2F20003D1
:100B50009B699B689A4294BF00230123DBB210E09B
:100B600040F69813C2F200031B689A6840F6981387
:100B7000C2F200039B699B689A4234BF00230123A1
:100B8000DBB2002B06D0019A40F6B133C0F6000369
:100B900093610AE0019A40F6BC33C0F6000393610A
:100BA00003E04FF0000383F3118803B010BC7047DB
:100BB00000F0EEF900F00CFE00F00AFA00DF00BFD2
:100BC00003460A462DE9F04FC2F80CD0D3F80CD0FA
:100BD000BDE8F08FAFF30080AFF30080AFF300808B
:100BE00008B500F0F5F94FF0000383F311882846AB
:100BF000A04700F02DFF08BDAFF30080AFF30080E9
:100C000084B001900091019B03F003034FEAC303FA
:100C100003934FF46143CEF20003019A4FEA92002E
:100C20004FF46142CEF2000201994FEA910101F1C5
:100C3000C00152F82110039A4FF0FF0C0CFA02F297
:100C40006FEA020201EA0201039ADDF800C00CFA21
:100C500002F241EA020100F1C00243F822104FF40F
:100C60006143CEF20003019A4FEA5212019901F05A
:100C70001F014FF0010000FA01F102F1600243F898
:100C800022104FF46143CEF20003019A4FEA521250
:100C9000019901F01F014FF0010000FA01F143F842
:100CA000221004B0704700BFAFF30080AFF30080A4
:100CB00084B00190019B03F003034FEAC303039345
:100CC0004FF46143CEF20003019A4FEA52120199A8
:100CD00001F01F014FF0010000FA01F102F12002C2
:100CE00043F822104FF46143CEF20003019A4FEA19
:100CF00092004FF46142CEF2000201994FEA910155
:100D000001F1C00152F82110039A4FF0FF0C0CFAC8
:100D100002F26FEA020201EA020100F1C00243F8A6
:100D2000221004B0704700BFAFF30080AFF3008023
:100D300084B001900091019B03F003034FEAC303C9
:100D400003934FF46D43CEF20003019A4FEA9200F1
:100D50004FF46D42CEF2000201994FEA910101F188
:100D6000060152F82110039A4FF0FF0C0CFA02F220
:100D70006FEA020201EA0201039ADDF800C00CFAF0
:100D800002F241EA020100F1060243F8221004B027
:100D9000704700BFAFF30080AFF30080AFF3008077
:100DA00082B0019040F69813C2F200039A6947F6A8
:100DB000E063C0F600039361FEE700BFAFF300807D
:100DC00000B583B0FFF76CFE00F0EAFA00F000FA1D
:100DD00001F0EEF901F05CFA40F63010C2F20000CA
:100DE0004FF0400100F014FD024640F69813C2F2A5
:100DF00000039A6140F69813C2F200039B694FF01A
:100E0000010283F8202040F69813C2F200039A6989
:100E100040F20043C2F20003D36100F0A1F84FF0AA
:100E2000000383F3118862B640F69813C2F2000300
:100E30009A6948F6F003C0F60003936140F6A153A7
:100E4000C0F600034FF00002009240F67000C2F2BC
:100E500000004FF0C0014FF0010200F099FD03B017
:100E600000BD00BFAFF30080AFF30080AFF30080A0
:100E700000B583B000F06CF940F69813C2F200039D
:100E80009B6993F82330002B0BD040F69813C2F2E5
:100E900000039B6993F8232002F1FF32D2B283F85A
:100EA000232040F69813C2F200039B695A6A02F1AC
:100EB00001025A6240F68813C2F20003DB6803F1B4
:100EC000010240F68813C2F20003DA6040F688138C
:100ED000C2F200031B681A4640F68813C2F20003F0
:100EE0009A4239D040F68813C2F200031B689A6810
:100EF00002F1FF329A6025E0019BDB680093019BC1
:100F00004FF00002DA60019B1A6840F68813C2F2C3
:100F100000035360019B1A6840F68813C2F2000375
:100F20001A6000F095F84FF0000383F31188019BDD
:100F30001A69009B104698474FF0200383F31188ED
:100F400000F066F840F68813C2F200031B680193B4
:100F5000019B9B68002BCFD003B000BDAFF3008096
:100F600008B540F67C13C2F200031B68002B06D1C3
:100F700040F68013C2F200031B68002B05D047F631
:100F80000070C0F6000000F013F908BDAFF3008058
:100F900008B540F67C13C2F200031B68002B06D193
:100FA00040F68013C2F200031B68002B05D047F601
:100FB0000870C0F6000000F0FBF840F68013C2F2A3
:100FC00000034FF001021A6008BD00BFAFF30080BC
:100FD00008B540F67C13C2F200031B68002B06D153
:100FE00040F68013C2F200031B68002B05DC47F6B5
:100FF0001070C0F6000000F0DBF840F68013C2F27B
:1010000000034FF000021A6008BD00BFAFF300807C
:1010100008B540F67C13C2F200031B68002B06DD06
:1010200040F68013C2F200031B68002B05D047F680
:101030001870C0F6000000F0BBF840F68013C2F252
:1010400000034FF001021A6008BD00BFAFF300803B
:1010500008B540F67C13C2F200031B68002B06DDC6
:1010600040F68013C2F200031B68002B05DC47F634
:101070002070C0F6000000F09BF840F68013C2F22A
:1010800000034FF000021A6008BD00BFAFF30080FC
:1010900008B54FF0200383F3118840F67C13C2F2A9
:1010A00000031B68002B06DB40F68013C2F200032E
:1010B0001B68002B05D047F62870C0F6000000F032
:1010C00077F840F67C13C2F200031B6803F10102BB
:1010D00040F67C13C2F200031A604FF0000383F362
:1010E000118808BDAFF30080AFF30080AFF300803C
:1010F00008B54FF0200383F3118840F67C13C2F249
:1011000000031B68002B06DD40F68013C2F20003CB
:101110001B68002B05D047F63070C0F6000000F0C9
:1011200047F840F67C13C2F200031B6803F1FF325C
:1011300040F67C13C2F200031A604FF0000383F301
:10114000118808BDAFF30080AFF30080AFF30080DB
:1011500008B540F67C13C2F200031B68002B06DBC7
:1011600040F68013C2F200031B68002B05DC47F633
:101170003870C0F6000000F01BF808BDAFF3008027
:1011800008B540F67C13C2F200031B68002B06D1A1
:1011900040F68013C2F200031B68002B05DC47F603
:1011A0004070C0F6000000F003F808BDAFF3008007
:1011B00000B583B0019040F68413C2F20003019A97
:1011C0001A60FFF735FC03B000BD00BFAFF300802D
:1011D00040F68812C2F2000240F68813C2F2000301
:1011E0005A6040F68813C2F200035A6840F688132A
:1011F000C2F200031A6040F68813C2F200034FF0F7
:10120000FF329A6040F68813C2F200034FF00002EA
:10121000DA607047AFF30080AFF30080AFF3008077
:1012200000B587B00390029101920093FFF790FF01
:10123000039B002B05D0019B002B02D0029B002BAF
:1012400005D147F65070C0F60000FFF7B1FF039BD1
:10125000009A1A61039B019ADA6040F68813C2F281
:1012600000031B68059308E0059B9B68029AC3EB8B
:1012700002030293059B1B680593059B9A68029BDA
:101280009A42F1D3039B059A1A60039B1B685A6824
:10129000039B5A60039B5B68059A03995160059A0A
:1012A00052681A60039B029A9A60059A40F6881366
:1012B000C2F200039A4206D0059B9A68029BC3EBD8
:1012C0000202059B9A6007B000BD00BFAFF300802B
:1012D00000B583B00190FFF73BFF019B002B05D1C8
:1012E00047F66070C0F60000FFF762FF019BDB6805
:1012F000002B05D147F67070C0F60000FFF758FFCD
:10130000019B1A6840F68813C2F200039A4208D083
:10131000019B1B68019A12689168019A92680A44BD
:101320009A60019B5B68019A12681A60019B1B68B6
:10133000019A52685A60019B4FF00002DA6003B0D4
:1013400000BD00BFAFF30080AFF30080AFF30080BB
:1013500084B00190019B1B680393039B1A68019B57
:101360001A60019B1B68019A5A60039B184604B0DF
:10137000704700BFAFF30080AFF30080AFF3008091
:1013800082B00190019B5B68019A12681A60019B10
:101390001B68019A52685A60019B184602B0704758
:1013A00040F69812C2F2000240F69813C2F200030F
:1013B0005A6040F69813C2F200035A6840F6981338
:1013C000C2F200031A6040F69813C2F200034FF015
:1013D00000029A6040F69812C2F2000240F698139A
:1013E000C2F200035A6140F69813C2F200035A6930
:1013F00040F69813C2F200031A617047AFF3008001
:1014000000B585B00190FFF7A3FE019B93F8203053
:10141000002B04D0019B93F820300E2B05D147F60A
:101420009070C0F60000FFF7C3FE019B4FF0000272
:1014300083F8202040F69813C2F200030393039B25
:101440001B680393039B9A68019B9B689A42F6D2A0
:10145000019B039A1A60039B5A68019B5A60019B87
:101460005B68039A01995160039A52681A60019B64
:10147000184605B000BD00BFAFF30080AFF3008099
:1014800000B585B003468DF80730FFF779FE40F6CA
:101490009813C2F200039B690393039B9DF80720F6
:1014A00083F82020039B4FF0140283F8232040F69A
:1014B0009810C2F20000FFF74BFF024640F6981367
:1014C000C2F200039A6140F69813C2F200039B69CE
:1014D0004FF0010283F820206B46A3F12402039B06
:1014E000DB699A4205D247F6A470C0F60000FFF708
:1014F0005FFE40F69813C2F200039B6918460399F9
:10150000FFF75EFB05B000BDAFF30080AFF30080D6
:1015100000B585B00190019B03934FF0200383F346
:101520001188FFF775FD039B93F820300D2B2FD802
:1015300001A252F823F000BF7115000891150008B0
:10154000911500087F150008911500088B150008FB
:1015500091150008911500089115000891150008D3
:101560009115000891150008911500088B150008C9
:10157000FFF76EFD4FF0000383F3118815E0039B26
:101580009B6A9A6802F101029A600398FFF7F8FEDD
:10159000039B4FF0FF329A620398FFF731FFFFF78A
:1015A00057FD4FF0000383F3118805B000BD00BF65
:1015B00000B589B0034600918DF80730FFF7E0FDD4
:1015C000009BB3F1FF3F1AD040F69813C2F200031C
:1015D0009B6903AA1046009941F21152C0F600021D
:1015E000FFF71EFE9DF807301846FFF749FF069BE0
:1015F000002B0AD003AB1846FFF76AFE06E09DF801
:1016000007301846FFF73CFF00E000BF40F6981394
:10161000C2F200039B699B6A184609B000BD00BF77
:1016200000B585B001900091FFF7AAFD019B009ADB
:101630009A62019B9A6840F69813C2F200039B6974
:101640009B689A4203D80198FFF7DAFE25E040F63E
:101650009813C2F200039B691846FFF7D1FE0346B8
:10166000039340F69813C2F20003019A9A61019B1A
:101670004FF0010283F820206B46A3F12402039B64
:10168000DB699A4205D247F6A470C0F60000FFF766
:101690008FFD01980399FFF793FA05B000BD00BFD5
:1016A00000B583B040F69813C2F200039B69019322
:1016B00040F69810C2F20000FFF74AFE024640F6DC
:1016C0009813C2F200039A6140F69813C2F2000325
:1016D0009B694FF0010283F82020019B4FF0140218
:1016E00083F823200198FFF78BFE6B46A3F12402B9
:1016F000019BDB699A4205D247F6A470C0F6000050
:10170000FFF756FD40F69813C2F200039B69184696
:101710000199FFF755FA03B000BD00BFAFF3008099
:1017200000B583B040F69813C2F200039B690093A2
:1017300040F69810C2F20000FFF70AFE024640F69B
:101740009813C2F200039A6140F69813C2F20003A4
:101750009B694FF0010283F82020009B4FF00002AC
:1017600083F8202040F69813C2F200030193019BF6
:101770001B680193019B9A68009B9B689A42F6D86C
:10178000009B019A1A60019B5A68009B5A60009B5B
:101790005B68019A00995160019A52681A606B4621
:1017A000A3F12402009BDB699A4205D247F6A4709C
:1017B000C0F60000FFF7FCFC40F69813C2F20003ED
:1017C0009B6918460099FFF7FBF903B000BD00BF05
:1017D00008B540F69813C2F200039B6993F82330D2
:1017E000002B02D1FFF75CFF01E0FFF799FF08BD76
:1017F00084B00190019B1B680393039B1A68019BB3
:101800001A60039B184604B0704700BFAFF3008016
:1018100082B001900091019B009A9A60019B4FF069
:10182000020283F82020019B4FF0000283F8212060
:10183000019B4FF0140283F82320019B009A5A6405
:10184000019B4FF000021A64019B4FF00002DA6323
:10185000019B4FF000025A62019B4FF0010283F896
:101860002220019B4FF000029A6140F69813C2F2C9
:101870000003019A136140F69813C2F200035A69FB
:10188000019B5A61019B5A6940F69813C2F200030A
:101890000199596140F69813C2F200035B69136124
:1018A000019B03F12C031A46019BDA62019B03F1B1
:1018B00030031A46019B5A63019B5A6B019B1A63C2
:1018C000019B03F14C02019BDA61019B184602B0B7
:1018D000704700BFAFF30080AFF30080AFF300802C
:1018E00084B00390029113468DF8073007E0039B04
:1018F0009DF807201A70039B03F101030393039AD9
:10190000029B9A42F3D304B0704700BFAFF300804C
:1019100000B587B00390029101920093039B059359
:10192000FFF716FC039B002B08D0029BAF2B05D9B9
:10193000019B7F2B02D8009B002B05D147F6C0707E
:10194000C0F60000FFF734FC039A029BA3F12403C6
:101950001A44059BDA60059BDB68009A1A60059BB8
:10196000DB68089A5A60059BDA6840F6E133C0F6F6
:101970000003136205980199FFF74AFF03461846D2
:1019800007B000BDAFF30080AFF30080AFF300807D
:1019900000B589B00590049103920293059A059BC6
:1019A00003F14C03104619464FF0FF02FFF798FF72
:1019B000059B03F14C020599049B0B441046194604
:1019C0004FF05502FFF78CFF4FF0200383F311888F
:1019D000FFF7DEFA0A9B009305980499039A029B8D
:1019E000FFF796FF0346079307984FF00001FFF7B4
:1019F00017FEFFF7EDFA4FF0000383F31188079B02
:101A0000184609B000BD00BFAFF30080AFF30080FF
:101A100000B583B00190019B002B05D148F2000076
:101A2000C0F60000FFF7C4FB4FF0200383F31188DA
:101A3000FFF7AEFA4FF006000199FFF7B9FDFFF787
:101A4000C7FA4FF0000383F3118803B000BD00BF55
:101A500000B583B001904FF0200383F31188FFF7A6
:101A600097FA019800F004F803B000BDAFF30080CE
:101A700000B585B0019040F69813C2F200039B694F
:101A80000393039B019A9A6209E0039B03F12C03E1
:101A90001846FFF7ADFE03461846FFF7B1FC039B5F
:101AA000DA6A039B03F12C039A42EED1039B93F86D
:101AB000213003F00303002B09D1039B5B69039AD8
:101AC00012691A61039B1B69039A52695A614FF0AC
:101AD0000E00FFF7D5FC48F21000C0F60000FFF73B
:101AE00067FB05B000BD00BFAFF30080AFF300801F
:101AF00000B583B00190019B002B05D148F2600036
:101B0000C0F60000FFF754FB019B1A46019B5A6088
:101B1000019B5A68019B1A60019B4FF000029A607A
:101B200003B000BDAFF30080AFF30080AFF30080DF
:101B300000B585B001900091FFF70AFB019B002BD7
:101B400005D148F23C10C0F60000FFF731FB019BC5
:101B50001B68039311E0039BDA68009B42EA0302CF
:101B6000039BDA60039B5A68039B9B6810461946E7
:101B700000F00EF8039B1B680393019B039A9A42A3
:101B8000E9D105B000BD00BFAFF30080AFF3008026
:101B900000B583B001900091FFF7DAFA019B002BAA
:101BA00005D148F26410C0F60000FFF701FB019B6D
:101BB000DA6B009B42EA0302019BDA63019B93F814
:101BC0002030082B07D1019BDA6B019B9B6A02EA4C
:101BD0000303002B0ED1019B93F82030092B10D169
:101BE000019BDA6B019B9B6A02EA0302019B9B6AE1
:101BF0009A4206D10198FFF703FC03464FF000021A
:101C00009A6203B000BD00BFAFF30080AFF3008065
:101C100082B001900091009A019B1A60009B5A6863
:101C2000019B5A60019B5B68009A01995160009A80
:101C300052681A6002B07047AFF30080AFF30080C3
:101C400084B00190019B1B680393039B1A68019B5E
:101C50001A60019B1B68019A5A60039B184604B0E6
:101C6000704700BFAFF30080AFF30080AFF3008098
:101C700000B583B001900091009B002B02D14FF082
:101C8000FF3316E040F69813C2F200039B69019AF5
:101C90009A6240F69813C2F200039A69019B1046BB
:101CA0001946FFF7B5FF4FF00D000099FFF780FCD4
:101CB0000346184603B000BDAFF30080AFF30080C9
:101CC00084B00390029101920093039B1A46039BF8
:101CD0005A60039B5A68039B1A60039B4FF00002F3
:101CE0009A60039B029A5A61039B5A69039B9A610B
:101CF000039B9A69039BDA60029A019B1A44039B37
:101D00001A61039B009ADA61039B049A1A6204B079
:101D1000704700BFAFF30080AFF30080AFF30080E7
:101D200000B583B001900B468DF80330FFF710FA31
:101D3000019B5A69019B9B699A4206D1019B9B6852
:101D4000002B02D04FF0010301E04FF00003DBB2A3
:101D5000002B02D06FF003032BE0019B9B6803F183
:101D60000102019B9A60019B5B699DF803201A7038
:101D700003F10102019B5A61019B5A69019B1B6996
:101D80009A4203D3019BDA68019B5A61019B1A684E
:101D9000019B9A420BD0019B1846FFF751FF034667
:101DA0001846FFF72DFB03464FF000029A624FF0F2
:101DB0000003184603B000BDAFF30080AFF300800E
:101DC00000B585B0019000914FF0200383F3118896
:101DD000FFF7DEF8019BDB69002B15D0019BDB6967
:101DE0000198984711E001980099FFF741FF0346D9
:101DF0000393039B002B08DAFFF7EAF84FF0000388
:101E000083F31188039B25E000BF019B9B68002B97
:101E1000E9D0019B9B6803F1FF32019B9A60019B13
:101E20009B691A788DF80B2003F10102019B9A61DE
:101E3000019B9A69019B1B699A4203D3019BDA6853
:101E4000019B9A61FFF7C4F84FF0000383F31188F8
:101E50009DF80B30184605B000BD00BFAFF3008001
:101E600000B587B00390029101920093039BDB6958
:101E700004934FF000030593019B002B05D148F21A
:101E8000A010C0F60000FFF793F94FF0200383F392
:101E90001188FFF77DF8049B002B12D0049B039858
:101EA00098470FE003980099FFF7E2FE0346002BE6
:101EB00008D0FFF78DF84FF0000383F31188059BDE
:101EC0003BE000BF039B9B68002BEBD0039B9B6810
:101ED00003F1FF32039B9A60039B9B691978029A76
:101EE0001170029A02F10102029203F10102039BB6
:101EF0009A61039B9A69039B1B699A4203D3039BD4
:101F0000DA68039B9A61FFF763F84FF0000383F3ED
:101F10001188059B03F101030593019B03F1FF3336
:101F20000193019B002B01D1059B06E04FF020039C
:101F300083F31188FFF72CF8ADE7184607B000BD12
:101F400084B00390029101920093039B1A46039B75
:101F50005A60039B5A68039B1A60039B019A9A601C
:101F6000039B029A5A61039B5A69039B9A61039BE4
:101F70009A69039BDA60029A019B1A44039B1A61D7
:101F8000039B009ADA61039B049A1A6204B07047BB
:101F900000B587B003900B4601928DF80B304FF0DF
:101FA000200383F31188FEF7F3FF10E003980199F3
:101FB000FFF75EFE03460593059B002B07DAFFF74C
:101FC00007F84FF0000383F31188059B2CE0039B77
:101FD0009B68002BEAD0039B9B6803F1FF32039BB5
:101FE0009A60039B5B699DF80B201A7003F1010254
:101FF000039B5A61039B5A69039B1B699A4203D353
:10200000039BDA68039B5A61039BDB69002B03D0B7
:10201000039BDB6903989847FEF7DAFF4FF0000354
:1020200083F311884FF00003184607B000BD00BFCE
:1020300000B585B00190FFF78BF8019B5A69019BB1
:102040009B699A4206D1019B9B68002B02D04FF0FE
:10205000010301E04FF00003DBB2002B02D06FF070
:1020600002032BE0019B9B6803F10102019B9A6034
:10207000019B9B691A788DF80F2003F10102019BE7
:102080009A61019B9A69019B1B699A4203D3019B48
:10209000DA68019B9A61019B1A68019B9A420BD0F6
:1020A000019B1846FFF7CCFD03461846FFF7A8F939
:1020B00003464FF000029A629DF80F30184605B0B3
:1020C00000BD00BFAFF30080AFF30080AFF300802E
:1020D00000B587B00390029101920093039BDB69E6
:1020E00004934FF000030593019B002B05D148F2A8
:1020F000B410C0F60000FFF75BF84FF0200383F345
:102100001188FEF745FF0EE003980099FFF7B0FD38
:102110000346002B07D0FEF75BFF4FF0000383F36D
:102120001188059B41E0039B9B68002BECD0039B2F
:102130009B6803F1FF32039B9A60039B5B69029AE1
:1021400012781A7003F10102039B5A61029B03F19A
:1021500001030293039B5A69039B1B699A4203D3B1
:10216000039BDA68039B5A61049B002B02D0049BFB
:1021700003989847FEF72CFF4FF0000383F3118874
:10218000059B03F101030593019B03F1FF330193C9
:10219000019B002B01D1059B07E04FF0200383F347
:1021A0001188FEF7F5FE00BFBDE7184607B000BD79
:1021B00040F6DC53C2F2000303F1070323F00703E8
:1021C0001A4640F6B413C2F200031A6042F200034A
:1021D000C2F2000323F007031A4640F6B813C2F216
:1021E00000031A60704700BFAFF30080AFF30080B8
:1021F00000B585B001904FF0200383F31188FEF7FE
:10220000C7FE019800F00CF803460393FEF7E0FECA
:102210004FF0000383F31188039B184605B000BDFF
:1022200000B585B00190FEF793FF019B03F1070312
:1022300023F00703019340F6B813C2F200031B68B2
:102240001A4640F6B413C2F200031B68C3EB020344
:102250001A46019B9A4202D24FF0000312E040F668
:10226000B413C2F200031B68039340F6B413C2F226
:1022700000031A68019B1A4440F6B413C2F200032B
:102280001A60039B184605B000BD00BFAFF3008085
:1022900008B540F6C013C2F2000342F2F112C0F6D4
:1022A00000021A6040F6C013C2F200034FF00002B1
:1022B0009A6040F6C013C2F200034FF00002DA60E9
:1022C0000148FFF715FC08BDD0090020AFF30080DE
:1022D00008B502F01DFB01F093FA48F64030C0F655
:1022E000000002F025FC00F0EBFF01F069F801F0BE
:1022F000FFFC00F075FA01F05BF800F001FF04F05C
:10230000C7F808BDAFF30080AFF30080AFF30080E3
:1023100000B585B00390029101920093039B18468B
:10232000029900F00DFC0346002B15D04FF001037D
:1023300021E0039B1846019900F05AFC0346002B4C
:1023400002D04FF0010316E0019B03F500730193E7
:10235000009B03F1FF330093009B002BE9D1039B0B
:10236000184600F0A5FC0346002B02D04FF00103F5
:1023700001E04FF00003184605B000BDAFF3008048
:1023800000B585B00390029101920093039B18461B
:10239000029900F0C5FC0346002B15D04FF0010355
:1023A00021E0039B1846019900F012FD0346002B23
:1023B00002D04FF0010316E0019B03F50073019377
:1023C000009B03F1FF330093009B002BE9D1039B9B
:1023D000184600F05DFD0346002B02D04FF00103CC
:1023E00001E04FF00003184605B000BDAFF30080D8
:1023F00084B00346029101928DF80F3012E09DF8EF
:102400000F304FEA4302029B1B7882EA030248F630
:102410003013C0F600039B5C8DF80F30029B03F174
:1024200001030293019B002B0CBF00230123DBB2AD
:10243000019A02F1FF320192002BE0D19DF80F309A
:10244000184604B0704700BFAFF30080AFF30080C0
:1024500000B585B001904FF00003039311E0019B9C
:10246000DB6A1A6802AB10464FF001011A4601F010
:102470002FF99DF80830FF2B19D0039B03F10103BE
:102480000393039B0F2BEADD019BDB6A1A6802AB07
:1024900010464FF001011A4601F01AF99DF8083074
:1024A000FF2B06D04FF00100FFF7B2FAECE700BFB8
:1024B00000E000BF05B000BDAFF30080AFF30080C7
:1024C00000B587B003900B4601928DF80B3003984E
:1024D000FFF7BEFF9DF80B3043F04003DBB28DF8F1
:1024E0001030019B4FEA1363DBB28DF81130019B72
:1024F0004FEA1343DBB28DF81230019B4FEA1323EE
:10250000DBB28DF81330019BDBB28DF8143004ABD5
:102510004FF0000019464FF00502FFF769FF034630
:102520004FEA4303DBB243F00103DBB2DBB28DF8C9
:102530001530039BDB6A1A6804AB10464FF00601A6
:102540001A4601F06DF807B000BD00BFAFF3008080
:1025500000B585B001904FF00003039314E0019B98
:10256000DB6A1A6802AB10464FF001011A4601F00F
:10257000AFF89DF80830FF2B02D09DF8083008E036
:10258000039B03F101030393039B082BE7DD4FF04B
:10259000FF03184605B000BDAFF30080AFF3008025
:1025A00000B585B0019000910198FFF7D1FF034677
:1025B0008DF80F30019BDB6A1B6818464FF0040151
:1025C000009A01F085F89DF80F30184605B000BD5F
:1025D00000B587B003900B4601928DF80B30039B3A
:1025E000DB6A1B68184600F07BFF9DF80B300398F0
:1025F0001946019AFFF764FF0398FFF7A9FF034606
:102600008DF81730039BDB6A1B68184600F090FFBB
:102610009DF81730184607B000BD00BFAFF300802B
:1026200000B587B00390019200930B468DF80B30F4
:10263000039BDB6A1B68184600F052FF9DF80B30C5
:1026400003981946019AFFF73BFF03980099FFF79B
:10265000A7FF03468DF81730039BDB6A1B681846FB
:1026600000F066FF9DF81730184607B000BD00BFA8
:1026700000B58DB003900B4601928DF80B30039B93
:10268000DB6A1B68184600F02BFF9DF80B3003989F
:1026900019464FF00002FFF713FF0398FFF758FFAA
:1026A0000346002B08D0039BDB6A1B68184600F02A
:1026B0003FFF4FF0010366E04FF000030B935BE038
:1026C000039BDB6A1A6805AB10464FF001011A46FE
:1026D00000F0FEFF9DF81430FE2B49D1039BDB6A0E
:1026E0001A6805AB10464FF010011A4600F0F0FFD3
:1026F00005AB0A93019B03F10C03099323E00A9BAA
:102700001B784FEA03620A9B03F101031B784FEA2F
:10271000034342EA03020A9B03F102031B784FEAD8
:10272000032342EA03020A9B03F103031B7842EAF4
:102730000302099B1A600A9B03F104030A93099B95
:10274000A3F104030993099A019B9A42D7D2039BF0
:10275000DB6A1B6818464FF0020100F011FF039B73
:10276000DB6A1B68184600F0E3FE4FF000030AE046
:102770000B9B03F101030B930B9A42F20F739A42E6
:102780009ED94FF0010318460DB000BDAFF3008095
:1027900000B585B00190019BDB6A1B68184600F00C
:1027A0009FFE019BDB6A1A6803AB10464FF00101E4
:1027B0001A4600F08DFF9DF80C30FF2B07D1019BCE
:1027C000DB6A1B68184600F0B3FE05B000BD4FF091
:1027D0000100FFF71DF9E4E7AFF30080AFF30080DD
:1027E000704700BFAFF30080AFF30080AFF300800D
:1027F00082B00190019A48F61013C0F600031360EE
:10280000019B4FF001021A71019B4FF00002DA6246
:10281000019B4FF0000283F8302002B0704700BFE8
:1028200000B583B001900091019B002B02D0009B6A
:10283000002B05D148F2D010C0F60000FEF7B8FC1E
:10284000019B1B79012B09D0019B1B79022B05D021
:1028500048F2E010C0F60000FEF7AAFC019B009AC7
:10286000DA62019B4FF002021A7103B000BD00BF93
:1028700000B587B00190019B002B05D148F20C20D8
:10288000C0F60000FEF794FC019B1B79022B09D0D7
:10289000019B1B79052B05D048F21C20C0F60000D7
:1028A000FEF786FC019B4FF003021A71019BDB6A65
:1028B0001A68019BDB6A5B681046194600F0A0FDB0
:1028C000019BDB6A1B6818464FF0100100F058FEB0
:1028D0004FF00003059301984FF000014FF0000204
:1028E000FFF776FE0346012B0BD103AB01984FF0A7
:1028F00008014FF4D572FFF793FE0346052B0DD167
:1029000046E0059B03F101030593059B092B00F2AB
:10291000A1804FF00A00FFF77BF8DCE74FF00003DF
:10292000059301984FF037014FF00002FFF750FE7A
:102930000346012B1BD103AB01984FF029014FF443
:10294000D572C4F20002FFF76BFE0346002B0ED1D6
:1029500003AB01984FF03A014FF00002FFF760FE21
:102960009DF80C3003F04003002B0CD110E0059BC8
:1029700003F101030593059B632B6DD84FF00A000B
:10298000FFF746F8CDE7019B4FF0010283F83020B6
:102990004FF00003059301984FF001014FF0000242
:1029A000FFF716FE03468DF813309DF81330002B09
:1029B00014D1019BDB6A1A68019BDB6A9B68104695
:1029C000194600F01DFD01984FF010014FF4007200
:1029D000FFF7FEFD0346002B40D10FE09DF81330BA
:1029E000012B3DD1059B03F101030593059B632B4F
:1029F00038D84FF00A00FFF70BF8CCE7019B03F142
:102A0000180301984FF009011A46FFF731FE0346FB
:102A1000002B29D1019B03F11803184600F020FB7D
:102A20000246019B9A62019B9B6A002B1ED0019B70
:102A300003F1080301984FF00A011A46FFF718FE48
:102A40000346002B14D1019B4FF005021A714FF081
:102A500000031AE000BF0CE000BF0AE000BF08E07E
:102A600000BF06E000BF04E000BF02E000BF00E0DE
:102A700000BF019BDB6A1B68184600F0F9FC019B54
:102A80004FF002021A714FF00103184607B000BD63
:102A900000B583B00190019B002B05D148F2302096
:102AA000C0F60000FEF784FB4FF0200383F311888B
:102AB000FEF76EFA019B1B79022B09D0019B1B7953
:102AC000052B05D048F24420C0F60000FEF770FB4D
:102AD000019B1B79022B08D1FEF77AFA4FF0000315
:102AE00083F311884FF0000322E0019B4FF00402B2
:102AF0001A71FEF76DFA4FF0000383F31188019B02
:102B0000DB6A1A68019BDB6A9B681046194600F075
:102B100077FC0198FFF73CFE019BDB6A1B681846B7
:102B200000F0A6FC019B4FF002021A714FF0000367
:102B3000184603B000BD00BFAFF30080AFF30080C4
:102B400000B583B001900091019B002B05D148F2A4
:102B50005820C0F60000FEF72BFB019B1B79052BCC
:102B600005D048F27420C0F60000FEF721FB019B5F
:102B70004FF006021A71019BDB6A1A68019BDB6A3F
:102B80009B681046194600F03BFC019BDB6A1B6802
:102B9000184600F0A5FC019B93F83030002B06D0BE
:102BA00001984FF01201009AFFF78AFC08E0009BA1
:102BB0004FEA432301984FF012011A46FFF780FCB9
:102BC0000198FFF7C5FC0346002B0CD0019BDB6A84
:102BD0001B68184600F04CFC019B4FF005021A716F
:102BE0004FF0010301E04FF00003184603B000BDB1
:102BF00000B585B001900091019B002B02D0009B95
:102C0000002B05D148F29420C0F60000FEF7D0FA60
:102C1000019B1B79062B02D04FF001033FE04FF0E0
:102C20000003039324E0019BDB6A1B6818464FF006
:102C30000101009A00F04CFD009B1B78FE2B13D184
:102C4000019BDB6A1B6818464FF40071009A00F084
:102C50003FFD019BDB6A1B6818464FF0020100F044
:102C60008FFC4FF000031AE0039B03F10103039371
:102C7000039A42F20F739A42D5DD019BDB6A1B680F
:102C8000184600F055FC019BDB6A1B68184600F0F3
:102C9000EFFB019B4FF005021A714FF0010318463C
:102CA00005B000BDAFF30080AFF30080AFF300804C
:102CB00000B583B00190019B002B05D148F2AC20F8
:102CC000C0F60000FEF774FA019B1B79062B02D0B8
:102CD0004FF001031AE0019BDB6A1B6818464FF0B6
:102CE000070148F65022C0F6000200F099FC019856
:102CF000FFF72EFC019BDB6A1B68184600F018FCEE
:102D0000019B4FF005021A714FF00003184603B003
:102D100000BD00BFAFF30080AFF30080AFF30080D1
:102D200000B583B001900091019B002B05D148F2C2
:102D3000C820C0F60000FEF73BFA019B1B79052B6B
:102D400005D048F2E420C0F60000FEF731FA019BFE
:102D50004FF007021A71019BDB6A1A68019BDB6A5C
:102D60009B681046194600F04BFB019BDB6A1B6811
:102D7000184600F0B5FB019B93F83030002B06D0CD
:102D800001984FF01901009AFFF79AFB08E0009BA9
:102D90004FEA432301984FF019011A46FFF790FBC1
:102DA0000198FFF7D5FB0346002B0CD0019BDB6A93
:102DB0001B68184600F05CFB019B4FF005021A717E
:102DC0004FF0010301E04FF00003184603B000BDCF
:102DD00000B585B001900091019B002B02D0009BB3
:102DE000002B05D148F20430C0F60000FEF7E0F9F0
:102DF000019B1B79072B02D04FF0010344E0019B9C
:102E0000DB6A1B6818464FF0020148F64022C0F604
:102E1000000200F005FC019BDB6A1B6818464FF4BA
:102E20000071009A00F0FCFB019BDB6A1B681846EE
:102E30004FF0020100F0A4FB019BDB6A1A6803ABB0
:102E400010464FF001011A4600F042FC9DF80C308C
:102E500003F01F03052B05D10198FFF7F9FA4FF096
:102E6000000311E0019BDB6A1B68184600F060FB61
:102E7000019BDB6A1B68184600F0FAFA019B4FF0D1
:102E800005021A714FF00103184605B000BD00BFDE
:102E900000B583B00190019B002B05D148F21C3096
:102EA000C0F60000FEF784F9019B1B79072B02D0C6
:102EB0004FF0010317E0019BDB6A1B6818464FF0D7
:102EC000020148F63022C0F6000200F0A9FB019B87
:102ED000DB6A1B68184600F02BFB019B4FF00502D4
:102EE0001A714FF00003184603B000BDAFF3008025
:102EF00000B583B00190019B002B05D148F238301A
:102F0000C0F60000FEF754F9019B1B79052B02D097
:102F10004FF0010316E0019B4FF008021A71019B6C
:102F2000DB6A1A68019BDB6A9B681046194600F051
:102F300067FA0198FFF72CFC019B4FF005021A710C
:102F40004FF00003184603B000BD00BFAFF3008090
:102F500000B583B001900091019B002B02D0009B33
:102F6000002B05D148F24430C0F60000FEF720F9EE
:102F7000019B1B79052B02D04FF0010309E0019B57
:102F80009A6A009B5A60009B4FF400721A604FF0DF
:102F90000003184603B000BDAFF30080AFF300801C
:102FA00000B589B0039002910192029A019B9A4266
:102FB00005D3029A019BC3EB02031F2B05D948F2EC
:102FC0007030C0F60000FEF7F3F8019B4FEA531390
:102FD0000793019B03F01F030693029B4FEA5313D1
:102FE0000593029B03F01F0303F101034FF001025D
:102FF00002FA03F303F1FF330493079A059B9A4205
:1030000019D2079B4FEA8303039A13441A68069B5D
:1030100022FA03F2059B4FEA830303990B441968D4
:10302000049B01EA0301069BC3F1200301FA03F3A9
:1030300042EA03030BE0079B4FEA8303039A13441E
:103040001A68049B02EA0302069B22FA03F318465D
:1030500009B000BDAFF30080AFF30080AFF3008094
:1030600000B587B00190019B03F10C031B684FEA88
:103070009373002B02D0012B29D035E001984FF03B
:1030800049014FF03E02FFF78BFF0346059301987D
:103090004FF031014FF02F02FFF782FF03460493F8
:1030A00001984FF053014FF05002FFF779FF0346AC
:1030B0000393059B03F10102049B03F1020302FA4F
:1030C00003F2039BA3F1090302FA03F30EE0019854
:1030D0004FF045014FF03002FFF762FF034603F166
:1030E00001034FEA832301E04FF00003184607B0C5
:1030F00000BD00BFAFF30080AFF30080AFF30080EE
:1031000008B501F03DFE08BDAFF30080AFF30080CD
:1031100000B583B001900091019B002B02D0009B71
:10312000002B05D148F2A030C0F60000FEF740F8B1
:103130004FF0200383F31188FDF72AFF01980099CF
:1031400001F056FEFDF744FF4FF0000383F31188B2
:1031500003B000BDAFF30080AFF30080AFF3008099
:1031600000B585B0039002910192039B03F13003F7
:1031700018460299019A4FF0FF33FEF7A9FF034664
:10318000184605B000BD00BFAFF30080AFF300806C
:1031900000B585B0039002910192039B03F10C03EB
:1031A00018460299019A4FF0FF33FEF759FE034685
:1031B000184605B000BD00BFAFF30080AFF300803C
:1031C00000B583B001900B468DF80330019B03F1ED
:1031D00030029DF80330104619464FF0FF32FEF7DB
:1031E000D7FE0346184603B000BD00BFAFF3008012
:1031F00000B583B00190019B03F10C0318464FF01A
:10320000FF31FEF7DDFD0346184603B000BD00BFE9
:1032100000B585B003900B4601928DF80B30039BEF
:1032200003F130029DF80B3010461946019AFEF763
:10323000AFFE0346184605B000BD00BFAFF30080E7
:1032400000B583B001900091019B03F10C03184677
:103250000099FEF7B5FD0346184603B000BD00BF58
:1032600000B585B00390029101920093039B03F196
:10327000300318460299019A009BFEF729FF034686
:10328000184605B000BD00BFAFF30080AFF300806B
:1032900000B585B00390029101920093039B03F166
:1032A0000C0318460299019A009BFEF7D9FD0346CC
:1032B000184605B000BD00BFAFF30080AFF300803B
:1032C00008B502F08DF908BDAFF30080AFF30080C0
:1032D00000B587B0059004910392059A48F66023E3
:1032E000C0F600031360059B03F104031A46059B17
:1032F0005A60059B4FF001021A72059B03F10C0204
:10330000059B03F1540305990091104619464FF0AF
:103310001002049BFEF7D4FC059B03F13002059BD1
:1033200003F1640305990091104619464FF010020D
:10333000039BFEF705FE07B000BD00BFAFF30080A2
:1033400000B583B001900B468DF80330FDF700FF08
:10335000019B002B05D148F22840C0F60000FDF784
:1033600027FF019B5B69002B07D1019B03F104033D
:1033700018464FF00401FEF7DBFB019B03F10C0242
:103380009DF8033010461946FEF7CAFC0346002B91
:1033900007DA019B03F1040318464FF08001FEF7A2
:1033A000C7FB03B000BD00BFAFF30080AFF30080E8
:1033B000704700BFAFF30080AFF30080AFF3008031
:1033C00008B501F0F5FD08BDAFF30080AFF3008054
:1033D00000B583B00190019B4FF001021A70019B70
:1033E0004FF000025A60019B4FF000029A60019B6F
:1033F00003F10C031846FEF77BFB03B000BD00BFD2
:1034000000B583B001900091019B002B02D0009B7E
:10341000002B05D148F25040C0F60000FDF7C8FE71
:103420004FF0200383F31188FDF7B2FD019B1B7859
:10343000012B09D0019B1B78022B05D048F260407C
:10344000C0F60000FDF7B4FE019B009A5A60019897
:1034500001F0E6FD019B4FF002021A70FDF7B8FD86
:103460004FF0000383F3118803B000BDAFF3008079
:1034700000B583B00190019B002B05D148F270404C
:10348000C0F60000FDF794FE4FF0200383F311888F
:10349000FDF77EFD019B1B78012B09D0019B1B785A
:1034A000022B05D048F27C40C0F60000FDF780FEFC
:1034B000019801F09DFE019801F05AFE019B4FF02A
:1034C00001021A70FDF784FD4FF0000383F31188A9
:1034D00003B000BDAFF30080AFF30080AFF3008016
:1034E00000B583B00190019B002B05D148F28C40C0
:1034F000C0F60000FDF75CFE4FF0200383F3118857
:10350000FDF746FD019B1B78022B05D048F29C403D
:10351000C0F60000FDF74CFE019801F059FEFDF7E2
:1035200057FD4FF0000383F3118803B000BD00BFC7
:1035300000B583B00190019B002B05D148F2AC404F
:10354000C0F60000FDF734FE4FF0200383F311882E
:10355000FDF71EFD019B1B78022B05D048F2BC40F5
:10356000C0F60000FDF724FE019801F041FEFDF7D2
:103570002FFD4FF0000383F3118803B000BD00BF9F
:1035800000B583B001900091019B002B02D0009BFD
:10359000002B05D148F28050C0F60000FDF708FE70
:1035A0004FF0200383F31188FDF7F2FC019B1B7899
:1035B000022B05D048F29450C0F60000FDF7F8FD4C
:1035C000019B5B681B68002B05D048F2A450C0F635
:1035D0000000FDF7EDFD019B4FF003021A7001980A
:1035E000009901F015FE019B9B68002B05D048F265
:1035F000B450C0F60000FDF7DBFD40F69813C2F2B0
:1036000000039A69019B9A604FF00200FDF738FFB2
:10361000FDF7DEFC4FF0000383F3118803B000BD1B
:1036200000B585B0039002910192039B002B05D059
:10363000029B002B02D0019B002B05D148F2FC50CD
:10364000C0F60000FDF7B4FD4FF0200383F31188AE
:10365000FDF79EFC039B1B78022B05D048F2086007
:10366000C0F60000FDF7A4FD039B5B681B68002B00
:1036700005D048F21860C0F60000FDF799FD039BE5
:103680004FF003021A7003980299019A01F000FEAC
:10369000039B9B68002B05D048F2B450C0F6000095
:1036A000FDF786FD40F69813C2F200039A69039B6A
:1036B0009A604FF00200FDF7E3FEFDF789FC4FF042
:1036C000000383F3118805B000BD00BFAFF3008095
:1036D00000B585B0039002910192039B002B05D0A9
:1036E000029B002B02D0019B002B05D148F22860E1
:1036F000C0F60000FDF75CFD4FF0200383F3118856
:10370000FDF746FC039B1B78022B05D048F238607E
:10371000C0F60000FDF74CFD039B5B681B68002BA7
:1037200005D048F24C60C0F60000FDF741FD039B58
:103730004FF003021A7003980299019A01F0E8FD14
:10374000039B9B68002B05D048F2B450C0F60000E4
:10375000FDF72EFD40F69813C2F200039A69039B11
:103760009A604FF00200FDF78BFEFDF731FC4FF041
:10377000000383F3118805B000BD00BFAFF30080E4
:1037800082B001904FF48053CEF200035A68019B3F
:103790009A6002B0704700BFAFF30080AFF30080C3
:1037A00084B001904FF48053CEF200035B68039322
:1037B000019B9B68039AC3EB020240F6E013C2F23E
:1037C00000031B68C3EB0202019B9A60019B9A688D
:1037D000019BDB689A4204D9019B9A68019BDA60DD
:1037E00009E0019B9A68019B1B699A4203D2019BE5
:1037F0009A68019B1A6104B0704700BFAFF3008064
:1038000000B587B040F6E013C2F200034FF00002AB
:103810001A6001AB184600F013F8019B01AA10468C
:103820009847029B01AA10469847039A40F6E01376
:10383000C2F200031A6007B000BD00BFAFF3008002
:1038400082B00190019A43F28173C0F600031360C5
:10385000019A43F2A173C0F600035360019B4FF03D
:1038600000029A60019B4FF00002DA60019B4FF06A
:10387000FF321A6102B07047AFF30080AFF30080EF
:1038800000B583B00190019B93F87620019B83F8EB
:103890007E20019802F014FB019B5B681B68002BE3
:1038A00006D0019B5B681B6801984FF001019847A7
:1038B000019B4FF003021A7003B000BDAFF300800C
:1038C00000B585B00190019B93F8743003F07F023E
:1038D000019B93F875304FEA032342EA0303B3F5E3
:1038E000407F63D0B3F5407F12DC022B00F01281E1
:1038F000022B05DC002B28D0012B00F0FA80EEE132
:10390000B3F5807F32D0B3F5817F00F07481E6E1BA
:10391000B3F5C06F7BD0B3F5C06F08DC40F2023264
:10392000934200F0A281B3F5A06F5FD0D7E1B3F569
:10393000106F00F0AF8040F60242934200F0D98051
:10394000B3F5006F00F09680C9E1019B03F17C03A1
:103950001A46019B9A66019B4FF00202DA66019BB0
:103960004FF000021A674FF00103BAE1019B93F890
:103970007630012B17D1019BB3F87C3023F0020382
:103980009AB2019BA3F87C20019B4FF000029A663B
:10399000019B4FF00002DA66019B4FF000021A67AC
:1039A0004FF001039DE14FF000039AE1019B93F872
:1039B0007630012B17D1019BB3F87C3043F0020322
:1039C0009AB2019BA3F87C20019B4FF000029A66FB
:1039D000019B4FF00002DA66019B4FF000021A676C
:1039E0004FF001037DE14FF000037AE1019B4FF0BE
:1039F00000029A66019B4FF00002DA66019A43F6D4
:103A00008103C0F6000313674FF0010369E1019BD6
:103A10005B68D3F804C0019B93F87710019B93F87F
:103A20007620019B03F178031B781846019B03F174
:103A300079031B784FEA03239BB240EA03039BB24E
:103A40009BB20198E04703460393039B002B02D1EE
:103A50004FF0000345E1039B5A68019B9A66039B64
:103A60001A68019BDA66019B4FF000021A674FF05B
:103A7000010336E1019B03F17F02019B9A66019BE2
:103A80004FF00102DA66019B4FF000021A674FF017
:103A9000010326E1019B93F87620019B83F87F20A8
:103AA000019B93F87F30002B04D1019B4FF0030260
:103AB0001A7003E0019B4FF004021A70019B5B68CF
:103AC0001B68002B06D0019B5B681B6801984FF0B8
:103AD00002019847019B4FF000029A66019B4FF04C
:103AE0000002DA66019B4FF000021A674FF00103F3
:103AF000F7E0019A48F68023C0F600039366019B25
:103B00004FF00202DA66019B4FF000021A674FF095
:103B10000103E6E0019B93F87830DBB25BB2002B47
:103B200034DA019B93F8783003F00F03DBB201988D
:103B3000194602F0BDFA0346012B02D0022B11D028
:103B400021E0019A48F6A023C0F600039366019B8A
:103B50004FF00202DA66019B4FF000021A674FF045
:103B60000103BEE0019A48F69023C0F60003936675
:103B7000019B4FF00202DA66019B4FF000021A67C8
:103B80004FF00103ADE04FF00003AAE0019B93F872
:103B9000783003F00F03DBB20198194602F068FA9F
:103BA0000346012B02D0022B11D021E0019A48F6E6
:103BB000A023C0F600039366019B4FF00202DA6671
:103BC000019B4FF000021A674FF0010389E0019A50
:103BD00048F69023C0F600039366019B4FF0020263
:103BE000DA66019B4FF000021A674FF0010378E09C
:103BF0004FF0000375E0019B93F87630002B02D064
:103C00004FF000036DE0019B93F8783003F00F0351
:103C1000002B1BDD019B93F87830DBB25BB2002BED
:103C20000ADA019B93F8783003F00F03DBB20198B6
:103C3000194602F0F5FB09E0019B93F8783003F098
:103C40000F03DBB20198194602F0BAFB019B4FF05B
:103C500000029A66019B4FF00002DA66019B4FF06A
:103C600000021A674FF001033BE0019B93F87630A6
:103C7000002B02D04FF0000333E0019B93F8783023
:103C800003F00F03002B1BDD019B93F87830DBB2B0
:103C90005BB2002B0ADA019B93F8783003F00F0334
:103CA000DBB20198194602F06BFB09E0019B93F827
:103CB000783003F00F03DBB20198194602F040FBA5
:103CC000019B4FF000029A66019B4FF00002DA66FA
:103CD000019B4FF000021A674FF0010301E04FF023
:103CE0000003184605B000BDAFF30080AFF30080BD
:103CF00008B502F09DF808BDAFF30080AFF3008077
:103D000084B00190019B4FF001021A70019B4FF0AB
:103D100000025A604FF00003039315E0019A039BE1
:103D200003F10A034FEA830313444FF000025A6081
:103D3000019B039A02F112024FF0000143F8221096
:103D4000039B03F101030393039B062BE6D9019B1D
:103D50004FF000021A81019B4FF000025A8104B01B
:103D6000704700BFAFF30080AFF30080AFF3008077
:103D700000B587B00390019200930B468DF80B308D
:103D80009DF80B30039A03F102034FEA83031344B7
:103D90005B689B690593059B4FF000021A70059BB9
:103DA000019ADA60059B009A5A60059B4FF0000269
:103DB0009A609DF80B300398194602F0D9F907B0C4
:103DC00000BD00BFAFF30080AFF30080AFF3008011
:103DD00000B587B00390019200930B468DF80B302D
:103DE0009DF80B30039A03F102034FEA8303134457
:103DF0005B685B690593059B4FF000021A70059B99
:103E0000019ADA60059B009A5A60059B4FF0000208
:103E10009A609DF80B300398194602F0E9F907B053
:103E200000BD00BFAFF30080AFF30080AFF30080B0
:103E300000B583B001900B468DF80330FDF788F98B
:103E4000019B002B05D148F25470C0F60000FDF72D
:103E5000AFF9019B5B891A469DF8033042FA03F3E0
:103E600003F00103DBB2002B02D04FF0010317E097
:103E7000019B5B899AB29DF803304FF0010101FA72
:103E800003F39BB242EA03039BB29AB2019B5A81AD
:103E90009DF803300198194602F012FA4FF0000322
:103EA000184603B000BD00BFAFF30080AFF3008041
:103EB00000B583B001900B468DF80330FDF748F94B
:103EC000019B002B05D148F26C70C0F60000FDF795
:103ED0006FF9019B1B891A469DF8033042FA03F3E0
:103EE00003F00103DBB2002B02D04FF0010317E017
:103EF000019B1B899AB29DF803304FF0010101FA32
:103F000003F39BB242EA03039BB29AB2019B1A816C
:103F10009DF803300198194602F0F2F94FF00003C2
:103F2000184603B000BD00BFAFF30080AFF30080C0
:103F300000B585B00190019B4FF002021A70019B01
:103F40004FF00002A3F87C20019B4FF0000283F8A1
:103F50007E20019B4FF0000283F87F20019B4FF0F1
:103F600000021A81019B4FF000025A814FF00003BA
:103F700003930DE0019A039B03F102034FEA8303CD
:103F800013444FF000025A60039B03F101030393B3
:103F9000039B072BEED9019B4FF0000283F86420AE
:103FA000019801F04DFF05B000BD00BFAFF30080E8
:103FB00000B585B001900B468DF80330019B4FF0A2
:103FC000000283F86420019B03F174039DF8032031
:103FD000019811461A4602F08BF8019B5B689B68BA
:103FE000002B0AD0019B5B689B68019898470346A9
:103FF00083F00103DBB2002B2BD0019B93F87430CC
:1040000003F06003002B08D10198FFF759FC034629
:1040100083F00103DBB2002B1BD001984FF00001AD
:1040200002F0AEF901984FF0000102F089F9019B0E
:104030005B681B68002B06D0019B5B681B680198BE
:104040004FF005019847019B4FF0060283F864206A
:10405000A3E0019B03F17A031B781A46019B03F14D
:104060007B031B784FEA032342EA03030393019B7C
:10407000DA6E039B9A4202D9019B039ADA66019B8E
:1040800093F87430DBB25BB2002B43DA019BDB6E3A
:10409000002B1FD0019B4FF0010283F86420019B8D
:1040A0009A6E019BDB6E01984FF00001FFF790FEC6
:1040B0004FF0200383F31188FCF7AAFF01984FF01B
:1040C0000001FFF7F5FEFCF7C3FF4FF0000383F399
:1040D000118862E0019B4FF0030283F8642001988D
:1040E0004FF000014FF000024FF00003FFF740FED9
:1040F0004FF0200383F31188FCF78AFF01984FF0FB
:104100000001FFF795FEFCF7A3FF4FF0000383F3D8
:10411000118842E0019BDB6E002B1FD0019B4FF00A
:10412000040283F86420019B9A6E019BDB6E019868
:104130004FF00001FFF71CFE4FF0200383F31188BE
:10414000FCF766FF01984FF00001FFF771FEFCF7E6
:104150007FFF4FF0000383F311881EE0019B4FF0B7
:10416000050283F8642001984FF000014FF000022F
:104170004FF00003FFF72CFE4FF0200383F311886C
:10418000FCF746FF01984FF00001FFF791FEFCF7A6
:104190005FFF4FF0000383F3118805B000BD00BF3F
:1041A00000B585B001900B468DF80330019B93F864
:1041B0006430022B43D0052B61D0012B6DD1019BC4
:1041C00003F17A031B781A46019B03F17B031B78EA
:1041D0004FEA032342EA03030393019BDA6E039B36
:1041E0009A422CD2019BDB6E019AD268128AB3FBF1
:1041F000F2F102FB01F2C2EB0303002B1FD1019885
:104200004FF000014FF000024FF00003FFF7E0FD18
:104210004FF0200383F31188FCF7FAFE01984FF06A
:104220000001FFF745FEFCF713FF4FF0000383F397
:104230001188019B4FF0020283F8642048E0019B43
:104240004FF0030283F8642001984FF000014FF013
:1042500000024FF00003FFF78BFD4FF0200383F3C4
:104260001188FCF7D5FE01984FF00001FFF7E0FD43
:10427000FCF7EEFE4FF0000383F3118828E0019B6A
:104280001B6F002B03D0019B1B6F01989847019B6C
:104290004FF0000283F864201AE001984FF000010B
:1042A00002F06EF801984FF0000102F049F8019B0E
:1042B0005B681B68002B06D0019B5B681B6801983C
:1042C0004FF005019847019B4FF0060283F86420E8
:1042D00005B000BDAFF30080AFF30080AFF3008006
:1042E00000B583B001900B468DF80330019B93F825
:1042F0006430032B21D0042B34D1019B4FF00502F5
:1043000083F8642001984FF000014FF000024FF055
:104310000003FFF75DFD4FF0200383F31188FCF7E6
:1043200077FE01984FF00001FFF7C2FDFCF790FE09
:104330004FF0000383F311882FE0019BDB689B693A
:104340009B68002B0DD1019B1B6F002B03D0019BA1
:104350001B6F01989847019B4FF0000283F864207F
:104360001BE000BF01984FF0000102F009F801982E
:104370004FF0000101F0E4FF019B5B681B68002B1C
:1043800006D0019B5B681B6801984FF005019847B8
:10439000019B4FF0060283F8642003B000BD00BF0C
:1043A00000B583B0FCF774FE4FF00003C4F20203C3
:1043B0001B6803F00F0301934FF00003C4F20203E4
:1043C000019A5A6040F6E813C2F200031B68002B02
:1043D0000CD040F6E813C2F200031A6840F6E81366
:1043E000C2F200035B68184601999047FCF780FE13
:1043F000FCF77EFB03B000BDAFF30080AFF300809D
:1044000000B583B0FCF744FE4FF00003C4F2020392
:104410001B684FEA131303F00F0301934FF00003DF
:10442000C4F20203019A4FEA02125A6040F6E813FE
:10443000C2F200039B68002B0CD040F6E813C2F2D6
:1044400000039A6840F6E813C2F20003DB681846DE
:1044500001999047FCF74CFEFCF74AFB03B000BD06
:1044600000B583B0FCF714FE4FF00003C4F2020362
:104470001B684FEA132303F00F0301934FF000036F
:10448000C4F20203019A4FEA02225A6040F6E8138E
:10449000C2F200031B69002B0CD040F6E813C2F2F5
:1044A00000031A6940F6E813C2F200035B6918467C
:1044B00001999047FCF71CFEFCF71AFB03B000BD06
:1044C00000B583B0FCF7E4FD4FF00003C4F2020333
:1044D0001B684FEA133303F00F0301934FF00003FF
:1044E000C4F20203019A4FEA02325A6040F6E8131E
:1044F000C2F200039B69002B0CD040F6E813C2F215
:1045000000039A6940F6E813C2F20003DB6918461B
:1045100001999047FCF7ECFDFCF7EAFA03B000BD07
:1045200000B583B0FCF7B4FD4FF00003C4F2020302
:104530001B684FEA134303F00F0301934FF000038E
:10454000C4F20203019A4FEA02425A6040F6E813AD
:10455000C2F200031B6A002B0CD040F6E813C2F233
:1045600000031A6A40F6E813C2F200035B6A1846B9
:1045700001999047FCF7BCFDFCF7BAFA03B000BD07
:1045800000B583B0FCF784FD4FF00003C4F20203D2
:104590001B684FEA135303F00F0301934FF000031E
:1045A000C4F20203019A4FEA02525A6040F6E8133D
:1045B000C2F200039B6A002B0CD040F6E813C2F253
:1045C00000039A6A40F6E813C2F20003DB6A184659
:1045D00001999047FCF78CFDFCF78AFA03B000BD07
:1045E00000B583B0FCF754FD4FF00003C4F20203A2
:1045F0001B684FEA136303F00F0301934FF00003AE
:10460000C4F20203019A4FEA02625A6040F6E813CC
:10461000C2F200031B6B002B0CD040F6E813C2F271
:1046200000031A6B40F6E813C2F200035B6B1846F6
:1046300001999047FCF75CFDFCF75AFA03B000BD06
:1046400082B040F6E413C2F200034FF000021A6099
:104650004FF0000301931CE048F6B022C0F60002C0
:1046600001990B464FEA43030B444FEA830313447B
:104670001B684FF000021A6040F6E813C2F2000314
:10468000019A4FF0000143F83210019B03F101033E
:104690000193019B062BDFDD4FF00003C4F2020300
:1046A0004FF0FF325A6002B0704700BFAFF3008096
:1046B00000B585B00390029101920093039B002BFB
:1046C00005D148F2C070C0F60000FCF771FD039BF5
:1046D0005B7A4FF0010202FA03F31A4640F6E41344
:1046E000C2F200031B6802EA0303002B02D04FF062
:1046F000010361E0039B5B7A1A4640F6E813C2F2BD
:104700000003019943F83210039B5B7A40F6E812EC
:10471000C2F200024FEAC3031344009A5A60039B9B
:104720005B7A4FF0010202FA03F31A4640F6E413F3
:10473000C2F200031B6842EA030240F6E413C2F22D
:1047400000031A6040F6E413C2F200031B6803F092
:104750007F03002B0BD04FF48053C4F202034FF4BD
:104760008052C4F20202526942F001025A61039B74
:104770001B68039A1268126822F00F021A60039BEA
:104780005B68039A127A4FF00F0101FA02F21A6085
:10479000039B1B684FF000021A60019B002B09D09D
:1047A000039B9B7A1A46029B4FEA03131046194655
:1047B000FCF726FA4FF00003184605B000BD00BF15
:1047C00000B583B00190019B002B05D148F2D87051
:1047D000C0F60000FCF7ECFC019B5B7A4FF0010295
:1047E00002FA03F31A4640F6E413C2F200031B6810
:1047F00002EA0303002B05D148F2F070C0F6000076
:10480000FCF7D6FC019B9B7A1846FCF751FA019BFA
:104810005B7A4FF0010202FA03F36FEA03031A46D0
:1048200040F6E413C2F200031B6802EA030240F6FA
:10483000E413C2F200031A6040F6E413C2F200036C
:104840001B6803F07F03002B0BD14FF48053C4F29D
:1048500002034FF48052C4F20202526922F00102B4
:104860005A6103B000BD00BFAFF30080AFF300801A
:1048700008B54FF4E043C4F200034FF4E042C4F241
:104880000002126842F480721A604FF48053C4F23E
:1048900002031B6A03F44073B3F5407F0DD04FF45D
:1048A0008053C4F202034FF480321A624FF48053F3
:1048B000C4F202034FF000021A624FF48053C4F2B4
:1048C00002031B6A03F40043002B19D14FF48053F9
:1048D000C4F202034FF48052C4F20202126A42F49C
:1048E00040721A6200F014FA4FF48053C4F20203CB
:1048F0004FF48052C4F20202126A42F400421A6279
:1049000008BD00BFAFF30080AFF30080AFF30080BD
:1049100008B54FF48053C4F202031B694FF480536F
:10492000C4F202034FF0FF321A614FF48053C4F215
:1049300002034FF000021A614FF48053C4F20203E5
:10494000DB684FF48053C4F202034FF0FF32DA60A9
:104950004FF48053C4F202034FF00002DA604EF2CB
:104960001003CEF2000341F63F12C0F201025A607A
:104970004EF21003CEF200034FF000029A604EF2A6
:104980001003CEF200034FF007021A604EF6F05308
:10499000CEF200034EF6F052CEF20002D26842F0A0
:1049A0008072DA604FF48053CEF200034FF48052ED
:1049B000CEF20002126842F001021A604FF48053F6
:1049C000C4F202034FF48052C4F20202D26942F0F0
:1049D0008052DA614FF48053C4F202034FF48052E4
:1049E000C4F20202D26942F00062DA61FFF740FFCE
:1049F000FFF726FE08BD00BFAFF30080AFF30080D5
:104A00004FF48053C4F202034FF48052C4F2020206
:104A1000126842F001021A6000BF4FF48053C4F2E2
:104A200002031B6803F00203002BF6D04FF48053FF
:104A3000C4F202034FF48052C4F20202126802F080
:104A4000F9021A604FF48053C4F202034FF00002DF
:104A50005A6000BF4FF48053C4F202035B6803F056
:104A60000C03002BF6D14FF48053C4F202034FF431
:104A70008052C4F20202126842F480321A6000BF0F
:104A80004FF48053C4F202031B6803F40033002B7D
:104A9000F6D04FF48053C4F202034FF48052C4F2B4
:104AA0000202526842F4E8125A604FF48053C4F292
:104AB00002034FF48052C4F20202126842F0807284
:104AC0001A6000BF4FF48053C4F202031B6803F066
:104AD0000073002BF6D04FF48053C4F202034FF45E
:104AE000C842C0F21D025A604FF40053C4F20203E0
:104AF0004FF012021A604FF48053C4F202034FF4D5
:104B00008052C4F20202526842F002025A6000BFB0
:104B10004FF48053C4F202035B6803F00C03082BCC
:104B2000F6D17047AFF30080AFF30080AFF30080A1
:104B300082B001904FF48053C4F202034FF48052CC
:104B4000C4F20202926942F07D029A614FF400635E
:104B5000C4F20103019A1268DA604FF40063C4F2F0
:104B60000103019A92685A604FF40063C4F2010392
:104B7000019A52681A604FF44063C4F20103019A2B
:104B8000D268DA604FF44063C4F20103019A5269BB
:104B90005A604FF44063C4F20103019A12691A602B
:104BA0004FF48053C4F20103019A9269DA604FF422
:104BB0008053C4F20103019A126A5A604FF4805381
:104BC000C4F20103019AD2691A604FF4A053C4F2EF
:104BD0000103019A526ADA604FF4A053C4F2010350
:104BE000019AD26A5A604FF4A053C4F20103019AA9
:104BF000926A1A604FF4C053C4F20103019A126B17
:104C0000DA604FF4C053C4F20103019A926B5A6008
:104C10004FF4C053C4F20103019A526B1A6002B000
:104C2000704700BFAFF30080AFF30080AFF30080A8
:104C300000B583B0FCF72CFA4FF42053C4F2000304
:104C40009B889BB203F00803002BF5D04FF4205350
:104C5000C4F200031B889AB24FF42053C4F200033D
:104C60009B889BB202EA0303ADF806304FF4205351
:104C7000C4F200034FF42052C4F20002928892B2B0
:104C800022F0070292B29A80BDF8063003F00103C9
:104C9000DBB2002B0BD040F62023C2F200031B68CE
:104CA00040F62020C2F200004FF000019847BDF806
:104CB000063003F00203002B0BD040F62023C2F293
:104CC00000031B6840F62020C2F200004FF00101F3
:104CD0009847BDF8063003F00403002B0BD040F6D4
:104CE0002023C2F200031B6840F62020C2F200001D
:104CF0004FF002019847FCF7FBF9FBF7F9FE03B010
:104D000000BD00BFAFF30080AFF30080AFF30080C1
:104D10004FF42053C4F200039B889BB203F020039E
:104D2000002BF5D04FF42053C4F200034FF420526F
:104D3000C4F20002928892B242F0100292B29A80BB
:104D40004FF42053C4F200034FF000021A814FF4D5
:104D50002053C4F200034FF223429A814FF42053B0
:104D6000C4F200034FF42052C4F20002928892B2BF
:104D700022F0100292B29A80704700BFAFF3008019
:104D800008B54FF42053C4F200034FF42052C4F28C
:104D90000002928892B222F0080292B29A804FF4F6
:104DA0002053C4F200039B889BB203F00803002B3E
:104DB000F5D04FF42053C4F200039B889BB203F05C
:104DC0002003002BF5D04FF42053C4F200034FF022
:104DD00000021A8040F62023C2F200034FF00002C6
:104DE0001A604FF003004FF0F001FBF709FF08BD18
:104DF00084B0019000914FF42053C4F200039B88CB
:104E00009BB203F00803002BF5D04FF42053C4F2FB
:104E100000031B8B9BB24FEA03424FF42053C4F2B2
:104E200000039B8B9BB21A44009B1A604FF42053E3
:104E3000C4F200031B8A9BB24FEA03424FF4205393
:104E4000C4F200039B8A9BB213440393009B1A682D
:104E50004FF42053C4F200031B8B9BB24FEA034173
:104E60004FF42053C4F200039B8B9BB20B449A4235
:104E7000CBD1039A4FF61843CFF6FF7303FB02F230
:104E80004AF6B803C0F2B93313444DF68362C4F254
:104E90001B32A2FB03134FEA93339BB21A46009BCB
:104EA0005A6004B0704700BFAFF30080AFF30080DA
:104EB00000B585B001900091009B03F00803002B22
:104EC00001D0FBF7B5FD019B5B6A1B68019A526A32
:104ED0001268126822F00F021A60019B5B6A5B681D
:104EE000019A526A127A4FF00F0101FA02F21A6027
:104EF000019B1B6A1B68019A126A1268126822F0F1
:104F00000F021A60019B1B6A5B68019A126A127A8F
:104F10004FF00F0101FA02F21A60019B5B681B68F7
:104F2000002B11D0019B4FF004021A70019B5B68AB
:104F30001B6801989847019B1B78042B08D1019BA3
:104F40004FF002021A7003E0019B4FF002021A7048
:104F50004FF0200383F31188FCF75AF8019B9B68FC
:104F6000002B0DD0019B9B680393019B4FF0000227
:104F70009A60039B4FF000029A620398FCF740FA94
:104F8000FCF766F84FF0000383F3118805B000BD0D
:104F900000B583B001900091009B03F00803002B43
:104FA00001D0FBF745FD03B000BD00BFAFF30080AB
:104FB00008B540F65423C2F200034FF6FF721A8080
:104FC00040F62420C2F20000FEF702FA40F6242345
:104FD000C2F200034FF46052C4F20002DA6140F6FC
:104FE0002423C2F200030B4A1A6240F62423C2F2C1
:104FF0000003094A5A6240F62423C2F2000341F238
:105000000A029A6240F62423C2F2000341F2180217
:10501000DA6208BDD48A0008E08A0008AFF3008095
:1050200000B585B00190019B1B78012B56D1019AE8
:1050300040F62423C2F200039A423FD1019B1A6A30
:1050400044F6B163C0F6000310464FF00A011A4659
:10505000019BFFF72DFB03468DF80F309DF80F30B5
:10506000002B05D048F61000C0F60000FCF7A0F8B1
:10507000019B5A6A44F69173C0F6000310464FF044
:105080000A011A46019BFFF713FB03468DF80F3008
:105090009DF80F30002B05D048F62400C0F6000024
:1050A000FCF786F84FF48053C4F202034FF48052A9
:1050B000C4F20202D26942F48042DA61019B1B6AA7
:1050C0001B68019AD26902F10C029A60019B5B6A2B
:1050D0001B68019AD26902F10C029A60019B5B681D
:1050E0005B8903F40063002B0CD1019B9B6A23F4C2
:1050F0007062019B9A62019BDB6A23F47062019BE0
:10510000DA620FE0019B9B6A23F4706343F4A062B0
:10511000019B9A62019BDB6A23F4706343F4A062F3
:10512000019BDA62019BDB694FF000021A80019B50
:10513000DB69019A5268528942F4417292B21A8034
:10514000019BDB694FF007029A80019BDB69019AA2
:10515000D269128892B242F0400292B21A8005B02F
:1051600000BD00BFAFF30080AFF30080AFF300805D
:1051700000B583B00190019B1B78022B26D1019BC7
:10518000DB694FF000021A80019BDB694FF00002DF
:105190009A80019B1B6A1846FFF712FB019B5B6A12
:1051A0001846FFF70DFB019A40F62423C2F20003D4
:1051B0009A420BD14FF48053C4F202034FF4805251
:1051C000C4F20202D26922F48042DA6103B000BD67
:1051D00082B00190019B5B685B68019A52681289FA
:1051E0004FF0010101FA02F25A6102B0704700BFAC
:1051F00082B00190019B5B685B68019A52681289DA
:105200004FF0010101FA02F21A6102B0704700BFCB
:1052100082B001900091019B1B6A1A6840F65623E8
:10522000C2F20003D360019B1B6A1B68009A5A609C
:10523000019B1B6A1B68019A926A1A60019B5B6A58
:105240001A6840F65423C2F20003D360019B5B6AE4
:105250001B68009A5A60019B5B6A1B68019AD26ABC
:105260001A60019B1B6A1B68019A126A1268126815
:1052700042F001021A60019B5B6A1B68019A526A44
:105280001268126842F001021A6002B0704700BF53
:1052900084B0039002910192039B1B6A1A6840F646
:1052A0005623C2F20003D360039B1B6A1B68029A59
:1052B0005A60039B1B6A1B68039A926A1A60039BDD
:1052C0005B6A1B68019ADA60039B5B6A1B68029A3F
:1052D0005A60039B5B6A1B68039AD26A42F08002A1
:1052E0001A60039B1B6A1B68039A126A1268126891
:1052F00042F001021A60039B5B6A1B68039A526AC0
:105300001268126842F001021A6004B0704700BFD0
:1053100084B0039002910192039B1B6A1B68019A5F
:10532000DA60039B1B6A1B68029A5A60039B1B6A24
:105330001B68039A926A42F080021A60039B5B6AC0
:105340001A6840F65423C2F20003D360039B5B6AE1
:105350001B68029A5A60039B5B6A1B68039AD26AB5
:105360001A60039B1B6A1B68039A126A1268126810
:1053700042F001021A60039B5B6A1B68039A526A3F
:105380001268126842F001021A6004B0704700BF50
:1053900000B585B001900B46ADF802304FF0000328
:1053A0000393BDF8023003F00803002B03D0039BE6
:1053B00043F080030393BDF8023003F00103DBB236
:1053C000002B03D0039B43F020030393BDF802306E
:1053D00003F00203002B03D0039B43F0400303932D
:1053E000BDF8023003F00403002B03D0039B43F409
:1053F00080730393019B03F1040318460399FCF7A0
:1054000097FB05B000BD00BFAFF30080AFF3008095
:1054100000B587B00190019B5B6F0493049B9B894F
:10542000ADF80E30049B1B88ADF81630BDF8163071
:1054300003F48073002B17D04FF0200383F31188FF
:10544000FBF7E6FD019B03F1040318464FF40071DE
:10545000FCF76EFBFBF7FCFD4FF0000383F31188B4
:10546000049B4FF6FF621A804FF0200383F31188EC
:10547000FBF7CEFD17E0BDF8163003F00F03002B4D
:1054800005D0BDF8163001981946FFF781FF049B3F
:105490009B889BB2DBB201981946FDF751FF049B34
:1054A0001B88ADF81630BDF8163003F02003002B32
:1054B000E1D1FBF7CDFD4FF0000383F31188BDF878
:1054C0000E3003F08003002B34D0BDF8163003F00B
:1054D0008003002B2ED04FF0200383F31188FBF7BD
:1054E00097FD019B03F130031846FCF7A1FD03462D
:1054F0000293029B002B13DA019B03F1040318466D
:105500004FF00801FCF714FBBDF80E3023F0C00388
:105510009BB243F040039BB29AB2049B9A8103E092
:10552000029B9AB2049B9A80FBF792FD4FF0000316
:1055300083F31188BDF8163003F04003002B1ED012
:105540004FF0200383F31188FBF762FD019B03F109
:10555000040318464FF01001FCF7EAFAFBF778FD58
:105560004FF0000383F31188BDF80E3023F0C00321
:105570009AB2049B9A81049B4FF6BF721A8007B0BF
:1055800000BD00BFAFF30080AFF30080AFF3008039
:1055900082B001904FF48843C4F200034FF4884274
:1055A000C4F20002928992B242F0800292B29A81D1
:1055B00002B07047AFF30080AFF30080AFF300801C
:1055C00008B5FBF765FD40F65820C2F20000FFF772
:1055D0001FFFFBF78DFDFBF78BFA08BDAFF30080D3
:1055E00008B540F65820C2F200004FF0000145F225
:1055F0009152C0F60002FDF76BFE40F65823C2F24E
:1056000000034FF48842C4F200025A6708BD00BF8D
:1056100084B00190019B1B680393039B1A68019B54
:105620001A60019B1B68019A5A60039B184604B0DC
:10563000704700BFAFF30080AFF30080AFF300808E
:1056400082B00190019B4FF04002C3F8802002B06D
:10565000704700BFAFF30080AFF30080AFF300806E
:1056600000B585B001900091019BD3F88030039381
:10567000019BD3F88020009B1A44019BC3F8802033
:10568000019BD3F88030B3F5007F05D948F6400080
:10569000C0F60000FBF78CFD039B184605B000BD6B
:1056A00086B0039002910192039B9B6803F1005323
:1056B00003F540534FEA43030593019B03F10103B4
:1056C0004FEA5303019310E0029B059A126892B2CD
:1056D0001A80059B03F104030593029B03F1020367
:1056E0000293019B03F1FF330193019B002BEBD14C
:1056F00006B07047AFF30080AFF30080AFF30080D7
:1057000000B589B0039002910192039B9B6803F15D
:10571000005303F540534FEA43030693019B4FEABE
:105720005303079332E0069B1B680593069B03F126
:1057300004030693029B5B69059AD2B21A7003F1C7
:105740000102029B5A61029B5A69029B1B699A42A1
:1057500003D3029BDA68029B5A61029B5B69059A3C
:105760004FEA1222D2B21A7003F10102029B5A616F
:10577000029B5A69029B1B699A4203D3029BDA6817
:10578000029B5A61079B03F1FF330793079B002B92
:10579000C9D1019B03F00103DBB2002B13D0029BA4
:1057A0005B69069A1268D2B21A7003F10102029B79
:1057B0005A61029B5A69029B1B699A4203D3029B5E
:1057C000DA68029B5A614FF0200383F31188FBF7DC
:1057D0001FFC029B9A68019B1A44029B9A600BE093
:1057E000029B1846FFF714FF03461846FBF708FE16
:1057F00003464FF000029A62029B1A68029B9A428B
:10580000EED1FBF725FC4FF0000383F3118809B0BC
:1058100000BD00BFAFF30080AFF30080AFF30080A6
:1058200086B0039002910192039B1B6803F1005321
:1058300003F540534FEA43030593019B9AB2039B40
:105840009A80019B03F101034FEA5303019310E097
:10585000029B1B881A46059B1A60059B03F10403F3
:105860000593029B03F102030293019B03F1FF33B3
:105870000193019B002BEBD106B07047AFF3008082
:1058800000B589B0039002910192039B1B6803F15C
:10589000005303F540534FEA43030693019B9AB22A
:1058A000039B9A80019B4FEA5303079333E0029BCB
:1058B0009B691A78059203F10102029B9A61029B8F
:1058C0009A69029B1B699A4203D3029BDA68029B86
:1058D0009A61029B9B691A784FEA0222059941EA74
:1058E0000202059203F10102029B9A61029B9A69EE
:1058F000029B1B699A4203D3029BDA68029B9A615E
:10590000069B059A1A60069B03F104030693079B06
:1059100003F1FF330793079B002BC8D1019B03F0D2
:105920000103DBB2002B13D0029B9B691A7811464E
:10593000069A116003F10102029B9A61029B9A6927
:10594000029B1B699A4203D3029BDA68029B9A610D
:105950004FF0200383F3118840F68013C2F2000356
:105960004FF001021A60029B9A68019B1A44029B45
:105970009A600BE0029B1846FFF74AFE0346184662
:10598000FBF73EFD03464FF000029A62029B1A6845
:10599000029B9A42EED140F68013C2F200034FF010
:1059A00000021A604FF0000383F3118809B000BDB4
:1059B00008B5FBF76DFBFBF79BFBFBF799F808BD00
:1059C00000B58BB040F6D023C2F200030793FBF77B
:1059D0005FFB4FF4B843C4F200035B6C0993099B6F
:1059E00003F48063002B15D00798FEF7A1FA079BFC
:1059F0005B681B68002B06D0079B5B681B680798D9
:105A00004FF0000198474FF4B843C4F200036FF41D
:105A100080625A64099B03F40063002B1ED04FF48C
:105A2000B843C4F200034FF4B842C4F20002126C4F
:105A300042F008021A64079B5B681B68002B06D0C3
:105A4000079B5B681B6807984FF0030198474FF46A
:105A5000B843C4F200036FF400625A64099B03F474
:105A60008053002B29D04FF4B843C4F200039B6C41
:105A70000693069B03F40043002B17D14FF4B84361
:105A8000C4F200034FF4B842C4F20002126C22F0D8
:105A900008021A64079B5B681B68002B06D0079BF3
:105AA0005B681B6807984FF0040198474FF4B843B0
:105AB000C4F200036FF480525A64099B03F400732C
:105AC000002B00F0A281079B5B68DB68002B04D0F1
:105AD000079B5B68DB68079898474FF4B843C4F2AC
