:020000040800F2
:100000000004002011010008E1010008E1010008DE
:10001000E1010008E1010008E1010008E101000838
:10002000E1010008E1010008E101000821020008E7
:10003000E1010008E1010008E101000801020008F7
:10004000E1010008E1010008E10100084130000879
:10005000E1010008E1010008E1010008E1010008F8
:10006000E1010008E1010008E1010008B1280008F1
:10007000F12800084129000891290008E129000819
:10008000312A0008812A0008E1010008E101000886
:10009000E1010008E1010008E1010008E1010008B8
:1000A000E101000841370008E1010008713700084C
:1000B000E1010008E101000811380008E101000831
:1000C000E1010008E1010008E1010008E101000888
:1000D000E1010008E1010008513A0008E1010008CF
:0C00E000E1010008E1010008E101000856
:1000F000704700BFAFF30080AFF30080AFF3008024
:10010000FEE700BFAFF30080AFF30080AFF30080E5
:1001100072B6264C84F309884FF0020484F31488E5
:10012000BFF36F8F224C234D04E04FF05533236013
:1001300004F10404AC42F8D31F4C1C4D04E04FF012
:100140005533236004F10404AC42F8D303F0A8FC57
:100150001A4D1B4C05E02B68236004F1040405F1E3
:100160000405184B9C42F6D3174C184D04E04FF091
:100170000003236004F10404AC42F8D3FFF7B8FF96
:10018000134C03E02368984704F10404114B9C428C
:10019000F8D303F0ADFE104C03E02368984704F158
:1001A00004040E4B9C42F8D3FFF7AAFF000800207E
:1001B000000000200004002000040020704300081C
:1001C000000800200008002000080020A40C0020E7
:1001D000EC000008EC000008EC000008EC0000084F
:1001E000FEE700BFAFF30080AFF30080AFF3008005
:1001F00072B6FEE7AFF30080AFF30080AFF300808C
:1002000008B54FF0200383F3118800F0C1F94FF0D7
:10021000000383F3118800F03BF808BDAFF30080C2
:1002200010B483B0EFF309840194019B03F1200320
:100230000193019B83F309884FF0000383F3118836
:1002400003B010BC704700BFAFF30080AFF3008075
:1002500008B50D4B4FF000029A600B4B0B4ADA6069
:100260004FF007004FF0100100F012F94FF00A00B4
:100270004FF0200100F00CF94FF00B004FF080011F
:1002800000F006F908BD00BF00ED00E00003FA052C
:1002900010B483B04FF0200383F31188204B5B68C8
:1002A00003F40063002B33D0EFF309840194019B26
:1002B000A3F120030193019B83F30988019B4FF075
:1002C0008072DA61174B9B69DB7F002B0BD0154BDB
:1002D0001B689A68134B9B699B689A4294BF0023E2
:1002E0000123DBB20AE00F4B1B689A680D4B9B6938
:1002F0009B689A4234BF00230123DBB2002B03D05A
:10030000019B094A9A6107E0019B084A9A6103E050
:100310004FF0000383F3118803B010BC704700BF97
:1003200000ED00E018090020310300083403000844
:1003300000F0AEFB00DF00BFAFF30080AFF3008042
:1003400003460A462DE9F04FC2F80CD0D3F80CD082
:10035000BDE8F08FAFF30080AFF30080AFF3008013
:100360004FF0000383F311882846A04700F068FC93
:10037000704700BFAFF30080AFF30080AFF30080A1
:1003800010B485B001900091019B03F003034FEA84
:10039000C30303931E4B019A4FEA92021C49019832
:1003A0004FEA900000F1C00051F8200003994FF08F
:1003B000FF0404FA01F16FEA010108400399009C6F
:1003C00004FA01F140EA010102F1C00243F82210EF
:1003D0000F4B019A4FEA5212019901F01F014FF0A1
:1003E000010000FA01F102F1600243F82210084B0B
:1003F000019A4FEA5212019901F01F014FF00100DA
:1004000000FA01F143F8221005B010BC704700BF9C
:1004100000E100E0AFF30080AFF30080AFF30080B5
:1004200010B485B00190019B03F003034FEAC303AE
:100430000393154B019A4FEA5212019901F01F01E3
:100440004FF0010000FA01F102F1200243F82210FE
:100450000D4B019A4FEA92020B4901984FEA900026
:1004600000F1C00051F8200003994FF0FF0404FA96
:1004700001F16FEA010100EA010102F1C00243F853
:10048000221005B010BC704700E100E0AFF300801F
:1004900010B485B001900091019B03F003034FEA73
:1004A000C3030393104B019A4FEA92020E4901983D
:1004B0004FEA900000F1060051F8200003994FF038
:1004C000FF0404FA01F16FEA010108400399009C5E
:1004D00004FA01F140EA010102F1060243F8221098
:1004E00005B010BC704700BF00ED00E0AFF3008026
:1004F00082B00190024B9B69024A9A61FEE700BFFD
:1005000018090020103F0008AFF30080AFF300800F
:1005100000B583B0FFF79CFE00F03AF900F088F8D0
:1005200001F006F801F05CF811484FF0400100F0CE
:10053000CFFA02460F4B9A610E4B9B694FF00102B6
:100540001A774FF0000383F3118862B6094B9B6959
:10055000094A9A61094B4FF00002009208484FF097
:10056000C0014FF0010200F033FB03B000BD00BF3B
:10057000C008002018090020303F0008F1040008DE
:1005800000080020AFF30080AFF30080AFF30080DD
:1005900000B583B0244B9B69DB7F002B06D0224B38
:1005A0009B69DA7F02F1FF32D2B2DA771E4B9B6988
:1005B0001A6A02F101021A621C4BDB6803F10102A4
:1005C0001A4BDA60194B1B681A46184B9A4229D00D
:1005D000164B1B689A6802F1FF329A601BE0019B80
:1005E000DB680093019B4FF00002DA60019B1B68FF
:1005F0000E4A5A60019B1A680C4B1A604FF00003B8
:1006000083F31188019B1A69009B104698474FF0AD
:10061000200383F31188054B1B680193019B9B68A2
:10062000002BDCD003B000BD180900200809002011
:10063000074A074B5A60064B5A68054B1A60044B31
:100640004FF0FF329A60024B4FF00002DA607047C1
:1006500008090020AFF30080AFF30080AFF3008003
:1006600086B00390029101920093039B002B04D06B
:10067000019B002B01D0029B002B039B009A1A6167
:10068000039B019ADA60184B1B68059307E0059BF2
:100690009B68029AD31A0293059B1B680593059BDE
:1006A0009A68029B9A42F2D3039B059A1A60039BB5
:1006B0001B685A68039B5A60039B5B68059A039901
:1006C0005160059A52681A60039B029A9A60059AD3
:1006D000054B9A4205D0059B9A68029BD21A059B4E
:1006E0009A6006B0704700BF08090020AFF3008091
:1006F00082B00190019B1A680D4B9A4208D0019B71
:100700001B68019A12689168019A92688A189A6027
:10071000019B5B68019A12681A60019B1B68019A31
:1007200052685A60019B4FF00002DA6002B07047D5
:1007300008090020AFF30080AFF30080AFF3008022
:1007400084B00190019B1B680393039B1A68019B73
:100750001A60019B1B68019A5A60039B184604B0FB
:10076000704700BFAFF30080AFF30080AFF30080AD
:1007700082B00190019B5B68019A12681A60019B2C
:100780001B68019A52685A60019B184602B0704774
:10079000094A094B5A60084B5A68074B1A60064BC6
:1007A0004FF000029A60044A034B5A61024B5A69A7
:1007B000014B1A61704700BF18090020AFF3008099
:1007C00084B00190019B1B7F002B03D0019B1B7FFA
:1007D0000E2B00BF019B4FF000021A770E4B0393C4
:1007E000039B1B680393039B9A68019B9B689A4237
:1007F000F6D2019B039A1A60039B5A68019B5A60C8
:10080000019B5B68039A01995160039A52681A60D0
:10081000019B184604B0704718090020AFF3008010
:1008200000B585B003468DF807300F4B9B690393E5
:10083000039B9DF807201A77039B4FF01402DA7789
:100840000948FFF77DFF0246074B9A61064B9B69FB
:100850004FF001021A77044B9B6918460399FFF782
:100860006FFD05B000BD00BF18090020AFF3008088
:1008700000B585B00190019B03934FF0200383F3F3
:100880001188039B1B7F0D2B2CD801A252F823F05B
:10089000C9080008E5080008E5080008D3080008B2
:1008A000E5080008DF080008E5080008E50800087A
:1008B000E5080008E5080008E5080008E508000864
:1008C000E5080008DF0800084FF0000383F31188F3
:1008D00013E0039B5B6A9A6802F101029A60039835
:1008E000FFF746FF039B4FF0FF325A620398FFF772
:1008F00067FF4FF0000383F3118805B000BD00BF10
:1009000000B589B0034600918DF80730009BB3F124
:10091000FF3F14D00F4B9B6903AA104600990E4A63
:10092000FFF79EFE9DF807301846FFF779FF069BFC
:10093000002B09D003AB1846FFF7DAFE04E09DF860
:1009400007301846FFF76CFF024B9B695B6A18463D
:1009500009B000BD1809002071080008AFF300803D
:1009600000B585B001900091019B009A5A62019BED
:100970009A680E4B9B699B689A4203D80198FFF7CF
:100980001FFF10E0094B9B691846FFF719FF039002
:10099000064B019A9A61019B4FF001021A77019868
:1009A0000399FFF7CDFC05B000BD00BF180900207A
:1009B00008B5054B1B689A68034B9B699B689A4274
:1009C00001D900F02DF808BD18090020AFF3008010
:1009D00000B583B00E4B9B6901930D48FFF7B0FE45
:1009E00002460B4B9A610A4B9B694FF001021A7742
:1009F000019B4FF01402DA770198FFF7E1FE044BF8
:100A00009B6918460199FFF79BFC03B000BD00BF2E
:100A100018090020AFF30080AFF30080AFF300802F
:100A200000B583B0194B9B6900931848FFF788FE07
:100A30000246164B9A61154B9B694FF001021A77DB
:100A4000009B4FF000021A77104B0193019B1B682B
:100A50000193019B9A68009B9B689A42F6D8009B81
:100A6000019A1A60019B5A68009B5A60009B5B6860
:100A7000019A00995160019A52681A60034B9B6970
:100A800018460099FFF75CFC03B000BD1809002070
:100A900008B5054B9B69DB7F002B02D1FFF798FF60
:100AA00001E0FFF7BDFF08BD18090020AFF300808B
:100AB00084B00190019B1B680393039B1A68019B00
:100AC0001A60039B184604B0704700BFAFF3008064
:100AD00082B001900091019B009A9A60019B4FF0B7
:100AE00002021A77019B4FF000025A77019B4FF0E8
:100AF0001402DA77019B009A1A64019B4FF00002FE
:100B0000DA63019B4FF000029A63019B4FF00002F1
:100B10001A62019B4FF001029A77019B4FF000028D
:100B20009A61114A019B1A610F4B5A69019B5A61E4
:100B3000019B5B690C4A019951610B4A52691A6128
:100B4000019B03F128031A46019B9A62019B03F162
:100B50002C031A46019B1A63019B1A6B019BDA62F4
:100B6000019B184602B0704718090020AFF30080BF
:100B700000B587B00390029101920093039B059307
:100B8000039B002B07D0029BAF2B04D9019B7F2B2B
:100B900001D8009B002B039A029BA3F12403D218D7
:100BA000059BDA60059BDB68009A1A60059BDB6891
:100BB000089A5A60059BDB68044A1A6205980199F5
:100BC000FFF786FF0346184607B000BD6103000823
:100BD00000B589B005900491039202934FF0200371
:100BE00083F311880A9B009305980499039A029B4A
:100BF000FFF7BEFF079007984FF00001FFF7B0FE28
:100C00004FF0000383F31188079B184609B000BD1D
:100C100000B583B001904FF0200383F311884FF0AB
:100C200006000199FFF76CFE4FF0000383F3118873
:100C300003B000BDAFF30080AFF30080AFF30080DE
:100C400000B583B001904FF0200383F31188019821
:100C500000F006F803B000BDAFF30080AFF30080F2
:100C600000B585B00190174B9B690393039B019AD4
:100C70005A6209E0039B03F128031846FFF718FFA7
:100C800003461846FFF79CFD039B9A6A039B03F1FA
:100C900028039A42EED1039B5B7F03F00303002BF2
:100CA00009D1039B5B69039A12691A61039B1B6953
:100CB000039A52695A614FF00E00FFF7B1FD05B07B
:100CC00000BD00BF18090020AFF30080AFF3008023
:100CD00082B001900091009A019B1A60009B5A68B3
:100CE000019B5A60019B5B68009A01995160009AD0
:100CF00052681A6002B07047AFF30080AFF3008013
:100D000084B00190019B1B680393039B1A68019BAD
:100D10001A60019B1B68019A5A60039B184604B035
:100D2000704700BFAFF30080AFF30080AFF30080E7
:100D300082B001900091019B002B01D0009B002B01
:100D4000019B1A46019B5A60019B5A68019B1A60DD
:100D5000019B009A9A6002B0704700BFAFF3008019
:100D600000B583B001900091019B9B68002B04DBD0
:100D7000019B1A68019B9A4208D0019B9B68002B3B
:100D800005DA019B1A68019B9A4200E000BF019BB3
:100D90009B6803F1FF32019B9A60019B9B68002BCB
:100DA0001DDA009B002B08D1019B9B6803F1010217
:100DB000019B9A604FF0FF3313E00B4B9B69019A44
:100DC0005A62094B9A69019B10461946FFF780FF4A
:100DD0004FF003000099FFF793FD034601E04FF049
:100DE0000003184603B000BD18090020AFF30080CF
:100DF00000B585B00190019B9B68002B04DB019B33
:100E00001A68019B9A4208D0019B9B68002B05DA67
:100E1000019B1A68019B9A4200E000BF019B9B68FE
:100E200003F10102019B9A60019B9B68002B0BDC84
:100E3000019B1846FFF764FF0390039B4FF00002ED
:100E40005A620398FFF7BCFC05B000BDAFF3008009
:100E500082B00190019B1A46019B5A60019B5A681F
:100E6000019B1A60019B4FF000029A6002B070472C
:100E700000B585B001900091019B1B68039310E0C1
:100E8000039BDA68009B1A43039BDA60039B5A6852
:100E9000039B9B681046194600F00AF8039B1B68E9
:100EA0000393019B039A9A42EAD105B000BD00BFAB
:100EB00000B583B001900091019B9A6B009B1A438F
:100EC000019B9A63019B1B7F082B07D1019B9A6BA7
:100ED000019B5B6A02EA0303002B0CD1019B1B7F81
:100EE000092B0FD1019B9A6B019B5B6A1A40019BF6
:100EF0005B6A9A4206D10198FFF762FC03464FF005
:100F000000025A6203B000BDAFF30080AFF300806F
:100F100000B585B0039002910192039B002B04D091
:100F2000029B002B01D0019B002B039B029ADA60ED
:100F3000039BDA68039B9A60039B9A68039B1A6081
:100F4000019B4FEA8303029AD218039B5A60039BCA
:100F500003F11C0318460199FFF7EAFE039B03F116
:100F6000100318464FF00001FFF7E2FE05B000BD88
:100F700000B587B00390029101924FF0200383F3F4
:100F8000118803980299019A00F00AF805904FF031
:100F9000000383F31188059B184607B000BD00BF0E
:100FA00000B587B0039002910192039B002B01D002
:100FB000029B002B039B03F1100318460199FFF7D6
:100FC000CFFE0590059B002B1AD1039BDB681968A7
:100FD000029A116003F10402039BDA60039BDA6852
:100FE000039B5B689A4203D3039B1A68039BDA60F6
:100FF000039B03F11C031846FFF7FAFEFFF7D8FC2A
:10100000059B184607B000BDAFF30080AFF300802A
:1010100082B001900091009A019B1A60009B5A686F
:10102000019B5A60019B5B68009A01995160009A8C
:1010300052681A6002B07047AFF30080AFF30080CF
:1010400084B00190019B1B680393039B1A68019B6A
:101050001A60019B1B68019A5A60039B184604B0F2
:10106000704700BFAFF30080AFF30080AFF30080A4
:1010700000B583B001900091009B002B02D14FF08E
:10108000FF3310E0094B9B69019A5A62074B9A693A
:10109000019B10461946FFF7BBFF4FF00D0000996A
:1010A000FFF72EFC0346184603B000BD18090020C8
:1010B00084B00390029101920093039B1A46039B14
:1010C0005A60039B5A68039B1A60039B4FF000020F
:1010D0009A60039B029A5A61039B5A69039B9A6127
:1010E000039B9A69039BDA60029A019BD218039BC7
:1010F0001A61039B009ADA61039B049A1A6204B096
:10110000704700BFAFF30080AFF30080AFF3008003
:1011100000B583B001900B468DF80330019B5A69EE
:10112000019B9B699A4206D1019B9B68002B02D0D0
:101130004FF0010301E04FF00003DBB2002B02D0BF
:101140006FF003032BE0019B9B6803F10102019BFD
:101150009A60019B5B699DF803201A7003F10102FC
:10116000019B5A61019B5A69019B1B699A4203D3F7
:10117000019BDA68019B5A61019B1A68019B9A42A4
:101180000BD0019B1846FFF75BFF03461846FFF79D
:1011900017FB03464FF000025A624FF00003184657
:1011A00003B000BDAFF30080AFF30080AFF3008069
:1011B00000B585B0019000914FF0200383F31188B2
:1011C000019BDB69002B12D0019BDB6901989847DA
:1011D0000EE001980099FFF74BFF0390039B002B53
:1011E00006DA4FF0000383F31188039B23E000BF6E
:1011F000019B9B68002BECD0019B9B6803F1FF32A5
:10120000019B9A60019B9B691A788DF80B2003F172
:101210000102019B9A61019B9A69019B1B699A4299
:1012200003D3019BDA68019B9A614FF0000383F3BB
:1012300011889DF80B30184605B000BDAFF3008053
:1012400000B587B00390029101920093039BDB6984
:1012500004934FF0000305934FF0200383F31188AC
:10126000049B002B10D0049B039898470DE0039833
:101270000099FFF7FDFE0346002B06D04FF0000358
:1012800083F31188059B37E000BF039B9B68002B0D
:10129000EDD0039B9B6803F1FF32039B9A60039B95
:1012A0009B691978029A1170029A02F10102029266
:1012B00003F10102039B9A61039B9A69039B1B69DB
:1012C0009A4203D3039BDA68039B9A614FF00003B1
:1012D00083F31188059B03F101030593019B03F13F
:1012E000FF330193019B002B01D1059B04E04FF0DC
:1012F000200383F31188B3E7184607B000BD00BF91
:1013000084B00390029101920093039B1A46039BC1
:101310005A60039B5A68039B1A60039B019A9A6068
:10132000039B029A5A61039B5A69039B9A61039B30
:101330009A69039BDA60029A019BD218039B1A6197
:10134000039B009ADA61039B049A1A6204B0704707
:1013500000B587B003900B4601928DF80B304FF02B
:10136000200383F311880DE003980199FFF780FEB5
:101370000590059B002B05DA4FF0000383F31188DD
:10138000059B2AE0039B9B68002BEDD0039B9B6889
:1013900003F1FF32039B9A60039B5B699DF80B206E
:1013A0001A7003F10102039B5A61039B5A69039B64
:1013B0001B699A4203D3039BDA68039B5A61039B20
:1013C000DB69002B03D0039BDB69039898474FF040
:1013D000000383F311884FF00003184607B000BDE7
:1013E00000B585B00190019B5A69019B9B699A42A7
:1013F00006D1019B9B68002B02D04FF0010301E056
:101400004FF00003DBB2002B02D06FF002032BE0A1
:10141000019B9B6803F10102019B9A60019B9B6900
:101420001A788DF80F2003F10102019B9A61019B4C
:101430009A69019B1B699A4203D3019BDA68019B5D
:101440009A61019B1A68019B9A420BD0019B184636
:10145000FFF7F6FD03461846FFF7B2F903464FF0D3
:1014600000025A629DF80F30184605B000BD00BF5B
:1014700000B587B00390029101920093039BDB6952
:1014800004934FF0000305934FF0200383F311887A
:101490000CE003980099FFF7EBFD0346002B05D005
:1014A0004FF0000383F31188059B3DE0039B9B688D
:1014B000002BEED0039B9B6803F1FF32039B9A60E5
:1014C000039B5B69029A12781A7003F10102039B75
:1014D0005A61029B03F101030293039B5A69039B28
:1014E0001B699A4203D3039BDA68039B5A61049BEE
:1014F000002B02D0049B039898474FF0000383F31E
:101500001188059B03F101030593019B03F1FF3350
:101510000193019B002B01D1059B05E04FF02003B7
:1015200083F3118800BFC1E7184607B000BD00BFB4
:10153000074B03F1070323F007031A46054B1A6014
:10154000054B23F007031A46044B1A60704700BF8F
:10155000A40C0020340900200020002038090020BD
:1015600000B585B001904FF0200383F311880198F6
:1015700000F00EF803904FF0000383F31188039BF3
:10158000184605B000BD00BFAFF30080AFF3008088
:1015900084B00190019B03F1070323F0070301933B
:1015A0000C4B1B681A460C4B1B68D31A1A46019B3E
:1015B0009A4202D24FF0000309E0074B1B680393E5
:1015C000054B1A68019BD218034B1A60039B1846FF
:1015D00004B070473809002034090020AFF30080C0
:1015E00008B5074B074A1A60054B4FF000029A6096
:1015F000034B4FF00002DA600348FFF729FC08BDF7
:10160000400900206115000850090020AFF3008058
:1016100008B501F05DFB01F00BF9094801F048FC49
:1016200000F016F800F07CFE00F04AFF00F0B0FF7A
:1016300000F0A6FA00F08CFE02F03AFA08BD00BFF6
:1016400040410008AFF30080AFF30080AFF30080AB
:1016500008B501F0E5FB08BDAFF30080AFF30080F3
:1016600000B583B00190019B4FF001021A70019BFD
:101670004FF000025A60019B4FF000029A60019BFC
:101680004FF00002DA60019B4FF000021A61019BEB
:101690004FF000025A61019B03F118031846FFF74F
:1016A000D7FB03B000BD00BFAFF30080AFF30080F5
:1016B00000B585B00390029101920093039B1846F8
:1016C000029900F0BDFB0346002B15D04FF001033B
:1016D00021E0039B1846019900F0FAFB0346002B1A
:1016E00002D04FF0010316E0019B03F50073019354
:1016F000009B03F1FF330093009B002BE9D1039B78
:10170000184600F03DFC0346002B02D04FF00103C9
:1017100001E04FF00003184605B000BDAFF30080B4
:1017200000B585B00390029101920093039B184687
:10173000029900F04DFC0346002B15D04FF0010339
:1017400021E0039B1846019900F08AFC0346002B18
:1017500002D04FF0010316E0019B03F500730193E3
:10176000009B03F1FF330093009B002BE9D1039B07
:10177000184600F0CDFC0346002B02D04FF00103C9
:1017800001E04FF00003184605B000BDAFF3008044
:1017900084B00346029101928DF80F300FE09DF85E
:1017A0000F304FEA4302029B1B7882EA03030C4A84
:1017B000D35C8DF80F30029B03F101030293019B70
:1017C000002B0CBF00230123DBB2019A02F1FF3290
:1017D0000192002BE3D19DF80F30184604B07047FA
:1017E000703F0008AFF30080AFF30080AFF30080DC
:1017F00000B585B001904FF00003039311E0019B09
:10180000DB6A1A6802AB10464FF001011A4600F07D
:101810009FFF9DF80830FF2B19D0039B03F10103B4
:101820000393039B0F2BEADD019BDB6A1A6802AB73
:1018300010464FF001011A4600F08AFF9DF808306B
:10184000FF2B06D04FF00100FFF7E2F9ECE700BFF5
:1018500000E000BF05B000BDAFF30080AFF3008033
:1018600000B587B003900B4601928DF80B300398BA
:10187000FFF7BEFF9DF80B3043F04003DBB28DF85D
:101880001030019B4FEA1363DBB28DF81130019BDE
:101890004FEA1343DBB28DF81230019B4FEA13235A
:1018A000DBB28DF81330019BDBB28DF8143004AB42
:1018B0004FF0000019464FF00502FFF769FF03469D
:1018C0004FEA4303DBB243F00103DBB2DBB28DF836
:1018D0001530039BDB6A1A6804AB10464FF0060113
:1018E0001A4600F005FF07B000BD00BFAFF300804F
:1018F00000B585B001904FF00003039314E0019B05
:10190000DB6A1A6802AB10464FF001011A4600F07C
:101910001FFF9DF80830FF2B02D09DF8083008E02B
:10192000039B03F101030393039B082BE7DD4FF0B7
:10193000FF03184605B000BDAFF30080AFF3008091
:1019400000B585B0019000910198FFF7D1FF0346E3
:101950008DF80F30019BDB6A1B6818464FF00401BD
:10196000009A00F0F5FE9DF80F30184605B000BD56
:1019700000B587B003900B4601928DF80B30039BA6
:10198000DB6A1B68184600F06BFE9DF80B3003986D
:101990001946019AFFF764FF0398FFF7A9FF034672
:1019A0008DF81730039BDB6A1B68184600F068FE51
:1019B0009DF81730184607B000BD00BFAFF3008098
:1019C00000B587B00390019200930B468DF80B3061
:1019D000039BDB6A1B68184600F042FE9DF80B3043
:1019E00003981946019AFFF73BFF03980099FFF708
:1019F000A7FF03468DF81730039BDB6A1B68184668
:101A000000F03EFE9DF81730184607B000BD00BF3D
:101A100000B58DB003900B4601928DF80B30039BFF
:101A2000DB6A1B68184600F01BFE9DF80B3003981C
:101A300019464FF00002FFF713FF0398FFF758FF16
:101A40000346002B08D0039BDB6A1B68184600F096
:101A500017FE4FF0010363E04FF000030B9358E0D3
:101A6000039BDB6A1A6805AB10464FF001011A466A
:101A700000F06EFE9DF81430FE2B46D1039BDB6A0E
:101A80001A6805AB10464FF010011A4600F060FED0
:101A900005AB0A93019B03F10C03099320E00A9B19
:101AA0001B784FEA03620A9B03F101031B784FEA9C
:101AB00003431A430A9B03F102031B784FEA0323F3
:101AC0001A430A9B03F103031B781A43099B1A600C
:101AD0000A9B03F104030A93099BA3F104030993EE
:101AE000099A019B9A42DAD2039BDB6A1B6818466B
:101AF0004FF0020100F0D4FD039BDB6A1B6818461F
:101B000000F0BEFD4FF000030AE00B9B03F1010360
:101B10000B930B9A42F20F739A42A1D94FF0010333
:101B200018460DB000BD00BFAFF30080AFF30080DA
:101B300000B585B00190019BDB6A1B68184600F078
:101B40008FFD019BDB6A1A6803AB10464FF0010161
:101B50001A4600F0FDFD9DF80C30FF2B07D1019BCC
:101B6000DB6A1B68184600F08BFD05B000BD4FF026
:101B70000100FFF74DF8E4E7AFF30080AFF300801A
:101B8000704700BFAFF30080AFF30080AFF3008079
:101B900082B00190019B084A1A60019B4FF001023C
:101BA0001A71019B4FF00002DA62019B4FF00002B4
:101BB00083F8302002B07047503F0008AFF3008038
:101BC00000B587B00190019B1B79022B03D0019BCC
:101BD0001B79052B00BF019B4FF003021A71019B7B
:101BE000DB6A1A68019BDB6A5B681046194600F0E5
:101BF000EFFC019BDB6A1B6818464FF0100100F0F8
:101C00004FFD4FF00003059301984FF000014FF096
:101C10000002FFF7ADFE0346012B0BD103AB019889
:101C20004FF008014FF4D572FFF7CAFE0346052BAB
:101C30000DD143E0059B03F101030593059B092B9F
:101C400000F29E804FF00A00FEF7E2FFDCE74FF063
:101C50000003059301984FF037014FF00002FFF7A2
:101C600087FE0346012B18D103AB01984FF02901E1
:101C7000524AFFF7A5FE0346002B0ED103AB019895
:101C80004FF03A014FF00002FFF79AFE9DF80C303A
:101C900003F04003002B0CD110E0059B03F101037E
:101CA0000593059B632B6DD84FF00A00FEF7B0FF3C
:101CB000D0E7019B4FF0010283F830204FF0000382
:101CC000059301984FF001014FF00002FFF750FE1D
:101CD00003468DF813309DF81330002B14D1019B6F
:101CE000DB6A1A68019BDB6A9B681046194600F0A4
:101CF0006FFC01984FF010014FF40072FFF738FEAF
:101D00000346002B40D10FE09DF81330012B3DD14D
:101D1000059B03F101030593059B632B38D84FF016
:101D20000A00FEF775FFCCE7019B03F11803019849
:101D30004FF009011A46FFF76BFE0346002B29D12D
:101D4000019B03F11803184600F0A2FA0246019B1A
:101D50009A62019B9B6A002B1ED0019B03F1080332
:101D600001984FF00A011A46FFF752FE0346002B76
:101D700014D1019B4FF005021A714FF000031AE0D5
:101D800000BF0CE000BF0AE000BF08E000BF06E0B3
:101D900000BF04E000BF02E000BF00E000BF019B05
:101DA000DB6A1B68184600F03BFC019B4FF0020207
:101DB0001A714FF00103184607B000BDAA01004098
:101DC00000B583B001904FF0200383F31188019B8D
:101DD0001B79022B03D0019B1B79052B00BF019BB4
:101DE0001B79022B06D14FF0000383F311884FF0CB
:101DF000000320E0019B4FF004021A714FF0000332
:101E000083F31188019BDB6A1A68019BDB6A9B687C
:101E10001046194600F0DCFB0198FFF789FE019B94
:101E2000DB6A1B68184600F0FBFB019B4FF00202C7
:101E30001A714FF00003184603B000BDAFF30080E5
:101E400000B583B001900091019B4FF006021A711A
:101E5000019BDB6A1A68019BDB6A9B681046194686
:101E600000F0B6FB019BDB6A1B68184600F0F8FB2C
:101E7000019B93F83030002B06D001984FF01201EF
:101E8000009AFFF7EDFC08E0009B4FEA432301981E
:101E90004FF012011A46FFF7E3FC0198FFF728FD07
:101EA0000346002B0CD0019BDB6A1B68184600F030
:101EB000B7FB019B4FF005021A714FF0010301E0DF
:101EC0004FF00003184603B000BD00BFAFF3008021
:101ED00000B585B001900091019B002B01D0009BC3
:101EE000002B019B1B79062B02D04FF001033FE032
:101EF0004FF00003039324E0019BDB6A1B68184644
:101F00004FF00101009A00F023FC009B1B78FE2B90
:101F100013D1019BDB6A1B6818464FF40071009ACD
:101F200000F016FC019BDB6A1B6818464FF00201AB
:101F300000F0B6FB4FF000031AE0039B03F101032E
:101F40000393039A42F20F739A42D5DD019BDB6A39
:101F50001B68184600F094FB019BDB6A1B6818465F
:101F600000F05EFB019B4FF005021A714FF0010378
:101F7000184605B000BD00BFAFF30080AFF300808E
:101F800000B583B00190019B1B79062B02D04FF066
:101F9000010317E0019BDB6A1B6818464FF007013D
:101FA0000A4A00F0A5FB0198FFF7A2FC019BDB6A3F
:101FB0001B68184600F064FB019B4FF005021A7184
:101FC0004FF00003184603B000BD00BF904000086A
:101FD00000B583B001900091019B4FF007021A7188
:101FE000019BDB6A1A68019BDB6A9B6810461946F5
:101FF00000F0EEFA019BDB6A1B68184600F030FB2C
:10200000019B93F83030002B06D001984FF0190156
:10201000009AFFF725FC08E0009B4FEA4323019854
:102020004FF019011A46FFF71BFC0198FFF760FCFF
:102030000346002B0CD0019BDB6A1B68184600F09E
:10204000EFFA019B4FF005021A714FF0010301E016
:102050004FF00003184603B000BD00BFAFF300808F
:1020600000B585B001900091019B002B01D0009B31
:10207000002B019B1B79072B02D04FF0010341E09D
:10208000019BDB6A1B6818464FF002011F4A00F0F3
:102090002FFB019BDB6A1B6818464FF40071009A06
:1020A00000F026FB019BDB6A1B6818464FF002011B
:1020B00000F0F6FA019BDB6A1A6803AB10464FF09A
:1020C00001011A4600F044FB9DF80C3003F01F0399
:1020D000052B05D10198FFF78BFB4FF0000311E0B2
:1020E000019BDB6A1B68184600F0CAFA019BDB6A99
:1020F0001B68184600F094FA019B4FF005021A7114
:102100004FF00103184605B000BD00BF8040000835
:1021100000B583B00190019B1B79072B02D04FF0D3
:10212000010314E0019BDB6A1B6818464FF00201B3
:10213000084A00F0DDFA019BDB6A1B68184600F0D4
:102140009FFA019B4FF005021A714FF000031846E9
:1021500003B000BD70400008AFF30080AFF3008013
:1021600000B583B00190019B1B79052B02D04FF085
:10217000010316E0019B4FF008021A71019BDB6A14
:102180001A68019BDB6A9B681046194600F020FA2A
:102190000198FFF7CDFC019B4FF005021A714FF03B
:1021A0000003184603B000BDAFF30080AFF300801A
:1021B00082B001900091019B002B01D0009B002B6D
:1021C000019B1B79052B02D04FF0010309E0019B15
:1021D0009A6A009B5A60009B4FF400721A604FF09D
:1021E0000003184602B07047AFF30080AFF30080E1
:1021F00088B0039002910192029A019B9A4203D304
:10220000029A019BD31A1F2B019B4FEA531307938A
:10221000019B03F01F030693029B4FEA53130593A0
:10222000029B03F01F0303F101034FF0010202FAC6
:1022300003F303F1FF330493079A059B9A4218D2E4
:10224000079B4FEA8303039AD3181A68069B22FA66
:1022500003F2059B4FEA83030399CB181968049B8B
:102260001940069BC3F1200301FA03F342EA03037A
:102270000AE0079B4FEA8303039AD3181A68049B6A
:102280001A40069B22FA03F3184608B0704700BFB5
:1022900000B587B00190019B03F10C031B684FEA66
:1022A0009373002B02D0012B26D032E001984FF01F
:1022B00049014FF03E02FFF79BFF059001984FF058
:1022C00031014FF02F02FFF793FF049001984FF078
:1022D00053014FF05002FFF78BFF0390059B03F172
:1022E0000102049B03F1020302FA03F2039BA3F130
:1022F000090302FA03F30EE001984FF045014FF095
:102300003002FFF775FF034603F101034FEA832311
:1023100001E04FF00003184607B000BDAFF30080A6
:1023200008B501F085FA08BDAFF30080AFF3008077
:1023300082B00190019B4FF001021A70019B4FF097
:1023400000025A6002B07047AFF30080AFF3008024
:1023500008B500F0E5FE08BDAFF30080AFF30080E4
:1023600000B585B0039002910192039B03F1300305
:1023700018460299019A4FF0FF33FFF779F80346A8
:10238000184605B000BD00BFAFF30080AFF300807A
:1023900000B585B0039002910192039B03F10C03F9
:1023A00018460299019A4FF0FF33FEF749FF0346A2
:1023B000184605B000BD00BFAFF30080AFF300804A
:1023C00000B583B001900B468DF80330019B03F1FB
:1023D00030029DF80330104619464FF0FF32FEF7E9
:1023E000B7FF0346184603B000BD00BFAFF300803F
:1023F00000B583B00190019B03F10C0318464FF028
:10240000FF31FEF7D5FE0346184603B000BD00BFFE
:1024100000B585B003900B4601928DF80B30039BFD
:1024200003F130029DF80B3010461946019AFEF771
:102430008FFF0346184605B000BD00BFAFF3008014
:1024400000B583B001900091019B03F10C03184685
:102450000099FEF7ADFE0346184603B000BD00BF6D
:1024600000B585B00390029101920093039B03F1A4
:10247000300318460299019A009BFEF7F9FF0346C4
:10248000184605B000BD00BFAFF30080AFF3008079
:1024900000B585B00390029101920093039B03F174
:1024A0000C0318460299019A009BFEF7C9FE0346E9
:1024B000184605B000BD00BFAFF30080AFF3008049
:1024C00008B501F0D5FA08BDAFF30080AFF3008086
:1024D00000B587B0059004910392059B154A1A60D8
:1024E000059B03F104031A46059B5A60059B4FF0B8
:1024F00001021A72059B03F10C02059B03F15403C0
:1025000005990091104619464FF01002049BFEF702
:10251000CFFD059B03F13002059B03F16403059990
:102520000091104619464FF01002039BFEF7E8FE9B
:1025300007B000BDA0400008AFF30080AFF30080FB
:1025400000B583B001900B468DF80330019B5B69A9
:10255000002B07D1019B03F1040318464FF004013F
:10256000FEF786FC019B03F10C029DF80330104638
:102570001946FEF7CDFD0346002B07DA019B03F158
:10258000040318464FF08001FEF772FC03B000BD53
:1025900008B500F075FE08BDAFF30080AFF3008012
:1025A00000B583B00190019B4FF001021A70019BAE
:1025B0004FF000025A60019B4FF000029A60019BAD
:1025C00003F10C031846FEF743FC03B000BD00BF47
:1025D00000B583B001900091019B002B01D0009BBE
:1025E000002B4FF0200383F31188019B1B78012BF4
:1025F00003D0019B1B78022B00BF019B009A5A60FD
:10260000019800F07DFE019B4FF002021A704FF01E
:10261000000383F3118803B000BD00BFAFF3008057
:1026200000B583B001904FF0200383F31188019B24
:102630001B78012B03D0019B1B78022B00BF019854
:1026400000F056FF019800F00BFF019B4FF00102D4
:102650001A704FF0000383F3118803B000BD00BF70
:1026600000B583B001904FF0200383F311880198E7
:1026700000F02EFF4FF0000383F3118803B000BD7C
:1026800000B583B001904FF0200383F311880198C7
:1026900000F02EFF4FF0000383F3118803B000BD5C
:1026A00000B583B001900091019B002B01D0009BED
:1026B000002B4FF0200383F31188019B4FF003029E
:1026C0001A700198009900F023FF074B9A69019B4B
:1026D0009A604FF00200FEF7A3F84FF0000383F377
:1026E000118803B000BD00BF18090020AFF30080BF
:1026F00000B585B0039002910192039B002B04D09A
:10270000029B002B01D0019B002B4FF0200383F391
:102710001188039B4FF003021A7003980299019AE3
:1027200000F036FF064B9A69039B9A604FF0020057
:10273000FEF776F84FF0000383F3118805B000BD73
:1027400018090020AFF30080AFF30080AFF30080E2
:1027500000B585B0039002910192039B002B04D039
:10276000029B002B01D0019B002B4FF0200383F331
:102770001188039B4FF003021A7003980299019A83
:1027800000F046FF064B9A69039B9A604FF00200E7
:10279000FEF746F84FF0000383F3118805B000BD43
:1027A00018090020AFF30080AFF30080AFF3008082
:1027B00082B00190024B5A68019B9A6002B0704748
:1027C000001000E0AFF30080AFF30080AFF30080B3
:1027D00084B00190114B5B680393019B9B68039A43
:1027E000D21A0F4B1B68D21A019B9A60019B9A6800
:1027F000019BDB689A4204D9019B9A68019BDA60CD
:1028000009E0019B9A68019B1B699A4203D2019BD4
:102810009A68019B1A6104B0704700BF001000E085
:1028200060090020AFF30080AFF30080AFF30080B9
:1028300000B587B00A4B4FF000021A6001AB184692
:1028400000F016F8019B01AA10469847029B01AAC6
:1028500010469847039A024B1A6007B000BD00BFAC
:1028600060090020AFF30080AFF30080AFF3008079
:1028700082B00190019B094A1A60019B084A5A6084
:10288000019B4FF000029A60019B4FF00002DA605A
:10289000019B4FF0FF321A6102B07047B127000868
:1028A000D1270008AFF30080AFF30080AFF30080C2
:1028B00000B583B00B4B1B6803F00F030193094B6A
:1028C000019A5A60084B1B68002B06D0064B1B6808
:1028D000054A5268104601999847FDF7D9FC03B0A4
:1028E00000BD00BF0000024068090020AFF3008077
:1028F00000B583B00D4B1B684FEA131303F00F03B1
:1029000001930A4B019A4FEA02125A60084B9B68E6
:10291000002B06D0064B9B68054AD26810460199E9
:102920009847FDF7B5FC03B000BD00BF00000240B2
:1029300068090020AFF30080AFF30080AFF30080A0
:1029400000B583B00D4B1B684FEA132303F00F0350
:1029500001930A4B019A4FEA02225A60084B1B6905
:10296000002B06D0064B1B69054A52691046019997
:102970009847FDF78DFC03B000BD00BF000002408A
:1029800068090020AFF30080AFF30080AFF3008050
:1029900000B583B00D4B1B684FEA133303F00F03F0
:1029A00001930A4B019A4FEA02325A60084B9B6925
:1029B000002B06D0064B9B69054AD2691046019947
:1029C0009847FDF765FC03B000BD00BF0000024062
:1029D00068090020AFF30080AFF30080AFF3008000
:1029E00000B583B00D4B1B684FEA134303F00F0390
:1029F00001930A4B019A4FEA02425A60084B1B6A44
:102A0000002B06D0064B1B6A054A526A10460199F4
:102A10009847FDF73DFC03B000BD00BF0000024039
:102A200068090020AFF30080AFF30080AFF30080AF
:102A300000B583B00D4B1B684FEA135303F00F032F
:102A400001930A4B019A4FEA02525A60084B9B6A63
:102A5000002B06D0064B9B6A054AD26A10460199A4
:102A60009847FDF715FC03B000BD00BF0000024011
:102A700068090020AFF30080AFF30080AFF300805F
:102A800000B583B00D4B1B684FEA136303F00F03CF
:102A900001930A4B019A4FEA02625A60084B1B6B82
:102AA000002B06D0064B1B6B054A526B1046019952
:102AB0009847FDF7EDFB03B000BD00BF00000240EA
:102AC00068090020AFF30080AFF30080AFF300800F
:102AD00082B0144B4FF000021A604FF000030193D4
:102AE00016E01149019A13464FEA43039B184FEA37
:102AF0008303CB181B684FF000021A600B4B019A3E
:102B00004FF0000143F83210019B03F101030193E0
:102B1000019B062BE5DD064B4FF0FF325A6002B0F9
:102B2000704700BF64090020C04000086809002009
:102B300000000240AFF30080AFF30080AFF30080ED
:102B400000B585B00390029101920093039B5B7ADC
:102B50004FF0010202FA03F31A462C4B1B6802EAFB
:102B60000303002B02D04FF001034BE0039B5B7A81
:102B70001A46274B019943F83210039B5B7A244A8B
:102B80004FEAC303D318009A5A60039B5B7A4FF055
:102B9000010202FA03F31A461C4B1B681A431B4B33
:102BA0001A601A4B1B6803F07F03002B05D0194BEA
:102BB000184A526942F001025A61039B1B68039A4A
:102BC0001268126822F00F021A60039B5B68039A76
:102BD000127A4FF00F0101FA02F21A60039B1B6890
:102BE0004FF000021A60019B002B09D0039B9B7AD7
:102BF0001A46029B4FEA031310461946FDF7C0FB25
:102C00004FF00003184605B000BD00BF6409002066
:102C10006809002000100240AFF30080AFF300808D
:102C200000B583B00190019B9B7A1846FDF7F8FB35
:102C3000019B5B7A4FF0010202FA03F36FEA030390
:102C40001A46094B1B681A40074B1A60064B1B6853
:102C500003F07F03002B05D1044B044A526922F094
:102C600001025A6103B000BD640900200010024057
:102C700008B5154B144A126842F480721A60134B5F
:102C80001B6A03F44073B3F5407F07D00F4B4FF43A
:102C900080321A620D4B4FF000021A620B4B1B6A16
:102CA00003F40043002B0DD1084B084A126A42F48A
:102CB00040721A6200F00CFA044B044A126A42F4A1
:102CC00000421A6208BD00BF0070004000100240C0
:102CD00008B51E4B1B691D4B4FF0FF321A611B4B91
:102CE0004FF000021A61194BDB68184B4FF0FF32AE
:102CF000DA60164B4FF00002DA60154B45F6BF5212
:102D00005A60134B4FF000029A60114B4FF00702CC
:102D10001A60104B0F4AD26842F08072DA600E4B94
:102D20000D4A126842F001021A60084B074AD26944
:102D300042F08052DA61054B044AD26942F00062E7
:102D4000DA61FFF795FFFFF7C3FE08BD00100240F0
:102D500010E000E0F0ED00E0001000E0AFF30080D4
:102D6000294B294A126842F001021A6000BF264B23
:102D70001B6803F00203002BF9D0234B224A126890
:102D800002F0F9021A60204B4FF000025A6000BFB7
:102D90001D4B5B6803F00C03002BF9D11A4B1A4A48
:102DA000126842F480321A6000BF174B1B6803F4AC
:102DB0000033002BF9D0144B134A526842F4A0227E
:102DC0005A60114B104A126842F080721A6000BFBC
:102DD0000D4B1B6803F00073002BF9D00A4B0B4A14
:102DE0005A600B4B4FF010021A60074B064A5268AC
:102DF00042F002025A6000BF034B5B6803F00C0311
:102E0000082BF9D1704700BF001002400064450054
:102E100000200240AFF30080AFF30080AFF30080EA
:102E200008B51E48FEF71CFC1C4B1D4A9A621B4B42
:102E30001C4ADA62194B42F28A521A631A4B1A4A36
:102E4000926942F400729A61154B4FF000025A6089
:102E5000134B4FF001029A60114B4FF009029A6038
:102E600000BF0F4B9B6803F00803002BF9D10C4BFC
:102E70004FF005029A6000BF094B9B6803F0040302
:102E8000002BF9D1064B4FF000029A60064B064A20
:102E9000926922F400729A6108BD00BFA009002067
:102EA00000240140C040000800100240AFF3008041
:102EB00082B00190214B214A926942F07D029A61D1
:102EC0001F4B019A1268DA601D4B019A92685A6092
:102ED0001B4B019A52681A601A4B019AD268DA6049
:102EE000184B019A52695A60164B019A12691A607E
:102EF000154B019A9269DA60134B019A126A5A6073
:102F0000114B019AD2691A60104B019A526ADA6029
:102F10000E4B019AD26A5A600C4B019A926A1A605F
:102F20000B4B019A126BDA60094B019A926B5A6053
:102F3000074B019A526B1A6002B0704700100240B2
:102F400000080140000C0140001001400014014045
:102F500000180140AFF30080AFF30080AFF30080B2
:102F60008AB0039002910192019B032B03D1039B32
:102F7000029A1A6105E0019B042B02D1039B029A7D
:102F80005A612E4A019BD3181B7804934FF000031B
:102F90000693069B0793079B0893089B09934FF0A2
:102FA0000003059335E0089B4FEA03130893099B40
:102FB0004FEA03130993069B4FEA03130693079BFB
:102FC0004FEA03130793029B03F08003002B04D105
:102FD000089B43F00F03089304E0069A049B42EA1F
:102FE00003030693029B03F40043002B04D1099BC7
:102FF00043F00F03099304E0079A049B42EA03039A
:103000000793029B4FEA43030293059B03F10103DD
:103010000593059B072BC6D9039B5A68099B1A4049
:10302000079B1A43039B5A60039B1A68089B1A402C
:10303000069B1A43039B1A600AB0704720410008A0
:1030400000B583B0204B9B889BB203F00803002B94
:10305000F8D01D4B1B889AB21B4B9B889BB202EA8F
:103060000303ADF80630184B174A928892B222F04B
:10307000070292B29A80BDF8063003F00103DBB27A
:10308000002B05D0114B1B6810484FF000019847EA
:10309000BDF8063003F00203002B05D00B4B1B6874
:1030A0000A484FF001019847BDF8063003F00403C9
:1030B000002B05D0054B1B6804484FF002019847D0
:1030C000FDF7E6F803B000BD00280040D409002059
:1030D0000F4B9B889BB203F02003002BF8D00C4BC6
:1030E0000B4A928892B242F0100292B29A80084B38
:1030F0004FF000021A81064B4FF223429A81044B93
:10310000034A928892B222F0100292B29A807047DB
:1031100000280040AFF30080AFF30080AFF30080E1
:1031200008B5124B114A928892B222F0080292B26C
:103130009A800E4B9B889BB203F00803002BF8D0BB
:103140000A4B9B889BB203F02003002BF8D0074B5F
:103150004FF000021A80064B4FF000021A604FF049
:1031600003004FF0F001FDF70BF908BD0028004007
:10317000D4090020AFF30080AFF30080AFF30080EC
:1031800000B585B001900091009B03F00803002B6F
:1031900001D0FDF72DF8019B5B6A1B68019A526A0A
:1031A0001268126822F00F021A60019B5B6A5B686A
:1031B000019A526A127A4FF00F0101FA02F21A6074
:1031C000019B1B6A1B68019A126A1268126822F03E
:1031D0000F021A60019B1B6A5B68019A126A127ADD
:1031E0004FF00F0101FA02F21A60019B5B681B6845
:1031F000002B11D0019B4FF004021A70019B5B68F9
:103200001B6801989847019B1B78042B08D1019BF0
:103210004FF002021A7003E0019B4FF002021A7095
:103220004FF0200383F31188019B9B68002B0DD086
:10323000019B9B680393019B4FF000029A60039BE4
:103240004FF000025A620398FDF7BAFA4FF00003FC
:1032500083F3118805B000BDAFF30080AFF30080A9
:1032600000B583B001900091009B03F00803002B90
:1032700001D0FCF7BDFF03B000BD00BFAFF300807D
:1032800008B5164B4FF6FF721A801548FFF788F9FC
:10329000134B144ADA61124B134A1A62104B134A49
:1032A0005A620F4B41F20A029A620D4B41F2180228
:1032B000DA620F48FFF774F90D4B0E4ADA610C4BD6
:1032C0000D4A1A620A4B0D4A5A62094B41F20A0230
:1032D0009A62074B41F21802DA6208BD380A0020F0
:1032E000D809002000300140CC400008D840000838
:1032F000080A002000380040E4400008F0400008C0
:1033000000B585B00190019B1B78012B57D1019A24
:103310004C4B9A421FD1019B1A6A4B4B10464FF0FF
:103320000A011A46019BFFF70BFC03468DF80F308C
:10333000019B5A6A454B10464FF00A011A46019B01
:10334000FFF7FEFB03468DF80F30414B404A926970
:1033500042F480529A61019A3E4B9A421FD1019BDE
:103360001A6A394B10464FF00A011A46019BFFF7C3
:10337000E7FB03468DF80E30019B5A6A334B10462B
:103380004FF00A011A46019BFFF7DAFB03468DF85E
:103390000E302F4B2E4AD26942F48042DA61019BF3
:1033A0001B6A1B68019AD26902F10C029A60019BA8
:1033B0005B6A1B68019AD26902F10C029A60019B58
:1033C0005B685B8903F40063002B0CD1019B9B6A53
:1033D00023F47062019B9A62019BDB6A23F47062A2
:1033E000019BDA620FE0019B9B6A23F4706343F454
:1033F000A062019B9A62019BDB6A23F4706343F431
:10340000A062019BDA62019BDB694FF000021A8027
:10341000019BDB69019A5268528942F4417292B26F
:103420001A80019BDB694FF007029A80019BDB69E0
:10343000019AD269128892B242F0400292B21A8086
:1034400005B000BDD80900208131000861320008B4
:1034500000100240080A0020AFF30080AFF30080A4
:1034600000B583B00190019B1B78022B27D1019BF3
:10347000DB694FF000021A80019BDB694FF000020C
:103480009A80019B1B6A1846FFF7CAFB019B5B6A87
:103490001846FFF7C5FB019A0A4B9A4205D10A4B21
:1034A000094A926922F480529A61019A074B9A4222
:1034B00005D1054B044AD26922F48042DA6103B097
:1034C00000BD00BFD809002000100240080A0020FB
:1034D00082B00190019B5B685B68019A5268128917
:1034E0004FF0010101FA02F25A6102B0704700BFC9
:1034F00082B00190019B5B685B68019A52681289F7
:103500004FF0010101FA02F21A6102B0704700BFE8
:1035100082B001900091019B1B6A1B68194ADA6016
:10352000019B1B6A1B68009A5A60019B1B6A1B68FF
:10353000019A926A1A60019B5B6A1B68124ADA6000
:10354000019B5B6A1B68009A5A60019B5B6A1B685F
:10355000019AD26A1A60019B1B6A1B68019A126A5F
:103560001268126842F001021A60019B5B6A1B68D4
:10357000019A526A1268126842F001021A6002B09F
:10358000704700BF3A0A0020380A0020AFF30080DD
:1035900084B0039002910192039B1B6A1B681A4A34
:1035A000DA60039B1B6A1B68029A5A60039B1B6AC2
:1035B0001B68039A926A1A60039B5B6A1B68019AF4
:1035C000DA60039B5B6A1B68029A5A60039B5B6A22
:1035D0001B68039AD26A42F080021A60039B1B6A3E
:1035E0001B68039A126A1268126842F001021A609C
:1035F000039B5B6A1B68039A526A1268126842F066
:1036000001021A6004B070473A0A0020AFF300804C
:1036100084B0039002910192039B1B6A1B68019A7C
:10362000DA60039B1B6A1B68029A5A60039B1B6A41
:103630001B68039A926A42F080021A60039B5B6ADD
:103640001B68114ADA60039B5B6A1B68029A5A6026
:10365000039B5B6A1B68039AD26A1A60039B1B6A0E
:103660001B68039A126A1268126842F001021A601B
:10367000039B5B6A1B68039A526A1268126842F0E5
:1036800001021A6004B07047380A0020AFF30080CE
:1036900000B585B00190019B1B691B69ADF80E3028
:1036A000019B1B69DB689AB2BDF80E3002EA030386
:1036B0009BB203F0FF03ADF80E30019B1B69BDF810
:1036C0000E206FEA02021A61BDF80E3003F0020309
:1036D000002B04D0019B5B681B6901989847BDF8DB
:1036E0000E3003F00403002B04D0019B5B689B6940
:1036F00001989847BDF80E3003F00803002B04D062
:10370000019B5B681B6A01989847BDF80E3003F077
:103710001003002B04D0019B5B689B6A01989847BB
:10372000BDF80E3003F00103DBB2002B04D0019B87
:103730005B689B680198984705B000BDAFF30080B7
:1037400008B5064B6FF001021A61054B5B689B6878
:1037500003489847FCF79CFD08BD00BF002C0140C2
:103760003C0A0020AFF30080AFF30080AFF300808D
:1037700000B583B0214B1B699AB2204BDB689BB22A
:1037800002EA03039BB203F0FF03ADF806301B4BC4
:10379000BDF806206FEA02021A61BDF8063003F098
:1037A0000203002B04D0164B5B681B691448984732
:1037B000BDF8063003F00403002B04D0104B5B6807
:1037C0009B690F489847BDF8063003F00803002BAB
:1037D00004D00B4B5B681B6A09489847BDF806305C
:1037E00003F01003002B04D0054B5B689B6A044870
:1037F0009847FCF74DFD03B000BD00BF002C014011
:103800003C0A0020AFF30080AFF30080AFF30080EC
:1038100008B50348FFF73CFFFCF73AFD08BD00BFC1
:10382000500A0020AFF30080AFF30080AFF30080B8
:1038300008B50648FEF77CFD044B054A1A610548A9
:10384000FEF776FD034B044A1A6108BD3C0A0020CE
:10385000002C0140500A002000080040AFF3008017
:1038600000B585B001900B46ADF802304FF0000373
:103870000393BDF8023003F00803002B03D0039B31
:1038800043F080030393BDF8023003F00103DBB281
:10389000002B03D0039B43F020030393BDF80230B9
:1038A00003F00203002B03D0039B43F04003039378
:1038B000BDF8023003F00403002B03D0039B43F454
:1038C00080730393019B03F1040318460399FDF7EA
:1038D000CFFA05B000BD00BFAFF30080AFF30080AA
:1038E00000B587B00190019B5B6F0493049B9B899B
:1038F000ADF80E30049B1B88ADF81630BDF81630BD
:1039000003F48073002B13D04FF0200383F311884E
:10391000019B03F1040318464FF40071FDF7A8FA68
:103920004FF0000383F31188049B4FF6FF621A8067
:103930004FF0200383F3118817E0BDF8163003F031
:103940000F03002B05D0BDF8163001981946FFF77C
:1039500087FF049B9B889BB2DBB201981946FEF758
:10396000EFFD049B1B88ADF81630BDF8163003F050
:103970002003002BE1D14FF0000383F31188BDF841
:103980000E3003F08003002B2FD0BDF8163003F06B
:103990008003002B29D04FF0200383F31188019B73
:1039A00003F130031846FDF71BFD0290029B002B2C
:1039B00013DA019B03F1040318464FF00801FDF7E9
:1039C00057FABDF80E3023F0C0039BB243F040031A
:1039D0009BB29AB2049B9A8103E0029B9AB2049B29
:1039E0009A804FF0000383F31188BDF8163003F07E
:1039F0004003002B1AD04FF0200383F31188019B62
:103A000003F1040318464FF01001FDF731FA4FF0AF
:103A1000000383F31188BDF80E3023F0C0039AB27F
:103A2000049B9A81049B4FF6BF721A8007B000BDB9
:103A300082B00190044B044A928992B242F0800213
:103A400092B29A8102B0704700440040AFF3008008
:103A500008B50348FFF744FFFCF71AFC08BD00BF98
:103A6000640A0020AFF30080AFF30080AFF3008062
:103A700008B505484FF00001044AFEF729FD024B46
:103A8000034A5A6708BD00BF640A0020313A0008A3
:103A900000440040AFF30080AFF30080AFF300803C
:103AA00008B5FFF75DF908BDAFF30080AFF3008004
:103AB000704700BFAFF30080AFF30080AFF300802A
:103AC00008B51E481E494FF00102FDF721FA1D48B6
:103AD0004FF400514FF01002FFF742FA19484FF42B
:103AE00080414FF01002FFF73BFA16484FF40041B7
:103AF0004FF01002FFF734FA12484FF480514FF0A4
:103B00000602FFF72DFA10484FF400714FF006023D
:103B1000FFF726FA0B4B4FF480521A610A4B4FF411
:103B200000725A6109484FF480714FF01002FFF79C
:103B300017FA0748FEF72CF808BD00BF100B00204D
:103B4000380B0020000C014000100140000801402B
:103B5000DC0A0020AFF30080AFF30080AFF30080F9
:103B600082B001904FF00103184602B0704700BFC9
:103B700082B001904FF00103184602B0704700BFB9
:103B800000B583B00190264B4FF020025A614FF0F0
:103B90000F00FDF73DF8224B4FF020021A614FF065
:103BA0000F00FDF735F801984FF021014FF00002AA
:103BB00000F03EF801984FF0C8014FF0000200F00D
:103BC00037F801984FF005014FF0000200F030F88F
:103BD00001984FF040014FF0000200F029F80198E1
:103BE0004FF012014FF0000200F022F801984FF060
:103BF00020014FF0000200F01BF801984FF008017F
:103C00004FF0000200F014F801984FF00C014FF053
:103C1000000200F00DF8019800F032F803B000BD8A
:103C200000100140AFF30080AFF30080AFF30080DD
:103C300000B583B0019013460A468DF803208DF835
:103C400002300198FEF70CFD9DF80230012B04D1E3
:103C50000A4B4FF001021A6103E0084B4FF00102DA
:103C60005A610DF1030301984FF001011A46FEF766
:103C70003FFD0198FEF704FD03B000BD000C0140BC
:103C800000B585B001904FF0000303931DE0039B46
:103C9000DBB201984FF000011A4600F021F84FF016
:103CA000000302930AE001984FF000014FF0010277
:103CB000FFF7BEFF029B03F101030293029B532B0C
:103CC000F1D9039B03F101030393039B052BDED979
:103CD00005B000BDAFF30080AFF30080AFF300800C
:103CE00000B583B0019013460A468DF803208DF885
:103CF00002309DF80230062B1AD89DF80330542B61
:103D000018D89DF8033063F07F03DBB201981946A1
:103D10004FF00002FFF78CFF9DF8023043F04003A4
:103D2000DBB2019819464FF00002FFF781FF02E075
:103D300000BF00E000BF03B000BD00BFAFF30080D4
:103D400000B585B001900B468DF803304FF00003AD
:103D50008DF80F3019E09DF80330A3F120029DF893
:103D60000F000D4913464FEA83039B181B18CB180D
:103D70001B78019819464FF00102FFF759FF9DF893
:103D80000F3003F101038DF80F309DF80F30042B35
:103D9000E1D905B000BD00BF80410008AFF300804D
:103DA00000B583B00190009109E0009B1B78019859
:103DB0001946FFF7C5FF009B03F101030093009B29
:103DC0001B78002BF1D103B000BD00BFAFF3008022
:103DD00000B583B022484FF020014FF01002FFF7EA
:103DE000BFF81F484FF080014FF01002FFF7B8F8FE
:103DF0001C484FF010014FF00602FFF7B1F81948C8
:103E00004FF020014FF00602FFF7AAF816484FF0D6
:103E100001014FF00602FFF7A3F8124B4FF010021A
:103E20001A61104B4FF020021A61104810494FF0F0
:103E30000102FDF76DF80F480F49FEF7C9FB0D4869
:103E4000FFF79EFE4FF0000300930C484FF498716B
:103E50004FF040020A4BFCF7BBFE03B000BD00BFB1
:103E60000008014000100140000C0140400B002000
:103E7000680B0020D809002060430008700B002068
:103E8000913E0008AFF30080AFF30080AFF30080F5
:103E900000B583B001904FF06400FCF7B9FE0E4806
:103EA0000E494FF0FF32FDF763F80346002B04D1B3
:103EB0000A4B1B68DAB20A4B1A700A48FFF7E0FE99
:103EC00008484FF005014FF00302FFF709FF0548CE
:103ED0000549FFF765FFDEE7400B0020A00C00203E
:103EE0003C0B0020D8090020203F0008AFF30080E1
:103EF00008B5FDF78DFBFCF70BFBFFF7E1FDFFF7C6
:103F000067FF4FF47A70FCF783FEFAE7AFF30080A7
:103F100069646C6500000000000000000000000003
:103F200048656C6C6F21000000000000000000007C
:103F30006D61696E00168311040448080C10141892
:103F4000001C1D1E1F2000000000000000000000DB
:103F5000613B0008713B0008C11B0008C11D00083F
:103F6000B11600082117000861210008B1210008DE
:103F70000009121B242D363F48415A536C657E7749
:103F800019100B023D342F265158434A757C676E39
:103F9000323B2029161F040D7A7368615E574C4529
:103FA0002B2239300F061D14636A7178474E555C19
:103FB000646D767F4049525B2C253E3708011A1309
:103FC0007D746F6659504B42353C272E1118030AF9
:103FD000565F444D727B60691E170C053A332821E9
:103FE0004F465D546B627970070E151C232A3138D9
:103FF0004148535A656C777E09001B122D243F36C9
:1040000058514A437C756E671019020B343D262FB8
:10401000737A6168575E454C3B3229201F160D04A8
:104020006A6378714E475C55222B3039060F141D98
:10403000252C373E0108131A6D647F7649405B5288
:104040003C352E2718110A03747D666F5059424B78
:10405000171E050C333A21285F564D447B72696068
:104060000E071C152A233831464F545D626B707958
:10407000FDFF000000000000000000000000000044
:10408000FFFC000000000000000000000000000035
:104090004C0000000001FF000000000000000000D4
:1040A0006123000891230008C1230008F1230008C0
:1040B000112400084124000861240008912400080C
:1040C000080002400400024000000B001C000240F7
:1040D0000400024004010C003000024004000240D1
:1040E00008020D0044000240040002400C030E00D0
:1040F000580002400400024010040F006C0002400F
:104100000400024014051000800002400400024038
:104110001806110000000000000000000000000070
:10412000040204080800030708080808080808082B
:104130000B0F000000000000000000000000000065
:10414000FFFFFFFF4444444444444444FFFFFFFF57
:104150004444444444444444FFFFFFFF4444444433
:1041600044444444FFFFFFFF444444444444444423
:10417000FFFFFFFF88888888888888880000000003
:10418000000000000000002F0000000700070014DE
:104190007F147F14242A7F2A12C4C8102646364969
:1041A0005522500005030000001C2241000041225E
:1041B0001C0014083E081408083E0808000050308F
:1041C00000101010101000606000002010080402A1
:1041D0003E5149453E00427F4000426151494621DF
:1041E00041454B311814127F1027454545393C4A4B
:1041F000494930017109050336494949360649499B
:10420000291E0036360000005636000008142241F0
:104210000014141414140041221408020151090658
:10422000324959513E7E1111117E7F494949363E2E
:10423000414141227F4141221C7F494949417F0937
:104240000909013E4149497A7F0808087F00417FFA
:1042500041002040413F017F081422417F404040FF
:10426000407F020C027F7F0408107F3E4141413EA7
:104270007F090909063E4151215E7F0919294646F9
:104280004949493101017F01013F4040403F1F2022
:1042900040201F3F4038403F6314081463070870F4
:1042A00008076151494543007F414100552A552A7D
:1042B000550041417F00040201020440404040405B
:1042C000000102040020545454787F484444383894
:1042D00044444420384444487F3854545418087E99
:1042E0000901020C5252523E7F0804047800447DBA
:1042F00040002040443D007F1028440000417F40A2
:10430000007C041804787C08040478384444443859
:104310007C14141408081414187C7C08040408483D
:1043200054545420043F4440203C4040207C1C20F6
:1043300040201C3C4030403C44281028440C505045
:10434000503C4464544C44000836410000007F0057
:1043500000004136080000000000000000000000DE
:0C436000000000000010014004003000CC
:0400000508000111DD
:00000001FF
