:020000040800F2
:100000000004002011010008E1010008E1010008DE
:10001000E1010008E1010008E1010008E101000838
:10002000E1010008E1010008E101000811020008F7
:10003000E1010008E1010008E1010008F101000808
:10004000E101000871200008E1010008A122000878
:10005000E1010008E1010008211E0008511E00080E
:10006000811E0008B11E0008E11E00085119000899
:1000700091190008E1190008311A0008811A0008D6
:10008000D11A0008211B0008E1010008E101000865
:10009000E1010008E1010008E1010008111F00086A
:1000A000E1010008A1250008E1010008D1250008B0
:1000B000E1010008E101000871260008E1010008E3
:1000C000E1010008E1010008E1010008E101000888
:1000D000E1010008E1010008A12C0008E10100088D
:0C00E000B11F0008A1200008D12000087A
:1000F000704700BFAFF30080AFF30080AFF3008024
:10010000FEE700BFAFF30080AFF30080AFF30080E5
:1001100072B6264C84F309884FF0020484F31488E5
:10012000BFF36F8F224C234D04E04FF05533236013
:1001300004F10404AC42F8D31F4C1C4D04E04FF012
:100140005533236004F10404AC42F8D302F0D0FD2F
:100150001A4D1B4C05E02B68236004F1040405F1E3
:100160000405184B9C42F6D3174C184D04E04FF091
:100170000003236004F10404AC42F8D3FFF7B8FF96
:10018000134C03E02368984704F10404114B9C428C
:10019000F8D302F00DFF104C03E02368984704F1F8
:1001A00004040E4B9C42F8D3FFF7AAFF000800207E
:1001B000000000200004002000040020003100089E
:1001C0000008002034080020380800201C0B002004
:1001D000EC000008EC000008EC000008EC0000084F
:1001E000FEE700BFAFF30080AFF30080AFF3008005
:1001F00008B54FF0200383F3118800F0C1F94FF0E8
:10020000000383F3118800F03BF808BDAFF30080D2
:1002100010B483B0EFF309840194019B03F1200330
:100220000193019B83F309884FF0000383F3118846
:1002300003B010BC704700BFAFF30080AFF3008085
:1002400008B50D4B4FF000029A600B4B0B4ADA6079
:100250004FF007004FF0100100F012F94FF00A00C4
:100260004FF0200100F00CF94FF00B004FF080012F
:1002700000F006F908BD00BF00ED00E00003FA053C
:1002800010B483B04FF0200383F31188204B5B68D8
:1002900003F40063002B33D0EFF309840194019B36
:1002A000A3F120030193019B83F30988019B4FF085
:1002B0008072DA61174B9B69DB7F002B0BD0154BEB
:1002C0001B689A68134B9B699B689A4294BF0023F2
:1002D0000123DBB20AE00F4B1B689A680D4B9B6948
:1002E0009B689A4234BF00230123DBB2002B03D06A
:1002F000019B094A9A6107E0019B084A9A6103E061
:100300004FF0000383F3118803B010BC704700BFA7
:1003100000ED00E05009002021030008240300083C
:1003200000F09EFB00DF00BFAFF30080AFF3008062
:1003300003460A462DE9F04FC2F80CD0D3F80CD092
:10034000BDE8F08FAFF30080AFF30080AFF3008023
:100350004FF0000383F311882846A04700F058FCB3
:10036000704700BFAFF30080AFF30080AFF30080B1
:1003700010B485B001900091019B03F003034FEA94
:10038000C30303931E4B019A4FEA92021C49019842
:100390004FEA900000F1C00051F8200003994FF09F
:1003A000FF0404FA01F16FEA010108400399009C7F
:1003B00004FA01F140EA010102F1C00243F82210FF
:1003C0000F4B019A4FEA5212019901F01F014FF0B1
:1003D000010000FA01F102F1600243F82210084B1B
:1003E000019A4FEA5212019901F01F014FF00100EA
:1003F00000FA01F143F8221005B010BC704700BFAD
:1004000000E100E0AFF30080AFF30080AFF30080C5
:1004100010B485B00190019B03F003034FEAC303BE
:100420000393154B019A4FEA5212019901F01F01F3
:100430004FF0010000FA01F102F1200243F822100E
:100440000D4B019A4FEA92020B4901984FEA900036
:1004500000F1C00051F8200003994FF0FF0404FAA6
:1004600001F16FEA010100EA010102F1C00243F863
:10047000221005B010BC704700E100E0AFF300802F
:1004800010B485B001900091019B03F003034FEA83
:10049000C3030393104B019A4FEA92020E4901984D
:1004A0004FEA900000F1060051F8200003994FF048
:1004B000FF0404FA01F16FEA010108400399009C6E
:1004C00004FA01F140EA010102F1060243F82210A8
:1004D00005B010BC704700BF00ED00E0AFF3008036
:1004E00082B00190024B9B69024A9A61FEE700BF0D
:1004F00050090020F02F0008AFF30080AFF3008018
:1005000000B583B0FFF79CFE00F03AF900F088F8E0
:1005100000F0B6FE00F00CFF11484FF0400100F073
:10052000BFFA02460F4B9A610E4B9B694FF00102D6
:100530001A774FF0000383F3118862B6094B9B6969
:10054000094A9A61094B4FF00002009208484FF0A7
:10055000C0014FF0010200F023FB03B000BD00BF5B
:10056000F80800205009002000300008E1040008CD
:1005700038080020AFF30080AFF30080AFF30080B5
:1005800000B583B0244B9B69DB7F002B06D0224B48
:100590009B69DA7F02F1FF32D2B2DA771E4B9B6998
:1005A0001A6A02F101021A621C4BDB6803F10102B4
:1005B0001A4BDA60194B1B681A46184B9A4229D01D
:1005C000164B1B689A6802F1FF329A601BE0019B90
:1005D000DB680093019B4FF00002DA60019B1B680F
:1005E0000E4A5A60019B1A680C4B1A604FF00003C8
:1005F00083F31188019B1A69009B104698474FF0BE
:10060000200383F31188054B1B680193019B9B68B2
:10061000002BDCD003B000BD5009002040090020B1
:10062000074A074B5A60064B5A68054B1A60044B41
:100630004FF0FF329A60024B4FF00002DA607047D1
:1006400040090020AFF30080AFF30080AFF30080DB
:1006500086B00390029101920093039B002B04D07B
:10066000019B002B01D0029B002B039B009A1A6177
:10067000039B019ADA60184B1B68059307E0059B02
:100680009B68029AD31A0293059B1B680593059BEE
:100690009A68029B9A42F2D3039B059A1A60039BC5
:1006A0001B685A68039B5A60039B5B68059A039911
:1006B0005160059A52681A60039B029A9A60059AE3
:1006C000054B9A4205D0059B9A68029BD21A059B5E
:1006D0009A6006B0704700BF40090020AFF3008069
:1006E00082B00190019B1A680D4B9A4208D0019B81
:1006F0001B68019A12689168019A92688A189A6038
:10070000019B5B68019A12681A60019B1B68019A41
:1007100052685A60019B4FF00002DA6002B07047E5
:1007200040090020AFF30080AFF30080AFF30080FA
:1007300084B00190019B1B680393039B1A68019B83
:100740001A60019B1B68019A5A60039B184604B00B
:10075000704700BFAFF30080AFF30080AFF30080BD
:1007600082B00190019B5B68019A12681A60019B3C
:100770001B68019A52685A60019B184602B0704784
:10078000094A094B5A60084B5A68074B1A60064BD6
:100790004FF000029A60044A034B5A61024B5A69B7
:1007A000014B1A61704700BF50090020AFF3008071
:1007B00084B00190019B1B7F002B03D0019B1B7F0A
:1007C0000E2B00BF019B4FF000021A770E4B0393D4
:1007D000039B1B680393039B9A68019B9B689A4247
:1007E000F6D2019B039A1A60039B5A68019B5A60D8
:1007F000019B5B68039A01995160039A52681A60E1
:10080000019B184604B0704750090020AFF30080E8
:1008100000B585B003468DF807300F4B9B690393F5
:10082000039B9DF807201A77039B4FF01402DA7799
:100830000948FFF77DFF0246074B9A61064B9B690B
:100840004FF001021A77044B9B6918460399FFF792
:100850006FFD05B000BD00BF50090020AFF3008060
:1008600000B585B00190019B03934FF0200383F303
:100870001188039B1B7F0D2B2CD801A252F823F06B
:10088000B9080008D5080008D5080008C308000802
:10089000D5080008CF080008D5080008D5080008CA
:1008A000D5080008D5080008D5080008D5080008B4
:1008B000D5080008CF0800084FF0000383F3118823
:1008C00013E0039B5B6A9A6802F101029A60039845
:1008D000FFF746FF039B4FF0FF325A620398FFF782
:1008E00067FF4FF0000383F3118805B000BD00BF20
:1008F00000B589B0034600918DF80730009BB3F135
:10090000FF3F14D00F4B9B6903AA104600990E4A73
:10091000FFF79EFE9DF807301846FFF779FF069B0C
:10092000002B09D003AB1846FFF7DAFE04E09DF870
:1009300007301846FFF76CFF024B9B695B6A18464D
:1009400009B000BD5009002061080008AFF3008025
:1009500000B585B001900091019B009A5A62019BFD
:100960009A680E4B9B699B689A4203D80198FFF7DF
:100970001FFF10E0094B9B691846FFF719FF039012
:10098000064B019A9A61019B4FF001021A77019878
:100990000399FFF7CDFC05B000BD00BF5009002052
:1009A00000B583B00E4B9B6901930D48FFF7C0FE65
:1009B00002460B4B9A610A4B9B694FF001021A7772
:1009C000019B4FF01402DA770198FFF7F1FE044B18
:1009D0009B6918460199FFF7ABFC03B000BD00BF4F
:1009E00050090020AFF30080AFF30080AFF3008028
:1009F00000B583B0194B9B6900931848FFF798FE28
:100A00000246164B9A61154B9B694FF001021A770B
:100A1000009B4FF000021A77104B0193019B1B685B
:100A20000193019B9A68009B9B689A42F6D8009BB1
:100A3000019A1A60019B5A68009B5A60009B5B6890
:100A4000019A00995160019A52681A60034B9B69A0
:100A500018460099FFF76CFC03B000BD5009002058
:100A600008B5054B9B69DB7F002B02D1FFF798FF90
:100A700001E0FFF7BDFF08BD50090020AFF3008083
:100A800084B00190019B1B680393039B1A68019B30
:100A90001A60039B184604B0704700BFAFF3008094
:100AA00082B001900091019B009A9A60019B4FF0E7
:100AB00002021A77019B4FF000025A77019B4FF018
:100AC0001402DA77019B009A1A64019B4FF000022E
:100AD000DA63019B4FF000029A63019B4FF0000222
:100AE0001A62019B4FF001029A77019B4FF00002BE
:100AF0009A61114A019B1A610F4B5A69019B5A6115
:100B0000019B5B690C4A019951610B4A52691A6158
:100B1000019B03F128031A46019B9A62019B03F192
:100B20002C031A46019B1A63019B1A6B019BDA6224
:100B3000019B184602B0704750090020AFF30080B7
:100B400000B587B00390029101920093039B059337
:100B5000039B002B07D0029BAF2B04D9019B7F2B5B
:100B600001D8009B002B039A029BA3F12403D21807
:100B7000059BDA60059BDB68009A1A60059BDB68C1
:100B8000089A5A60059BDB68044A1A620598019925
:100B9000FFF786FF0346184607B000BD5103000863
:100BA00000B589B005900491039202934FF02003A1
:100BB00083F311880A9B009305980499039A029B7A
:100BC000FFF7BEFF079007984FF00001FFF7C0FE48
:100BD0004FF0000383F31188079B184609B000BD4E
:100BE00000B583B001904FF0200383F311884FF0DC
:100BF00006000199FFF77CFE4FF0000383F3118894
:100C000003B000BDAFF30080AFF30080AFF300800E
:100C100000B583B001904FF0200383F31188019851
:100C200000F006F803B000BDAFF30080AFF3008022
:100C300000B585B00190174B9B690393039B019A04
:100C40005A6209E0039B03F128031846FFF718FFD7
:100C500003461846FFF7ACFD039B9A6A039B03F11A
:100C600028039A42EED1039B5B7F03F00303002B22
:100C700009D1039B5B69039A12691A61039B1B6983
:100C8000039A52695A614FF00E00FFF7C1FD05B09B
:100C900000BD00BF50090020AFF30080AFF300801B
:100CA00082B00190019B1A46019B5A60019B5A68D1
:100CB000019B1A60019B4FF000029A6002B07047DE
:100CC00000B585B001900091019B1B68039310E073
:100CD000039BDA68009B1A43039BDA60039B5A6804
:100CE000039B9B681046194600F00AF8039B1B689B
:100CF0000393019B039A9A42EAD105B000BD00BF5D
:100D000000B583B001900091019B9A6B009B1A4340
:100D1000019B9A63019B1B7F082B07D1019B9A6B58
:100D2000019B5B6A02EA0303002B0CD1019B1B7F32
:100D3000092B0FD1019B9A6B019B5B6A1A40019BA7
:100D40005B6A9A4206D10198FFF732FD03464FF0E5
:100D500000025A6203B000BDAFF30080AFF3008021
:100D600082B001900091009A019B1A60009B5A6822
:100D7000019B5A60019B5B68009A01995160009A3F
:100D800052681A6002B07047AFF30080AFF3008082
:100D900084B00190019B1B680393039B1A68019B1D
:100DA0001A60019B1B68019A5A60039B184604B0A5
:100DB000704700BFAFF30080AFF30080AFF3008057
:100DC00000B583B001900091009B002B02D14FF041
:100DD000FF3310E0094B9B69019A5A62074B9A69ED
:100DE000019B10461946FFF7BBFF4FF00D0000991D
:100DF000FFF77EFD0346184603B000BD50090020F2
:100E000084B00390029101920093039B1A46039BC6
:100E10005A60039B5A68039B1A60039B4FF00002C1
:100E20009A60039B029A5A61039B5A69039B9A61D9
:100E3000039B9A69039BDA60029A019BD218039B79
:100E40001A61039B009ADA61039B049A1A6204B048
:100E5000704700BFAFF30080AFF30080AFF30080B6
:100E600000B583B001900B468DF80330019B5A69A1
:100E7000019B9B699A4206D1019B9B68002B02D083
:100E80004FF0010301E04FF00003DBB2002B02D072
:100E90006FF003032BE0019B9B6803F10102019BB0
:100EA0009A60019B5B699DF803201A7003F10102AF
:100EB000019B5A61019B5A69019B1B699A4203D3AA
:100EC000019BDA68019B5A61019B1A68019B9A4257
:100ED0000BD0019B1846FFF75BFF03461846FFF750
:100EE00067FC03464FF000025A624FF000031846B9
:100EF00003B000BDAFF30080AFF30080AFF300801C
:100F000000B585B0019000914FF0200383F3118864
:100F1000019BDB69002B12D0019BDB69019898478C
:100F20000EE001980099FFF74BFF0390039B002B05
:100F300006DA4FF0000383F31188039B23E000BF20
:100F4000019B9B68002BECD0019B9B6803F1FF3257
:100F5000019B9A60019B9B691A788DF80B2003F125
:100F60000102019B9A61019B9A69019B1B699A424C
:100F700003D3019BDA68019B9A614FF0000383F36E
:100F800011889DF80B30184605B000BDAFF3008006
:100F900000B587B00390029101920093039BDB6937
:100FA00004934FF0000305934FF0200383F311885F
:100FB000049B002B10D0049B039898470DE00398E6
:100FC0000099FFF7FDFE0346002B06D04FF000030B
:100FD00083F31188059B37E000BF039B9B68002BC0
:100FE000EDD0039B9B6803F1FF32039B9A60039B48
:100FF0009B691978029A1170029A02F10102029219
:1010000003F10102039B9A61039B9A69039B1B698D
:101010009A4203D3039BDA68039B9A614FF0000363
:1010200083F31188059B03F101030593019B03F1F1
:10103000FF330193019B002B01D1059B04E04FF08E
:10104000200383F31188B3E7184607B000BD00BF43
:1010500084B00390029101920093039B1A46039B74
:101060005A60039B5A68039B1A60039B019A9A601B
:10107000039B029A5A61039B5A69039B9A61039BE3
:101080009A69039BDA60029A019BD218039B1A614A
:10109000039B009ADA61039B049A1A6204B07047BA
:1010A00000B587B003900B4601928DF80B304FF0DE
:1010B000200383F311880DE003980199FFF780FE68
:1010C0000590059B002B05DA4FF0000383F3118890
:1010D000059B2AE0039B9B68002BEDD0039B9B683C
:1010E00003F1FF32039B9A60039B5B699DF80B2021
:1010F0001A7003F10102039B5A61039B5A69039B17
:101100001B699A4203D3039BDA68039B5A61039BD2
:10111000DB69002B03D0039BDB69039898474FF0F2
:10112000000383F311884FF00003184607B000BD99
:1011300000B585B00190019B5A69019B9B699A4259
:1011400006D1019B9B68002B02D04FF0010301E008
:101150004FF00003DBB2002B02D06FF002032BE054
:10116000019B9B6803F10102019B9A60019B9B69B3
:101170001A788DF80F2003F10102019B9A61019BFF
:101180009A69019B1B699A4203D3019BDA68019B10
:101190009A61019B1A68019B9A420BD0019B1846E9
:1011A000FFF7F6FD03461846FFF702FB03464FF034
:1011B00000025A629DF80F30184605B000BD00BF0E
:1011C00000B587B00390029101920093039BDB6905
:1011D00004934FF0000305934FF0200383F311882D
:1011E0000CE003980099FFF7EBFD0346002B05D0B8
:1011F0004FF0000383F31188059B3DE0039B9B6840
:10120000002BEED0039B9B6803F1FF32039B9A6097
:10121000039B5B69029A12781A7003F10102039B27
:101220005A61029B03F101030293039B5A69039BDA
:101230001B699A4203D3039BDA68039B5A61049BA0
:10124000002B02D0049B039898474FF0000383F3D0
:101250001188059B03F101030593019B03F1FF3303
:101260000193019B002B01D1059B05E04FF020036A
:1012700083F3118800BFC1E7184607B000BD00BF67
:10128000074B03F1070323F007031A46054B1A60C7
:10129000054B23F007031A46044B1A60704700BF42
:1012A0001C0B00206C090020002000207009002089
:1012B00000B585B001904FF0200383F311880198A9
:1012C00000F00EF803904FF0000383F31188039BA6
:1012D000184605B000BD00BFAFF30080AFF300803B
:1012E00084B00190019B03F1070323F007030193EE
:1012F0000C4B1B681A460C4B1B68D31A1A46019BF1
:101300009A4202D24FF0000309E0074B1B68039397
:10131000054B1A68019BD218034B1A60039B1846B1
:1013200004B07047700900206C090020AFF3008002
:1013300008B5074B074A1A60054B4FF000029A6048
:10134000034B4FF00002DA600348FFF7A9FC08BD29
:1013500078090020B112000888090020AFF300804E
:1013600008B500F06DFC00F0B3FA0A4800F0D0FEBA
:1013700000F016F800F044F800F062F800F0E0F930
:1013800000F046FA00F054F800F00AF901F0B8FC59
:1013900008BD00BFC0300008AFF30080AFF300808D
:1013A00008B500F0F5FC08BDAFF30080AFF3008096
:1013B00000B583B00190019B4FF001021A70019BB0
:1013C0004FF000025A60019B4FF000029A60019BAF
:1013D0004FF00002DA60019B4FF000021A61019B9E
:1013E0004FF000025A61019B03F118031846FFF702
:1013F00057FC03B000BD00BFAFF30080AFF3008027
:1014000008B500F07DFE08BDAFF30080AFF30080AB
:1014100082B00190019B4FF001021A70019B4FF0C6
:1014200000025A6002B07047AFF30080AFF3008053
:10143000704700BFAFF30080AFF30080AFF30080D0
:1014400008B501F025F908BDAFF30080AFF30080C7
:1014500082B00190019B4FF001021A70019B4FF086
:1014600000025A6002B07047AFF30080AFF3008013
:1014700000B583B001900091019B002B01D0009B2F
:10148000002B4FF0200383F31188019B1B78012B65
:1014900003D0019B1B78022B00BF019B009A5A606E
:1014A000009B9A88019B1A81019801F009F9019B20
:1014B0004FF002021A704FF0000383F3118803B05B
:1014C00000BD00BFAFF30080AFF30080AFF300803A
:1014D00000B583B001904FF0200383F31188019B86
:1014E0001B78012B03D0019B1B78022B00BF0198B6
:1014F00001F01EFA019B4FF001021A704FF0000339
:1015000083F3118803B000BDAFF30080AFF3008018
:1015100000B583B0019013460A468DF80320ADF85C
:101520000030019B002B02D09DF80330032B4FF0BD
:10153000200383F311889DF80320BDF80030019843
:1015400011461A4601F03CFA4FF0000383F311886C
:1015500003B000BDAFF30080AFF30080AFF30080B5
:1015600000B583B001900B468DF80330019B002B32
:1015700002D09DF80330032B4FF0200383F3118832
:101580009DF803300198194601F06AFA4FF0000304
:1015900083F3118803B000BDAFF30080AFF3008088
:1015A00008B500F0EDFE08BDAFF30080AFF300809A
:1015B00000B583B001900091019B002B01D0009BEE
:1015C000002B4FF0200383F311880198009900F05D
:1015D00007FF4FF0000383F3118803B000BD00BF85
:1015E00000B585B0039002910192039B03F1300393
:1015F00018460299019A4FF0FF33FFF7E1FD0346C9
:10160000184605B000BD00BFAFF30080AFF3008007
:1016100000B585B0039002910192039B03F10C0386
:1016200018460299019A4FF0FF33FFF7B1FC0346C9
:10163000184605B000BD00BFAFF30080AFF30080D7
:1016400000B583B001900B468DF80330019B03F188
:1016500030029DF80330104619464FF0FF32FFF775
:101660001FFD0346184603B000BD00BFAFF3008066
:1016700000B583B00190019B03F10C0318464FF0B5
:10168000FF31FFF73DFC0346184603B000BD00BF25
:1016900000B585B003900B4601928DF80B30039B8B
:1016A00003F130029DF80B3010461946019AFFF7FE
:1016B000F7FC0346184605B000BD00BFAFF300803D
:1016C00000B583B001900091019B03F10C03184613
:1016D0000099FFF715FC0346184603B000BD00BF94
:1016E00000B585B00390029101920093039B03F132
:1016F000300318460299019A009BFFF761FD0346EB
:10170000184605B000BD00BFAFF30080AFF3008006
:1017100000B585B00390029101920093039B03F101
:101720000C0318460299019A009BFFF731FC03460F
:10173000184605B000BD00BFAFF30080AFF30080D6
:1017400008B501F0BDFA08BDAFF30080AFF300802B
:1017500000B587B0059004910392059B154A1A6065
:10176000059B03F104031A46059B5A60059B4FF045
:1017700001021A72059B03F10C02059B03F154034D
:1017800005990091104619464FF01002049BFFF78F
:1017900037FB059B03F13002059B03F164030599B8
:1017A0000091104619464FF01002039BFFF750FCC2
:1017B00007B000BD20300008AFF30080AFF3008019
:1017C00000B583B001900B468DF80330019B5B6937
:1017D000002B07D1019B03F1040318464FF00401CD
:1017E000FFF76EFA019B03F10C029DF803301046DF
:1017F0001946FFF735FB0346002B07DA019B03F17F
:10180000040318464FF08001FFF75AFA03B000BDF9
:1018100008B500F02DFE08BDAFF30080AFF30080E7
:1018200000B583B00190019B4FF001021A70019B3B
:101830004FF000025A60019B4FF000029A60019B3A
:1018400003F10C031846FFF72BFA03B000BD00BFED
:1018500082B00190024B5A68019B9A6002B07047B7
:10186000001000E0AFF30080AFF30080AFF3008022
:1018700084B00190114B5B680393019B9B68039AB2
:10188000D21A0F4B1B68D21A019B9A60019B9A686F
:10189000019BDB689A4204D9019B9A68019BDA603C
:1018A00009E0019B9A68019B1B699A4203D2019B44
:1018B0009A68019B1A6104B0704700BF001000E0F5
:1018C00098090020AFF30080AFF30080AFF30080F1
:1018D00000B587B00A4B4FF000021A6001AB184602
:1018E00000F016F8019B01AA10469847029B01AA36
:1018F00010469847039A024B1A6007B000BD00BF1C
:1019000098090020AFF30080AFF30080AFF30080B0
:1019100082B00190019B094A1A60019B084A5A60F3
:10192000019B4FF000029A60019B4FF00002DA60C9
:10193000019B4FF0FF321A6102B070475118000846
:1019400071180008AFF30080AFF30080AFF30080A0
:1019500000B583B00B4B1B6803F00F030193094BD9
:10196000019A5A60084B1B68002B06D0064B1B6877
:10197000054A5268104601999847FEF781FC03B06A
:1019800000BD00BF00000240A0090020AFF30080AE
:1019900000B583B00D4B1B684FEA131303F00F0320
:1019A00001930A4B019A4FEA02125A60084B9B6856
:1019B000002B06D0064B9B68054AD2681046019959
:1019C0009847FEF75DFC03B000BD00BF0000024079
:1019D000A0090020AFF30080AFF30080AFF30080D8
:1019E00000B583B00D4B1B684FEA132303F00F03C0
:1019F00001930A4B019A4FEA02225A60084B1B6975
:101A0000002B06D0064B1B69054A52691046019906
:101A10009847FEF735FC03B000BD00BF0000024050
:101A2000A0090020AFF30080AFF30080AFF3008087
:101A300000B583B00D4B1B684FEA133303F00F035F
:101A400001930A4B019A4FEA02325A60084B9B6994
:101A5000002B06D0064B9B69054AD26910460199B6
:101A60009847FEF70DFC03B000BD00BF0000024028
:101A7000A0090020AFF30080AFF30080AFF3008037
:101A800000B583B00D4B1B684FEA134303F00F03FF
:101A900001930A4B019A4FEA02425A60084B1B6AB3
:101AA000002B06D0064B1B6A054A526A1046019964
:101AB0009847FEF7E5FB03B000BD00BF0000024001
:101AC000A0090020AFF30080AFF30080AFF30080E7
:101AD00000B583B00D4B1B684FEA135303F00F039F
:101AE00001930A4B019A4FEA02525A60084B9B6AD3
:101AF000002B06D0064B9B6A054AD26A1046019914
:101B00009847FEF7BDFB03B000BD00BF00000240D8
:101B1000A0090020AFF30080AFF30080AFF3008096
:101B200000B583B00D4B1B684FEA136303F00F033E
:101B300001930A4B019A4FEA02625A60084B1B6BF1
:101B4000002B06D0064B1B6B054A526B10460199C1
:101B50009847FEF795FB03B000BD00BF00000240B0
:101B6000A0090020AFF30080AFF30080AFF3008046
:101B700082B0144B4FF000021A604FF00003019343
:101B800016E01149019A13464FEA43039B184FEAA6
:101B90008303CB181B684FF000021A600B4B019AAD
:101BA0004FF0000143F83210019B03F10103019350
:101BB000019B062BE5DD064B4FF0FF325A6002B069
:101BC000704700BF9C09002040300008A009002099
:101BD00000000240AFF30080AFF30080AFF300805D
:101BE00008B5154B144A126842F480721A60134B00
:101BF0001B6A03F44073B3F5407F07D00F4B4FF4DB
:101C000080321A620D4B4FF000021A620B4B1B6AB6
:101C100003F40043002B0DD1084B084A126A42F42A
:101C200040721A6200F084FB044B044A126A42F4C8
:101C300000421A6208BD00BF007000400010024060
:101C400008B51E4B1B691D4B4FF0FF321A611B4B31
:101C50004FF000021A61194BDB68184B4FF0FF324E
:101C6000DA60164B4FF00002DA60154B45F6BF52B2
:101C70005A60134B4FF000029A60114B4FF007026D
:101C80001A60104B0F4AD26842F08072DA600E4B35
:101C90000D4A126842F001021A60084B074AD269E5
:101CA00042F08052DA61054B044AD26942F0006288
:101CB000DA61FFF795FFFFF75BFF08BD00100240F8
:101CC00010E000E0F0ED00E0001000E0AFF3008075
:101CD000294B294A126842F001021A6000BF264BC4
:101CE0001B6803F00203002BF9D0234B224A126831
:101CF00002F0F9021A60204B4FF000025A6000BF58
:101D00001D4B5B6803F00C03002BF9D11A4B1A4AE8
:101D1000126842F480321A6000BF174B1B6803F44C
:101D20000033002BF9D0144B134A526842F4A0221E
:101D30005A60114B104A126842F080721A6000BF5C
:101D40000D4B1B6803F00073002BF9D00A4B0B4AB4
:101D50005A600B4B4FF010021A60074B064A52684C
:101D600042F002025A6000BF034B5B6803F00C03B1
:101D7000082BF9D1704700BF0010024000644500F5
:101D800000200240AFF30080AFF30080AFF300808B
:101D900008B51E48FFF70CFB1C4B1D4A9A621B4BF3
:101DA0001C4ADA62194B42F28A521A631A4B1A4AD7
:101DB000926942F400729A61154B4FF000025A602A
:101DC000134B4FF001029A60114B4FF009029A60D9
:101DD00000BF0F4B9B6803F00803002BF9D10C4B9D
:101DE0004FF005029A6000BF094B9B6803F00403A3
:101DF000002BF9D1064B4FF000029A60064B064AC1
:101E0000926922F400729A6108BD00BFD8090020CF
:101E1000002401404030000800100240AFF3008071
:101E200008B5074B4FF001025A61064B5B685B68CF
:101E300004484FF000019847FEF722FA08BD00BFA2
:101E4000000401400C0A0020AFF30080AFF30080D3
:101E500008B5074B4FF002025A61064B5B68DB681E
:101E600004484FF001019847FEF70AFA08BD00BF89
:101E7000000401400C0A0020AFF30080AFF30080A3
:101E800008B5074B4FF004025A61064B5B685B696B
:101E900004484FF002019847FEF7F2F908BD00BF71
:101EA000000401400C0A0020AFF30080AFF3008073
:101EB00008B5074B4FF008025A61064B5B68DB69B7
:101EC00004484FF003019847FEF7DAF908BD00BF58
:101ED000000401400C0A0020AFF30080AFF3008043
:101EE00008B5074B4FF010025A61064B5B685B6AFE
:101EF00004484FF004019847FEF7C2F908BD00BF3F
:101F0000000401400C0A0020AFF30080AFF3008012
:101F100000B583B0234B5B6903F478730193214BC5
:101F2000019A5A61019B03F02003002B06D01E4B3F
:101F30005B68DB6A1C484FF005019847019B03F082
:101F40004003002B06D0184B5B685B6B16484FF0C4
:101F500006019847019B03F08003002B06D0124B2B
:101F60005B68DB6B10484FF007019847019B03F457
:101F70008073002B06D00C4B5B685B6C0A484FF0FB
:101F800008019847019B03F40073002B06D0064B11
:101F90005B68DB6C04484FF009019847FEF770F965
:101FA00003B000BD000401400C0A0020AFF3008024
:101FB00000B583B0294B5B6903F47C430193274B45
:101FC000019A5A61019B03F48063002B06D0244BD5
:101FD0005B685B6D22484FF00A019847019B03F450
:101FE0000063002B06D01E4B5B68DB6D1C484FF076
:101FF0000B019847019B03F48053002B06D0184B2C
:102000005B685B6E16484FF00C019847019B03F428
:102010000053002B06D0124B5B68DB6E10484FF06C
:102020000D019847019B03F48043002B06D00C4B15
:102030005B685B6F0A484FF00E019847019B03F401
:102040000043002B06D0064B5B68DB6F04484FF063
:102050000F019847FEF714F903B000BD00040140DA
:102060000C0A0020AFF30080AFF30080AFF30080D4
:1020700008B5074B4FF480325A61064B5B68D3F8C2
:10208000843004484FF010019847FEF7F9F808BD76
:10209000000401400C0A0020AFF30080AFF3008081
:1020A00008B5074B4FF400325A61064B5B68D3F812
:1020B0008C3004484FF011019847FEF7E1F808BD55
:1020C000000401400C0A0020AFF30080AFF3008051
:1020D00008B5074B4FF480225A61064B5B68D3F872
:1020E000943004484FF012019847FEF7C9F808BD34
:1020F000000401400C0A0020AFF30080AFF3008021
:1021000008B50248FFF784F908BD00BF0C0A00209B
:1021100082B00190214B214A926942F07D029A617E
:102120001F4B019A1268DA601D4B019A92685A603F
:102130001B4B019A52681A601A4B019AD268DA60F6
:10214000184B019A52695A60164B019A12691A602B
:10215000154B019A9269DA60134B019A126A5A6020
:10216000114B019AD2691A60104B019A526ADA60D7
:102170000E4B019AD26A5A600C4B019A926A1A600D
:102180000B4B019A126BDA60094B019A926B5A6001
:10219000074B019A526B1A6002B070470010024060
:1021A00000080140000C01400010014000140140F3
:1021B00000180140AFF30080AFF30080AFF3008060
:1021C0008AB0039002910192019B032B03D1039BE0
:1021D000029A1A6105E0019B042B02D1039B029A2B
:1021E0005A612E4A019BD3181B7804934FF00003C9
:1021F0000693069B0793079B0893089B09934FF050
:102200000003059335E0089B4FEA03130893099BED
:102210004FEA03130993069B4FEA03130693079BA8
:102220004FEA03130793029B03F08003002B04D1B2
:10223000089B43F00F03089304E0069A049B42EACC
:1022400003030693029B03F40043002B04D1099B74
:1022500043F00F03099304E0079A049B42EA030347
:102260000793029B4FEA43030293059B03F101038B
:102270000593059B072BC6D9039B5A68099B1A40F7
:10228000079B1A43039B5A60039B1A68089B1A40DA
:10229000069B1A43039B1A600AB07047A0300008DF
:1022A00000B583B0204B9B889BB203F00803002B42
:1022B000F8D01D4B1B889AB21B4B9B889BB202EA3D
:1022C0000303ADF80630184B174A928892B222F0F9
:1022D000070292B29A80BDF8063003F00103DBB228
:1022E000002B05D0114B1B6810484FF00001984798
:1022F000BDF8063003F00203002B05D00B4B1B6822
:102300000A484FF001019847BDF8063003F0040376
:10231000002B05D0054B1B6804484FF0020198477D
:10232000FDF7AEFF03B000BD00280040140A0020F6
:102330000F4B9B889BB203F02003002BF8D00C4B73
:102340000B4A928892B242F0100292B29A80084BE5
:102350004FF000021A81064B4FF223429A81044B40
:10236000034A928892B222F0100292B29A80704789
:1023700000280040AFF30080AFF30080AFF300808F
:1023800008B5124B114A928892B222F0080292B21A
:102390009A800E4B9B889BB203F00803002BF8D069
:1023A0000A4B9B889BB203F02003002BF8D0074B0D
:1023B0004FF000021A80064B4FF000021A604FF0F7
:1023C00003004FF0F001FDF7D3FF08BD00280040E7
:1023D000140A0020AFF30080AFF30080AFF3008059
:1023E00084B0019000911D4B9B889BB203F00803C1
:1023F000002BF8D0194B1B8B9BB24FEA0342174BB3
:102400009B8B9BB2D218009B1A60144B1B8A9BB209
:102410004FEA0342114B9B8A9BB2D3180393009B54
:102420001A680E4B1B8B9BB24FEA03410B4B9B8BE5
:102430009BB2CB189A42DDD1039B094A02FB03F2FF
:10244000084BD318084AA2FB03134FEA93339BB2FD
:102450001A46009B5A6004B0704700BF0028004035
:1024600018FCFFFFB8A8B90383DE1B43AFF300805D
:1024700008B5164B4FF6FF721A801548FFF7D0F9D2
:10248000134B144ADA61124B134A1A62104B134A67
:102490005A620F4B41F20A029A620D4B41F2180246
:1024A000DA620F48FFF7BCF90D4B0E4ADA610C4BAC
:1024B0000D4A1A620A4B0D4A5A62094B41F20A024E
:1024C0009A62074B41F21802DA6208BD780A0020CE
:1024D000180A0020003001404C3000085830000835
:1024E000480A0020003800406430000870300008BE
:1024F00000B585B00190019B1B691B69ADF80E30DA
:10250000019B1B69DB689AB2BDF80E3002EA030337
:102510009BB203F0FF03ADF80E30019B1B69BDF8C1
:102520000E206FEA02021A61BDF80E3003F00203BA
:10253000002B04D0019B5B681B6901989847BDF88C
:102540000E3003F00403002B04D0019B5B689B69F1
:1025500001989847BDF80E3003F00803002B04D013
:10256000019B5B681B6A01989847BDF80E3003F029
:102570001003002B04D0019B5B689B6A019898476D
:10258000BDF80E3003F00103DBB2002B04D0019B39
:102590005B689B680198984705B000BDAFF3008069
:1025A00008B5064B6FF001021A61054B5B689B682A
:1025B00003489847FDF764FE08BD00BF002C0140AA
:1025C0007C0A0020AFF30080AFF30080AFF30080FF
:1025D00000B583B0214B1B699AB2204BDB689BB2DC
:1025E00002EA03039BB203F0FF03ADF806301B4B76
:1025F000BDF806206FEA02021A61BDF8063003F04A
:102600000203002B04D0164B5B681B6914489847E3
:10261000BDF8063003F00403002B04D0104B5B68B8
:102620009B690F489847BDF8063003F00803002B5C
:1026300004D00B4B5B681B6A09489847BDF806300D
:1026400003F01003002B04D0054B5B689B6A044821
:102650009847FDF715FE03B000BD00BF002C0140F8
:102660007C0A0020AFF30080AFF30080AFF300805E
:1026700008B50348FFF73CFFFDF702FE08BD00BFA9
:10268000900A0020AFF30080AFF30080AFF300802A
:1026900008B50648FEF7DCFE044B054A1A610548FA
:1026A000FEF7D6FE034B044A1A6108BD7C0A0020DF
:1026B000002C0140900A002000080040AFF3008089
:1026C00000B585B00190019B1B78012B4AD1019A7E
:1026D000924B9A421ED1924B914A926942F4006207
:1026E0009A618F4B8E4AD26842F40062DA608C4B5A
:1026F0004FF00002DA604FF019004FF07001FDF763
:1027000037FE4FF01B004FF07001FDF731FE019BCB
:10271000844ADA60019A844B9A4218D1804B804AED
:10272000D26942F00402DA617D4B7D4A126942F0BF
:1027300004021A617A4B4FF000021A614FF01E003A
:102740004FF07001FDF714FE019B764ADA60019BA1
:102750001B6946F668029A61019B1B6946F668028E
:10276000DA612AE0019B1B694FF000021A60019BAD
:102770001B69019A5268126B22F0FF02DA60019B1A
:102780001B694FF000021A61019B1B694FF00002A8
:102790005A63019B1B694FF000029A63019B1B69FE
:1027A0004FF00002DA63019B1B694FF000021A64CC
:1027B000019B1B694FF000025A62019BDA68019B82
:1027C0005B681B68B2FBF3F303F1FF330293029AD9
:1027D0004FF6FF739A420BD8029B03F10103019A53
:1027E0005268126802FB03F2019BDB689A4200BF49
:1027F000019B1B69029A92B29A62019B1B69019A22
:10280000128902F1FF3292B2DA62019B1B69019ACE
:102810005268D26A5A604FF00003ADF80E30019B47
:102820005B68DB6803F00F03012B07D0022B0BD191
:10283000BDF80E3043F00203ADF80E30BDF80E3097
:1028400043F00103ADF80E30019B5B685B6903F058
:102850000F03012B07D0022B0BD1BDF80E3043F034
:102860002003ADF80E30BDF80E3043F01003ADF884
:102870000E30019B5B68DB6903F00F03012B07D06F
:10288000022B0BD1BDF80E3043F40073ADF80E30BF
:10289000BDF80E3043F48073ADF80E30019B5B68D9
:1028A0005B6A03F00F03012B07D0022B0BD1BDF89D
:1028B0000E3043F40053ADF80E30BDF80E3043F443
:1028C0008053ADF80E30019B1B69BDF80E201A62D3
:1028D000019B1B694FF001025A61019B1B69019A20
:1028E0001269D168019A52689268002A0CBF0022CE
:1028F000012241EA0202DA60019B1B694FF00002EB
:102900001A61019B1B694FF400425A64019B1B69C9
:102910004FF085021A6005B000BD00BF7C0A0020A0
:102920000010024000366E01900A0020AFF30080D4
:1029300000B583B00190019B1B78022B33D1019B22
:102940001B694FF000021A60019B1B694FF00002E7
:10295000DA60019B1B694FF000021A61019B1B6941
:102960004FF000025A64019A104B9A420DD14FF079
:102970001900FDF74DFD4FF01B00FDF749FD0C4B15
:102980000B4A926922F400629A61019A094B9A42B9
:1029900009D14FF01E00FDF73BFD054B044AD269FB
:1029A00022F00402DA6103B000BD00BF7C0A0020FF
:1029B00000100240900A0020AFF30080AFF30080C7
:1029C00084B0019013460A468DF80320ADF800301C
:1029D000019B19699DF80330BDF8002003F10C0339
:1029E0004FEA8303CB185A60019B5A689DF8033065
:1029F00003F101034FEAC303D3189B68002B27D0D0
:102A0000019B1B69DB6803939DF803304FF00202C2
:102A100002FA03F31A46039B02EA0303002B17D1C1
:102A2000019B1B699DF803204FF0020101FA02F29D
:102A30001146039A41EA0202DA60019B1B699DF884
:102A400003204FF0020101FA02F26FEA02021A615A
:102A500004B07047AFF30080AFF30080AFF30080A5
:102A600082B001900B468DF80330019B1A699DF8E6
:102A7000033003F10C034FEA8303D3184FF0000235
:102A80005A60019B1B69019A1269D1689DF8032065
:102A90004FF0020000FA02F26FEA020201EA0202BB
:102AA000DA6002B0704700BFAFF30080AFF3008080
:102AB00000B585B001900B46ADF802304FF0000331
:102AC0000393BDF8023003F00803002B03D0039BEF
:102AD00043F080030393BDF8023003F00103DBB23F
:102AE000002B03D0039B43F020030393BDF8023077
:102AF00003F00203002B03D0039B43F04003039336
:102B0000BDF8023003F00403002B03D0039B43F411
:102B100080730393019B03F1040318460399FEF7A6
:102B2000CFF805B000BD00BFAFF30080AFF3008069
:102B300000B587B00190019B5B6F0493049B9B8958
:102B4000ADF80E30049B1B88ADF81630BDF816307A
:102B500003F48073002B13D04FF0200383F311880C
:102B6000019B03F1040318464FF40071FEF7A8F827
:102B70004FF0000383F31188049B4FF6FF621A8025
:102B80004FF0200383F3118817E0BDF8163003F0EF
:102B90000F03002B05D0BDF8163001981946FFF73A
:102BA00087FF049B9B889BB2DBB201981946FEF716
:102BB00007FE049B1B88ADF81630BDF8163003F0F5
:102BC0002003002BE1D14FF0000383F31188BDF8FF
:102BD0000E3003F08003002B2FD0BDF8163003F029
:102BE0008003002B29D04FF0200383F31188019B31
:102BF00003F130031846FEF79BFA0290029B002B6C
:102C000013DA019B03F1040318464FF00801FEF7A5
:102C100057F8BDF80E3023F0C0039BB243F04003D9
:102C20009BB29AB2049B9A8103E0029B9AB2049BE6
:102C30009A804FF0000383F31188BDF8163003F03B
:102C40004003002B1AD04FF0200383F31188019B1F
:102C500003F1040318464FF01001FEF731F84FF06E
:102C6000000383F31188BDF80E3023F0C0039AB23D
:102C7000049B9A81049B4FF6BF721A8007B000BD77
:102C800082B00190044B044A928992B242F08002D1
:102C900092B29A8102B0704700440040AFF30080C6
:102CA00008B50348FFF744FFFDF7EAFA08BD00BF87
:102CB000A40A0020AFF30080AFF30080AFF30080E0
:102CC00008B505484FF00001044AFEF741FD024BEC
:102CD000034A5A6708BD00BFA40A0020812C0008DF
:102CE00000440040AFF30080AFF30080AFF30080FA
:102CF00008B5FEF7EDFF08BDAFF30080AFF300802D
:102D0000704700BFAFF30080AFF30080AFF30080E7
:102D100008B5114B4FF480725A61104B4FF40062AA
:102D20005A610E4B4FF480625A610B484FF4807128
:102D30004FF01002FFF744FA08484FF400614FF0DB
:102D40000602FFF73DFA05484FF480614FF0060296
:102D5000FFF736FA08BD00BF000C0140001001402B
:102D600008B5134B4FF400621A614FF01400FDF7E1
:102D700037FF0F4B4FF480621A610E480E49FEF781
:102D800077FB4FF4966040F6FC0100F049F80948E3
:102D90004FF00201FEF7E4FB0648FEF799FB044BF7
:102DA0004FF400625A61024B4FF480625A6108BDD1
:102DB00000100140900A002000080020AFF30080BE
:102DC00008B5134B4FF400621A614FF01400FDF781
:102DD00007FF0F4B4FF480621A610E480E49FEF751
:102DE00047FB40F6FC004FF4966100F019F80948E3
:102DF0004FF00201FEF7B4FB0648FEF769FB044BF7
:102E00004FF400625A61024B4FF480625A6108BD70
:102E100000100140900A002000080020AFF300805D
:102E200000B58DB001900091019B4FF47A7202FBC6
:102E300003F3A3F59213A3F57863564A82FB0312BA
:102E40004FEA62224FEAE373D31A0A93009B4FF4CE
:102E50007A7202FB03F3A3F59213A3F578634D4A4C
:102E600082FB03124FEA62224FEAE373D31A0993FB
:102E70000A9B0B93099A0A9B9A4202DD41F288331E
:102E800000E0454B089303AB44481946FEF790FB1E
:102E9000039B4FF47A7202FB03F2049BD31807934F
:102EA00042E003AB3D481946FEF782FB039B4FF41B
:102EB0007A7202FB03F2049BD218079BD31A069383
:102EC000089B069A02FB03F3354A82FB03124FEA82
:102ED000A2124FEAE373D21A0A9BD3180B930B9BEF
:102EE00040F24C4202FB03F32D4A82FB03124FEAED
:102EF000A2124FEAE373D31A03F596630593294BA5
:102F00001B89059A02FB03F2274BA3FB02134FEA2E
:102F100093339BB223484FF002011A46FEF7F8FAAA
:102F20004FF01400FDF75CFE0B9A0A9BD31A83EA5C
:102F3000E372A2EBE37209990A9BCB1A002BB8BF8C
:102F40005B429A42ADDB099B40F24C4202FB03F329
:102F5000134A82FB03124FEAA2124FEAE373D31A19
:102F600003F5966305930F4B1B89059A02FB03F249
:102F70000D4BA3FB02134FEA93339BB209484FF06A
:102F800002011A46FEF7C4FA4FF0C800FDF728FE0A
:102F90000DB000BD7307287778ECFFFF140A0020FE
:102FA000D34D6210900A00205917B7D1AFF30080BB
:102FB00008B5FEF7D5F9FDF7A3FAFFF7A9FEFFF76D
:102FC000CFFE4FF0C800FDF70BFEFFF7F9FE4FF400
:102FD0007A70FDF705FEFFF7C3FE4FF0C800FDF75E
:102FE000FFFDFFF7EDFE4FF47A70FDF7F9FDE6E720
:102FF00069646C6500000000000000000000000033
:103000006D61696E00168311040448080C101418D1
:10301000001C1D1E1F20000000000000000000001A
:10302000E115000811160008411600087116000885
:1030300091160008C1160008E116000811170008D3
:10304000080002400400024000000B001C00024087
:103050000400024004010C00300002400400024061
:1030600008020D0044000240040002400C030E0060
:10307000580002400400024010040F006C0002409F
:1030800004000240140510008000024004000240C9
:103090001806110000000000000000000000000001
:1030A00004020408080003070808080808080808BC
:1030B0000B0F0000000000000000000000000000F6
:1030C000FFFFFFFF4444444444444444FFFFFFFFE8
:1030D0004444444444444444FFFFFFFF44444444C4
:1030E00044444444FFFFFFFF4444444444444444B4
:0C30F000FFFFFFFF888888888888888898
:1031000040420F00204E00000000000000000000C0
:1031100000000000000000000000000001000000AE
:10312000000000000000000000000000000000009F
:04313000000000009B
:0400000508000111DD
:00000001FF
