:020000040800F2
:10000000000400201101000801020008010200089C
:1000100001020008010200080102000801020008B4
:100020000102000801020008010200085102000854
:100030000102000801020008010200082102000874
:1000400001020008010200080102000871380008DE
:100050000102000801020008010200080102000874
:10006000010200080102000801020008E12E000858
:10007000412F0008A12F000801300008613000085E
:10008000C130000821310008010200080102000807
:100090000102000801020008010200080102000834
:1000A0000102000801020008010200080102000824
:1000B0000102000801020008010200080102000814
:1000C0000102000801020008010200080102000804
:1000D0000102000801020008414100080102000875
:0C00E000010200080102000801020008F3
:1000F000704700BFAFF30080AFF30080AFF3008024
:10010000FEE700BFAFF30080AFF30080AFF30080E5
:1001100072B640F60004C2F2000484F309884FF07E
:10012000020484F31488BFF36F8F40F20004C2F21C
:10013000000440F20045C2F2000504E04FF05533E0
:10014000236004F10404AC42F8D340F20044C2F24C
:10015000000440F60005C2F2000504E04FF05533FC
:10016000236004F10404AC42F8D304F011F847F220
:10017000B005C0F6000540F60004C2F2000405E038
:100180002B68236004F1040405F1040540F62803FC
:10019000C2F200039C42F3D340F62804C2F20004EA
:1001A00040F6F845C2F2000504E04FF0000323607A
:1001B00004F10404AC42F8D3FFF79AFF40F2EC04D8
:1001C000C0F6000403E02368984704F1040440F2F9
:1001D000EC03C0F600039C42F5D306F0B9F940F2F7
:1001E000EC04C0F6000403E02368984704F104041B
:1001F00040F2EC03C0F600039C42F5D3FFF780FF0A
:10020000FEE700BFAFF30080AFF30080AFF30080E4
:1002100072B6FEE7AFF30080AFF30080AFF300806B
:1002200008B500F0F5FA4FF0200383F3118800F0D1
:10023000AFFA00F0EDF900F0CBFA4FF0000383F3D2
:10024000118800F015FB00F043F808BDAFF3008003
:1002500010B483B0EFF309840194019B03F12003F0
:100260000193019B83F309884FF0000383F3118806
:1002700003B010BC704700BFAFF30080AFF3008045
:1002800008B54FF46D43CEF200034FF000029A60C0
:100290004FF46D43CEF200034FF44072C0F2FA52B5
:1002A000DA604FF007004FF0100100F011F94FF045
:1002B0000A004FF0200100F00BF94FF00B004FF057
:1002C000800100F005F908BDAFF30080AFF30080B6
:1002D00010B483B04FF0200383F311884FF46D43C3
:1002E000CEF200035B6803F40063002B29D0EFF328
:1002F00009840194019BA3F120030193019B83F3E3
:100300000988019B4FF08072DA6140F65013C2F207
:1003100000031B689A6840F65013C2F200039B6901
:100320009B689A4206D9019A40F25133C0F6000305
:1003300093610AE0019A40F25C33C0F600039361D6
:1003400003E04FF0000383F3118803B010BC704743
:1003500000F0DEF900F0B4FD00F0FAF900DF00BFB4
:1003600003460A462DE9F04FC2F80CD0D3F80CD062
:10037000BDE8F08FAFF30080AFF30080AFF30080F3
:1003800008B500F0E5F94FF0000383F31188284623
:10039000A04700F0C5FE08BDAFF30080AFF30080BA
:1003A00084B001900091019B03F003034FEAC30363
:1003B00003934FF46143CEF20003019A4FEA920097
:1003C0004FF46142CEF2000201994FEA910101F12E
:1003D000C00152F82110039A4FF0FF0C0CFA02F200
:1003E0006FEA020201EA0201039ADDF800C00CFA8A
:1003F00002F241EA020100F1C00243F822104FF478
:100400006143CEF20003019A4FEA5212019901F0C2
:100410001F014FF0010000FA01F102F1600243F800
:1004200022104FF46143CEF20003019A4FEA5212B8
:10043000019901F01F014FF0010000FA01F143F8AA
:10044000221004B0704700BFAFF30080AFF300800C
:1004500084B00190019B03F003034FEAC3030393AD
:100460004FF46143CEF20003019A4FEA5212019910
:1004700001F01F014FF0010000FA01F102F120022A
:1004800043F822104FF46143CEF20003019A4FEA81
:1004900092004FF46142CEF2000201994FEA9101BD
:1004A00001F1C00152F82110039A4FF0FF0C0CFA31
:1004B00002F26FEA020201EA020100F1C00243F80F
:1004C000221004B0704700BFAFF30080AFF300808C
:1004D00084B001900091019B03F003034FEAC30332
:1004E00003934FF46D43CEF20003019A4FEA92005A
:1004F0004FF46D42CEF2000201994FEA910101F1F1
:10050000060152F82110039A4FF0FF0C0CFA02F288
:100510006FEA020201EA0201039ADDF800C00CFA58
:1005200002F241EA020100F1060243F8221004B08F
:10053000704700BFAFF30080AFF30080AFF30080DF
:1005400082B0019040F65013C2F200039A6946F25D
:10055000F053C0F600039361FEE700BFAFF30080E5
:1005600000B583B0FFF78CFE00F0DAFA00F0F0F986
:1005700001F086F901F0F4F940F6E800C2F200005B
:100580004FF0400100F0B4FC024640F65013C2F2B6
:1005900000039A6140F65013C2F200039B694FF0CA
:1005A000010283F8202040F65013C2F200039A693A
:1005B00040F20043C2F20003D36100F091F84FF023
:1005C000000383F3118862B640F65013C2F20003B1
:1005D0009A6946F6E053C0F60003936140F2415336
:1005E000C0F600034FF00002009240F62800C2F26D
:1005F00000004FF0C0014FF0010200F031FD03B0E8
:1006000000BD00BFAFF30080AFF30080AFF3008008
:1006100000B583B000F05CF940F65013C2F200035D
:100620009B695A6A02F101025A6240F64013C2F213
:100630000003DB6803F1010240F64013C2F200033D
:10064000DA6040F64013C2F200031B681A4640F617
:100650004013C2F200039A4239D040F64013C2F26E
:1006600000031B689A6802F1FF329A6025E0019B43
:10067000DB680093019B4FF00002DA60019B1A686F
:1006800040F64013C2F200035360019B1A6840F623
:100690004013C2F200031A6000F09AF84FF0000312
:1006A00083F31188019B1A69009B104698474FF00D
:1006B000200383F3118800F06BF840F64013C2F278
:1006C00000031B680193019B9B68002BCFD003B0F4
:1006D00000BD00BFAFF30080AFF30080AFF3008038
:1006E00008B540F63413C2F200031B68002B06D194
:1006F00040F63813C2F200031B68002B05D046F207
:100700001060C0F6000000F013F908BDAFF30080E0
:1007100008B540F63413C2F200031B68002B06D163
:1007200040F63813C2F200031B68002B05D046F2D6
:100730001860C0F6000000F0FBF840F63813C2F273
:1007400000034FF001021A6008BD00BFAFF3008044
:1007500008B540F63413C2F200031B68002B06D123
:1007600040F63813C2F200031B68002B05DC46F28A
:100770002060C0F6000000F0DBF840F63813C2F24B
:1007800000034FF000021A6008BD00BFAFF3008005
:1007900008B540F63413C2F200031B68002B06DDD7
:1007A00040F63813C2F200031B68002B05D046F256
:1007B0002860C0F6000000F0BBF840F63813C2F223
:1007C00000034FF001021A6008BD00BFAFF30080C4
:1007D00008B540F63413C2F200031B68002B06DD97
:1007E00040F63813C2F200031B68002B05DC46F20A
:1007F0003060C0F6000000F09BF840F63813C2F2FB
:1008000000034FF000021A6008BD00BFAFF3008084
:1008100008B54FF0200383F3118840F63413C2F279
:1008200000031B68002B06DB40F63813C2F20003FE
:100830001B68002B05D046F23860C0F6000000F0BF
:1008400077F840F63413C2F200031B6803F101028B
:1008500040F63413C2F200031A604FF0000383F332
:10086000118808BDAFF30080AFF30080AFF30080C4
:1008700008B54FF0200383F3118840F63413C2F219
:1008800000031B68002B06DD40F63813C2F200039C
:100890001B68002B05D046F24060C0F6000000F057
:1008A00047F840F63413C2F200031B6803F1FF322D
:1008B00040F63413C2F200031A604FF0000383F3D2
:1008C000118808BDAFF30080AFF30080AFF3008064
:1008D00008B540F63413C2F200031B68002B06DB98
:1008E00040F63813C2F200031B68002B05DC46F209
:1008F0004860C0F6000000F01BF808BDAFF30080B0
:1009000008B540F63413C2F200031B68002B06D171
:1009100040F63813C2F200031B68002B05DC46F2D8
:100920005060C0F6000000F003F808BDAFF300808F
:1009300000B583B0019040F63C13C2F20003019A67
:100940001A60FFF765FC03B000BD00BFAFF3008085
:1009500040F64012C2F2000240F64013C2F2000319
:100960005A6040F64013C2F200035A6840F6401342
:10097000C2F200031A6040F64013C2F200034FF0C7
:10098000FF329A6040F64013C2F200034FF00002BB
:10099000DA607047AFF30080AFF30080AFF3008000
:1009A00000B587B00390029101920093FFF790FF8A
:1009B000039B002B05D0019B002B02D0029B002B38
:1009C00005D146F26060C0F60000FFF7B1FF039B5F
:1009D000009A1A61039B019ADA6040F64013C2F252
:1009E00000031B68059308E0059B9B68029AC3EB14
:1009F00002030293059B1B680593059B9A68029B63
:100A00009A42F1D3039B059A1A60039B1B685A68AC
:100A1000039B5A60039B5B68059A03995160059A92
:100A200052681A60039B029A9A60059A40F6401336
:100A3000C2F200039A4206D0059B9A68029BC3EB60
:100A40000202059B9A6007B000BD00BFAFF30080B3
:100A500000B583B00190FFF73BFF019B002B05D150
:100A600046F27060C0F60000FFF762FF019BDB6892
:100A7000002B05D146F28060C0F60000FFF758FF5A
:100A8000019B1A6840F64013C2F200039A4208D054
:100A9000019B1B68019A12689168019A92680A4446
:100AA0009A60019B5B68019A12681A60019B1B683F
:100AB000019A52685A60019B4FF00002DA6003B05D
:100AC00000BD00BFAFF30080AFF30080AFF3008044
:100AD00084B00190019B1B680393039B1A68019BE0
:100AE0001A60019B1B68019A5A60039B184604B068
:100AF000704700BFAFF30080AFF30080AFF300801A
:100B000082B00190019B5B68019A12681A60019B98
:100B10001B68019A52685A60019B184602B07047E0
:100B200040F65012C2F2000240F65013C2F2000327
:100B30005A6040F65013C2F200035A6840F6501350
:100B4000C2F200031A6040F65013C2F200034FF0E5
:100B500000029A6040F65012C2F2000240F65013B2
:100B6000C2F200035A6140F65013C2F200035A6900
:100B700040F65013C2F200031A617047AFF30080D1
:100B800000B585B00190FFF7A3FE019B93F82030DC
:100B9000002B04D0019B93F820300E2B05D146F298
:100BA000A060C0F60000FFF7C3FE019B4FF00002FB
:100BB00083F8202040F65013C2F200030393039BF6
:100BC0001B680393039B9A68019B9B689A42F6D229
:100BD000019B039A1A60039B5A68019B5A60019B10
:100BE0005B68039A01995160039A52681A60019BED
:100BF000184605B000BD00BFAFF30080AFF3008022
:100C000000B585B003468DF80730FFF779FE40F652
:100C10005013C2F200039B690393039B9DF80720C6
:100C200083F8202040F65010C2F20000FFF750FF7A
:100C3000024640F65013C2F200039A6140F6501388
:100C4000C2F200039B694FF0010283F820206B463B
:100C5000A3F12402039BDB699A4205D246F2B460F9
:100C6000C0F60000FFF764FE40F65013C2F2000326
:100C70009B6918460399FFF773FB05B000BD00BFE1
:100C800000B585B00190019B03934FF0200383F3DF
:100C90001188FFF77DFD039B93F820300D2B2FD893
:100CA00001A252F823F000BFE10C0008010D00087A
:100CB000010D0008EF0C0008010D0008FB0C0008F6
:100CC000010D0008010D0008010D0008010D0008CC
:100CD000010D0008010D0008010D0008FB0C0008C3
:100CE000FFF776FD4FF0000383F3118815E0039BB7
:100CF0009B6A9A6802F101029A600398FFF700FF6D
:100D0000039B4FF0FF329A620398FFF739FFFFF71A
:100D10005FFD4FF0000383F3118805B000BD00BFF5
:100D200000B589B0034600918DF80730FFF7E8FD64
:100D3000009BB3F1FF3F1AD040F65013C2F20003FC
:100D40009B6903AA1046009940F68142C0F6000252
:100D5000FFF726FE9DF807301846FFF751FF069B68
:100D6000002B0AD003AB1846FFF772FE06E09DF891
:100D700007301846FFF744FF00E000BF40F650136D
:100D8000C2F200039B699B6A184609B000BD00BF10
:100D900000B585B001900091FFF7B2FD019B009A6C
:100DA0009A62019B9A6840F65013C2F200039B6955
:100DB0009B689A4203D80198FFF7E2FE25E040F6CF
:100DC0005013C2F200039B691846FFF7D9FE034691
:100DD000039340F65013C2F20003019A9A61019BFB
:100DE0004FF0010283F820206B46A3F12402039BFD
:100DF000DB699A4205D246F2B460C0F60000FFF704
:100E000097FD01980399FFF7ABFA05B000BD00BF4D
:100E100000B583B040F65013C2F200039B69009303
:100E200040F65010C2F20000FFF752FE024640F6B4
:100E30005013C2F200039A6140F65013C2F200034D
:100E40009B694FF0010283F82020009B4FF00002C5
:100E500083F8202040F65013C2F200030193019B57
:100E60001B680193019B9A68009B9B689A42F6D885
:100E7000009B019A1A60019B5A68009B5A60009B74
:100E80005B68019A00995160019A52681A606B463A
:100E9000A3F12402009BDB699A4205D246F2B460BA
:100EA000C0F60000FFF744FD40F65013C2F2000305
:100EB0009B6918460099FFF753FA03B000BD00BFC5
:100EC00008B5FFF7A5FF08BDAFF30080AFF30080C2
:100ED00084B00190019B1B680393039B1A68019BDC
:100EE0001A60039B184604B0704700BFAFF3008040
:100EF00082B001900091019B009A9A60019B4FF093
:100F0000020283F82020019B4FF0000283F8212089
:100F1000019B009A5A64019B4FF000021A64019BE6
:100F20004FF00002DA63019B4FF000025A62019B0E
:100F30004FF0010283F82220019B4FF000029A61DA
:100F400040F65013C2F20003019A136140F65013A9
:100F5000C2F200035A69019B5A61019B5A6940F62B
:100F60005013C2F200030199596140F65013C2F2C6
:100F700000035B691361019B03F12C031A46019B7B
:100F8000DA62019B03F130031A46019B5A63019B0D
:100F90005A6B019B1A63019B03F14C02019BDA61BE
:100FA000019B184602B07047AFF30080AFF300809A
:100FB00084B00390029113468DF8073007E0039B3D
:100FC0009DF807201A70039B03F101030393039A12
:100FD000029B9A42F3D304B0704700BFAFF3008086
:100FE00000B587B00390029101920093039B059393
:100FF000FFF76EFC039B002B08D0029BAF2B05D99B
:10100000019B7F2B02D8009B002B05D146F2D060BC
:10101000C0F60000FFF78CFC039A029BA3F12403A7
:101020001A44059BDA60059BDB68009A1A60059BF1
:10103000DB68089A5A60059BDA6840F28133C0F693
:101040000003136205980199FFF752FF0346184603
:1010500007B000BDAFF30080AFF30080AFF30080B6
:1010600000B589B00590049103920293059A059BFF
:1010700003F14C03104619464FF0FF02FFF798FFAB
:10108000059B03F14C020599049B0B44104619463D
:101090004FF05502FFF78CFF4FF0200383F31188C8
:1010A000FFF736FB0A9B009305980499039A029B6D
:1010B000FFF796FF0346079307984FF00001FFF7ED
:1010C00067FEFFF745FB4FF0000383F31188079B92
:1010D000184609B000BD00BFAFF30080AFF3008039
:1010E00000B583B00190019B002B05D146F2107032
:1010F000C0F60000FFF71CFC4FF0200383F31188BB
:10110000FFF706FB4FF006000199FFF709FEFFF716
:101110001FFB4FF0000383F3118803B000BD00BF35
:1011200000B583B001904FF0200383F31188FFF7DF
:10113000EFFA019800F004F803B000BDAFF30080AF
:1011400000B585B0019040F65013C2F200039B69D0
:101150000393039B019A9A6209E0039B03F12C031A
:101160001846FFF7B5FE03461846FFF709FD039B37
:10117000DA6A039B03F12C039A42EED1039B93F8A6
:10118000213003F00303002B09D1039B5B69039A11
:1011900012691A61039B1B69039A52695A614FF0E5
:1011A0000E00FFF72DFD46F22070C0F60000FFF79D
:1011B000BFFB05B000BD00BFAFF30080AFF3008000
:1011C00000B583B00190019B002B05D146F27070F1
:1011D000C0F60000FFF7ACFB019B1A46019B5A606A
:1011E000019B5A68019B1A60019B4FF000029A60B4
:1011F00003B000BDAFF30080AFF30080AFF3008019
:1012000000B585B001900091FFF762FB019B002BB8
:1012100005D146F64C00C0F60000FFF789FB019BA4
:101220001B68039311E0039BDA68009B42EA030208
:10123000039BDA60039B5A68039B9B681046194620
:1012400000F00EF8039B1B680393019B039A9A42DC
:10125000E9D105B000BD00BFAFF30080AFF300805F
:1012600000B583B001900091FFF732FB019B002B8A
:1012700005D146F67400C0F60000FFF759FB019B4C
:10128000DA6B009B42EA0302019BDA63019B93F84D
:101290002030082B07D1019BDA6B019B9B6A02EA85
:1012A0000303002B0ED1019B93F82030092B10D1A2
:1012B000019BDA6B019B9B6A02EA0302019B9B6A1A
:1012C0009A4206D10198FFF75BFC03464FF00002FB
:1012D0009A6203B000BD00BFAFF30080AFF300809F
:1012E00082B001900091009A019B1A60009B5A689D
:1012F000019B5A60019B5B68009A01995160009ABA
:1013000052681A6002B07047AFF30080AFF30080FC
:1013100084B00190019B1B680393039B1A68019B97
:101320001A60019B1B68019A5A60039B184604B01F
:10133000704700BFAFF30080AFF30080AFF30080D1
:1013400000B583B001900091009B002B02D14FF0BB
:10135000FF3316E040F65013C2F200039B69019A76
:101360009A6240F65013C2F200039A69019B10463C
:101370001946FFF7B5FF4FF00D000099FFF7D0FCBD
:101380000346184603B000BDAFF30080AFF3008002
:1013900084B00390029101920093039B1A46039B31
:1013A0005A60039B5A68039B1A60039B4FF000022C
:1013B0009A60039B029A5A61039B5A69039B9A6144
:1013C000039B9A69039BDA60029A019B1A44039B70
:1013D0001A61039B009ADA61039B049A1A6204B0B3
:1013E000704700BFAFF30080AFF30080AFF3008021
:1013F00000B583B001900B468DF80330FFF768FA13
:10140000019B5A69019B9B699A4206D1019B9B688B
:10141000002B02D04FF0010301E04FF00003DBB2DC
:10142000002B02D06FF003032BE0019B9B6803F1BC
:101430000102019B9A60019B5B699DF803201A7071
:1014400003F10102019B5A61019B5A69019B1B69CF
:101450009A4203D3019BDA68019B5A61019B1A6887
:10146000019B9A420BD0019B1846FFF751FF0346A0
:101470001846FFF785FB03464FF000029A624FF0D3
:101480000003184603B000BDAFF30080AFF3008047
:1014900000B585B0019000914FF0200383F31188CF
:1014A000FFF736F9019BDB69002B15D0019BDB6947
:1014B0000198984711E001980099FFF741FF034612
:1014C0000393039B002B08DAFFF742F94FF0000368
:1014D00083F31188039B25E000BF019B9B68002BD1
:1014E000E9D0019B9B6803F1FF32019B9A60019B4D
:1014F0009B691A788DF80B2003F10102019B9A6118
:10150000019B9A69019B1B699A4203D3019BDA688C
:10151000019B9A61FFF71CF94FF0000383F31188D8
:101520009DF80B30184605B000BD00BFAFF300803A
:1015300000B587B00390029101920093039BDB6991
:1015400004934FF000030593019B002B05D146F651
:10155000B000C0F60000FFF7EBF94FF0200383F373
:101560001188FFF7D5F8049B002B12D0049B039839
:1015700098470FE003980099FFF7E2FE0346002B1F
:1015800008D0FFF7E5F84FF0000383F31188059BBF
:101590003BE000BF039B9B68002BEBD0039B9B6849
:1015A00003F1FF32039B9A60039B9B691978029AAF
:1015B0001170029A02F10102029203F10102039BEF
:1015C0009A61039B9A69039B1B699A4203D3039B0D
:1015D000DA68039B9A61FFF7BBF84FF0000383F3CF
:1015E0001188059B03F101030593019B03F1FF3370
:1015F0000193019B002B01D1059B06E04FF02003D6
:1016000083F31188FFF784F8ADE7184607B000BDF3
:1016100084B00390029101920093039B1A46039BAE
:101620005A60039B5A68039B1A60039B019A9A6055
:10163000039B029A5A61039B5A69039B9A61039B1D
:101640009A69039BDA60029A019B1A44039B1A6110
:10165000039B009ADA61039B049A1A6204B07047F4
:1016600000B587B003900B4601928DF80B304FF018
:10167000200383F31188FFF74BF810E003980199DA
:10168000FFF75EFE03460593059B002B07DAFFF785
:101690005FF84FF0000383F31188059B2CE0039B58
:1016A0009B68002BEAD0039B9B6803F1FF32039BEE
:1016B0009A60039B5B699DF80B201A7003F101028D
:1016C000039B5A61039B5A69039B1B699A4203D38C
:1016D000039BDA68039B5A61039BDB69002B03D0F1
:1016E000039BDB6903989847FFF732F84FF000033C
:1016F00083F311884FF00003184607B000BD00BF08
:1017000000B585B00190FFF7E3F8019B5A69019B92
:101710009B699A4206D1019B9B68002B02D04FF037
:10172000010301E04FF00003DBB2002B02D06FF0A9
:1017300002032BE0019B9B6803F10102019B9A606D
:10174000019B9B691A788DF80F2003F10102019B20
:101750009A61019B9A69019B1B699A4203D3019B81
:10176000DA68019B9A61019B1A68019B9A420BD02F
:10177000019B1846FFF7CCFD03461846FFF700FA19
:1017800003464FF000029A629DF80F30184605B0EC
:1017900000BD00BFAFF30080AFF30080AFF3008067
:1017A00000B587B00390029101920093039BDB691F
:1017B00004934FF000030593019B002B05D146F6DF
:1017C000C400C0F60000FFF7B3F84FF0200383F326
:1017D0001188FEF79DFF0EE003980099FFF7B0FD1A
:1017E0000346002B07D0FEF7B3FF4FF0000383F34F
:1017F0001188059B41E0039B9B68002BECD0039B69
:101800009B6803F1FF32039B9A60039B5B69029A1A
:1018100012781A7003F10102039B5A61029B03F1D3
:1018200001030293039B5A69039B1B699A4203D3EA
:10183000039BDA68039B5A61049B002B02D0049B34
:1018400003989847FEF784FF4FF0000383F3118855
:10185000059B03F101030593019B03F1FF33019302
:10186000019B002B01D1059B07E04FF0200383F380
:101870001188FEF74DFF00BFBDE7184607B000BD59
:1018800040F6F843C2F2000303F1070323F0070315
:101890001A4640F66C13C2F200031A6042F20003CB
:1018A000C2F2000323F007031A4640F67013C2F297
:1018B00000031A60704700BFAFF30080AFF30080F1
:1018C00000B585B001904FF0200383F31188FEF737
:1018D0001FFF019800F00CF803460393FEF738FF52
:1018E0004FF0000383F31188039B184605B000BD39
:1018F00000B585B00190FEF7EBFF019B03F10703F4
:1019000023F00703019340F67013C2F200031B6833
:101910001A4640F66C13C2F200031B68C3EB0203C5
:101920001A46019B9A4202D24FF0000312E040F6A1
:101930006C13C2F200031B68039340F66C13C2F2EF
:1019400000031A68019B1A4440F66C13C2F20003AC
:101950001A60039B184605B000BD00BFAFF30080BE
:1019600008B540F67813C2F2000341F6C102C0F692
:1019700000021A6040F67813C2F200034FF0000232
:101980009A6040F67813C2F200034FF00002DA606A
:101990000148FFF715FC08BD88090020AFF300805F
:1019A00008B501F055FD01F05BFA46F6F070C0F69F
:1019B000000001F065FE00F0BBFF01F031F800F01F
:1019C0006FFA00F0FDFE02F0EBFB08BDAFF3008004
:1019D00000B585B00390029101920093039B1846D5
:1019E000029900F00DFC0346002B15D04FF00103C7
:1019F00021E0039B1846019900F05AFC0346002B96
:101A000002D04FF0010316E0019B03F50073019330
:101A1000009B03F1FF330093009B002BE9D1039B54
:101A2000184600F0A5FC0346002B02D04FF001033E
:101A300001E04FF00003184605B000BDAFF3008091
:101A400000B585B00390029101920093039B184664
:101A5000029900F0C5FC0346002B15D04FF001039E
:101A600021E0039B1846019900F012FD0346002B6C
:101A700002D04FF0010316E0019B03F500730193C0
:101A8000009B03F1FF330093009B002BE9D1039BE4
:101A9000184600F05DFD0346002B02D04FF0010315
:101AA00001E04FF00003184605B000BDAFF3008021
:101AB00084B00346029101928DF80F3012E09DF838
:101AC0000F304FEA4302029B1B7882EA030246F67C
:101AD0002063C0F600039B5C8DF80F30029B03F17E
:101AE00001030293019B002B0CBF00230123DBB2F7
:101AF000019A02F1FF320192002BE0D19DF80F30E4
:101B0000184604B0704700BFAFF30080AFF3008009
:101B100000B585B001904FF00003039311E0019BE5
:101B2000DB6A1A6802AB10464FF001011A4601F059
:101B3000FFF89DF80830FF2B19D0039B03F1010338
:101B40000393039B0F2BEADD019BDB6A1A6802AB50
:101B500010464FF001011A4601F0EAF89DF80830EE
:101B6000FF2B06D04FF00100FFF7BAFAECE700BFF9
:101B700000E000BF05B000BDAFF30080AFF3008010
:101B800000B587B003900B4601928DF80B30039897
:101B9000FFF7BEFF9DF80B3043F04003DBB28DF83A
:101BA0001030019B4FEA1363DBB28DF81130019BBB
:101BB0004FEA1343DBB28DF81230019B4FEA132337
:101BC000DBB28DF81330019BDBB28DF8143004AB1F
:101BD0004FF0000019464FF00502FFF769FF03467A
:101BE0004FEA4303DBB243F00103DBB2DBB28DF813
:101BF0001530039BDB6A1A6804AB10464FF00601F0
:101C00001A4601F03DF807B000BD00BFAFF30080F9
:101C100000B585B001904FF00003039314E0019BE1
:101C2000DB6A1A6802AB10464FF001011A4601F058
:101C30007FF89DF80830FF2B02D09DF8083008E0AF
:101C4000039B03F101030393039B082BE7DD4FF094
:101C5000FF03184605B000BDAFF30080AFF300806E
:101C600000B585B0019000910198FFF7D1FF0346C0
:101C70008DF80F30019BDB6A1B6818464FF004019A
:101C8000009A01F055F89DF80F30184605B000BDD8
:101C900000B587B003900B4601928DF80B30039B83
:101CA000DB6A1B68184600F04BFF9DF80B30039869
:101CB0001946019AFFF764FF0398FFF7A9FF03464F
:101CC0008DF81730039BDB6A1B68184600F060FF35
:101CD0009DF81730184607B000BD00BFAFF3008075
:101CE00000B587B00390019200930B468DF80B303E
:101CF000039BDB6A1B68184600F022FF9DF80B303F
:101D000003981946019AFFF73BFF03980099FFF7E4
:101D1000A7FF03468DF81730039BDB6A1B68184644
:101D200000F036FF9DF81730184607B000BD00BF21
:101D300000B58DB003900B4601928DF80B30039BDC
:101D4000DB6A1B68184600F0FBFE9DF80B30039819
:101D500019464FF00002FFF713FF0398FFF758FFF3
:101D60000346002B08D0039BDB6A1B68184600F073
:101D70000FFF4FF0010366E04FF000030B935BE0B1
:101D8000039BDB6A1A6805AB10464FF001011A4647
:101D900000F0CEFF9DF81430FE2B49D1039BDB6A87
:101DA0001A6805AB10464FF010011A4600F0C0FF4C
:101DB00005AB0A93019B03F10C03099323E00A9BF3
:101DC0001B784FEA03620A9B03F101031B784FEA79
:101DD000034342EA03020A9B03F102031B784FEA22
:101DE000032342EA03020A9B03F103031B7842EA3E
:101DF0000302099B1A600A9B03F104030A93099BDF
:101E0000A3F104030993099A019B9A42D7D2039B39
:101E1000DB6A1B6818464FF0020100F0E1FE039BED
:101E2000DB6A1B68184600F0B3FE4FF000030AE0BF
:101E30000B9B03F101030B930B9A42F20F739A422F
:101E40009ED94FF0010318460DB000BDAFF30080DE
:101E500000B585B00190019BDB6A1B68184600F055
:101E60006FFE019BDB6A1A6803AB10464FF001015D
:101E70001A4600F05DFF9DF80C30FF2B07D1019B47
:101E8000DB6A1B68184600F083FE05B000BD4FF00A
:101E90000100FFF725F9E4E7AFF30080AFF300801E
:101EA000704700BFAFF30080AFF30080AFF3008056
:101EB00082B00190019A46F60063C0F600031360F9
:101EC000019B4FF001021A71019B4FF00002DA6290
:101ED000019B4FF0000283F8302002B0704700BF32
:101EE00000B583B001900091019B002B02D0009BB4
:101EF000002B05D146F6E000C0F60000FEF718FD05
:101F0000019B1B79012B09D0019B1B79022B05D06A
:101F100046F6F000C0F60000FEF70AFD019B009AAD
:101F2000DA62019B4FF002021A7103B000BD00BFDC
:101F300000B587B00190019B002B05D146F61C101F
:101F4000C0F60000FEF7F4FC019B1B79022B09D0C0
:101F5000019B1B79052B05D046F62C10C0F600001E
:101F6000FEF7E6FC019B4FF003021A71019BDB6A4E
:101F70001A68019BDB6A5B681046194600F070FD29
:101F8000019BDB6A1B6818464FF0100100F028FE29
:101F90004FF00003059301984FF000014FF000024D
:101FA000FFF776FE0346012B0BD103AB01984FF0F0
:101FB00008014FF4D572FFF793FE0346052B0DD1B0
:101FC00046E0059B03F101030593059B092B00F2F5
:101FD000A1804FF00A00FFF783F8DCE74FF0000321
:101FE000059301984FF037014FF00002FFF750FEC4
:101FF0000346012B1BD103AB01984FF029014FF48D
:10200000D572C4F20002FFF76BFE0346002B0ED11F
:1020100003AB01984FF03A014FF00002FFF760FE6A
:102020009DF80C3003F04003002B0CD110E0059B11
:1020300003F101030593059B632B6DD84FF00A0054
:10204000FFF74EF8CDE7019B4FF0010283F83020F7
:102050004FF00003059301984FF001014FF000028B
:10206000FFF716FE03468DF813309DF81330002B52
:1020700014D1019BDB6A1A68019BDB6A9B681046DE
:10208000194600F0EDFC01984FF010014FF400727A
:10209000FFF7FEFD0346002B40D10FE09DF8133003
:1020A000012B3DD1059B03F101030593059B632B98
:1020B00038D84FF00A00FFF713F8CCE7019B03F183
:1020C000180301984FF009011A46FFF731FE034645
:1020D000002B29D1019B03F11803184600F020FBC7
:1020E0000246019B9A62019B9B6A002B1ED0019BBA
:1020F00003F1080301984FF00A011A46FFF718FE92
:102100000346002B14D1019B4FF005021A714FF0CA
:1021100000031AE000BF0CE000BF0AE000BF08E0C7
:1021200000BF06E000BF04E000BF02E000BF00E027
:1021300000BF019BDB6A1B68184600F0C9FC019BCD
:102140004FF002021A714FF00103184607B000BDAC
:1021500000B583B00190019B002B05D146F64010DD
:10216000C0F60000FEF7E4FB4FF0200383F3118874
:10217000FEF7CEFA019B1B79022B09D0019B1B793C
:10218000052B05D046F65410C0F60000FEF7D0FB34
:10219000019B1B79022B08D1FEF7DAFA4FF00003FE
:1021A00083F311884FF0000322E0019B4FF00402FB
:1021B0001A71FEF7CDFA4FF0000383F31188019BEB
:1021C000DB6A1A68019BDB6A9B681046194600F0BF
:1021D00047FC0198FFF73CFE019BDB6A1B68184631
:1021E00000F076FC019B4FF002021A714FF00003E1
:1021F000184603B000BD00BFAFF30080AFF300800E
:1022000000B583B001900091019B002B05D146F6EB
:102210006810C0F60000FEF78BFB019B1B79052BB5
:1022200005D046F68410C0F60000FEF781FB019B46
:102230004FF006021A71019BDB6A1A68019BDB6A88
:102240009B681046194600F00BFC019BDB6A1B687B
:10225000184600F075FC019B93F83030002B06D037
:1022600001984FF01201009AFFF78AFC08E0009BEA
:102270004FEA432301984FF012011A46FFF780FC02
:102280000198FFF7C5FC0346002B0CD0019BDB6ACD
:102290001B68184600F01CFC019B4FF005021A71E8
:1022A0004FF0010301E04FF00003184603B000BDFA
:1022B00000B585B001900091019B002B02D0009BDE
:1022C000002B05D146F6A410C0F60000FEF730FB47
:1022D000019B1B79062B02D04FF001033FE04FF02A
:1022E0000003039324E0019BDB6A1B6818464FF050
:1022F0000101009A00F01CFD009B1B78FE2B13D1FE
:10230000019BDB6A1B6818464FF40071009A00F0CD
:102310000FFD019BDB6A1B6818464FF0020100F0BD
:102320005FFC4FF000031AE0039B03F101030393EA
:10233000039A42F20F739A42D5DD019BDB6A1B6858
:10234000184600F025FC019BDB6A1B68184600F06C
:10235000BFFB019B4FF005021A714FF001031846B5
:1023600005B000BDAFF30080AFF30080AFF3008095
:1023700000B583B00190019B002B05D146F6BC103F
:10238000C0F60000FEF7D4FA019B1B79062B02D0A1
:102390004FF001031AE0019BDB6A1B6818464FF0FF
:1023A000070146F64072C0F6000200F069FC019891
:1023B000FFF72EFC019BDB6A1B68184600F0E8FB68
:1023C000019B4FF005021A714FF00003184603B04D
:1023D00000BD00BFAFF30080AFF30080AFF300801B
:1023E00000B583B001900091019B002B05D146F60A
:1023F000D810C0F60000FEF79BFA019B1B79052B55
:1024000005D046F6F410C0F60000FEF791FA019BE5
:102410004FF007021A71019BDB6A1A68019BDB6AA5
:102420009B681046194600F01BFB019BDB6A1B688A
:10243000184600F085FB019B93F83030002B06D046
:1024400001984FF01901009AFFF79AFB08E0009BF2
:102450004FEA432301984FF019011A46FFF790FB0A
:102460000198FFF7D5FB0346002B0CD0019BDB6ADC
:102470001B68184600F02CFB019B4FF005021A71F7
:102480004FF0010301E04FF00003184603B000BD18
:1024900000B585B001900091019B002B02D0009BFC
:1024A000002B05D146F61420C0F60000FEF740FAD6
:1024B000019B1B79072B02D04FF0010344E0019BE5
:1024C000DB6A1B6818464FF0020146F63072C0F610
:1024D000000200F0D5FB019BDB6A1B6818464FF435
:1024E0000071009A00F0CCFB019BDB6A1B68184668
:1024F0004FF0020100F074FB019BDB6A1A6803AB2A
:1025000010464FF001011A4600F012FC9DF80C3005
:1025100003F01F03052B05D10198FFF7F9FA4FF0DF
:10252000000311E0019BDB6A1B68184600F030FBDA
:10253000019BDB6A1B68184600F0CAFA019B4FF04A
:1025400005021A714FF00103184605B000BD00BF27
:1025500000B583B00190019B002B05D146F62C20DD
:10256000C0F60000FEF7E4F9019B1B79072B02D0AF
:102570004FF0010317E0019BDB6A1B6818464FF020
:10258000020146F62072C0F6000200F079FB019BC2
:10259000DB6A1B68184600F0FBFA019B4FF005024E
:1025A0001A714FF00003184603B000BDAFF300806E
:1025B00000B583B00190019B002B05D146F6482061
:1025C000C0F60000FEF7B4F9019B1B79052B02D081
:1025D0004FF0010316E0019B4FF008021A71019BB6
:1025E000DB6A1A68019BDB6A9B681046194600F09B
:1025F00037FA0198FFF72CFC019B4FF005021A7186
:102600004FF00003184603B000BD00BFAFF30080D9
:1026100000B583B001900091019B002B02D0009B7C
:10262000002B05D146F65420C0F60000FEF780F9D5
:10263000019B1B79052B02D04FF0010309E0019BA0
:102640009A6A009B5A60009B4FF400721A604FF028
:102650000003184603B000BDAFF30080AFF3008065
:1026600000B589B0039002910192029A019B9A42AF
:1026700005D3029A019BC3EB02031F2B05D946F633
:102680008020C0F60000FEF753F9019B4FEA531378
:102690000793019B03F01F030693029B4FEA53131A
:1026A0000593029B03F01F0303F101034FF00102A6
:1026B00002FA03F303F1FF330493079A059B9A424E
:1026C00019D2079B4FEA8303039A13441A68069BA7
:1026D00022FA03F2059B4FEA830303990B4419681E
:1026E000049B01EA0301069BC3F1200301FA03F3F3
:1026F00042EA03030BE0079B4FEA8303039A134468
:102700001A68049B02EA0302069B22FA03F31846A6
:1027100009B000BDAFF30080AFF30080AFF30080DD
:1027200000B587B00190019B03F10C031B684FEAD1
:102730009373002B02D0012B29D035E001984FF084
:1027400049014FF03E02FFF78BFF034605930198C6
:102750004FF031014FF02F02FFF782FF0346049341
:1027600001984FF053014FF05002FFF779FF0346F5
:102770000393059B03F10102049B03F1020302FA98
:1027800003F2039BA3F1090302FA03F30EE001989D
:102790004FF045014FF03002FFF762FF034603F1AF
:1027A00001034FEA832301E04FF00003184607B00E
:1027B00000BD00BFAFF30080AFF30080AFF3008037
:1027C00008B501F0FDF808BDAFF30080AFF300805D
:1027D00000B585B0039002910192039B03F1300391
:1027E00018460299019A4FF0FF33FEF7D9FF0346CE
:1027F000184605B000BD00BFAFF30080AFF3008006
:1028000000B585B0039002910192039B03F10C0384
:1028100018460299019A4FF0FF33FEF789FE0346EE
:10282000184605B000BD00BFAFF30080AFF30080D5
:1028300000B583B001900B468DF80330019B03F186
:1028400030029DF80330104619464FF0FF32FEF774
:1028500007FF0346184603B000BD00BFAFF300807A
:1028600000B583B00190019B03F10C0318464FF0B3
:10287000FF31FEF70DFE0346184603B000BD00BF52
:1028800000B585B003900B4601928DF80B30039B89
:1028900003F130029DF80B3010461946019AFEF7FD
:1028A000DFFE0346184605B000BD00BFAFF3008051
:1028B00000B583B001900091019B03F10C03184611
:1028C0000099FEF7E5FD0346184603B000BD00BFC2
:1028D00000B585B00390029101920093039B03F130
:1028E000300318460299019A009BFEF759FF0346F0
:1028F000184605B000BD00BFAFF30080AFF3008005
:1029000000B585B00390029101920093039B03F1FF
:102910000C0318460299019A009BFEF709FE034634
:10292000184605B000BD00BFAFF30080AFF30080D4
:1029300008B501F015FC08BDAFF30080AFF30080CF
:1029400000B587B0059004910392059A46F650733E
:10295000C0F600031360059B03F104031A46059BB0
:102960005A60059B4FF001021A72059B03F10C029D
:10297000059B03F1540305990091104619464FF049
:102980001002049BFEF704FD059B03F13002059B3A
:1029900003F1640305990091104619464FF01002A7
:1029A000039BFEF735FE07B000BD00BFAFF300800C
:1029B00000B583B001900B468DF80330FDF788FF1A
:1029C000019B002B05D146F6D820C0F60000FDF78C
:1029D000AFFF019B5B69002B07D1019B03F104034F
:1029E00018464FF00401FEF70BFC019B03F10C02AB
:1029F0009DF8033010461946FEF7FAFC0346002BFB
:102A000007DA019B03F1040318464FF08001FEF73B
:102A1000F7FB03B000BD00BFAFF30080AFF3008051
:102A200008B501F085F808BDAFF30080AFF3008072
:102A300000B583B00190019B4FF001021A70019B19
:102A40004FF000025A60019B4FF000029A60019B18
:102A500003F10C031846FEF7B3FB03B000BD00BF43
:102A600000B583B001900091019B002B02D0009B28
:102A7000002B05D146F60030C0F60000FDF758FFE8
:102A80004FF0200383F31188FDF742FE019B1B7872
:102A9000012B09D0019B1B78022B05D046F6103084
:102AA000C0F60000FDF744FF019B009A5A600198B0
:102AB00001F076F8019B4FF002021A70FDF748FE14
:102AC0004FF0000383F3118803B000BDAFF3008023
:102AD00000B583B00190019B002B05D146F6203054
:102AE000C0F60000FDF724FF4FF0200383F31188A8
:102AF000FDF70EFE019B1B78012B09D0019B1B7873
:102B0000022B05D046F62C30C0F60000FDF710FF72
:102B1000019801F02DF9019801F0EAF8019B4FF0BE
:102B200001021A70FDF714FE4FF0000383F31188C1
:102B300003B000BDAFF30080AFF30080AFF30080BF
:102B400000B583B00190019B002B05D146F63C30C7
:102B5000C0F60000FDF7ECFE4FF0200383F3118870
:102B6000FDF7D6FD019B1B78022B05D046F64C30B5
:102B7000C0F60000FDF7DCFE019801F0E9F8FDF772
:102B8000E7FD4FF0000383F3118803B000BD00BFE1
:102B900000B583B00190019B002B05D146F65C3057
:102BA000C0F60000FDF7C4FE4FF0200383F3118848
:102BB000FDF7AEFD019B1B78022B05D046F66C306D
:102BC000C0F60000FDF7B4FE019801F0D1F8FDF762
:102BD000BFFD4FF0000383F3118803B000BD00BFB9
:102BE00000B583B001900091019B002B02D0009BA7
:102BF000002B05D146F63040C0F60000FDF798FEE8
:102C00004FF0200383F31188FDF782FD019B1B78B1
:102C1000022B05D046F64440C0F60000FDF788FEC2
:102C2000019B5B681B68002B05D046F65440C0F63C
:102C30000000FDF77DFE019B4FF003021A70019822
:102C4000009901F0A5F8019B9B68002B05D046F682
:102C50006440C0F60000FDF76BFE40F65013C2F270
:102C600000039A69019B9A604FF00200FDF7C8FFCC
:102C7000FDF76EFD4FF0000383F3118803B000BD34
:102C800000B585B0039002910192039B002B05D003
:102C9000029B002B02D0019B002B05D146F6AC40D5
:102CA000C0F60000FDF744FE4FF0200383F31188C7
:102CB000FDF72EFD039B1B78022B05D046F6B8408E
:102CC000C0F60000FDF734FE039B5B681B68002B19
:102CD00005D046F6C840C0F60000FDF729FE039B6C
:102CE0004FF003021A7003980299019A01F090F8CC
:102CF000039B9B68002B05D046F66440C0F600009D
:102D0000FDF716FE40F65013C2F200039A69039BCA
:102D10009A604FF00200FDF773FFFDF719FD4FF0C9
:102D2000000383F3118805B000BD00BFAFF300803E
:102D300000B585B0039002910192039B002B05D052
:102D4000029B002B02D0019B002B05D146F6D840F8
:102D5000C0F60000FDF7ECFD4FF0200383F311886F
:102D6000FDF7D6FC039B1B78022B05D046F6E84006
:102D7000C0F60000FDF7DCFD039B5B681B68002BC1
:102D800005D046F6FC40C0F60000FDF7D1FD039BE0
:102D90004FF003021A7003980299019A01F078F833
:102DA000039B9B68002B05D046F66440C0F60000EC
:102DB000FDF7BEFD40F65013C2F200039A69039B73
:102DC0009A604FF00200FDF71BFFFDF7C1FC4FF0CA
:102DD000000383F3118805B000BD00BFAFF300808E
:102DE00082B001904FF48053CEF200035A68019BE9
:102DF0009A6002B0704700BFAFF30080AFF300806D
:102E000084B001904FF48053CEF200035B680393CB
:102E1000019B9B68039AC3EB020240F69813C2F22F
:102E200000031B68C3EB0202019B9A60019B9A6836
:102E3000019BDB689A4204D9019B9A68019BDA6086
:102E400009E0019B9A68019B1B699A4203D2019B8E
:102E50009A68019B1A6104B0704700BFAFF300800D
:102E600000B587B040F69813C2F200034FF000029D
:102E70001A6001AB184600F013F8019B01AA104636
:102E80009847029B01AA10469847039A40F6981368
:102E9000C2F200031A6007B000BD00BFAFF30080AC
:102EA00082B00190019A42F6E153C0F6000313602C
:102EB000019A42F60163C0F600035360019B4FF094
:102EC00000029A60019B4FF00002DA60019B4FF014
:102ED000FF321A6102B07047AFF30080AFF3008099
:102EE00000B583B0FDF794FC4FF00003C4F2020379
:102EF0001B6803F00F0301934FF00003C4F20203B9
:102F0000019A5A6040F6A013C2F200031B68002B1E
:102F10000CD040F6A013C2F200031A6840F6A013CA
:102F2000C2F200035B68184601999047FDF7A0FCC8
:102F3000FDF7CEF903B000BDAFF30080AFF3008022
:102F400000B583B0FDF764FC4FF00003C4F2020348
:102F50001B684FEA131303F00F0301934FF00003B4
:102F6000C4F20203019A4FEA02125A6040F6A0131B
:102F7000C2F200039B68002B0CD040F6A013C2F2F3
:102F800000039A6840F6A013C2F20003DB681846FB
:102F900001999047FDF76CFCFDF79AF903B000BD6D
:102FA00000B583B0FDF734FC4FF00003C4F2020318
:102FB0001B684FEA132303F00F0301934FF0000344
:102FC000C4F20203019A4FEA02225A6040F6A013AB
:102FD000C2F200031B69002B0CD040F6A013C2F212
:102FE00000031A6940F6A013C2F200035B69184699
:102FF00001999047FDF73CFCFDF76AF903B000BD6D
:1030000000B583B0FDF704FC4FF00003C4F20203E7
:103010001B684FEA133303F00F0301934FF00003D3
:10302000C4F20203019A4FEA02325A6040F6A0133A
:10303000C2F200039B69002B0CD040F6A013C2F231
:1030400000039A6940F6A013C2F20003DB69184638
:1030500001999047FDF70CFCFDF73AF903B000BD6C
:1030600000B583B0FDF7D4FB4FF00003C4F20203B8
:103070001B684FEA134303F00F0301934FF0000363
:10308000C4F20203019A4FEA02425A6040F6A013CA
:10309000C2F200031B6A002B0CD040F6A013C2F250
:1030A00000031A6A40F6A013C2F200035B6A1846D6
:1030B00001999047FDF7DCFBFDF70AF903B000BD6D
:1030C00000B583B0FDF7A4FB4FF00003C4F2020388
:1030D0001B684FEA135303F00F0301934FF00003F3
:1030E000C4F20203019A4FEA02525A6040F6A0135A
:1030F000C2F200039B6A002B0CD040F6A013C2F270
:1031000000039A6A40F6A013C2F20003DB6A184675
:1031100001999047FDF7ACFBFDF7DAF803B000BD6D
:1031200000B583B0FDF774FB4FF00003C4F2020357
:103130001B684FEA136303F00F0301934FF0000382
:10314000C4F20203019A4FEA02625A6040F6A013E9
:10315000C2F200031B6B002B0CD040F6A013C2F28E
:1031600000031A6B40F6A013C2F200035B6B184613
:1031700001999047FDF77CFBFDF7AAF803B000BD6D
:1031800082B040F69C13C2F200034FF000021A60B6
:103190004FF0000301931CE046F67072C0F6000287
:1031A00001990B464FEA43030B444FEA8303134450
:1031B0001B684FF000021A6040F6A013C2F2000331
:1031C000019A4FF0000143F83210019B03F1010313
:1031D0000193019B062BDFDD4FF00003C4F20203D5
:1031E0004FF0FF325A6002B0704700BFAFF300806B
:1031F00000B585B00390029101920093039B002BD0
:1032000005D146F64050C0F60000FDF791FB039B48
:103210005B7A4FF0010202FA03F31A4640F69C1360
:10322000C2F200031B6802EA0303002B02D04FF036
:10323000010361E0039B5B7A1A4640F6A013C2F2D9
:103240000003019943F83210039B5B7A40F6A01209
:10325000C2F200024FEAC3031344009A5A60039B70
:103260005B7A4FF0010202FA03F31A4640F69C1310
:10327000C2F200031B6842EA030240F69C13C2F24A
:1032800000031A6040F69C13C2F200031B6803F0AF
:103290007F03002B0BD04FF48053C4F202034FF492
:1032A0008052C4F20202526942F001025A61039B49
:1032B0001B68039A1268126822F00F021A60039BBF
:1032C0005B68039A127A4FF00F0101FA02F21A605A
:1032D000039B1B684FF000021A60019B002B09D072
:1032E000039B9B7A1A46029B4FEA0313104619462A
:1032F000FDF756F84FF00003184605B000BD00BFBB
:1033000000B583B00190019B002B05D146F65850C3
:10331000C0F60000FDF70CFB019B5B7A4FF0010249
:1033200002FA03F31A4640F69C13C2F200031B682C
:1033300002EA0303002B05D146F67050C0F60000E8
:10334000FDF7F6FA019B9B7A1846FDF781F8019B81
:103350005B7A4FF0010202FA03F36FEA03031A46A5
:1033600040F69C13C2F200031B6802EA030240F617
:103370009C13C2F200031A6040F69C13C2F20003D1
:103380001B6803F07F03002B0BD14FF48053C4F272
:1033900002034FF48052C4F20202526922F0010289
:1033A0005A6103B000BD00BFAFF30080AFF30080EF
:1033B00008B54FF4E043C4F200034FF4E042C4F216
:1033C0000002126842F480721A604FF48053C4F213
:1033D00002031B6A03F44073B3F5407F0DD04FF432
:1033E0008053C4F202034FF480321A624FF48053C8
:1033F000C4F202034FF000021A624FF48053C4F289
:1034000002031B6A03F40043002B19D14FF48053CD
:10341000C4F202034FF48052C4F20202126A42F470
:1034200040721A6200F094FA4FF48053C4F202031F
:103430004FF48052C4F20202126A42F400421A624D
:1034400008BD00BFAFF30080AFF30080AFF3008092
:1034500008B54FF48053C4F202031B694FF4805344
:10346000C4F202034FF0FF321A614FF48053C4F2EA
:1034700002034FF000021A614FF48053C4F20203BA
:10348000DB684FF48053C4F202034FF0FF32DA607E
:103490004FF48053C4F202034FF00002DA604EF2A0
:1034A0001003CEF2000345F6BF525A604EF21003ED
:1034B000CEF200034FF000029A604EF21003CEF2FB
:1034C00000034FF007021A604EF6F053CEF20003ED
:1034D0004EF6F052CEF20002D26842F08072DA600C
:1034E0004FF48053CEF200034FF48052CEF200022C
:1034F000126842F001021A604FF48053C4F20203D2
:103500004FF48052C4F20202D26942F08052DA6172
:103510004FF48053C4F202034FF48052C4F202020B
:10352000D26942F00062DA61FFF742FFFFF728FE3E
:1035300008BD00BFAFF30080AFF30080AFF30080A1
:103540004FF48053C4F202034FF48052C4F20202DB
:10355000126842F001021A6000BF4FF48053C4F2B7
:1035600002031B6803F00203002BF6D04FF48053D4
:10357000C4F202034FF48052C4F20202126802F055
:10358000F9021A604FF48053C4F202034FF00002B4
:103590005A6000BF4FF48053C4F202035B6803F02B
:1035A0000C03002BF6D14FF48053C4F202034FF406
:1035B0008052C4F20202126842F480321A6000BFE4
:1035C0004FF48053C4F202031B6803F40033002B52
:1035D000F6D04FF48053C4F202034FF48052C4F289
:1035E0000202526842F4A0225A604FF48053C4F29F
:1035F00002034FF48052C4F20202126842F0807259
:103600001A6000BF4FF48053C4F202031B6803F03A
:103610000073002BF6D04FF48053C4F202034FF432
:10362000C842C0F245025A604FF40053C4F202038C
:103630004FF010021A604FF48053C4F202034FF4AB
:103640008052C4F20202526842F002025A6000BF85
:103650004FF48053C4F202035B6803F00C03082BA1
:10366000F6D14FF48053C4F202034FF48052C4F2F7
:103670000202126822F001021A607047AFF3008064
:1036800082B001904FF48053C4F202034FF4805291
:10369000C4F20202926942F07D029A614FF4006323
:1036A000C4F20103019A1268DA604FF40063C4F2B5
:1036B0000103019A92685A604FF40063C4F2010357
:1036C000019A52681A604FF44063C4F20103019AF0
:1036D000D268DA604FF44063C4F20103019A526980
:1036E0005A604FF44063C4F20103019A12691A60F0
:1036F0004FF48053C4F20103019A9269DA604FF4E7
:103700008053C4F20103019A126A5A604FF4805345
:10371000C4F20103019AD2691A604FF4A053C4F2B3
:103720000103019A526ADA604FF4A053C4F2010314
:10373000019AD26A5A604FF4A053C4F20103019A6D
:10374000926A1A604FF4C053C4F20103019A126BDB
:10375000DA604FF4C053C4F20103019A926B5A60CD
:103760004FF4C053C4F20103019A526B1A6002B0C5
:10377000704700BFAFF30080AFF30080AFF300806D
:103780008AB0039002910192019B032B03D1039B0A
:10379000029A1A6105E0019B042B02D1039B029A55
:1037A0005A6146F6D073C0F60003019A13441B78A1
:1037B00004934FF000030693069B0793079B08931F
:1037C000089B09934FF00003059335E0089B4FEAEF
:1037D00003130893099B4FEA03130993069B4FEACF
:1037E00003130693079B4FEA03130793029B03F00F
:1037F0008003002B04D1089B43F00F03089304E0DF
:10380000069A049B42EA03030693029B03F40043D7
:10381000002B04D1099B43F00F03099304E0079A9E
:10382000049B42EA03030793029B4FEA430302937C
:10383000059B03F101030593059B072BC6D9039B49
:103840005A68099B02EA0302079B42EA0302039BB0
:103850005A60039B1A68089B02EA0302069B42EA2D
:103860000302039B1A600AB0704700BFAFF30080E9
:1038700000B583B0FCF7CCFF4FF42053C4F2000333
:103880009B889BB203F00803002BF5D04FF4205324
:10389000C4F200031B889AB24FF42053C4F2000311
:1038A0009B889BB202EA0303ADF806304FF4205325
:1038B000C4F200034FF42052C4F20002928892B284
:1038C00022F0070292B29A80BDF8063003F001039D
:1038D000DBB2002B0BD040F6D813C2F200031B68FA
:1038E00040F6D810C2F200004FF000019847BDF832
:1038F000063003F00203002B0BD040F6D813C2F2BF
:1039000000031B6840F6D810C2F200004FF001011E
:103910009847BDF8063003F00403002B0BD040F6A7
:10392000D813C2F200031B6840F6D810C2F20000A0
:103930004FF002019847FCF79BFFFCF7C9FC03B06E
:1039400000BD00BFAFF30080AFF30080AFF3008095
:103950004FF42053C4F200039B889BB203F0200372
:10396000002BF5D04FF42053C4F200034FF4205243
:10397000C4F20002928892B242F0100292B29A808F
:103980004FF42053C4F200034FF000021A814FF4A9
:103990002053C4F200034FF223429A814FF4205384
:1039A000C4F200034FF42052C4F20002928892B293
:1039B00022F0100292B29A80704700BFAFF30080ED
:1039C00008B54FF42053C4F200034FF42052C4F260
:1039D0000002928892B222F0080292B29A804FF4CA
:1039E0002053C4F200039B889BB203F00803002B12
:1039F000F5D04FF42053C4F200039B889BB203F030
:103A00002003002BF5D04FF42053C4F200034FF0F5
:103A100000021A8040F6D813C2F200034FF00002F1
:103A20001A604FF003004FF0F001FCF7B9FC08BD3D
:103A300000B585B001900091009B03F00803002BB6
:103A400001D0FCF7E5FB019B5B6A1B68019A526A97
:103A50001268126822F00F021A60019B5B6A5B68B1
:103A6000019A526A127A4FF00F0101FA02F21A60BB
:103A7000019B1B6A1B68019A126A1268126822F085
:103A80000F021A60019B1B6A5B68019A126A127A24
:103A90004FF00F0101FA02F21A60019B5B681B688C
:103AA000002B11D0019B4FF004021A70019B5B6840
:103AB0001B6801989847019B1B78042B08D1019B38
:103AC0004FF002021A7003E0019B4FF002021A70DD
:103AD0004FF0200383F31188FCF75AFE019B9B688B
:103AE000002B0DD0019B9B680393019B4FF00002BC
:103AF0009A60039B4FF000029A620398FDF740F82A
:103B0000FCF766FE4FF0000383F3118805B000BD9B
:103B100000B583B001900091009B03F00803002BD7
:103B200001D0FCF775FB03B000BD00BFAFF3008010
:103B300008B540F60C23C2F200034FF6FF721A805C
:103B400040F6DC10C2F20000FEF772FF40F6DC1314
:103B5000C2F200034FF46052C4F20002DA6140F690
:103B6000DC13C2F200030B4A1A6240F6DC13C2F205
:103B70000003094A5A6240F6DC13C2F2000341F224
:103B80000A029A6240F6DC13C2F2000341F2180204
:103B9000DA6208BD946F0008A06F0008AFF30080E0
:103BA00000B585B00190019B1B78012B56D1019A7D
:103BB00040F6DC13C2F200039A423FD1019B1A6A1D
:103BC00043F63123C0F6000310464FF00A011A46AF
:103BD000019BFFF70DFB03468DF80F309DF80F306A
:103BE000002B05D046F69050C0F60000FCF7A0FE72
:103BF000019B5A6A43F61133C0F6000310464FF09A
:103C00000A011A46019BFFF7F3FA03468DF80F30BD
:103C10009DF80F30002B05D046F6A450C0F60000EA
:103C2000FCF786FE4FF48053C4F202034FF4805237
:103C3000C4F20202D26942F48042DA61019B1B6A3B
:103C40001B68019AD26902F10C029A60019B5B6ABF
:103C50001B68019AD26902F10C029A60019B5B68B1
:103C60005B8903F40063002B0CD1019B9B6A23F456
:103C70007062019B9A62019BDB6A23F47062019B74
:103C8000DA620FE0019B9B6A23F4706343F4A06245
:103C9000019B9A62019BDB6A23F4706343F4A06288
:103CA000019BDA62019BDB694FF000021A80019BE5
:103CB000DB69019A5268528942F4417292B21A80C9
:103CC000019BDB694FF007029A80019BDB69019A37
:103CD000D269128892B242F0400292B21A8005B0C4
:103CE00000BD00BFAFF30080AFF30080AFF30080F2
:103CF00000B583B00190019B1B78022B26D1019B5C
:103D0000DB694FF000021A80019BDB694FF0000273
:103D10009A80019B1B6A1846FFF7F2FA019B5B6AC7
:103D20001846FFF7EDFA019A40F6DC13C2F20003E1
:103D30009A420BD14FF48053C4F202034FF48052E5
:103D4000C4F20202D26922F48042DA6103B000BDFB
:103D500082B00190019B5B685B68019A526812898E
:103D60004FF0010101FA02F25A6102B0704700BF40
:103D700082B00190019B5B685B68019A526812896E
:103D80004FF0010101FA02F21A6102B0704700BF60
:103D900082B001900091019B1B6A1A6840F60E23C5
:103DA000C2F20003D360019B1B6A1B68009A5A6031
:103DB000019B1B6A1B68019A926A1A60019B5B6AED
:103DC0001A6840F60C23C2F20003D360019B5B6AC1
:103DD0001B68009A5A60019B5B6A1B68019AD26A51
:103DE0001A60019B1B6A1B68019A126A12681268AA
:103DF00042F001021A60019B5B6A1B68019A526AD9
:103E00001268126842F001021A6002B0704700BFE7
:103E100084B0039002910192039B1B6A1A6840F6DA
:103E20000E23C2F20003D360039B1B6A1B68029A35
:103E30005A60039B1B6A1B68039A926A1A60039B71
:103E40005B6A1B68019ADA60039B5B6A1B68029AD3
:103E50005A60039B5B6A1B68039AD26A42F0800235
:103E60001A60039B1B6A1B68039A126A1268126825
:103E700042F001021A60039B5B6A1B68039A526A54
:103E80001268126842F001021A6004B0704700BF65
:103E900084B0039002910192039B1B6A1B68019AF4
:103EA000DA60039B1B6A1B68029A5A60039B1B6AB9
:103EB0001B68039A926A42F080021A60039B5B6A55
:103EC0001A6840F60C23C2F20003D360039B5B6ABE
:103ED0001B68029A5A60039B5B6A1B68039AD26A4A
:103EE0001A60039B1B6A1B68039A126A12681268A5
:103EF00042F001021A60039B5B6A1B68039A526AD4
:103F00001268126842F001021A6004B0704700BFE4
:103F100000B585B001900B46ADF802304FF00003BC
:103F20000393BDF8023003F00803002B03D0039B7A
:103F300043F080030393BDF8023003F00103DBB2CA
:103F4000002B03D0039B43F020030393BDF8023002
:103F500003F00203002B03D0039B43F040030393C1
:103F6000BDF8023003F00403002B03D0039B43F49D
:103F700080730393019B03F1040318460399FDF733
:103F80003FF905B000BD00BFAFF30080AFF3008084
:103F900000B587B00190019B5B6F0493049B9B89E4
:103FA000ADF80E30049B1B88ADF81630BDF8163006
:103FB00003F48073002B17D04FF0200383F3118894
:103FC000FCF7E6FB019B03F1040318464FF4007174
:103FD000FDF716F9FCF7FCFB4FF0000383F31188A3
:103FE000049B4FF6FF621A804FF0200383F3118881
:103FF000FCF7CEFB17E0BDF8163003F00F03002BE3
:1040000005D0BDF8163001981946FFF781FF049BD3
:104010009B889BB2DBB201981946FEF7C9FC049B52
:104020001B88ADF81630BDF8163003F02003002BC6
:10403000E1D1FCF7CDFB4FF0000383F31188BDF80D
:104040000E3003F08003002B34D0BDF8163003F09F
:104050008003002B2ED04FF0200383F31188FCF750
:1040600097FB019B03F130031846FDF749FB03461C
:104070000293029B002B13DA019B03F10403184601
:104080004FF00801FDF7BCF8BDF80E3023F0C00377
:104090009BB243F040039BB29AB2049B9A8103E027
:1040A000029B9AB2049B9A80FCF792FB4FF00003AC
:1040B00083F31188BDF8163003F04003002B1ED0A7
:1040C0004FF0200383F31188FCF762FB019B03F19F
:1040D000040318464FF01001FDF792F8FCF778FB47
:1040E0004FF0000383F31188BDF80E3023F0C003B6
:1040F0009AB2049B9A81049B4FF6BF721A8007B054
:1041000000BD00BFAFF30080AFF30080AFF30080CD
:1041100082B001904FF48843C4F200034FF4884208
:10412000C4F20002928992B242F0800292B29A8165
:1041300002B07047AFF30080AFF30080AFF30080B0
:1041400008B5FCF765FB40F61020C2F20000FFF74F
:104150001FFFFCF78DFBFCF7BBF808BDAFF3008039
:1041600008B540F61020C2F200004FF0000144F202
:104170001112C0F60002FEF7E3FB40F61023C2F274
:1041800000034FF48842C4F200025A6708BD00BF22
:1041900008B5FFF7D5F908BDAFF30080AFF3008095
:1041A000704700BFAFF30080AFF30080AFF3008033
:1041B00084B003468DF807304FF46053C4F2000317
:1041C0001B889BB203939DF80730002B04D1039BFF
:1041D00043F03803039305E0039B23F0380343F0D7
:1041E000080303934FF46053C4F20003039A92B29E
:1041F0001A8004B0704700BFAFF30080AFF30080B7
:10420000704700BFAFF30080AFF30080AFF30080D2
:10421000704700BFAFF30080AFF30080AFF30080C2
:1042200082B003468DF8073002B07047AFF30080CC
:1042300000B583B003468DF807309DF807309BB278
:104240004FF46050C4F20000194601F011FF00BFA6
:104250004FF46050C4F200004FF0010101F040FF44
:104260000346002BF4D04FF46050C4F2000001F07C
:104270000FFF0346DBB2184603B000BDAFF300806A
:1042800008B54FF0FF00FFF7D3FF0346184608BDFF
:1042900000B583B040F68C23C2F200034FF0320227
:1042A0001A60FFF7EDFFFFF7EBFF03468DF80730CD
:1042B0009DF80730FF2B06D040F68C23C2F2000396
:1042C0001B68002BEFD19DF80730184603B000BDE6
:1042D00008B54FF44060C4F201004FF4805102F081
:1042E00007F8FFF7CDFF08BDAFF30080AFF3008004
:1042F00000B589B04FF008004FF0010102F018F846
:104300004FF480404FF0010102F03AF84FF0010005
:10431000FFF786FFFFF77CFFFFF772FF4FF0000308
:10432000009304E000BF009B03F101030093009A97
:1043300047F22F539A42F5DD4FF48053ADF8083021
:104340004FF010038DF80B304FF003038DF80A3057
:1043500002AB4FF44060C4F20100194601F0E8FEE0
:104360004FF44060C4F201004FF4805101F0C0FFEF
:104370004FF42043ADF808304FF003038DF80A30B6
:104380004FF018038DF80B3002AB4FF44060C4F2CD
:104390000100194601F0CCFE4FF48043ADF808301F
:1043A0004FF048038DF80B3002AB4FF44060C4F27D
:1043B0000100194601F0BCFE4FF00003ADF80C30CF
:1043C0004FF48273ADF80E304FF00003ADF81030AB
:1043D0004FF00003ADF812304FF00003ADF8143089
:1043E0004FF40073ADF816304FF03803ADF81830C5
:1043F0004FF00003ADF81A304FF00703ADF81C3052
:1044000003AB4FF46050C4F20000194601F0C0FD48
:104410004FF46050C4F200004FF0000101F040FE84
:104420004FF46050C4F200004FF0010101F000FEB3
:1044300000BF4FF46050C4F200004FF0020101F0E1
:104440004FFE0346002BF4D04FF46050C4F200003E
:1044500001F01EFE0346DBB28DF8073009B000BD47
:1044600000B583B040F60003C2F200031B78DBB254
:1044700003F00103002B0BD14FF44060C4F20100A4
:104480004FF4805101F044FFFFF702FFFFF720FFD8
:104490004FF46050C4F2000001F03AFD4FF4605058
:1044A000C4F200004FF0000101F0C2FD4FF4804063
:1044B0004FF0000101F064FF4FF46043ADF80430A9
:1044C0004FF028038DF8073001AB4FF44060C4F281
:1044D0000100194601F02CFE4FF00000FFF7A0FE8E
:1044E00040F60003C2F200031B78DBB243F0010385
:1044F000DAB240F60003C2F200031A7003B000BD46
:1045000000B585B00190009140F68823C2F2000307
:104510004FF00A021A60FFF7B3FE03468DF80F3022
:104520009DF80F30FF2B06D140F68823C2F200031E
:104530001B68002BEFD19DF80F30FE2B02D04FF0FF
:1045400000033CE04FF0FF00FFF772FE03461A46FF
:10455000019B1A70019B03F1010301934FF0FF00CF
:10456000FFF766FE03461A46019B1A70019B03F192
:10457000010301934FF0FF00FFF75AFE03461A466E
:10458000019B1A70019B03F1010301934FF0FF009F
:10459000FFF74EFE03461A46019B1A70019B03F17A
:1045A00001030193009BA3F104030093009B002BE4
:1045B000C8D1FFF765FEFFF763FE4FF00103184611
:1045C00005B000BDAFF30080AFF30080AFF3008013
:1045D00000B585B0034600918DF807309DF807308F
:1045E0005BB2002B15DA9DF8073003F07F038DF8DE
:1045F00007304FF077004FF00001FFF7E9FF034667
:104600008DF80E309DF80E30012B02D99DF80E303A
:104610006FE04FF44060C4F201004FF4805101F0AC
:1046200067FE4FF44060C4F201004FF4805101F086
:104630006FFEFFF72DFE0346FF2B02D04FF0FF0366
:1046400057E09DF807301846FFF7F2FD009B4FEA50
:104650001363DBB21846FFF7EBFD009B4FEA1343F1
:10466000DBB21846FFF7E4FD009B4FEA1323DBB2F1
:104670001846FFF7DDFD009BDBB21846FFF7D8FDBB
:104680004FF001038DF80F309DF80730402B03D118
:104690004FF095038DF80F309DF80730482B03D16C
:1046A0004FF087038DF80F309DF80F301846FFF755
:1046B000BFFD9DF807304C2B01D1FFF7E1FD4FF016
:1046C0000A038DF80F30FFF7DBFD03468DF80E303F
:1046D0009DF80E305BB2002B09DA9DF80F3003F124
:1046E000FF338DF80F309DF80F30002BEBD19DF884
:1046F0000E30184605B000BDAFF30080AFF3008068
:1047000010B584B003468DF807309DF80730002BB4
:1047100002D04FF0010322E140F60003C2F2000391
:104720001B78DBB203F00203002B06D040F6000337
:10473000C2F200031B78DBB211E1FFF7D9FD4FF0A5
:104740000000FFF735FD4FF00A038DF80F3007E04A
:10475000FFF796FD9DF80F3003F1FF338DF80F3012
:104760009DF80F30002BF3D14FF000038DF80D3082
:104770004FF040004FF00001FFF72AFF0346012BE6
:1047800040F0C58040F68823C2F200034FF0640277
:104790001A604FF048004FF4D571FFF719FF034638
:1047A000012B6CD14FF000038DF80F3010E09DF815
:1047B0000F40FFF765FD03461A4604A901EB040309
:1047C00003F8082C9DF80F3003F101038DF80F302A
:1047D0009DF80F30032BEAD99DF80A30012B40F0E9
:1047E0008F809DF80B30AA2B40F08C8000BF40F6E4
:1047F0008823C2F200031B68002B08D04FF0E900A9
:104800004FF08041FFF7E4FE0346002BEFD140F666
:104810008823C2F200031B68002B75D04FF07A008A
:104820004FF00001FFF7D4FE0346002B6ED14FF08E
:1048300000038DF80F3010E09DF80F40FFF720FDCA
:1048400003461A4604A901EB040303F8082C9DF85B
:104850000F3003F101038DF80F309DF80F30032B5B
:10486000EAD99DF8083003F04003002B02D04FF046
:104870000C0301E04FF004038DF80D3047E04FF0DA
:10488000E9004FF00001FFF7A3FE0346012B08D813
:104890004FF002038DF80D304FF0E9038DF80E3024
:1048A00008E04FF001038DF80D304FF041038DF813
:1048B0000E3000BF40F68823C2F200031B68002BB5
:1048C00009D09DF80E3018464FF00001FFF780FE2A
:1048D0000346002BEED140F68823C2F200031B688A
:1048E000002B08D04FF050004FF40071FFF770FE1E
:1048F0000346002B0BD04FF000038DF80D3006E07F
:1049000000BF04E000BF02E000BF00E000BF40F6CF
:104910009023C2F200039DF80D201A70FFF7D8FC17
:104920009DF80D30002B12D040F60003C2F20003B8
:104930001B78DBB223F00103DAB240F60003C2F2C7
:1049400000031A704FF00100FFF732FC01E0FFF79F
:1049500087FD40F60003C2F200031B78DBB2184665
:1049600004B010BDAFF30080AFF30080AFF3008060
:1049700082B003468DF807309DF80730002B02D037
:104980004FF0010305E040F60003C2F200031B787C
:10499000DBB2184602B07047AFF30080AFF300807F
:1049A00000B585B00291019202468DF80F208DF876
:1049B00003309DF80F30002B03D19DF80330002BFE
:1049C00002D14FF0040366E040F60003C2F2000398
:1049D0001B78DBB203F00103DBB2002B02D04FF0F7
:1049E000030358E040F69023C2F200031B7803F063
:1049F0000803002B03D1019B4FEA432301939DF849
:104A00000330012B14D14FF051000199FFF7E0FD65
:104A10000346002B33D102984FF40071FFF770FD6D
:104A20000346002B2DD04FF000038DF8033029E012
:104A30004FF052000199FFF7CBFD0346002B21D127
:104A400002984FF40071FFF75BFD0346002B0ED078
:104A5000029B03F5007302939DF8033003F1FF33CB
:104A60008DF803309DF80330002BE9D100E000BF42
:104A70004FF04C004FF00001FFF7AAFD02E000BF2D
:104A800000E000BFFFF724FC9DF80330002B0CBFB3
:104A900000230123DBB2184605B000BDAFF3008050
:104AA00086B0039002910192039B0593029B0493AD
:104AB0000BE0049B1A78059B1A70059B03F1010318
:104AC0000593049B03F101030493019B002B0CBF8E
:104AD00000230123DBB2019A02F1FF320192002B85
:104AE000E7D106B0704700BFAFF30080AFF300809E
:104AF00086B0039002910192039B059307E0029B0D
:104B0000DAB2059B1A70059B03F101030593019B23
:104B1000002B0CBF00230123DBB2019A02F1FF320C
:104B20000192002BEBD106B0704700BFAFF30080BD
:104B300088B0039002910192039B0793029B069316
:104B40004FF00003059300BF019B002B0CBF002317
:104B50000123DBB2019A02F1FF320192002B17D040
:104B6000079B1B781A46069B1B78C3EB0203059331
:104B7000059B002B14BF00230123DBB2079A02F12F
:104B800001020792069A02F101020692002BDBD184
:104B9000059B184608B07047AFF30080AFF3008064
:104BA00082B00190009103E0019B03F101030193A6
:104BB000019B1B78002B05D0019B1B781A46009B9C
:104BC0009A42F1D1019B1B78184602B0704700BF92
:104BD00000B585B001900091019B1B6A0393039A75
:104BE000009B9A4217D0009B002B14D0019B5A784F
:104BF000019B03F1240310461946009A4FF001036C
:104C0000FFF7CEFE0346002B02D04FF0010304E075
:104C1000019B009A1A624FF00003184605B000BDD0
:104C200082B001900091009BA3F102030093019BCD
:104C3000DB68A3F10202009B9A4202D84FF0000306
:104C400007E0019B9B78009A02FB03F2019BDB6962
:104C50001344184602B07047AFF30080AFF30080F2
:104C600000B587B001900091009B012B04D9019BF6
:104C7000DA68009B9A4202D84FF00103BEE0019B24
:104C80001B78022B54D0032B79D0012B40F0B48039
:104C9000009B0593059B4FEA5303059A1344059324
:104CA000019B5A69059B4FEA532313440198194607
:104CB000FFF78EFF0346002B40F09780059B4FEADD
:104CC000C3534FEAD353019A134493F82430049307
:104CD000059B03F101030593019B5A69059B4FEA6C
:104CE0005323134401981946FFF772FF0346002B24
:104CF0007DD1059B4FEAC3534FEAD353019A134426
:104D000093F824304FEA0323049A42EA03030493FE
:104D1000009B03F00103DBB2002B03D0049B4FEA9E
:104D2000131304E0049B4FEA03534FEA135365E067
:104D3000019B5A69009B4FEA1323134401981946BB
:104D4000FFF746FF0346002B53D1019B03F12402DA
:104D5000009B4FEA43034FEAC3534FEAD353134434
:104D60000393039B03F101031B784FEA03239AB2D9
:104D7000039B1B7842EA03039BB29BB23EE0019B7C
:104D80005A69009B4FEAD313134401981946FFF761
:104D90001FFF0346002B2ED1019B03F12402009B31
:104DA0004FEA83034FEAC3534FEAD35313440393A9
:104DB000039B03F103031B784FEA0362039B03F198
:104DC00002031B784FEA034342EA0302039B03F109
:104DD00001031B784FEA032342EA0302039B1B787B
:104DE00042EA030323F0704308E000BF04E000BF81
:104DF00002E000BF00E000BF4FF0FF33184607B0ED
:104E000000BD00BFAFF30080AFF30080AFF30080C0
:104E100000B585B001900B46ADF80230019BBDF89E
:104E20000220DA80019B9B680393039B012B05D032
:104E3000019B1B68DA68039B9A4202D84FF0020379
:104E400079E0039B002B08D1019B1B681B78032B87
:104E500003D1019B1B689B690393039B002B18D113
:104E6000019B039ADA60019B1B681B89BDF8022035
:104E70009A4202D34FF002035DE0019B1B689A69DE
:104E8000BDF802304FEA13139BB21A44019B1A611A
:104E900042E0019B1B689B784FEA0313ADF80A3090
:104EA00022E0019B1B6818460399FFF7D9FE0346D1
:104EB0000393039BB3F1FF3F02D14FF001033AE0AC
:104EC000039B012B05D9019B1B68DA68039B9A425F
:104ED00002D84FF002032EE0BDF80220BDF80A30E0
:104EE000C3EB0203ADF80230BDF80220BDF80A3072
:104EF0009A42D6D2019B039ADA60019B1B6818463E
:104F00000399FFF78DFE0246BDF802304FEA1313F6
:104F10009BB21A44019B1A61019B1B6803F1240296
:104F2000BDF8023003F00F034FEA43131A44019B0C
:104F30005A614FF00003184605B000BDAFF3008082
:104F400000B585B001900091019BDB8803F101035E
:104F5000ADF80E30BDF80E30002B03D0019B1B695D
:104F6000002B02D14FF004036AE0BDF80E3003F0CD
:104F70000F039BB2002B50D1019B1B6903F101026F
:104F8000019B1A61019BDB68002B09D1019B1B6807
:104F90001B89BDF80E209A423ED34FF004034FE028
:104FA000BDF80E304FEA13139BB21A46019B1B68E3
:104FB0009B7803F1FF3302EA0303002B2DD1019B01
:104FC0001A68019BDB6810461946FFF749FE034645
:104FD0000293029B012B02D84FF0020330E0029BA8
:104FE000B3F1FF3F02D14FF0010329E0019B1B68A1
:104FF000DA68029B9A4202D84FF0040320E0019B3A
:10500000029ADA60019B1B6818460299FFF708FEB6
:105010000246019B1A6100E000BF019BBDF80E2013
:10502000DA80019B1B6803F12402BDF80E3003F007
:105030000F034FEA43131A44019B5A614FF00003D8
:10504000184605B000BD00BFAFF30080AFF300808D
:1050500000B587B0019001984FF00001FFF7D8FE2E
:1050600003468DF817309DF81730002B02D09DF8BD
:10507000173043E0019B1A68019B1B6910461946D3
:10508000FFF7A6FD03468DF817309DF81730002B6B
:105090002FD1019B5B690493049B1B788DF80F3023
:1050A0009DF80F30002B04D14FF004038DF817301A
:1050B00022E0049B03F10B031B7803F00803002B91
:1050C0000AD1019B9B69049819464FF00B02FFF728
:1050D0002FFD0346002B0ED001984FF00001FFF783
:1050E0002FFF03468DF817309DF81730002BC1D0E5
:1050F00002E000BF00E000BF9DF81730184607B07F
:1051000000BD00BFAFF30080AFF30080AFF30080BD
:1051100000B589B001900091009B1B68039303E0E8
:10512000039B03F101030393039B1B782F2BF7D001
:10513000039B1B785C2BF3D0019B9B690293029825
:105140004FF020014FF00B02FFF7D2FC4FF00003AD
:105150008DF81F304FF000030493049B05934FF02C
:1051600008030693039A059B13441B788DF81E30A1
:10517000059B03F1010305939DF81E30202B7AD97E
:105180009DF81E302F2B76D09DF81E305C2B72D0F0
:105190009DF81E302E2B03D0049A069B9A4217D3FB
:1051A000069B082B03D19DF81E302E2B02D04FF00A
:1051B0000603A7E04FF0080304934FF00B03069398
:1051C0009DF81F304FEA83038DF81F3000BFC9E7F9
:1051D0009DF81E305BB2002B10DA9DF81F3043F0B3
:1051E00003038DF81F309DF81E30A3F1800247F2B3
:1051F0003003C0F600039B5C8DF81E309DF81E3016
:1052000046F6C050C0F600001946FFF7C9FC034639
:10521000002B02D04FF0060374E09DF81E30402BA7
:105220000AD99DF81E305A2B06D89DF81F3043F03E
:1052300002038DF81F3013E09DF81E30602B0FD94C
:105240009DF81E307A2B0BD89DF81F3043F00103D8
:105250008DF81F309DF81E30A3F120038DF81E300D
:10526000029A049B13449DF81E201A70049B03F1BC
:105270000103049376E7039A059B1A44009B1A6086
:105280009DF81E30202B02D84FF0040301E04FF0B0
:1052900000038DF81E30049B002B02D14FF0060353
:1052A00030E0029B1B78E52B03D1029B4FF00502F7
:1052B0001A70069B082B05D19DF81F304FEA830317
:1052C0008DF81F309DF81F3003F00303012B05D12B
:1052D0009DF81E3043F010038DF81E309DF81F30EE
:1052E00003F00C03042B05D19DF81E3043F0080396
:1052F0008DF81E30029B03F10B039DF81E201A70DF
:105300004FF00003184609B000BD00BFAFF30080A6
:1053100000B585B001900091009B1B782F2B03D026
:10532000009B1B785C2B03D1009B03F101030093CE
:10533000019B4FF000029A60009B1B781F2B0CD83A
:1053400001984FF00001FFF763FD03468DF80F3021
:10535000019B4FF000025A616DE06B4601981946BF
:10536000FFF7D6FE03468DF80F309DF80F30002B67
:105370005AD10198FFF76CFE03468DF80F30019B60
:105380009B6903F10B031B788DF80E309DF80F30ED
:10539000002B0ED09DF80F30042B47D19DF80E3016
:1053A00003F00403002B43D14FF005038DF80F30B9
:1053B00041E09DF80E3003F00403002B3AD1019B2D
:1053C0005B690293029B03F10B031B7803F010034C
:1053D000002B04D14FF005038DF80F302BE0029B1A
:1053E00003F115031B784FEA03239AB2029B03F1E2
:1053F00014031B7842EA03039BB29BB24FEA0342B9
:10540000029B03F11B031B784FEA032399B2029B13
:1054100003F11A031B7841EA03039BB29BB242EAF1
:105420000302019B9A6098E700BF04E000BF02E01E
:1054300000BF00E000BF9DF80F30184605B000BD6A
:1054400000B583B001900091019B5A78019B03F154
:10545000240310461946009A4FF00103FFF7A0FA03
:105460000346002B02D04FF003036BE0019B03F5D2
:10547000087303F103031B784FEA03239AB2019BDD
:1054800003F5087303F102031B7842EA03039BB29E
:105490001AB24AF65523CFF6FF739A4202D04FF064
:1054A00002034FE0019B03F15D031B784FEA0362A7
:1054B000019B03F15C031B784FEA034342EA0302BA
:1054C000019B03F15B031B784FEA032342EA0302CB
:1054D000019B03F15A031B7842EA030323F07F4246
:1054E00044F24613C0F254039A4202D14FF0000333
:1054F00028E0019B03F179031B784FEA0362019BCB
:1055000003F178031B784FEA034342EA0302019B4D
:1055100003F177031B784FEA032342EA0302019B5E
:1055200003F176031B7842EA030323F07F4244F23F
:105530004613C0F254039A4202D14FF0000301E037
:105540004FF00103184603B000BD00BFAFF3008069
:1055500000B593B00390029113468DF80730039B7A
:105560001B680B930B9B1B78A3F130031093109BCC
:10557000092B0DD80B9B03F101031B783A2B07D1A4
:105580000B9B03F102030B93039B0B9A1A6002E03F
:105590004FF000031093109B002B02D04FF00B0331
:1055A00046E240F69423C2F20003109A53F82230E8
:1055B0000A93029B0A9A1A600A9B002B02D14FF0B1
:1055C0000C0335E20A9B1B78002B10D00A9B5B78FA
:1055D0001846FFF7CDF903468DF827309DF82730A0
:1055E00003F00103002B02D14FF0000320E20A9BDD
:1055F0004FF000021A70109BDAB20A9B5A700A9B95
:105600005B781846FFF77CF803468DF827309DF845
:10561000273003F00103DBB2002B02D04FF003036D
:1056200006E24FF000030F930A980F99FFF708FF67
:1056300003468DF847309DF84730012B42D14FF09B
:1056400000038DF846309DF84630002B05D09DF8BC
:10565000463003F1FF338DF846300A9B03F12402F4
:105660009DF846304FEA031303F5DF7313440893A4
:10567000089B03F104031B78002B23D0089B03F144
:105680000B031B784FEA0362089B03F10A031B78A4
:105690004FEA034342EA0302089B03F109031B7824
:1056A0004FEA032342EA0302089B03F108031B7835
:1056B00042EA03030F930A980F99FFF7C1FE0346CE
:1056C0008DF847309DF84730032B02D14FF001038E
:1056D000AEE19DF84730002B02D04FF00D03A7E15B
:1056E0000A9B03F130031B784FEA03239AB20A9B0B
:1056F00003F12F031B7842EA03039BB21BB2B3F5FD
:10570000007F02D04FF00D0392E10A9B03F13B03AF
:105710001B784FEA03239AB20A9B03F13A031B78E2
:1057200042EA03039BB29BB20E930E9B002B1CD14B
:105730000A9B03F14B031B784FEA03620A9B03F1B8
:105740004A031B784FEA034342EA03020A9B03F130
:1057500049031B784FEA032342EA03020A9B03F141
:1057600048031B7842EA03030E930A9B0E9A1A61C0
:105770000A9B93F834308DF81F300A9B9DF81F2048
:10578000DA709DF81F30012B06D09DF81F30022BD8
:1057900002D04FF00D034BE19DF81F200E9B02FB42
:1057A00003F30E930A9B93F831308DF81F300A9B58
:1057B0009DF81F209A709DF81F30002B09D09DF88E
:1057C0001F209DF81F3003F1FF3302EA0303002B73
:1057D00002D04FF00D032BE10A9B03F136031B7837
:1057E0004FEA03239AB20A9B03F135031B7842EA7E
:1057F00003039BB29AB20A9B1A810A9B1B8903F08E
:105800000F039BB2002B02D04FF00D0310E10A9B57
:1058100003F138031B784FEA03239AB20A9B03F182
:1058200037031B7842EA03039BB29BB20D930D9B97
:10583000002B1CD10A9B03F147031B784FEA03623C
:105840000A9B03F146031B784FEA034342EA030233
:105850000A9B03F145031B784FEA032342EA030244
:105860000A9B03F144031B7842EA03030D930A9B4E
:1058700003F133031B784FEA03239AB20A9B03F127
:1058800032031B7842EA03039BB2ADF81C30BDF82B
:105890001C30002B02D14FF00D03C9E0BDF81C20D5
:1058A0000E9B1A440A9B1B894FEA13139BB21344A5
:1058B00006930D9A069B9A4202D24FF00D03B7E071
:1058C0000D9A069BC3EB02020A9B9B78B2FBF3F393
:1058D0000593059B002B02D14FF00D03A8E04FF07C
:1058E00001038DF84730059A40F6F5739A4203D9C3
:1058F0004FF002038DF84730059A4FF6F5739A4240
:1059000003D94FF003038DF84730059B03F10202E2
:105910000A9BDA600F9A069B1A440A9BDA61BDF86B
:105920001C200F9B1A440A9B5A619DF84730032B99
:105930002AD10A9B1B89002B02D04FF00D0377E080
:105940000A9B03F153031B784FEA03620A9B03F19E
:1059500052031B784FEA034342EA03020A9B03F116
:1059600051031B784FEA032342EA03020A9B03F127
:1059700050031B7842EA03020A9B9A610A9BDB6888
:105980004FEA83030C9323E00A9B1B89002B02D16F
:105990004FF00D034CE00A9B5A690E9B1A440A9B78
:1059A0009A619DF84730022B04D10A9BDB684FEACD
:1059B00043030CE00A9BDA6813464FEA430313449F
:1059C0004FEA53020A9BDB6803F0010313440C9374
:1059D0000A9B1A690C9B03F5FE7303F103034FEA5C
:1059E00053239A4202D24FF00D0321E00A9B9DF807
:1059F00047201A7040F69823C2F200031B8803F177
:105A000001039AB240F69823C2F200031A8040F6CE
:105A10009823C2F200031A880A9BDA800A9B4FF08F
:105A200000021A620A9B4FF000021A714FF0000345
:105A3000184613B000BD00BFAFF30080AFF3008085
:105A400000B583B001900B46ADF80230019B002BEE
:105A500009D0019B1B78002B05D0019BDB88BDF88A
:105A600002209A4202D04FF009030FE0019B5B78BD
:105A70001846FEF77DFF034603F00103DBB2002B5F
:105A800002D04FF0030301E04FF00003184603B0CB
:105A900000BD00BFAFF30080AFF30080AFF3008024
:105AA00084B0034600918DF807309DF80730002B35
:105AB00002D04FF00B0321E09DF8072040F694231D
:105AC000C2F2000353F822300393039B002B03D050
:105AD000039B4FF000021A70009B002B03D0009B29
