:020000040800F2
:100000000004002021090008F1090008F109000896
:10001000F1090008F1090008F1090008F1090008D8
:10002000F1090008F1090008F1090008210A000897
:10003000F1090008F1090008F1090008010A0008A7
:10004000F109000861280008F1090008912A000858
:10005000F1090008F10900081126000841260008EE
:1000600071260008A1260008D126000841210008B9
:1000700081210008D12100082122000871220008F6
:10008000C122000811230008F1090008F109000845
:10009000F1090008F1090008F1090008012700082A
:1000A000F1090008012E0008F1090008312E0008AE
:1000B000F1090008F1090008D12E0008F109000833
:1000C000F1090008F1090008F1090008F109000828
:1000D000F1090008F1090008B1340008F10900082D
:0C00E000A127000891280008C128000892
:1000F000002200F0C7B800BF0000000000000000B0
:100100002DE9F04F85B0044600F092FA40F2B17349
:100110009C42844640F39880A4F5F66248F21F5151
:10012000C5F2EB1102F1430002F5B673561E81FBD6
:100130000057033381FB0458C01781FB0351A0EB28
:100140006710E51700EBA606023AC5EB6810C5EB91
:10015000E81840F26D15DB1743F6601905FB0262E3
:100160004FF4C875C3EBE113642105FB184842F254
:10017000934B01FB10404FF4A34AB8F1000F0CBFA2
:100180003021002165460027C0F60009CDF80C801B
:10019000C9F2492BC0F2010A8046D318029104F03B
:1001A000030200930192CCF804402B7A4A2B4DD0E5
:1001B000442B5FD0019A002A41D0029EEC684E4445
:1001C000012C5BDD009A31460123013351F8040B09
:1001D000A3420244F9D1013B9C00131D8BFB031089
:1001E000D917C018C1EBA0013059C1EBC101591A90
:1001F0006B69591A2B6948BF0731013BC3EBC30335
:10020000CB18834202DB073B8342FCDA9B18296A46
:100210000137AA69022F0A440AFB032245F81C2F62
:10022000C3D1DCF838300120DCF81C209A42ACBF86
:1002300000230123CCF8003005B0BDE8F08FB8F101
:10024000000FBAD03026B9E70020F5E7009A6969B7
:100250005318019A42B9B8F1000F05D03B29D4BF19
:1002600000210121CB18D2E7039A002AF6D0002101
:10027000CB18CCE76B690099CB18C8E7009A00242B
:10028000ABE700BF2DE9F84F05460C46164600F0D7
:10029000CFF92A684FF4A341C0F20101D717834672
:1002A00044F20750CCF22E2080FB02839B18C7EB50
:1002B000234301FB1322002A05DA02F5A832013B91
:1002C00012F5C072F9D44BF2C5314FEAE279C9F2A6
:1002D000A21142F29348181DC9F2492881FB02A1DC
:1002E00048F6890788FB00A88918C8F688074FEAEE
:1002F000E07CC9EBE1214FF46169A16009FB1122A7
:1003000008EB0001CCEBA101C1EBC10187FB02C7E7
:10031000411A4FEAE27C002907EB0200A161CCEB15
:1003200060106060C0EB0010A2EB80022260C0F29F
:10033000A680002B75DB43F6601C48F21F5040F28C
:10034000B277C0F6000CC5F2EB104FF4C8794FF04D
:10035000640A01E001379B1A80FB0728FA1717F09F
:10036000030F07D1C2EB681801210AFB1878B8F116
:10037000000F09D180FB0781C2EBE11109FB11716C
:10038000D1F1010138BF00210CEB8102126E9342C2
:10039000E0DA4A00A7F5EC6052180C380021E3615E
:1003A0001201606121610CEB02085CF802209342AB
:1003B00007DB40469B1A0131216150F8042F9A4215
:1003C000F8DD0133E36026B1002320462362BDE857
:1003D000F88F00F025F940F67803C2F200031B689D
:1003E000002B4FD0DBF80430BB4205D03846FFF776
:1003F00087FE002800F0DD80DBF80030002B00F0E5
:10040000C5802B68DBF81C209342C0F2DF80DBF84C
:100410003820934280F2DA800123DBF83C1023621B
:1004200033E043F6601C48F21F5040F2B277C0F64A
:10043000000CC5F2EB104FF4C8794FF0640A013F8D
:1004400017F0030F80FB07284FEAE77207D1C2EBD2
:10045000681801210AFB1878B8F1000F09D180FB58
:100460000781C2EBE11109FB1171D1F1010138BF24
:1004700000210CEB8102126E9B18E0D489E7073152
:10048000A16156E72662DBF820104BF2C532CD178A
:10049000C9F2A212D4F808E048F68900276882FB66
:1004A00001A6C8F6880062687618F612731B4FF42E
:1004B0006166C3EB0E05A56006FB131380FB03C149
:1004C000DE17C918C6EB6111521A6260C1EB011147
:1004D000A3EB8103FB1A23603B2B2BDD01323C3B5A
:1004E000626023603B2A48DD6B1C3C3AA36062607B
:1004F000172B26DDA269E1690132A2610131062ACA
:10050000E16101DD0022A2612169A3F11802E36823
:10051000A2600133E36058F82120934205DD0131E8
:100520009B1A0C292161E36047D000F07BF820463C
:10053000BDE8F88F002BD5DA013A3C3362602360C6
:10054000D0E7002BF1DAA269E169013AA261013931
:10055000002AE1613DDBE2681833A360531EE360CB
:10056000002BE2D12369013B2361002B34DB58F8D7
:100570002330E36000F056F8D9E7002AA8BF2B46E5
:10058000B6DA6B1E3C32A3606260B1E72B68DBF821
:100590001C209342BFF640AFDBF838209342ACBF3B
:1005A000002301232362002B3FF46DAFDBF83C10E6
:1005B0006BE74FF0FF33236265E762690023236135
:1005C0000132E361626100F02DF8B0E7002323629D
:1005D00059E70622A261BEE765690B232361013D4D
:1005E000656115F0030F0BD12846642100F072F904
:1005F00031B1012101F5B6720B230132E261B6E798
:1006000028464FF4C87100F065F9D1F1010138BFF7
:100610000021EFE7000000000000000000000000E3
:10062000704700BF704700BF0000000000000000DE
:1006300040F60000C2F20000704700BF000000005A
:10064000002900F03E8180EA010C48BF49424A1E61
:1006500000F01F81030048BF43428B4240F21E81DD
:10066000114200F02381B3FA83F2B1FA81F0A0EBDA
:100670000202C2F11F0204A000EB02124FF00000C0
:10068000974600BFAFF30080B3EBC17F00BF40EBE4
:10069000000028BFA3EBC173B3EB817F00BF40EB29
:1006A000000028BFA3EB8173B3EB417F00BF40EB99
:1006B000000028BFA3EB4173B3EB017F00BF40EB09
:1006C000000028BFA3EB0173B3EBC16F00BF40EB89
:1006D000000028BFA3EBC163B3EB816F00BF40EB09
:1006E000000028BFA3EB8163B3EB416F00BF40EB79
:1006F000000028BFA3EB4163B3EB016F00BF40EBE9
:10070000000028BFA3EB0163B3EBC15F00BF40EB68
:10071000000028BFA3EBC153B3EB815F00BF40EBE8
:10072000000028BFA3EB8153B3EB415F00BF40EB58
:10073000000028BFA3EB4153B3EB015F00BF40EBC8
:10074000000028BFA3EB0153B3EBC14F00BF40EB48
:10075000000028BFA3EBC143B3EB814F00BF40EBC8
:10076000000028BFA3EB8143B3EB414F00BF40EB38
:10077000000028BFA3EB4143B3EB014F00BF40EBA8
:10078000000028BFA3EB0143B3EBC13F00BF40EB28
:10079000000028BFA3EBC133B3EB813F00BF40EBA8
:1007A000000028BFA3EB8133B3EB413F00BF40EB18
:1007B000000028BFA3EB4133B3EB013F00BF40EB88
:1007C000000028BFA3EB0133B3EBC12F00BF40EB08
:1007D000000028BFA3EBC123B3EB812F00BF40EB88
:1007E000000028BFA3EB8123B3EB412F00BF40EBF8
:1007F000000028BFA3EB4123B3EB012F00BF40EB68
:10080000000028BFA3EB0123B3EBC11F00BF40EBE7
:10081000000028BFA3EBC113B3EB811F00BF40EB67
:10082000000028BFA3EB8113B3EB411F00BF40EBD7
:10083000000028BFA3EB4113B3EB011F00BF40EB47
:10084000000028BFA3EB0113B3EBC10F00BF40EBC7
:10085000000028BFA3EBC103B3EB810F00BF40EB47
:10086000000028BFA3EB8103B3EB410F00BF40EBB7
:10087000000028BFA3EB4103B3EB010F00BF40EB27
:10088000000028BFA3EB0103BCF1000F48BF4042AA
:1008900070479CEA000F48BF4042704738BF0020B5
:1008A00004BF4FEAEC7040F001007047B1FA81F2EA
:1008B000C2F11F02BCF1000F23FA02F048BF404210
:1008C00070470028C8BF6FF00040B8BF4FF000402D
:1008D00000F00EB80029F4D02DE90340FFF7B3FE75
:1008E000BDE8064002FB00F3A1EB0301704700BF27
:1008F000704700BF00000000000000000000000082
:10090000704700BFAFF30080AFF30080AFF300800B
:10091000FEE700BFAFF30080AFF30080AFF30080CD
:1009200072B6264C84F309884FF0020484F31488CD
:10093000BFF36F8F224C234D04E04FF055332360FB
:1009400004F10404AC42F8D31F4C1C4D04E04FF0FA
:100950005533236004F10404AC42F8D302F0D0FD17
:100960001A4D1B4C05E02B68236004F1040405F1CB
:100970000405184B9C42F6D3174C184D04E04FF079
:100980000003236004F10404AC42F8D3FFF7B8FF7E
:10099000134C03E02368984704F10404114B9C4274
:1009A000F8D302F0B5FF104C03E02368984704F138
:1009B00004040E4B9C42F8D3FFF7AAFF0008002066
:1009C000000000200004002000040020D03A0008AD
:1009D000000800207408002078080020640B002024
:1009E000EC000008EC000008EC000008EC00000837
:1009F000FEE700BFAFF30080AFF30080AFF30080ED
:100A000008B54FF0200383F3118800F0C1F94FF0CF
:100A1000000383F3118800F03BF808BDAFF30080BA
:100A200010B483B0EFF309840194019B03F1200318
:100A30000193019B83F309884FF0000383F311882E
:100A400003B010BC704700BFAFF30080AFF300806D
:100A500008B50D4B4FF000029A600B4B0B4ADA6061
:100A60004FF007004FF0100100F012F94FF00A00AC
:100A70004FF0200100F00CF94FF00B004FF0800117
:100A800000F006F908BD00BF00ED00E00003FA0524
:100A900010B483B04FF0200383F31188204B5B68C0
:100AA00003F40063002B33D0EFF309840194019B1E
:100AB000A3F120030193019B83F30988019B4FF06D
:100AC0008072DA61174B9B69DB7F002B0BD0154BD3
:100AD0001B689A68134B9B699B689A4294BF0023DA
:100AE0000123DBB20AE00F4B1B689A680D4B9B6930
:100AF0009B689A4234BF00230123DBB2002B03D052
:100B0000019B094A9A6107E0019B084A9A6103E048
:100B10004FF0000383F3118803B010BC704700BF8F
:100B200000ED00E098090020310B0008340B0008AC
:100B300000F09EFB00DF00BFAFF30080AFF300804A
:100B400003460A462DE9F04FC2F80CD0D3F80CD07A
:100B5000BDE8F08FAFF30080AFF30080AFF300800B
:100B60004FF0000383F311882846A04700F058FC9B
:100B7000704700BFAFF30080AFF30080AFF3008099
:100B800010B485B001900091019B03F003034FEA7C
:100B9000C30303931E4B019A4FEA92021C4901982A
:100BA0004FEA900000F1C00051F8200003994FF087
:100BB000FF0404FA01F16FEA010108400399009C67
:100BC00004FA01F140EA010102F1C00243F82210E7
:100BD0000F4B019A4FEA5212019901F01F014FF099
:100BE000010000FA01F102F1600243F82210084B03
:100BF000019A4FEA5212019901F01F014FF00100D2
:100C000000FA01F143F8221005B010BC704700BF94
:100C100000E100E0AFF30080AFF30080AFF30080AD
:100C200010B485B00190019B03F003034FEAC303A6
:100C30000393154B019A4FEA5212019901F01F01DB
:100C40004FF0010000FA01F102F1200243F82210F6
:100C50000D4B019A4FEA92020B4901984FEA90001E
:100C600000F1C00051F8200003994FF0FF0404FA8E
:100C700001F16FEA010100EA010102F1C00243F84B
:100C8000221005B010BC704700E100E0AFF3008017
:100C900010B485B001900091019B03F003034FEA6B
:100CA000C3030393104B019A4FEA92020E49019835
:100CB0004FEA900000F1060051F8200003994FF030
:100CC000FF0404FA01F16FEA010108400399009C56
:100CD00004FA01F140EA010102F1060243F8221090
:100CE00005B010BC704700BF00ED00E0AFF300801E
:100CF00082B00190024B9B69024A9A61FEE700BFF5
:100D00009809002050390008AFF30080AFF300804D
:100D100000B583B0FFF79CFE00F03AF900F088F8C8
:100D200000F0B6FE00F00CFF11484FF0400100F05B
:100D3000BFFA02460F4B9A610E4B9B694FF00102BE
:100D40001A774FF0000383F3118862B6094B9B6951
:100D5000094A9A61094B4FF00002009208484FF08F
:100D6000C0014FF0010200F023FB03B000BD00BF43
:100D70004009002098090020D0390008F10C000833
:100D800080080020AFF30080AFF30080AFF3008055
:100D900000B583B0244B9B69DB7F002B06D0224B30
:100DA0009B69DA7F02F1FF32D2B2DA771E4B9B6980
:100DB0001A6A02F101021A621C4BDB6803F101029C
:100DC0001A4BDA60194B1B681A46184B9A4229D005
:100DD000164B1B689A6802F1FF329A601BE0019B78
:100DE000DB680093019B4FF00002DA60019B1B68F7
:100DF0000E4A5A60019B1A680C4B1A604FF00003B0
:100E000083F31188019B1A69009B104698474FF0A5
:100E1000200383F31188054B1B680193019B9B689A
:100E2000002BDCD003B000BD980900208809002009
:100E3000074A074B5A60064B5A68054B1A60044B29
:100E40004FF0FF329A60024B4FF00002DA607047B9
:100E500088090020AFF30080AFF30080AFF300807B
:100E600086B00390029101920093039B002B04D063
:100E7000019B002B01D0029B002B039B009A1A615F
:100E8000039B019ADA60184B1B68059307E0059BEA
:100E90009B68029AD31A0293059B1B680593059BD6
:100EA0009A68029B9A42F2D3039B059A1A60039BAD
:100EB0001B685A68039B5A60039B5B68059A0399F9
:100EC0005160059A52681A60039B029A9A60059ACB
:100ED000054B9A4205D0059B9A68029BD21A059B46
:100EE0009A6006B0704700BF88090020AFF3008009
:100EF00082B00190019B1A680D4B9A4208D0019B69
:100F00001B68019A12689168019A92688A189A601F
:100F1000019B5B68019A12681A60019B1B68019A29
:100F200052685A60019B4FF00002DA6002B07047CD
:100F300088090020AFF30080AFF30080AFF300809A
:100F400084B00190019B1B680393039B1A68019B6B
:100F50001A60019B1B68019A5A60039B184604B0F3
:100F6000704700BFAFF30080AFF30080AFF30080A5
:100F700082B00190019B5B68019A12681A60019B24
:100F80001B68019A52685A60019B184602B070476C
:100F9000094A094B5A60084B5A68074B1A60064BBE
:100FA0004FF000029A60044A034B5A61024B5A699F
:100FB000014B1A61704700BF98090020AFF3008011
:100FC00084B00190019B1B7F002B03D0019B1B7FF2
:100FD0000E2B00BF019B4FF000021A770E4B0393BC
:100FE000039B1B680393039B9A68019B9B689A422F
:100FF000F6D2019B039A1A60039B5A68019B5A60C0
:10100000019B5B68039A01995160039A52681A60C8
:10101000019B184604B0704798090020AFF3008088
:1010200000B585B003468DF807300F4B9B690393DD
:10103000039B9DF807201A77039B4FF01402DA7781
:101040000948FFF77DFF0246074B9A61064B9B69F3
:101050004FF001021A77044B9B6918460399FFF77A
:101060006FFD05B000BD00BF98090020AFF3008000
:1010700000B585B00190019B03934FF0200383F3EB
:101080001188039B1B7F0D2B2CD801A252F823F053
:10109000C9100008E5100008E5100008D31000088A
:1010A000E5100008DF100008E5100008E510000852
:1010B000E5100008E5100008E5100008E51000083C
:1010C000E5100008DF1000084FF0000383F31188DB
:1010D00013E0039B5B6A9A6802F101029A6003982D
:1010E000FFF746FF039B4FF0FF325A620398FFF76A
:1010F00067FF4FF0000383F3118805B000BD00BF08
:1011000000B589B0034600918DF80730009BB3F11C
:10111000FF3F14D00F4B9B6903AA104600990E4A5B
:10112000FFF79EFE9DF807301846FFF779FF069BF4
:10113000002B09D003AB1846FFF7DAFE04E09DF858
:1011400007301846FFF76CFF024B9B695B6A184635
:1011500009B000BD9809002071100008AFF30080AD
:1011600000B585B001900091019B009A5A62019BE5
:101170009A680E4B9B699B689A4203D80198FFF7C7
:101180001FFF10E0094B9B691846FFF719FF0390FA
:10119000064B019A9A61019B4FF001021A77019860
:1011A0000399FFF7CDFC05B000BD00BF98090020F2
:1011B00000B583B00E4B9B6901930D48FFF7C0FE4D
:1011C00002460B4B9A610A4B9B694FF001021A775A
:1011D000019B4FF01402DA770198FFF7F1FE044B00
:1011E0009B6918460199FFF7ABFC03B000BD00BF37
:1011F00098090020AFF30080AFF30080AFF30080C8
:1012000000B583B0194B9B6900931848FFF798FE0F
:101210000246164B9A61154B9B694FF001021A77F3
:10122000009B4FF000021A77104B0193019B1B6843
:101230000193019B9A68009B9B689A42F6D8009B99
:10124000019A1A60019B5A68009B5A60009B5B6878
:10125000019A00995160019A52681A60034B9B6988
:1012600018460099FFF76CFC03B000BD98090020F8
:1012700008B5054B9B69DB7F002B02D1FFF798FF78
:1012800001E0FFF7BDFF08BD98090020AFF3008023
:1012900084B00190019B1B680393039B1A68019B18
:1012A0001A60039B184604B0704700BFAFF300807C
:1012B00082B001900091019B009A9A60019B4FF0CF
:1012C00002021A77019B4FF000025A77019B4FF000
:1012D0001402DA77019B009A1A64019B4FF0000216
:1012E000DA63019B4FF000029A63019B4FF000020A
:1012F0001A62019B4FF001029A77019B4FF00002A6
:101300009A61114A019B1A610F4B5A69019B5A61FC
:10131000019B5B690C4A019951610B4A52691A6140
:10132000019B03F128031A46019B9A62019B03F17A
:101330002C031A46019B1A63019B1A6B019BDA620C
:10134000019B184602B0704798090020AFF3008057
:1013500000B587B00390029101920093039B05931F
:10136000039B002B07D0029BAF2B04D9019B7F2B43
:1013700001D8009B002B039A029BA3F12403D218EF
:10138000059BDA60059BDB68009A1A60059BDB68A9
:10139000089A5A60059BDB68044A1A62059801990D
:1013A000FFF786FF0346184607B000BD610B000833
:1013B00000B589B005900491039202934FF0200389
:1013C00083F311880A9B009305980499039A029B62
:1013D000FFF7BEFF079007984FF00001FFF7C0FE30
:1013E0004FF0000383F31188079B184609B000BD36
:1013F00000B583B001904FF0200383F311884FF0C4
:1014000006000199FFF77CFE4FF0000383F311887B
:1014100003B000BDAFF30080AFF30080AFF30080F6
:1014200000B583B001904FF0200383F31188019839
:1014300000F006F803B000BDAFF30080AFF300800A
:1014400000B585B00190174B9B690393039B019AEC
:101450005A6209E0039B03F128031846FFF718FFBF
:1014600003461846FFF7ACFD039B9A6A039B03F102
:1014700028039A42EED1039B5B7F03F00303002B0A
:1014800009D1039B5B69039A12691A61039B1B696B
:10149000039A52695A614FF00E00FFF7C1FD05B083
:1014A00000BD00BF98090020AFF30080AFF30080BB
:1014B00082B00190019B1A46019B5A60019B5A68B9
:1014C000019B1A60019B4FF000029A6002B07047C6
:1014D00000B585B001900091019B1B68039310E05B
:1014E000039BDA68009B1A43039BDA60039B5A68EC
:1014F000039B9B681046194600F00AF8039B1B6883
:101500000393019B039A9A42EAD105B000BD00BF44
:1015100000B583B001900091019B9A6B009B1A4328
:10152000019B9A63019B1B7F082B07D1019B9A6B40
:10153000019B5B6A02EA0303002B0CD1019B1B7F1A
:10154000092B0FD1019B9A6B019B5B6A1A40019B8F
:101550005B6A9A4206D10198FFF732FD03464FF0CD
:1015600000025A6203B000BDAFF30080AFF3008009
:1015700082B001900091009A019B1A60009B5A680A
:10158000019B5A60019B5B68009A01995160009A27
:1015900052681A6002B07047AFF30080AFF300806A
:1015A00084B00190019B1B680393039B1A68019B05
:1015B0001A60019B1B68019A5A60039B184604B08D
:1015C000704700BFAFF30080AFF30080AFF300803F
:1015D00000B583B001900091009B002B02D14FF029
:1015E000FF3310E0094B9B69019A5A62074B9A69D5
:1015F000019B10461946FFF7BBFF4FF00D00009905
:10160000FFF77EFD0346184603B000BD9809002091
:1016100084B00390029101920093039B1A46039BAE
:101620005A60039B5A68039B1A60039B4FF00002A9
:101630009A60039B029A5A61039B5A69039B9A61C1
:10164000039B9A69039BDA60029A019BD218039B61
:101650001A61039B009ADA61039B049A1A6204B030
:10166000704700BFAFF30080AFF30080AFF300809E
:1016700000B583B001900B468DF80330019B5A6989
:10168000019B9B699A4206D1019B9B68002B02D06B
:101690004FF0010301E04FF00003DBB2002B02D05A
:1016A0006FF003032BE0019B9B6803F10102019B98
:1016B0009A60019B5B699DF803201A7003F1010297
:1016C000019B5A61019B5A69019B1B699A4203D392
:1016D000019BDA68019B5A61019B1A68019B9A423F
:1016E0000BD0019B1846FFF75BFF03461846FFF738
:1016F00067FC03464FF000025A624FF000031846A1
:1017000003B000BDAFF30080AFF30080AFF3008003
:1017100000B585B0019000914FF0200383F311884C
:10172000019BDB69002B12D0019BDB690198984774
:101730000EE001980099FFF74BFF0390039B002BED
:1017400006DA4FF0000383F31188039B23E000BF08
:10175000019B9B68002BECD0019B9B6803F1FF323F
:10176000019B9A60019B9B691A788DF80B2003F10D
:101770000102019B9A61019B9A69019B1B699A4234
:1017800003D3019BDA68019B9A614FF0000383F356
:1017900011889DF80B30184605B000BDAFF30080EE
:1017A00000B587B00390029101920093039BDB691F
:1017B00004934FF0000305934FF0200383F3118847
:1017C000049B002B10D0049B039898470DE00398CE
:1017D0000099FFF7FDFE0346002B06D04FF00003F3
:1017E00083F31188059B37E000BF039B9B68002BA8
:1017F000EDD0039B9B6803F1FF32039B9A60039B30
:101800009B691978029A1170029A02F10102029200
:1018100003F10102039B9A61039B9A69039B1B6975
:101820009A4203D3039BDA68039B9A614FF000034B
:1018300083F31188059B03F101030593019B03F1D9
:10184000FF330193019B002B01D1059B04E04FF076
:10185000200383F31188B3E7184607B000BD00BF2B
:1018600084B00390029101920093039B1A46039B5C
:101870005A60039B5A68039B1A60039B019A9A6003
:10188000039B029A5A61039B5A69039B9A61039BCB
:101890009A69039BDA60029A019BD218039B1A6132
:1018A000039B009ADA61039B049A1A6204B07047A2
:1018B00000B587B003900B4601928DF80B304FF0C6
:1018C000200383F311880DE003980199FFF780FE50
:1018D0000590059B002B05DA4FF0000383F3118878
:1018E000059B2AE0039B9B68002BEDD0039B9B6824
:1018F00003F1FF32039B9A60039B5B699DF80B2009
:101900001A7003F10102039B5A61039B5A69039BFE
:101910001B699A4203D3039BDA68039B5A61039BBA
:10192000DB69002B03D0039BDB69039898474FF0DA
:10193000000383F311884FF00003184607B000BD81
:1019400000B585B00190019B5A69019B9B699A4241
:1019500006D1019B9B68002B02D04FF0010301E0F0
:101960004FF00003DBB2002B02D06FF002032BE03C
:10197000019B9B6803F10102019B9A60019B9B699B
:101980001A788DF80F2003F10102019B9A61019BE7
:101990009A69019B1B699A4203D3019BDA68019BF8
:1019A0009A61019B1A68019B9A420BD0019B1846D1
:1019B000FFF7F6FD03461846FFF702FB03464FF01C
:1019C00000025A629DF80F30184605B000BD00BFF6
:1019D00000B587B00390029101920093039BDB69ED
:1019E00004934FF0000305934FF0200383F3118815
:1019F0000CE003980099FFF7EBFD0346002B05D0A0
:101A00004FF0000383F31188059B3DE0039B9B6827
:101A1000002BEED0039B9B6803F1FF32039B9A607F
:101A2000039B5B69029A12781A7003F10102039B0F
:101A30005A61029B03F101030293039B5A69039BC2
:101A40001B699A4203D3039BDA68039B5A61049B88
:101A5000002B02D0049B039898474FF0000383F3B8
:101A60001188059B03F101030593019B03F1FF33EB
:101A70000193019B002B01D1059B05E04FF0200352
:101A800083F3118800BFC1E7184607B000BD00BF4F
:101A9000074B03F1070323F007031A46054B1A60AF
:101AA000054B23F007031A46044B1A60704700BF2A
:101AB000640B0020B409002000200020B809002099
:101AC00000B585B001904FF0200383F31188019891
:101AD00000F00EF803904FF0000383F31188039B8E
:101AE000184605B000BD00BFAFF30080AFF3008023
:101AF00084B00190019B03F1070323F007030193D6
:101B00000C4B1B681A460C4B1B68D31A1A46019BD8
:101B10009A4202D24FF0000309E0074B1B6803937F
:101B2000054B1A68019BD218034B1A60039B184699
:101B300004B07047B8090020B4090020AFF300805A
:101B400008B5074B074A1A60054B4FF000029A6030
:101B5000034B4FF00002DA600348FFF7A9FC08BD11
:101B6000C0090020C11A0008D0090020AFF300808E
:101B700008B500F05DFC00F0A3FA0A4800F0C0FED2
:101B800000F016F800F044F800F062F800F0D0F928
:101B900000F036FA00F054F800F0EAF801F0B8FC72
:101BA00008BD00BF903A0008AFF30080AFF300809B
:101BB00008B500F0E5FC08BDAFF30080AFF300808E
:101BC00000B583B00190019B4FF001021A70019B98
:101BD0004FF000025A60019B4FF000029A60019B97
:101BE0004FF00002DA60019B4FF000021A61019B86
:101BF0004FF000025A61019B03F118031846FFF7EA
:101C000057FC03B000BD00BFAFF30080AFF300800E
:101C100008B500F06DFE08BDAFF30080AFF30080A3
:101C200082B00190019B4FF001021A70019B4FF0AE
:101C300000025A6002B07047AFF30080AFF300803B
:101C4000704700BFAFF30080AFF30080AFF30080B8
:101C500008B501F04DF908BDAFF30080AFF3008087
:101C600082B00190019B4FF001021A70019B4FF06E
:101C700000025A6002B07047AFF30080AFF30080FB
:101C800000B583B001900091019B002B01D0009B17
:101C9000002B4FF0200383F31188019B1B78012B4D
:101CA00003D0019B1B78022B00BF019B009A5A6056
:101CB000009B9A88019B1A81019801F031F9019BE0
:101CC0004FF002021A704FF0000383F3118803B043
:101CD00000BD00BFAFF30080AFF30080AFF3008022
:101CE00000B583B001904FF0200383F31188019B6E
:101CF0001B78012B03D0019B1B78022B00BF01989E
:101D000001F046FA019B4FF001021A704FF00003F8
:101D100083F3118803B000BDAFF30080AFF3008000
:101D200000B583B0019013460A468DF80320ADF844
:101D30000030019B002B02D09DF80330032B4FF0A5
:101D4000200383F311889DF80320BDF8003001982B
:101D500011461A4601F064FA4FF0000383F311882C
:101D600003B000BDAFF30080AFF30080AFF300809D
:101D700008B500F0FDFE08BDAFF30080AFF30080B2
:101D800000B583B001900091019B002B01D0009B16
:101D9000002B4FF0200383F311880198009900F085
:101DA00017FF4FF0000383F3118803B000BD00BF9D
:101DB00000B583B00190019800F052FF0346184629
:101DC00003B000BDAFF30080AFF30080AFF300803D
:101DD00000B585B0039002910192039B03F130039B
:101DE00018460299019A4FF0FF33FFF7F1FD0346C1
:101DF000184605B000BD00BFAFF30080AFF3008010
:101E000000B585B0039002910192039B03F10C038E
:101E100018460299019A4FF0FF33FFF7C1FC0346C1
:101E2000184605B000BD00BFAFF30080AFF30080DF
:101E300000B583B001900B468DF80330019B03F190
:101E400030029DF80330104619464FF0FF32FFF77D
:101E50002FFD0346184603B000BD00BFAFF300805E
:101E600000B583B00190019B03F10C0318464FF0BD
:101E7000FF31FFF74DFC0346184603B000BD00BF1D
:101E800000B585B003900B4601928DF80B30039B93
:101E900003F130029DF80B3010461946019AFFF706
:101EA00007FD0346184605B000BD00BFAFF3008034
:101EB00000B583B001900091019B03F10C0318461B
:101EC0000099FFF725FC0346184603B000BD00BF8C
:101ED00000B585B00390029101920093039B03F13A
:101EE000300318460299019A009BFFF771FD0346E3
:101EF000184605B000BD00BFAFF30080AFF300800F
:101F000000B585B00390029101920093039B03F109
:101F10000C0318460299019A009BFFF741FC034607
:101F2000184605B000BD00BFAFF30080AFF30080DE
:101F300008B501F0CDFA08BDAFF30080AFF3008023
:101F400000B587B0059004910392059B154A1A606D
:101F5000059B03F104031A46059B5A60059B4FF04D
:101F600001021A72059B03F10C02059B03F1540355
:101F700005990091104619464FF01002049BFFF797
:101F800047FB059B03F13002059B03F164030599B0
:101F90000091104619464FF01002039BFFF760FCBA
:101FA00007B000BDF0390008AFF30080AFF3008048
:101FB00000B583B001900B468DF80330019B5B693F
:101FC000002B07D1019B03F1040318464FF00401D5
:101FD000FFF77EFA019B03F10C029DF803301046D7
:101FE0001946FFF745FB0346002B07DA019B03F177
:101FF000040318464FF08001FFF76AFA03B000BDF2
:1020000008B500F065FE08BDAFF30080AFF30080B7
:1020100000B583B00190019B4FF001021A70019B43
:102020004FF000025A60019B4FF000029A60019B42
:1020300003F10C031846FFF73BFA03B000BD00BFE5
:1020400082B00190024B5A68019B9A6002B07047BF
:10205000001000E0AFF30080AFF30080AFF300802A
:1020600084B00190114B5B680393019B9B68039ABA
:10207000D21A0F4B1B68D21A019B9A60019B9A6877
:10208000019BDB689A4204D9019B9A68019BDA6044
:1020900009E0019B9A68019B1B699A4203D2019B4C
:1020A0009A68019B1A6104B0704700BF001000E0FD
:1020B000E0090020AFF30080AFF30080AFF30080B1
:1020C00000B587B00A4B4FF000021A6001AB18460A
:1020D00000F016F8019B01AA10469847029B01AA3E
:1020E00010469847039A024B1A6007B000BD00BF24
:1020F000E0090020AFF30080AFF30080AFF3008071
:1021000082B00190019B094A1A60019B084A5A60FB
:10211000019B4FF000029A60019B4FF00002DA60D1
:10212000019B4FF0FF321A6102B070474120000856
:1021300061200008AFF30080AFF30080AFF30080B0
:1021400000B583B00B4B1B6803F00F030193094BE1
:10215000019A5A60084B1B68002B06D0064B1B687F
:10216000054A5268104601999847FEF791FC03B062
:1021700000BD00BF00000240E8090020AFF300806E
:1021800000B583B00D4B1B684FEA131303F00F0328
:1021900001930A4B019A4FEA02125A60084B9B685E
:1021A000002B06D0064B9B68054AD2681046019961
:1021B0009847FEF76DFC03B000BD00BF0000024071
:1021C000E8090020AFF30080AFF30080AFF3008098
:1021D00000B583B00D4B1B684FEA132303F00F03C8
:1021E00001930A4B019A4FEA02225A60084B1B697D
:1021F000002B06D0064B1B69054A5269104601990F
:102200009847FEF745FC03B000BD00BF0000024048
:10221000E8090020AFF30080AFF30080AFF3008047
:1022200000B583B00D4B1B684FEA133303F00F0367
:1022300001930A4B019A4FEA02325A60084B9B699C
:10224000002B06D0064B9B69054AD26910460199BE
:102250009847FEF71DFC03B000BD00BF0000024020
:10226000E8090020AFF30080AFF30080AFF30080F7
:1022700000B583B00D4B1B684FEA134303F00F0307
:1022800001930A4B019A4FEA02425A60084B1B6ABB
:10229000002B06D0064B1B6A054A526A104601996C
:1022A0009847FEF7F5FB03B000BD00BF00000240F9
:1022B000E8090020AFF30080AFF30080AFF30080A7
:1022C00000B583B00D4B1B684FEA135303F00F03A7
:1022D00001930A4B019A4FEA02525A60084B9B6ADB
:1022E000002B06D0064B9B6A054AD26A104601991C
:1022F0009847FEF7CDFB03B000BD00BF00000240D1
:10230000E8090020AFF30080AFF30080AFF3008056
:1023100000B583B00D4B1B684FEA136303F00F0346
:1023200001930A4B019A4FEA02625A60084B1B6BF9
:10233000002B06D0064B1B6B054A526B10460199C9
:102340009847FEF7A5FB03B000BD00BF00000240A8
:10235000E8090020AFF30080AFF30080AFF3008006
:1023600082B0144B4FF000021A604FF0000301934B
:1023700016E01149019A13464FEA43039B184FEAAE
:102380008303CB181B684FF000021A600B4B019AB5
:102390004FF0000143F83210019B03F10103019358
:1023A000019B062BE5DD064B4FF0FF325A6002B071
:1023B000704700BFE4090020103A0008E809002037
:1023C00000000240AFF30080AFF30080AFF3008065
:1023D00008B5154B144A126842F480721A60134B08
:1023E0001B6A03F44073B3F5407F07D00F4B4FF4E3
:1023F00080321A620D4B4FF000021A620B4B1B6ABF
:1024000003F40043002B0DD1084B084A126A42F432
:1024100040721A6200F084FB044B044A126A42F4D0
:1024200000421A6208BD00BF007000400010024068
:1024300008B51E4B1B691D4B4FF0FF321A611B4B39
:102440004FF000021A61194BDB68184B4FF0FF3256
:10245000DA60164B4FF00002DA60154B45F6BF52BA
:102460005A60134B4FF000029A60114B4FF0070275
:102470001A60104B0F4AD26842F08072DA600E4B3D
:102480000D4A126842F001021A60084B074AD269ED
:1024900042F08052DA61054B044AD26942F0006290
:1024A000DA61FFF795FFFFF75BFF08BD0010024000
:1024B00010E000E0F0ED00E0001000E0AFF300807D
:1024C000294B294A126842F001021A6000BF264BCC
:1024D0001B6803F00203002BF9D0234B224A126839
:1024E00002F0F9021A60204B4FF000025A6000BF60
:1024F0001D4B5B6803F00C03002BF9D11A4B1A4AF1
:10250000126842F480321A6000BF174B1B6803F454
:102510000033002BF9D0144B134A526842F4A02226
:102520005A60114B104A126842F080721A6000BF64
:102530000D4B1B6803F00073002BF9D00A4B0B4ABC
:102540005A600B4B4FF010021A60074B064A526854
:1025500042F002025A6000BF034B5B6803F00C03B9
:10256000082BF9D1704700BF0010024000644500FD
:1025700000200240AFF30080AFF30080AFF3008093
:1025800008B51E48FFF71CFB1C4B1D4A9A621B4BEB
:102590001C4ADA62194B42F28A521A631A4B1A4ADF
:1025A000926942F400729A61154B4FF000025A6032
:1025B000134B4FF001029A60114B4FF009029A60E1
:1025C00000BF0F4B9B6803F00803002BF9D10C4BA5
:1025D0004FF005029A6000BF094B9B6803F00403AB
:1025E000002BF9D1064B4FF000029A60064B064AC9
:1025F000926922F400729A6108BD00BF200A00208F
:1026000000240140103A000800100240AFF300809F
:1026100008B5074B4FF001025A61064B5B685B68D7
:1026200004484FF000019847FEF732FA08BD00BF9A
:1026300000040140540A0020AFF30080AFF3008093
:1026400008B5074B4FF002025A61064B5B68DB6826
:1026500004484FF001019847FEF71AFA08BD00BF81
:1026600000040140540A0020AFF30080AFF3008063
:1026700008B5074B4FF004025A61064B5B685B6973
:1026800004484FF002019847FEF702FA08BD00BF68
:1026900000040140540A0020AFF30080AFF3008033
:1026A00008B5074B4FF008025A61064B5B68DB69BF
:1026B00004484FF003019847FEF7EAF908BD00BF50
:1026C00000040140540A0020AFF30080AFF3008003
:1026D00008B5074B4FF010025A61064B5B685B6A06
:1026E00004484FF004019847FEF7D2F908BD00BF37
:1026F00000040140540A0020AFF30080AFF30080D3
:1027000000B583B0234B5B6903F478730193214BCD
:10271000019A5A61019B03F02003002B06D01E4B47
:102720005B68DB6A1C484FF005019847019B03F08A
:102730004003002B06D0184B5B685B6B16484FF0CC
:1027400006019847019B03F08003002B06D0124B33
:102750005B68DB6B10484FF007019847019B03F45F
:102760008073002B06D00C4B5B685B6C0A484FF003
:1027700008019847019B03F40073002B06D0064B19
:102780005B68DB6C04484FF009019847FEF780F95D
:1027900003B000BD00040140540A0020AFF30080E4
:1027A00000B583B0294B5B6903F47C430193274B4D
:1027B000019A5A61019B03F48063002B06D0244BDD
:1027C0005B685B6D22484FF00A019847019B03F458
:1027D0000063002B06D01E4B5B68DB6D1C484FF07E
:1027E0000B019847019B03F48053002B06D0184B34
:1027F0005B685B6E16484FF00C019847019B03F431
:102800000053002B06D0124B5B68DB6E10484FF074
:102810000D019847019B03F48043002B06D00C4B1D
:102820005B685B6F0A484FF00E019847019B03F409
:102830000043002B06D0064B5B68DB6F04484FF06B
:102840000F019847FEF724F903B000BD00040140D2
:10285000540A0020AFF30080AFF30080AFF3008094
:1028600008B5074B4FF480325A61064B5B68D3F8CA
:10287000843004484FF010019847FEF709F908BD6D
:1028800000040140540A0020AFF30080AFF3008041
:1028900008B5074B4FF400325A61064B5B68D3F81A
:1028A0008C3004484FF011019847FEF7F1F808BD4D
:1028B00000040140540A0020AFF30080AFF3008011
:1028C00008B5074B4FF480225A61064B5B68D3F87A
:1028D000943004484FF012019847FEF7D9F808BD2C
:1028E00000040140540A0020AFF30080AFF30080E1
:1028F00008B50248FFF794F908BD00BF540A00204C
:1029000082B00190214B214A926942F07D029A6186
:102910001F4B019A1268DA601D4B019A92685A6047
:102920001B4B019A52681A601A4B019AD268DA60FE
:10293000184B019A52695A60164B019A12691A6033
:10294000154B019A9269DA60134B019A126A5A6028
:10295000114B019AD2691A60104B019A526ADA60DF
:102960000E4B019AD26A5A600C4B019A926A1A6015
:102970000B4B019A126BDA60094B019A926B5A6009
:10298000074B019A526B1A6002B070470010024068
:1029900000080140000C01400010014000140140FB
:1029A00000180140AFF30080AFF30080AFF3008068
:1029B0008AB0039002910192019B032B03D1039BE8
:1029C000029A1A6105E0019B042B02D1039B029A33
:1029D0005A612E4A019BD3181B7804934FF00003D1
:1029E0000693069B0793079B0893089B09934FF058
:1029F0000003059335E0089B4FEA03130893099BF6
:102A00004FEA03130993069B4FEA03130693079BB0
:102A10004FEA03130793029B03F08003002B04D1BA
:102A2000089B43F00F03089304E0069A049B42EAD4
:102A300003030693029B03F40043002B04D1099B7C
:102A400043F00F03099304E0079A049B42EA03034F
:102A50000793029B4FEA43030293059B03F1010393
:102A60000593059B072BC6D9039B5A68099B1A40FF
:102A7000079B1A43039B5A60039B1A68089B1A40E2
:102A8000069B1A43039B1A600AB07047703A00080D
:102A900000B583B0204B9B889BB203F00803002B4A
:102AA000F8D01D4B1B889AB21B4B9B889BB202EA45
:102AB0000303ADF80630184B174A928892B222F001
:102AC000070292B29A80BDF8063003F00103DBB230
:102AD000002B05D0114B1B6810484FF000019847A0
:102AE000BDF8063003F00203002B05D00B4B1B682A
:102AF0000A484FF001019847BDF8063003F004037F
:102B0000002B05D0054B1B6804484FF00201984785
:102B1000FDF7BEFF03B000BD002800405C0A0020A6
:102B20000F4B9B889BB203F02003002BF8D00C4B7B
:102B30000B4A928892B242F0100292B29A80084BED
:102B40004FF000021A81064B4FF223429A81044B48
:102B5000034A928892B222F0100292B29A80704791
:102B600000280040AFF30080AFF30080AFF3008097
:102B700008B5124B114A928892B222F0080292B222
:102B80009A800E4B9B889BB203F00803002BF8D071
:102B90000A4B9B889BB203F02003002BF8D0074B15
:102BA0004FF000021A80064B4FF000021A604FF0FF
:102BB00003004FF0F001FDF7E3FF08BD00280040DF
:102BC0005C0A0020AFF30080AFF30080AFF3008019
:102BD00084B0019000911D4B9B889BB203F00803C9
:102BE000002BF8D0194B1B8B9BB24FEA0342174BBB
:102BF0009B8B9BB2D218009B1A60144B1B8A9BB212
:102C00004FEA0342114B9B8A9BB2D3180393009B5C
:102C10001A680E4B1B8B9BB24FEA03410B4B9B8BED
:102C20009BB2CB189A42DDD1039B094A02FB03F207
:102C3000084BD318084AA2FB03134FEA93339BB205
:102C40001A46009B5A6004B0704700BF002800403D
:102C500018FCFFFFB8A8B90383DE1B43AFF3008065
:102C600000B58FB0019002AB0198194600F058FCF6
:102C7000029B4FEA63030D93039B4FEA43130D9AA4
:102C800042EA03030D93049B4FEAC3230D9A42EAE1
:102C900003030D93059B4FEA03430D9A42EA030396
:102CA0000D93069B03F101034FEA43530D9A42EA49
:102CB00003030D93079BA3F150034FEA43630D9A5F
:102CC00042EA03030D930D9B18460FB000BD00BFF1
:102CD00008B5164B4FF6FF721A801548FFF798F9A2
:102CE000134B144ADA61124B134A1A62104B134AFF
:102CF0005A620F4B41F20A029A620D4B41F21802DE
:102D0000DA620F48FFF784F90D4B0E4ADA610C4B7B
:102D10000D4A1A620A4B0D4A5A62094B41F20A02E5
:102D20009A62074B41F21802DA6208BDC00A00201D
:102D3000600A0020003001401C3A0008283A0008D0
:102D4000900A002000380040343A0008403A000859
:102D500000B585B00190019B1B691B69ADF80E3071
:102D6000019B1B69DB689AB2BDF80E3002EA0303CF
:102D70009BB203F0FF03ADF80E30019B1B69BDF859
:102D80000E206FEA02021A61BDF80E3003F0020352
:102D9000002B04D0019B5B681B6901989847BDF824
:102DA0000E3003F00403002B04D0019B5B689B6989
:102DB00001989847BDF80E3003F00803002B04D0AB
:102DC000019B5B681B6A01989847BDF80E3003F0C1
:102DD0001003002B04D0019B5B689B6A0198984705
:102DE000BDF80E3003F00103DBB2002B04D0019BD1
:102DF0005B689B680198984705B000BDAFF3008001
:102E000008B5064B6FF001021A61054B5B689B68C1
:102E100003489847FDF73CFE08BD00BF002C014069
:102E2000C40A0020AFF30080AFF30080AFF300804E
:102E300000B583B0214B1B699AB2204BDB689BB273
:102E400002EA03039BB203F0FF03ADF806301B4B0D
:102E5000BDF806206FEA02021A61BDF8063003F0E1
:102E60000203002B04D0164B5B681B69144898477B
:102E7000BDF8063003F00403002B04D0104B5B6850
:102E80009B690F489847BDF8063003F00803002BF4
:102E900004D00B4B5B681B6A09489847BDF80630A5
:102EA00003F01003002B04D0054B5B689B6A0448B9
:102EB0009847FDF7EDFD03B000BD00BF002C0140B9
:102EC000C40A0020AFF30080AFF30080AFF30080AE
:102ED00008B50348FFF73CFFFDF7DAFD08BD00BF6A
:102EE000D80A0020AFF30080AFF30080AFF300807A
:102EF00008B50648FEF7B4FE044B054A1A610548BA
:102F0000FEF7AEFE034B044A1A6108BDC40A002056
:102F1000002C0140D80A002000080040AFF30080D8
:102F200000B585B00190019B1B78012B4AD1019A15
:102F3000924B9A421ED1924B914A926942F400629E
:102F40009A618F4B8E4AD26842F40062DA608C4BF1
:102F50004FF00002DA604FF019004FF07001FDF7FA
:102F60000FFE4FF01B004FF07001FDF709FE019BB3
:102F7000844ADA60019A844B9A4218D1804B804A85
:102F8000D26942F00402DA617D4B7D4A126942F057
:102F900004021A617A4B4FF000021A614FF01E00D2
:102FA0004FF07001FDF7ECFD019B764ADA60019B62
:102FB0001B6946F668029A61019B1B6946F6680226
:102FC000DA612AE0019B1B694FF000021A60019B45
:102FD0001B69019A5268126B22F0FF02DA60019BB2
:102FE0001B694FF000021A61019B1B694FF0000240
:102FF0005A63019B1B694FF000029A63019B1B6996
:103000004FF00002DA63019B1B694FF000021A6463
:10301000019B1B694FF000025A62019BDA68019B19
:103020005B681B68B2FBF3F303F1FF330293029A70
:103030004FF6FF739A420BD8029B03F10103019AEA
:103040005268126802FB03F2019BDB689A4200BFE0
:10305000019B1B69029A92B29A62019B1B69019AB9
:10306000128902F1FF3292B2DA62019B1B69019A66
:103070005268D26A5A604FF00003ADF80E30019BDF
:103080005B68DB6803F00F03012B07D0022B0BD129
:10309000BDF80E3043F00203ADF80E30BDF80E302F
:1030A00043F00103ADF80E30019B5B685B6903F0F0
:1030B0000F03012B07D0022B0BD1BDF80E3043F0CC
:1030C0002003ADF80E30BDF80E3043F01003ADF81C
:1030D0000E30019B5B68DB6903F00F03012B07D007
:1030E000022B0BD1BDF80E3043F40073ADF80E3057
:1030F000BDF80E3043F48073ADF80E30019B5B6871
:103100005B6A03F00F03012B07D0022B0BD1BDF834
:103110000E3043F40053ADF80E30BDF80E3043F4DA
:103120008053ADF80E30019B1B69BDF80E201A626A
:10313000019B1B694FF001025A61019B1B69019AB7
:103140001269D168019A52689268002A0CBF002265
:10315000012241EA0202DA60019B1B694FF0000282
:103160001A61019B1B694FF400425A64019B1B6961
:103170004FF085021A6005B000BD00BFC40A0020F0
:103180000010024000366E01D80A0020AFF3008024
:1031900000B583B00190019B1B78022B33D1019BBA
:1031A0001B694FF000021A60019B1B694FF000027F
:1031B000DA60019B1B694FF000021A61019B1B69D9
:1031C0004FF000025A64019A104B9A420DD14FF011
:1031D0001900FDF725FD4FF01B00FDF721FD0C4BFD
:1031E0000B4A926922F400629A61019A094B9A4251
:1031F00009D14FF01E00FDF713FD054B044AD269BB
:1032000022F00402DA6103B000BD00BFC40A00204E
:1032100000100240D80A0020AFF30080AFF3008016
:1032200084B0019013460A468DF80320ADF80030B3
:10323000019B19699DF80330BDF8002003F10C03D0
:103240004FEA8303CB185A60019B5A689DF80330FC
:1032500003F101034FEAC303D3189B68002B27D067
:10326000019B1B69DB6803939DF803304FF002025A
:1032700002FA03F31A46039B02EA0303002B17D159
:10328000019B1B699DF803204FF0020101FA02F235
:103290001146039A41EA0202DA60019B1B699DF81C
:1032A00003204FF0020101FA02F26FEA02021A61F2
:1032B00004B07047AFF30080AFF30080AFF300803D
:1032C00000B585B001900B46ADF802304FF0000319
:1032D0000393BDF8023003F00803002B03D0039BD7
:1032E00043F080030393BDF8023003F00103DBB227
:1032F000002B03D0039B43F020030393BDF802305F
:1033000003F00203002B03D0039B43F0400303931D
:10331000BDF8023003F00403002B03D0039B43F4F9
:1033200080730393019B03F1040318460399FEF78E
:10333000CFF805B000BD00BFAFF30080AFF3008051
:1033400000B587B00190019B5B6F0493049B9B8940
:10335000ADF80E30049B1B88ADF81630BDF8163062
:1033600003F48073002B13D04FF0200383F31188F4
:10337000019B03F1040318464FF40071FEF7A8F80F
:103380004FF0000383F31188049B4FF6FF621A800D
:103390004FF0200383F3118817E0BDF8163003F0D7
:1033A0000F03002B05D0BDF8163001981946FFF722
:1033B00087FF049B9B889BB2DBB201981946FEF7FE
:1033C000F7FD049B1B88ADF81630BDF8163003F0EE
:1033D0002003002BE1D14FF0000383F31188BDF8E7
:1033E0000E3003F08003002B2FD0BDF8163003F011
:1033F0008003002B29D04FF0200383F31188019B19
:1034000003F130031846FEF79BFA0290029B002B53
:1034100013DA019B03F1040318464FF00801FEF78D
:1034200057F8BDF80E3023F0C0039BB243F04003C1
:103430009BB29AB2049B9A8103E0029B9AB2049BCE
:103440009A804FF0000383F31188BDF8163003F023
:103450004003002B1AD04FF0200383F31188019B07
:1034600003F1040318464FF01001FEF731F84FF056
:10347000000383F31188BDF80E3023F0C0039AB225
:10348000049B9A81049B4FF6BF721A8007B000BD5F
:1034900082B00190044B044A928992B242F08002B9
:1034A00092B29A8102B0704700440040AFF30080AE
:1034B00008B50348FFF744FFFDF7EAFA08BD00BF6F
:1034C000EC0A0020AFF30080AFF30080AFF3008080
:1034D00008B505484FF00001044AFEF731FD024BE4
:1034E000034A5A6708BD00BFEC0A00209134000867
:1034F00000440040AFF30080AFF30080AFF30080E2
:1035000008B5FEF7DDFF08BDAFF30080AFF3008024
:10351000704700BFAFF30080AFF30080AFF30080CF
:1035200000B585B0019000914FF0000302934FF079
:103530000003039302AB01981946FEF721FC02AB8E
:1035400018460099FCF7D4FD05B000BDAFF300802C
:1035500008B50F484FF480714FF01002FFF728FABA
:103560000C484FF400614FF00602FFF721FA0948BA
:103570004FF480614FF00602FFF71AFA054B4FF443
:1035800000625A61034B4FF480625A6108BD00BF6C
:10359000000C014000100140AFF30080AFF3008049
:1035A00008B5144B4FF400621A614FF4FA70FDF73E
:1035B0001FFF104B4FF480621A610F480F49FEF74E
:1035C0005FFB4FF47A7040F2DC5100F049F80A4892
:1035D0004FF002014FF00002FEF7A2FB0648FEF793
:1035E0007FFB044B4FF400625A61024B4FF4806240
:1035F0005A6108BD00100140D80A00204008002090
:1036000008B5144B4FF400621A614FF4FA70FDF7DD
:10361000EFFE104B4FF480621A610F480F49FEF71E
:103620002FFB40F2DC504FF47A7100F019F80A4891
:103630004FF002014FF00002FEF772FB0648FEF762
:103640004FFB044B4FF400625A61024B4FF480620F
:103650005A6108BD00100140D80A0020400800202F
:1036600000B589B001900091019B4FF47A7202FB82
:1036700003F3A3F57423A3F510739E4A82FB031290
:103680004FEAE2124FEAE373D31A0193009B4FF41F
:103690007A7202FB03F3A3F57423A3F51073954A22
:1036A00082FB03124FEAE2124FEAE373D31A00934C
:1036B0009148FEF77DFB0390019B03F56A6303F1DC
:1036C00006030593009B4FF47A7202FB03F3A3F504
:1036D0007423A3F51073874A82FB03124FEAE212A8
:1036E0004FEAE373D21A059BD31A0493019A009B05
:1036F0009A4203DA049A059B9A4207DB019A009BDF
:103700009A4238DD049A059B9A4236DD009A019B65
:10371000D31A4FEAD372D3184FEA63030593059B7C
:1037200004932BE07448FEF743FB0246039BD31A35
:103730000793079B079A02FB03F3704A02FB03F30C
:103740004FEA5302019BD31806936D4B1B89069ACF
:1037500002FB03F26B4BA3FB02134FEA53339BB202
:1037600067484FF002011A46FEF7DAFA4FF00200FE
:10377000FDF73EFE02E000BF00E000BF069A019B9D
:10378000D31A002B03DB069A019BD21A04E0069B96
:10379000C3F10002019BD21A0599019BCB1A002BA1
:1037A00003DB0599019BCB1A04E0059BC3F10001E3
:1037B000019BCB1A9A42B5DB069B0293079B0393AE
:1037C00023E04D48FEF7F4FA0246039BD31A079311
:1037D000079B47F2305202FB03F2029BD318069379
:1037E000474B1B89069A02FB03F2464BA3FB0213CD
:1037F0004FEA53339BB242484FF002011A46FEF79C
:103800008FFA4FF00200FDF7F3FD069A019BD31AE1
:10381000002B03DB069A019BD21A04E0069BC3F13E
:103820000002019BD21A0499019BCB1A002B03DBE7
:103830000499019BCB1A04E0049BC3F10001019B96
:10384000CB1A9A42BDDB069B0293079B039331E0A0
:103850002948FEF7ADFA0246039BD31A0793079B4C
:103860004EF6602202FB03F2079B079901FB03F36C
:10387000224901FB03F3D21A029BD218009BD318F2
:10388000A3F5EA53A3F10C0306931D4B1B89069A7B
:1038900002FB03F21B4BA3FB02134FEA53339BB211
:1038A00017484FF002011A46FEF73AFA4FF00200AD
:1038B000FDF79EFD069A019BD31A002B03DB069AA7
:1038C000019BD21A04E0069BC3F10002019BD21AAD
:1038D0000099019BCB1A002B03DB0099019BCB1AAB
:1038E00004E0009BC3F10001019BCB1A9A42AFDBBD
:1038F00009B000BDD34D62105C0A0020C0D40100A5
:10390000D80A00205917B7D1AFF30080AFF3008079
:1039100008B5FEF72DF9FDF7FBF9FFF719FEFFF7E4
:103920003FFE4FF47A70FDF763FDFFF769FE40F646
:10393000B830FDF75DFDFFF733FE4FF47A70FDF709
:1039400057FDFFF75DFE40F6B830FDF751FDE6E7A5
:1039500069646C65000000000000000000000000C9
:103960001F0000001C0000001F0000001E000000DF
:103970001F0000001E0000001F0000001F000000CC
:103980001E0000001F0000001E0000001F000000BD
:103990001F0000001D0000001F0000001E000000AE
:1039A0001F0000001E0000001F0000001F0000009C
:1039B0001E0000001F0000001E0000001F0000008D
:1039C0006D0100006E01000000000000000000001A
:1039D0006D61696E00168311040448080C101418F8
:1039E000001C1D1E1F200000000000000000000041
:1039F000D11D0008011E0008311E0008611E0008CC
:103A0000811E0008B11E0008D11E0008011F000819
:103A1000080002400400024000000B001C000240AD
:103A20000400024004010C00300002400400024087
:103A300008020D0044000240040002400C030E0086
:103A4000580002400400024010040F006C000240C5
:103A500004000240140510008000024004000240EF
:103A60001806110000000000000000000000000027
:103A700004020408080003070808080808080808E2
:103A80000B0F00000000000000000000000000001C
:103A9000FFFFFFFF4444444444444444FFFFFFFF0E
:103AA0004444444444444444FFFFFFFF44444444EA
:103AB00044444444FFFFFFFF4444444444444444DA
:0C3AC000FFFFFFFF8888888888888888BE
:103AD00001000000000000004A000000000000009B
:103AE00000000000000000000000000000000000D6
:103AF000000000004A00000000000000000000007C
:103B000000000000000000000000000000000000B5
:103B100000366E0180BB00000000000000000000C5
:103B20000000000000000000000000000100000094
:103B30000000000000000000000000000000000085
:043B40000000000081
:0400000508000921C5
:00000001FF
