:020000040800F2
:100000000004002031090008210A0008210A000824
:10001000210A0008210A0008210A0008210A000814
:10002000210A0008210A0008210A0008710A0008B4
:10003000210A0008210A0008210A0008410A0008D4
:10004000210A0008210A0008210A0008A14100082D
:10005000210A0008210A0008210A0008210A0008D4
:10006000210A0008210A0008210A000811380008A6
:1000700071380008D138000831390008913900087A
:10008000F1390008513A0008210A0008210A000845
:10009000210A0008210A0008210A0008210A000894
:1000A000210A0008210A0008210A0008210A000884
:1000B000210A0008210A0008210A0008210A000874
:1000C000210A0008210A0008210A0008210A000864
:1000D000210A0008210A0008B14B0008210A000883
:0C00E000210A0008210A0008210A00087B
:1000F00008B5002200F0C4F808BD00BF00000000F1
:100100002DE9F04F85B0054600F09AFA40F2B17340
:100110009D42074640F39680A5F5F66248F21F51CE
:1001200002F14300C5F2EB1102F5B673541E81FBD8
:10013000006C033381FB0568C61781FB0301A6EB46
:100140006C1CE8170CEBA40CC0EB6819023AC0EB6E
:10015000E81840F26D10DB1742F2934B00FB02C22D
:100160004FF4C8704FF4A34AC3EBE11300FB1858D7
:1001700064213C460026C9F2492BC0F2010AD3187B
:100180007D6001FB19590193B8F1000F0CBF3021BC
:10019000002105F0030303910293237A4A2B53D0E5
:1001A000442B65D00298002847D0039DD4F80CC09A
:1001B00046F60071C0F600014D19BCF1010F5BDD80
:1001C000019A2946012351F8040B013312186345A3
:1001D000F9D1013B9B00111DEB588BFB01C04FEA8D
:1001E000E17C4018CCEBA0004FEAC00CC0EB0C0047
:1001F000081A6169081A216948BF0730013900EB04
:10020000C100411A994202DB07399942FCDA891888
:10021000226A0136A369D318022E0AFB013144F881
:100220001C1FBAD1FA690120BB6B9A42ACBF0023F4
:1002300001233B6005B0BDE8F08FB9F1000FB4D0E9
:100240003025B3E70020F5E76369DDF804C00298C4
:100250000CEB030238B9B9F1000F04D03B2BD4BF2B
:1002600000210121D3E7B8F1000FF7D00021CEE73C
:100270006169019B5918CBE7019A0023ABE700BFE6
:100280002DE9F84F05460C46164600F0D9F92A68C4
:100290004FF4A341C0F201014FEAE27C834644F2ED
:1002A0000750CCF22E2080FB02739B18CCEB23432B
:1002B00001FB1322002A05DA02F5A832013B12F5F0
:1002C000C072F9D445F27F11C0F201018A4206DD05
:1002D000A2F5A8320133A2F5C0728A42F8DC4BF2D3
:1002E000C5374FEAE27AC9F2A21742F29341181DCC
:1002F000C9F2492187FB028748F6890C81FB0091EE
:10030000BF18C8F6880C4FEAE078CAEBE7274FF42D
:10031000616A0918A7600AFB1722C8EBA1014FEA1E
:10032000C108C1EB0801411AA1618CFB027CD717FF
:1003300000299444C7EB6C1060604FEA801C02EB0C
:100340008002CCEB02022260C0F2A080002B71DBA5
:1003500048F21F50DFF8D0C240F2B277C5F2EB107E
:100360004FF4C87A4FF0640901E001379B1A80FB13
:100370000728FA1717F0030F07D1C2EB68180121FD
:1003800009FB1878B8F1000F09D180FB0781C2EB97
:10039000E1110AFB1171D1F1010138BF00210CEB11
:1003A0008102126E9342E0DA4800A7F5EC62411830
:1003B0000C3AE36109016261002222615CF80120CC
:1003C0000CEB0108934208DB4046012121619B1A96
:1003D00050F8042F01319A42F8DD0133E36026B171
:1003E000002323622046BDE8F88F00F021F98F4BEF
:1003F0001B68002B4DD0DBF80430BB4205D03846DB
:10040000FFF77EFE002800F0DE80DBF80030002BD6
:1004100000F0C6802B68DBF81C209342C0F2E0801D
:10042000DBF83820934280F2DB800123DBF83C10BC
:10043000236231E048F21F50DFF8ECC140F2B2779E
:10044000C5F2EB104FF4C87A4FF06409013F17F082
:10045000030F80FB07284FEAE77207D1C2EB681849
:10046000012109FB1878B8F1000F09D180FB078141
:10047000C2EBE1110AFB1171D1F1010138BF00217A
:100480000CEB8102126E9B18E0D48DE70731A1615D
:100490005CE72662DBF820104BF2C5324FEAE17CC4
:1004A000C9F2A212A76848F68900256882FB019E5E
:1004B0004FF46162C8F6880066688E444FEAEE2EFB
:1004C000CCEB0E03C3EB070CC4F808C002FB1313FC
:1004D00080FB0321DA17C918C2EB6111721A62603E
:1004E000880103EB81031B1AEB1A23603B2B2ADDE7
:1004F00001323C3B626023603B2A47DD0CF1010383
:100500003C3AA3606260172B24DDA269E1690132E5
:10051000A2610131062AE16101DD0022A2612169A7
:10052000A3F11802E368A2600133E36058F82120C8
:10053000934205DD01319B1A0C292161E36046D00D
:1005400000F078F84EE7002BD6DA013A3C336260CF
:100550002360D1E7002BF3DAA269E169013AA261D5
:100560000139002AE1613EDBE2681833A360531EC3
:10057000E360002BE4D12369013B2361002B35DBD1
:1005800058F82330E36000F055F82BE7002AA8BFA5
:100590006346B8DA0CF1FF333C32A3606260B2E725
:1005A0002B68DBF81C209342BFF63FAFDBF8382006
:1005B0009342ACBF002301232362002B3FF46AAFB8
:1005C000DBF83C1068E74FF0FF33236262E76269B3
:1005D000002323610132E361626100F02BF801E73F
:1005E0000023236256E70622A261BDE765690B235B
:1005F0002361013D656115F0030F0BD1284664218D
:1006000000F070F931B1012202F5B6720B2301320C
:10061000E261B5E728464FF4C87100F063F9D1F103
:10062000010238BF0022EFE7006F000868080020D1
:10063000704700BF704700BF0000000000000000CE
:1006400040F60000C2F20000704700BF000000004A
:10065000002900F03E8180EA010C48BF49424A1E51
:1006600000F01F81031C48BF43428B4240F21E81B1
:10067000114200F02381B3FA83F2B1FA81F0A0EBCA
:100680000202C2F11F0204A000EB02124FF00000B0
:10069000974600BFAFF30080B3EBC17F00BF40EBD4
:1006A000000028BFA3EBC173B3EB817F00BF40EB19
:1006B000000028BFA3EB8173B3EB417F00BF40EB89
:1006C000000028BFA3EB4173B3EB017F00BF40EBF9
:1006D000000028BFA3EB0173B3EBC16F00BF40EB79
:1006E000000028BFA3EBC163B3EB816F00BF40EBF9
:1006F000000028BFA3EB8163B3EB416F00BF40EB69
:10070000000028BFA3EB4163B3EB016F00BF40EBD8
:10071000000028BFA3EB0163B3EBC15F00BF40EB58
:10072000000028BFA3EBC153B3EB815F00BF40EBD8
:10073000000028BFA3EB8153B3EB415F00BF40EB48
:10074000000028BFA3EB4153B3EB015F00BF40EBB8
:10075000000028BFA3EB0153B3EBC14F00BF40EB38
:10076000000028BFA3EBC143B3EB814F00BF40EBB8
:10077000000028BFA3EB8143B3EB414F00BF40EB28
:10078000000028BFA3EB4143B3EB014F00BF40EB98
:10079000000028BFA3EB0143B3EBC13F00BF40EB18
:1007A000000028BFA3EBC133B3EB813F00BF40EB98
:1007B000000028BFA3EB8133B3EB413F00BF40EB08
:1007C000000028BFA3EB4133B3EB013F00BF40EB78
:1007D000000028BFA3EB0133B3EBC12F00BF40EBF8
:1007E000000028BFA3EBC123B3EB812F00BF40EB78
:1007F000000028BFA3EB8123B3EB412F00BF40EBE8
:10080000000028BFA3EB4123B3EB012F00BF40EB57
:10081000000028BFA3EB0123B3EBC11F00BF40EBD7
:10082000000028BFA3EBC113B3EB811F00BF40EB57
:10083000000028BFA3EB8113B3EB411F00BF40EBC7
:10084000000028BFA3EB4113B3EB011F00BF40EB37
:10085000000028BFA3EB0113B3EBC10F00BF40EBB7
:10086000000028BFA3EBC103B3EB810F00BF40EB37
:10087000000028BFA3EB8103B3EB410F00BF40EBA7
:10088000000028BFA3EB4103B3EB010F00BF40EB17
:10089000000028BFA3EB0103BCF1000F48BF40429A
:1008A00070479CEA000F48BF4042704738BF0020A5
:1008B00004BF4FEAEC7040F001007047B1FA81F2DA
:1008C000C2F11F02BCF1000F23FA02F048BF404200
:1008D00070470028C8BF6FF00040B8BF4FF000401D
:1008E00000F00EB80029F4D02DE90340FFF7B3FE65
:1008F000BDE8064002FB00F3A1EB0301704700BF17
:10090000704700BF00000000000000000000000071
:10091000704700BFAFF30080AFF30080AFF30080FB
:10092000FEE700BFAFF30080AFF30080AFF30080BD
:1009300072B640F60004C2F2000484F309884FF056
:10094000020484F31488BFF36F8F40F20004C2F2F4
:10095000000440F20045C2F2000504E04FF05533B8
:10096000236004F10404AC42F8D340F20044C2F224
:10097000000440F60005C2F2000504E04FF05533D4
:10098000236004F10404AC42F8D304F039F947F2CF
:100990004025C0F6000540F60004C2F2000405E060
:1009A0002B68236004F1040405F1040540F6680394
:1009B000C2F200039C42F3D340F66804C2F2000482
:1009C00040F63C55C2F2000504E04FF000032360FE
:1009D00004F10404AC42F8D3FFF79AFF40F2EC04B0
:1009E000C0F6000403E02368984704F1040440F2D1
:1009F000EC03C0F600039C42F5D305F009FE40F27B
:100A0000EC04C0F6000403E02368984704F10404F2
:100A100040F2EC03C0F600039C42F5D3FFF780FFE1
:100A2000FEE700BFAFF30080AFF30080AFF30080BC
:100A300072B6FEE7AFF30080AFF30080AFF3008043
:100A400008B500F0F5FA4FF0200383F3118800F0A9
:100A5000AFFA00F0EDF900F0CBFA4FF0000383F3AA
:100A6000118800F015FB00F043F808BDAFF30080DB
:100A700010B483B0EFF309840194019B03F12003C8
:100A80000193019B83F309884FF0000383F31188DE
:100A900003B010BC704700BFAFF30080AFF300801D
:100AA00008B54FF46D43CEF200034FF000029A6098
:100AB0004FF46D43CEF200034FF44072C0F2FA528D
:100AC000DA604FF007004FF0100100F011F94FF01D
:100AD0000A004FF0200100F00BF94FF00B004FF02F
:100AE000800100F005F908BDAFF30080AFF300808E
:100AF00010B483B04FF0200383F311884FF46D439B
:100B0000CEF200035B6803F40063002B29D0EFF3FF
:100B100009840194019BA3F120030193019B83F3BA
:100B20000988019B4FF08072DA6140F69813C2F297
:100B300000031B689A6840F69813C2F200039B6991
:100B40009B689A4206D9019A40F67133C0F60003B9
:100B500093610AE0019A40F67C33C0F6000393618A
:100B600003E04FF0000383F3118803B010BC70471B
:100B700000F0DEF900F0B4FD00F0FAF900DF00BF8C
:100B800003460A462DE9F04FC2F80CD0D3F80CD03A
:100B9000BDE8F08FAFF30080AFF30080AFF30080CB
:100BA00008B500F0E5F94FF0000383F311882846FB
:100BB000A04700F0C5FE08BDAFF30080AFF3008092
:100BC00084B001900091019B03F003034FEAC3033B
:100BD00003934FF46143CEF20003019A4FEA92006F
:100BE0004FF46142CEF2000201994FEA910101F106
:100BF000C00152F82110039A4FF0FF0C0CFA02F2D8
:100C00006FEA020201EA0201039ADDF800C00CFA61
:100C100002F241EA020100F1C00243F822104FF44F
:100C20006143CEF20003019A4FEA5212019901F09A
:100C30001F014FF0010000FA01F102F1600243F8D8
:100C400022104FF46143CEF20003019A4FEA521290
:100C5000019901F01F014FF0010000FA01F143F882
:100C6000221004B0704700BFAFF30080AFF30080E4
:100C700084B00190019B03F003034FEAC303039385
:100C80004FF46143CEF20003019A4FEA52120199E8
:100C900001F01F014FF0010000FA01F102F1200202
:100CA00043F822104FF46143CEF20003019A4FEA59
:100CB00092004FF46142CEF2000201994FEA910195
:100CC00001F1C00152F82110039A4FF0FF0C0CFA09
:100CD00002F26FEA020201EA020100F1C00243F8E7
:100CE000221004B0704700BFAFF30080AFF3008064
:100CF00084B001900091019B03F003034FEAC3030A
:100D000003934FF46D43CEF20003019A4FEA920031
:100D10004FF46D42CEF2000201994FEA910101F1C8
:100D2000060152F82110039A4FF0FF0C0CFA02F260
:100D30006FEA020201EA0201039ADDF800C00CFA30
:100D400002F241EA020100F1060243F8221004B067
:100D5000704700BFAFF30080AFF30080AFF30080B7
:100D600082B0019040F69813C2F200039A6946F2ED
:100D7000B063C0F600039361FEE700BFAFF30080ED
:100D800000B583B0FFF78CFE00F0DAFA00F0F0F95E
:100D900001F086F901F0F4F940F63010C2F20000DB
:100DA0004FF0400100F0B4FC024640F69813C2F246
:100DB00000039A6140F69813C2F200039B694FF05A
:100DC000010283F8202040F69813C2F200039A69CA
:100DD00040F20043C2F20003D36100F091F84FF0FB
:100DE000000383F3118862B640F69813C2F2000341
:100DF0009A6946F67073C0F60003936140F661533A
:100E0000C0F600034FF00002009240F67000C2F2FC
:100E100000004FF0C0014FF0010200F031FD03B0BF
:100E200000BD00BFAFF30080AFF30080AFF30080E0
:100E300000B583B000F05CF940F69813C2F20003ED
:100E40009B695A6A02F101025A6240F68813C2F2A3
:100E50000003DB6803F1010240F68813C2F20003CD
:100E6000DA6040F68813C2F200031B681A4640F6A7
:100E70008813C2F200039A4239D040F68813C2F2B6
:100E800000031B689A6802F1FF329A6025E0019B1B
:100E9000DB680093019B4FF00002DA60019B1A6847
:100EA00040F68813C2F200035360019B1A6840F6B3
:100EB0008813C2F200031A6000F09AF84FF00003A2
:100EC00083F31188019B1A69009B104698474FF0E5
:100ED000200383F3118800F06BF840F68813C2F208
:100EE00000031B680193019B9B68002BCFD003B0CC
:100EF00000BD00BFAFF30080AFF30080AFF3008010
:100F000008B540F67C13C2F200031B68002B06D123
:100F100040F68013C2F200031B68002B05D046F296
:100F2000D060C0F6000000F013F908BDAFF30080F8
:100F300008B540F67C13C2F200031B68002B06D1F3
:100F400040F68013C2F200031B68002B05D046F266
:100F5000D860C0F6000000F0FBF840F68013C2F243
:100F600000034FF001021A6008BD00BFAFF300801C
:100F700008B540F67C13C2F200031B68002B06D1B3
:100F800040F68013C2F200031B68002B05DC46F21A
:100F9000E060C0F6000000F0DBF840F68013C2F21B
:100FA00000034FF000021A6008BD00BFAFF30080DD
:100FB00008B540F67C13C2F200031B68002B06DD67
:100FC00040F68013C2F200031B68002B05D046F2E6
:100FD000E860C0F6000000F0BBF840F68013C2F2F3
:100FE00000034FF001021A6008BD00BFAFF300809C
:100FF00008B540F67C13C2F200031B68002B06DD27
:1010000040F68013C2F200031B68002B05DC46F299
:10101000F060C0F6000000F09BF840F68013C2F2CA
:1010200000034FF000021A6008BD00BFAFF300805C
:1010300008B54FF0200383F3118840F67C13C2F209
:1010400000031B68002B06DB40F68013C2F200038E
:101050001B68002B05D046F2F860C0F6000000F0D7
:1010600077F840F67C13C2F200031B6803F101021B
:1010700040F67C13C2F200031A604FF0000383F3C2
:10108000118808BDAFF30080AFF30080AFF300809C
:1010900008B54FF0200383F3118840F67C13C2F2A9
:1010A00000031B68002B06DD40F68013C2F200032C
:1010B0001B68002B05D046F20070C0F6000000F05F
:1010C00047F840F67C13C2F200031B6803F1FF32BD
:1010D00040F67C13C2F200031A604FF0000383F362
:1010E000118808BDAFF30080AFF30080AFF300803C
:1010F00008B540F67C13C2F200031B68002B06DB28
:1011000040F68013C2F200031B68002B05DC46F298
:101110000870C0F6000000F01BF808BDAFF30080B7
:1011200008B540F67C13C2F200031B68002B06D101
:1011300040F68013C2F200031B68002B05DC46F268
:101140001070C0F6000000F003F808BDAFF3008097
:1011500000B583B0019040F68413C2F20003019AF7
:101160001A60FFF765FC03B000BD00BFAFF300805D
:1011700040F68812C2F2000240F68813C2F2000361
:101180005A6040F68813C2F200035A6840F688138A
:10119000C2F200031A6040F68813C2F200034FF057
:1011A000FF329A6040F68813C2F200034FF000024B
:1011B000DA607047AFF30080AFF30080AFF30080D8
:1011C00000B587B00390029101920093FFF790FF62
:1011D000039B002B05D0019B002B02D0029B002B10
:1011E00005D146F22070C0F60000FFF7B1FF039B67
:1011F000009A1A61039B019ADA6040F68813C2F2E2
:1012000000031B68059308E0059B9B68029AC3EBEB
:1012100002030293059B1B680593059B9A68029B3A
:101220009A42F1D3039B059A1A60039B1B685A6884
:10123000039B5A60039B5B68059A03995160059A6A
:1012400052681A60039B029A9A60059A40F68813C6
:10125000C2F200039A4206D0059B9A68029BC3EB38
:101260000202059B9A6007B000BD00BFAFF300808B
:1012700000B583B00190FFF73BFF019B002B05D128
:1012800046F23070C0F60000FFF762FF019BDB689A
:10129000002B05D146F24070C0F60000FFF758FF62
:1012A000019B1A6840F68813C2F200039A4208D0E4
:1012B000019B1B68019A12689168019A92680A441E
:1012C0009A60019B5B68019A12681A60019B1B6817
:1012D000019A52685A60019B4FF00002DA6003B035
:1012E00000BD00BFAFF30080AFF30080AFF300801C
:1012F00084B00190019B1B680393039B1A68019BB8
:101300001A60019B1B68019A5A60039B184604B03F
:10131000704700BFAFF30080AFF30080AFF30080F1
:1013200082B00190019B5B68019A12681A60019B70
:101330001B68019A52685A60019B184602B07047B8
:1013400040F69812C2F2000240F69813C2F200036F
:101350005A6040F69813C2F200035A6840F6981398
:10136000C2F200031A6040F69813C2F200034FF075
:1013700000029A6040F69812C2F2000240F69813FA
:10138000C2F200035A6140F69813C2F200035A6990
:1013900040F69813C2F200031A617047AFF3008061
:1013A00000B585B00190FFF7A3FE019B93F82030B4
:1013B000002B04D0019B93F820300E2B05D146F270
:1013C0006070C0F60000FFF7C3FE019B4FF0000203
:1013D00083F8202040F69813C2F200030393039B86
:1013E0001B680393039B9A68019B9B689A42F6D201
:1013F000019B039A1A60039B5A68019B5A60019BE8
:101400005B68039A01995160039A52681A60019BC4
:10141000184605B000BD00BFAFF30080AFF30080F9
:1014200000B585B003468DF80730FFF779FE40F62A
:101430009813C2F200039B690393039B9DF8072056
:1014400083F8202040F69810C2F20000FFF750FF0A
:10145000024640F69813C2F200039A6140F69813D0
:10146000C2F200039B694FF0010283F820206B4613
:10147000A3F12402039BDB699A4205D246F2747001
:10148000C0F60000FFF764FE40F69813C2F20003B6
:101490009B6918460399FFF773FB05B000BD00BFB9
:1014A00000B585B00190019B03934FF0200383F3B7
:1014B0001188FFF77DFD039B93F820300D2B2FD86B
:1014C00001A252F823F000BF011500082115000801
:1014D000211500080F150008211500081B1500082C
:1014E0002115000821150008211500082115000804
:1014F0002115000821150008211500081B150008FA
:10150000FFF776FD4FF0000383F3118815E0039B8E
:101510009B6A9A6802F101029A600398FFF700FF44
:10152000039B4FF0FF329A620398FFF739FFFFF7F2
:101530005FFD4FF0000383F3118805B000BD00BFCD
:1015400000B589B0034600918DF80730FFF7E8FD3C
:10155000009BB3F1FF3F1AD040F69813C2F200038C
:101560009B6903AA1046009941F2A142C0F600020D
:10157000FFF726FE9DF807301846FFF751FF069B40
:10158000002B0AD003AB1846FFF772FE06E09DF869
:1015900007301846FFF744FF00E000BF40F69813FD
:1015A000C2F200039B699B6A184609B000BD00BFE8
:1015B00000B585B001900091FFF7B2FD019B009A44
:1015C0009A62019B9A6840F69813C2F200039B69E5
:1015D0009B689A4203D80198FFF7E2FE25E040F6A7
:1015E0009813C2F200039B691846FFF7D9FE034621
:1015F000039340F69813C2F20003019A9A61019B8B
:101600004FF0010283F820206B46A3F12402039BD4
:10161000DB699A4205D246F27470C0F60000FFF70B
:1016200097FD01980399FFF7ABFA05B000BD00BF25
:1016300000B583B040F69813C2F200039B69009393
:1016400040F69810C2F20000FFF752FE024640F644
:101650009813C2F200039A6140F69813C2F2000395
:101660009B694FF0010283F82020009B4FF000029D
:1016700083F8202040F69813C2F200030193019BE7
:101680001B680193019B9A68009B9B689A42F6D85D
:10169000009B019A1A60019B5A68009B5A60009B4C
:1016A0005B68019A00995160019A52681A606B4612
:1016B000A3F12402009BDB699A4205D246F27470C2
:1016C000C0F60000FFF744FD40F69813C2F2000395
:1016D0009B6918460099FFF753FA03B000BD00BF9D
:1016E00008B5FFF7A5FF08BDAFF30080AFF300809A
:1016F00084B00190019B1B680393039B1A68019BB4
:101700001A60039B184604B0704700BFAFF3008017
:1017100082B001900091019B009A9A60019B4FF06A
:10172000020283F82020019B4FF0000283F8212061
:10173000019B009A5A64019B4FF000021A64019BBE
:101740004FF00002DA63019B4FF000025A62019BE6
:101750004FF0010283F82220019B4FF000029A61B2
:1017600040F69813C2F20003019A136140F69813F1
:10177000C2F200035A69019B5A61019B5A6940F603
:101780009813C2F200030199596140F69813C2F20E
:1017900000035B691361019B03F12C031A46019B53
:1017A000DA62019B03F130031A46019B5A63019BE5
:1017B0005A6B019B1A63019B03F14C02019BDA6196
:1017C000019B184602B07047AFF30080AFF3008072
:1017D00084B00390029113468DF8073007E0039B15
:1017E0009DF807201A70039B03F101030393039AEA
:1017F000029B9A42F3D304B0704700BFAFF300805E
:1018000000B587B00390029101920093039B05936A
:10181000FFF76EFC039B002B08D0029BAF2B05D972
:10182000019B7F2B02D8009B002B05D146F29070C4
:10183000C0F60000FFF78CFC039A029BA3F124037F
:101840001A44059BDA60059BDB68009A1A60059BC9
:10185000DB68089A5A60059BDA6840F6A133C0F647
:101860000003136205980199FFF752FF03461846DB
:1018700007B000BDAFF30080AFF30080AFF300808E
:1018800000B589B00590049103920293059A059BD7
:1018900003F14C03104619464FF0FF02FFF798FF83
:1018A000059B03F14C020599049B0B441046194615
:1018B0004FF05502FFF78CFF4FF0200383F31188A0
:1018C000FFF736FB0A9B009305980499039A029B45
:1018D000FFF796FF0346079307984FF00001FFF7C5
:1018E00067FEFFF745FB4FF0000383F31188079B6A
:1018F000184609B000BD00BFAFF30080AFF3008011
:1019000000B583B00190019B002B05D146F2D07049
:10191000C0F60000FFF71CFC4FF0200383F3118892
:10192000FFF706FB4FF006000199FFF709FEFFF7EE
:101930001FFB4FF0000383F3118803B000BD00BF0D
:1019400000B583B001904FF0200383F31188FFF7B7
:10195000EFFA019800F004F803B000BDAFF3008087
:1019600000B585B0019040F69813C2F200039B6960
:101970000393039B019A9A6209E0039B03F12C03F2
:101980001846FFF7B5FE03461846FFF709FD039B0F
:10199000DA6A039B03F12C039A42EED1039B93F87E
:1019A000213003F00303002B09D1039B5B69039AE9
:1019B00012691A61039B1B69039A52695A614FF0BD
:1019C0000E00FFF72DFD46F2E070C0F60000FFF7B5
:1019D000BFFB05B000BD00BFAFF30080AFF30080D8
:1019E00000B583B00190019B002B05D146F6300075
:1019F000C0F60000FFF7ACFB019B1A46019B5A6042
:101A0000019B5A68019B1A60019B4FF000029A608B
:101A100003B000BDAFF30080AFF30080AFF30080F0
:101A200000B585B001900091FFF762FB019B002B90
:101A300005D146F60C10C0F60000FFF789FB019BAC
:101A40001B68039311E0039BDA68009B42EA0302E0
:101A5000039BDA60039B5A68039B9B6810461946F8
:101A600000F00EF8039B1B680393019B039A9A42B4
:101A7000E9D105B000BD00BFAFF30080AFF3008037
:101A800000B583B001900091FFF732FB019B002B62
:101A900005D146F63410C0F60000FFF759FB019B54
:101AA000DA6B009B42EA0302019BDA63019B93F825
:101AB0002030082B07D1019BDA6B019B9B6A02EA5D
:101AC0000303002B0ED1019B93F82030092B10D17A
:101AD000019BDA6B019B9B6A02EA0302019B9B6AF2
:101AE0009A4206D10198FFF75BFC03464FF00002D3
:101AF0009A6203B000BD00BFAFF30080AFF3008077
:101B000082B001900091009A019B1A60009B5A6874
:101B1000019B5A60019B5B68009A01995160009A91
:101B200052681A6002B07047AFF30080AFF30080D4
:101B300084B00190019B1B680393039B1A68019B6F
:101B40001A60019B1B68019A5A60039B184604B0F7
:101B5000704700BFAFF30080AFF30080AFF30080A9
:101B600000B583B001900091009B002B02D14FF093
:101B7000FF3316E040F69813C2F200039B69019A06
:101B80009A6240F69813C2F200039A69019B1046CC
:101B90001946FFF7B5FF4FF00D000099FFF7D0FC95
:101BA0000346184603B000BDAFF30080AFF30080DA
:101BB00084B00390029101920093039B1A46039B09
:101BC0005A60039B5A68039B1A60039B4FF0000204
:101BD0009A60039B029A5A61039B5A69039B9A611C
:101BE000039B9A69039BDA60029A019B1A44039B48
:101BF0001A61039B009ADA61039B049A1A6204B08B
:101C0000704700BFAFF30080AFF30080AFF30080F8
:101C100000B583B001900B468DF80330FFF768FAEA
:101C2000019B5A69019B9B699A4206D1019B9B6863
:101C3000002B02D04FF0010301E04FF00003DBB2B4
:101C4000002B02D06FF003032BE0019B9B6803F194
:101C50000102019B9A60019B5B699DF803201A7049
:101C600003F10102019B5A61019B5A69019B1B69A7
:101C70009A4203D3019BDA68019B5A61019B1A685F
:101C8000019B9A420BD0019B1846FFF751FF034678
:101C90001846FFF785FB03464FF000029A624FF0AB
:101CA0000003184603B000BDAFF30080AFF300801F
:101CB00000B585B0019000914FF0200383F31188A7
:101CC000FFF736F9019BDB69002B15D0019BDB691F
:101CD0000198984711E001980099FFF741FF0346EA
:101CE0000393039B002B08DAFFF742F94FF0000340
:101CF00083F31188039B25E000BF019B9B68002BA9
:101D0000E9D0019B9B6803F1FF32019B9A60019B24
:101D10009B691A788DF80B2003F10102019B9A61EF
:101D2000019B9A69019B1B699A4203D3019BDA6864
:101D3000019B9A61FFF71CF94FF0000383F31188B0
:101D40009DF80B30184605B000BD00BFAFF3008012
:101D500000B587B00390029101920093039BDB6969
:101D600004934FF000030593019B002B05D146F629
:101D70007010C0F60000FFF7EBF94FF0200383F37B
:101D80001188FFF7D5F8049B002B12D0049B039811
:101D900098470FE003980099FFF7E2FE0346002BF7
:101DA00008D0FFF7E5F84FF0000383F31188059B97
:101DB0003BE000BF039B9B68002BEBD0039B9B6821
:101DC00003F1FF32039B9A60039B9B691978029A87
:101DD0001170029A02F10102029203F10102039BC7
:101DE0009A61039B9A69039B1B699A4203D3039BE5
:101DF000DA68039B9A61FFF7BBF84FF0000383F3A7
:101E00001188059B03F101030593019B03F1FF3347
:101E10000193019B002B01D1059B06E04FF02003AD
:101E200083F31188FFF784F8ADE7184607B000BDCB
:101E300084B00390029101920093039B1A46039B86
:101E40005A60039B5A68039B1A60039B019A9A602D
:101E5000039B029A5A61039B5A69039B9A61039BF5
:101E60009A69039BDA60029A019B1A44039B1A61E8
:101E7000039B009ADA61039B049A1A6204B07047CC
:101E800000B587B003900B4601928DF80B304FF0F0
:101E9000200383F31188FFF74BF810E003980199B2
:101EA000FFF75EFE03460593059B002B07DAFFF75D
:101EB0005FF84FF0000383F31188059B2CE0039B30
:101EC0009B68002BEAD0039B9B6803F1FF32039BC6
:101ED0009A60039B5B699DF80B201A7003F1010265
:101EE000039B5A61039B5A69039B1B699A4203D364
:101EF000039BDA68039B5A61039BDB69002B03D0C9
:101F0000039BDB6903989847FFF732F84FF0000313
:101F100083F311884FF00003184607B000BD00BFDF
:101F200000B585B00190FFF7E3F8019B5A69019B6A
:101F30009B699A4206D1019B9B68002B02D04FF00F
:101F4000010301E04FF00003DBB2002B02D06FF081
:101F500002032BE0019B9B6803F10102019B9A6045
:101F6000019B9B691A788DF80F2003F10102019BF8
:101F70009A61019B9A69019B1B699A4203D3019B59
:101F8000DA68019B9A61019B1A68019B9A420BD007
:101F9000019B1846FFF7CCFD03461846FFF700FAF1
:101FA00003464FF000029A629DF80F30184605B0C4
:101FB00000BD00BFAFF30080AFF30080AFF300803F
:101FC00000B587B00390029101920093039BDB69F7
:101FD00004934FF000030593019B002B05D146F6B7
:101FE0008410C0F60000FFF7B3F84FF0200383F32E
:101FF0001188FEF79DFF0EE003980099FFF7B0FDF2
:102000000346002B07D0FEF7B3FF4FF0000383F326
:102010001188059B41E0039B9B68002BECD0039B40
:102020009B6803F1FF32039B9A60039B5B69029AF2
:1020300012781A7003F10102039B5A61029B03F1AB
:1020400001030293039B5A69039B1B699A4203D3C2
:10205000039BDA68039B5A61049B002B02D0049B0C
:1020600003989847FEF784FF4FF0000383F311882D
:10207000059B03F101030593019B03F1FF330193DA
:10208000019B002B01D1059B07E04FF0200383F358
:102090001188FEF74DFF00BFBDE7184607B000BD31
:1020A00040F63C53C2F2000303F1070323F0070399
:1020B0001A4640F6B413C2F200031A6042F200035B
:1020C000C2F2000323F007031A4640F6B813C2F227
:1020D00000031A60704700BFAFF30080AFF30080C9
:1020E00000B585B001904FF0200383F31188FEF70F
:1020F0001FFF019800F00CF803460393FEF738FF2A
:102100004FF0000383F31188039B184605B000BD10
:1021100000B585B00190FEF7EBFF019B03F10703CB
:1021200023F00703019340F6B813C2F200031B68C3
:102130001A4640F6B413C2F200031B68C3EB020355
:102140001A46019B9A4202D24FF0000312E040F679
:10215000B413C2F200031B68039340F6B413C2F237
:1021600000031A68019B1A4440F6B413C2F200033C
:102170001A60039B184605B000BD00BFAFF3008096
:1021800008B540F6C013C2F2000342F2E102C0F605
:1021900000021A6040F6C013C2F200034FF00002C2
:1021A0009A6040F6C013C2F200034FF00002DA60FA
:1021B0000148FFF715FC08BDD0090020AFF30080EF
:1021C00008B501F0DDFD01F0E3FA47F28010C0F63A
:1021D000000001F0EDFE00F0E3FF01F059F800F01F
:1021E0006FFA00F0FDFE02F013FD08BDAFF30080B2
:1021F00000B585B00390029101920093039B1846AD
:10220000029900F00DFC0346002B15D04FF001039E
:1022100021E0039B1846019900F05AFC0346002B6D
:1022200002D04FF0010316E0019B03F50073019308
:10223000009B03F1FF330093009B002BE9D1039B2C
:10224000184600F0A5FC0346002B02D04FF0010316
:1022500001E04FF00003184605B000BDAFF3008069
:1022600000B585B00390029101920093039B18463C
:10227000029900F0C5FC0346002B15D04FF0010376
:1022800021E0039B1846019900F012FD0346002B44
:1022900002D04FF0010316E0019B03F50073019398
:1022A000009B03F1FF330093009B002BE9D1039BBC
:1022B000184600F05DFD0346002B02D04FF00103ED
:1022C00001E04FF00003184605B000BDAFF30080F9
:1022D00084B00346029101928DF80F3012E09DF810
:1022E0000F304FEA4302029B1B7882EA030246F654
:1022F000B073C0F600039B5C8DF80F30029B03F1B6
:1023000001030293019B002B0CBF00230123DBB2CE
:10231000019A02F1FF320192002BE0D19DF80F30BB
:10232000184604B0704700BFAFF30080AFF30080E1
:1023300000B585B001904FF00003039311E0019BBD
:10234000DB6A1A6802AB10464FF001011A4601F031
:1023500087F99DF80830FF2B19D0039B03F1010387
:102360000393039B0F2BEADD019BDB6A1A6802AB28
:1023700010464FF001011A4601F072F99DF808303D
:10238000FF2B06D04FF00100FFF7BAFAECE700BFD1
:1023900000E000BF05B000BDAFF30080AFF30080E8
:1023A00000B587B003900B4601928DF80B3003986F
:1023B000FFF7BEFF9DF80B3043F04003DBB28DF812
:1023C0001030019B4FEA1363DBB28DF81130019B93
:1023D0004FEA1343DBB28DF81230019B4FEA13230F
:1023E000DBB28DF81330019BDBB28DF8143004ABF7
:1023F0004FF0000019464FF00502FFF769FF034652
:102400004FEA4303DBB243F00103DBB2DBB28DF8EA
:102410001530039BDB6A1A6804AB10464FF00601C7
:102420001A4601F0C5F807B000BD00BFAFF3008049
:1024300000B585B001904FF00003039314E0019BB9
:10244000DB6A1A6802AB10464FF001011A4601F030
:1024500007F99DF80830FF2B02D09DF8083008E0FE
:10246000039B03F101030393039B082BE7DD4FF06C
:10247000FF03184605B000BDAFF30080AFF3008046
:1024800000B585B0019000910198FFF7D1FF034698
:102490008DF80F30019BDB6A1B6818464FF0040172
:1024A000009A01F0DDF89DF80F30184605B000BD28
:1024B00000B587B003900B4601928DF80B30039B5B
:1024C000DB6A1B68184600F073FF9DF80B30039819
:1024D0001946019AFFF764FF0398FFF7A9FF034627
:1024E0008DF81730039BDB6A1B68184600F088FFE5
:1024F0009DF81730184607B000BD00BFAFF300804D
:1025000000B587B00390019200930B468DF80B3015
:10251000039BDB6A1B68184600F04AFF9DF80B30EE
:1025200003981946019AFFF73BFF03980099FFF7BC
:10253000A7FF03468DF81730039BDB6A1B6818461C
:1025400000F05EFF9DF81730184607B000BD00BFD1
:1025500000B58DB003900B4601928DF80B30039BB4
:10256000DB6A1B68184600F023FF9DF80B300398C8
:1025700019464FF00002FFF713FF0398FFF758FFCB
:102580000346002B08D0039BDB6A1B68184600F04B
:1025900037FF4FF0010366E04FF000030B935BE061
:1025A000039BDB6A1A6805AB10464FF001011A461F
:1025B00001F056F89DF81430FE2B49D1039BDB6ADD
:1025C0001A6805AB10464FF010011A4601F048F8A2
:1025D00005AB0A93019B03F10C03099323E00A9BCB
:1025E0001B784FEA03620A9B03F101031B784FEA51
:1025F000034342EA03020A9B03F102031B784FEAFA
:10260000032342EA03020A9B03F103031B7842EA15
:102610000302099B1A600A9B03F104030A93099BB6
:10262000A3F104030993099A019B9A42D7D2039B11
:10263000DB6A1B6818464FF0020100F009FF039B9C
:10264000DB6A1B68184600F0DBFE4FF000030AE06F
:102650000B9B03F101030B930B9A42F20F739A4207
:102660009ED94FF0010318460DB000BDAFF30080B6
:1026700000B585B00190019BDB6A1B68184600F02D
:1026800097FE019BDB6A1A6803AB10464FF001010D
:102690001A4600F0E5FF9DF80C30FF2B07D1019B97
:1026A000DB6A1B68184600F0ABFE05B000BD4FF0BA
:1026B0000100FFF725F9E4E7AFF30080AFF30080F6
:1026C000704700BFAFF30080AFF30080AFF300802E
:1026D00082B00190019A46F69073C0F60003136031
:1026E000019B4FF001021A71019B4FF00002DA6268
:1026F000019B4FF0000283F8302002B0704700BF0A
:1027000000B583B001900091019B002B02D0009B8B
:10271000002B05D146F6A010C0F60000FEF718FD0C
:10272000019B1B79012B09D0019B1B79022B05D042
:1027300046F6B010C0F60000FEF70AFD019B009AB5
:10274000DA62019B4FF002021A7103B000BD00BFB4
:1027500000B587B00190019B002B05D146F6DC1037
:10276000C0F60000FEF7F4FC019B1B79022B09D098
:10277000019B1B79052B05D046F6EC10C0F6000036
:10278000FEF7E6FC019B4FF003021A71019BDB6A26
:102790001A68019BDB6A5B681046194600F098FDD9
:1027A000019BDB6A1B6818464FF0100100F050FED9
:1027B0004FF00003059301984FF000014FF0000225
:1027C000FFF776FE0346012B0BD103AB01984FF0C8
:1027D00008014FF4D572FFF793FE0346052B0DD188
:1027E00046E0059B03F101030593059B092B00F2CD
:1027F000A1804FF00A00FFF783F8DCE74FF00003F9
:10280000059301984FF037014FF00002FFF750FE9B
:102810000346012B1BD103AB01984FF029014FF464
:10282000D572C4F20002FFF76BFE0346002B0ED1F7
:1028300003AB01984FF03A014FF00002FFF760FE42
:102840009DF80C3003F04003002B0CD110E0059BE9
:1028500003F101030593059B632B6DD84FF00A002C
:10286000FFF74EF8CDE7019B4FF0010283F83020CF
:102870004FF00003059301984FF001014FF0000263
:10288000FFF716FE03468DF813309DF81330002B2A
:1028900014D1019BDB6A1A68019BDB6A9B681046B6
:1028A000194600F015FD01984FF010014FF4007229
:1028B000FFF7FEFD0346002B40D10FE09DF81330DB
:1028C000012B3DD1059B03F101030593059B632B70
:1028D00038D84FF00A00FFF713F8CCE7019B03F15B
:1028E000180301984FF009011A46FFF731FE03461D
:1028F000002B29D1019B03F11803184600F020FB9F
:102900000246019B9A62019B9B6A002B1ED0019B91
:1029100003F1080301984FF00A011A46FFF718FE69
:102920000346002B14D1019B4FF005021A714FF0A2
:1029300000031AE000BF0CE000BF0AE000BF08E09F
:1029400000BF06E000BF04E000BF02E000BF00E0FF
:1029500000BF019BDB6A1B68184600F0F1FC019B7D
:102960004FF002021A714FF00103184607B000BD84
:1029700000B583B00190019B002B05D146F60020E5
:10298000C0F60000FEF7E4FB4FF0200383F311884C
:10299000FEF7CEFA019B1B79022B09D0019B1B7914
:1029A000052B05D046F61420C0F60000FEF7D0FB3C
:1029B000019B1B79022B08D1FEF7DAFA4FF00003D6
:1029C00083F311884FF0000322E0019B4FF00402D3
:1029D0001A71FEF7CDFA4FF0000383F31188019BC3
:1029E000DB6A1A68019BDB6A9B681046194600F097
:1029F0006FFC0198FFF73CFE019BDB6A1B681846E1
:102A000000F09EFC019B4FF002021A714FF0000390
:102A1000184603B000BD00BFAFF30080AFF30080E5
:102A200000B583B001900091019B002B05D146F6C3
:102A30002820C0F60000FEF78BFB019B1B79052BBD
:102A400005D046F64420C0F60000FEF781FB019B4E
:102A50004FF006021A71019BDB6A1A68019BDB6A60
:102A60009B681046194600F033FC019BDB6A1B682B
:102A7000184600F09DFC019B93F83030002B06D0E7
:102A800001984FF01201009AFFF78AFC08E0009BC2
:102A90004FEA432301984FF012011A46FFF780FCDA
:102AA0000198FFF7C5FC0346002B0CD0019BDB6AA5
:102AB0001B68184600F044FC019B4FF005021A7198
:102AC0004FF0010301E04FF00003184603B000BDD2
:102AD00000B585B001900091019B002B02D0009BB6
:102AE000002B05D146F66420C0F60000FEF730FB4F
:102AF000019B1B79062B02D04FF001033FE04FF002
:102B00000003039324E0019BDB6A1B6818464FF027
:102B10000101009A00F0A4FD009B1B78FE2B13D14D
:102B2000019BDB6A1B6818464FF40071009A00F0A5
:102B300097FD019BDB6A1B6818464FF0020100F00D
:102B400087FC4FF000031AE0039B03F1010303939A
:102B5000039A42F20F739A42D5DD019BDB6A1B6830
:102B6000184600F04DFC019BDB6A1B68184600F01C
:102B7000E7FB019B4FF005021A714FF00103184665
:102B800005B000BDAFF30080AFF30080AFF300806D
:102B900000B583B00190019B002B05D146F67C2047
:102BA000C0F60000FEF7D4FA019B1B79062B02D079
:102BB0004FF001031AE0019BDB6A1B6818464FF0D7
:102BC000070147F2D002C0F6000200F0F1FC0198C4
:102BD000FFF72EFC019BDB6A1B68184600F010FC17
:102BE000019B4FF005021A714FF00003184603B025
:102BF00000BD00BFAFF30080AFF30080AFF30080F3
:102C000000B583B001900091019B002B05D146F6E1
:102C10009820C0F60000FEF79BFA019B1B79052B5C
:102C200005D046F6B420C0F60000FEF791FA019BED
:102C30004FF007021A71019BDB6A1A68019BDB6A7D
:102C40009B681046194600F043FB019BDB6A1B683A
:102C5000184600F0ADFB019B93F83030002B06D0F6
:102C600001984FF01901009AFFF79AFB08E0009BCA
:102C70004FEA432301984FF019011A46FFF790FBE2
:102C80000198FFF7D5FB0346002B0CD0019BDB6AB4
:102C90001B68184600F054FB019B4FF005021A71A7
:102CA0004FF0010301E04FF00003184603B000BDF0
:102CB00000B585B001900091019B002B02D0009BD4
:102CC000002B05D146F6D420C0F60000FEF740FAEE
:102CD000019B1B79072B02D04FF0010344E0019BBD
:102CE000DB6A1B6818464FF0020147F2C002C0F6CB
:102CF000000200F05DFC019BDB6A1B6818464FF484
:102D00000071009A00F054FC019BDB6A1B681846B6
:102D10004FF0020100F09CFB019BDB6A1A6803ABD9
:102D200010464FF001011A4600F09AFC9DF80C3055
:102D300003F01F03052B05D10198FFF7F9FA4FF0B7
:102D4000000311E0019BDB6A1B68184600F058FB8A
:102D5000019BDB6A1B68184600F0F2FA019B4FF0FA
:102D600005021A714FF00103184605B000BD00BFFF
:102D700000B583B00190019B002B05D146F6EC20F5
:102D8000C0F60000FEF7E4F9019B1B79072B02D087
:102D90004FF0010317E0019BDB6A1B6818464FF0F8
:102DA000020147F2B002C0F6000200F001FC019BF4
:102DB000DB6A1B68184600F023FB019B4FF00502FD
:102DC0001A714FF00003184603B000BDAFF3008046
:102DD00000B583B00190019B002B05D146F6083069
:102DE000C0F60000FEF7B4F9019B1B79052B02D059
:102DF0004FF0010316E0019B4FF008021A71019B8E
:102E0000DB6A1A68019BDB6A9B681046194600F072
:102E10005FFA0198FFF72CFC019B4FF005021A7135
:102E20004FF00003184603B000BD00BFAFF30080B1
:102E300000B583B001900091019B002B02D0009B54
:102E4000002B05D146F61430C0F60000FEF780F9DD
:102E5000019B1B79052B02D04FF0010309E0019B78
:102E60009A6A009B5A60009B4FF400721A604FF000
:102E70000003184603B000BDAFF30080AFF300803D
:102E800000B589B0039002910192029A019B9A4287
:102E900005D3029A019BC3EB02031F2B05D946F60B
:102EA0004030C0F60000FEF753F9019B4FEA531380
:102EB0000793019B03F01F030693029B4FEA5313F2
:102EC0000593029B03F01F0303F101034FF001027E
:102ED00002FA03F303F1FF330493079A059B9A4226
:102EE00019D2079B4FEA8303039A13441A68069B7F
:102EF00022FA03F2059B4FEA830303990B441968F6
:102F0000049B01EA0301069BC3F1200301FA03F3CA
:102F100042EA03030BE0079B4FEA8303039A13443F
:102F20001A68049B02EA0302069B22FA03F318467E
:102F300009B000BDAFF30080AFF30080AFF30080B5
:102F400000B587B00190019B03F10C031B684FEAA9
:102F50009373002B02D0012B29D035E001984FF05C
:102F600049014FF03E02FFF78BFF0346059301989E
:102F70004FF031014FF02F02FFF782FF0346049319
:102F800001984FF053014FF05002FFF779FF0346CD
:102F90000393059B03F10102049B03F1020302FA70
:102FA00003F2039BA3F1090302FA03F30EE0019875
:102FB0004FF045014FF03002FFF762FF034603F187
:102FC00001034FEA832301E04FF00003184607B0E6
:102FD00000BD00BFAFF30080AFF30080AFF300800F
:102FE00008B501F085F908BDAFF30080AFF30080AC
:102FF00000B583B001900091019B002B02D0009B93
:10300000002B05D146F67030C0F60000FEF7A0F8A0
:103010004FF0200383F31188FDF78AFF0198009990
:1030200001F09EF9FDF7A4FF4FF0000383F3118830
:1030300003B000BDAFF30080AFF30080AFF30080BA
:1030400000B585B0039002910192039B03F1300318
:1030500018460299019A4FF0FF33FEF7B1FF03467D
:10306000184605B000BD00BFAFF30080AFF300808D
:1030700000B585B0039002910192039B03F10C030C
:1030800018460299019A4FF0FF33FEF761FE03469E
:10309000184605B000BD00BFAFF30080AFF300805D
:1030A00000B583B001900B468DF80330019B03F10E
:1030B00030029DF80330104619464FF0FF32FEF7FC
:1030C000DFFE0346184603B000BD00BFAFF300802B
:1030D00000B583B00190019B03F10C0318464FF03B
:1030E000FF31FEF7E5FD0346184603B000BD00BF03
:1030F00000B585B003900B4601928DF80B30039B11
:1031000003F130029DF80B3010461946019AFEF784
:10311000B7FE0346184605B000BD00BFAFF3008000
:1031200000B583B001900091019B03F10C03184698
:103130000099FEF7BDFD0346184603B000BD00BF71
:1031400000B585B00390029101920093039B03F1B7
:10315000300318460299019A009BFEF731FF03469F
:10316000184605B000BD00BFAFF30080AFF300808C
:1031700000B585B00390029101920093039B03F187
:103180000C0318460299019A009BFEF7E1FD0346E5
:10319000184605B000BD00BFAFF30080AFF300805C
:1031A00008B501F015FD08BDAFF30080AFF3008056
:1031B00000B587B0059004910392059A47F2E003A9
:1031C000C0F600031360059B03F104031A46059B38
:1031D0005A60059B4FF001021A72059B03F10C0225
:1031E000059B03F1540305990091104619464FF0D1
:1031F0001002049BFEF7DCFC059B03F13002059BEB
:1032000003F1640305990091104619464FF010022E
:10321000039BFEF70DFE07B000BD00BFAFF30080BB
:1032200000B583B001900B468DF80330FDF760FFC9
:10323000019B002B05D146F6F830C0F60000FDF7E3
:1032400087FF019B5B69002B07D1019B03F10403FE
:1032500018464FF00401FEF7E3FB019B03F10C025B
:103260009DF8033010461946FEF7D2FC0346002BAA
:1032700007DA019B03F1040318464FF08001FEF7C3
:10328000CFFB03B000BD00BFAFF30080AFF3008001
:1032900008B501F045F908BDAFF30080AFF3008039
:1032A00000B583B00190019B4FF001021A70019BA1
:1032B0004FF000025A60019B4FF000029A60019BA0
:1032C00003F10C031846FEF78BFB03B000BD00BFF3
:1032D00000B583B001900091019B002B02D0009BB0
:1032E000002B05D146F62040C0F60000FDF730FF68
:1032F0004FF0200383F31188FDF71AFE019B1B7822
:10330000012B09D0019B1B78022B05D046F63040DB
:10331000C0F60000FDF71CFF019B009A5A6001985F
:1033200001F036F9019B4FF002021A70FDF720FE02
:103330004FF0000383F3118803B000BDAFF30080AA
:1033400000B583B00190019B002B05D146F64040AB
:10335000C0F60000FDF7FCFE4FF0200383F3118858
:10336000FDF7E6FD019B1B78012B09D0019B1B7823
:10337000022B05D046F64C40C0F60000FDF7E8FEF3
:10338000019801F0EDF9019801F0AAF9019B4FF0C5
:1033900001021A70FDF7ECFD4FF0000383F3118872
:1033A00003B000BDAFF30080AFF30080AFF3008047
:1033B00000B583B00190019B002B05D146F65C401F
:1033C000C0F60000FDF7C4FE4FF0200383F3118820
:1033D000FDF7AEFD019B1B78022B05D046F66C4035
:1033E000C0F60000FDF7B4FE019801F0A9F9FDF761
:1033F000BFFD4FF0000383F3118803B000BD00BF91
:1034000000B583B00190019B002B05D146F67C40AE
:10341000C0F60000FDF79CFE4FF0200383F31188F7
:10342000FDF786FD019B1B78022B05D046F68C40EC
:10343000C0F60000FDF78CFE019801F091F9FDF750
:1034400097FD4FF0000383F3118803B000BD00BF68
:1034500000B583B001900091019B002B02D0009B2E
:10346000002B05D146F65050C0F60000FDF770FE67
:103470004FF0200383F31188FDF75AFD019B1B7861
:10348000022B05D046F66450C0F60000FDF760FE42
:10349000019B5B681B68002B05D046F67450C0F694
:1034A0000000FDF755FE019B4FF003021A700198D2
:1034B000009901F065F9019B9B68002B05D046F649
:1034C0008450C0F60000FDF743FE40F69813C2F2A8
:1034D00000039A69019B9A604FF00200FDF7A0FF7C
:1034E000FDF746FD4FF0000383F3118803B000BDE4
:1034F00000B585B00390029101920093039B002BCD
:1035000008D0029B002B05D0009B002B02D0019B12
:10351000002B05D146F69450C0F60000FDF718FECA
:103520004FF0200383F31188FDF702FD039B1B7806
:10353000022B05D046F6A450C0F60000FDF708FEA9
:10354000039B5B681B68002B05D046F6B850C0F69D
:103550000000FDF7FDFD039B4FF003021A70039876
:103560000299019A009B01F04BF9039B9B68002B89
:1035700005D046F68450C0F60000FDF7E9FD40F6A0
:103580009813C2F200039A69039B9A604FF00200FD
:10359000FDF746FFFDF7ECFC4FF0000383F31188C5
:1035A00005B000BDAFF30080AFF30080AFF3008043
:1035B00000B585B0039002910192039B002B05D0CA
:1035C000029B002B02D0019B002B05D146F6CC506C
:1035D000C0F60000FDF7BCFD4FF0200383F3118817
:1035E000FDF7A6FC039B1B78022B05D046F6D850AE
:1035F000C0F60000FDF7ACFD039B5B681B68002B69
:1036000005D046F6E850C0F60000FDF7A1FD039B8B
:103610004FF003021A7003980299019A01F030F9F1
:10362000039B9B68002B05D046F68450C0F6000033
:10363000FDF78EFD40F69813C2F200039A69039BD2
:103640009A604FF00200FDF7EBFEFDF791FC4FF0A2
:10365000000383F3118805B000BD00BFAFF3008005
:1036600000B585B0039002910192039B002B05D019
:10367000029B002B02D0019B002B05D146F6F8508F
:10368000C0F60000FDF764FD4FF0200383F31188BE
:10369000FDF74EFC039B1B78022B05D046F6086015
:1036A000C0F60000FDF754FD039B5B681B68002B10
:1036B00005D046F61C60C0F60000FDF749FD039BEF
:1036C0004FF003021A7003980299019A01F018F959
:1036D000039B9B68002B05D046F68450C0F6000083
:1036E000FDF736FD40F69813C2F200039A69039B7A
:1036F0009A604FF00200FDF793FEFDF739FC4FF0A2
:10370000000383F3118805B000BD00BFAFF3008054
:1037100082B001904FF48053CEF200035A68019BAF
:103720009A6002B0704700BFAFF30080AFF3008033
:1037300084B001904FF48053CEF200035B68039392
:10374000019B9B68039AC3EB020240F6E013C2F2AE
:1037500000031B68C3EB0202019B9A60019B9A68FD
:10376000019BDB689A4204D9019B9A68019BDA604D
:1037700009E0019B9A68019B1B699A4203D2019B55
:103780009A68019B1A6104B0704700BFAFF30080D4
:1037900000B587B040F6E013C2F200034FF000021C
:1037A0001A6001AB184600F013F8019B01AA1046FD
:1037B0009847029B01AA10469847039A40F6E013E7
:1037C000C2F200031A6007B000BD00BFAFF3008073
:1037D00082B00190019A43F21173C0F600031360A6
:1037E000019A43F23173C0F600035360019B4FF01E
:1037F00000029A60019B4FF00002DA60019B4FF0DB
:10380000FF321A6102B07047AFF30080AFF300805F
:1038100000B583B0FDF70CFC4FF00003C4F20203C7
:103820001B6803F00F0301934FF00003C4F202037F
:10383000019A5A6040F6E813C2F200031B68002B9D
:103840000CD040F6E813C2F200031A6840F6E81301
:10385000C2F200035B68184601999047FDF718FC17
:10386000FDF746F903B000BDAFF30080AFF3008071
:1038700000B583B0FDF7DCFB4FF00003C4F2020398
:103880001B684FEA131303F00F0301934FF000037B
:10389000C4F20203019A4FEA02125A6040F6E8139A
:1038A000C2F200039B68002B0CD040F6E813C2F272
:1038B00000039A6840F6E813C2F20003DB6818467A
:1038C00001999047FDF7E4FBFDF712F903B000BD45
:1038D00000B583B0FDF7ACFB4FF00003C4F2020368
:1038E0001B684FEA132303F00F0301934FF000030B
:1038F000C4F20203019A4FEA02225A6040F6E8132A
:10390000C2F200031B69002B0CD040F6E813C2F290
:1039100000031A6940F6E813C2F200035B69184617
:1039200001999047FDF7B4FBFDF7E2F803B000BD45
:1039300000B583B0FDF77CFB4FF00003C4F2020337
:103940001B684FEA133303F00F0301934FF000039A
:10395000C4F20203019A4FEA02325A6040F6E813B9
:10396000C2F200039B69002B0CD040F6E813C2F2B0
:1039700000039A6940F6E813C2F20003DB691846B7
:1039800001999047FDF784FBFDF7B2F803B000BD45
:1039900000B583B0FDF74CFB4FF00003C4F2020307
:1039A0001B684FEA134303F00F0301934FF000032A
:1039B000C4F20203019A4FEA02425A6040F6E81349
:1039C000C2F200031B6A002B0CD040F6E813C2F2CF
:1039D00000031A6A40F6E813C2F200035B6A184655
:1039E00001999047FDF754FBFDF782F803B000BD45
:1039F00000B583B0FDF71CFB4FF00003C4F20203D7
:103A00001B684FEA135303F00F0301934FF00003B9
:103A1000C4F20203019A4FEA02525A6040F6E813D8
:103A2000C2F200039B6A002B0CD040F6E813C2F2EE
:103A300000039A6A40F6E813C2F20003DB6A1846F4
:103A400001999047FDF724FBFDF752F803B000BD44
:103A500000B583B0FDF7ECFA4FF00003C4F20203A7
:103A60001B684FEA136303F00F0301934FF0000349
:103A7000C4F20203019A4FEA02625A6040F6E81368
:103A8000C2F200031B6B002B0CD040F6E813C2F20D
:103A900000031A6B40F6E813C2F200035B6B184692
:103AA00001999047FDF7F4FAFDF722F803B000BD45
:103AB00082B040F6E413C2F200034FF000021A6035
:103AC0004FF0000301931CE047F20012C0F6000221
:103AD00001990B464FEA43030B444FEA8303134417
:103AE0001B684FF000021A6040F6E813C2F20003B0
:103AF000019A4FF0000143F83210019B03F10103DA
:103B00000193019B062BDFDD4FF00003C4F202039B
:103B10004FF0FF325A6002B0704700BFAFF3008031
:103B200000B585B00390029101920093039B002B96
:103B300005D146F66060C0F60000FDF709FB039B67
:103B40005B7A4FF0010202FA03F31A4640F6E413DF
:103B5000C2F200031B6802EA0303002B02D04FF0FD
:103B6000010361E0039B5B7A1A4640F6E813C2F258
:103B70000003019943F83210039B5B7A40F6E81288
:103B8000C2F200024FEAC3031344009A5A60039B37
:103B90005B7A4FF0010202FA03F31A4640F6E4138F
:103BA000C2F200031B6842EA030240F6E413C2F2C9
:103BB00000031A6040F6E413C2F200031B6803F02E
:103BC0007F03002B0BD04FF48053C4F202034FF459
:103BD0008052C4F20202526942F001025A61039B10
:103BE0001B68039A1268126822F00F021A60039B86
:103BF0005B68039A127A4FF00F0101FA02F21A6021
:103C0000039B1B684FF000021A60019B002B09D038
:103C1000039B9B7A1A46029B4FEA031310461946F0
:103C2000FCF7CEFF4FF00003184605B000BD00BF03
:103C300000B583B00190019B002B05D146F678605A
:103C4000C0F60000FDF784FA019B5B7A4FF0010299
:103C500002FA03F31A4640F6E413C2F200031B68AB
:103C600002EA0303002B05D146F69060C0F600007F
:103C7000FDF76EFA019B9B7A1846FCF7F9FF019B52
:103C80005B7A4FF0010202FA03F36FEA03031A466C
:103C900040F6E413C2F200031B6802EA030240F696
:103CA000E413C2F200031A6040F6E413C2F2000308
:103CB0001B6803F07F03002B0BD14FF48053C4F239
:103CC00002034FF48052C4F20202526922F0010250
:103CD0005A6103B000BD00BFAFF30080AFF30080B6
:103CE00008B54FF4E043C4F200034FF4E042C4F2DD
:103CF0000002126842F480721A604FF48053C4F2DA
:103D000002031B6A03F44073B3F5407F0DD04FF4F8
:103D10008053C4F202034FF480321A624FF480538E
:103D2000C4F202034FF000021A624FF48053C4F24F
:103D300002031B6A03F40043002B19D14FF4805394
:103D4000C4F202034FF48052C4F20202126A42F437
:103D500040721A6200F094FA4FF48053C4F20203E6
:103D60004FF48052C4F20202126A42F400421A6214
:103D700008BD00BFAFF30080AFF30080AFF3008059
:103D800008B54FF48053C4F202031B694FF480530B
:103D9000C4F202034FF0FF321A614FF48053C4F2B1
:103DA00002034FF000021A614FF48053C4F2020381
:103DB000DB684FF48053C4F202034FF0FF32DA6045
:103DC0004FF48053C4F202034FF00002DA604EF267
:103DD0001003CEF2000345F6BF525A604EF21003B4
:103DE000CEF200034FF000029A604EF21003CEF2C2
:103DF00000034FF007021A604EF6F053CEF20003B4
:103E00004EF6F052CEF20002D26842F08072DA60D2
:103E10004FF48053CEF200034FF48052CEF20002F2
:103E2000126842F001021A604FF48053C4F2020398
:103E30004FF48052C4F20202D26942F08052DA6139
:103E40004FF48053C4F202034FF48052C4F20202D2
:103E5000D26942F00062DA61FFF742FFFFF728FE05
:103E600008BD00BFAFF30080AFF30080AFF3008068
:103E70004FF48053C4F202034FF48052C4F20202A2
:103E8000126842F001021A6000BF4FF48053C4F27E
:103E900002031B6803F00203002BF6D04FF480539B
:103EA000C4F202034FF48052C4F20202126802F01C
:103EB000F9021A604FF48053C4F202034FF000027B
:103EC0005A6000BF4FF48053C4F202035B6803F0F2
:103ED0000C03002BF6D14FF48053C4F202034FF4CD
:103EE0008052C4F20202126842F480321A6000BFAB
:103EF0004FF48053C4F202031B6803F40033002B19
:103F0000F6D04FF48053C4F202034FF48052C4F24F
:103F10000202526842F4A0225A604FF48053C4F265
:103F200002034FF48052C4F20202126842F080721F
:103F30001A6000BF4FF48053C4F202031B6803F001
:103F40000073002BF6D04FF48053C4F202034FF4F9
:103F5000C842C0F245025A604FF40053C4F2020353
:103F60004FF010021A604FF48053C4F202034FF472
:103F70008052C4F20202526842F002025A6000BF4C
:103F80004FF48053C4F202035B6803F00C03082B68
:103F9000F6D14FF48053C4F202034FF48052C4F2BE
:103FA0000202126822F001021A607047AFF300802B
:103FB00082B001904FF48053C4F202034FF4805258
:103FC000C4F20202926942F07D029A614FF40063EA
:103FD000C4F20103019A1268DA604FF40063C4F27C
:103FE0000103019A92685A604FF40063C4F201031E
:103FF000019A52681A604FF44063C4F20103019AB7
:10400000D268DA604FF44063C4F20103019A526946
:104010005A604FF44063C4F20103019A12691A60B6
:104020004FF48053C4F20103019A9269DA604FF4AD
:104030008053C4F20103019A126A5A604FF480530C
:10404000C4F20103019AD2691A604FF4A053C4F27A
:104050000103019A526ADA604FF4A053C4F20103DB
:10406000019AD26A5A604FF4A053C4F20103019A34
:10407000926A1A604FF4C053C4F20103019A126BA2
:10408000DA604FF4C053C4F20103019A926B5A6094
:104090004FF4C053C4F20103019A526B1A6002B08C
:1040A000704700BFAFF30080AFF30080AFF3008034
:1040B0008AB0039002910192019B032B03D1039BD1
:1040C000029A1A6105E0019B042B02D1039B029A1C
:1040D0005A6147F26013C0F60003019A13441B783B
:1040E00004934FF000030693069B0793079B0893E6
:1040F000089B09934FF00003059335E0089B4FEAB6
:1041000003130893099B4FEA03130993069B4FEA95
:1041100003130693079B4FEA03130793029B03F0D5
:104120008003002B04D1089B43F00F03089304E0A5
:10413000069A049B42EA03030693029B03F400439E
:10414000002B04D1099B43F00F03099304E0079A65
:10415000049B42EA03030793029B4FEA4303029343
:10416000059B03F101030593059B072BC6D9039B10
:104170005A68099B02EA0302079B42EA0302039B77
:104180005A60039B1A68089B02EA0302069B42EAF4
:104190000302039B1A600AB0704700BFAFF30080B0
:1041A00000B583B0FCF744FF4FF42053C4F2000382
:1041B0009B889BB203F00803002BF5D04FF42053EB
:1041C000C4F200031B889AB24FF42053C4F20003D8
:1041D0009B889BB202EA0303ADF806304FF42053EC
:1041E000C4F200034FF42052C4F20002928892B24B
:1041F00022F0070292B29A80BDF8063003F0010364
:10420000DBB2002B0BD040F62023C2F200031B6868
:1042100040F62020C2F200004FF000019847BDF8A0
:10422000063003F00203002B0BD040F62023C2F22D
:1042300000031B6840F62020C2F200004FF001018D
:104240009847BDF8063003F00403002B0BD040F66E
:104250002023C2F200031B6840F62020C2F20000B7
:104260004FF002019847FCF713FFFCF741FC03B045
:1042700000BD00BFAFF30080AFF30080AFF300805C
:104280004FF42053C4F200039B889BB203F0200339
:10429000002BF5D04FF42053C4F200034FF420520A
:1042A000C4F20002928892B242F0100292B29A8056
:1042B0004FF42053C4F200034FF000021A814FF470
:1042C0002053C4F200034FF223429A814FF420534B
:1042D000C4F200034FF42052C4F20002928892B25A
:1042E00022F0100292B29A80704700BFAFF30080B4
:1042F00008B54FF42053C4F200034FF42052C4F227
:104300000002928892B222F0080292B29A804FF490
:104310002053C4F200039B889BB203F00803002BD8
:10432000F5D04FF42053C4F200039B889BB203F0F6
:104330002003002BF5D04FF42053C4F200034FF0BC
:1043400000021A8040F62023C2F200034FF0000260
:104350001A604FF003004FF0F001FCF731FC08BD8C
:1043600084B0019000914FF42053C4F200039B8865
:104370009BB203F00803002BF5D04FF42053C4F296
:1043800000031B8B9BB24FEA03424FF42053C4F24D
:1043900000039B8B9BB21A44009B1A604FF420537E
:1043A000C4F200031B8A9BB24FEA03424FF420532E
:1043B000C4F200039B8A9BB213440393009B1A68C8
:1043C0004FF42053C4F200031B8B9BB24FEA03410E
:1043D0004FF42053C4F200039B8B9BB20B449A42D0
:1043E000CBD1039A4FF61843CFF6FF7303FB02F2CB
:1043F0004AF6B803C0F2B93313444DF68362C4F2EF
:104400001B32A2FB03134FEA93339BB21A46009B65
:104410005A6004B0704700BFAFF30080AFF3008074
:1044200000B585B001900091009B03F00803002BBC
:1044300001D0FCF7FDFA019B5B6A1B68019A526A86
:104440001268126822F00F021A60019B5B6A5B68B7
:10445000019A526A127A4FF00F0101FA02F21A60C1
:10446000019B1B6A1B68019A126A1268126822F08B
:104470000F021A60019B1B6A5B68019A126A127A2A
:104480004FF00F0101FA02F21A60019B5B681B6892
:10449000002B11D0019B4FF004021A70019B5B6846
:1044A0001B6801989847019B1B78042B08D1019B3E
:1044B0004FF002021A7003E0019B4FF002021A70E3
:1044C0004FF0200383F31188FCF772FD019B9B687A
:1044D000002B0DD0019B9B680393019B4FF00002C2
:1044E0009A60039B4FF000029A620398FCF758FF12
:1044F000FCF77EFD4FF0000383F3118805B000BD8B
:1045000000B583B001900091009B03F00803002BDD
:1045100001D0FCF78DFA03B000BD00BFAFF30080FF
:1045200008B540F65423C2F200034FF6FF721A801A
:1045300040F62420C2F20000FEF7B2FE40F624232B
:10454000C2F200034FF46052C4F20002DA6140F696
:104550002423C2F200030B4A1A6240F62423C2F25B
:104560000003094A5A6240F62423C2F2000341F2D2
:104570000A029A6240F62423C2F2000341F21802B2
:10458000DA6208BD2471000830710008AFF30080C2
:1045900000B585B00190019B1B78012B56D1019A83
:1045A00040F62423C2F200039A423FD1019B1A6ACB
:1045B00044F22143C0F6000310464FF00A011A46A8
:1045C000019BFFF7ADFA03468DF80F309DF80F30D1
:1045D000002B05D046F6B060C0F60000FCF7B8FD31
:1045E000019B5A6A44F20153C0F6000310464FF093
:1045F0000A011A46019BFFF793FA03468DF80F3024
:104600009DF80F30002B05D046F6C460C0F60000C0
:10461000FCF79EFD4FF48053C4F202034FF4805226
:10462000C4F20202D26942F48042DA61019B1B6A41
:104630001B68019AD26902F10C029A60019B5B6AC5
:104640001B68019AD26902F10C029A60019B5B68B7
:104650005B8903F40063002B0CD1019B9B6A23F45C
:104660007062019B9A62019BDB6A23F47062019B7A
:10467000DA620FE0019B9B6A23F4706343F4A0624B
:10468000019B9A62019BDB6A23F4706343F4A0628E
:10469000019BDA62019BDB694FF000021A80019BEB
:1046A000DB69019A5268528942F4417292B21A80CF
:1046B000019BDB694FF007029A80019BDB69019A3D
:1046C000D269128892B242F0400292B21A8005B0CA
:1046D00000BD00BFAFF30080AFF30080AFF30080F8
:1046E00000B583B00190019B1B78022B26D1019B62
:1046F000DB694FF000021A80019BDB694FF000027A
:104700009A80019B1B6A1846FFF792FA019B5B6A2D
:104710001846FFF78DFA019A40F62423C2F20003EF
:104720009A420BD14FF48053C4F202034FF48052EB
:10473000C4F20202D26922F48042DA6103B000BD01
:1047400082B00190019B5B685B68019A5268128994
:104750004FF0010101FA02F25A6102B0704700BF46
:1047600082B00190019B5B685B68019A5268128974
:104770004FF0010101FA02F21A6102B0704700BF66
:1047800082B001900091019B1B6A1A6840F6562383
:10479000C2F20003D360019B1B6A1B68009A5A6037
:1047A000019B1B6A1B68019A926A1A60019B5B6AF3
:1047B0001A6840F65423C2F20003D360019B5B6A7F
:1047C0001B68009A5A60019B5B6A1B68019AD26A57
:1047D0001A60019B1B6A1B68019A126A12681268B0
:1047E00042F001021A60019B5B6A1B68019A526ADF
:1047F0001268126842F001021A6002B0704700BFEE
:1048000084B00390029101920093039B1B6A1B6882
:10481000009ADA60039B1B6A1B68029A5A60039B2A
:104820001B6A1B68039A926A42F080021A60039B1B
:104830005B6A1B68019ADA60039B5B6A1B68029AD9
:104840005A60039B5B6A1B68039AD26A42F080023B
:104850001A60039B1B6A1B68039A126A126812682B
:1048600042F001021A60039B5B6A1B68039A526A5A
:104870001268126842F001021A6004B0704700BF6B
:1048800084B0039002910192039B1B6A1A6840F660
:104890005623C2F20003D360039B1B6A1B68029A73
:1048A0005A60039B1B6A1B68039A926A1A60039BF7
:1048B0005B6A1B68019ADA60039B5B6A1B68029A59
:1048C0005A60039B5B6A1B68039AD26A42F08002BB
:1048D0001A60039B1B6A1B68039A126A12681268AB
:1048E00042F001021A60039B5B6A1B68039A526ADA
:1048F0001268126842F001021A6004B0704700BFEB
:1049000084B0039002910192039B1B6A1B68019A79
:10491000DA60039B1B6A1B68029A5A60039B1B6A3E
:104920001B68039A926A42F080021A60039B5B6ADA
:104930001A6840F65423C2F20003D360039B5B6AFB
:104940001B68029A5A60039B5B6A1B68039AD26ACF
:104950001A60039B1B6A1B68039A126A126812682A
:1049600042F001021A60039B5B6A1B68039A526A59
:104970001268126842F001021A6004B0704700BF6A
:1049800000B585B001900B46ADF802304FF0000342
:104990000393BDF8023003F00803002B03D0039B00
:1049A00043F080030393BDF8023003F00103DBB250
:1049B000002B03D0039B43F020030393BDF8023088
:1049C00003F00203002B03D0039B43F04003039347
:1049D000BDF8023003F00403002B03D0039B43F423
:1049E00080730393019B03F1040318460399FDF7B9
:1049F00017F805B000BD00BFAFF30080AFF3008033
:104A000000B587B00190019B5B6F0493049B9B8969
:104A1000ADF80E30049B1B88ADF81630BDF816308B
:104A200003F48073002B17D04FF0200383F3118819
:104A3000FCF7BEFA019B03F1040318464FF4007122
:104A4000FCF7EEFFFCF7D4FA4FF0000383F3118874
:104A5000049B4FF6FF621A804FF0200383F3118806
:104A6000FCF7A6FA17E0BDF8163003F00F03002B91
:104A700005D0BDF8163001981946FFF781FF049B59
:104A80009B889BB2DBB201981946FEF7C9FB049BD9
:104A90001B88ADF81630BDF8163003F02003002B4C
:104AA000E1D1FCF7A5FA4FF0000383F31188BDF8BC
:104AB0000E3003F08003002B34D0BDF8163003F025
:104AC0008003002B2ED04FF0200383F31188FCF7D6
:104AD0006FFA019B03F130031846FDF721FA0346F4
:104AE0000293029B002B13DA019B03F10403184687
:104AF0004FF00801FCF794FFBDF80E3023F0C0031F
:104B00009BB243F040039BB29AB2049B9A8103E0AC
:104B1000029B9AB2049B9A80FCF76AFA4FF000035A
:104B200083F31188BDF8163003F04003002B1ED02C
:104B30004FF0200383F31188FCF73AFA019B03F14D
:104B4000040318464FF01001FCF76AFFFCF750FA17
:104B50004FF0000383F31188BDF80E3023F0C0033B
:104B60009AB2049B9A81049B4FF6BF721A8007B0D9
:104B700000BD00BFAFF30080AFF30080AFF3008053
:104B800082B001904FF48843C4F200034FF488428E
:104B9000C4F20002928992B242F0800292B29A81EB
:104BA00002B07047AFF30080AFF30080AFF3008036
:104BB00008B5FCF73DFA40F65820C2F20000FFF7B6
:104BC0001FFFFCF765FAFBF793FF08BDAFF300800A
:104BD00008B540F65820C2F200004FF0000144F63C
:104BE0008132C0F60002FEF7E3FA40F65823C2F223
:104BF00000034FF48842C4F200025A6708BD00BFA8
:104C000008B5FFF735F908BDAFF30080AFF30080BA
:104C1000704700BFAFF30080AFF30080AFF30080B8
:104C200000B583B003468DF807309DF80730002BA0
:104C300010D140F60453C2F20003DB6A1A6840F652
:104C40000453C2F20003DB6A5B6810461946FEF7A4
:104C50003FFB0FE040F60453C2F20003DB6A1A6820
:104C600040F60453C2F20003DB6A9B681046194603
:104C7000FEF72EFB03B000BDAFF30080AFF3008062
:104C800000B585B003468DF8073040F60453C2F2F4
:104C90000003DB6A19680DF107020DF10F030846E6
:104CA0004FF00101FEF724FC9DF80F30184605B0C7
:104CB00000BD00BFAFF30080AFF30080AFF3008012
:104CC00008B54FF0FF00FFF7DBFF0346184608BDAD
:104CD00000B585B001AB40F62020C2F200001946B5
:104CE000FEF786F9019B4FF47A7202FB03F2029BF6
:104CF00013440393039B184605B000BDAFF3008037
:104D000000B585B0FFF7E4FF03460393FFF7D8FF34
:104D1000FFF7D6FF03468DF80B30FFF7D9FF0346A8
:104D200001939DF80B30FF2B07D0019A039BC3EB37
:104D3000020240F2F3139A42EAD99DF80B3018466A
:104D400005B000BDAFF30080AFF30080AFF300808B
:104D500008B54FF44063C4F201034FF480521A6166
:104D6000FFF7AEFF08BD00BFAFF30080AFF30080D8
:104D700000B585B0034600918DF807309DF80730E7
:104D80005BB2002B15DA9DF8073003F07F038DF836
:104D900007304FF077004FF00001FFF7E9FF0346BF
:104DA0008DF80E309DF80E30012B02D99DF80E3093
:104DB0006DE04FF44063C4F201034FF480521A6176
:104DC0004FF44063C4F201034FF480525A61FFF77D
:104DD00097FF0346FF2B02D04FF0FF0357E09DF8EB
:104DE00007301846FFF74CFF009B4FEA1363DBB216
:104DF0001846FFF745FF009B4FEA1343DBB2184606
:104E0000FFF73EFF009B4FEA1323DBB21846FFF784
:104E100037FF009BDBB21846FFF732FF4FF001036C
:104E20008DF80F309DF80730402B03D14FF09503DC
:104E30008DF80F309DF80730482B03D14FF08703D2
:104E40008DF80F309DF80F301846FFF719FF9DF8C9
:104E500007304C2B01D1FFF733FF4FF00A038DF8D9
:104E60000F30FFF72DFF03468DF80E309DF80E3002
:104E70005BB2002B09DA9DF80F3003F1FF338DF898
:104E80000F309DF80F30002BEBD19DF80E301846F7
:104E900005B000BDAFF30080AFF30080AFF300803A
:104EA00000B587B001900091FFF712FF034605930C
:104EB000FFF706FF03468DF81330FFF709FF03469F
:104EC00003939DF81330FF2B05D1039A059BC3EB89
:104ED0000203632BECD99DF81330FE2B02D04FF068
:104EE00000033CE04FF0FF00FFF7CAFE03461A46FE
:104EF000019B1A70019B03F1010301934FF0FF0026
:104F0000FFF7BEFE03461A46019B1A70019B03F190
:104F1000010301934FF0FF00FFF7B2FE03461A466C
:104F2000019B1A70019B03F1010301934FF0FF00F5
:104F3000FFF7A6FE03461A46019B1A70019B03F178
:104F400001030193009BA3F104030093009B002B3A
:104F5000C8D1FFF7B5FEFFF7B3FE4FF001031846C7
:104F600007B000BDAFF30080AFF30080AFF3008067
:104F700010B586B003468DF807309DF80730002B3A
:104F800002D04FF0010323E140F64003C2F20003D8
:104F90001B78DBB203F00203002B06D040F640037F
:104FA000C2F200031B78DBB212E14FF00000FFF702
:104FB00037FE4FF00A038DF8173007E0FFF780FE49
:104FC0009DF8173003F1FF338DF817309DF8173037
:104FD000002BF3D14FF000038DF815304FF0400057
:104FE0004FF00001FFF7C4FE0346012B40F0CB80D9
:104FF000FFF76EFE034604934FF048004FF4D5715F
:10500000FFF7B6FE0346012B6FD14FF000038DF87A
:10501000173010E09DF81740FFF752FE03461A467E
:1050200006A901EB040303F8102C9DF8173003F1D7
:1050300001038DF817309DF81730032BEAD99DF83E
:105040000A30012B40F098809DF80B30AA2B40F0DD
:105050009580049B039300BF039A049BC3EB020259
:1050600040F2E7339A4208D84FF0E9004FF0804110
:10507000FFF77EFE0346002BEED140F6D023C2F2AE
:1050800000031B68002B7BD04FF07A004FF000012B
:10509000FFF76EFE0346002B74D14FF000038DF82E
:1050A000173010E09DF81740FFF70AFE03461A4636
:1050B00006A901EB040303F8102C9DF8173003F147
:1050C00001038DF817309DF81730032BEAD99DF8AE
:1050D000083003F04003002B02D04FF00C0301E036
:1050E0004FF004038DF815304DE04FF0E9004FF01C
:1050F0000001FFF73DFE0346012B08D84FF00203E5
:105100008DF815304FF0E9038DF8163008E04FF0B8
:1051100001038DF815304FF041038DF8163000BFB4
:10512000FFF7D6FD0246049BC3EB020240F2E733D1
:105130009A4209D89DF8163018464FF00001FFF743
:1051400017FE0346002BEBD1FFF7C2FD0246049B7E
:10515000C3EB020240F2E7339A4208D84FF0500006
:105160004FF40071FFF704FE0346002B0BD04FF005
:1051700000038DF8153006E000BF04E000BF02E038
:1051800000BF00E000BF40F6D423C2F200039DF848
:1051900015201A70FFF7DCFD9DF81530002B11D09B
:1051A00040F64003C2F200031B78DBB223F0010398
:1051B000DAB240F64003C2F200031A704FF0010069
:1051C000FFF72EFD40F64003C2F200031B78DBB26E
:1051D000184606B010BD00BFAFF30080AFF30080EB
:1051E00082B003468DF807309DF80730002B02D0BF
:1051F0004FF0010305E040F64003C2F200031B78C4
:10520000DBB2184602B07047AFF30080AFF3008006
:1052100000B585B00291019202468DF80F208DF8FD
:1052200003309DF80F30002B03D19DF80330002B85
:1052300002D14FF0040369E040F64003C2F20003DC
:105240001B78DBB203F00103DBB2002B02D04FF07E
:1052500003035BE040F6D423C2F200031B7803F0A3
:105260000803002B03D1019B4FEA432301939DF8D0
:105270000330012B14D14FF051000199FFF778FD55
:105280000346002B36D102984FF40071FFF708FE59
:105290000346002B30D04FF000038DF803302CE094
:1052A0004FF052000199FFF763FD0346002B24D114
:1052B00002984FF40071FFF7F3FD034683F00103FA
:1052C000DBB2002B0ED1029B03F5007302939DF815
:1052D000033003F1FF338DF803309DF80330002BCA
:1052E000E6D100E000BF4FF04C004FF00001FFF7A7
:1052F0003FFD02E000BF00E000BFFFF729FD9DF881
:105300000330002B0CBF00230123DBB2184605B08D
:1053100000BD00BFAFF30080AFF30080AFF30080AB
:1053200086B0039002910192039B059307E0029BD4
:10533000DAB2059B1A70059B03F101030593019BEB
:10534000002B0CBF00230123DBB2019A02F1FF32D4
:105350000192002BEBD106B0704700BFAFF3008085
:1053600088B0039002910192039B0793029B0693DE
:105370004FF00003059300BF019B002B0CBF0023DF
:105380000123DBB2019A02F1FF320192002B17D008
:10539000079B1B781A46069B1B78C3EB02030593F9
:1053A000059B002B14BF00230123DBB2079A02F1F7
:1053B00001020792069A02F101020692002BDBD14C
:1053C000059B184608B07047AFF30080AFF300802C
:1053D00082B00190009103E0019B03F1010301936E
:1053E000019B1B78002B05D0019B1B781A46009B64
:1053F0009A42F1D1019B1B78184602B0704700BF5A
:1054000000B585B001900091019B1B6A0393039A3C
:10541000009B9A4217D0009B002B14D0019B5A7816
:10542000019B03F1240310461946009A4FF0010333
:10543000FFF7EEFE0346002B02D04FF0010304E01D
:10544000019B009A1A624FF00003184605B000BD98
:1054500082B001900091009BA3F102030093019B95
:10546000DB68A3F10202009B9A4202D84FF00003CE
:1054700007E0019B9B78009A02FB03F2019BDB692A
:105480001344184602B07047AFF30080AFF30080BA
:1054900000B587B001900091009B012B04D9019BBE
:1054A000DA68009B9A4202D84FF00103BEE0019BEC
:1054B0001B78022B54D0032B79D0012B40F0B48001
:1054C000009B0593059B4FEA5303059A13440593EC
:1054D000019B5A69059B4FEA5323134401981946CF
:1054E000FFF78EFF0346002B40F09780059B4FEAA5
:1054F000C3534FEAD353019A134493F824300493CF
:10550000059B03F101030593019B5A69059B4FEA33
:105510005323134401981946FFF772FF0346002BEB
:105520007DD1059B4FEAC3534FEAD353019A1344ED
:1055300093F824304FEA0323049A42EA03030493C6
:10554000009B03F00103DBB2002B03D0049B4FEA66
:10555000131304E0049B4FEA03534FEA135365E02F
:10556000019B5A69009B4FEA132313440198194683
:10557000FFF746FF0346002B53D1019B03F12402A2
:10558000009B4FEA43034FEAC3534FEAD3531344FC
:105590000393039B03F101031B784FEA03239AB2A1
:1055A000039B1B7842EA03039BB29BB23EE0019B44
:1055B0005A69009B4FEAD313134401981946FFF729
:1055C0001FFF0346002B2ED1019B03F12402009BF9
:1055D0004FEA83034FEAC3534FEAD3531344039371
:1055E000039B03F103031B784FEA0362039B03F160
:1055F00002031B784FEA034342EA0302039B03F1D1
:1056000001031B784FEA032342EA0302039B1B7842
:1056100042EA030323F0704308E000BF04E000BF48
:1056200002E000BF00E000BF4FF0FF33184607B0B4
:1056300000BD00BFAFF30080AFF30080AFF3008088
:1056400000B585B001900B46ADF80230019BBDF866
:105650000220DA80019B9B680393039B012B05D0FA
:10566000019B1B68DA68039B9A4202D84FF0020341
:1056700079E0039B002B08D1019B1B681B78032B4F
:1056800003D1019B1B689B690393039B002B18D1DB
:10569000019B039ADA60019B1B681B89BDF80220FD
:1056A0009A4202D34FF002035DE0019B1B689A69A6
:1056B000BDF802304FEA13139BB21A44019B1A61E2
:1056C00042E0019B1B689B784FEA0313ADF80A3058
:1056D00022E0019B1B6818460399FFF7D9FE034699
:1056E0000393039BB3F1FF3F02D14FF001033AE074
:1056F000039B012B05D9019B1B68DA68039B9A4227
:1057000002D84FF002032EE0BDF80220BDF80A30A7
:10571000C3EB0203ADF80230BDF80220BDF80A3039
:105720009A42D6D2019B039ADA60019B1B68184605
:105730000399FFF78DFE0246BDF802304FEA1313BE
:105740009BB21A44019B1A61019B1B6803F124025E
:10575000BDF8023003F00F034FEA43131A44019BD4
:105760005A614FF00003184605B000BDAFF300804A
:1057700000B585B001900091019BDB8803F1010326
:10578000ADF80E30BDF80E30002B03D0019B1B6925
:10579000002B02D14FF004036AE0BDF80E3003F095
:1057A0000F039BB2002B50D1019B1B6903F1010237
:1057B000019B1A61019BDB68002B09D1019B1B68CF
:1057C0001B89BDF80E209A423ED34FF004034FE0F0
:1057D000BDF80E304FEA13139BB21A46019B1B68AB
:1057E0009B7803F1FF3302EA0303002B2DD1019BC9
:1057F0001A68019BDB6810461946FFF749FE03460D
:105800000293029B012B02D84FF0020330E0029B6F
:10581000B3F1FF3F02D14FF0010329E0019B1B6868
:10582000DA68029B9A4202D84FF0040320E0019B01
:10583000029ADA60019B1B6818460299FFF708FE7E
:105840000246019B1A6100E000BF019BBDF80E20DB
:10585000DA80019B1B6803F12402BDF80E3003F0CF
:105860000F034FEA43131A44019B5A614FF00003A0
:10587000184605B000BD00BFAFF30080AFF3008055
:1058800000B587B0019001984FF00001FFF7D8FEF6
:1058900003468DF817309DF81730002B02D09DF885
:1058A000173043E0019B1A68019B1B69104619469B
:1058B000FFF7A6FD03468DF817309DF81730002B33
:1058C0002FD1019B5B690493049B1B788DF80F30EB
:1058D0009DF80F30002B04D14FF004038DF81730E2
:1058E00022E0049B03F10B031B7803F00803002B59
:1058F0000AD1019B9B69049819464FF00B02FFF7F0
:105900002FFD0346002B0ED001984FF00001FFF74A
:105910002FFF03468DF817309DF81730002BC1D0AC
:1059200002E000BF00E000BF9DF81730184607B046
:1059300000BD00BFAFF30080AFF30080AFF3008085
:1059400000B589B001900091009B1B68039303E0B0
:10595000039B03F101030393039B1B782F2BF7D0C9
:10596000039B1B785C2BF3D0019B9B6902930298ED
:105970004FF020014FF00B02FFF7D2FC4FF0000375
:105980008DF81F304FF000030493049B05934FF0F4
:1059900008030693039A059B13441B788DF81E3069
:1059A000059B03F1010305939DF81E30202B7AD946
:1059B0009DF81E302F2B76D09DF81E305C2B72D0B8
:1059C0009DF81E302E2B03D0049A069B9A4217D3C3
:1059D000069B082B03D19DF81E302E2B02D04FF0D2
:1059E0000603A7E04FF0080304934FF00B03069360
:1059F0009DF81F304FEA83038DF81F3000BFC9E7C1
:105A00009DF81E305BB2002B10DA9DF81F3043F07A
:105A100003038DF81F309DF81E30A3F1800247F27A
:105A2000C013C0F600039B5C8DF81E309DF81E303D
:105A300046F6E060C0F600001946FFF7C9FC0346D1
:105A4000002B02D04FF0060374E09DF81E30402B6F
:105A50000AD99DF81E305A2B06D89DF81F3043F006
:105A600002038DF81F3013E09DF81E30602B0FD914
:105A70009DF81E307A2B0BD89DF81F3043F00103A0
:105A80008DF81F309DF81E30A3F120038DF81E30D5
:105A9000029A049B13449DF81E201A70049B03F184
:105AA0000103049376E7039A059B1A44009B1A604E
:105AB0009DF81E30202B02D84FF0040301E04FF078
:105AC00000038DF81E30049B002B02D14FF006031B
:105AD00030E0029B1B78E52B03D1029B4FF00502BF
