:020000040800F2
:105000000004002011510008E1510008E15100089E
:10501000E1510008E1510008E1510008E1510008A8
:10502000E1510008E1510008E15100080152000877
:10503000E1510008E1510008E1510008D152000897
:10504000E1510008E1510008E1510008C163000886
:10505000E1510008E1510008E1510008E151000868
:10506000E1510008E1510008E1510008415F0008EA
:10507000715F0008A15F0008D15F000801600008AF
:105080003160000861600008E1510008E15100084A
:10509000E1510008E1510008E1510008E151000828
:1050A000E151000841650008E15100087165000800
:1050B000E1510008E1510008D1650008E151000804
:1050C000E1510008E1510008E1510008E1510008F8
:1050D000E1510008E1510008A1660008E151000813
:0C50E000E1510008E1510008E151000816
:1050F000704700BFAFF30080AFF30080AFF30080D4
:10510000FEE700BFAFF30080AFF30080AFF3008095
:1051100072B6244A82F30988022383F31488BFF30A
:105120006F8F214B21498B4205D24FF0553043F808
:10513000040B8B42FBD31E4B934205D24FF05531EB
:1051400043F8041B9342FBD301F04AFB194B1A4866
:10515000834206D2194A52F8041B43F8041B8342C7
:10516000F9D3174B174A934204D2002143F8041B8A
:105170009342FBD3144D154CFFF7BAFFAC4204D257
:1051800054F8043B9847AC42FAD3114D114C01F04E
:105190005FFBAC4204D254F8043B9847AC42FAD3CC
:1051A000FFF7AEFF000800200000002000040020F0
:1051B000000400200008002000080020186A0008F1
:1051C00000080020100C0020EC500008EC500008F3
:1051D000EC500008EC500008AFF30080AFF3008003
:1051E000FEE700BFAFF30080AFF30080AFF30080B5
:1051F00000F09EFA00DF00BFAFF30080AFF3008045
:10520000EFF30983203383F30988002383F31188A4
:10521000704700BFAFF30080AFF30080AFF30080B2
:1052200008B54FF440724FF46D43CEF20003C0F264
:10523000FA52002199600720DA60102100F090F8FE
:105240000A20202100F08CF80B20802100F088F843
:1052500008BD00BFAFF30080AFF30080AFF3008064
:10526000202383F311884FF46D43CEF200035B6873
:1052700013F4006316D0EFF30983203B83F309880E
:1052800010494FF080708A69D861D07F68B1096891
:1052900092688968914294BF0022012272B10A4A41
:1052A0009A6101E083F31188704709689268896800
:1052B000914234BF00220122002AF0D1034A9A61B0
:1052C000F2E700BF18090020F1510008F45100086E
:1052D00008B5202383F3118800F0A2F8002383F39C
:1052E0001188FFF7BDFF08BDAFF30080AFF300806A
:1052F0002DE9F04FC1F80CD0D0F80CD0BDE8F08FFC
:10530000002383F311882846A04700F0D9FA70479C
:1053100000F0030330B4DB00FF259D4000F01F02C6
:1053200011FA03F34FF0010C0CFA02FC84084FF45D
:105330006142CEF20002C03452F82410400921EA42
:10534000050141EA030300F1600142F8243042F80C
:1053500021C042F820C030BC704700BFAFF30080CE
:1053600000F0030310B4DB00FF249C4011FA03F3A8
:1053700080084FF46D42CEF20002063052F820C091
:105380002CEA040141EA030342F8203010BC7047C4
:10539000024B034A9B699A61FEE700BF180900208F
:1053A00000690008AFF30080AFF30080AFF3008026
:1053B00000B583B0FFF734FF00F0E2F800F060F8CA
:1053C00000F026FC00F05CFC40F600004021C2F238
:1053D000000000F0BDF940F61811C2F200010122F0
:1053E00088610277002383F3118862B646F6101CA9
:1053F0008969C0F6000CC1F818C040F648000021C9
:1054000045F291330091C0F60003C021C2F20000C2
:1054100000F006FA03B000BDAFF30080AFF30080E8
:1054200070B5134B9B69DA7F0AB1013ADA771A6AD1
:10543000104C01321A62E36821680133A142E36033
:1054400015D08D68013D8D608DB926460B68CA6800
:105450005E602360CD602B4683F311880869904716
:10546000202383F3118821688B68002BEED070BD58
:105470001809002008090020AFF30080AFF3008076
:1054800040F60813C2F200034FF0FF329A60002288
:105490005B601B60DA607047AFF30080AFF30080A1
:1054A000DFF834C030B4DCF800400361A568C260A6
:1054B000A94204D92468491BA5688D42FAD36368C0
:1054C00064450460436018606060816002D0A36836
:1054D000591AA16030BC704708090020AFF3008062
:1054E0000368074A934203D0996882688A189A60D1
:1054F0004268002113600368C1605A60704700BFB2
:1055000008090020AFF30080AFF30080AFF3008004
:10551000202383F31188037F0D2B11D8DFE803F0DC
:1055200024101007100B101010101010100B436AED
:105530009A6801329A60436802681A600268536090
:105540004FF0FF3242620A4B0022816802771B68EB
:105550009A689142FBD95A680360426010605860B3
:10556000002383F311887047002383F31188FAE73F
:1055700018090020AFF30080AFF30080AFF3008084
:1055800040F61813C2F2000300225B601B609A60B1
:105590005B611B61704700BFAFF30080AFF3008019
:1055A0000022064B816802771B689A688A42FBD208
:1055B0005A68036042601060586070471809002004
:1055C00008B540F61813C2F200039969142208774F
:1055D000CA7718684FF0010C026880F81CC053604D
:1055E0001A609861FFF784FE08BD00BFAFF300802A
:1055F00070B5B1F1FF3F86B0054612D00B4C01AE3D
:10560000A3690B4A3046FFF74BFF2846FFF7D8FF48
:10561000049B13B13046FFF763FFA369586A06B0D5
:1056200070BDFFF7CDFF014CF7E700BF1809002060
:1056300011550008AFF30080AFF30080AFF3008096
:10564000154A10B593698468D3F808C0416264456F
:105650000BD800230377126893689C42FBD95368E8
:10566000026043601860506010BD00211977114638
:105670000968D1F808E0F445FAD9D1F804C01960F6
:10568000C3F804C04B600121CCF800300177906171
:105690001946FFF72DFEE7E718090020AFF3008059
:1056A0000F4A10B510689169D0F800E01346CEF8A3
:1056B0000420D1F808C0C2F800E09061142201244F
:1056C000CA77002204770A771B689A689445FBD949
:1056D0005A680B604A6011605960FFF709FE10BDFF
:1056E00018090020AFF30080AFF30080AFF3008013
:1056F0000E4A10B510689169D0F800E01346CEF854
:105700000420D1F808C00124C2F800E09061002212
:1057100004770A771B689A686245FBD85A680B6061
:105720004A6011605960FFF7E3FD10BD18090020C1
:1057300008B5054B9B69DB7F13B1FFF7D9FF08BDA7
:10574000FFF7AEFFFBE700BF18090020AFF30080B2
:105750004FF0020C80F81CC04FF0140C002380F8AE
:105760001FC040F618124FF0010CC2F2000243773E
:1057700080F81EC0D2F814C030B400F12C0400F13F
:10578000280502618160C0F814C001645061C363E0
:10579000836303628361CCF8100085620463C46292
:1057A00030BC7047AFF30080AFF30080AFF30080F0
:1057B000243930B44418C4604350029B4FF0000CAD
:1057C000636045F20133C0F60003236202230377CE
:1057D0001423C37740F618150123C2F2000580F8A0
:1057E0001DC083776B6900F12C0100F1280405616D
:1057F0008260436102646861C0F83CC0C0F838C090
:10580000C0F820C0C0F818C0186184620163C1628A
:1058100030BC7047AFF30080AFF30080AFF300807F
:1058200010B59C4682B0202383F311886346DDF8CF
:1058300010C0CDF800C0FFF7BBFF00210446FFF702
:10584000FFFE002383F31188204602B010BD00BF85
:1058500008B50146202383F311880620FFF7C8FE10
:10586000002383F3118808BDAFF30080AFF30080FD
:105870000F4A38B594690346254655F8280F6362E8
:10588000A84206D00368A362FFF78AFEA06AA84276
:10589000F8D1637F13F0030F01BF226963691A61B6
:1058A000226908BF53610E20FFF78AFE38BD00BF92
:1058B00018090020AFF30080AFF30080AFF3008041
:1058C00008B5202383F31188FFF7D2FF08BD00BF7E
:1058D0000023406000608360704700BFAFF300802A
:1058E00008B5836B027F41EA0303082A83630BD068
:1058F000092A00D008BD426A13409A42FAD1FFF744
:105900004FFE00234362F5E7426A1342F2D0FFF7ED
:1059100047FE00234362EDE7AFF30080AFF3008062
:1059200070B50468054684420E4609D0E368606895
:105930003343A168E360FFF7D3FF2468AC42F5D19D
:1059400070BD00BFAFF30080AFF30080AFF3008005
:1059500008B503464FF0FF3069B1074AD3F804C0D9
:1059600092690D2013605362C2F804C05A60CCF8EB
:105970000020FFF73DFE08BD18090020AFF30080AE
:10598000C361009B8A184FF0000C40600060C0F8B3
:1059900008C041618161C16002610362704700BF5C
:1059A000426908B503468069824218BF986817D0DB
:1059B0000130986002F8011B19695A618A4201D3CB
:1059C000DA685A611868984208D002681A60536011
:1059D000FFF7E6FD00234362184608BD0020FCE700
:1059E00098680028E4D06FF00300F6E7AFF300807A
:1059F00070B5202304460D4683F31188C36903B1B3
:105A00009847A668204629463EB9FFF7A1FF00281F
:105A1000F7DA334683F3118870BDA369013EA660AF
:105A200013F8010B2269A361934224BFE368A361C9
:105A3000002383F31188EFE7AFF30080AFF300801A
:105A40002DE9F0471D4604460E469246D0F81C80CC
:105A5000202383F311880027B8F1000F01D02046DE
:105A6000C047D4F8089020462946B9F1000F09D163
:105A7000FFF76EFF0028F4D04B4683F311883846B9
:105A8000BDE8F087A36909F1FF39C4F8089013F85D
:105A9000012BF2552269A361934224BFE368A361FD
:105AA000002383F311880137BA45E8D0202383F31C
:105AB0001188D1E7AFF30080AFF30080AFF300802F
:105AC000C361009B01EB020C406000608260416199
:105AD0008161C160C0F810C003627047AFF30080FD
:105AE000F8B504460D461646202383F31188A768AF
:105AF000204631463FB9FFF72BFF0028F7DA3B4637
:105B000083F31188F8BD6369013FA76003F8015B67
:105B100022696361934224BFE3686361E3690BB167
:105B200020469847002383F311881846EAE700BF10
:105B30004169826910B59142034618BF816815D04A
:105B40000131996012F8014B19699A618A4201D3B7
:105B5000DA689A611868984206D002681A60536041
:105B6000FFF71EFD00234362204610BD81686FF0E1
:105B700002000029F9D1E3E7AFF30080AFF3008022
:105B80002DE9F0471E4604460D461746D0F81CA0E6
:105B9000202383F311884FF00008D4F8089009F10E
:105BA000FF33B9F1000F22D0A3602A78636903F8AC
:105BB000012B22696361934224BFE3686361BAF1F8
:105BC000000F01D02046D047002383F3118817F13E
:105BD000FF3708F1010813D00135202383F3118822
:105BE000D4F8089009F1FF33B9F1000FDCD1204659
:105BF0003146FFF7ADFE0028CFD04B4683F3118826
:105C00004046BDE8F08700BFAFF30080AFF30080EF
:105C100042F20001084840F6381240F63413C2F24E
:105C20000001C2F2000220F00700C2F2000321F0DE
:105C30000701106019607047170C0020AFF3008057
:105C4000202383F31188094A09491368096807303A
:105C500020F00700C91A884206D8181810601846A4
:105C6000002383F3118870470020F9E738090020EA
:105C700034090020AFF30080AFF30080AFF3008061
:105C800008B545F6414140F64013C2F20003002238
:105C9000C0F6000103F1100019609A60DA60FFF7A6
:105CA00017FE08BDAFF30080AFF30080AFF30080B4
:105CB00008B500F00DFA00F01BF946F6D010C0F65A
:105CC000000000F0FDFA00F013F800F031F800F0E9
:105CD00087F800F0D5F800F023F800F039F800F06C
:105CE00087FD08BDAFF30080AFF30080AFF3008005
:105CF00008B500F0A5FA08BDAFF30080AFF300804F
:105D000008B500220346012100F1180019705A60FD
:105D10009A60DA601A615A61FFF7DAFD08BD00BFC8
:105D2000704700BFAFF30080AFF30080AFF3008097
:105D300008B500F085FC08BDAFF30080AFF300802C
:105D40000123037000234360704700BFAFF300805E
:105D500008B500F08DFB08BDAFF30080AFF3008005
:105D600008B50C30FFF76CFE08BD00BFAFF3008034
:105D700008B50C304FF0FF33FFF762FE08BD00BFDF
:105D800008B53030FFF7FCFE08BD00BFAFF3008060
:105D900008B530304FF0FF33FFF7F2FE08BD00BF0B
:105DA00008B50C30FFF724FE08BD00BFAFF300803C
:105DB00008B50C304FF0FF31FFF71AFE08BD00BFE9
:105DC00008B53030FFF78CFE08BD00BFAFF3008090
:105DD00008B530304FF0FF32FFF782FE08BD00BF3C
:105DE00008B500F0E5FC08BDAFF30080AFF300801C
:105DF00030B50B4646F630118446C0F60001044625
:105E00004CF8041BC4F804C04FF0010C83B004F13B
:105E10005401154684F808C0102200F10C000094CB
:105E2000FFF7AEFD04F1640104F1300010222B46AF
:105E30000094FFF745FE03B030BD00BFAFF3008014
:105E400038B5436904460D463BB104F10C002946C0
:105E5000FFF7A6FD00280BDB38BD04300421FFF757
:105E60005FFD04F10C002946FFF79AFD0028F3DAE4
:105E7000201D8021FFF754FDEEE700BFAFF3008047
:105E800008B500F01DFB08BDAFF30080AFF3008044
:105E900008B500220346012100F10C0019705A6078
:105EA0009A60FFF715FD08BDAFF30080AFF30080E7
:105EB0004FF48053CEF200035B688360704700BFED
:105EC0004FF48053CEF2000308495A68836809688A
:105ED000D31AC2685B1A9342836088BFC36003D839
:105EE0000269934238BF0361704700BF6009002018
:105EF00030B545F6B16287B0C0F6000240F66014D6
:105F0000002301ADC2F20004019245F6C162C0F661
:105F1000000228462360039304934FF0FF3302925C
:105F20000593FFF7C5FF029B28469847039B236014
:105F300007B030BDAFF30080AFF30080AFF3008057
:105F40000022C4F202020648116808B5036801F095
:105F50000F0151600BB140689847FFF781F908BD08
:105F600064090020AFF30080AFF30080AFF300803E
:105F70000022C4F202021168074808B5C1F30311F8
:105F800083684FEA011CC2F804C00BB1C06898478F
:105F9000FFF766F908BD00BF64090020AFF3008079
:105FA0000022C4F202021168074808B5C1F30321B8
:105FB00003694FEA012CC2F804C00BB1406998474D
:105FC000FFF74EF908BD00BF64090020AFF3008061
:105FD0000022C4F202021168074808B5C1F3033178
:105FE00083694FEA013CC2F804C00BB1C06998470D
:105FF000FFF736F908BD00BF64090020AFF3008049
:106000000022C4F202021168074808B5C1F3034137
:10601000036A4FEA014CC2F804C00BB1406A9847CA
:10602000FFF71EF908BD00BF64090020AFF3008030
:106030000022C4F202021168074808B5C1F30351F7
:10604000836A4FEA015CC2F804C00BB1C06A98478A
:10605000FFF706F908BD00BF64090020AFF3008018
:106060000022C4F202021168074808B5C1F30361B7
:10607000036B4FEA016CC2F804C00BB1406B984748
:10608000FFF7EEF808BD00BF64090020AFF3008001
:106090000C49002310B4DFF830C00C4C0B601A46DA
:1060A0001946E0580C3301604CF802100832542BAA
:1060B000F7D10023C4F202034FF0FF325A6010BC44
:1060C000704700BF9C090020640900205069000847
:1060D0004FF48053C4F2020300214FF0FF30D3F895
:1060E00010C010B54EF2100218611961D3F80CE01F
:1060F000CEF20002D86045F6BF50D9604EF6F05C93
:10610000506007209160CEF2000C1060DCF80C208B
:106110004FF4805042F08072CCF80C20CEF2000098
:10612000D0F800C04FF4E0424CF0010CC0F800C0C1
:10613000D869C4F2000240F08050D861D8694FF4A9
:10614000805440F00060D8611068C4F2020440F44A
:10615000807010601A6A02F44072B2F5407F1EBF70
:106160004FF480321A621962236A13F4004F09D186
:10617000236A43F44073236200F05AF9236A43F41C
:1061800000432362FFF784FF10BD00BFAFF3008020
:106190004FF48053C4F202031A68194642F0010218
:1061A0001A600A684FF4805312F0020FC4F202031F
:1061B000F7D01A68194602F0F9021A6000225A60F4
:1061C0004A684FF4805312F00C0FC4F20203F7D167
:1061D0001A68194642F480321A600A684FF48053F4
:1061E00012F4003FC4F20203F7D05A68194642F491
:1061F000A0225A601A6842F080721A600A684FF44E
:10620000805312F0007FC4F20203F7D04FF4C8416C
:10621000C0F245014FF400525960C4F2020210214D
:10622000116059681A4641F002015960536803F041
:106230000C03082BFAD17047AFF30080AFF3008056
:1062400010B51D4C2046FFF75BFD42F28A534FF418
:1062500080522363C4F20202906918494FF410532C
:10626000C4F2010340F40070E162A3629061002275
:106270005A6001229A60092219469A608A684FF48E
:10628000105312F0080FC4F20103F7D105229A60EF
:1062900019468B684FF4105213F00403C4F2010244
:1062A000F7D14FF480519360C4F202018B6923F45B
:1062B00000738B6110BD00BFA00900205069000869
:1062C0004FF48053C4F202039A6942F07D029A614E
:1062D00003684FF40062C4F20102D36081684FF496
:1062E000406351604168C4F201031160C2684FF419
:1062F0008051DA604269C4F201015A60D0F810C0DE
:106300004FF4A052C3F800C08369C4F20102CB600D
:10631000D0F820C04FF4C053C1F804C0D0F81CC05E
:10632000C4F20103C1F800C0416AD160C16A516082
:10633000816A1160026BDA60826B5A60426B1A608C
:10634000704700BFAFF30080AFF30080AFF3008071
:10635000032A70B408BF016102D0042A08BF41615A
:10636000DFF858C000231CF8026008259C461A4636
:106370001C4600E04900120124011B0111F0800FAE
:1063800008BF42F00F024FEA0C1C18BF334311F450
:10639000004F0CBF44F00F044CEA060C15F1FF351A
:1063A000E8D141680C4044EA0C0CC0F804C0016814
:1063B0000A4042EA0303036070BC7047B0690008FA
:1063C00010B54FF42051C4F200018A884FF42053D5
:1063D00012F0080FC4F20003F7D019889C889A883D
:1063E000A4B222F0070212040C40120C14F0010FA8
:1063F0009A8011D114F0020F09D114F0040F03D0C8
:106400000848022103689847FEF72AFF10BD054897
:10641000012103689847F0E7024800210368984784
:10642000E8E700BFD4090020AFF30080AFF300809D
:106430004FF42051C4F200018A884FF4205312F027
:10644000200FC4F20003F7D09A8892B242F01002F3
:106450009A8000221A814FF223429A819A8822F070
:1064600010021204120C9A80704700BFAFF3008034
:106470004FF42051C4F2000108B58B880A4623F07E
:1064800008031B041B0C8B80938813F0080FFBD0B0
:106490004FF42051C4F200018A884FF4205312F0C7
:1064A000200FC4F20003F7D000221A80034B032010
:1064B0001A60F021FEF72CFF08BD00BFD4090020B0
:1064C0002DE9F04140F6D81340F6DC15C2F2000584
:1064D000C2F200034FF0FF32154E1A80284640F6F4
:1064E0000C24FFF7D5FCC2F200044FF4405306F130
:1064F0000C02C4F2010341F20A0841F218072046D7
:10650000EB612E626A62C5F82880EF62FFF7C0FC7B
:106510004FF4605306F11802C4F200032436E3611D
:1065200022626662C4F82880E762BDE8F08100BF9D
:106530005C690008AFF30080AFF30080AFF3008028
:1065400040F63C20C2F2000008B542684FF43053D8
:106550006FF00101C4F20103196193689847FEF7D7
:106560007FFE08BDAFF30080AFF30080AFF3008083
:106570004FF43053C4F2010310B51C69DA681440BB
:10658000E4B2E24314F0020F1A6119D114F0040FBF
:1065900011D114F0080F09D114F0100F03D00B48DB
:1065A00043689B6A9847FEF75BFE10BD0748436847
:1065B0001B6A9847F0E7054843689B699847E8E7F6
:1065C000024843681B699847E0E700BF3C0A002087
:1065D00038B5194D2B691C69DA681440E4B2E243FE
:1065E00014F0020F1A6121D114F0040F19D114F024
:1065F000080F11D114F0100F09D114F0010F03D0BE
:106600006B680D489B689847FEF72AFE38BD6B689B
:1066100009489B6A9847F0E76B6807481B6A9847E8
:10662000E8E76B6804489B699847E0E76B68284691
:106630001B699847D8E700BF500A0020AFF30080DD
:1066400038B540F63C25C2F20005284640F65024F5
:10665000FFF776FBC2F200044FF43053C4F201039B
:1066600020462B61FFF76CFB4FF40063C4F200037C
:10667000236138BDAFF30080AFF30080AFF300803B
:106680004FF48843C4F200039A8992B242F0800228
:106690009A817047AFF30080AFF30080AFF30080C2
:1066A0003D4870B5456FAE892C88B6B2A4B214F4DB
:1066B000807F49D1202383F3118814F0200F22D04A
:1066C00014F00F0F15D014F0080118BF802114F03A
:1066D000010F18BF41F0200114F0020F18BF41F064
:1066E000400114F0040F18BF41F480712B48FFF7EC
:1066F00017F9A9882848C9B2FFF7A2FB2C88A4B2D1
:1067000014F0200FDCD1002383F3118816F0800FE2
:1067100002D014F0800F26D114F0400F11D02023A6
:1067200083F311881D481021FFF7FAF8002383F343
:1067300011884FF63F7306EA0303AB814FF6BF7330
:106740002B80FEF78DFD70BD202383F311884FF45D
:1067500000710430FFF7E4F8002383F311884FF64B
:10676000FF632B80A6E7202383F311880C48FFF7F3
:10677000DFF90028A4BF80B2A88003DB002383F3E5
:106780001188C9E705480821FFF7CAF826F0C003B9
:1067900043F04003AB81F1E7640A0020680A00205F
:1067A000940A0020AFF30080AFF30080AFF30080C5
:1067B00010B540F66424C2F2000446F28162C0F6CD
:1067C000000220460021FFF713FB4FF48843C4F278
:1067D0000003636710BD00BFAFF30080AFF300801C
:1067E00008B5FFF7D5FC08BDAFF30080AFF300801C
:1067F000704700BFAFF30080AFF30080AFF30080BD
:106800000E4B0F4A9B694FF4006070B5C4F2010053
:106810009A6140210622FFF79BFD4FF4006440255A
:10682000C4F201042E4666614FF4FA70FFF710F8C7
:1068300025614FF4FA70FFF70BF8F4E71809002010
:10684000106A0008AFF30080AFF30080AFF3008060
:1068500010B584B0FFF72CFAFEF7AAFD4FF0000C3C
:106860004FF4987140220A4B0A48CDF800C0FEF759
:10687000D7FF00F015F803AC00232046ADF80C302C
:10688000ADF80E3000F02CF80120FEF7E1FFF3E741
:1068900001680008E00A0020AFF30080AFF3008039
:1068A00010B54FF40064C4F2010420461021052203
:1068B000FFF74EFD202105222046FFF749FD4FF44A
:1068C0008053C4F20203D9694FF4E84241F0005109
:1068D000D961C4F200024FF00113136010BD00BF74
:1068E000018842884FF4E843C4F2000399605A617A
:1068F000704700BFAFF30080AFF30080AFF30080BC
:1069000069646C65000000000000000000000000E9
:106910006D61696E00168311040448080C10141888
:10692000001C1D1E1F2000000000000000000000D1
:10693000915D0008715D0008D15D0008B15D00083F
:10694000C15D0008A15D0008815D0008615D00086F
:10695000080002400400024000000B001C0002403E
:106960000400024004010C00300002400400024018
:1069700008020D0044000240040002400C030E0017
:10698000580002400400024010040F006C00024056
:106990000400024014051000800002400400024080
:1069A00018061100000000000000000000000000B8
:1069B0000402040808000307080808080808080873
:1069C0000B0F0000000000000000000000000000AD
:1069D000FFFFFFFF4444444444444444FFFFFFFF9F
:1069E0004444444444444444FFFFFFFF444444447B
:1069F00044444444FFFFFFFF44444444444444446B
:106A0000FFFFFFFF8888888888888888000000004A
:086A1000626C696E6B65720097
:04000005080051118D
:00000001FF
