:020000040800F2
:100000000004002011010008E1010008E1010008DE
:10001000E1010008E1010008E1010008E101000838
:10002000E1010008E1010008E101000821020008E7
:10003000E1010008E1010008E101000801020008F7
:10004000E101000821330008E101000851350008F2
:10005000E1010008E1010008D13000080131000889
:10006000313100086131000891310008D12A0008BF
:10007000112B0008612B0008B12B0008012C00088F
:10008000512C0008A12C0008E1010008E101000842
:10009000E1010008E1010008E1010008C1310008A8
:1000A000E1010008413D0008E1010008713D000840
:1000B000E1010008E1010008113E0008E10100082B
:1000C000E1010008E1010008E1010008E101000888
:1000D000E1010008E101000841440008E1010008D5
:0C00E00061320008513300088133000831
:1000F000704700BFAFF30080AFF30080AFF3008024
:10010000FEE700BFAFF30080AFF30080AFF30080E5
:1001100072B6264C84F309884FF0020484F31488E5
:10012000BFF36F8F224C234D04E04FF05533236013
:1001300004F10404AC42F8D31F4C1C4D04E04FF012
:100140005533236004F10404AC42F8D304F0A0F961
:100150001A4D1B4C05E02B68236004F1040405F1E3
:100160000405184B9C42F6D3174C184D04E04FF091
:100170000003236004F10404AC42F8D3FFF7B8FF96
:10018000134C03E02368984704F10404114B9C428C
:10019000F8D306F08DFE104C03E02368984704F175
:1001A00004040E4B9C42F8D3FFF7AAFF000800207E
:1001B000000000200004002000040020F07300086C
:1001C000000800205C080020600800209813002030
:1001D000EC000008EC000008EC000008EC0000084F
:1001E000FEE700BFAFF30080AFF30080AFF3008005
:1001F00072B6FEE7AFF30080AFF30080AFF300808C
:1002000008B54FF0200383F3118800F0C1F94FF0D7
:10021000000383F3118800F03BF808BDAFF30080C2
:1002200010B483B0EFF309840194019B03F1200320
:100230000193019B83F309884FF0000383F3118836
:1002400003B010BC704700BFAFF30080AFF3008075
:1002500008B50D4B4FF000029A600B4B0B4ADA6069
:100260004FF007004FF0100100F012F94FF00A00B4
:100270004FF0200100F00CF94FF00B004FF080011F
:1002800000F006F908BD00BF00ED00E00003FA052C
:1002900010B483B04FF0200383F31188204B5B68C8
:1002A00003F40063002B33D0EFF309840194019B26
:1002B000A3F120030193019B83F30988019B4FF075
:1002C0008072DA61174B9B69DB7F002B0BD0154BDB
:1002D0001B689A68134B9B699B689A4294BF0023E2
:1002E0000123DBB20AE00F4B1B689A680D4B9B6938
:1002F0009B689A4234BF00230123DBB2002B03D05A
:10030000019B094A9A6107E0019B084A9A6103E050
:100310004FF0000383F3118803B010BC704700BF97
:1003200000ED00E0780900203103000834030008E4
:1003300000F0AEFB00DF00BFAFF30080AFF3008042
:1003400003460A462DE9F04FC2F80CD0D3F80CD082
:10035000BDE8F08FAFF30080AFF30080AFF3008013
:100360004FF0000383F311882846A04700F068FC93
:10037000704700BFAFF30080AFF30080AFF30080A1
:1003800010B485B001900091019B03F003034FEA84
:10039000C30303931E4B019A4FEA92021C49019832
:1003A0004FEA900000F1C00051F8200003994FF08F
:1003B000FF0404FA01F16FEA010108400399009C6F
:1003C00004FA01F140EA010102F1C00243F82210EF
:1003D0000F4B019A4FEA5212019901F01F014FF0A1
:1003E000010000FA01F102F1600243F82210084B0B
:1003F000019A4FEA5212019901F01F014FF00100DA
:1004000000FA01F143F8221005B010BC704700BF9C
:1004100000E100E0AFF30080AFF30080AFF30080B5
:1004200010B485B00190019B03F003034FEAC303AE
:100430000393154B019A4FEA5212019901F01F01E3
:100440004FF0010000FA01F102F1200243F82210FE
:100450000D4B019A4FEA92020B4901984FEA900026
:1004600000F1C00051F8200003994FF0FF0404FA96
:1004700001F16FEA010100EA010102F1C00243F853
:10048000221005B010BC704700E100E0AFF300801F
:1004900010B485B001900091019B03F003034FEA73
:1004A000C3030393104B019A4FEA92020E4901983D
:1004B0004FEA900000F1060051F8200003994FF038
:1004C000FF0404FA01F16FEA010108400399009C5E
:1004D00004FA01F140EA010102F1060243F8221098
:1004E00005B010BC704700BF00ED00E0AFF3008026
:1004F00082B00190024B9B69024A9A61FEE700BFFD
:1005000078090020F06E0008AFF30080AFF30080A0
:1005100000B583B0FFF79CFE00F03AF900F088F8D0
:1005200001F036F801F08CF811484FF0400100F06E
:10053000CFFA02460F4B9A610E4B9B694FF00102B6
:100540001A774FF0000383F3118862B6094B9B6959
:10055000094A9A61094B4FF00002009208484FF097
:10056000C0014FF0010200F033FB03B000BD00BF3B
:100570002009002078090020306F0008F1040008ED
:1005800060080020AFF30080AFF30080AFF300807D
:1005900000B583B0244B9B69DB7F002B06D0224B38
:1005A0009B69DA7F02F1FF32D2B2DA771E4B9B6988
:1005B0001A6A02F101021A621C4BDB6803F10102A4
:1005C0001A4BDA60194B1B681A46184B9A4229D00D
:1005D000164B1B689A6802F1FF329A601BE0019B80
:1005E000DB680093019B4FF00002DA60019B1B68FF
:1005F0000E4A5A60019B1A680C4B1A604FF00003B8
:1006000083F31188019B1A69009B104698474FF0AD
:10061000200383F31188054B1B680193019B9B68A2
:10062000002BDCD003B000BD780900206809002051
:10063000074A074B5A60064B5A68054B1A60044B31
:100640004FF0FF329A60024B4FF00002DA607047C1
:1006500068090020AFF30080AFF30080AFF30080A3
:1006600086B00390029101920093039B002B04D06B
:10067000019B002B01D0029B002B039B009A1A6167
:10068000039B019ADA60184B1B68059307E0059BF2
:100690009B68029AD31A0293059B1B680593059BDE
:1006A0009A68029B9A42F2D3039B059A1A60039BB5
:1006B0001B685A68039B5A60039B5B68059A039901
:1006C0005160059A52681A60039B029A9A60059AD3
:1006D000054B9A4205D0059B9A68029BD21A059B4E
:1006E0009A6006B0704700BF68090020AFF3008031
:1006F00082B00190019B1A680D4B9A4208D0019B71
:100700001B68019A12689168019A92688A189A6027
:10071000019B5B68019A12681A60019B1B68019A31
:1007200052685A60019B4FF00002DA6002B07047D5
:1007300068090020AFF30080AFF30080AFF30080C2
:1007400084B00190019B1B680393039B1A68019B73
:100750001A60019B1B68019A5A60039B184604B0FB
:10076000704700BFAFF30080AFF30080AFF30080AD
:1007700082B00190019B5B68019A12681A60019B2C
:100780001B68019A52685A60019B184602B0704774
:10079000094A094B5A60084B5A68074B1A60064BC6
:1007A0004FF000029A60044A034B5A61024B5A69A7
:1007B000014B1A61704700BF78090020AFF3008039
:1007C00084B00190019B1B7F002B03D0019B1B7FFA
:1007D0000E2B00BF019B4FF000021A770E4B0393C4
:1007E000039B1B680393039B9A68019B9B689A4237
:1007F000F6D2019B039A1A60039B5A68019B5A60C8
:10080000019B5B68039A01995160039A52681A60D0
:10081000019B184604B0704778090020AFF30080B0
:1008200000B585B003468DF807300F4B9B690393E5
:10083000039B9DF807201A77039B4FF01402DA7789
:100840000948FFF77DFF0246074B9A61064B9B69FB
:100850004FF001021A77044B9B6918460399FFF782
:100860006FFD05B000BD00BF78090020AFF3008028
:1008700000B585B00190019B03934FF0200383F3F3
:100880001188039B1B7F0D2B2CD801A252F823F05B
:10089000C9080008E5080008E5080008D3080008B2
:1008A000E5080008DF080008E5080008E50800087A
:1008B000E5080008E5080008E5080008E508000864
:1008C000E5080008DF0800084FF0000383F31188F3
:1008D00013E0039B5B6A9A6802F101029A60039835
:1008E000FFF746FF039B4FF0FF325A620398FFF772
:1008F00067FF4FF0000383F3118805B000BD00BF10
:1009000000B589B0034600918DF80730009BB3F124
:10091000FF3F14D00F4B9B6903AA104600990E4A63
:10092000FFF79EFE9DF807301846FFF779FF069BFC
:10093000002B09D003AB1846FFF7DAFE04E09DF860
:1009400007301846FFF76CFF024B9B695B6A18463D
:1009500009B000BD7809002071080008AFF30080DD
:1009600000B585B001900091019B009A5A62019BED
:100970009A680E4B9B699B689A4203D80198FFF7CF
:100980001FFF10E0094B9B691846FFF719FF039002
:10099000064B019A9A61019B4FF001021A77019868
:1009A0000399FFF7CDFC05B000BD00BF780900201A
:1009B00008B5054B1B689A68034B9B699B689A4274
:1009C00001D900F02DF808BD78090020AFF30080B0
:1009D00000B583B00E4B9B6901930D48FFF7B0FE45
:1009E00002460B4B9A610A4B9B694FF001021A7742
:1009F000019B4FF01402DA770198FFF7E1FE044BF8
:100A00009B6918460199FFF79BFC03B000BD00BF2E
:100A100078090020AFF30080AFF30080AFF30080CF
:100A200000B583B0194B9B6900931848FFF788FE07
:100A30000246164B9A61154B9B694FF001021A77DB
:100A4000009B4FF000021A77104B0193019B1B682B
:100A50000193019B9A68009B9B689A42F6D8009B81
:100A6000019A1A60019B5A68009B5A60009B5B6860
:100A7000019A00995160019A52681A60034B9B6970
:100A800018460099FFF75CFC03B000BD7809002010
:100A900008B5054B9B69DB7F002B02D1FFF798FF60
:100AA00001E0FFF7BDFF08BD78090020AFF300802B
:100AB00084B00190019B1B680393039B1A68019B00
:100AC0001A60039B184604B0704700BFAFF3008064
:100AD00082B001900091019B009A9A60019B4FF0B7
:100AE00002021A77019B4FF000025A77019B4FF0E8
:100AF0001402DA77019B009A1A64019B4FF00002FE
:100B0000DA63019B4FF000029A63019B4FF00002F1
:100B10001A62019B4FF001029A77019B4FF000028D
:100B20009A61114A019B1A610F4B5A69019B5A61E4
:100B3000019B5B690C4A019951610B4A52691A6128
:100B4000019B03F128031A46019B9A62019B03F162
:100B50002C031A46019B1A63019B1A6B019BDA62F4
:100B6000019B184602B0704778090020AFF300805F
:100B700000B587B00390029101920093039B059307
:100B8000039B002B07D0029BAF2B04D9019B7F2B2B
:100B900001D8009B002B039A029BA3F12403D218D7
:100BA000059BDA60059BDB68009A1A60059BDB6891
:100BB000089A5A60059BDB68044A1A6205980199F5
:100BC000FFF786FF0346184607B000BD6103000823
:100BD00000B589B005900491039202934FF0200371
:100BE00083F311880A9B009305980499039A029B4A
:100BF000FFF7BEFF079007984FF00001FFF7B0FE28
:100C00004FF0000383F31188079B184609B000BD1D
:100C100000B583B001904FF0200383F311884FF0AB
:100C200006000199FFF76CFE4FF0000383F3118873
:100C300003B000BDAFF30080AFF30080AFF30080DE
:100C400000B583B001904FF0200383F31188019821
:100C500000F006F803B000BDAFF30080AFF30080F2
:100C600000B585B00190174B9B690393039B019AD4
:100C70005A6209E0039B03F128031846FFF718FFA7
:100C800003461846FFF79CFD039B9A6A039B03F1FA
:100C900028039A42EED1039B5B7F03F00303002BF2
:100CA00009D1039B5B69039A12691A61039B1B6953
:100CB000039A52695A614FF00E00FFF7B1FD05B07B
:100CC00000BD00BF78090020AFF30080AFF30080C3
:100CD00082B001900091009A019B1A60009B5A68B3
:100CE000019B5A60019B5B68009A01995160009AD0
:100CF00052681A6002B07047AFF30080AFF3008013
:100D000084B00190019B1B680393039B1A68019BAD
:100D10001A60019B1B68019A5A60039B184604B035
:100D2000704700BFAFF30080AFF30080AFF30080E7
:100D300082B001900091019B002B01D0009B002B01
:100D4000019B1A46019B5A60019B5A68019B1A60DD
:100D5000019B009A9A6002B0704700BFAFF3008019
:100D600000B583B001900091019B9B68002B04DBD0
:100D7000019B1A68019B9A4208D0019B9B68002B3B
:100D800005DA019B1A68019B9A4200E000BF019BB3
:100D90009B6803F1FF32019B9A60019B9B68002BCB
:100DA0001DDA009B002B08D1019B9B6803F1010217
:100DB000019B9A604FF0FF3313E00B4B9B69019A44
:100DC0005A62094B9A69019B10461946FFF780FF4A
:100DD0004FF003000099FFF793FD034601E04FF049
:100DE0000003184603B000BD78090020AFF300806F
:100DF00000B585B00190019B9B68002B04DB019B33
:100E00001A68019B9A4208D0019B9B68002B05DA67
:100E1000019B1A68019B9A4200E000BF019B9B68FE
:100E200003F10102019B9A60019B9B68002B0BDC84
:100E3000019B1846FFF764FF0390039B4FF00002ED
:100E40005A620398FFF7BCFC05B000BDAFF3008009
:100E500082B00190019B1A46019B5A60019B5A681F
:100E6000019B1A60019B4FF000029A6002B070472C
:100E700000B585B001900091019B1B68039310E0C1
:100E8000039BDA68009B1A43039BDA60039B5A6852
:100E9000039B9B681046194600F00AF8039B1B68E9
:100EA0000393019B039A9A42EAD105B000BD00BFAB
:100EB00000B583B001900091019B9A6B009B1A438F
:100EC000019B9A63019B1B7F082B07D1019B9A6BA7
:100ED000019B5B6A02EA0303002B0CD1019B1B7F81
:100EE000092B0FD1019B9A6B019B5B6A1A40019BF6
:100EF0005B6A9A4206D10198FFF762FC03464FF005
:100F000000025A6203B000BDAFF30080AFF300806F
:100F100000B585B0039002910192039B002B04D091
:100F2000029B002B01D0019B002B039B029ADA60ED
:100F3000039BDA68039B9A60039B9A68039B1A6081
:100F4000019B4FEA8303029AD218039B5A60039BCA
:100F500003F11C0318460199FFF7EAFE039B03F116
:100F6000100318464FF00001FFF7E2FE05B000BD88
:100F700000B583B001900091019B5B6A002B02DCFD
:100F80004FF0FF331FE0019B5B6A03F1FF32019BCF
:100F90005A62019B9B68009A1A6003F10402019B4C
:100FA0009A60019B9A68019B5B689A4203D3019BFC
:100FB0001A68019B9A60019B03F110031846FFF722
:100FC00017FF4FF00003184603B000BDAFF30080D9
:100FD00000B587B00390029101924FF0200383F394
:100FE000118803980299019A00F00AF805904FF0D1
:100FF000000383F31188059B184607B000BD00BFAE
:1010000000B587B0039002910192039B002B01D0A1
:10101000029B002B039B03F1100318460199FFF775
:101020009FFE0590059B002B1AD1039BDB68196876
:10103000029A116003F10402039BDA60039BDA68F1
:10104000039B5B689A4203D3039B1A68039BDA6095
:10105000039B03F11C031846FFF7CAFEFFF7A8FC29
:10106000059B184607B000BDAFF30080AFF30080CA
:1010700082B001900091009A019B1A60009B5A680F
:10108000019B5A60019B5B68009A01995160009A2C
:1010900052681A6002B07047AFF30080AFF300806F
:1010A00084B00190019B1B680393039B1A68019B0A
:1010B0001A60019B1B68019A5A60039B184604B092
:1010C000704700BFAFF30080AFF30080AFF3008044
:1010D00000B583B001900091009B002B02D14FF02E
:1010E000FF3310E0094B9B69019A5A62074B9A69DA
:1010F000019B10461946FFF7BBFF4FF00D0000990A
:10110000FFF7FEFB0346184603B000BD7809002038
:1011100084B00390029101920093039B1A46039BB3
:101120005A60039B5A68039B1A60039B4FF00002AE
:101130009A60039B029A5A61039B5A69039B9A61C6
:10114000039B9A69039BDA60029A019BD218039B66
:101150001A61039B009ADA61039B049A1A6204B035
:10116000704700BFAFF30080AFF30080AFF30080A3
:1011700000B583B001900B468DF80330019B5A698E
:10118000019B9B699A4206D1019B9B68002B02D070
:101190004FF0010301E04FF00003DBB2002B02D05F
:1011A0006FF003032BE0019B9B6803F10102019B9D
:1011B0009A60019B5B699DF803201A7003F101029C
:1011C000019B5A61019B5A69019B1B699A4203D397
:1011D000019BDA68019B5A61019B1A68019B9A4244
:1011E0000BD0019B1846FFF75BFF03461846FFF73D
:1011F000E7FA03464FF000025A624FF00003184628
:1012000003B000BDAFF30080AFF30080AFF3008008
:1012100000B585B0019000914FF0200383F3118851
:10122000019BDB69002B12D0019BDB690198984779
:101230000EE001980099FFF74BFF0390039B002BF2
:1012400006DA4FF0000383F31188039B23E000BF0D
:10125000019B9B68002BECD0019B9B6803F1FF3244
:10126000019B9A60019B9B691A788DF80B2003F112
:101270000102019B9A61019B9A69019B1B699A4239
:1012800003D3019BDA68019B9A614FF0000383F35B
:1012900011889DF80B30184605B000BDAFF30080F3
:1012A00000B587B00390029101920093039BDB6924
:1012B00004934FF0000305934FF0200383F311884C
:1012C000049B002B10D0049B039898470DE00398D3
:1012D0000099FFF7FDFE0346002B06D04FF00003F8
:1012E00083F31188059B37E000BF039B9B68002BAD
:1012F000EDD0039B9B6803F1FF32039B9A60039B35
:101300009B691978029A1170029A02F10102029205
:1013100003F10102039B9A61039B9A69039B1B697A
:101320009A4203D3039BDA68039B9A614FF0000350
:1013300083F31188059B03F101030593019B03F1DE
:10134000FF330193019B002B01D1059B04E04FF07B
:10135000200383F31188B3E7184607B000BD00BF30
:1013600084B00390029101920093039B1A46039B61
:101370005A60039B5A68039B1A60039B019A9A6008
:10138000039B029A5A61039B5A69039B9A61039BD0
:101390009A69039BDA60029A019BD218039B1A6137
:1013A000039B009ADA61039B049A1A6204B07047A7
:1013B00000B587B003900B4601928DF80B304FF0CB
:1013C000200383F311880DE003980199FFF780FE55
:1013D0000590059B002B05DA4FF0000383F311887D
:1013E000059B2AE0039B9B68002BEDD0039B9B6829
:1013F00003F1FF32039B9A60039B5B699DF80B200E
:101400001A7003F10102039B5A61039B5A69039B03
:101410001B699A4203D3039BDA68039B5A61039BBF
:10142000DB69002B03D0039BDB69039898474FF0DF
:10143000000383F311884FF00003184607B000BD86
:1014400000B585B00190019B5A69019B9B699A4246
:1014500006D1019B9B68002B02D04FF0010301E0F5
:101460004FF00003DBB2002B02D06FF002032BE041
:10147000019B9B6803F10102019B9A60019B9B69A0
:101480001A788DF80F2003F10102019B9A61019BEC
:101490009A69019B1B699A4203D3019BDA68019BFD
:1014A0009A61019B1A68019B9A420BD0019B1846D6
:1014B000FFF7F6FD03461846FFF782F903464FF0A3
:1014C00000025A629DF80F30184605B000BD00BFFB
:1014D00000B587B00390029101920093039BDB69F2
:1014E00004934FF0000305934FF0200383F311881A
:1014F0000CE003980099FFF7EBFD0346002B05D0A5
:101500004FF0000383F31188059B3DE0039B9B682C
:10151000002BEED0039B9B6803F1FF32039B9A6084
:10152000039B5B69029A12781A7003F10102039B14
:101530005A61029B03F101030293039B5A69039BC7
:101540001B699A4203D3039BDA68039B5A61049B8D
:10155000002B02D0049B039898474FF0000383F3BD
:101560001188059B03F101030593019B03F1FF33F0
:101570000193019B002B01D1059B05E04FF0200357
:1015800083F3118800BFC1E7184607B000BD00BF54
:10159000074B03F1070323F007031A46054B1A60B4
:1015A000054B23F007031A46044B1A60704700BF2F
:1015B00098130020940900200020002098090020A2
:1015C00000B585B001904FF0200383F31188019896
:1015D00000F00EF803904FF0000383F31188039B93
:1015E000184605B000BD00BFAFF30080AFF3008028
:1015F00084B00190019B03F1070323F007030193DB
:101600000C4B1B681A460C4B1B68D31A1A46019BDD
:101610009A4202D24FF0000309E0074B1B68039384
:10162000054B1A68019BD218034B1A60039B18469E
:1016300004B070479809002094090020AFF300809F
:1016400008B5074B074A1A60054B4FF000029A6035
:10165000034B4FF00002DA600348FFF7F9FB08BDC7
:10166000A0090020C1150008B0090020AFF30080D8
:1016700008B501F03DFC01F0EBF90A4801F0A0FECD
:1016800000F016F800F044F800F0B2FE01F028F87F
:1016900001F08EF800F0BCFA00F03AFF02F000FF13
:1016A00008BD00BF40710008AFF30080AFF30080B9
:1016B00008B501F0C5FC08BDAFF30080AFF30080B2
:1016C00000B583B00190019B4FF001021A70019B9D
:1016D0004FF000025A60019B4FF000029A60019B9C
:1016E0004FF00002DA60019B4FF000021A61019B8B
:1016F0004FF000025A61019B03F118031846FFF7EF
:10170000A7FB03B000BD00BFAFF30080AFF30080C4
:1017100008B501F04DFE08BDAFF30080AFF30080C7
:1017200082B00190019B4FF001021A70019B4FF0B3
:1017300000025A6002B07047AFF30080AFF3008040
:1017400000B585B00390029101920093039B184667
:10175000029900F0DDFB0346002B15D04FF001038A
:1017600021E0039B1846019900F01AFC0346002B68
:1017700002D04FF0010316E0019B03F500730193C3
:10178000009B03F1FF330093009B002BE9D1039BE7
:10179000184600F05DFC0346002B02D04FF0010319
:1017A00001E04FF00003184605B000BDAFF3008024
:1017B00000B585B00390029101920093039B1846F7
:1017C000029900F06DFC0346002B15D04FF0010389
:1017D00021E0039B1846019900F0AAFC0346002B68
:1017E00002D04FF0010316E0019B03F50073019353
:1017F000009B03F1FF330093009B002BE9D1039B77
:10180000184600F0EDFC0346002B02D04FF0010318
:1018100001E04FF00003184605B000BDAFF30080B3
:1018200084B00346029101928DF80F300FE09DF8CD
:101830000F304FEA4302029B1B7882EA03030C4AF3
:10184000D35C8DF80F30029B03F101030293019BDF
:10185000002B0CBF00230123DBB2019A02F1FF32FF
:101860000192002BE3D19DF80F30184604B0704769
:10187000706F0008AFF30080AFF30080AFF300801B
:1018800000B585B001904FF00003039311E0019B78
:10189000DB6A1A6802AB10464FF001011A4601F0EC
:1018A00067F89DF80830FF2B19D0039B03F1010363
:1018B0000393039B0F2BEADD019BDB6A1A6802ABE3
:1018C00010464FF001011A4601F052F89DF8083019
:1018D000FF2B06D04FF00100FFF79AF9ECE700BFAD
:1018E00000E000BF05B000BDAFF30080AFF30080A3
:1018F00000B587B003900B4601928DF80B3003982A
:10190000FFF7BEFF9DF80B3043F04003DBB28DF8CC
:101910001030019B4FEA1363DBB28DF81130019B4D
:101920004FEA1343DBB28DF81230019B4FEA1323C9
:10193000DBB28DF81330019BDBB28DF8143004ABB1
:101940004FF0000019464FF00502FFF769FF03460C
:101950004FEA4303DBB243F00103DBB2DBB28DF8A5
:101960001530039BDB6A1A6804AB10464FF0060182
:101970001A4600F0CDFF07B000BD00BFAFF30080F6
:1019800000B585B001904FF00003039314E0019B74
:10199000DB6A1A6802AB10464FF001011A4600F0EC
:1019A000E7FF9DF80830FF2B02D09DF8083008E0D3
:1019B000039B03F101030393039B082BE7DD4FF027
:1019C000FF03184605B000BDAFF30080AFF3008001
:1019D00000B585B0019000910198FFF7D1FF034653
:1019E0008DF80F30019BDB6A1B6818464FF004012D
:1019F000009A00F0BDFF9DF80F30184605B000BDFD
:101A000000B587B003900B4601928DF80B30039B15
:101A1000DB6A1B68184600F033FF9DF80B30039813
:101A20001946019AFFF764FF0398FFF7A9FF0346E1
:101A30008DF81730039BDB6A1B68184600F030FFF7
:101A40009DF81730184607B000BD00BFAFF3008007
:101A500000B587B00390019200930B468DF80B30D0
:101A6000039BDB6A1B68184600F00AFF9DF80B30E9
:101A700003981946019AFFF73BFF03980099FFF777
:101A8000A7FF03468DF81730039BDB6A1B681846D7
:101A900000F006FF9DF81730184607B000BD00BFE4
:101AA00000B58DB003900B4601928DF80B30039B6F
:101AB000DB6A1B68184600F0E3FE9DF80B300398C4
:101AC00019464FF00002FFF713FF0398FFF758FF86
:101AD0000346002B08D0039BDB6A1B68184600F006
:101AE000DFFE4FF0010363E04FF000030B9358E07B
:101AF000039BDB6A1A6805AB10464FF001011A46DA
:101B000000F036FF9DF81430FE2B46D1039BDB6AB4
:101B10001A6805AB10464FF010011A4600F028FF76
:101B200005AB0A93019B03F10C03099320E00A9B88
:101B30001B784FEA03620A9B03F101031B784FEA0B
:101B400003431A430A9B03F102031B784FEA032362
:101B50001A430A9B03F103031B781A43099B1A607B
:101B60000A9B03F104030A93099BA3F1040309935D
:101B7000099A019B9A42DAD2039BDB6A1B681846DA
:101B80004FF0020100F09CFE039BDB6A1B681846C5
:101B900000F086FE4FF000030AE00B9B03F1010307
:101BA0000B930B9A42F20F739A42A1D94FF00103A3
:101BB00018460DB000BD00BFAFF30080AFF300804A
:101BC00000B585B00190019BDB6A1B68184600F0E8
:101BD00057FE019BDB6A1A6803AB10464FF0010108
:101BE0001A4600F0C5FE9DF80C30FF2B07D1019B73
:101BF000DB6A1B68184600F053FE05B000BD4FF0CD
:101C00000100FFF705F8E4E7AFF30080AFF30080D1
:101C1000704700BFAFF30080AFF30080AFF30080E8
:101C200082B00190019B084A1A60019B4FF00102AB
:101C30001A71019B4FF00002DA62019B4FF0000223
:101C400083F8302002B07047506F0008AFF3008077
:101C500082B001900091019B002B01D0009B002BD2
:101C6000019B1B79012B03D0019B1B79022B00BF29
:101C7000019B009ADA62019B4FF002021A7102B0D6
:101C8000704700BFAFF30080AFF30080AFF3008078
:101C900000B587B00190019B1B79022B03D0019BFB
:101CA0001B79052B00BF019B4FF003021A71019BAA
:101CB000DB6A1A68019BDB6A5B681046194600F014
:101CC00097FD019BDB6A1B6818464FF0100100F07E
:101CD000F7FD4FF00003059301984FF000014FF01E
:101CE0000002FFF78DFE0346012B0BD103AB0198D9
:101CF0004FF008014FF4D572FFF7AAFE0346052BFB
:101D00000DD143E0059B03F101030593059B092BCE
:101D100000F29E804FF00A00FEF77AFFDCE74FF0FA
:101D20000003059301984FF037014FF00002FFF7D1
:101D300067FE0346012B18D103AB01984FF0290130
:101D4000524AFFF785FE0346002B0ED103AB0198E4
:101D50004FF03A014FF00002FFF77AFE9DF80C3089
:101D600003F04003002B0CD110E0059B03F10103AD
:101D70000593059B632B6DD84FF00A00FEF748FFD3
:101D8000D0E7019B4FF0010283F830204FF00003B1
:101D9000059301984FF001014FF00002FFF730FE6C
:101DA00003468DF813309DF81330002B14D1019B9E
:101DB000DB6A1A68019BDB6A9B681046194600F0D3
:101DC00017FD01984FF010014FF40072FFF718FE55
:101DD0000346002B40D10FE09DF81330012B3DD17D
:101DE000059B03F101030593059B632B38D84FF046
:101DF0000A00FEF70DFFCCE7019B03F118030198E1
:101E00004FF009011A46FFF74BFE0346002B29D17C
:101E1000019B03F11803184600F0A2FA0246019B49
:101E20009A62019B9B6A002B1ED0019B03F1080361
:101E300001984FF00A011A46FFF732FE0346002BC5
:101E400014D1019B4FF005021A714FF000031AE004
:101E500000BF0CE000BF0AE000BF08E000BF06E0E2
:101E600000BF04E000BF02E000BF00E000BF019B34
:101E7000DB6A1B68184600F0E3FC019B4FF002028E
:101E80001A714FF00103184607B000BDAA010040C7
:101E900000B583B001904FF0200383F31188019BBC
:101EA0001B79022B03D0019B1B79052B00BF019BE3
:101EB0001B79022B06D14FF0000383F311884FF0FA
:101EC000000320E0019B4FF004021A714FF0000361
:101ED00083F31188019BDB6A1A68019BDB6A9B68AC
:101EE0001046194600F084FC0198FFF769FE019B3B
:101EF000DB6A1B68184600F0A3FC019B4FF002024E
:101F00001A714FF00003184603B000BDAFF3008014
:101F100000B583B001900091019B4FF006021A7149
:101F2000019BDB6A1A68019BDB6A9B6810461946B5
:101F300000F05EFC019BDB6A1B68184600F0A0FC09
:101F4000019B93F83030002B06D001984FF012011E
:101F5000009AFFF7CDFC08E0009B4FEA432301986D
:101F60004FF012011A46FFF7C3FC0198FFF708FD76
:101F70000346002B0CD0019BDB6A1B68184600F05F
:101F80005FFC019B4FF005021A714FF0010301E065
:101F90004FF00003184603B000BD00BFAFF3008050
:101FA00000B585B001900091019B002B01D0009BF2
:101FB000002B019B1B79062B02D04FF001033FE061
:101FC0004FF00003039324E0019BDB6A1B68184673
:101FD0004FF00101009A00F0CBFC009B1B78FE2B18
:101FE00013D1019BDB6A1B6818464FF40071009AFD
:101FF00000F0BEFC019BDB6A1B6818464FF0020133
:1020000000F05EFC4FF000031AE0039B03F10103B4
:102010000393039A42F20F739A42D5DD019BDB6A68
:102020001B68184600F03CFC019BDB6A1B681846E5
:1020300000F006FC019B4FF005021A714FF00103FE
:10204000184605B000BD00BFAFF30080AFF30080BD
:1020500000B583B00190019B1B79062B02D04FF095
:10206000010317E0019BDB6A1B6818464FF007016C
:102070000A4A00F04DFC0198FFF782FC019BDB6AE5
:102080001B68184600F00CFC019B4FF005021A710A
:102090004FF00003184603B000BD00BF9070000869
:1020A00000B583B001900091019B4FF007021A71B7
:1020B000019BDB6A1A68019BDB6A9B681046194624
:1020C00000F096FB019BDB6A1B68184600F0D8FB0A
:1020D000019B93F83030002B06D001984FF0190186
:1020E000009AFFF705FC08E0009B4FEA43230198A4
:1020F0004FF019011A46FFF7FBFB0198FFF740FC70
:102100000346002B0CD0019BDB6A1B68184600F0CD
:1021100097FB019B4FF005021A714FF0010301E09C
:102120004FF00003184603B000BD00BFAFF30080BE
:1021300000B585B001900091019B002B01D0009B60
:10214000002B019B1B79072B02D04FF0010341E0CC
:10215000019BDB6A1B6818464FF002011F4A00F022
:10216000D7FB019BDB6A1B6818464FF40071009A8D
:1021700000F0CEFB019BDB6A1B6818464FF00201A2
:1021800000F09EFB019BDB6A1A6803AB10464FF020
:1021900001011A4600F0ECFB9DF80C3003F01F0320
:1021A000052B05D10198FFF76BFB4FF0000311E001
:1021B000019BDB6A1B68184600F072FB019BDB6A1F
:1021C0001B68184600F03CFB019B4FF005021A719A
:1021D0004FF00103184605B000BD00BF8070000835
:1021E00000B583B00190019B1B79072B02D04FF003
:1021F000010314E0019BDB6A1B6818464FF00201E3
:10220000084A00F085FB019BDB6A1B68184600F05A
:1022100047FB019B4FF005021A714FF0000318466F
:1022200003B000BD70700008AFF30080AFF3008012
:1022300000B583B00190019B1B79052B02D04FF0B4
:10224000010316E0019B4FF008021A71019BDB6A43
:102250001A68019BDB6A9B681046194600F0C8FAB1
:102260000198FFF7ADFC019B4FF005021A714FF08A
:102270000003184603B000BDAFF30080AFF3008049
:1022800082B001900091019B002B01D0009B002B9C
:10229000019B1B79052B02D04FF0010309E0019B44
:1022A0009A6A009B5A60009B4FF400721A604FF0CC
:1022B0000003184602B07047AFF30080AFF3008010
:1022C00088B0039002910192029A019B9A4203D333
:1022D000029A019BD31A1F2B019B4FEA53130793BA
:1022E000019B03F01F030693029B4FEA53130593D0
:1022F000029B03F01F0303F101034FF0010202FAF6
:1023000003F303F1FF330493079A059B9A4218D213
:10231000079B4FEA8303039AD3181A68069B22FA95
:1023200003F2059B4FEA83030399CB181968049BBA
:102330001940069BC3F1200301FA03F342EA0303A9
:102340000AE0079B4FEA8303039AD3181A68049B99
:102350001A40069B22FA03F3184608B0704700BFE4
:1023600000B587B00190019B03F10C031B684FEA95
:102370009373002B02D0012B26D032E001984FF04E
:1023800049014FF03E02FFF79BFF059001984FF087
:1023900031014FF02F02FFF793FF049001984FF0A7
:1023A00053014FF05002FFF78BFF0390059B03F1A1
:1023B0000102049B03F1020302FA03F2039BA3F15F
:1023C000090302FA03F30EE001984FF045014FF0C4
:1023D0003002FFF775FF034603F101034FEA832341
:1023E00001E04FF00003184607B000BDAFF30080D6
:1023F00008B501F01DFD08BDAFF30080AFF300800C
:1024000082B00190019B4FF001021A70019B4FF0C6
:1024100000025A6002B07047AFF30080AFF3008053
:1024200000B583B001900091019B002B01D0009B6F
:10243000002B4FF0200383F31188019B1B78012BA5
:1024400003D0019B1B78022B00BF019B009A5A60AE
:10245000009B9A88019B1A81019801F001FD019B64
:102460004FF002021A704FF0000383F3118803B09B
:1024700000BD00BFAFF30080AFF30080AFF300807A
:1024800000B583B001904FF0200383F31188019BC6
:102490001B78012B03D0019B1B78022B00BF0198F6
:1024A00001F016FE019B4FF001021A704FF000037D
:1024B00083F3118803B000BDAFF30080AFF3008059
:1024C00000B583B0019013460A468DF80320ADF89D
:1024D0000030019B002B02D09DF80330032B4FF0FE
:1024E000200383F311889DF80320BDF80030019884
:1024F00011461A4601F034FE4FF0000383F31188B1
:1025000003B000BDAFF30080AFF30080AFF30080F5
:1025100008B501F08DF808BDAFF30080AFF300807F
:1025200000B583B001900091019B002B01D0009B6E
:10253000002B4FF0200383F311880198009901F0DC
:10254000A7F84FF0000383F3118803B000BD00BF6C
:1025500000B583B0019000914FF0200383F3118800
:102560000198009901F0DCF84FF0000383F3118823
:1025700003B000BDAFF30080AFF30080AFF3008085
:1025800000B585B0039002910192039B03F13003E3
:1025900018460299019A4FF0FF33FEF799FF034660
:1025A000184605B000BD00BFAFF30080AFF3008058
:1025B00000B585B0039002910192039B03F10C03D7
:1025C00018460299019A4FF0FF33FEF769FE034661
:1025D000184605B000BD00BFAFF30080AFF3008028
:1025E00000B583B001900B468DF80330019B03F1D9
:1025F00030029DF80330104619464FF0FF32FEF7C7
:10260000D7FE0346184603B000BD00BFAFF30080FD
:1026100000B583B00190019B03F10C0318464FF005
:10262000FF31FEF7F5FD0346184603B000BD00BFBD
:1026300000B585B003900B4601928DF80B30039BDB
:1026400003F130029DF80B3010461946019AFEF74F
:10265000AFFE0346184605B000BD00BFAFF30080D3
:1026600000B583B001900091019B03F10C03184663
:102670000099FEF7CDFD0346184603B000BD00BF2C
:1026800000B585B00390029101920093039B03F182
:10269000300318460299019A009BFEF719FF034682
:1026A000184605B000BD00BFAFF30080AFF3008057
:1026B00000B585B00390029101920093039B03F152
:1026C0000C0318460299019A009BFEF7E9FD0346A8
:1026D000184605B000BD00BFAFF30080AFF3008027
:1026E00008B501F0BDFE08BDAFF30080AFF3008078
:1026F00000B587B0059004910392059B154A1A60B6
:10270000059B03F104031A46059B5A60059B4FF095
:1027100001021A72059B03F10C02059B03F154039D
:1027200005990091104619464FF01002049BFEF7E0
:10273000EFFC059B03F13002059B03F1640305994F
:102740000091104619464FF01002039BFEF708FE59
:1027500007B000BDA0700008AFF30080AFF30080A9
:1027600000B583B001900B468DF80330019B5B6987
:10277000002B07D1019B03F1040318464FF004011D
:10278000FEF776FB019B03F10C029DF80330104627
:102790001946FEF7EDFC0346002B07DA019B03F117
:1027A000040318464FF08001FEF762FB03B000BD42
:1027B00008B501F065F808BDAFF30080AFF3008005
:1027C00000B583B00190019B4FF001021A70019B8C
:1027D0004FF000025A60019B4FF000029A60019B8B
:1027E00003F10C031846FEF733FB03B000BD00BF36
:1027F00000B583B001900091019B002B01D0009B9C
:10280000002B4FF0200383F31188019B1B78012BD1
:1028100003D0019B1B78022B00BF019B009A5A60DA
:10282000019801F06DF8019B4FF002021A704FF011
:10283000000383F3118803B000BD00BFAFF3008035
:1028400000B583B001904FF0200383F31188019B02
:102850001B78012B03D0019B1B78022B00BF019832
:1028600001F046F9019801F0FBF8019B4FF00102DD
:102870001A704FF0000383F3118803B000BD00BF4E
:1028800000B583B001904FF0200383F311880198C5
:1028900001F01EF94FF0000383F3118803B000BD6F
:1028A00000B583B001904FF0200383F311880198A5
:1028B00001F01EF94FF0000383F3118803B000BD4F
:1028C00000B583B001900091019B002B01D0009BCB
:1028D000002B4FF0200383F31188019B4FF003027C
:1028E0001A700198009901F013F9074B9A69019B3E
:1028F0009A604FF00200FDF793FF4FF0000383F35F
:10290000118803B000BD00BF78090020AFF300803C
:1029100000B585B0039002910192039B002B04D077
:10292000029B002B01D0019B002B4FF0200383F36F
:102930001188039B4FF003021A7003980299019AC1
:1029400001F026F9064B9A69039B9A604FF002004A
:10295000FDF766FF4FF0000383F3118805B000BD5B
:1029600078090020AFF30080AFF30080AFF3008060
:1029700000B585B0039002910192039B002B04D017
:10298000029B002B01D0019B002B4FF0200383F30F
:102990001188039B4FF003021A7003980299019A61
:1029A00001F036F9064B9A69039B9A604FF00200DA
:1029B000FDF736FF4FF0000383F3118805B000BD2B
:1029C00078090020AFF30080AFF30080AFF3008000
:1029D00082B00190024B5A68019B9A6002B0704726
:1029E000001000E0AFF30080AFF30080AFF3008091
:1029F00084B00190114B5B680393019B9B68039A21
:102A0000D21A0F4B1B68D21A019B9A60019B9A68DD
:102A1000019BDB689A4204D9019B9A68019BDA60AA
:102A200009E0019B9A68019B1B699A4203D2019BB2
:102A30009A68019B1A6104B0704700BF001000E063
:102A4000C0090020AFF30080AFF30080AFF3008037
:102A500000B587B00A4B4FF000021A6001AB184670
:102A600000F016F8019B01AA10469847029B01AAA4
:102A700010469847039A024B1A6007B000BD00BF8A
:102A8000C0090020AFF30080AFF30080AFF30080F7
:102A900082B00190019B094A1A60019B084A5A6062
:102AA000019B4FF000029A60019B4FF00002DA6038
:102AB000019B4FF0FF321A6102B07047D129000824
:102AC000F1290008AFF30080AFF30080AFF300807E
:102AD00000B583B00B4B1B6803F00F030193094B48
:102AE000019A5A60084B1B68002B06D0064B1B68E6
:102AF000054A5268104601999847FDF7C9FB03B093
:102B000000BD00BF00000240C8090020AFF30080F4
:102B100000B583B00D4B1B684FEA131303F00F038E
:102B200001930A4B019A4FEA02125A60084B9B68C4
:102B3000002B06D0064B9B68054AD26810460199C7
:102B40009847FDF7A5FB03B000BD00BF00000240A1
:102B5000C8090020AFF30080AFF30080AFF300801E
:102B600000B583B00D4B1B684FEA132303F00F032E
:102B700001930A4B019A4FEA02225A60084B1B69E3
:102B8000002B06D0064B1B69054A52691046019975
:102B90009847FDF77DFB03B000BD00BF0000024079
:102BA000C8090020AFF30080AFF30080AFF30080CE
:102BB00000B583B00D4B1B684FEA133303F00F03CE
:102BC00001930A4B019A4FEA02325A60084B9B6903
:102BD000002B06D0064B9B69054AD2691046019925
:102BE0009847FDF755FB03B000BD00BF0000024051
:102BF000C8090020AFF30080AFF30080AFF300807E
:102C000000B583B00D4B1B684FEA134303F00F036D
:102C100001930A4B019A4FEA02425A60084B1B6A21
:102C2000002B06D0064B1B6A054A526A10460199D2
:102C30009847FDF72DFB03B000BD00BF0000024028
:102C4000C8090020AFF30080AFF30080AFF300802D
:102C500000B583B00D4B1B684FEA135303F00F030D
:102C600001930A4B019A4FEA02525A60084B9B6A41
:102C7000002B06D0064B9B6A054AD26A1046019982
:102C80009847FDF705FB03B000BD00BF0000024000
:102C9000C8090020AFF30080AFF30080AFF30080DD
:102CA00000B583B00D4B1B684FEA136303F00F03AD
:102CB00001930A4B019A4FEA02625A60084B1B6B60
:102CC000002B06D0064B1B6B054A526B1046019930
:102CD0009847FDF7DDFA03B000BD00BF00000240D9
:102CE000C8090020AFF30080AFF30080AFF300808D
:102CF00082B0144B4FF000021A604FF000030193B2
:102D000016E01149019A13464FEA43039B184FEA14
:102D10008303CB181B684FF000021A600B4B019A1B
:102D20004FF0000143F83210019B03F101030193BE
:102D3000019B062BE5DD064B4FF0FF325A6002B0D7
:102D4000704700BFC4090020C0700008C8090020F7
:102D500000000240AFF30080AFF30080AFF30080CB
:102D600000B585B00390029101920093039B5B7ABA
:102D70004FF0010202FA03F31A462C4B1B6802EAD9
:102D80000303002B02D04FF001034BE0039B5B7A5F
:102D90001A46274B019943F83210039B5B7A244A69
:102DA0004FEAC303D318009A5A60039B5B7A4FF033
:102DB000010202FA03F31A461C4B1B681A431B4B11
:102DC0001A601A4B1B6803F07F03002B05D0194BC8
:102DD000184A526942F001025A61039B1B68039A28
:102DE0001268126822F00F021A60039B5B68039A54
:102DF000127A4FF00F0101FA02F21A60039B1B686E
:102E00004FF000021A60019B002B09D0039B9B7AB4
:102E10001A46029B4FEA031310461946FDF7B0FA13
:102E20004FF00003184605B000BD00BFC4090020E4
:102E3000C809002000100240AFF30080AFF300800B
:102E400000B583B00190019B9B7A1846FDF7E8FA24
:102E5000019B5B7A4FF0010202FA03F36FEA03036E
:102E60001A46094B1B681A40074B1A60064B1B6831
:102E700003F07F03002B05D1044B044A526922F072
:102E800001025A6103B000BDC409002000100240D5
:102E900008B5154B144A126842F480721A60134B3D
:102EA0001B6A03F44073B3F5407F07D00F4B4FF418
:102EB00080321A620D4B4FF000021A620B4B1B6AF4
:102EC00003F40043002B0DD1084B084A126A42F468
:102ED00040721A6200F084FB044B044A126A42F406
:102EE00000421A6208BD00BF00700040001002409E
:102EF00008B51E4B1B691D4B4FF0FF321A611B4B6F
:102F00004FF000021A61194BDB68184B4FF0FF328B
:102F1000DA60164B4FF00002DA60154B45F6BF52EF
:102F20005A60134B4FF000029A60114B4FF00702AA
:102F30001A60104B0F4AD26842F08072DA600E4B72
:102F40000D4A126842F001021A60084B074AD26922
:102F500042F08052DA61054B044AD26942F00062C5
:102F6000DA61FFF795FFFFF7C3FE08BD00100240CE
:102F700010E000E0F0ED00E0001000E0AFF30080B2
:102F8000294B294A126842F001021A6000BF264B01
:102F90001B6803F00203002BF9D0234B224A12686E
:102FA00002F0F9021A60204B4FF000025A6000BF95
:102FB0001D4B5B6803F00C03002BF9D11A4B1A4A26
:102FC000126842F480321A6000BF174B1B6803F48A
:102FD0000033002BF9D0144B134A526842F4A0225C
:102FE0005A60114B104A126842F080721A6000BF9A
:102FF0000D4B1B6803F00073002BF9D00A4B0B4AF2
:103000005A600B4B4FF010021A60074B064A526889
:1030100042F002025A6000BF034B5B6803F00C03EE
:10302000082BF9D1704700BF001002400064450032
:1030300000200240AFF30080AFF30080AFF30080C8
:1030400008B51E48FEF73CFB1C4B1D4A9A621B4B01
:103050001C4ADA62194B42F28A521A631A4B1A4A14
:10306000926942F400729A61154B4FF000025A6067
:10307000134B4FF001029A60114B4FF009029A6016
:1030800000BF0F4B9B6803F00803002BF9D10C4BDA
:103090004FF005029A6000BF094B9B6803F00403E0
:1030A000002BF9D1064B4FF000029A60064B064AFE
:1030B000926922F400729A6108BD00BF000A0020E4
:1030C00000240140C070000800100240AFF30080EF
:1030D00008B5074B4FF001025A61064B5B685B680D
:1030E00004484FF000019847FDF7D2F808BD00BF33
:1030F00000040140340A0020AFF30080AFF30080E9
:1031000008B5074B4FF002025A61064B5B68DB685B
:1031100004484FF001019847FDF7BAF808BD00BF19
:1031200000040140340A0020AFF30080AFF30080B8
:1031300008B5074B4FF004025A61064B5B685B69A8
:1031400004484FF002019847FDF7A2F808BD00BF00
:1031500000040140340A0020AFF30080AFF3008088
:1031600008B5074B4FF008025A61064B5B68DB69F4
:1031700004484FF003019847FDF78AF808BD00BFE7
:1031800000040140340A0020AFF30080AFF3008058
:1031900008B5074B4FF010025A61064B5B685B6A3B
:1031A00004484FF004019847FDF772F808BD00BFCE
:1031B00000040140340A0020AFF30080AFF3008028
:1031C00000B583B0234B5B6903F478730193214B03
:1031D000019A5A61019B03F02003002B06D01E4B7D
:1031E0005B68DB6A1C484FF005019847019B03F0C0
:1031F0004003002B06D0184B5B685B6B16484FF002
:1032000006019847019B03F08003002B06D0124B68
:103210005B68DB6B10484FF007019847019B03F494
:103220008073002B06D00C4B5B685B6C0A484FF038
:1032300008019847019B03F40073002B06D0064B4E
:103240005B68DB6C04484FF009019847FDF720F8F4
:1032500003B000BD00040140340A0020AFF3008039
:1032600000B583B0294B5B6903F47C430193274B82
:10327000019A5A61019B03F48063002B06D0244B12
:103280005B685B6D22484FF00A019847019B03F48D
:103290000063002B06D01E4B5B68DB6D1C484FF0B3
:1032A0000B019847019B03F48053002B06D0184B69
:1032B0005B685B6E16484FF00C019847019B03F466
:1032C0000053002B06D0124B5B68DB6E10484FF0AA
:1032D0000D019847019B03F48043002B06D00C4B53
:1032E0005B685B6F0A484FF00E019847019B03F43F
:1032F0000043002B06D0064B5B68DB6F04484FF0A1
:103300000F019847FCF7C4FF03B000BD0004014063
:10331000340A0020AFF30080AFF30080AFF30080E9
:1033200008B5074B4FF480325A61064B5B68D3F8FF
:10333000843004484FF010019847FCF7A9FF08BDFE
:1033400000040140340A0020AFF30080AFF3008096
:1033500008B5074B4FF400325A61064B5B68D3F84F
:103360008C3004484FF011019847FCF791FF08BDDD
:1033700000040140340A0020AFF30080AFF3008066
:1033800008B5074B4FF480225A61064B5B68D3F8AF
:10339000943004484FF012019847FCF779FF08BDBC
:1033A00000040140340A0020AFF30080AFF3008036
:1033B00008B50248FEF7B4F908BD00BF340A002082
:1033C00082B00190214B214A926942F07D029A61BC
:1033D0001F4B019A1268DA601D4B019A92685A607D
:1033E0001B4B019A52681A601A4B019AD268DA6034
:1033F000184B019A52695A60164B019A12691A6069
:10340000154B019A9269DA60134B019A126A5A605D
:10341000114B019AD2691A60104B019A526ADA6014
:103420000E4B019AD26A5A600C4B019A926A1A604A
:103430000B4B019A126BDA60094B019A926B5A603E
:10344000074B019A526B1A6002B07047001002409D
:1034500000080140000C0140001001400014014030
:1034600000180140AFF30080AFF30080AFF300809D
:103470008AB0039002910192019B032B03D1039B1D
:10348000029A1A6105E0019B042B02D1039B029A68
:103490005A612E4A019BD3181B7804934FF0000306
:1034A0000693069B0793079B0893089B09934FF08D
:1034B0000003059335E0089B4FEA03130893099B2B
:1034C0004FEA03130993069B4FEA03130693079BE6
:1034D0004FEA03130793029B03F08003002B04D1F0
:1034E000089B43F00F03089304E0069A049B42EA0A
:1034F00003030693029B03F40043002B04D1099BB2
:1035000043F00F03099304E0079A049B42EA030384
:103510000793029B4FEA43030293059B03F10103C8
:103520000593059B072BC6D9039B5A68099B1A4034
:10353000079B1A43039B5A60039B1A68089B1A4017
:10354000069B1A43039B1A600AB07047207100085B
:1035500000B583B0204B9B889BB203F00803002B7F
:10356000F8D01D4B1B889AB21B4B9B889BB202EA7A
:103570000303ADF80630184B174A928892B222F036
:10358000070292B29A80BDF8063003F00103DBB265
:10359000002B05D0114B1B6810484FF000019847D5
:1035A000BDF8063003F00203002B05D00B4B1B685F
:1035B0000A484FF001019847BDF8063003F00403B4
:1035C000002B05D0054B1B6804484FF002019847BB
:1035D000FCF75EFE03B000BD002800403C0A00205E
:1035E0000F4B9B889BB203F02003002BF8D00C4BB1
:1035F0000B4A928892B242F0100292B29A80084B23
:103600004FF000021A81064B4FF223429A81044B7D
:10361000034A928892B222F0100292B29A807047C6
:1036200000280040AFF30080AFF30080AFF30080CC
:1036300008B5124B114A928892B222F0080292B257
:103640009A800E4B9B889BB203F00803002BF8D0A6
:103650000A4B9B889BB203F02003002BF8D0074B4A
:103660004FF000021A80064B4FF000021A604FF034
:1036700003004FF0F001FCF783FE08BD0028004076
:103680003C0A0020AFF30080AFF30080AFF300806E
:1036900084B0019000911D4B9B889BB203F00803FE
:1036A000002BF8D0194B1B8B9BB24FEA0342174BF0
:1036B0009B8B9BB2D218009B1A60144B1B8A9BB247
:1036C0004FEA0342114B9B8A9BB2D3180393009B92
:1036D0001A680E4B1B8B9BB24FEA03410B4B9B8B23
:1036E0009BB2CB189A42DDD1039B094A02FB03F23D
:1036F000084BD318084AA2FB03134FEA93339BB23B
:103700001A46009B5A6004B0704700BF0028004072
:1037100018FCFFFFB8A8B90383DE1B43AFF300809A
:1037200082B001900091009B002B16D0019B009A63
:103730001A60124B9B889BB203F02003002BF8D039
:103740000E4B0E4A928892B222F0070292B29A80F1
:103750000A4B4FF007021A800EE0084B9B889BB281
:1037600003F02003002BF8D0044B4FF000021A8026
:10377000019B4FF000021A6002B070470028004021
:1037800000B585B001900091009B03F00803002B69
:1037900001D0FCF72DFD019B5B6A1B68019A526A00
:1037A0001268126822F00F021A60019B5B6A5B6864
:1037B000019A526A127A4FF00F0101FA02F21A606E
:1037C000019B1B6A1B68019A126A1268126822F038
:1037D0000F021A60019B1B6A5B68019A126A127AD7
:1037E0004FF00F0101FA02F21A60019B5B681B683F
:1037F000002B11D0019B4FF004021A70019B5B68F3
:103800001B6801989847019B1B78042B08D1019BEA
:103810004FF002021A7003E0019B4FF002021A708F
:103820004FF0200383F31188019B9B68002B0DD080
:10383000019B9B680393019B4FF000029A60039BDE
:103840004FF000025A620398FCF7BAFF4FF00003F2
:1038500083F3118805B000BDAFF30080AFF30080A3
:1038600000B583B001900091009B03F00803002B8A
:1038700001D0FCF7BDFC03B000BD00BFAFF300807A
:1038800008B5164B4FF6FF721A801548FEF798FFE1
:10389000134B144ADA61124B134A1A62104B134A43
:1038A0005A620F4B41F20A029A620D4B41F2180222
:1038B000DA620F48FEF784FF0D4B0E4ADA610C4BBB
:1038C0000D4A1A620A4B0D4A5A62094B41F20A022A
:1038D0009A62074B41F21802DA6208BDA00A002082
:1038E000400A002000300140CC700008D870000869
:1038F000700A002000380040E4700008F0700008F2
:1039000000B585B00190019B1B78012B57D1019A1E
:103910004C4B9A421FD1019B1A6A4B4B10464FF0F9
:103920000A011A46019BFFF71BFA03468DF80F3078
:10393000019B5A6A454B10464FF00A011A46019BFB
:10394000FFF70EFA03468DF80F30414B404A92695B
:1039500042F480529A61019A3E4B9A421FD1019BD8
:103960001A6A394B10464FF00A011A46019BFFF7BD
:10397000F7F903468DF80E30019B5A6A334B104617
:103980004FF00A011A46019BFFF7EAF903468DF84A
:103990000E302F4B2E4AD26942F48042DA61019BED
:1039A0001B6A1B68019AD26902F10C029A60019BA2
:1039B0005B6A1B68019AD26902F10C029A60019B52
:1039C0005B685B8903F40063002B0CD1019B9B6A4D
:1039D00023F47062019B9A62019BDB6A23F470629C
:1039E000019BDA620FE0019B9B6A23F4706343F44E
:1039F000A062019B9A62019BDB6A23F4706343F42B
:103A0000A062019BDA62019BDB694FF000021A8021
:103A1000019BDB69019A5268528942F4417292B269
:103A20001A80019BDB694FF007029A80019BDB69DA
:103A3000019AD269128892B242F0400292B21A8080
:103A400005B000BD400A0020813700086138000839
:103A500000100240700A0020AFF30080AFF3008036
:103A600000B583B00190019B1B78022B27D1019BED
:103A7000DB694FF000021A80019BDB694FF0000206
:103A80009A80019B1B6A1846FFF7DAF9019B5B6A73
:103A90001846FFF7D5F9019A0A4B9A4205D10A4B0D
:103AA000094A926922F480529A61019A074B9A421C
:103AB00005D1054B044AD26922F48042DA6103B091
:103AC00000BD00BF400A002000100240700A002024
:103AD00082B00190019B5B685B68019A5268128911
:103AE0004FF0010101FA02F25A6102B0704700BFC3
:103AF00082B00190019B5B685B68019A52681289F1
:103B00004FF0010101FA02F21A6102B0704700BFE2
:103B100082B001900091019B1B6A1B68194ADA6010
:103B2000019B1B6A1B68009A5A60019B1B6A1B68F9
:103B3000019A926A1A60019B5B6A1B68124ADA60FA
:103B4000019B5B6A1B68009A5A60019B5B6A1B6859
:103B5000019AD26A1A60019B1B6A1B68019A126A59
:103B60001268126842F001021A60019B5B6A1B68CE
:103B7000019A526A1268126842F001021A6002B099
:103B8000704700BFA20A0020A00A0020AFF3008007
:103B900084B0039002910192039B1B6A1B681A4A2E
:103BA000DA60039B1B6A1B68029A5A60039B1B6ABC
:103BB0001B68039A926A1A60039B5B6A1B68019AEE
:103BC000DA60039B5B6A1B68029A5A60039B5B6A1C
:103BD0001B68039AD26A42F080021A60039B1B6A38
:103BE0001B68039A126A1268126842F001021A6096
:103BF000039B5B6A1B68039A526A1268126842F060
:103C000001021A6004B07047A20A0020AFF30080DE
:103C100084B0039002910192039B1B6A1B68019A76
:103C2000DA60039B1B6A1B68029A5A60039B1B6A3B
:103C30001B68039A926A42F080021A60039B5B6AD7
:103C40001B68114ADA60039B5B6A1B68029A5A6020
:103C5000039B5B6A1B68039AD26A1A60039B1B6A08
:103C60001B68039A126A1268126842F001021A6015
:103C7000039B5B6A1B68039A526A1268126842F0DF
:103C800001021A6004B07047A00A0020AFF3008060
:103C900000B585B00190019B1B691B69ADF80E3022
:103CA000019B1B69DB689AB2BDF80E3002EA030380
:103CB0009BB203F0FF03ADF80E30019B1B69BDF80A
:103CC0000E206FEA02021A61BDF80E3003F0020303
:103CD000002B04D0019B5B681B6901989847BDF8D5
:103CE0000E3003F00403002B04D0019B5B689B693A
:103CF00001989847BDF80E3003F00803002B04D05C
:103D0000019B5B681B6A01989847BDF80E3003F071
:103D10001003002B04D0019B5B689B6A01989847B5
:103D2000BDF80E3003F00103DBB2002B04D0019B81
:103D30005B689B680198984705B000BDAFF30080B1
:103D400008B5064B6FF001021A61054B5B689B6872
:103D500003489847FCF79CFA08BD00BF002C0140BF
:103D6000A40A0020AFF30080AFF30080AFF300801F
:103D700000B583B0214B1B699AB2204BDB689BB224
:103D800002EA03039BB203F0FF03ADF806301B4BBE
:103D9000BDF806206FEA02021A61BDF8063003F092
:103DA0000203002B04D0164B5B681B69144898472C
:103DB000BDF8063003F00403002B04D0104B5B6801
:103DC0009B690F489847BDF8063003F00803002BA5
:103DD00004D00B4B5B681B6A09489847BDF8063056
:103DE00003F01003002B04D0054B5B689B6A04486A
:103DF0009847FCF74DFA03B000BD00BF002C01400E
:103E0000A40A0020AFF30080AFF30080AFF300807E
:103E100008B50348FFF73CFFFCF73AFA08BD00BFBE
:103E2000B80A0020AFF30080AFF30080AFF300804A
:103E300008B50648FEF7E4FA044B054A1A6105483E
:103E4000FEF7DEFA034B044A1A6108BDA40A0020FB
:103E5000002C0140B80A002000080040AFF30080A9
:103E600000B585B00190019B1B78012B4AD1019AC6
:103E7000924B9A421ED1924B914A926942F400624F
:103E80009A618F4B8E4AD26842F40062DA608C4BA2
:103E90004FF00002DA604FF019004FF07001FCF7AC
:103EA0006FFA4FF01B004FF07001FCF769FA019BAD
:103EB000844ADA60019A844B9A4218D1804B804A36
:103EC000D26942F00402DA617D4B7D4A126942F008
:103ED00004021A617A4B4FF000021A614FF01E0083
:103EE0004FF07001FCF74CFA019B764ADA60019BB7
:103EF0001B6946F668029A61019B1B6946F66802D7
:103F0000DA612AE0019B1B694FF000021A60019BF5
:103F10001B69019A5268126B22F0FF02DA60019B62
:103F20001B694FF000021A61019B1B694FF00002F0
:103F30005A63019B1B694FF000029A63019B1B6946
:103F40004FF00002DA63019B1B694FF000021A6414
:103F5000019B1B694FF000025A62019BDA68019BCA
:103F60005B681B68B2FBF3F303F1FF330293029A21
:103F70004FF6FF739A420BD8029B03F10103019A9B
:103F80005268126802FB03F2019BDB689A4200BF91
:103F9000019B1B69029A92B29A62019B1B69019A6A
:103FA000128902F1FF3292B2DA62019B1B69019A17
:103FB0005268D26A5A604FF00003ADF80E30019B90
:103FC0005B68DB6803F00F03012B07D0022B0BD1DA
:103FD000BDF80E3043F00203ADF80E30BDF80E30E0
:103FE00043F00103ADF80E30019B5B685B6903F0A1
:103FF0000F03012B07D0022B0BD1BDF80E3043F07D
:104000002003ADF80E30BDF80E3043F01003ADF8CC
:104010000E30019B5B68DB6903F00F03012B07D0B7
:10402000022B0BD1BDF80E3043F40073ADF80E3007
:10403000BDF80E3043F48073ADF80E30019B5B6821
:104040005B6A03F00F03012B07D0022B0BD1BDF8E5
:104050000E3043F40053ADF80E30BDF80E3043F48B
:104060008053ADF80E30019B1B69BDF80E201A621B
:10407000019B1B694FF001025A61019B1B69019A68
:104080001269D168019A52689268002A0CBF002216
:10409000012241EA0202DA60019B1B694FF0000233
:1040A0001A61019B1B694FF400425A64019B1B6912
:1040B0004FF085021A6005B000BD00BFA40A0020C1
:1040C0000010024000366E01B80A0020AFF30080F5
:1040D00000B583B00190019B1B78022B33D1019B6B
:1040E0001B694FF000021A60019B1B694FF0000230
:1040F000DA60019B1B694FF000021A61019B1B698A
:104100004FF000025A64019A104B9A420DD14FF0C1
:104110001900FCF785F94FF01B00FCF781F90C4BF7
:104120000B4A926922F400629A61019A094B9A4201
:1041300009D14FF01E00FCF773F9054B044AD26910
:1041400022F00402DA6103B000BD00BFA40A00201F
:1041500000100240B80A0020AFF30080AFF30080E7
:1041600084B0019013460A468DF80320ADF8003064
:10417000019B19699DF80330BDF8002003F10C0381
:104180004FEA8303CB185A60019B5A689DF80330AD
:1041900003F101034FEAC303D3189B68002B27D018
:1041A000019B1B69DB6803939DF803304FF002020B
:1041B00002FA03F31A46039B02EA0303002B17D10A
:1041C000019B1B699DF803204FF0020101FA02F2E6
:1041D0001146039A41EA0202DA60019B1B699DF8CD
:1041E00003204FF0020101FA02F26FEA02021A61A3
:1041F00004B07047AFF30080AFF30080AFF30080EE
:1042000082B001900B468DF80330019B1A699DF82E
:10421000033003F10C034FEA8303D3184FF000027D
:104220005A60019B1B69019A1269D1689DF80320AD
:104230004FF0020000FA02F26FEA020201EA020203
:10424000DA6002B0704700BFAFF30080AFF30080C8
:1042500000B585B001900B46ADF802304FF0000379
:104260000393BDF8023003F00803002B03D0039B37
:1042700043F080030393BDF8023003F00103DBB287
:10428000002B03D0039B43F020030393BDF80230BF
:1042900003F00203002B03D0039B43F0400303937E
:1042A000BDF8023003F00403002B03D0039B43F45A
:1042B00080730393019B03F1040318460399FCF7F1
:1042C000D7FD05B000BD00BFAFF30080AFF30080A5
:1042D00000B587B00190019B5B6F0493049B9B89A1
:1042E000ADF80E30049B1B88ADF81630BDF81630C3
:1042F00003F48073002B13D04FF0200383F3118855
:10430000019B03F1040318464FF40071FCF7B0FD64
:104310004FF0000383F31188049B4FF6FF621A806D
:104320004FF0200383F3118817E0BDF8163003F037
:104330000F03002B05D0BDF8163001981946FFF782
:1043400087FF049B9B889BB2DBB201981946FEF75E
:1043500007FA049B1B88ADF81630BDF8163003F041
:104360002003002BE1D14FF0000383F31188BDF847
:104370000E3003F08003002B2FD0BDF8163003F071
:104380008003002B29D04FF0200383F31188019B79
:1043900003F130031846FDF753F80290029B002BFF
:1043A00013DA019B03F1040318464FF00801FCF7F0
:1043B0005FFDBDF80E3023F0C0039BB243F0400315
:1043C0009BB29AB2049B9A8103E0029B9AB2049B2F
:1043D0009A804FF0000383F31188BDF8163003F084
:1043E0004003002B1AD04FF0200383F31188019B68
:1043F00003F1040318464FF01001FCF739FD4FF0AC
:10440000000383F31188BDF80E3023F0C0039AB285
:10441000049B9A81049B4FF6BF721A8007B000BDBF
:1044200082B00190044B044A928992B242F0800219
:1044300092B29A8102B0704700440040AFF300800E
:1044400008B50348FFF744FFFBF722FF08BD00BF94
:10445000CC0A0020AFF30080AFF30080AFF3008000
:1044600008B505484FF00001044AFEF741F9024B38
:10447000034A5A6708BD00BFCC0A00202144000847
:1044800000440040AFF30080AFF30080AFF3008042
:1044900008B5FEF775FD08BDAFF30080AFF30080EF
:1044A000704700BFAFF30080AFF30080AFF3008030
:1044B00084B003468DF807300C4B1B889BB20393E6
:1044C0009DF80730002B04D1039B43F0380303937E
:1044D00005E0039B23F0380343F008030393034BE9
:1044E000039A92B21A8004B0704700BF00380040AF
:1044F000704700BFAFF30080AFF30080AFF30080E0
:10450000704700BFAFF30080AFF30080AFF30080CF
:1045100082B003468DF8073002B07047AFF30080D9
:1045200000B583B003468DF807309DF807309BB285
:104530000A48194601F054FE00BF08484FF0010137
:1045400001F086FE0346002BF7D0044801F058FE28
:104550000346DBB2184603B000BD00BF0038004080
:1045600008B54FF0FF00FFF7DBFF0346184608BD14
:1045700000B583B00B4B4FF032021A60FFF7F0FF2B
:10458000FFF7EEFF03468DF807309DF80730FF2B4D
:1045900003D0044B1B68002BF2D19DF8073018465E
:1045A00003B000BD480B0020AFF30080AFF30080E4
:1045B00008B504484FF4805101F052FFFFF7D0FFD7
:1045C00008BD00BF000C0140AFF30080AFF30080D6
:1045D00000B589B04FF008004FF0010101F060FF15
:1045E0004FF480404FF0010101F07AFF4FF00100DD
:1045F000FFF78EFFFFF784FFFFF77AFF4FF000030E
:10460000009304E000BF009B03F101030093009AB4
:1046100047F22F539A42F5DD4FF48053ADF808303E
:104620004FF010038DF80B304FF003038DF80A3074
:1046300002AB3648194601F033FE34484FF480513E
:1046400001F00EFF4FF42043ADF808304FF00303A4
:104650008DF80A304FF018038DF80B3002AB2B4861
:10466000194601F01DFE4FF48043ADF808304FF0BD
:1046700048038DF80B3002AB2448194601F010FEB8
:104680004FF00003ADF80C304FF48273ADF80E30EC
:104690004FF00003ADF810304FF00003ADF81230CA
:1046A0004FF00003ADF814304FF40073ADF816303E
:1046B0004FF03803ADF818304FF00003ADF81A3062
:1046C0004FF00703ADF81C3003AB1148194601F059
:1046D00017FD0F484FF0000101F09AFD0C484FF014
:1046E000010101F05DFD00BF09484FF0020101F03A
:1046F000AFFD0346002BF7D0054801F081FD0346CE
:10470000DBB28DF8073009B000BD00BF000C0140DE
:1047100000380040AFF30080AFF30080AFF30080BB
:1047200000B583B01C4B1B78DBB203F00103002BF8
:1047300008D11A484FF4805101F0A2FEFFF718FF8C
:10474000FFF736FF164801F09BFC15484FF00001BB
:1047500001F026FD4FF480404FF0000101F0C0FE53
:104760004FF46043ADF804304FF028038DF8073064
:1047700001AB0A48194601F093FD4FF00000FFF726
:10478000C7FE054B1B78DBB243F00103DAB2024BE4
:104790001A7003B000BD00BF00080020000C0140EB
:1047A00000380040AFF30080AFF30080AFF300802B
:1047B00000B585B0019000912B4B4FF00A021A60B2
:1047C000FFF7CEFE03468DF80F309DF80F30FF2B1C
:1047D00003D1254B1B68002BF2D19DF80F30FE2B27
:1047E00002D04FF000033CE04FF0FF00FFF798FECF
:1047F00003461A46019B1A70019B03F101030193C2
:104800004FF0FF00FFF78CFE03461A46019B1A701B
:10481000019B03F1010301934FF0FF00FFF780FEBE
:1048200003461A46019B1A70019B03F10103019391
:104830004FF0FF00FFF774FE03461A46019B1A7003
:10484000019B03F101030193009BA3F10403009377
:10485000009B002BC8D1FFF783FEFFF781FE4FF0CE
:104860000103184605B000BD440B0020AFF30080E3
:1048700000B585B0034600918DF807309DF80730EC
:104880005BB2002B15DA9DF8073003F07F038DF83B
:1048900007304FF077004FF00001FFF7E9FF0346C4
:1048A0008DF80E309DF80E30012B02D99DF80E3098
:1048B00069E036484FF4805101F0D2FD33484FF49F
:1048C000805101F0DDFDFFF753FE0346FF2B02D0C0
:1048D0004FF0FF0357E09DF807301846FFF720FE22
:1048E000009B4FEA1363DBB21846FFF719FE009BEB
:1048F0004FEA1343DBB21846FFF712FE009B4FEA64
:104900001323DBB21846FFF70BFE009BDBB2184601
:10491000FFF706FE4FF001038DF80F309DF80730CA
:10492000402B03D14FF095038DF80F309DF80730E1
:10493000482B03D14FF087038DF80F309DF80F30CF
:104940001846FFF7EDFD9DF807304C2B01D1FFF71E
:1049500007FE4FF00A038DF80F30FFF701FE034604
:104960008DF80E309DF80E305BB2002B09DA9DF801
:104970000F3003F1FF338DF80F309DF80F30002B0F
:10498000EBD19DF80E30184605B000BD000C01407B
:1049900010B584B003468DF807309DF80730002B22
:1049A00002D04FF00103F5E07C4B1B78DBB203F043
:1049B0000203002B03D0794B1B78DBB2EAE0FFF750
:1049C00007FE4FF00000FFF773FD4FF00A038DF86C
:1049D0000F3007E0FFF7C4FD9DF80F3003F1FF3300
:1049E0008DF80F309DF80F30002BF3D14FF00003FE
:1049F0008DF80D304FF040004FF00001FFF738FF09
:104A00000346012B40F0AA80654B4FF064021A6008
:104A10004FF048004FF4D571FFF72AFF0346012BF2
:104A200062D14FF000038DF80F300FE09DF80F407A
:104A3000FFF796FD03461A4604A90B1903F8082C44
:104A40009DF80F3003F101038DF80F309DF80F3002
:104A5000032BEBD99DF80A30012B7FD19DF80B3049
:104A6000AA2B7BD100BF4E4B1B68002B08D04FF008
:104A7000E9004FF08041FFF7FBFE0346002BF2D127
:104A8000474B1B68002B69D04FF07A004FF00001B4
:104A9000FFF7EEFE0346002B60D14FF000038DF8C8
:104AA0000F300FE09DF80F40FFF75AFD03461A46FE
:104AB00004A90B1903F8082C9DF80F3003F101032A
:104AC0008DF80F309DF80F30032BEBD99DF808308F
:104AD00003F04003002B02D04FF00C0301E04FF035
:104AE00004038DF80D3039E04FF0E9004FF000017C
:104AF000FFF7BEFE0346012B08D84FF002038DF8E6
:104B00000D304FF0E9038DF80E3008E04FF001034F
:104B10008DF80D304FF041038DF80E3000BF204B63
:104B20001B68002B09D09DF80E3018464FF000018D
:104B3000FFF79EFE0346002BF1D1194B1B68002B9B
:104B400008D04FF050004FF40071FFF791FE03467C
:104B5000002B03D04FF000038DF80D30114B9DF862
:104B60000D201A70FFF724FD9DF80D30002B0CD09E
:104B70000A4B1B78DBB223F00103DAB2074B1A7041
:104B80004FF00100FFF794FC01E0FFF7C9FD034B74
:104B90001B78DBB2184604B010BD00BF000800202F
:104BA000440B00204C0B0020AFF30080AFF30080DB
:104BB00082B003468DF807309DF80730002B02D0F5
:104BC0004FF0010302E0034B1B78DBB2184602B042
:104BD000704700BF00080020AFF30080AFF30080F3
:104BE00000B585B00291019202468DF80F208DF834
:104BF00003309DF80F30002B03D19DF80330002BBC
:104C000002D14FF004035CE02F4B1B78DBB203F0C2
:104C10000103DBB2002B02D04FF0030351E02B4B1A
:104C20001B7803F00803002B03D1019B4FEA4323B9
:104C300001939DF80330012B14D14FF051000199DD
:104C4000FFF716FE0346002B32D102984FF4007195
:104C5000FFF7AEFD0346002B2AD04FF000038DF87E
:104C6000033025E04FF052000199FFF701FE0346A3
:104C7000002B1DD102984FF40071FFF799FD0346F8
:104C8000002B0ED0029B03F5007302939DF80330B6
:104C900003F1FF338DF803309DF80330002BE9D189
:104CA00000E000BF4FF04C004FF00001FFF7E0FDC7
:104CB000FFF77EFC9DF80330002B0CBF002301237F
:104CC000DBB2184605B000BD000800204C0B0020E8
:104CD00086B0039002910192039B0593029B04937B
:104CE0000BE0049B1A78059B1A70059B03F10103E6
:104CF0000593049B03F101030493019B002B0CBF5C
:104D000000230123DBB2019A02F1FF320192002B52
:104D1000E7D106B0704700BFAFF30080AFF300806B
:104D200086B0039002910192039B059307E0029BDA
:104D3000DAB2059B1A70059B03F101030593019BF1
:104D4000002B0CBF00230123DBB2019A02F1FF32DA
:104D50000192002BEBD106B0704700BFAFF300808B
:104D600088B0039002910192039B0793029B0693E4
:104D70004FF00003059300BF019B002B0CBF0023E5
:104D80000123DBB2019A02F1FF320192002B16D00F
:104D9000079B1B781A46069B1B78D31A0593059B25
:104DA000002B14BF00230123DBB2079A02F101029A
:104DB0000792069A02F101020692002BDCD1059BB4
:104DC000184608B0704700BFAFF30080AFF3008013
:104DD00082B00190009103E0019B03F10103019374
:104DE000019B1B78002B05D0019B1B781A46009B6A
:104DF0009A42F1D1019B1B78184602B0704700BF60
:104E000000B585B001900091019B1B6A0393039A42
:104E1000009B9A4217D0009B002B14D0019B5A781C
:104E2000019B03F1240310461946009A4FF0010339
:104E3000FFF7D6FE0346002B02D04FF0010304E03B
:104E4000019B009A1A624FF00003184605B000BD9E
:104E500082B001900091009BA3F102030093019B9B
:104E6000DB68A3F10202009B9A4202D84FF00003D4
:104E700007E0019B9B78009A02FB03F2019BDB6930
:104E8000D318184602B07047AFF30080AFF300802C
:104E900000B587B001900091009B012B04D9019BC4
:104EA000DA68009B9A4202D84FF00103BCE0019BF4
:104EB0001B78022B54D0032B79D0012B40F0B28009
:104EC000009B0593059B4FEA5303059AD31805935E
:104ED000019B5A69059B4FEA5323D3180198194641
:104EE000FFF78EFF0346002B40F09580059B4FEAAD
:104EF000C3534FEAD353019AD31893F82430049341
:104F0000059B03F101030593019B5A69059B4FEA39
:104F10005323D31801981946FFF772FF0346002B5D
:104F20007BD1059B4FEAC3534FEAD353019AD31861
:104F300093F824304FEA0323049A42EA03030493CC
:104F4000009B03F00103DBB2002B03D0049B4FEA6C
:104F5000131304E0049B4FEA03534FEA135363E037
:104F6000019B5A69009B4FEA1323D31801981946F5
:104F7000FFF746FF0346002B51D1019B03F12402AA
:104F8000009B4FEA43034FEAC3534FEAD353D3186E
:104F90000393039B03F101031B784FEA03239AB2A7
:104FA000039B1B7842EA03039BB29BB23CE0019B4C
:104FB0005A69009B4FEAD313D31801981946FFF79B
:104FC0001FFF0346002B2CD1019B03F12402009B01
:104FD0004FEA83034FEAC3534FEAD353D3180393E3
:104FE000039B03F103031B784FEA0362039B03F166
:104FF00002031B784FEA03431A43039B03F10103A7
:105000001B784FEA03231A43039B1B7842EA0303EE
:1050100023F0704308E000BF04E000BF02E000BFDF
:1050200000E000BF4FF0FF33184607B000BD00BFDF
:1050300000B585B001900B46ADF80230019BBDF87C
:105040000220DA80019B9B680393039B012B05D010
:10505000019B1B68DA68039B9A4202D84FF0020357
:1050600077E0039B002B08D1019B1B681B78032B67
:1050700003D1019B1B689B690393039B002B18D1F1
:10508000019B039ADA60019B1B681B89BDF8022013
:105090009A4202D34FF002035BE0019B1B689A69BE
:1050A000BDF802304FEA13139BB2D218019B1A616C
:1050B00040E0019B1B689B784FEA0313ADF80A3070
:1050C00020E0019B1B6818460399FFF7E1FE03905F
:1050D000039BB3F1FF3F02D14FF0010339E0039B83
:1050E000012B05D9019B1B68DA68039B9A4202D801
:1050F0004FF002032DE0BDF80220BDF80A30D31AAC
:10510000ADF80230BDF80220BDF80A309A42D8D27C
:10511000019B039ADA60019B1B6818460399FFF70D
:1051200097FE0246BDF802304FEA13139BB2D21825
:10513000019B1A61019B1B6803F12402BDF8023038
:1051400003F00F034FEA4313D218019B5A614FF04B
:105150000003184605B000BDAFF30080AFF3008038
:1051600000B585B001900091019BDB8803F101033C
:10517000ADF80E30BDF80E30002B03D0019B1B693B
:10518000002B02D14FF0040367E0BDF80E3003F0AE
:105190000F039BB2002B4DD1019B1B6903F1010250
:1051A000019B1A61019BDB68002B09D1019B1B68E5
:1051B0001B89BDF80E209A423CD34FF004034CE00B
:1051C000BDF80E304FEA13139BB21A46019B1B68C1
:1051D0009B7803F1FF3302EA0303002B2AD1019BE2
:1051E0001A68019BDB6810461946FFF751FE0290D2
:1051F000029B012B02D84FF002032EE0029BB3F179
:10520000FF3F02D14FF0010327E0019B1B68DA68E2
:10521000029B9A4202D84FF004031EE0019B029ABF
:10522000DA60019B1B6818460299FFF711FE0246DF
:10523000019B1A61019BBDF80E20DA80019B1B685F
:1052400003F12402BDF80E3003F00F034FEA4313BD
:10525000D218019B5A614FF00003184605B000BDFB
:1052600000B587B0019001984FF00001FFF7E0FE14
:1052700003468DF817309DF81730002B02D09DF8AB
:10528000173043E0019B1A68019B1B6910461946C1
:10529000FFF7B6FD03468DF817309DF81730002B49
:1052A0002FD1019B5B690493049B1B788DF80F3011
:1052B0009DF80F30002B04D14FF004038DF8173008
:1052C00022E0049B03F10B031B7803F00803002B7F
:1052D0000AD1019B9B69049819464FF00B02FFF716
:1052E0003FFD0346002B0ED001984FF00001FFF761
:1052F00037FF03468DF817309DF81730002BC1D0CB
:1053000002E000BF00E000BF9DF81730184607B06C
:1053100000BD00BFAFF30080AFF30080AFF30080AB
:1053200000B589B001900091009B1B68039303E0D6
:10533000039B03F101030393039B1B782F2BF7D0EF
:10534000039B1B785C2BF3D0019B9B690293029813
:105350004FF020014FF00B02FFF7E2FC4FF000038B
:105360008DF81F304FF000030493049B05934FF01A
:1053700008030693039A059BD3181B788DF81E30FB
:10538000059B03F1010305939DF81E30202B74D972
:105390009DF81E302F2B70D09DF81E305C2B6CD0EA
:1053A0009DF81E302E2B03D0049A069B9A4217D3E9
:1053B000069B082B03D19DF81E302E2B02D04FF0F8
:1053C0000603A1E04FF0080304934FF00B0306938C
:1053D0009DF81F304FEA83038DF81F3000BFC9E7E7
:1053E0009DF81E305BB2002B0DDA9DF81F3043F0A4
:1053F00003038DF81F309DF81E30A3F18003444A4B
:10540000D35C8DF81E309DF81E3042481946FFF7D8
:10541000DFFC0346002B02D04FF0060374E09DF83A
:105420001E30402B0AD99DF81E305A2B06D89DF805
:105430001F3043F002038DF81F3013E09DF81E303B
:10544000602B0FD99DF81E307A2B0BD89DF81F309A
:1054500043F001038DF81F309DF81E30A3F12003A7
:105460008DF81E30029A049BD3189DF81E201A70E6
:10547000049B03F1010304937CE7039A059BD21874
:10548000009B1A609DF81E30202B02D84FF00403B9
:1054900001E04FF000038DF81E30049B002B02D179
:1054A0004FF0060330E0029B1B78E52B03D1029BF3
:1054B0004FF005021A70069B082B05D19DF81F308E
:1054C0004FEA83038DF81F309DF81F3003F003036C
:1054D000012B05D19DF81E3043F010038DF81E30CE
:1054E0009DF81F3003F00C03042B05D19DF81E30EE
:1054F00043F008038DF81E30029B03F10B039DF867
:105500001E201A704FF00003184609B000BD00BFFE
:1055100080710008006F0008AFF30080AFF30080D7
:1055200000B585B001900091009B1B782F2B03D014
:10553000009B1B785C2B03D1009B03F101030093BC
:10554000019B4FF000029A60009B1B781F2B0CD828
:1055500001984FF00001FFF76BFD03468DF80F3007
:10556000019B4FF000025A616CE06B4601981946AE
:10557000FFF7D6FE03468DF80F309DF80F30002B55
:1055800059D10198FFF76CFE03468DF80F30019B4F
:105590009B6903F10B031B788DF80E309DF80F30DB
:1055A000002B0ED09DF80F30042B46D19DF80E3005
:1055B00003F00403002B42D14FF005038DF80F30A8
:1055C00040E09DF80E3003F00403002B39D1019B1D
:1055D0005B690293029B03F10B031B7803F010033A
:1055E000002B04D14FF005038DF80F302AE0029B09
:1055F00003F115031B784FEA03239AB2029B03F1D0
:1056000014031B7842EA03039BB29BB24FEA0342A6
:10561000029B03F11B031B784FEA032399B2029B01
:1056200003F11A031B7841EA03039BB29BB21A43AE
:10563000019B9A6099E700BF04E000BF02E000BF51
:1056400000E000BF9DF80F30184605B000BD00BF58
:1056500000B583B001900091019B5A78019B03F142
:10566000240310461946009A4FF00103FFF7B8FAD9
:105670000346002B02D04FF003035EE0019B03F5CD
:10568000087303F103031B784FEA03239AB2019BCB
:1056900003F5087303F102031B7842EA03039BB28C
:1056A0001AB2274B9A4202D04FF0020345E0019B09
:1056B00003F15D031B784FEA0362019B03F15C0376
:1056C0001B784FEA03431A43019B03F15B031B78EA
:1056D0004FEA03231A43019B03F15A031B7842EA62
:1056E000030323F07F42174B9A4202D14FF000038D
:1056F00023E0019B03F179031B784FEA0362019BCE
:1057000003F178031B784FEA03431A43019B03F12B
:1057100077031B784FEA03231A43019B03F17603B7
:105720001B7842EA030323F07F42064B9A4202D1E0
:105730004FF0000301E04FF00103184603B000BD35
:1057400055AAFFFF46415400AFF30080AFF300803D
:1057500000B593B00390029113468DF80730039B78
:105760001B680B930B9B1B78A3F130031093109BCA
:10577000092B0DD80B9B03F101031B783A2B07D1A2
:105780000B9B03F102030B93039B0B9A1A6002E03D
:105790004FF000031093109B002B02D04FF00B032F
:1057A00032E2974B109A53F822300A93029B0A9ADE
:1057B0001A600A9B002B02D14FF00C0324E20A9BD3
:1057C0001B78002B10D00A9B5B781846FFF7F0F986
:1057D00003468DF827309DF8273003F00103002B96
:1057E00002D14FF000030FE20A9B4FF000021A7043
:1057F000109BDAB20A9B5A700A9B5B781846FFF737
:10580000C7F803468DF827309DF8273003F00103D1
:10581000DBB2002B02D04FF00303F5E14FF00003A1
:105820000F930A980F99FFF713FF03468DF847303F
:105830009DF84730012B40D14FF000038DF84630E2
:105840009DF84630002B05D09DF8463003F1FF331C
:105850008DF846300A9B03F124029DF846304FEA4A
:10586000031303F5DF73D3180893089B03F10403B4
:105870001B78002B21D0089B03F10B031B784FEA08
:105880000362089B03F10A031B784FEA03431A43A0
:10589000089B03F109031B784FEA03231A43089B73
:1058A00003F108031B7842EA03030F930A980F9948
:1058B000FFF7CEFE03468DF847309DF84730032BA7
:1058C00002D14FF001039FE19DF84730002B02D039
:1058D0004FF00D0398E10A9B03F130031B784FEA68
:1058E00003239AB20A9B03F12F031B7842EA0303B6
:1058F0009BB21BB2B3F5007F02D04FF00D0383E1E2
:105900000A9B03F13B031B784FEA03239AB20A9BDD
:1059100003F13A031B7842EA03039BB29BB20E9356
:105920000E9B002B1AD10A9B03F14B031B784FEA05
:1059300003620A9B03F14A031B784FEA03431A43AD
:105940000A9B03F149031B784FEA03231A430A9B7E
:1059500003F148031B7842EA03030E930A9B0E9A55
:105960001A610A9B93F834308DF81F300A9B9DF81A
:105970001F20DA709DF81F30012B06D09DF81F30D4
:10598000022B02D04FF00D033EE19DF81F200E9B2D
:1059900002FB03F30E930A9B93F831308DF81F300E
:1059A0000A9B9DF81F209A709DF81F30002B09D08C
:1059B0009DF81F209DF81F3003F1FF3302EA030317
:1059C000002B02D04FF00D031EE10A9B03F13603BA
:1059D0001B784FEA03239AB20A9B03F135031B7825
:1059E00042EA03039BB29AB20A9B1A810A9B1B8963
:1059F00003F00F039BB2002B04D04FF00D0303E123
:105A0000500B00200A9B03F138031B784FEA032355
:105A10009AB20A9B03F137031B7842EA03039BB255
:105A20009BB20D930D9B002B1AD10A9B03F14703E8
:105A30001B784FEA03620A9B03F146031B784FEA87
:105A400003431A430A9B03F145031B784FEA0323E0
:105A50001A430A9B03F144031B7842EA03030D93A4
:105A60000A9B03F133031B784FEA03239AB20A9B84
:105A700003F132031B7842EA03039BB2ADF81C30FA
:105A8000BDF81C30002B02D14FF00D03BCE0BDF877
:105A90001C200E9BD2180A9B1B894FEA13139BB242
:105AA000D31806930D9A069B9A4202D24FF00D032B
:105AB000AAE00D9A069BD21A0A9B9B78B2FBF3F3DD
:105AC0000593059B002B02D14FF00D039CE04FF096
:105AD00001038DF84730059A40F6F5739A4203D9D1
