:020000040800F2
:100000000004002031090008210A0008210A000824
:10001000210A0008210A0008210A0008210A000814
:10002000210A0008210A0008210A0008610A0008C4
:10003000210A0008210A0008210A0008410A0008D4
:10004000210A0008210A0008210A0008D13C000802
:10005000210A0008210A0008210A0008210A0008D4
:10006000210A0008210A0008210A0008B13200080C
:100070000133000861330008C1330008213400084F
:1000800081340008E1340008210A0008210A000830
:10009000210A0008210A0008210A0008210A000894
:1000A000210A000801460008210A0008314600081C
:1000B000210A0008210A000801470008210A000857
:1000C000210A0008210A0008210A0008210A000864
:1000D000210A0008210A000871490008210A0008C5
:0C00E000210A0008210A0008210A00087B
:1000F00008B5002200F0C4F808BD00BF00000000F1
:100100002DE9F04F85B0054600F09AFA40F2B17340
:100110009D42074640F39680A5F5F66248F21F51CE
:1001200002F14300C5F2EB1102F5B673541E81FBD8
:10013000006C033381FB0568C61781FB0301A6EB46
:100140006C1CE8170CEBA40CC0EB6819023AC0EB6E
:10015000E81840F26D10DB1742F2934B00FB02C22D
:100160004FF4C8704FF4A34AC3EBE11300FB1858D7
:1001700064213C460026C9F2492BC0F2010AD3187B
:100180007D6001FB19590193B8F1000F0CBF3021BC
:10019000002105F0030303910293237A4A2B53D0E5
:1001A000442B65D00298002847D0039DD4F80CC09A
:1001B00047F62011C0F600014D19BCF1010F5BDDBF
:1001C000019A2946012351F8040B013312186345A3
:1001D000F9D1013B9B00111DEB588BFB01C04FEA8D
:1001E000E17C4018CCEBA0004FEAC00CC0EB0C0047
:1001F000081A6169081A216948BF0730013900EB04
:10020000C100411A994202DB07399942FCDA891888
:10021000226A0136A369D318022E0AFB013144F881
:100220001C1FBAD1FA690120BB6B9A42ACBF0023F4
:1002300001233B6005B0BDE8F08FB9F1000FB4D0E9
:100240003025B3E70020F5E76369DDF804C00298C4
:100250000CEB030238B9B9F1000F04D03B2BD4BF2B
:1002600000210121D3E7B8F1000FF7D00021CEE73C
:100270006169019B5918CBE7019A0023ABE700BFE6
:100280002DE9F84F05460C46164600F0D9F92A68C4
:100290004FF4A341C0F201014FEAE27C834644F2ED
:1002A0000750CCF22E2080FB02739B18CCEB23432B
:1002B00001FB1322002A05DA02F5A832013B12F5F0
:1002C000C072F9D445F27F11C0F201018A4206DD05
:1002D000A2F5A8320133A2F5C0728A42F8DC4BF2D3
:1002E000C5374FEAE27AC9F2A21742F29341181DCC
:1002F000C9F2492187FB028748F6890C81FB0091EE
:10030000BF18C8F6880C4FEAE078CAEBE7274FF42D
:10031000616A0918A7600AFB1722C8EBA1014FEA1E
:10032000C108C1EB0801411AA1618CFB027CD717FF
:1003300000299444C7EB6C1060604FEA801C02EB0C
:100340008002CCEB02022260C0F2A080002B71DBA5
:1003500048F21F50DFF8D0C240F2B277C5F2EB107E
:100360004FF4C87A4FF0640901E001379B1A80FB13
:100370000728FA1717F0030F07D1C2EB68180121FD
:1003800009FB1878B8F1000F09D180FB0781C2EB97
:10039000E1110AFB1171D1F1010138BF00210CEB11
:1003A0008102126E9342E0DA4800A7F5EC62411830
:1003B0000C3AE36109016261002222615CF80120CC
:1003C0000CEB0108934208DB4046012121619B1A96
:1003D00050F8042F01319A42F8DD0133E36026B171
:1003E000002323622046BDE8F88F00F021F98F4BEF
:1003F0001B68002B4DD0DBF80430BB4205D03846DB
:10040000FFF77EFE002800F0DE80DBF80030002BD6
:1004100000F0C6802B68DBF81C209342C0F2E0801D
:10042000DBF83820934280F2DB800123DBF83C10BC
:10043000236231E048F21F50DFF8ECC140F2B2779E
:10044000C5F2EB104FF4C87A4FF06409013F17F082
:10045000030F80FB07284FEAE77207D1C2EB681849
:10046000012109FB1878B8F1000F09D180FB078141
:10047000C2EBE1110AFB1171D1F1010138BF00217A
:100480000CEB8102126E9B18E0D48DE70731A1615D
:100490005CE72662DBF820104BF2C5324FEAE17CC4
:1004A000C9F2A212A76848F68900256882FB019E5E
:1004B0004FF46162C8F6880066688E444FEAEE2EFB
:1004C000CCEB0E03C3EB070CC4F808C002FB1313FC
:1004D00080FB0321DA17C918C2EB6111721A62603E
:1004E000880103EB81031B1AEB1A23603B2B2ADDE7
:1004F00001323C3B626023603B2A47DD0CF1010383
:100500003C3AA3606260172B24DDA269E1690132E5
:10051000A2610131062AE16101DD0022A2612169A7
:10052000A3F11802E368A2600133E36058F82120C8
:10053000934205DD01319B1A0C292161E36046D00D
:1005400000F078F84EE7002BD6DA013A3C336260CF
:100550002360D1E7002BF3DAA269E169013AA261D5
:100560000139002AE1613EDBE2681833A360531EC3
:10057000E360002BE4D12369013B2361002B35DBD1
:1005800058F82330E36000F055F82BE7002AA8BFA5
:100590006346B8DA0CF1FF333C32A3606260B2E725
:1005A0002B68DBF81C209342BFF63FAFDBF8382006
:1005B0009342ACBF002301232362002B3FF46AAFB8
:1005C000DBF83C1068E74FF0FF33236262E76269B3
:1005D000002323610132E361626100F02BF801E73F
:1005E0000023236256E70622A261BDE765690B235B
:1005F0002361013D656115F0030F0BD1284664218D
:1006000000F070F931B1012202F5B6720B2301320C
:10061000E261B5E728464FF4C87100F063F9D1F103
:10062000010238BF0022EFE72079000868080020A7
:10063000704700BF704700BF0000000000000000CE
:1006400040F60000C2F20000704700BF000000004A
:10065000002900F03E8180EA010C48BF49424A1E51
:1006600000F01F81031C48BF43428B4240F21E81B1
:10067000114200F02381B3FA83F2B1FA81F0A0EBCA
:100680000202C2F11F0204A000EB02124FF00000B0
:10069000974600BFAFF30080B3EBC17F00BF40EBD4
:1006A000000028BFA3EBC173B3EB817F00BF40EB19
:1006B000000028BFA3EB8173B3EB417F00BF40EB89
:1006C000000028BFA3EB4173B3EB017F00BF40EBF9
:1006D000000028BFA3EB0173B3EBC16F00BF40EB79
:1006E000000028BFA3EBC163B3EB816F00BF40EBF9
:1006F000000028BFA3EB8163B3EB416F00BF40EB69
:10070000000028BFA3EB4163B3EB016F00BF40EBD8
:10071000000028BFA3EB0163B3EBC15F00BF40EB58
:10072000000028BFA3EBC153B3EB815F00BF40EBD8
:10073000000028BFA3EB8153B3EB415F00BF40EB48
:10074000000028BFA3EB4153B3EB015F00BF40EBB8
:10075000000028BFA3EB0153B3EBC14F00BF40EB38
:10076000000028BFA3EBC143B3EB814F00BF40EBB8
:10077000000028BFA3EB8143B3EB414F00BF40EB28
:10078000000028BFA3EB4143B3EB014F00BF40EB98
:10079000000028BFA3EB0143B3EBC13F00BF40EB18
:1007A000000028BFA3EBC133B3EB813F00BF40EB98
:1007B000000028BFA3EB8133B3EB413F00BF40EB08
:1007C000000028BFA3EB4133B3EB013F00BF40EB78
:1007D000000028BFA3EB0133B3EBC12F00BF40EBF8
:1007E000000028BFA3EBC123B3EB812F00BF40EB78
:1007F000000028BFA3EB8123B3EB412F00BF40EBE8
:10080000000028BFA3EB4123B3EB012F00BF40EB57
:10081000000028BFA3EB0123B3EBC11F00BF40EBD7
:10082000000028BFA3EBC113B3EB811F00BF40EB57
:10083000000028BFA3EB8113B3EB411F00BF40EBC7
:10084000000028BFA3EB4113B3EB011F00BF40EB37
:10085000000028BFA3EB0113B3EBC10F00BF40EBB7
:10086000000028BFA3EBC103B3EB810F00BF40EB37
:10087000000028BFA3EB8103B3EB410F00BF40EBA7
:10088000000028BFA3EB4103B3EB010F00BF40EB17
:10089000000028BFA3EB0103BCF1000F48BF40429A
:1008A00070479CEA000F48BF4042704738BF0020A5
:1008B00004BF4FEAEC7040F001007047B1FA81F2DA
:1008C000C2F11F02BCF1000F23FA02F048BF404200
:1008D00070470028C8BF6FF00040B8BF4FF000401D
:1008E00000F00EB80029F4D02DE90340FFF7B3FE65
:1008F000BDE8064002FB00F3A1EB0301704700BF17
:10090000704700BF00000000000000000000000071
:10091000704700BFAFF30080AFF30080AFF30080FB
:10092000FEE700BFAFF30080AFF30080AFF30080BD
:1009300072B640F60004C2F2000484F309884FF056
:10094000020484F31488BFF36F8F40F20004C2F2F4
:10095000000440F20045C2F2000504E04FF05533B8
:10096000236004F10404AC42F8D340F20044C2F224
:10097000000440F60005C2F2000504E04FF05533D4
:10098000236004F10404AC42F8D304F019F848F2EF
:100990003015C0F6000540F60004C2F2000405E080
:1009A0002B68236004F1040405F1040540F6640398
:1009B000C2F200039C42F3D340F66804C2F2000482
:1009C00040F6BC75C2F2000504E04FF0000323605E
:1009D00004F10404AC42F8D3FFF79AFF40F2EC04B0
:1009E000C0F6000403E02368984704F1040440F2D1
:1009F000EC03C0F600039C42F5D306F001FF40F281
:100A0000EC04C0F6000403E02368984704F10404F2
:100A100040F2EC03C0F600039C42F5D3FFF780FFE1
:100A2000FEE700BFAFF30080AFF30080AFF30080BC
:100A300072B6FEE7AFF30080AFF30080AFF3008043
:100A400008B54FF0200383F3118800F0F9F94FF057
:100A5000000383F3118800F043F808BDAFF3008072
:100A600010B483B0EFF309840194019B03F12003D8
:100A70000193019B83F309884FF0000383F31188EE
:100A800003B010BC704700BFAFF30080AFF300802D
:100A900008B54FF46D43CEF200034FF000029A60A8
:100AA0004FF46D43CEF200034FF44072C0F2FA529D
:100AB000DA604FF007004FF0100100F031F94FF00D
:100AC0000A004FF0200100F02BF94FF00B004FF01F
:100AD000800100F025F908BDAFF30080AFF300807E
:100AE00010B483B04FF0200383F311884FF46D43AB
:100AF000CEF200035B6803F40063002B48D0EFF3F1
:100B000009840194019BA3F120030193019B83F3CA
:100B10000988019B4FF08072DA6140F68813C2F2B7
:100B200000039B69DB7F002B11D040F68813C2F2D3
:100B300000031B689A6840F68813C2F200039B69A1
:100B40009B689A4294BF00230123DBB210E040F679
:100B50008813C2F200031B689A6840F68813C2F239
:100B600000039B699B689A4234BF00230123DBB2D8
:100B7000002B06D0019A40F6A133C0F60003936122
:100B80000AE0019A40F6A433C0F60003936103E043
:100B90004FF0000383F3118803B010BC704700BF0F
:100BA00000F046FC00DF00BFAFF30080AFF3008031
:100BB00003460A462DE9F04FC2F80CD0D3F80CD00A
:100BC000BDE8F08FAFF30080AFF30080AFF300809B
:100BD0004FF0000383F311882846A04700F018FD6A
:100BE000704700BFAFF30080AFF30080AFF3008029
:100BF00084B001900091019B03F003034FEAC3030B
:100C000003934FF46143CEF20003019A4FEA92003E
:100C10004FF46142CEF2000201994FEA910101F1D5
:100C2000C00152F82110039A4FF0FF0C0CFA02F2A7
:100C30006FEA020201EA0201039ADDF800C00CFA31
:100C400002F241EA020100F1C00243F822104FF41F
:100C50006143CEF20003019A4FEA5212019901F06A
:100C60001F014FF0010000FA01F102F1600243F8A8
:100C700022104FF46143CEF20003019A4FEA521260
:100C8000019901F01F014FF0010000FA01F143F852
:100C9000221004B0704700BFAFF30080AFF30080B4
:100CA00084B00190019B03F003034FEAC303039355
:100CB0004FF46143CEF20003019A4FEA52120199B8
:100CC00001F01F014FF0010000FA01F102F12002D2
:100CD00043F822104FF46143CEF20003019A4FEA29
:100CE00092004FF46142CEF2000201994FEA910165
:100CF00001F1C00152F82110039A4FF0FF0C0CFAD9
:100D000002F26FEA020201EA020100F1C00243F8B6
:100D1000221004B0704700BFAFF30080AFF3008033
:100D200084B001900091019B03F003034FEAC303D9
:100D300003934FF46D43CEF20003019A4FEA920001
:100D40004FF46D42CEF2000201994FEA910101F198
:100D5000060152F82110039A4FF0FF0C0CFA02F230
:100D60006FEA020201EA0201039ADDF800C00CFA00
:100D700002F241EA020100F1060243F8221004B037
:100D8000704700BFAFF30080AFF30080AFF3008087
:100D900082B0019040F68813C2F200039A6947F6C8
:100DA000A003C0F600039361FEE700BFAFF300802D
:100DB00000B583B0FFF76CFE00F07AF900F0B0F8F0
:100DC00000F08EFF00F0FCFF40F63010C2F2000091
:100DD0004FF0400100F04CFB024640F68813C2F28F
:100DE00000039A6140F68813C2F200039B694FF03A
:100DF00001021A774FF0000383F3118862B640F6C0
:100E00008813C2F200039A6947F69013C0F60003F4
:100E1000936140F69153C0F600034FF00002009238
:100E200040F67000C2F200004FF0C0014FF0010226
:100E300000F0AEFB03B000BDAFF30080AFF3008065
:100E400000B583B040F68813C2F200039B69DB7FD4
:100E5000002B09D040F68813C2F200039B69DA7FA9
:100E600002F1FF32D2B2DA7740F68813C2F2000301
:100E70009B691A6A02F101021A6240F67813C2F203
:100E80000003DB6803F1010240F67813C2F20003AD
:100E9000DA6040F67813C2F200031B681A4640F687
:100EA0007813C2F200039A4235D040F67813C2F2AA
:100EB00000031B689A6802F1FF329A6021E0019BEF
:100EC000DB680093019B4FF00002DA60019B1A6817
:100ED00040F67813C2F200035360019B1A6840F693
:100EE0007813C2F200031A604FF0000383F31188F5
:100EF000019B1A69009B104698474FF0200383F32B
:100F0000118840F67813C2F200031B680193019B1D
:100F10009B68002BD3D003B000BD00BFAFF30080AF
:100F200040F67812C2F2000240F67813C2F20003D3
:100F30005A6040F67813C2F200035A6840F67813FC
:100F4000C2F200031A6040F67813C2F200034FF0B9
:100F5000FF329A6040F67813C2F200034FF00002AD
:100F6000DA607047AFF30080AFF30080AFF300802A
:100F700086B00390029101920093039B002B04D052
:100F8000019B002B01D0029B002B039B009A1A614E
:100F9000039B019ADA6040F67813C2F200031B68E3
:100FA000059308E0059B9B68029AC3EB020302933A
:100FB000059B1B680593059B9A68029B9A42F1D397
:100FC000039B059A1A60039B1B685A68039B5A602F
:100FD000039B5B68059A03995160059A52681A60F1
:100FE000039B029A9A60059A40F67813C2F20003B6
:100FF0009A4206D0059B9A68029BC3EB0202059BAE
:101000009A6006B0704700BFAFF30080AFF3008076
:1010100082B00190019B002B019BDB68002B019BA0
:101020001A6840F67813C2F200039A4208D0019B76
:101030001B68019A12689168019A92680A449A6042
:10104000019B5B68019A12681A60019B1B68019AF8
:1010500052685A60019B4FF00002DA6002B070479C
:1010600084B00190019B1B680393039B1A68019B4A
:101070001A60019B1B68019A5A60039B184604B0D2
:10108000704700BFAFF30080AFF30080AFF3008084
:1010900082B00190019B5B68019A12681A60019B03
:1010A0001B68019A52685A60019B184602B070474B
:1010B00040F68812C2F2000240F68813C2F2000322
:1010C0005A6040F68813C2F200035A6840F688134B
:1010D000C2F200031A6040F68813C2F200034FF018
:1010E00000029A6040F68812C2F2000240F68813AD
:1010F000C2F200035A6140F68813C2F200035A6933
:1011000040F68813C2F200031A617047AFF3008003
:1011100084B00190019B1B7F002B03D0019B1B7FA0
:101120000E2B00BF019B4FF000021A7740F6881388
:10113000C2F200030393039B1B680393039B9A680B
:10114000019B9B689A42F6D2019B039A1A60039B0B
:101150005A68019B5A60019B5B68039A0199516030
:10116000039A52681A60019B184604B0704700BF8A
:1011700000B585B003468DF8073040F68813C2F2FB
:1011800000039B690393039B9DF807201A77039B39
:101190004FF01402DA7740F68810C2F20000FFF731
:1011A0005FFF024640F68813C2F200039A6140F6E0
:1011B0008813C2F200039B694FF001021A7740F6D0
:1011C0008813C2F200039B6918460399FFF7F0FCED
:1011D00005B000BDAFF30080AFF30080AFF3008037
:1011E00000B585B00190019B03934FF0200383F37A
:1011F0001188039B1B7F0D2B2CD801A252F823F0E2
:101200003912000855120008551200084312000850
:10121000551200084F120008551200085512000818
:101220005512000855120008551200085512000802
:10123000551200084F1200084FF0000383F3118885
:1012400013E0039B5B6A9A6802F101029A600398BB
:10125000FFF71EFF039B4FF0FF325A620398FFF720
:1012600057FF4FF0000383F3118805B000BD00BFA6
:1012700000B589B0034600918DF80730009BB3F1AB
:10128000FF3F1AD040F68813C2F200039B6903AAFD
:101290001046009941F2E112C0F60002FFF768FE25
:1012A0009DF807301846FFF763FF069B002B0AD016
:1012B00003AB1846FFF7ACFE06E09DF80730184672
:1012C000FFF756FF00E000BF40F68813C2F20003AC
:1012D0009B695B6A184609B000BD00BFAFF3008090
:1012E00000B585B001900091019B009A5A62019B64
:1012F0009A6840F68813C2F200039B699B689A4281
:1013000003D80198FFF704FF17E040F68813C2F2F4
:1013100000039B691846FFF7FBFE0346039340F664
:101320008813C2F20003019A9A61019B4FF00102F7
:101330001A7701980399FFF73BFC05B000BD00BF89
:1013400000B583B040F68813C2F200039B69019395
:1013500040F68810C2F20000FFF782FE024640F617
:101360008813C2F200039A6140F68813C2F20003A8
:101370009B694FF001021A77019B4FF01402DA7754
:101380000198FFF7C5FE40F68813C2F200039B697F
:1013900018460199FFF70CFC03B000BDAFF30080C5
:1013A00000B583B040F68813C2F200039B69009336
:1013B00040F68810C2F20000FFF752FE024640F6E7
:1013C0008813C2F200039A6140F68813C2F2000348
:1013D0009B694FF001021A77009B4FF000021A77C9
:1013E00040F68813C2F200030193019B1B6801932E
:1013F000019B9A68009B9B689A42F6D8009B019AD1
:101400001A60019B5A68009B5A60009B5B68019AB6
:1014100000995160019A52681A6040F68813C2F22E
:1014200000039B6918460099FFF7C2FB03B000BD9B
:1014300008B540F68813C2F200039B69DB7F002BDE
:1014400002D1FFF77DFF01E0FFF7AAFF08BD00BF53
:1014500084B00190019B1B680393039B1A68019B56
:101460001A60039B184604B0704700BFAFF30080BA
:1014700082B001900091019B009A9A60019B4FF00D
:1014800002021A77019B4FF000025A77019B4FF03E
:101490001402DA77019B009A1A64019B4FF0000254
:1014A000DA63019B4FF000029A63019B4FF0000248
:1014B0001A62019B4FF001029A77019B4FF00002E4
:1014C0009A6140F68813C2F20003019A136140F654
:1014D0008813C2F200035A69019B5A61019B5A6941
:1014E00040F68813C2F200030199596140F688134F
:1014F000C2F200035B691361019B03F128031A46E2
:10150000019B9A62019B03F12C031A46019B1A630B
:10151000019B1A6B019BDA62019B184602B070476F
:1015200000B587B00390029101920093039B05934D
:10153000039B002B07D0029BAF2B04D9019B7F2B71
:1015400001D8009B002B039A029BA3F124031A44A9
:10155000059BDA60059BDB68009A1A60059BDB68D7
:10156000089A5A60059BDA6840F6D133C0F600034A
:10157000136205980199FFF77BFF0346184607B0F1
:1015800000BD00BFAFF30080AFF30080AFF3008079
:1015900000B589B005900491039202934FF02003A7
:1015A00083F311880A9B009305980499039A029B80
:1015B000FFF7B6FF0346079307984FF00001FFF7C8
:1015C0008FFE4FF0000383F31188079B184609B084
:1015D00000BD00BFAFF30080AFF30080AFF3008029
:1015E00000B583B00190019B002B4FF0200383F3E3
:1015F00011884FF006000199FFF73AFE4FF0000303
:1016000083F3118803B000BDAFF30080AFF3008017
:1016100000B583B001904FF0200383F31188019847
:1016200000F006F803B000BDAFF30080AFF3008018
:1016300000B585B0019040F68813C2F200039B69A3
:101640000393039B019A5A6209E0039B03F1280369
:101650001846FFF7FDFE03461846FFF759FD039BAA
:101660009A6A039B03F128039A42EED1039B5B7FA6
:1016700003F00303002B09D1039B5B69039A1269F2
:101680001A61039B1B69039A52695A614FF00E005D
:10169000FFF76EFD05B000BDAFF30080AFF3008033
:1016A00082B00190019B002B019B1A46019B5A605E
:1016B000019B5A68019B1A60019B4FF000029A60DF
:1016C00002B07047AFF30080AFF30080AFF300804B
:1016D00000B585B001900091019B002B019B1B6818
:1016E000039311E0039BDA68009B42EA0302039B29
:1016F000DA60039B5A68039B9B681046194600F00A
:101700000FF8039B1B680393019B039A9A42E9D14C
:1017100005B000BDAFF30080AFF30080AFF30080F1
:1017200000B583B001900091019B002B019B9A6B47
:10173000009B42EA0302019B9A63019B1B7F082BDB
:1017400007D1019B9A6B019B5B6A02EA0303002BA2
:101750000DD1019B1B7F092B10D1019B9A6B019B23
:101760005B6A02EA0302019B5B6A9A4206D1019816
:10177000FFF7CEFC03464FF000025A6203B000BDF3
:1017800082B001900091009A019B1A60009B5A68F8
:10179000019B5A60019B5B68009A01995160009A15
:1017A00052681A6002B07047AFF30080AFF3008058
:1017B00084B00190019B1B680393039B1A68019BF3
:1017C0001A60019B1B68019A5A60039B184604B07B
:1017D000704700BFAFF30080AFF30080AFF300802D
:1017E00000B583B001900091009B002B02D14FF017
:1017F000FF3316E040F68813C2F200039B69019A9A
:101800005A6240F68813C2F200039A69019B10469F
:101810001946FFF7B5FF4FF00D000099FFF728FDBF
:101820000346184603B000BDAFF30080AFF300805D
:1018300084B00390029101920093039B1A46039B8C
:101840005A60039B5A68039B1A60039B4FF0000287
:101850009A60039B029A5A61039B5A69039B9A619F
:10186000039B9A69039BDA60029A019B1A44039BCB
:101870001A61039B009ADA61039B049A1A6204B00E
:10188000704700BFAFF30080AFF30080AFF300807C
:1018900000B583B001900B468DF80330019B5A6967
:1018A000019B9B699A4206D1019B9B68002B02D049
:1018B0004FF0010301E04FF00003DBB2002B02D038
:1018C0006FF003032BE0019B9B6803F10102019B76
:1018D0009A60019B5B699DF803201A7003F1010275
:1018E000019B5A61019B5A69019B1B699A4203D370
:1018F000019BDA68019B5A61019B1A68019B9A421D
:101900000BD0019B1846FFF753FF03461846FFF71D
:10191000FFFB03464FF000025A624FF000031846E7
:1019200003B000BDAFF30080AFF30080AFF30080E1
:1019300000B585B0019000914FF0200383F311882A
:10194000019BDB69002B13D0019BDB690198984751
:101950000FE001980099FFF743FF03460393039BB1
:10196000002B06DA4FF0000383F31188039B23E07A
:1019700000BF019B9B68002BEBD0019B9B6803F190
:10198000FF32019B9A60019B9B691A788DF80B20AE
:1019900003F10102019B9A61019B9A69019B1B69FA
:1019A0009A4203D3019BDA68019B9A614FF00003CE
:1019B00083F311889DF80B30184605B000BD00BFB9
:1019C00000B587B00390029101920093039BDB69FD
:1019D00004934FF000030593019B002B4FF020036D
:1019E00083F31188049B002B10D0049B0398984725
:1019F0000DE003980099FFF7F3FE0346002B06D095
:101A00004FF0000383F31188059B37E000BF039B71
:101A10009B68002BEDD0039B9B6803F1FF32039B77
:101A20009A60039B9B691978029A1170029A02F1DD
:101A30000102029203F10102039B9A61039B9A69DE
:101A4000039B1B699A4203D3039BDA68039B9A6149
:101A50004FF0000383F31188059B03F10103059305
:101A6000019B03F1FF330193019B002B01D1059BE7
:101A700004E04FF0200383F31188B3E7184607B062
:101A800000BD00BFAFF30080AFF30080AFF3008074
:101A900084B00390029101920093039B1A46039B2A
:101AA0005A60039B5A68039B1A60039B019A9A60D1
:101AB000039B029A5A61039B5A69039B9A61039B99
:101AC0009A69039BDA60029A019B1A44039B1A618C
:101AD000039B009ADA61039B049A1A6204B0704770
:101AE00000B587B003900B4601928DF80B304FF094
:101AF000200383F311880EE003980199FFF770FE2D
:101B000003460593059B002B05DA4FF0000383F392
:101B10001188059B2AE0039B9B68002BECD0039B5C
:101B20009B6803F1FF32039B9A60039B5B699DF8FE
:101B30000B201A7003F10102039B5A61039B5A693F
:101B4000039B1B699A4203D3039BDA68039B5A6188
:101B5000039BDB69002B03D0039BDB690398984749
:101B60004FF0000383F311884FF00003184607B0CD
:101B700000BD00BFAFF30080AFF30080AFF3008083
:101B800000B585B00190019B5A69019B9B699A42FF
:101B900006D1019B9B68002B02D04FF0010301E0AE
:101BA0004FF00003DBB2002B02D06FF002032BE0FA
:101BB000019B9B6803F10102019B9A60019B9B6959
:101BC0001A788DF80F2003F10102019B9A61019BA5
:101BD0009A69019B1B699A4203D3019BDA68019BB6
:101BE0009A61019B1A68019B9A420BD0019B18468F
:101BF000FFF7DEFD03461846FFF78AFA03464FF06B
:101C000000025A629DF80F30184605B000BD00BFB3
:101C100000B587B00390029101920093039BDB69AA
:101C200004934FF000030593019B002B4FF020031A
:101C300083F311880CE003980099FFF7D1FD034668
:101C4000002B05D04FF0000383F31188059B3DE086
:101C5000039B9B68002BEED0039B9B6803F1FF3234
:101C6000039B9A60039B5B69029A12781A7003F1D6
:101C70000102039B5A61029B03F101030293039B40
:101C80005A69039B1B699A4203D3039BDA68039B3F
:101C90005A61049B002B02D0049B039898474FF095
:101CA000000383F31188059B03F101030593019B56
:101CB00003F1FF330193019B002B01D1059B05E04C
:101CC0004FF0200383F3118800BFC1E7184607B027
:101CD00000BD00BFAFF30080AFF30080AFF3008022
:101CE00040F6BC73C2F2000303F1070323F00703BD
:101CF0001A4640F6A413C2F200031A6042F200032F
:101D0000C2F2000323F007031A4640F6A813C2F2FA
:101D100000031A60704700BFAFF30080AFF300808C
:101D200000B585B001904FF0200383F3118801982E
:101D300000F00EF8034603934FF0000383F311887D
:101D4000039B184605B000BDAFF30080AFF30080E1
:101D500084B00190019B03F1070323F00703019373
:101D600040F6A813C2F200031B681A4640F6A413FB
:101D7000C2F200031B68C3EB02031A46019B9A429E
:101D800002D24FF0000312E040F6A413C2F20003A7
:101D90001B68039340F6A413C2F200031A68019B68
:101DA0001A4440F6A413C2F200031A60039B1846BB
:101DB00004B07047AFF30080AFF30080AFF3008052
:101DC00008B540F6B013C2F2000341F62152C0F646
:101DD00000021A6040F6B013C2F200034FF0000296
:101DE0009A6040F6B013C2F200034FF00002DA60CE
:101DF0000148FFF755FC08BDC0090020AFF3008083
:101E000008B501F0EDFC01F013FA47F6A030C0F67A
:101E1000000001F065FE00F013F800F021FF01F072
:101E200017F801F085F800F0A3FA00F031FF02F096
:101E3000CFFD08BDAFF30080AFF30080AFF30080AB
:101E400008B501F0DDFD08BDAFF30080AFF3008001
:101E500000B583B00190019B4FF001021A70019B05
:101E60004FF000025A60019B4FF000029A60019B04
:101E70004FF00002DA60019B4FF000021A61019BF3
:101E80004FF000025A61019B03F118031846FFF757
:101E900007FC03B000BD00BFAFF30080AFF30080CC
:101EA00000B585B00390029101920093039B184600
:101EB000029900F0E5FB0346002B15D04FF001031B
:101EC00021E0039B1846019900F02AFC0346002BF1
:101ED00002D04FF0010316E0019B03F5007301935C
:101EE000009B03F1FF330093009B002BE9D1039B80
:101EF000184600F06DFC0346002B02D04FF00103A2
:101F000001E04FF00003184605B000BDAFF30080BC
:101F100000B585B00390029101920093039B18468F
:101F2000029900F085FC0346002B15D04FF0010309
:101F300021E0039B1846019900F0CAFC0346002BE0
:101F400002D04FF0010316E0019B03F500730193EB
:101F5000009B03F1FF330093009B002BE9D1039B0F
:101F6000184600F00DFD0346002B02D04FF0010390
:101F700001E04FF00003184605B000BDAFF300804C
:101F800084B00346029101928DF80F3012E09DF863
:101F90000F304FEA4302029B1B7882EA030247F6A6
:101FA000D013C0F600039B5C8DF80F30029B03F149
:101FB00001030293019B002B0CBF00230123DBB222
:101FC000019A02F1FF320192002BE0D19DF80F300F
:101FD000184604B0704700BFAFF30080AFF3008035
:101FE00000B585B001904FF00003039311E0019B11
:101FF000DB6A1A6802AB10464FF001011A4601F085
:102000009FF89DF80830FF2B19D0039B03F10103C3
:102010000393039B0F2BEADD019BDB6A1A6802AB7B
:1020200010464FF001011A4601F08AF89DF8083079
:10203000FF2B06D04FF00100FFF7D2FAECE700BF0C
:1020400000E000BF05B000BDAFF30080AFF300803B
:1020500000B587B003900B4601928DF80B300398C2
:10206000FFF7BEFF9DF80B3043F04003DBB28DF865
:102070001030019B4FEA1363DBB28DF81130019BE6
:102080004FEA1343DBB28DF81230019B4FEA132362
:10209000DBB28DF81330019BDBB28DF8143004AB4A
:1020A0004FF0000019464FF00502FFF769FF0346A5
:1020B0004FEA4303DBB243F00103DBB2DBB28DF83E
:1020C0001530039BDB6A1A6804AB10464FF006011B
:1020D0001A4600F0FDFF07B000BD00BFAFF300805F
:1020E00000B585B001904FF00003039314E0019B0D
:1020F000DB6A1A6802AB10464FF001011A4601F084
:102100001FF89DF80830FF2B02D09DF8083008E03A
:10211000039B03F101030393039B082BE7DD4FF0BF
:10212000FF03184605B000BDAFF30080AFF3008099
:1021300000B585B0019000910198FFF7D1FF0346EB
:102140008DF80F30019BDB6A1B6818464FF00401C5
:10215000009A00F0F5FF9DF80F30184605B000BD5D
:1021600000B587B003900B4601928DF80B30039BAE
:10217000DB6A1B68184600F04BFF9DF80B30039894
:102180001946019AFFF764FF0398FFF7A9FF03467A
:102190008DF81730039BDB6A1B68184600F050FF70
:1021A0009DF81730184607B000BD00BFAFF30080A0
:1021B00000B587B00390019200930B468DF80B3069
:1021C000039BDB6A1B68184600F022FF9DF80B306A
:1021D00003981946019AFFF73BFF03980099FFF710
:1021E000A7FF03468DF81730039BDB6A1B68184670
:1021F00000F026FF9DF81730184607B000BD00BF5D
:1022000000B58DB003900B4601928DF80B30039B07
:10221000DB6A1B68184600F0FBFE9DF80B30039844
:1022200019464FF00002FFF713FF0398FFF758FF1E
:102230000346002B08D0039BDB6A1B68184600F09E
:10224000FFFE4FF0010366E04FF000030B935BE0ED
:10225000039BDB6A1A6805AB10464FF001011A4672
:1022600000F06EFF9DF81430FE2B49D1039BDB6A12
:102270001A6805AB10464FF010011A4600F060FFD7
:1022800005AB0A93019B03F10C03099323E00A9B1E
:102290001B784FEA03620A9B03F101031B784FEAA4
:1022A000034342EA03020A9B03F102031B784FEA4D
:1022B000032342EA03020A9B03F103031B7842EA69
:1022C0000302099B1A600A9B03F104030A93099B0A
:1022D000A3F104030993099A019B9A42D7D2039B65
:1022E000DB6A1B6818464FF0020100F0C1FE039B39
:1022F000DB6A1B68184600F0A3FE4FF000030AE0FB
:102300000B9B03F101030B930B9A42F20F739A425A
:102310009ED94FF0010318460DB000BDAFF3008009
:1023200000B585B00190019BDB6A1B68184600F080
:102330006FFE019BDB6A1A6803AB10464FF0010188
:102340001A4600F0FDFE9DF80C30FF2B07D1019BD3
:10235000DB6A1B68184600F073FE05B000BD4FF045
:102360000100FFF73DF9E4E7AFF30080AFF3008031
:10237000704700BFAFF30080AFF30080AFF3008081
:1023800082B00190019A47F6B013C0F600031360C3
:10239000019B4FF001021A71019B4FF00002DA62BB
:1023A000019B4FF0000283F8302002B0704700BF5D
:1023B00082B001900091019B002B01D0009B002B6B
:1023C000019B1B79012B03D0019B1B79022B00BFC2
:1023D000019B009ADA62019B4FF002021A7102B06F
:1023E000704700BFAFF30080AFF30080AFF3008011
:1023F00000B587B00190019B002B019B1B79022B3C
:1024000003D0019B1B79052B00BF019B4FF00302FA
:102410001A71019BDB6A1A68019BDB6A5B681046D4
:10242000194600F0A5FD019BDB6A1B6818464FF0BA
:10243000100100F01DFE4FF00003059301984FF0CE
:1024400000014FF00002FFF78BFE0346012B0BD17A
:1024500003AB01984FF008014FF4D572FFF7A8FEC7
:102460000346052B0DD146E0059B03F101030593BF
:10247000059B092B00F2A1804FF00A00FFF7B0F88E
:10248000DCE74FF00003059301984FF037014FF060
:102490000002FFF765FE0346012B1BD103AB019839
:1024A0004FF029014FF4D572C4F20002FFF780FE0D
:1024B0000346002B0ED103AB01984FF03A014FF0C9
:1024C0000002FFF775FE9DF80C3003F04003002B6F
:1024D0000CD110E0059B03F101030593059B632BD1
:1024E0006DD84FF00A00FFF77BF8CDE7019B4FF066
:1024F000010283F830204FF00003059301984FF05C
:1025000001014FF00002FFF72BFE03468DF8133058
:102510009DF81330002B14D1019BDB6A1A68019BD4
:10252000DB6A9B681046194600F022FD01984FF0C7
:1025300010014FF40072FFF713FE0346002B40D149
:102540000FE09DF81330012B3DD1059B03F10103F2
:102550000593059B632B38D84FF00A00FFF740F82E
:10256000CCE7019B03F1180301984FF009011A46CB
:10257000FFF746FE0346002B29D1019B03F1180308
:10258000184600F01DFB0246019B9A62019B9B6A64
:10259000002B1ED0019B03F1080301984FF00A01A4
:1025A0001A46FFF72DFE0346002B14D1019B4FF076
:1025B00005021A714FF000031AE000BF0CE000BFE3
:1025C0000AE000BF08E000BF06E000BF04E000BF73
:1025D00002E000BF00E000BF019BDB6A1B681846F9
:1025E00000F0EEFC019B4FF002021A714FF0010364
:1025F000184607B000BD00BFAFF30080AFF3008006
:1026000000B583B00190019B002B4FF0200383F3B2
:102610001188019B1B79022B03D0019B1B79052B91
:1026200000BF019B1B79022B06D14FF0000383F3FF
:1026300011884FF0000320E0019B4FF004021A7153
:102640004FF0000383F31188019BDB6A1A68019B3A
:10265000DB6A9B681046194600F08AFC0198FFF778
:102660005FFE019BDB6A1B68184600F0A9FC019B1A
:102670004FF002021A714FF00003184603B000BD7C
:1026800000B583B001900091019B002B019B1B7949
:10269000052B019B4FF006021A71019BDB6A1A6839
:1026A000019BDB6A9B681046194600F061FC019BA8
:1026B000DB6A1B68184600F0ABFC019B93F83030D6
:1026C000002B06D001984FF01201009AFFF7C0FCD2
:1026D00008E0009B4FEA432301984FF012011A468D
:1026E000FFF7B6FC0198FFF7FBFC0346002B0CD06C
:1026F000019BDB6A1B68184600F062FC019B4FF0EF
:1027000005021A714FF0010301E04FF00003184673
:1027100003B000BDAFF30080AFF30080AFF30080E3
:1027200000B585B001900091019B002B01D0009B6A
:10273000002B019B1B79062B02D04FF001033FE0D9
:102740004FF00003039324E0019BDB6A1B681846EB
:102750004FF00101009A00F0F3FC009B1B78FE2B68
:1027600013D1019BDB6A1B6818464FF40071009A75
:1027700000F0E6FC019BDB6A1B6818464FF0020183
:1027800000F076FC4FF000031AE0039B03F1010315
:102790000393039A42F20F739A42D5DD019BDB6AE1
:1027A0001B68184600F04CFC019BDB6A1B6818464E
:1027B00000F006FC019B4FF005021A714FF0010377
:1027C000184605B000BD00BFAFF30080AFF3008036
:1027D00000B583B00190019B002B019B1B79062B58
:1027E00002D04FF001031AE0019BDB6A1B68184618
:1027F0004FF0070147F6F022C0F6000200F068FC37
:102800000198FFF76DFC019BDB6A1B68184600F01E
:1028100017FC019B4FF005021A714FF00003184698
:1028200003B000BDAFF30080AFF30080AFF30080D2
:1028300000B583B001900091019B002B019B1B7997
:10284000052B019B4FF007021A71019BDB6A1A6886
:10285000019BDB6A9B681046194600F089FB019BCF
:10286000DB6A1B68184600F0D3FB019B93F83030FD
:10287000002B06D001984FF01901009AFFF7E8FBF2
:1028800008E0009B4FEA432301984FF019011A46D4
:10289000FFF7DEFB0198FFF723FC0346002B0CD06B
:1028A000019BDB6A1B68184600F08AFB019B4FF016
:1028B00005021A714FF0010301E04FF000031846C2
:1028C00003B000BDAFF30080AFF30080AFF3008032
:1028D00000B585B001900091019B002B01D0009BB9
:1028E000002B019B1B79072B02D04FF0010344E022
:1028F000019BDB6A1B6818464FF0020147F6E02295
:10290000C0F6000200F0E4FB019BDB6A1B6818467E
:102910004FF40071009A00F0DBFB019BDB6A1B683F
:1029200018464FF0020100F0A3FB019BDB6A1A6816
:1029300003AB10464FF001011A4600F001FC9DF870
:102940000C3003F01F03052B05D10198FFF748FB5E
:102950004FF0000311E0019BDB6A1B68184600F092
:102960006FFB019BDB6A1B68184600F029FB019B8B
:102970004FF005021A714FF00103184605B000BD73
:1029800000B583B00190019B002B019B1B79072BA5
:1029900002D04FF0010317E0019BDB6A1B68184669
:1029A0004FF0020147F6D022C0F6000200F090FB83
:1029B000019BDB6A1B68184600F042FB019B4FF04D
:1029C00005021A714FF00003184603B000BD00BFA6
:1029D00000B583B00190019B002B019B1B79052B57
:1029E00002D04FF0010316E0019B4FF008021A716C
:1029F000019BDB6A1A68019BDB6A9B6810461946DB
:102A000000F0B6FA0198FFF78BFC019B4FF005022E
:102A10001A714FF00003184603B000BDAFF30080F9
:102A200082B001900091019B002B01D0009B002BF4
:102A3000019B1B79052B02D04FF0010309E0019B9C
:102A40009A6A009B5A60009B4FF400721A604FF024
:102A50000003184602B07047AFF30080AFF3008068
:102A600000B585B0039002910192039B002B039B5C
:102A70004FF007021A71039B93F8303083F0010383
:102A8000DBB2002B07D0029B4FEA43230293019B4A
:102A90004FEA4323019303984FF02001029AFFF776
:102AA0005FFB0346002B19D103984FF02101019AD7
:102AB000FFF756FB0346002B12D103984FF0260177
:102AC0004FF00002FFF74CFB0346002B0AD1039B9B
:102AD0004FF005021A714FF0000310E000BF02E052
:102AE00000BF00E000BF039BDB6A1B68184600F0D4
:102AF00067FA039B4FF005021A714FF00103184665
:102B000005B000BDAFF30080AFF30080AFF30080ED
:102B100088B0039002910192029A019B9A4204D3D9
:102B2000029A019BC3EB02031F2B019B4FEA531335
:102B30000793019B03F01F030693029B4FEA531375
:102B40000593029B03F01F0303F101034FF0010201
:102B500002FA03F303F1FF330493079A059B9A42A9
:102B600019D2079B4FEA8303039A13441A68069B02
:102B700022FA03F2059B4FEA830303990B44196879
:102B8000049B01EA0301069BC3F1200301FA03F34E
:102B900042EA03030BE0079B4FEA8303039A1344C3
:102BA0001A68049B02EA0302069B22FA03F3184602
:102BB00008B07047AFF30080AFF30080AFF3008040
:102BC00000B587B00190019B03F10C031B684FEA2D
:102BD0009373002B02D0012B29D035E001984FF0E0
:102BE00049014FF03E02FFF793FF0346059301981A
:102BF0004FF031014FF02F02FFF78AFF0346049395
:102C000001984FF053014FF05002FFF781FF034648
:102C10000393059B03F10102049B03F1020302FAF3
:102C200003F2039BA3F1090302FA03F30EE00198F8
:102C30004FF045014FF03002FFF76AFF034603F102
:102C400001034FEA832301E04FF00003184607B069
:102C500000BD00BFAFF30080AFF30080AFF3008092
:102C600008B501F05DFD08BDAFF30080AFF3008053
:102C700082B00190019B4FF001021A70019B4FF04E
:102C800000025A6002B07047AFF30080AFF30080DB
:102C900008B501F0BDF808BDAFF30080AFF30080C8
:102CA00000B583B001900091019B002B01D0009BE7
:102CB000002B4FF0200383F311880198009901F055
:102CC000DFF84FF0000383F3118803B000BD00BFAD
:102CD00000B583B00190019B002B019801F030F901
:102CE0000346184603B000BDAFF30080AFF3008089
:102CF00000B585B0039002910192039B03F130036C
:102D000018460299019A4FF0FF33FEF781FF034600
:102D1000184605B000BD00BFAFF30080AFF30080E0
:102D200000B585B0039002910192039B03F10C035F
:102D300018460299019A4FF0FF33FEF741FE034611
:102D4000184605B000BD00BFAFF30080AFF30080B0
:102D500000B583B001900B468DF80330019B03F161
:102D600030029DF80330104619464FF0FF32FEF74F
:102D7000B7FE0346184603B000BD00BFAFF30080A6
:102D800000B583B00190019B03F10C0318464FF08E
:102D9000FF31FEF7CDFD0346184603B000BD00BF6E
:102DA00000B585B003900B4601928DF80B30039B64
:102DB00003F130029DF80B3010461946019AFEF7D8
:102DC0008FFE0346184605B000BD00BFAFF300807C
:102DD00000B583B001900091019B03F10C031846EC
:102DE0000099FEF7A5FD0346184603B000BD00BFDD
:102DF00000B585B00390029101920093039B03F10B
:102E0000300318460299019A009BFEF701FF034622
:102E1000184605B000BD00BFAFF30080AFF30080DF
:102E200000B585B00390029101920093039B03F1DA
:102E30000C0318460299019A009BFEF7C1FD034658
:102E4000184605B000BD00BFAFF30080AFF30080AF
:102E500008B501F09DFD08BDAFF30080AFF3008021
:102E600000B587B0059004910392059A47F60033A8
:102E7000C0F600031360059B03F104031A46059B8B
:102E80005A60059B4FF001021A72059B03F10C0278
:102E9000059B03F1540305990091104619464FF024
:102EA0001002049BFEF7C4FC059B03F13002059B56
:102EB00003F1640305990091104619464FF0100282
:102EC000039BFEF7E5FD07B000BD00BFAFF3008038
:102ED00000B583B001900B468DF80330019B002BA9
:102EE000019B5B69002B07D1019B03F1040318468A
:102EF0004FF00401FEF7ECFB019B03F10C029DF87F
:102F0000033010461946FEF7C3FC0346002B07DAD0
:102F1000019B03F1040318464FF08001FEF7D8FB34
:102F200003B000BDAFF30080AFF30080AFF30080CB
:102F300008B501F0BDF808BDAFF30080AFF3008025
:102F400000B583B00190019B4FF001021A70019B04
:102F50004FF000025A60019B4FF000029A60019B03
:102F600003F10C031846FEF79BFB03B000BD00BF46
:102F700000B583B001900091019B002B01D0009B14
:102F8000002B4FF0200383F31188019B1B78012B4A
:102F900003D0019B1B78022B00BF019B009A5A6053
:102FA000019801F0EDF8019B4FF002021A704FF00A
:102FB000000383F3118803B000BD00BFAFF30080AE
:102FC00000B583B00190019B002B4FF0200383F3E9
:102FD0001188019B1B78012B03D0019B1B78022BCE
:102FE00000BF019801F0E4F9019801F089F9019B13
:102FF0004FF001021A704FF0000383F3118803B001
:1030000000BD00BFAFF30080AFF30080AFF30080DE
:1030100000B583B00190019B002B4FF0200383F398
:103020001188019B1B78022B019801F0B1F94FF038
:10303000000383F3118803B000BD00BFAFF300802D
:1030400000B583B00190019B002B4FF0200383F368
:103050001188019B1B78022B019801F0A9F94FF010
:10306000000383F3118803B000BD00BFAFF30080FD
:1030700000B583B001900091019B002B01D0009B13
:10308000002B4FF0200383F31188019B1B78022B48
:10309000019B5B681B68002B019B4FF003021A70B9
:1030A0000198009901F094F9019B9B68002B40F670
:1030B0008813C2F200039A69019B9A604FF00200E4
:1030C000FEF756F84FF0000383F3118803B000BDFC
:1030D00000B585B0039002910192039B002B04D0B0
:1030E000029B002B01D0019B002B4FF0200383F3A8
:1030F0001188039B1B78022B039B5B681B68002BCA
:10310000039B4FF003021A7003980299019A01F091
:103110009FF9039B9B68002B40F68813C2F20003C3
:103120009A69039B9A604FF00200FEF721F84FF076
:10313000000383F3118805B000BD00BFAFF300802A
:1031400000B585B0039002910192039B002B04D03F
:10315000029B002B01D0019B002B4FF0200383F337
:103160001188039B1B78022B039B5B681B68002B59
:10317000039B4FF003021A7003980299019A01F021
:10318000A7F9039B9B68002B40F68813C2F200034B
:103190009A69039B9A604FF00200FDF7E9FF4FF038
:1031A000000383F3118805B000BD00BFAFF30080BA
:1031B00082B001904FF48053CEF200035A68019B15
:1031C0009A6002B0704700BFAFF30080AFF3008099
:1031D00084B001904FF48053CEF200035B680393F8
:1031E000019B9B68039AC3EB020240F6D013C2F224
:1031F00000031B68C3EB0202019B9A60019B9A6863
:10320000019BDB689A4204D9019B9A68019BDA60B2
:1032100009E0019B9A68019B1B699A4203D2019BBA
:103220009A68019B1A6104B0704700BFAFF3008039
:1032300000B587B040F6D013C2F200034FF0000291
:103240001A6001AB184600F013F8019B01AA104662
:103250009847029B01AA10469847039A40F6D0135C
:10326000C2F200031A6007B000BD00BFAFF30080D8
:1032700082B00190019A43F2B113C0F600031360CB
:10328000019A43F2D113C0F600035360019B4FF043
:1032900000029A60019B4FF00002DA60019B4FF040
:1032A000FF321A6102B07047AFF30080AFF30080C5
:1032B00000B583B04FF00003C4F202031B6803F0B3
:1032C0000F0301934FF00003C4F20203019A5A6006
:1032D00040F6D813C2F200031B68002B0CD040F656
:1032E000D813C2F200031A6840F6D813C2F20003E2
:1032F0005B68184601999047FDF7F2FB03B000BDEB
:1033000000B583B04FF00003C4F202031B684FEA1C
:10331000131303F00F0301934FF00003C4F20203F1
:10332000019A4FEA02125A6040F6D813C2F2000323
:103330009B68002B0CD040F6D813C2F200039A68A9
:1033400040F6D813C2F20003DB6818460199904793
:10335000FDF7C6FB03B000BDAFF30080AFF3008004
:1033600000B583B04FF00003C4F202031B684FEABC
:10337000132303F00F0301934FF00003C4F2020381
:10338000019A4FEA02225A6040F6D813C2F20003B3
:103390001B69002B0CD040F6D813C2F200031A6947
:1033A00040F6D813C2F200035B69184601999047B2
:1033B000FDF796FB03B000BDAFF30080AFF30080D4
:1033C00000B583B04FF00003C4F202031B684FEA5C
:1033D000133303F00F0301934FF00003C4F2020311
:1033E000019A4FEA02325A6040F6D813C2F2000343
:1033F0009B69002B0CD040F6D813C2F200039A69E7
:1034000040F6D813C2F20003DB69184601999047D1
:10341000FDF766FB03B000BDAFF30080AFF30080A3
:1034200000B583B04FF00003C4F202031B684FEAFB
:10343000134303F00F0301934FF00003C4F20203A0
:10344000019A4FEA02425A6040F6D813C2F20003D2
:103450001B6A002B0CD040F6D813C2F200031A6A84
:1034600040F6D813C2F200035B6A184601999047F0
:10347000FDF736FB03B000BDAFF30080AFF3008073
:1034800000B583B04FF00003C4F202031B684FEA9B
:10349000135303F00F0301934FF00003C4F2020330
:1034A000019A4FEA02525A6040F6D813C2F2000362
:1034B0009B6A002B0CD040F6D813C2F200039A6A24
:1034C00040F6D813C2F20003DB6A18460199904710
:1034D000FDF706FB03B000BDAFF30080AFF3008043
:1034E00000B583B04FF00003C4F202031B684FEA3B
:1034F000136303F00F0301934FF00003C4F20203C0
:10350000019A4FEA02625A6040F6D813C2F20003F1
:103510001B6B002B0CD040F6D813C2F200031A6BC1
:1035200040F6D813C2F200035B6B1846019990472E
:10353000FDF7D6FA03B000BDAFF30080AFF3008013
:1035400082B040F6D413C2F200034FF000021A60BA
:103550004FF0000301931CE047F62032C0F6000252
:1035600001990B464FEA43030B444FEA830313448C
:103570001B684FF000021A6040F6D813C2F2000335
:10358000019A4FF0000143F83210019B03F101034F
:103590000193019B062BDFDD4FF00003C4F2020311
:1035A0004FF0FF325A6002B0704700BFAFF30080A7
:1035B00000B585B00390029101920093039B002B0C
:1035C000039B5B7A4FF0010202FA03F31A4640F6BE
:1035D000D413C2F200031B6802EA0303002B02D0DB
:1035E0004FF0010361E0039B5B7A1A4640F6D81363
:1035F000C2F20003019943F83210039B5B7A40F654
:10360000D812C2F200024FEAC3031344009A5A6070
:10361000039B5B7A4FF0010202FA03F31A4640F66D
:10362000D413C2F200031B6842EA030240F6D4132B
:10363000C2F200031A6040F6D413C2F200031B6802
:1036400003F07F03002B0BD04FF48053C4F202032E
:103650004FF48052C4F20202526942F001025A61F0
:10366000039B1B68039A1268126822F00F021A600B
:10367000039B5B68039A127A4FF00F0101FA02F282
:103680001A60039B1B684FF000021A60019B002B1D
:1036900009D0039B9B7A1A46029B4FEA03131046FC
:1036A0001946FDF7A5FA4FF00003184605B000BD16
:1036B00000B583B00190019B002B019B5B7A4FF01A
:1036C000010202FA03F31A4640F6D413C2F20003D1
:1036D0001B6802EA0303002B019B9B7A1846FDF747
:1036E000DFFA019B5B7A4FF0010202FA03F36FEA03
:1036F00003031A4640F6D413C2F200031B6802EA21
:10370000030240F6D413C2F200031A6040F6D41349
:10371000C2F200031B6803F07F03002B0BD14FF4B0
:103720008053C4F202034FF48052C4F20202526981
:1037300022F001025A6103B000BD00BFAFF3008068
:1037400008B54FF4E043C4F200034FF4E042C4F282
:103750000002126842F480721A604FF48053C4F27F
:1037600002031B6A03F44073B3F5407F0DD04FF49E
:103770008053C4F202034FF480321A624FF4805334
:10378000C4F202034FF000021A624FF48053C4F2F5
:1037900002031B6A03F40043002B19D14FF480533A
:1037A000C4F202034FF48052C4F20202126A42F4DD
:1037B00040721A6200F0F4FA4FF48053C4F202032C
:1037C0004FF48052C4F20202126A42F400421A62BA
:1037D00008BD00BFAFF30080AFF30080AFF30080FF
:1037E00008B54FF48053C4F202031B694FF48053B1
:1037F000C4F202034FF0FF321A614FF48053C4F257
:1038000002034FF000021A614FF48053C4F2020326
:10381000DB684FF48053C4F202034FF0FF32DA60EA
:103820004FF48053C4F202034FF00002DA604EF20C
:103830001003CEF2000345F6BF525A604EF2100359
:10384000CEF200034FF000029A604EF21003CEF267
:1038500000034FF007021A604EF6F053CEF2000359
:103860004EF6F052CEF20002D26842F08072DA6078
:103870004FF48053CEF200034FF48052CEF2000298
:10388000126842F001021A604FF48053C4F202033E
:103890004FF48052C4F20202D26942F08052DA61DF
:1038A0004FF48053C4F202034FF48052C4F2020278
:1038B000D26942F00062DA61FFF742FFFFF740FE93
:1038C00008BD00BFAFF30080AFF30080AFF300800E
:1038D0004FF48053C4F202034FF48052C4F2020248
:1038E000126842F001021A6000BF4FF48053C4F224
:1038F00002031B6803F00203002BF6D04FF4805341
:10390000C4F202034FF48052C4F20202126802F0C1
:10391000F9021A604FF48053C4F202034FF0000220
:103920005A6000BF4FF48053C4F202035B6803F097
:103930000C03002BF6D14FF48053C4F202034FF472
:103940008052C4F20202126842F480321A6000BF50
:103950004FF48053C4F202031B6803F40033002BBE
:10396000F6D04FF48053C4F202034FF48052C4F2F5
:103970000202526842F4A0225A604FF48053C4F20B
:1039800002034FF48052C4F20202126842F08072C5
:103990001A6000BF4FF48053C4F202031B6803F0A7
:1039A0000073002BF6D04FF48053C4F202034FF49F
:1039B000C842C0F245025A604FF40053C4F20203F9
:1039C0004FF010021A604FF48053C4F202034FF418
:1039D0008052C4F20202526842F002025A6000BFF2
:1039E0004FF48053C4F202035B6803F00C03082B0E
:1039F000F6D17047AFF30080AFF30080AFF30080E3
:103A000008B540F61020C2F20000FEF721FA40F699
:103A10001023C2F200034FF41052C4F201029A6262
:103A200040F61023C2F2000347F62032C0F600022F
:103A3000DA6240F61023C2F2000342F28A521A639D
:103A40004FF48053C4F202034FF48052C4F20202D6
:103A5000926942F400729A614FF41053C4F2010368
:103A60004FF000025A604FF41053C4F201034FF0BC
:103A700001029A604FF41053C4F201034FF009029F
:103A80009A6000BF4FF41053C4F201039B6803F027
:103A90000803002BF6D14FF41053C4F201034FF08A
:103AA00005029A6000BF4FF41053C4F201039B68F3
:103AB00003F00403002BF6D14FF41053C4F20103BA
:103AC0004FF000029A604FF48053C4F202034FF4A7
:103AD0008052C4F20202926922F400729A6108BD17
:103AE00082B001904FF48053C4F202034FF480522D
:103AF000C4F20202926942F07D029A614FF40063BF
:103B0000C4F20103019A1268DA604FF40063C4F250
:103B10000103019A92685A604FF40063C4F20103F2
:103B2000019A52681A604FF44063C4F20103019A8B
:103B3000D268DA604FF44063C4F20103019A52691B
:103B40005A604FF44063C4F20103019A12691A608B
:103B50004FF48053C4F20103019A9269DA604FF482
:103B60008053C4F20103019A126A5A604FF48053E1
:103B7000C4F20103019AD2691A604FF4A053C4F24F
:103B80000103019A526ADA604FF4A053C4F20103B0
:103B9000019AD26A5A604FF4A053C4F20103019A09
:103BA000926A1A604FF4C053C4F20103019A126B77
:103BB000DA604FF4C053C4F20103019A926B5A6069
:103BC0004FF4C053C4F20103019A526B1A6002B061
:103BD000704700BFAFF30080AFF30080AFF3008009
:103BE0008AB0039002910192019B032B03D1039BA6
:103BF000029A1A6105E0019B042B02D1039B029AF1
:103C00005A6147F68033C0F60003019A13441B78CB
:103C100004934FF000030693069B0793079B0893BA
:103C2000089B09934FF00003059335E0089B4FEA8A
:103C300003130893099B4FEA03130993069B4FEA6A
:103C400003130693079B4FEA03130793029B03F0AA
:103C50008003002B04D1089B43F00F03089304E07A
:103C6000069A049B42EA03030693029B03F4004373
:103C7000002B04D1099B43F00F03099304E0079A3A
:103C8000049B42EA03030793029B4FEA4303029318
:103C9000059B03F101030593059B072BC6D9039BE5
:103CA0005A68099B02EA0302079B42EA0302039B4C
:103CB0005A60039B1A68089B02EA0302069B42EAC9
:103CC0000302039B1A600AB0704700BFAFF3008085
:103CD00000B583B04FF42053C4F200039B889BB21D
:103CE00003F00803002BF5D04FF42053C4F2000377
:103CF0001B889AB24FF42053C4F200039B889BB2F6
:103D000002EA0303ADF806304FF42053C4F2000377
:103D10004FF42052C4F20002928892B222F00702BD
:103D200092B29A80BDF8063003F00103DBB2002B9B
:103D30000BD040F64423C2F200031B6840F6442037
:103D4000C2F200004FF000019847BDF8063003F0C2
:103D50000203002B0BD040F64423C2F200031B6881
:103D600040F64420C2F200004FF001019847BDF830
:103D7000063003F00403002B0BD040F64423C2F2BC
:103D800000031B6840F64420C2F200004FF002011D
:103D90009847FCF7A5FE03B000BD00BFAFF300805D
:103DA0004FF42053C4F200039B889BB203F020031E
:103DB000002BF5D04FF42053C4F200034FF42052EF
:103DC000C4F20002928892B242F0100292B29A803B
:103DD0004FF42053C4F200034FF000021A814FF455
:103DE0002053C4F200034FF223429A814FF4205330
:103DF000C4F200034FF42052C4F20002928892B23F
:103E000022F0100292B29A80704700BFAFF3008098
:103E100008B54FF42053C4F200034FF42052C4F20B
:103E20000002928892B222F0080292B29A804FF475
:103E30002053C4F200039B889BB203F00803002BBD
:103E4000F5D04FF42053C4F200039B889BB203F0DB
:103E50002003002BF5D04FF42053C4F200034FF0A1
:103E600000021A8040F64423C2F200034FF0000221
:103E70001A604FF003004FF0F001FCF7B9FE08BDE7
:103E800084B0019000914FF42053C4F200039B884A
:103E90009BB203F00803002BF5D04FF42053C4F27B
:103EA00000031B8B9BB24FEA03424FF42053C4F232
:103EB00000039B8B9BB21A44009B1A604FF4205363
:103EC000C4F200031B8A9BB24FEA03424FF4205313
:103ED000C4F200039B8A9BB213440393009B1A68AD
:103EE0004FF42053C4F200031B8B9BB24FEA0341F3
:103EF0004FF42053C4F200039B8B9BB20B449A42B5
:103F0000CBD1039A4FF61843CFF6FF7303FB02F2AF
:103F10004AF6B803C0F2B93313444DF68362C4F2D3
:103F20001B32A2FB03134FEA93339BB21A46009B4A
:103F30005A6004B0704700BFAFF30080AFF3008059
:103F400000B58DB0019002AB0198194603F090FBCB
:103F5000029B4FEA63030B93039B4FEA43130B9AB5
:103F600042EA03030B93049B4FEAC3230B9A42EAF2
:103F700003030B93059B4FEA03430B9A42EA0303A7
:103F80000B93069B03F101034FEA43530B9A42EA5A
:103F900003030B93079BA3F150034FEA43630B9A70
:103FA00042EA03030B930B9B18460DB000BD00BF04
:103FB00000B585B001900091009B03F00803002B31
:103FC00001D0FCF735FD019B5B6A1B68019A526AC0
:103FD0001268126822F00F021A60019B5B6A5B682C
:103FE000019A526A127A4FF00F0101FA02F21A6036
:103FF000019B1B6A1B68019A126A1268126822F000
:104000000F021A60019B1B6A5B68019A126A127A9E
:104010004FF00F0101FA02F21A60019B5B681B6806
:10402000002B11D0019B4FF004021A70019B5B68BA
:104030001B6801989847019B1B78042B08D1019BB2
:104040004FF002021A7003E0019B4FF002021A7057
:104050004FF0200383F31188019B9B68002B0DD048
:10406000019B9B680393019B4FF000029A60039BA6
:104070004FF000025A620398FDF74AF84FF0000330
:1040800083F3118805B000BDAFF30080AFF300806B
:1040900000B583B001900091009B03F00803002B52
:1040A00001D0FCF7C5FC03B000BD00BFAFF300803A
:1040B00008B540F6A823C2F200034FF6FF721A803B
:1040C00040F64820C2F20000FEF73AFF40F64823CF
:1040D000C2F200034FF44052C4F20102DA6140F62A
:1040E0004823C2F20003204A1A6240F64823C2F273
:1040F00000031E4A5A6240F64823C2F2000341F20E
:104100000A029A6240F64823C2F2000341F2180202
:10411000DA6240F67820C2F20000FEF711FF40F6A6
:104120007823C2F200034FF46052C4F20002DA6155
:1041300040F67823C2F200030D4A1A6240F6782353
:10414000C2F200030B4A5A6240F67823C2F200031F
:1041500041F20A029A6240F67823C2F2000341F269
:104160001802DA6208BD00BF2C7B0008387B00080B
:10417000447B0008507B0008AFF30080AFF3008061
:1041800000B585B00190019B1B78012B75D1019A78
:1041900040F64823C2F200039A422BD1019B1A6ACF
:1041A00043F6B173C0F6000310464FF00A011A46F9
:1041B000019BFFF7FDF903468DF80F30019B5A6A0A
:1041C00044F29103C0F6000310464FF00A011A466C
:1041D000019BFFF7EDF903468DF80F304FF4805344
:1041E000C4F202034FF48052C4F20202926942F414
:1041F00080529A61019A40F67823C2F200039A42F3
:104200002BD1019B1A6A43F6B173C0F60003104626
:104210004FF00A011A46019BFFF7CAF903468DF8D1
:104220000E30019B5A6A44F29103C0F60003104617
:104230004FF00A011A46019BFFF7BAF903468DF8C1
:104240000E304FF48053C4F202034FF48052C4F294
:104250000202D26942F48042DA61019B1B6A1B6848
:10426000019AD26902F10C029A60019B5B6A1B6899
:10427000019AD26902F10C029A60019B5B685B892A
:1042800003F40063002B0CD1019B9B6A23F4706242
:10429000019B9A62019BDB6A23F47062019BDA62E4
:1042A0000FE0019B9B6A23F4706343F4A062019BBF
:1042B0009A62019BDB6A23F4706343F4A062019B62
:1042C000DA62019BDB694FF000021A80019BDB6917
:1042D000019A5268528942F4417292B21A80019B4B
:1042E000DB694FF007029A80019BDB69019AD26972
:1042F000128892B242F0400292B21A8005B000BD1C
:1043000000B583B00190019B1B78022B39D1019B32
:10431000DB694FF000021A80019BDB694FF000025D
:104320009A80019B1B6A1846FFF7C2F9019B5B6AE2
:104330001846FFF7BDF9019A40F64823C2F2000380
:104340009A420BD14FF48053C4F202034FF48052CF
:10435000C4F20202926922F480529A61019A40F6F4
:104360007823C2F200039A420BD14FF48053C4F277
:1043700002034FF48052C4F20202D26922F4804256
:10438000DA6103B000BD00BFAFF30080AFF300807F
:1043900082B00190019B5B685B68019A5268128948
:1043A0004FF0010101FA02F25A6102B0704700BFFA
:1043B00082B00190019B5B685B68019A5268128928
:1043C0004FF0010101FA02F21A6102B0704700BF1A
:1043D00082B001900091019B1B6A1A6840F6AA23E3
:1043E000C2F20003D360019B1B6A1B68009A5A60EB
:1043F000019B1B6A1B68019A926A1A60019B5B6AA7
:104400001A6840F6A823C2F20003D360019B5B6ADE
:104410001B68009A5A60019B5B6A1B68019AD26A0A
:104420001A60019B1B6A1B68019A126A1268126863
:1044300042F001021A60019B5B6A1B68019A526A92
:104440001268126842F001021A6002B0704700BFA1
:1044500084B0039002910192039B1B6A1A6840F694
:10446000AA23C2F20003D360039B1B6A1B68029A53
:104470005A60039B1B6A1B68039A926A1A60039B2B
:104480005B6A1B68019ADA60039B5B6A1B68029A8D
:104490005A60039B5B6A1B68039AD26A42F08002EF
:1044A0001A60039B1B6A1B68039A126A12681268DF
:1044B00042F001021A60039B5B6A1B68039A526A0E
:1044C0001268126842F001021A6004B0704700BF1F
:1044D00084B0039002910192039B1B6A1B68019AAE
:1044E000DA60039B1B6A1B68029A5A60039B1B6A73
:1044F0001B68039A926A42F080021A60039B5B6A0F
:104500001A6840F6A823C2F20003D360039B5B6ADB
:104510001B68029A5A60039B5B6A1B68039AD26A03
:104520001A60039B1B6A1B68039A126A126812685E
:1045300042F001021A60039B5B6A1B68039A526A8D
:104540001268126842F001021A6004B0704700BF9E
:1045500000B585B00190019B1B691B69ADF80E3059
:10456000019B1B69DB689AB2BDF80E3002EA0303B7
:104570009BB203F0FF03ADF80E30019B1B69BDF841
:104580000E206FEA02021A61BDF80E3003F002033A
:10459000002B04D0019B5B681B6901989847BDF80C
:1045A0000E3003F00403002B04D0019B5B689B6971
:1045B00001989847BDF80E3003F00803002B04D093
:1045C000019B5B681B6A01989847BDF80E3003F0A9
:1045D0001003002B04D0019B5B689B6A01989847ED
:1045E000BDF80E3003F00103DBB2002B04D0019BB9
:1045F0005B689B680198984705B000BDAFF30080E9
:1046000008B54FF43053C4F201036FF001021A6190
:1046100040F6AC23C2F200035B689B6840F6AC2016
:10462000C2F200009847FCF75BFA08BDAFF30080C8
:1046300000B583B04FF43053C4F201031B699AB242
:104640004FF43053C4F20103DB689BB202EA030368
:104650009BB203F0FF03ADF806304FF43053C4F2C1
:104660000103BDF806206FEA02021A61BDF80630A8
:1046700003F00203002B0AD040F6AC23C2F2000381
:104680005B681B6940F6AC20C2F200009847BDF899
:10469000063003F00403002B0AD040F6AC23C2F22C
:1046A00000035B689B6940F6AC20C2F200009847AB
:1046B000BDF8063003F00803002B0AD040F6AC2307
:1046C000C2F200035B681B6A40F6AC20C2F2000035
:1046D0009847BDF8063003F01003002B0AD040F6CF
:1046E000AC23C2F200035B689B6A40F6AC20C2F2C6
:1046F00000009847FCF7F4F903B000BDAFF3008069
:1047000008B540F6C020C2F20000FFF721FFFCF719
:10471000E7F908BDAFF30080AFF30080AFF300808E
:1047200008B540F6AC20C2F20000FEF7A1FA40F650
:10473000AC23C2F200034FF43052C4F201021A61FA
:1047400040F6C020C2F20000FEF792FA40F6C02305
:10475000C2F200034FF40062C4F200021A6108BD05
:1047600000B585B001900B46ADF802304FF0000364
:104770000393BDF8023003F00803002B03D0039B22
:1047800043F080030393BDF8023003F00103DBB272
:10479000002B03D0039B43F020030393BDF80230AA
:1047A00003F00203002B03D0039B43F04003039369
:1047B000BDF8023003F00403002B03D0039B43F445
:1047C00080730393019B03F1040318460399FCF7DC
:1047D0007FFF05B000BD00BFAFF30080AFF30080E6
:1047E00000B587B00190019B5B6F0493049B9B898C
:1047F000ADF80E30049B1B88ADF81630BDF81630AE
:1048000003F48073002B13D04FF0200383F311883F
:10481000019B03F1040318464FF40071FCF758FFA5
:104820004FF0000383F31188049B4FF6FF621A8058
:104830004FF0200383F3118817E0BDF8163003F022
:104840000F03002B05D0BDF8163001981946FFF76D
:1048500087FF049B9B889BB2DBB201981946FEF749
:1048600037FB049B1B88ADF81630BDF8163003F0FB
:104870002003002BE1D14FF0000383F31188BDF832
:104880000E3003F08003002B30D0BDF8163003F05B
:104890008003002B2AD04FF0200383F31188019B63
:1048A00003F130031846FDF76BF903460293029BB0
:1048B000002B13DA019B03F1040318464FF00801A3
:1048C000FCF706FFBDF80E3023F0C0039BB243F0A7
:1048D00040039BB29AB2049B9A8103E0029B9AB276
:1048E000049B9A804FF0000383F31188BDF81630C3
:1048F00003F04003002B1AD04FF0200383F31188FC
:10490000019B03F1040318464FF01001FCF7E0FE91
:104910004FF0000383F31188BDF80E3023F0C0037D
:104920009AB2049B9A81049B4FF6BF721A8007B01B
:1049300000BD00BFAFF30080AFF30080AFF3008095
:1049400082B001904FF48843C4F200034FF48842D0
:10495000C4F20002928992B242F0800292B29A812D
:1049600002B07047AFF30080AFF30080AFF3008078
:1049700008B540F6D420C2F20000FFF731FFFCF783
:10498000AFF808BDAFF30080AFF30080AFF3008055
:1049900008B540F6D420C2F200004FF0000144F602
:1049A0004112C0F60002FEF75BFA40F6D423C2F2D1
:1049B00000034FF48842C4F200025A6708BD00BFEA
:1049C00008B5FEF785FF08BDAFF30080AFF30080A8
:1049D000704700BFAFF30080AFF30080AFF30080FB
:1049E00000B585B003468DF807309DF80730002BE1
:1049F00022D14FF000038DF80F3040F68473C2F2DD
:104A000000031B79052B05D09DF80F3043F00103FF
:104A10008DF80F3040F68470C2F2000002F040FEC4
:104A20000346002B05D09DF80F3043F004038DF8AA
:104A30000F309DF80F3001E04FF00203184605B02B
:104A400000BD00BFAFF30080AFF30080AFF3008084
:104A500000B585B003468DF807309DF80730002B70
:104A600022D14FF000038DF80F3040F68473C2F26C
:104A700000031B79052B05D09DF80F3043F001038F
:104A80008DF80F3040F68470C2F2000002F008FE8C
:104A90000346002B05D09DF80F3043F004038DF83A
:104AA0000F309DF80F3001E04FF00203184605B0BB
:104AB00000BD00BFAFF30080AFF30080AFF3008014
:104AC00000B585B00291019202468DF80F208DF855
:104AD00003309DF80F30002B40D140F68473C2F2B2
:104AE00000031B79052B02D04FF0030338E040F69A
:104AF0008470C2F200000199FDF7C2FD0346002B4D
:104B000019D04FF001032BE040F68470C2F2000090
:104B10000299FDF705FE0346002B02D04FF001037A
:104B20001EE0029B03F5007302939DF8033003F12E
:104B3000FF338DF803309DF80330002BE4D140F6AD
:104B40008470C2F20000FDF743FE0346002B02D042
:104B50004FF0010304E04FF0000301E04FF00403C5
:104B6000184605B000BD00BFAFF30080AFF3008072
:104B700000B585B00291019202468DF80F208DF8A4
:104B800003309DF80F30002B4CD140F68473C2F2F5
:104B900000031B79052B02D04FF0030344E040F6DD
:104BA0008470C2F2000002F07BFD0346002B02D0AD
:104BB0004FF0020338E040F68470C2F20000019921
:104BC000FDF736FE0346002B19D04FF001032BE012
:104BD00040F68470C2F200000299FDF779FE0346A8
:104BE000002B02D04FF001031EE0029B03F500737F
:104BF00002939DF8033003F1FF338DF803309DF8E5
:104C00000330002BE4D140F68470C2F20000FDF7BF
:104C1000B7FE0346002B02D04FF0010304E04FF033
:104C2000000301E04FF00403184605B000BD00BFCB
:104C300000B583B00B46009202468DF807208DF830
:104C400006309DF80730002B25D19DF80630022B49
:104C500006D0042B0BD0002B1AD14FF000031CE020
:104C6000009B4FF400721A804FF0000315E0009B88
:104C70001A68009B03F104031B6840F68470C2F2BB
:104C8000000011461A46FDF7EBFE4FF0000304E06A
:104C90004FF0040301E04FF00403184603B000BDD9
:104CA00008B540F64420C2F20000FEF711F80346B2
:104CB000184608BDAFF30080AFF30080AFF300806B
:104CC00086B0039002910192039B0593029B04938B
:104CD0000FE0059B049A12681A60059B03F1040318
:104CE0000593049B03F104030493019BA3F10403C4
:104CF0000193019B032BECD80BE0049B1A78059BD6
:104D00001A70059B03F101030593049B03F1010352
:104D10000493019B002B0CBF00230123DBB2019AFB
:104D200002F1FF320192002BE7D106B0704700BFBD
:104D300086B0039002910192039B059307E0029BCA
:104D4000DAB2059B1A70059B03F101030593019BE1
:104D5000002B0CBF00230123DBB2019A02F1FF32CA
:104D60000192002BEBD106B0704700BFAFF300807B
:104D700088B0039002910192039B0793029B0693D4
:104D80004FF00003059300BF019B002B0CBF0023D5
:104D90000123DBB2019A02F1FF320192002B17D0FE
:104DA000079B1B781A46069B1B78C3EB02030593EF
:104DB000059B002B14BF00230123DBB2079A02F1ED
:104DC00001020792069A02F101020692002BDBD142
:104DD000059B184608B07047AFF30080AFF3008022
:104DE00082B00190009103E0019B03F10103019364
:104DF000019B1B78002B05D0019B1B781A46009B5A
:104E00009A42F1D1019B1B78184602B0704700BF4F
:104E100000B585B001900091019BDB6A0393039A72
:104E2000009B9A4259D0019B1B79002B3DD0019BDE
:104E30005A78019B03F1300310461946039A4FF04C
:104E40000103FFF795FE0346002B02D04FF001034C
:104E500045E0019B4FF000021A71019B1A6A019B09
:104E6000DB691A44039B9A421FD9019BDB788DF8BA
:104E70000B3016E0019BDB69039A13440393019BFB
:104E80005A78019B03F1300310461946039A4FF0FC
:104E90000103FFF76DFE9DF80B3003F1FF338DF832
:104EA0000B309DF80B30012BE4D8009B002B14D065
:104EB000019B5A78019B03F1300310461946009A72
:104EC0004FF00103FFF7FCFD0346002B02D04FF02B
:104ED000010304E0019B009ADA624FF000031846D8
:104EE00005B000BDAFF30080AFF30080AFF30080EA
:104EF00000B585B0019001984FF00001FFF788FFE1
:104F000003468DF80F309DF80F30002B62D1019BC6
:104F10001B78032B4ED1019B5B79002B4AD0019B60
:104F20004FF00002DA62019B03F1300318464FF0A4
:104F300000014FF40072FFF7FBFE019B03F1300309
:104F400003F5FF734AF655221A80019B03F13003E3
:104F50001A4645F25223C4F261131360019B03F118
:104F6000300303F5F27247F27223C6F24113136065
:104F7000019B03F1300303F5F473019A12691A607F
:104F8000019B03F1300303F5F673019AD2681A60AE
:104F9000019B5978019B03F13002019B5B69084634
:104FA00011461A464FF00103FFF7E2FD019B4FF057
:104FB00000025A71019B5B7818464FF000014FF0D8
:104FC0000002FFF735FE0346002B03D04FF001032C
:104FD0008DF80F309DF80F30184605B000BD00BFAA
:104FE00082B001900091009BA3F102030093019B0A
:104FF0009B69A3F10202009B9A4202D84FF0000382
:1050000007E0019B9B78009A02FB03F2019B9B6ADD
:105010001344184602B07047AFF30080AFF300802E
:1050200000B587B001900091009B012B04D9019B32
:105030009A69009B9A4202D84FF001039AE0019BC3
:105040001B78022B53D0032B6DD0012B40F09080A6
:10505000009B0593059B4FEA5303059A1344059360
:10506000019B1A6A059B4FEA532313440198194682
:10507000FFF7CEFE0346002B73D1059B4FEAC353C7
:105080004FEAD353019A134493F830300493059BAD
:1050900003F101030593019B1A6A059B4FEA532311
:1050A000134401981946FFF7B3FE0346002B5AD16B
:1050B000059B4FEAC3534FEAD353019A134493F825
:1050C00030304FEA0323049A42EA03030493009B1F
:1050D00003F00103DBB2002B03D0049B4FEA131350
:1050E00004E0049B4FEA03534FEA135342E0019B51
:1050F0001A6A009B4FEA1323134401981946FFF7DD
:1051000087FE0346002B30D1019B03F13002009B48
:105110004FEA43034FEAC3534FEAD3531344039375
:10512000039B1B8826E0019B1A6A009B4FEAD3135E
:10513000134401981946FFF76BFE0346002B16D166
:10514000019B03F13002009B4FEA83034FEAC353F4
:105150004FEAD35313440393039B1B6823F070431C
:1051600008E000BF04E000BF02E000BF00E000BFB5
:105170004FF0FF33184607B000BD00BFAFF300800B
:1051800000B589B0039002910192029B012B04D9D2
:10519000039B9A69029B9A4204D84FF002038DF850
:1051A0001F30E5E0039B1B78022B00F08680032B69
:1051B00000F0A580012B40F0CB80029B0693069B5C
:1051C0004FEA5303069A13440693039B1A6A069BFD
:1051D0004FEA5323134403981946FFF719FE034679
:1051E0008DF81F309DF81F30002B40F0B680039BD8
:1051F00003F13002069B4FEAC3534FEAD3531344E3
:105200000593029B03F00103DBB2002B0FD0059B3B
:105210001B78DBB203F00F03DAB2019BDBB24FEA7B
:105220000313DBB242EA0303DBB2DBB201E0019B12
:10523000DBB2059A1370069B03F101030693039BEF
:105240004FF001021A71039B1A6A069B4FEA53231F
:10525000134403981946FFF7DBFD03468DF81F3012
:105260009DF81F30002B7AD1039B03F13002069B7F
:105270004FEAC3534FEAD35313440593029B03F001
:105280000103DBB2002B04D0019B4FEA1313DBB206
:1052900010E0059B1B78DBB223F00F03DAB2019B11
:1052A0004FEA1323DBB203F00F03DBB242EA03033E
:1052B000DBB2DBB2059A137056E0039B1A6A029BBD
:1052C0004FEA1323134403981946FFF7A1FD034641
:1052D0008DF81F309DF81F30002B42D1039B03F146
:1052E0003002029B4FEA43034FEAC3534FEAD353C2
:1052F00013440593059B019A92B21A8034E0039BF4
:105300001A6A029B4FEAD313134403981946FFF716
:105310007FFD03468DF81F309DF81F30002B22D1F2
:10532000039B03F13002029B4FEA83034FEAC3530E
:105330004FEAD35313440593059B1B6803F0704356
:10534000019A42EA03030193059B019A1A600BE05C
:105350004FF002038DF81F3006E000BF04E000BFED
:1053600002E000BF00E000BF039B4FF001021A7192
:105370009DF81F30184609B000BD00BFAFF3008094
:1053800000B589B001900091009B0693009B0593A6
:10539000009B012B04D9019B9A69009B9A4204D877
:1053A0004FF002038DF81F306CE04FF000038DF8D2
:1053B0001F305EE001980099FFF732FE0346049328
:1053C000049B002B5BD0049B012B04D14FF0020304
:1053D0008DF81F3056E0049BB3F1FF3F04D14FF02E
:1053E00001038DF81F304DE0019800994FF0000245
:1053F000FFF7C6FE03468DF81F309DF81F30002BC7
:105400003FD1019B1B69B3F1FF3F09D0019B1B6991
:1054100003F10102019B1A61019B4FF001025A71D5
:10542000059B03F10102049B9A4202D1049B059360
:105430001DE001980699FFF7D3FD034602930198FA
:105440000599FFF7CDFD0246019B9B78134403F1BC
:10545000FF330393019B5A7802AB10464FF00401CF
:105460001A46FFF7E5FB049B0593059B0693049BF7
:105470000093019B9A69009B9A429BD802E000BF6F
:1054800000E000BF9DF81F30184609B000BD00BF06
:1054900000B587B001900091009B002B0ED1019BBD
:1054A000DB680493049B002B04D0019B9A69049B46
:1054B0009A4219D84FF00103049316E0019800991D
:1054C000FFF7AEFD03460293029B012B02D84FF07B
:1054D000010377E0019B9A69029B9A4201D9029BE2
:1054E00070E0009B049300E000BF049B059300E084
:1054F00000BF059B03F101030593019B9A69059B7E
:105500009A4209D84FF002030593059A049B9A42E8
:1055100002D94FF0000355E001980599FFF780FD8F
:1055200003460293029B002B0DD1019805996FF061
:105530007042FFF725FE03468DF80F309DF80F30BF
:10554000002B10D01AE0029BB3F1FF3F02D0029B68
:10555000012B01D1029B35E0059A049B9A42C7D1E9
:105560004FF000032EE0009B002B07D0019800991C
:10557000059AFFF705FE03468DF80F309DF80F30B2
:10558000002B12D1019B059ADA60019B1B69B3F1D4
:10559000FF3F15D0019B1B6903F1FF32019B1A618C
:1055A000019B4FF001025A710BE09DF80F30012B67
:1055B00002D14FF0FF3301E04FF00103059300E00B
:1055C00000BF059B184607B000BD00BFAFF30080C9
:1055D00000B585B001900B46ADF80230019BBDF8D7
:1055E0000220DA80019B9B680393039B012B05D06B
:1055F000019B1B689A69039B9A4202D84FF00203F1
:1056000079E0039B002B08D1019B1B681B78032BBF
:1056100003D1019B1B685B6A0393039B002B18D18A
:10562000019B039ADA60019B1B681B89BDF802206D
:105630009A4202D34FF002035DE0019B1B685A6A55
:10564000BDF802304FEA13139BB21A44019B1A6152
:1056500042E0019B1B689B784FEA0313ADF80A30C8
:1056600022E0019B1B6818460399FFF7D9FC03460B
:105670000393039BB3F1FF3F02D14FF001033AE0E4
:10568000039B012B05D9019B1B689A69039B9A42D6
:1056900002D84FF002032EE0BDF80220BDF80A3018
:1056A000C3EB0203ADF80230BDF80220BDF80A30AA
:1056B0009A42D6D2019B039ADA60019B1B68184676
:1056C0000399FFF78DFC0246BDF802304FEA131331
:1056D0009BB21A44019B1A61019B1B6803F13002C3
:1056E000BDF8023003F00F034FEA43131A44019B45
:1056F0005A614FF00003184605B000BDAFF30080BB
:1057000010B584B001900091019BDB8803F1010387
:10571000ADF80830BDF80830002B03D0019B1B69A1
:10572000002B02D14FF00403E3E0BDF8083003F092
:105730000F039BB2002B40F0C980019B1B6903F152
:105740000102019B1A61019BDB68002B0AD1019BBE
:105750001B681B89BDF808209A42C0F0B6804FF044
:105760000403C6E0BDF808304FEA13139BB21A4693
:10577000019B1B689B7803F1FF3302EA0303002BB4
:1057800040F0A480019B1A68019BDB681046194613
:10579000FFF746FC03460393039B012B02D84FF00F
:1057A0000203A6E0039BB3F1FF3F02D14FF00103D8
:1057B0009FE0019B1B689A69039B9A4278D8009BE3
:1057C000002B02D14FF0040393E0019B1A68019B68
:1057D000DB6810461946FFF75BFE03460393039B05
:1057E000002B02D14FF0070383E0039B012B02D172
:1057F0004FF002037DE0039BB3F1FF3F02D14FF076
:10580000010376E0019B1B6818464FF00001FFF78B
:10581000FFFA0346002B02D04FF0010369E0019B21
:105820001B6803F1300318464FF000014FF400727B
:10583000FFF77EFA019B1C68019B1B6818460399C1
:10584000FFF7CEFB0346E3624FF000038DF80B3009
:105850001DE0019B1B684FF001021A71019B1B6840
:1058600018464FF00001FFF7D3FA0346002B02D091
:105870004FF001033DE0019B1B68DA6A02F101026F
:10588000DA629DF80B3003F101038DF80B30019BB8
:105890001B689B789DF80B209A42DAD3019B1B680A
:1058A000019A1268D16A9DF80B20C2EB0102DA62FC
:1058B000019B039ADA60019B1B6818460399FFF766
:1058C0008FFB0246019B1A6100E000BF019BBDF8FF
:1058D0000820DA80019B1B6803F13002BDF8083014
:1058E00003F00F034FEA43131A44019B5A614FF030
:1058F0000003184604B010BDAFF30080AFF3008082
:1059000000B587B001900091009B1B7823F0400305
:1059100003F1FF3213464FEA430313444FEA830374
:10592000134405934FF0000304934FF00103ADF8C7
:105930000E30009A47F6E033C0F6000304990B449A
:105940001B7813441B88ADF80C30BDF80E30002BCB
:105950001FD0BDF80C30184601F052FE0346ADF8DA
:105960000E30059BFE2B11D8059B4FEA4303019A8D
:1059700013441B88059A02F101020592184601F0B2
:105980003FFE0346BDF80E209A420BD04FF00003B5
:1059900027E0BDF80C204FF6FF739A4203D04FF07A
:1059A00000031EE000BF049B03F101030493049B6A
:1059B0000C2BBED9009B1B7803F04003002B0ED0AC
:1059C000BDF80E30002B0AD0059B4FEA4303019A25
:1059D00013441B88002B02D04FF0000301E04FF06E
:1059E0000103184607B000BDAFF30080AFF300809D
:1059F00088B0039002918DF807208DF80630029B45
:105A000003F10D039DF806201A70029B03F10B03AE
:105A10004FF00F021A70029B03F10C034FF00002CB
:105A20001A70029B03F11A034FF000021A809DF8CE
:105A3000073003F1FF3213464FEA430313444FEAA2
:105A40008303134407934FF00003ADF816304FF073
:105A500000030693BDF816204FF6FF739A420BD051
:105A6000079B4FEA4303039A13441B88ADF8163093
:105A7000079B03F101030793029A47F6E033C0F650
:105A8000000306990B441B781344BDF816201A80B6
:105A9000BDF81630002B03D14FF6FF73ADF816306A
:105AA000069B03F101030693069B0C2BD2D9BDF88C
:105AB00016204FF6FF739A4207D0079B4FEA430325
:105AC000039A13441B88002B05D19DF8073043F03F
:105AD00040038DF80730029B9DF807201A7008B02C
