:020000040800F2
:10000000000400201101000801020008010200089C
:1000100001020008010200080102000801020008B4
:100020000102000801020008010200083102000874
:100030000102000801020008010200081102000884
:100040000102000801020008010200086121000805
:100050000102000801020008010200080102000874
:10006000010200080102000801020008C11900088D
:10007000111A0008711A0008D11A0008311B000873
:10008000911B0008F11B0008010200080102000892
:100090000102000801020008010200080102000834
:1000A000010200089124000801020008C124000890
:1000B0000102000801020008912500080102000861
:1000C0000102000801020008010200080102000804
:1000D00001020008010200080128000801020008CE
:0C00E000010200080102000801020008F3
:1000F000704700BFAFF30080AFF30080AFF3008024
:10010000FEE700BFAFF30080AFF30080AFF30080E5
:1001100072B640F60004C2F2000484F309884FF07E
:10012000020484F31488BFF36F8F40F20004C2F21C
:10013000000440F20045C2F2000504E04FF05533E0
:10014000236004F10404AC42F8D340F20044C2F24C
:10015000000440F60005C2F2000504E04FF05533FC
:10016000236004F10404AC42F8D302F071FB43F6BF
:10017000A835C0F6000540F60004C2F2000405E010
:100180002B68236004F1040405F1040540F6040320
:10019000C2F200039C42F3D340F60804C2F200040A
:1001A00040F6E445C2F2000504E04FF0000323608E
:1001B00004F10404AC42F8D3FFF79AFF40F2EC04D8
:1001C000C0F6000403E02368984704F1040440F2F9
:1001D000EC03C0F600039C42F5D303F001FB40F2B0
:1001E000EC04C0F6000403E02368984704F104041B
:1001F00040F2EC03C0F600039C42F5D3FFF780FF0A
:10020000FEE700BFAFF30080AFF30080AFF30080E4
:1002100008B54FF0200383F3118800F0B9F94FF0CF
:10022000000383F3118800F043F808BDAFF30080AA
:1002300010B483B0EFF309840194019B03F1200310
:100240000193019B83F309884FF0000383F3118826
:1002500003B010BC704700BFAFF30080AFF3008065
:1002600008B54FF46D43CEF200034FF000029A60E0
:100270004FF46D43CEF200034FF44072C0F2FA52D5
:10028000DA604FF007004FF0100100F0F1F84FF086
:100290000A004FF0200100F0EBF84FF00B004FF098
:1002A000800100F0E5F808BDAFF30080AFF30080F7
:1002B00010B483B04FF0200383F311884FF46D43E3
:1002C000CEF200035B6803F40063002B48D0EFF329
:1002D00009840194019BA3F120030193019B83F303
:1002E0000988019B4FF08072DA6140F62013C2F258
:1002F00000039B69DB7F002B11D040F62013C2F274
:1003000000031B689A6840F62013C2F200039B6941
:100310009B689A4294BF00230123DBB210E040F6B1
:100320002013C2F200031B689A6840F62013C2F241
:1003300000039B699B689A4234BF00230123DBB210
:10034000002B06D0019A40F27133C0F6000393618E
:100350000AE0019A40F27433C0F60003936103E0AF
:100360004FF0000383F3118803B010BC704700BF47
:1003700000F006FC00DF00BFAFF30080AFF30080A9
:1003800003460A462DE9F04FC2F80CD0D3F80CD042
:10039000BDE8F08FAFF30080AFF30080AFF30080D3
:1003A0004FF0000383F311882846A04700F0D8FCE3
:1003B000704700BFAFF30080AFF30080AFF3008061
:1003C00084B001900091019B03F003034FEAC30343
:1003D00003934FF46143CEF20003019A4FEA920077
:1003E0004FF46142CEF2000201994FEA910101F10E
:1003F000C00152F82110039A4FF0FF0C0CFA02F2E0
:100400006FEA020201EA0201039ADDF800C00CFA69
:1004100002F241EA020100F1C00243F822104FF457
:100420006143CEF20003019A4FEA5212019901F0A2
:100430001F014FF0010000FA01F102F1600243F8E0
:1004400022104FF46143CEF20003019A4FEA521298
:10045000019901F01F014FF0010000FA01F143F88A
:10046000221004B0704700BFAFF30080AFF30080EC
:1004700084B001900091019B03F003034FEAC30392
:1004800003934FF46D43CEF20003019A4FEA9200BA
:100490004FF46D42CEF2000201994FEA910101F151
:1004A000060152F82110039A4FF0FF0C0CFA02F2E9
:1004B0006FEA020201EA0201039ADDF800C00CFAB9
:1004C00002F241EA020100F1060243F8221004B0F0
:1004D000704700BFAFF30080AFF30080AFF3008040
:1004E00082B0019040F62013C2F200039A6943F6ED
:1004F0005003C0F600039361FEE700BFAFF3008036
:1005000000B583B0FFF7ACFE00F07AF900F0B0F868
:1005100000F08EFF00F0FCFF40F6C800C2F20000C1
:100520004FF0400100F04CFB024640F62013C2F2AF
:1005300000039A6140F62013C2F200039B694FF05A
:1005400001021A774FF0000383F3118862B640F678
:100550002013C2F200039A6943F67003C0F6000349
:10056000936140F2E143C0F600034FF000020092B5
:1005700040F60800C2F200004FF0C0014FF0010247
:1005800000F0AEFB03B000BDAFF30080AFF300801E
:1005900000B583B040F62013C2F200039B69DB7FF5
:1005A000002B09D040F62013C2F200039B69DA7FCA
:1005B00002F1FF32D2B2DA7740F62013C2F2000322
:1005C0009B691A6A02F101021A6240F61013C2F224
:1005D0000003DB6803F1010240F61013C2F20003CE
:1005E000DA6040F61013C2F200031B681A4640F6A8
:1005F0001013C2F200039A4235D040F61013C2F233
:1006000000031B689A6802F1FF329A6021E0019BA7
:10061000DB680093019B4FF00002DA60019B1A68CF
:1006200040F61013C2F200035360019B1A6840F6B3
:100630001013C2F200031A604FF0000383F3118815
:10064000019B1A69009B104698474FF0200383F3E3
:10065000118840F61013C2F200031B680193019B3E
:100660009B68002BD3D003B000BD00BFAFF3008068
:1006700040F61012C2F2000240F61013C2F200035C
:100680005A6040F61013C2F200035A6840F6101385
:10069000C2F200031A6040F61013C2F200034FF0DA
:1006A000FF329A6040F61013C2F200034FF00002CE
:1006B000DA607047AFF30080AFF30080AFF30080E3
:1006C00086B00390029101920093039B002B04D00B
:1006D000019B002B01D0029B002B039B009A1A6107
:1006E000039B019ADA6040F61013C2F200031B6804
:1006F000059308E0059B9B68029AC3EB02030293F3
:10070000059B1B680593059B9A68029B9A42F1D34F
:10071000039B059A1A60039B1B685A68039B5A60E7
:10072000039B5B68059A03995160059A52681A60A9
:10073000039B029A9A60059A40F61013C2F20003D6
:100740009A4206D0059B9A68029BC3EB0202059B66
:100750009A6006B0704700BFAFF30080AFF300802F
:1007600082B00190019B002B019BDB68002B019B59
:100770001A6840F61013C2F200039A4208D0019B97
:100780001B68019A12689168019A92680A449A60FB
:10079000019B5B68019A12681A60019B1B68019AB1
:1007A00052685A60019B4FF00002DA6002B0704755
:1007B00084B00190019B1B680393039B1A68019B03
:1007C0001A60019B1B68019A5A60039B184604B08B
:1007D000704700BFAFF30080AFF30080AFF300803D
:1007E00082B00190019B5B68019A12681A60019BBC
:1007F0001B68019A52685A60019B184602B0704704
:1008000040F62012C2F2000240F62013C2F20003AA
:100810005A6040F62013C2F200035A6840F62013D3
:10082000C2F200031A6040F62013C2F200034FF038
:1008300000029A6040F62012C2F2000240F6201335
:10084000C2F200035A6140F62013C2F200035A6953
:1008500040F62013C2F200031A617047AFF3008024
:1008600084B00190019B1B7F002B03D0019B1B7F59
:100870000E2B00BF019B4FF000021A7740F62013A9
:10088000C2F200030393039B1B680393039B9A68C4
:10089000019B9B689A42F6D2019B039A1A60039BC4
:1008A0005A68019B5A60019B5B68039A01995160E9
:1008B000039A52681A60019B184604B0704700BF43
:1008C00000B585B003468DF8073040F62013C2F21C
:1008D00000039B690393039B9DF807201A77039BF2
:1008E0004FF01402DA7740F62010C2F20000FFF752
:1008F0005FFF024640F62013C2F200039A6140F601
:100900002013C2F200039B694FF001021A7740F6F0
:100910002013C2F200039B6918460399FFF730FDCC
:1009200005B000BDAFF30080AFF30080AFF30080EF
:1009300000B585B00190019B03934FF0200383F332
:100940001188039B1B7F0D2B2CD801A252F823F09A
:1009500089090008A5090008A509000893090008ED
:10096000A50900089F090008A5090008A5090008B5
:10097000A5090008A5090008A5090008A50900089F
:10098000A50900089F0900084FF0000383F31188B0
:1009900013E0039B5B6A9A6802F101029A60039874
:1009A000FFF71EFF039B4FF0FF325A620398FFF7D9
:1009B00057FF4FF0000383F3118805B000BD00BF5F
:1009C00000B589B0034600918DF80730009BB3F164
:1009D000FF3F1AD040F62013C2F200039B6903AA1E
:1009E0001046009940F63112C0F60002FFF768FE8B
:1009F0009DF807301846FFF763FF069B002B0AD0CF
:100A000003AB1846FFF7ACFE06E09DF8073018462A
:100A1000FFF756FF00E000BF40F62013C2F20003CC
:100A20009B695B6A184609B000BD00BFAFF3008048
:100A300000B585B001900091019B009A5A62019B1C
:100A40009A6840F62013C2F200039B699B689A42A1
:100A500003D80198FFF704FF17E040F62013C2F215
:100A600000039B691846FFF7FBFE0346039340F61D
:100A70002013C2F20003019A9A61019B4FF0010218
:100A80001A7701980399FFF77BFC05B000BD00BF02
:100A900000B583B040F62013C2F200039B690193B6
:100AA00040F62010C2F20000FFF782FE024640F638
:100AB0002013C2F200039A6140F62013C2F2000331
:100AC0009B694FF001021A77019B4FF01402DA770D
:100AD0000198FFF7C5FE40F62013C2F200039B69A0
:100AE00018460199FFF74CFC03B000BDAFF300803E
:100AF00000B583B040F62013C2F200039B69009357
:100B000040F62010C2F20000FFF752FE024640F607
:100B10002013C2F200039A6140F62013C2F20003D0
:100B20009B694FF001021A77009B4FF000021A7781
:100B300040F62013C2F200030193019B1B6801934E
:100B4000019B9A68009B9B689A42F6D8009B019A89
:100B50001A60019B5A68009B5A60009B5B68019A6F
:100B600000995160019A52681A6040F62013C2F24F
:100B700000039B6918460099FFF702FC03B000BD13
:100B800008B540F62013C2F200039B69DB7F002BFF
:100B900002D1FFF77DFF01E0FFF7AAFF08BD00BF0C
:100BA00084B00190019B1B680393039B1A68019B0F
:100BB0001A60039B184604B0704700BFAFF3008073
:100BC00082B001900091019B009A9A60019B4FF0C6
:100BD00002021A77019B4FF000025A77019B4FF0F7
:100BE0001402DA77019B009A1A64019B4FF000020D
:100BF000DA63019B4FF000029A63019B4FF0000201
:100C00001A62019B4FF001029A77019B4FF000029C
:100C10009A6140F62013C2F20003019A136140F674
:100C20002013C2F200035A69019B5A61019B5A6961
:100C300040F62013C2F200030199596140F62013D7
:100C4000C2F200035B691361019B03F128031A469A
:100C5000019B9A62019B03F12C031A46019B1A63C4
:100C6000019B1A6B019BDA62019B184602B0704728
:100C700000B587B00390029101920093039B059306
:100C8000039B002B07D0029BAF2B04D9019B7F2B2A
:100C900001D8009B002B039A029BA3F124031A4462
:100CA000059BDA60059BDB68009A1A60059BDB6890
:100CB000089A5A60059BDA6840F2A133C0F6000337
:100CC000136205980199FFF77BFF0346184607B0AA
:100CD00000BD00BFAFF30080AFF30080AFF3008032
:100CE00000B589B005900491039202934FF0200360
:100CF00083F311880A9B009305980499039A029B39
:100D0000FFF7B6FF0346079307984FF00001FFF780
:100D10008FFE4FF0000383F31188079B184609B03C
:100D200000BD00BFAFF30080AFF30080AFF30080E1
:100D300000B583B00190019B002B4FF0200383F39B
:100D400011884FF006000199FFF73AFE4FF00003BB
:100D500083F3118803B000BDAFF30080AFF30080D0
:100D600000B583B001904FF0200383F31188019800
:100D700000F006F803B000BDAFF30080AFF30080D1
:100D800000B585B0019040F62013C2F200039B69C4
:100D90000393039B019A5A6209E0039B03F1280322
:100DA0001846FFF7FDFE03461846FFF759FD039B63
:100DB0009A6A039B03F128039A42EED1039B5B7F5F
:100DC00003F00303002B09D1039B5B69039A1269AB
:100DD0001A61039B1B69039A52695A614FF00E0016
:100DE000FFF76EFD05B000BDAFF30080AFF30080EC
:100DF00082B00190019B002B019B1A46019B5A6017
:100E0000019B5A68019B1A60019B4FF000029A6097
:100E100002B07047AFF30080AFF30080AFF3008003
:100E200000B585B001900091019B002B019B1B68D0
:100E3000039311E0039BDA68009B42EA0302039BE1
:100E4000DA60039B5A68039B9B681046194600F0C2
:100E50000FF8039B1B680393019B039A9A42E9D105
:100E600005B000BDAFF30080AFF30080AFF30080AA
:100E700000B583B001900091019B002B019B9A6B00
:100E8000009B42EA0302019B9A63019B1B7F082B94
:100E900007D1019B9A6B019B5B6A02EA0303002B5B
:100EA0000DD1019B1B7F092B10D1019B9A6B019BDC
:100EB0005B6A02EA0302019B5B6A9A4206D10198CF
:100EC000FFF7CEFC03464FF000025A6203B000BDAC
:100ED00082B001900091009A019B1A60009B5A68B1
:100EE000019B5A60019B5B68009A01995160009ACE
:100EF00052681A6002B07047AFF30080AFF3008011
:100F000084B00190019B1B680393039B1A68019BAB
:100F10001A60019B1B68019A5A60039B184604B033
:100F2000704700BFAFF30080AFF30080AFF30080E5
:100F300000B583B001900091009B002B02D14FF0CF
:100F4000FF3316E040F62013C2F200039B69019ABA
:100F50005A6240F62013C2F200039A69019B1046C0
:100F60001946FFF7B5FF4FF00D000099FFF728FD78
:100F70000346184603B000BDAFF30080AFF3008016
:100F800084B00390029101920093039B1A46039B45
:100F90005A60039B5A68039B1A60039B4FF0000240
:100FA0009A60039B029A5A61039B5A69039B9A6158
:100FB000039B9A69039BDA60029A019B1A44039B84
:100FC0001A61039B009ADA61039B049A1A6204B0C7
:100FD000704700BFAFF30080AFF30080AFF3008035
:100FE00000B583B001900B468DF80330019B5A6920
:100FF000019B9B699A4206D1019B9B68002B02D002
:101000004FF0010301E04FF00003DBB2002B02D0F0
:101010006FF003032BE0019B9B6803F10102019B2E
:101020009A60019B5B699DF803201A7003F101022D
:10103000019B5A61019B5A69019B1B699A4203D328
:10104000019BDA68019B5A61019B1A68019B9A42D5
:101050000BD0019B1846FFF753FF03461846FFF7D6
:10106000FFFB03464FF000025A624FF000031846A0
:1010700003B000BDAFF30080AFF30080AFF300809A
:1010800000B585B0019000914FF0200383F31188E3
:10109000019BDB69002B13D0019BDB69019898470A
:1010A0000FE001980099FFF743FF03460393039B6A
:1010B000002B06DA4FF0000383F31188039B23E033
:1010C00000BF019B9B68002BEBD0019B9B6803F149
:1010D000FF32019B9A60019B9B691A788DF80B2067
:1010E00003F10102019B9A61019B9A69019B1B69B3
:1010F0009A4203D3019BDA68019B9A614FF0000387
:1011000083F311889DF80B30184605B000BD00BF71
:1011100000B587B00390029101920093039BDB69B5
:1011200004934FF000030593019B002B4FF0200325
:1011300083F31188049B002B10D0049B03989847DD
:101140000DE003980099FFF7F3FE0346002B06D04D
:101150004FF0000383F31188059B37E000BF039B2A
:101160009B68002BEDD0039B9B6803F1FF32039B30
:101170009A60039B9B691978029A1170029A02F196
:101180000102029203F10102039B9A61039B9A6997
:10119000039B1B699A4203D3039BDA68039B9A6102
:1011A0004FF0000383F31188059B03F101030593BE
:1011B000019B03F1FF330193019B002B01D1059BA0
:1011C00004E04FF0200383F31188B3E7184607B01B
:1011D00000BD00BFAFF30080AFF30080AFF300802D
:1011E00084B00390029101920093039B1A46039BE3
:1011F0005A60039B5A68039B1A60039B019A9A608A
:10120000039B029A5A61039B5A69039B9A61039B51
:101210009A69039BDA60029A019B1A44039B1A6144
:10122000039B009ADA61039B049A1A6204B0704728
:1012300000B587B003900B4601928DF80B304FF04C
:10124000200383F311880EE003980199FFF770FEE5
:1012500003460593059B002B05DA4FF0000383F34B
:101260001188059B2AE0039B9B68002BECD0039B15
:101270009B6803F1FF32039B9A60039B5B699DF8B7
:101280000B201A7003F10102039B5A61039B5A69F8
:10129000039B1B699A4203D3039BDA68039B5A6141
:1012A000039BDB69002B03D0039BDB690398984702
:1012B0004FF0000383F311884FF00003184607B086
:1012C00000BD00BFAFF30080AFF30080AFF300803C
:1012D00000B585B00190019B5A69019B9B699A42B8
:1012E00006D1019B9B68002B02D04FF0010301E067
:1012F0004FF00003DBB2002B02D06FF002032BE0B3
:10130000019B9B6803F10102019B9A60019B9B6911
:101310001A788DF80F2003F10102019B9A61019B5D
:101320009A69019B1B699A4203D3019BDA68019B6E
:101330009A61019B1A68019B9A420BD0019B184647
:10134000FFF7DEFD03461846FFF78AFA03464FF023
:1013500000025A629DF80F30184605B000BD00BF6C
:1013600000B587B00390029101920093039BDB6963
:1013700004934FF000030593019B002B4FF02003D3
:1013800083F311880CE003980099FFF7D1FD034621
:10139000002B05D04FF0000383F31188059B3DE03F
:1013A000039B9B68002BEED0039B9B6803F1FF32ED
:1013B000039B9A60039B5B69029A12781A7003F18F
:1013C0000102039B5A61029B03F101030293039BF9
:1013D0005A69039B1B699A4203D3039BDA68039BF8
:1013E0005A61049B002B02D0049B039898474FF04E
:1013F000000383F31188059B03F101030593019B0F
:1014000003F1FF330193019B002B01D1059B05E004
:101410004FF0200383F3118800BFC1E7184607B0DF
:1014200000BD00BFAFF30080AFF30080AFF30080DA
:1014300040F6E443C2F2000303F1070323F007037D
:101440001A4640F63C13C2F200031A6042F200034F
:10145000C2F2000323F007031A4640F64013C2F21B
:1014600000031A60704700BFAFF30080AFF3008045
:1014700000B585B001904FF0200383F311880198E7
:1014800000F00EF8034603934FF0000383F3118836
:10149000039B184605B000BDAFF30080AFF300809A
:1014A00084B00190019B03F1070323F0070301932C
:1014B00040F64013C2F200031B681A4640F63C1384
:1014C000C2F200031B68C3EB02031A46019B9A4257
:1014D00002D24FF0000312E040F63C13C2F20003C8
:1014E0001B68039340F63C13C2F200031A68019B89
:1014F0001A4440F63C13C2F200031A60039B1846DC
:1015000004B07047AFF30080AFF30080AFF300800A
:1015100008B540F64813C2F2000341F27142C0F62A
:1015200000021A6040F64813C2F200034FF00002B6
:101530009A6040F64813C2F200034FF00002DA60EE
:101540000148FFF755FC08BD58090020AFF30080A3
:1015500008B500F005FC00F0F3F943F61010C0F6F2
:10156000000000F07DFD00F013F800F049F800F0F5
:1015700017F900F085F900F03BF800F059F801F098
:101580006FF908BDAFF30080AFF30080AFF30080C8
:1015900008B500F0F5FC08BDAFF30080AFF30080A4
:1015A00000B583B00190019B4FF001021A70019BBE
:1015B0004FF000025A60019B4FF000029A60019BBD
:1015C0004FF00002DA60019B4FF000021A61019BAC
:1015D0004FF000025A61019B03F118031846FFF710
:1015E00007FC03B000BD00BFAFF30080AFF3008085
:1015F000704700BFAFF30080AFF30080AFF300800F
:1016000008B500F0D5FF08BDAFF30080AFF3008050
:1016100082B00190019B4FF001021A70019B4FF0C4
:1016200000025A6002B07047AFF30080AFF3008051
:1016300008B500F035FE08BDAFF30080AFF30080C1
:1016400000B585B0039002910192039B03F1300332
:1016500018460299019A4FF0FF33FFF781FE0346C7
:10166000184605B000BD00BFAFF30080AFF30080A7
:1016700000B585B0039002910192039B03F10C0326
:1016800018460299019A4FF0FF33FFF741FD0346D8
:10169000184605B000BD00BFAFF30080AFF3008077
:1016A00000B583B001900B468DF80330019B03F128
:1016B00030029DF80330104619464FF0FF32FFF715
:1016C000B7FD0346184603B000BD00BFAFF300806E
:1016D00000B583B00190019B03F10C0318464FF055
:1016E000FF31FFF7CDFC0346184603B000BD00BF35
:1016F00000B585B003900B4601928DF80B30039B2B
:1017000003F130029DF80B3010461946019AFFF79D
:101710008FFD0346184605B000BD00BFAFF3008043
:1017200000B583B001900091019B03F10C031846B2
:101730000099FFF7A5FC0346184603B000BD00BFA3
:1017400000B585B00390029101920093039B03F1D1
:10175000300318460299019A009BFFF701FE0346E9
:10176000184605B000BD00BFAFF30080AFF30080A6
:1017700000B585B00390029101920093039B03F1A1
:101780000C0318460299019A009BFFF7C1FC03461F
:10179000184605B000BD00BFAFF30080AFF3008076
:1017A00008B501F03DF808BDAFF30080AFF300804D
:1017B00000B587B0059004910392059A43F6900313
:1017C000C0F600031360059B03F104031A46059B52
:1017D0005A60059B4FF001021A72059B03F10C023F
:1017E000059B03F1540305990091104619464FF0EB
:1017F0001002049BFFF7C4FB059B03F13002059B1D
:1018000003F1640305990091104619464FF0100248
:10181000039BFFF7E5FC07B000BD00BFAFF30080FE
:1018200000B583B001900B468DF80330019B002B6F
:10183000019B5B69002B07D1019B03F10403184650
:101840004FF00401FFF7ECFA019B03F10C029DF845
:10185000033010461946FFF7C3FB0346002B07DA97
:10186000019B03F1040318464FF08001FFF7D8FAFB
:1018700003B000BDAFF30080AFF30080AFF3008092
:1018800008B500F045FD08BDAFF30080AFF3008060
:1018900000B583B00190019B4FF001021A70019BCB
:1018A0004FF000025A60019B4FF000029A60019BCA
:1018B00003F10C031846FFF79BFA03B000BD00BF0D
:1018C00082B001904FF48053CEF200035A68019B1E
:1018D0009A6002B0704700BFAFF30080AFF30080A2
:1018E00084B001904FF48053CEF200035B68039301
:1018F000019B9B68039AC3EB020240F66813C2F295
:1019000000031B68C3EB0202019B9A60019B9A686B
:10191000019BDB689A4204D9019B9A68019BDA60BB
:1019200009E0019B9A68019B1B699A4203D2019BC3
:101930009A68019B1A6104B0704700BFAFF3008042
:1019400000B587B040F66813C2F200034FF0000202
:101950001A6001AB184600F013F8019B01AA10466B
:101960009847029B01AA10469847039A40F66813CD
:10197000C2F200031A6007B000BD00BFAFF30080E1
:1019800082B00190019A41F6C103C0F600031360D2
:10199000019A41F6E103C0F600035360019B4FF04A
:1019A00000029A60019B4FF00002DA60019B4FF049
:1019B000FF321A6102B07047AFF30080AFF30080CE
:1019C00000B583B04FF00003C4F202031B6803F0BC
:1019D0000F0301934FF00003C4F20203019A5A600F
:1019E00040F67013C2F200031B68002B0CD040F6C7
:1019F0007013C2F200031A6840F67013C2F20003BB
:101A00005B68184601999047FEF752FC03B000BD91
:101A100000B583B04FF00003C4F202031B684FEA25
:101A2000131303F00F0301934FF00003C4F20203FA
:101A3000019A4FEA02125A6040F67013C2F2000394
:101A40009B68002B0CD040F67013C2F200039A681A
:101A500040F67013C2F20003DB6818460199904704
:101A6000FEF726FC03B000BDAFF30080AFF30080AB
:101A700000B583B04FF00003C4F202031B684FEAC5
:101A8000132303F00F0301934FF00003C4F202038A
:101A9000019A4FEA02225A6040F67013C2F2000324
:101AA0001B69002B0CD040F67013C2F200031A69B8
:101AB00040F67013C2F200035B6918460199904723
:101AC000FEF7F6FB03B000BDAFF30080AFF300807C
:101AD00000B583B04FF00003C4F202031B684FEA65
:101AE000133303F00F0301934FF00003C4F202031A
:101AF000019A4FEA02325A6040F67013C2F20003B4
:101B00009B69002B0CD040F67013C2F200039A6957
:101B100040F67013C2F20003DB6918460199904742
:101B2000FEF7C6FB03B000BDAFF30080AFF300804B
:101B300000B583B04FF00003C4F202031B684FEA04
:101B4000134303F00F0301934FF00003C4F20203A9
:101B5000019A4FEA02425A6040F67013C2F2000343
:101B60001B6A002B0CD040F67013C2F200031A6AF5
:101B700040F67013C2F200035B6A18460199904761
:101B8000FEF796FB03B000BDAFF30080AFF300801B
:101B900000B583B04FF00003C4F202031B684FEAA4
:101BA000135303F00F0301934FF00003C4F2020339
:101BB000019A4FEA02525A6040F67013C2F20003D3
:101BC0009B6A002B0CD040F67013C2F200039A6A95
:101BD00040F67013C2F20003DB6A18460199904781
:101BE000FEF766FB03B000BDAFF30080AFF30080EB
:101BF00000B583B04FF00003C4F202031B684FEA44
:101C0000136303F00F0301934FF00003C4F20203C8
:101C1000019A4FEA02625A6040F67013C2F2000362
:101C20001B6B002B0CD040F67013C2F200031A6B32
:101C300040F67013C2F200035B6B1846019990479F
:101C4000FEF736FB03B000BDAFF30080AFF30080BA
:101C500082B040F66C13C2F200034FF000021A602B
:101C60004FF0000301931CE043F6B002C0F60002FF
:101C700001990B464FEA43030B444FEA8303134495
:101C80001B684FF000021A6040F67013C2F20003A6
:101C9000019A4FF0000143F83210019B03F1010358
:101CA0000193019B062BDFDD4FF00003C4F202031A
:101CB0004FF0FF325A6002B0704700BFAFF30080B0
:101CC00008B54FF4E043C4F200034FF4E042C4F21D
:101CD0000002126842F480721A604FF48053C4F21A
:101CE00002031B6A03F44073B3F5407F0DD04FF439
:101CF0008053C4F202034FF480321A624FF48053CF
:101D0000C4F202034FF000021A624FF48053C4F28F
:101D100002031B6A03F40043002B19D14FF48053D4
:101D2000C4F202034FF48052C4F20202126A42F477
:101D300040721A6200F07CFA4FF48053C4F202033E
:101D40004FF48052C4F20202126A42F400421A6254
:101D500008BD00BFAFF30080AFF30080AFF3008099
:101D600008B54FF48053C4F202031B694FF480534B
:101D7000C4F202034FF0FF321A614FF48053C4F2F1
:101D800002034FF000021A614FF48053C4F20203C1
:101D9000DB684FF48053C4F202034FF0FF32DA6085
:101DA0004FF48053C4F202034FF00002DA604EF2A7
:101DB0001003CEF2000345F6BF525A604EF21003F4
:101DC000CEF200034FF000029A604EF21003CEF202
:101DD00000034FF007021A604EF6F053CEF20003F4
:101DE0004EF6F052CEF20002D26842F08072DA6013
:101DF0004FF48053CEF200034FF48052CEF2000233
:101E0000126842F001021A604FF48053C4F20203D8
:101E10004FF48052C4F20202D26942F08052DA6179
:101E20004FF48053C4F202034FF48052C4F2020212
:101E3000D26942F00062DA61FFF742FFFFF708FF64
:101E400008BD00BFAFF30080AFF30080AFF30080A8
:101E50004FF48053C4F202034FF48052C4F20202E2
:101E6000126842F001021A6000BF4FF48053C4F2BE
:101E700002031B6803F00203002BF6D04FF48053DB
:101E8000C4F202034FF48052C4F20202126802F05C
:101E9000F9021A604FF48053C4F202034FF00002BB
:101EA0005A6000BF4FF48053C4F202035B6803F032
:101EB0000C03002BF6D14FF48053C4F202034FF40D
:101EC0008052C4F20202126842F480321A6000BFEB
:101ED0004FF48053C4F202031B6803F40033002B59
:101EE000F6D04FF48053C4F202034FF48052C4F290
:101EF0000202526842F4A0225A604FF48053C4F2A6
:101F000002034FF48052C4F20202126842F080725F
:101F10001A6000BF4FF48053C4F202031B6803F041
:101F20000073002BF6D04FF48053C4F202034FF439
:101F3000C842C0F245025A604FF40053C4F2020393
:101F40004FF010021A604FF48053C4F202034FF4B2
:101F50008052C4F20202526842F002025A6000BF8C
:101F60004FF48053C4F202035B6803F00C03082BA8
:101F7000F6D17047AFF30080AFF30080AFF300807D
:101F800008B540F6A810C2F20000FFF709FB40F6C2
:101F9000A813C2F200034FF41052C4F201029A6275
:101FA00040F6A813C2F2000343F6B002C0F60002E6
:101FB000DA6240F6A813C2F2000342F28A521A63B0
:101FC0004FF48053C4F202034FF48052C4F2020271
:101FD000926942F400729A614FF41053C4F2010303
:101FE0004FF000025A604FF41053C4F201034FF057
:101FF00001029A604FF41053C4F201034FF009023A
:102000009A6000BF4FF41053C4F201039B6803F0C1
:102010000803002BF6D14FF41053C4F201034FF024
:1020200005029A6000BF4FF41053C4F201039B688D
:1020300003F00403002BF6D14FF41053C4F2010354
:102040004FF000029A604FF48053C4F202034FF441
:102050008052C4F20202926922F400729A6108BDB1
:1020600082B001904FF48053C4F202034FF48052C7
:10207000C4F20202926942F07D029A614FF4006359
:10208000C4F20103019A1268DA604FF40063C4F2EB
:102090000103019A92685A604FF40063C4F201038D
:1020A000019A52681A604FF44063C4F20103019A26
:1020B000D268DA604FF44063C4F20103019A5269B6
:1020C0005A604FF44063C4F20103019A12691A6026
:1020D0004FF48053C4F20103019A9269DA604FF41D
:1020E0008053C4F20103019A126A5A604FF480537C
:1020F000C4F20103019AD2691A604FF4A053C4F2EA
:102100000103019A526ADA604FF4A053C4F201034A
:10211000019AD26A5A604FF4A053C4F20103019AA3
:10212000926A1A604FF4C053C4F20103019A126B11
:10213000DA604FF4C053C4F20103019A926B5A6003
:102140004FF4C053C4F20103019A526B1A6002B0FB
:10215000704700BFAFF30080AFF30080AFF30080A3
:1021600000B583B04FF42053C4F200039B889BB2A8
:1021700003F00803002BF5D04FF42053C4F2000302
:102180001B889AB24FF42053C4F200039B889BB281
:1021900002EA0303ADF806304FF42053C4F2000303
:1021A0004FF42052C4F20002928892B222F0070249
:1021B00092B29A80BDF8063003F00103DBB2002B27
:1021C0000BD040F6DC13C2F200031B6840F6DC10B3
:1021D000C2F200004FF000019847BDF8063003F04E
:1021E0000203002B0BD040F6DC13C2F200031B6885
:1021F00040F6DC10C2F200004FF001019847BDF834
:10220000063003F00403002B0BD040F6DC13C2F2BF
:1022100000031B6840F6DC10C2F200004FF0020120
:102220009847FEF745F803B000BD00BFAFF300804C
:102230004FF42053C4F200039B889BB203F02003A9
:10224000002BF5D04FF42053C4F200034FF420527A
:10225000C4F20002928892B242F0100292B29A80C6
:102260004FF42053C4F200034FF000021A814FF4E0
:102270002053C4F200034FF223429A814FF42053BB
:10228000C4F200034FF42052C4F20002928892B2CA
:1022900022F0100292B29A80704700BFAFF3008024
:1022A00008B54FF42053C4F200034FF42052C4F297
:1022B0000002928892B222F0080292B29A804FF401
:1022C0002053C4F200039B889BB203F00803002B49
:1022D000F5D04FF42053C4F200039B889BB203F067
:1022E0002003002BF5D04FF42053C4F200034FF02D
:1022F00000021A8040F6DC13C2F200034FF0000225
:102300001A604FF003004FF0F001FEF759F808BDD6
:1023100008B540F64023C2F200034FF6FF721A8060
:1023200040F6E010C2F20000FFF7B2FA40F6E01308
:10233000C2F200034FF44052C4F20102DA6140F6E7
:10234000E013C2F20003204A1A6240F6E013C2F220
:1023500000031E4A5A6240F6E013C2F2000341F243
:102360000A029A6240F6E013C2F2000341F2180238
:10237000DA6240F61020C2F20000FFF789FA40F658
:102380001023C2F200034FF46052C4F20002DA617B
:1023900040F61023C2F200030D4A1A6240F61023E1
:1023A000C2F200030B4A5A6240F61023C2F2000345
:1023B00041F20A029A6240F61023C2F2000341F28F
:1023C0001802DA6208BD00BFBC380008C83800082F
:1023D000D4380008E0380008AFF30080AFF3008085
:1023E00000B585B00190019B1B691B69ADF80E30EB
:1023F000019B1B69DB689AB2BDF80E3002EA030349
:102400009BB203F0FF03ADF80E30019B1B69BDF8D2
:102410000E206FEA02021A61BDF80E3003F00203CB
:10242000002B04D0019B5B681B6901989847BDF89D
:102430000E3003F00403002B04D0019B5B689B6902
:1024400001989847BDF80E3003F00803002B04D024
:10245000019B5B681B6A01989847BDF80E3003F03A
:102460001003002B04D0019B5B689B6A019898477E
:10247000BDF80E3003F00103DBB2002B04D0019B4A
:102480005B689B680198984705B000BDAFF300807A
:1024900008B54FF43053C4F201036FF001021A6122
:1024A00040F64423C2F200035B689B6840F6442078
:1024B000C2F200009847FDF7FBFE08BDAFF30080B5
:1024C00000B583B04FF43053C4F201031B699AB2D4
:1024D0004FF43053C4F20103DB689BB202EA0303FA
:1024E0009BB203F0FF03ADF806304FF43053C4F253
:1024F0000103BDF806206FEA02021A61BDF806303A
:1025000003F00203002B0AD040F64423C2F200037A
:102510005B681B6940F64420C2F200009847BDF892
:10252000063003F00403002B0AD040F64423C2F225
:1025300000035B689B6940F64420C2F200009847A4
:10254000BDF8063003F00803002B0AD040F6442300
:10255000C2F200035B681B6A40F64420C2F200002E
:102560009847BDF8063003F01003002B0AD040F660
:102570004423C2F200035B689B6A40F64420C2F227
:1025800000009847FDF794FE03B000BDAFF3008054
:1025900008B540F65820C2F20000FFF721FFFDF712
:1025A00087FE08BDAFF30080AFF30080AFF300807B
:1025B00008B540F64420C2F20000FFF729F840F6C3
:1025C0004423C2F200034FF43052C4F201021A61F4
:1025D00040F65820C2F20000FFF71AF840F65823E0
:1025E000C2F200034FF40062C4F200021A6108BD97
:1025F00000B585B001900B46ADF802304FF00003F6
:102600000393BDF8023003F00803002B03D0039BB3
:1026100043F080030393BDF8023003F00103DBB203
:10262000002B03D0039B43F020030393BDF802303B
:1026300003F00203002B03D0039B43F040030393FA
:10264000BDF8023003F00403002B03D0039B43F4D6
:1026500080730393019B03F1040318460399FEF76B
:10266000DFFB05B000BD00BFAFF30080AFF300801B
:1026700000B587B00190019B5B6F0493049B9B891D
:10268000ADF80E30049B1B88ADF81630BDF816303F
:1026900003F48073002B13D04FF0200383F31188D1
:1026A000019B03F1040318464FF40071FEF7B8FBD9
:1026B0004FF0000383F31188049B4FF6FF621A80EA
:1026C0004FF0200383F3118817E0BDF8163003F0B4
:1026D0000F03002B05D0BDF8163001981946FFF7FF
:1026E00087FF049B9B889BB2DBB201981946FFF7DA
:1026F00097F8049B1B88ADF81630BDF8163003F030
:102700002003002BE1D14FF0000383F31188BDF8C3
:102710000E3003F08003002B30D0BDF8163003F0EC
:102720008003002B2AD04FF0200383F31188019BF4
:1027300003F130031846FEF7CBFD03460293029BDC
:10274000002B13DA019B03F1040318464FF0080134
:10275000FEF766FBBDF80E3023F0C0039BB243F0DA
:1027600040039BB29AB2049B9A8103E0029B9AB207
:10277000049B9A804FF0000383F31188BDF8163054
:1027800003F04003002B1AD04FF0200383F311888D
:10279000019B03F1040318464FF01001FEF740FBC4
:1027A0004FF0000383F31188BDF80E3023F0C0030F
:1027B0009AB2049B9A81049B4FF6BF721A8007B0AD
:1027C00000BD00BFAFF30080AFF30080AFF3008027
:1027D00082B001904FF48843C4F200034FF4884262
:1027E000C4F20002928992B242F0800292B29A81BF
:1027F00002B07047AFF30080AFF30080AFF300800A
:1028000008B540F66C20C2F20000FFF731FFFDF77B
:102810004FFD08BDAFF30080AFF30080AFF3008041
:1028200008B540F66C20C2F200004FF0000142F201
:10283000D172C0F60002FEF7BBFF40F66C23C2F275
:1028400000034FF48842C4F200025A6708BD00BF7B
:1028500008B5FFF7FDFA08BDAFF30080AFF30080C5
:10286000704700BFAFF30080AFF30080AFF300808C
:1028700084B0019000914FF00003ADF80E30019B41
:102880001B88ADF80E30BDF80E3003F44153ADF89F
:102890000E30009B1A88009B5B8842EA03039AB2C1
:1028A000009B9B8842EA03039AB2009BDB8842EAC2
:1028B00003039AB2009B1B8942EA03039AB2009B6E
:1028C0005B8942EA03039AB2009B9B8942EA0303B5
:1028D0009AB2009BDB8942EA03039AB2BDF80E303C
:1028E00042EA0303ADF80E30019BBDF80E201A80BA
:1028F000019B9B8B9BB223F400639AB2019B9A834A
:10290000009B1A8A019B1A8204B07047AFF30080C3
:1029100082B001900B468DF803309DF80330002BF8
:1029200008D0019B1B889BB243F040039AB2019BE5
:102930001A8007E0019B1B889BB223F040039AB2E8
:10294000019B1A8002B07047AFF30080AFF30080A4
:1029500082B001900B46ADF80230019BBDF8022019
:102960009A8102B0704700BFAFF30080AFF30080E0
:1029700084B001900B46ADF802304FF000038DF8A3
:102980000F30019B1B899AB2BDF8023002EA0303A3
:102990009BB2002B04D04FF001038DF80F3003E001
:1029A0004FF000038DF80F309DF80F30184604B03B
:1029B000704700BFAFF30080AFF30080AFF300803B
:1029C00088B0019000914FF0000307934FF000038F
:1029D00004934FF0000306934FF0000303934FF06E
:1029E000000305934FF000030293009BDB7803F094
:1029F0000F030793009BDB7803F01003002B05D037
:102A0000009B9B78079A42EA03030793009B1B886D
:102A100003F0FF03002B51D0019B1B6805934FF07F
:102A20000003069344E0069B4FF0010202FA03F311
:102A30000393009B1B881A46039B02EA030304933B
:102A4000049A039B9A422FD1069B4FEA8303039378
:102A5000039B4FF00F0202FA03F30293029B6FEA0B
:102A60000303059A02EA03030593039B079A02FAFC
:102A700003F3059A42EA03030593009BDB78282BB6
:102A800007D1069B4FF0010202FA03F2019B5A6143
:102A90000AE0009BDB78482B06D1069B4FF0010231
:102AA00002FA03F2019B1A61069B03F101030693EC
:102AB000069B072BB7D9019B059A1A60009B1B88C0
:102AC000FF2B56D9019B5B6805934FF000030693DB
:102AD00049E0069B03F108034FF0010202FA03F3F9
:102AE0000393009B1B881A46039B02EA030304938B
:102AF000049A039B9A4232D1069B4FEA83030393C5
:102B0000039B4FF00F0202FA03F30293029B6FEA5A
:102B10000303059A02EA03030593039B079A02FA4B
:102B200003F3059A42EA03030593009BDB78282B05
:102B300008D1069B03F108034FF0010202FA03F2E9
:102B4000019B5A61009BDB78482B08D1069B03F15F
:102B500008034FF0010202FA03F2019B1A61069B7F
:102B600003F101030693069B072BB2D9019B059A3B
:102B70005A6008B0704700BFAFF30080AFF3008029
:102B800082B001900B46ADF80230BDF80220019BE7
:102B90001A6102B0704700BFAFF30080AFF300804E
:102BA00082B001900B46ADF80230BDF80220019BC7
:102BB0005A6102B0704700BFAFF30080AFF30080EE
:102BC00082B001900B468DF803309DF80330002B46
:102BD0000DD04FF48053C4F202034FF48052C4F27C
:102BE00002029169019A41EA02029A610EE04FF4F1
:102BF0008053C4F202034FF48052C4F2020291697E
:102C0000019A6FEA020201EA02029A6102B0704779
:102C100000B585B003468DF807309DF80730002BCE
:102C200002D000F02DF801E000F022FD00F098FD48
:102C300000F066FD4FF00F0000F042FD4FF0000382
:102C4000039303E0039B03F1010303934FF440500C
:102C5000C4F201004FF08001FFF78AFE0346012B0A
:102C6000F0D0039A039B1A44039BC3EB0203039324
:102C700000F086FDDAE700BFAFF30080AFF300801D
:102C800008B500F01DFC4FF4802000F009FC00F0B6
:102C900087FD4FF4802000F003FC00F091FD4FF41D
:102CA000802000F0FDFB4FF000004FF000014FF0DE
:102CB000010200F0F5FA4FF0480000F0D9FB4FF0A8
:102CC000030000F0B5FB4FF0000000F091FB4FF067
:102CD00000004FF000014FF0000200F0E1FA4FF069
:102CE000010000F015FB40F60003C2F200031B7860
:102CF000012B08D100F00CF840F60003C2F20003EB
:102D00004FF000021A7000F083FA08BDAFF30080A4
:102D100082B04FF0000301930CE040F6E423C2F2CE
:102D20000003019A13444FF000021A70019B03F153
:102D300001030193019A40F2F7139A42EDDD40F648
:102D4000E043C2F200034FF001021A7002B0704774
:102D500082B002460B468DF807208DF806309DF8AC
:102D6000073003F1FF3213464FEA430313444FEA9F
:102D700043031A469DF8063003F1FF334FF0540128
:102D800001FB03F31A4440F6DC43C2F200031A606D
:102D900002B07047AFF30080AFF30080AFF3008064
:102DA00086B002460B468DF807208DF806309DF858
:102DB00006301F2B03D84FF094038DF806309DF892
:102DC0000630972B40F2A6809DF80630C02B04D128
:102DD0004FF085038DF806309CE09DF80630C22B3D
:102DE00004D14FF083038DF8063093E09DF8063050
:102DF000C72B04D14FF080038DF806308AE09DF890
:102E00000630C92B04D14FF090038DF8063081E0D5
:102E10009DF80630CA2B04D14FF088038DF8063098
:102E200078E09DF80630CE2B04D14FF08C038DF85E
:102E300006306FE09DF80630E02B04D14FF085039B
:102E40008DF8063066E09DF80630E22B04D14FF095
:102E500083038DF806305DE09DF80630E72B04D142
:102E60004FF087038DF8063054E09DF80630E82BCC
:102E700004D14FF08A038DF806304BE09DF8063000
:102E8000E92B04D14FF082038DF8063042E09DF823
:102E90000630EA2B04D14FF088038DF8063039E074
:102EA0009DF80630EB2B04D14FF089038DF80630E6
:102EB00030E09DF80630EE2B04D14FF08C038DF8F6
:102EC000063027E09DF80630EF2B04D14FF08B033E
:102ED0008DF806301EE09DF80630F42B04D14FF03B
:102EE00093038DF8063015E09DF80630F92B04D1D8
:102EF0004FF097038DF806300CE09DF80630FB2B61
:102F000004D14FF096038DF8063003E04FF09403A0
:102F10008DF806309DF80730012B34D14FF00003B7
:102F20008DF817302AE040F6DC43C2F2000319683E
:102F30009DF80630A3F120009DF817C043F650120B
:102F4000C0F6000203464FEA83030344634413447C
:102F50001B784FEA4303DAB240F6E423C2F20003DF
:102F60005A5401F1010240F6DC43C2F200031A6038
:102F70009DF8173003F101038DF817309DF81730D5
:102F8000042BD0D903E19DF80730022B40F0FF80DD
:102F900040F6DC43C2F200031B68A3F15403049320
:102FA000049B002BC0F20E814FF000038DF8173008
:102FB000DCE09DF80630A3F120019DF8170043F6F0
:102FC0005012C0F600020B464FEA83030B44034441
:102FD00013441B784FEA43038DF80F309DF80F30F0
:102FE00003F00103DBB21A464FEA420213448DF8A4
:102FF0000E309DF80F3003F00203DBB21A464FEAA1
:10300000420213444FEA4303DBB2DAB29DF80E30BA
:1030100042EA0303DBB28DF80E309DF80F3003F067
:103020000403DBB21A464FEA420213444FEA830319
:10303000DBB2DAB29DF80E3042EA0303DBB28DF860
:103040000E309DF80F3003F00803DBB21A464FEA4A
:10305000420213444FEAC303DBB2DAB29DF80E30EA
:1030600042EA0303DBB28DF80E309DF80F304FEAD1
:1030700013138DF80F309DF80F3003F00103DBB20E
:103080001A464FEA420213448DF80D309DF80F3076
:1030900003F00203DBB21A464FEA420213444FEA3E
:1030A0004303DBB2DAB29DF80D3042EA0303DBB230
:1030B0008DF80D309DF80F3003F00403DBB21A4693
:1030C0004FEA420213444FEA8303DBB2DAB29DF8BF
:1030D0000D3042EA0303DBB28DF80D309DF80F305E
:1030E00003F00803DBB21A464FEA420213444FEAE8
:1030F000C303DBB2DAB29DF80D3042EA0303DBB260
:103100008DF80D3040F6E423C2F20003049A134414
:103110009DF80E201A70049B03F10103049340F6FE
:10312000E423C2F20003049A13449DF80E201A709F
:10313000049B03F101030493049B03F1520240F644
:10314000E423C2F200039DF80D109954049B03F18F
:10315000530240F6E423C2F200039DF80D10995487
:103160009DF8173003F101038DF817309DF81730E3
:10317000042B7FF61EAF40F6DC43C2F200031B684F
:1031800003F10B0240F6DC43C2F200031A6040F682
:10319000DC43C2F200031A6840F6E423C2F20003E3
:1031A0004FF00001995402F1010240F6DC43C2F2F3
:1031B00000031A6040F6E043C2F200034FF0010240
:1031C0001A7000E000BF06B0704700BFAFF3008088
:1031D00000B583B0034600918DF807300BE0009BEB
:1031E0001B78009A02F1010200929DF80720104618
:1031F0001946FFF7D5FD009B1B78002BEFD103B0DC
:1032000000BD00BFAFF30080AFF30080AFF30080DC
:1032100000B583B000F0A4FA4FF000004FF00001B9
:103220004FF0000200F03CF84FF0000000F0A0F872
:103230004FF0000000F0BCF800F07AFA4FF0000305
:1032400001930DE040F6E423C2F20003019A134417
:103250001B78184600F034FA019B03F10103019337
:10326000019A40F2F7139A42ECDD00F089FA40F639
:10327000E043C2F200034FF000021A7003B000BD39
:1032800000B583B003468DF8073000F069FA00F00E
:1032900037FA9DF80730184600F012FA03B000BD67
:1032A00000B585B0134602468DF807200A468DF812
:1032B00006208DF805304FF020038DF80F309DF873
:1032C0000730002B05D09DF80F3043F004038DF834
:1032D0000F309DF80630012B05D19DF80F3043F0DB
:1032E00002038DF80F309DF80530012B05D19DF8B4
:1032F0000F3043F001038DF80F309DF80F30184662
:10330000FFF7BEFF05B000BDAFF30080AFF3008054
:1033100000B585B003468DF807304FF008038DF8EF
:103320000F309DF80730012B06D19DF80F3043F088
:1033300004038DF80F3014E09DF80730022B06D1FE
:103340009DF80F3043F001038DF80F3009E09DF830
:103350000730032B05D19DF80F3043F005038DF89E
:103360000F309DF80F301846FFF78AFF05B000BDFB
:1033700000B585B003468DF807304FF040038DF857
:103380000F309DF8073003F00703DAB29DF80F30D5
:1033900042EA0303DBB28DF80F309DF80F30184678
:1033A000FFF76EFF05B000BDAFF30080AFF3008004
:1033B00000B585B003468DF807304FF080038DF8D7
:1033C0000F309DF8073003F07F03DAB29DF80F301D
:1033D00042EA0303DBB28DF80F309DF80F30184638
:1033E000FFF74EFF05B000BDAFF30080AFF30080E4
:1033F00000B585B003468DF807304FF004038DF813
:103400000F309DF8073003F00303DAB29DF80F3058
:1034100042EA0303DBB28DF80F309DF80F301846F7
:10342000FFF72EFF05B000BDAFF30080AFF30080C3
:1034300000B585B003468DF807304FF010038DF8C6
:103440000F309DF8073003F00703DAB29DF80F3014
:1034500042EA0303DBB28DF80F309DF80F301846B7
:10346000FFF70EFF05B000BDAFF30080AFF30080A3
:1034700084B003468DF807304FF080038DF80F308D
:103480009DF8073003F07F03DAB29DF80F3042EA6F
:103490000303DBB28DF80F3004B07047AFF3008048
:1034A00084B001904FF00003039303E0039B03F10A
:1034B00001030393039A019B9A42F7DB04B0704720
:1034C00000B587B04FF40060C4F201004FF0100166
:1034D000FFF756FB4FF44060C4F201004FF00101CA
:1034E000FFF74EFB4FF48050C4F201004FF0200173
:1034F000FFF746FB4FF480504FF00101FFF760FBF0
:103500004FF008004FF00101FFF75AFB4FF0100099
:103510004FF00101FFF754FB4FF004004FF00101A1
:10352000FFF74EFB4FF01003ADF814304FF00303DC
:103530008DF816304FF010038DF8173005AB4FF4AF
:103540000060C4F201001946FFF73AFA4FF0010398
:10355000ADF814304FF003038DF816304FF0100320
:103560008DF8173005AB4FF44060C4F201001946E6
:10357000FFF726FA4FF02003ADF814304FF00303A5
:103580008DF816304FF010038DF8173005AB4FF45F
:103590008050C4F201001946FFF712FA4FF0A00361
:1035A000ADF814304FF018038DF817304FF00303C7
:1035B0008DF8163005AB4FF40060C4F201001946D7
:1035C000FFF7FEF94FF48050C4F201004FF02001E4
:1035D000FFF7D6FA4FF44060C4F201004FF010013B
:1035E000FFF7CEFA4FF44060C4F201004FF0010142
:1035F000FFF7C6FA48F2A060C0F20100FFF750FFE3
:103600004FF44043ADF800304FF48273ADF8023010
:103610004FF00003ADF804304FF00203ADF8063070
:103620004FF00103ADF808304FF40073ADF80A30E5
:103630004FF03803ADF80C304FF00003ADF80E300A
:103640004FF00703ADF810306B464FF44050C4F212
:1036500001001946FFF70CF94FF44050C4F2010085
:103660004FF00101FFF754F907B000BDAFF3008040
:1036700008B54FF44060C4F201004FF01001FFF7AD
:103680007FFA4FF48050C4F201004FF02001FFF7A1
:1036900077FA4FF44060C4F201004FF00101FFF7E8
:1036A0006FFA4FF44050C4F201004FF00001FFF7F1
:1036B0002FF948F2A060C0F20100FFF7F1FE08BD4B
:1036C00000B583B003468DF8073000BF4FF440507B
:1036D000C4F201004FF08001FFF74AF90346012BC5
:1036E000F4D09DF807309BB24FF44050C4F2010073
:1036F0001946FFF72DF903B000BD00BFAFF30080FE
:1037000008B500BF4FF44050C4F201004FF08001F3
:10371000FFF72EF90346012BF4D04FF44060C4F2BA
:1037200001004FF00101FFF73BFA08BDAFF3008045
:1037300008B500BF4FF44050C4F201004FF08001C3
:10374000FFF716F90346012BF4D04FF44060C4F2A2
:1037500001004FF00101FFF713FA08BDAFF300803D
:1037600008B54FF44060C4F201004FF01001FFF7BC
:1037700017FA08BDAFF30080AFF30080AFF300800D
:1037800008B54FF44060C4F201004FF01001FFF79C
:10379000F7F908BDAFF30080AFF30080AFF300800E
:1037A00008B54FF48050C4F201004FF02001FFF73C
:1037B000F7F908BDAFF30080AFF30080AFF30080EE
:1037C00008B54FF48050C4F201004FF02001FFF71C
:1037D000D7F908BDAFF30080AFF30080AFF30080EE
:1037E00008B5FDF7B5FEFCF78BFE4FF00100FFF7C3
:1037F0000FFAFFF78DFA4FF001004FF00101FFF7CC
:10380000A7FA4FF0010043F66001C0F60001FFF790
:10381000DFFCFFF7FDFC4FF47A70FDF789FAFFF744
:1038200077FA4FF001004FF00101FFF791FA4FF0E6
:10383000010043F66801C0F60001FFF7C9FCFFF77D
:10384000E7FC4FF47A70FDF773FAD2E7AFF300802C
:1038500069646C65000000000000000000000000CA
:10386000626B6A6768000000667364676664730071
:103870006D61696E00168311040448080C10141859
:10388000001C1D1E1F2000000000000000000000A2
:103890004116000871160008A1160008D11600088C
:1038A000F1160008211700084117000871170008D9
:1038B000080002400400024000000B001C0002400F
:1038C0000400024004010C003000024004000240E9
:1038D00008020D0044000240040002400C030E00E8
:1038E000580002400400024010040F006C00024027
:1038F0000400024014051000800002400400024051
:103900001806110000000000000000000000000088
:10391000FFFFFFFF4444444444444444FFFFFFFF8F
:103920004444444444444444FFFFFFFF444444446B
:1039300044444444FFFFFFFF44444444444444445B
:10394000FFFFFFFF8888888888888888000000003B
:10395000000000000000002F000000070007001416
:103960007F147F14242A7F2A12C4C81026463649A1
:103970005522500005030000001C22410000412296
:103980001C0014083E081408083E080800005030C7
:1039900000101010101000606000002010080402D9
:1039A0003E5149453E00427F400042615149462117
:1039B00041454B311814127F1027454545393C4A83
:1039C00049493001710905033649494936064949D3
:1039D000291E003636000000563600000814224129
:1039E0000014141414140041221408020151090691
:1039F000324959513E7E1111117E7F494949363E67
:103A0000414141227F4141221C7F494949417F096F
:103A10000909013E4149497A7F0808087F00417F32
:103A200041002040413F017F081422417F40404037
:103A3000407F020C027F7F0408107F3E4141413EDF
:103A40007F090909063E4151215E7F091929464631
:103A50004949493101017F01013F4040403F1F205A
:103A600040201F3F4038403F63140814630708702C
:103A700008076151494543007F4141000204081095
:103A8000200041417F0004020102044040404040C8
:103A9000000102040020545454787F4844443838CC
:103AA00044444420384444487F3854545418087ED1
:103AB0000901020C5252523E7F0804047800447DF2
:103AC00040002040443D007F1028440000417F40DA
:103AD000007C041804787C08040478384444443892
:103AE0007C14141408081414187C7C080404084876
:103AF00054545420043F4440203C4040207C1C202F
:103B000040201C3C4030403C44281028440C50507D
:103B1000503C4464544C44000836410000007F008F
:103B200000004136080004020408040000360000CA
:103B30000E513111083C4140217C38545655182013
:103B400056555678205554557820555654780808BF
:103B50002A1C080E5131110838565556183855543C
:103B60005518385556541800457C410000467D4292
:103B7000007F7F7F7F7F7F7F7F7F7F7F7F7F7F7FD4
:103B80007C545655447F7F7F7F7F7F7F7F7F7F3848
:103B9000464546387F7F7F7F7F38454644383C42E4
:083BA00041227C3C4142207CE3
:043BA8000100000018
:0400000508000111DD
:00000001FF
