:020000040800F2
:100000000004002021090008F1090008F109000896
:10001000F1090008F1090008F1090008F1090008D8
:10002000F1090008F1090008F1090008410A000877
:10003000F1090008F1090008F1090008110A000897
:10004000F1090008F1090008F1090008314700082A
:10005000F1090008F1090008F1090008F109000898
:10006000F1090008F1090008F1090008B140000891
:100070000141000851410008A1410008F141000878
:100080004142000891420008F1090008215400088B
:1000900031540008F1090008F1090008F1090008CD
:1000A000F1090008F1090008F1090008F109000848
:1000B000F1090008F1090008F1090008F109000838
:1000C000F1090008F1090008F1090008F109000828
:1000D000F1090008F109000831500008F109000891
:0C00E000F1090008F1090008F10900080E
:1000F000002200F0C7B800BF0000000000000000B0
:100100002DE9F04F85B0044600F092FA40F2B17349
:100110009C42844640F39880A4F5F66248F21F5151
:10012000C5F2EB1102F1430002F5B673561E81FBD6
:100130000057033381FB0458C01781FB0351A0EB28
:100140006710E51700EBA606023AC5EB6810C5EB91
:10015000E81840F26D15DB174AF2100905FB026240
:100160004FF4C875C3EBE113642105FB184842F254
:10017000934B01FB10404FF4A34AB8F1000F0CBFA2
:100180003021002165460027C0F60009CDF80C801B
:10019000C9F2492BC0F2010A8046D318029104F03B
:1001A000030200930192CCF804402B7A4A2B4DD0E5
:1001B000442B5FD0019A002A41D0029EEC684E4445
:1001C000012C5BDD009A31460123013351F8040B09
:1001D000A3420244F9D1013B9C00131D8BFB031089
:1001E000D917C018C1EBA0013059C1EBC101591A90
:1001F0006B69591A2B6948BF0731013BC3EBC30335
:10020000CB18834202DB073B8342FCDA9B18296A46
:100210000137AA69022F0A440AFB032245F81C2F62
:10022000C3D1DCF838300120DCF81C209A42ACBF86
:1002300000230123CCF8003005B0BDE8F08FB8F101
:10024000000FBAD03026B9E70020F5E7009A6969B7
:100250005318019A42B9B8F1000F05D03B29D4BF19
:1002600000210121CB18D2E7039A002AF6D0002101
:10027000CB18CCE76B690099CB18C8E7009A00242B
:10028000ABE700BF2DE9F84F05460C46164600F0D7
:10029000CFF92A684FF4A341C0F20101D717834672
:1002A00044F20750CCF22E2080FB02839B18C7EB50
:1002B000234301FB1322002A05DA02F5A832013B91
:1002C00012F5C072F9D44BF2C5314FEAE279C9F2A6
:1002D000A21142F29348181DC9F2492881FB02A1DC
:1002E00048F6890788FB00A88918C8F688074FEAEE
:1002F000E07CC9EBE1214FF46169A16009FB1122A7
:1003000008EB0001CCEBA101C1EBC10187FB02C7E7
:10031000411A4FEAE27C002907EB0200A161CCEB15
:1003200060106060C0EB0010A2EB80022260C0F29F
:10033000A680002B75DB4AF2100C48F21F5040F2E9
:10034000B277C0F6000CC5F2EB104FF4C8794FF04D
:10035000640A01E001379B1A80FB0728FA1717F09F
:10036000030F07D1C2EB681801210AFB1878B8F116
:10037000000F09D180FB0781C2EBE11109FB11716C
:10038000D1F1010138BF00210CEB8102126E9342C2
:10039000E0DA4A00A7F5EC6052180C380021E3615E
:1003A0001201606121610CEB02085CF802209342AB
:1003B00007DB40469B1A0131216150F8042F9A4215
:1003C000F8DD0133E36026B1002320462362BDE857
:1003D000F88F00F025F940F66803C2F200031B68AD
:1003E000002B4FD0DBF80430BB4205D03846FFF776
:1003F00087FE002800F0DD80DBF80030002B00F0E5
:10040000C5802B68DBF81C209342C0F2DF80DBF84C
:100410003820934280F2DA800123DBF83C1023621B
:1004200033E04AF2100C48F21F5040F2B277C0F6A7
:10043000000CC5F2EB104FF4C8794FF0640A013F8D
:1004400017F0030F80FB07284FEAE77207D1C2EBD2
:10045000681801210AFB1878B8F1000F09D180FB58
:100460000781C2EBE11109FB1171D1F1010138BF24
:1004700000210CEB8102126E9B18E0D489E7073152
:10048000A16156E72662DBF820104BF2C532CD178A
:10049000C9F2A212D4F808E048F68900276882FB66
:1004A00001A6C8F6880062687618F612731B4FF42E
:1004B0006166C3EB0E05A56006FB131380FB03C149
:1004C000DE17C918C6EB6111521A6260C1EB011147
:1004D000A3EB8103FB1A23603B2B2BDD01323C3B5A
:1004E000626023603B2A48DD6B1C3C3AA36062607B
:1004F000172B26DDA269E1690132A2610131062ACA
:10050000E16101DD0022A2612169A3F11802E36823
:10051000A2600133E36058F82120934205DD0131E8
:100520009B1A0C292161E36047D000F07BF820463C
:10053000BDE8F88F002BD5DA013A3C3362602360C6
:10054000D0E7002BF1DAA269E169013AA261013931
:10055000002AE1613DDBE2681833A360531EE360CB
:10056000002BE2D12369013B2361002B34DB58F8D7
:100570002330E36000F056F8D9E7002AA8BF2B46E5
:10058000B6DA6B1E3C32A3606260B1E72B68DBF821
:100590001C209342BFF640AFDBF838209342ACBF3B
:1005A000002301232362002B3FF46DAFDBF83C10E6
:1005B0006BE74FF0FF33236265E762690023236135
:1005C0000132E361626100F02DF8B0E7002323629D
:1005D00059E70622A261BEE765690B232361013D4D
:1005E000656115F0030F0BD12846642100F072F904
:1005F00031B1012101F5B6720B230132E261B6E798
:1006000028464FF4C87100F065F9D1F1010138BFF7
:100610000021EFE7000000000000000000000000E3
:10062000704700BF704700BF0000000000000000DE
:1006300040F60000C2F20000704700BF000000005A
:10064000002900F03E8180EA010C48BF49424A1E61
:1006500000F01F81030048BF43428B4240F21E81DD
:10066000114200F02381B3FA83F2B1FA81F0A0EBDA
:100670000202C2F11F0204A000EB02124FF00000C0
:10068000974600BFAFF30080B3EBC17F00BF40EBE4
:10069000000028BFA3EBC173B3EB817F00BF40EB29
:1006A000000028BFA3EB8173B3EB417F00BF40EB99
:1006B000000028BFA3EB4173B3EB017F00BF40EB09
:1006C000000028BFA3EB0173B3EBC16F00BF40EB89
:1006D000000028BFA3EBC163B3EB816F00BF40EB09
:1006E000000028BFA3EB8163B3EB416F00BF40EB79
:1006F000000028BFA3EB4163B3EB016F00BF40EBE9
:10070000000028BFA3EB0163B3EBC15F00BF40EB68
:10071000000028BFA3EBC153B3EB815F00BF40EBE8
:10072000000028BFA3EB8153B3EB415F00BF40EB58
:10073000000028BFA3EB4153B3EB015F00BF40EBC8
:10074000000028BFA3EB0153B3EBC14F00BF40EB48
:10075000000028BFA3EBC143B3EB814F00BF40EBC8
:10076000000028BFA3EB8143B3EB414F00BF40EB38
:10077000000028BFA3EB4143B3EB014F00BF40EBA8
:10078000000028BFA3EB0143B3EBC13F00BF40EB28
:10079000000028BFA3EBC133B3EB813F00BF40EBA8
:1007A000000028BFA3EB8133B3EB413F00BF40EB18
:1007B000000028BFA3EB4133B3EB013F00BF40EB88
:1007C000000028BFA3EB0133B3EBC12F00BF40EB08
:1007D000000028BFA3EBC123B3EB812F00BF40EB88
:1007E000000028BFA3EB8123B3EB412F00BF40EBF8
:1007F000000028BFA3EB4123B3EB012F00BF40EB68
:10080000000028BFA3EB0123B3EBC11F00BF40EBE7
:10081000000028BFA3EBC113B3EB811F00BF40EB67
:10082000000028BFA3EB8113B3EB411F00BF40EBD7
:10083000000028BFA3EB4113B3EB011F00BF40EB47
:10084000000028BFA3EB0113B3EBC10F00BF40EBC7
:10085000000028BFA3EBC103B3EB810F00BF40EB47
:10086000000028BFA3EB8103B3EB410F00BF40EBB7
:10087000000028BFA3EB4103B3EB010F00BF40EB27
:10088000000028BFA3EB0103BCF1000F48BF4042AA
:1008900070479CEA000F48BF4042704738BF0020B5
:1008A00004BF4FEAEC7040F001007047B1FA81F2EA
:1008B000C2F11F02BCF1000F23FA02F048BF404210
:1008C00070470028C8BF6FF00040B8BF4FF000402D
:1008D00000F00EB80029F4D02DE90340FFF7B3FE75
:1008E000BDE8064002FB00F3A1EB0301704700BF27
:1008F000704700BF00000000000000000000000082
:10090000704700BFAFF30080AFF30080AFF300800B
:10091000FEE700BFAFF30080AFF30080AFF30080CD
:1009200072B6264C84F309884FF0020484F31488CD
:10093000BFF36F8F224C234D04E04FF055332360FB
:1009400004F10404AC42F8D31F4C1C4D04E04FF0FA
:100950005533236004F10404AC42F8D305F058FA8F
:100960001A4D1B4C05E02B68236004F1040405F1CB
:100970000405184B9C42F6D3174C184D04E04FF079
:100980000003236004F10404AC42F8D3FFF7B8FF7E
:10099000134C03E02368984704F10404114B9C4274
:1009A000F8D308F025FE104C03E02368984704F1C3
:1009B00004040E4B9C42F8D3FFF7AAFF0008002066
:1009C00000000020000400200004002060A80008AF
:1009D000000800206808002068080020E80F0020B8
:1009E000EC000008EC000008EC000008EC00000837
:1009F000FEE700BFAFF30080AFF30080AFF30080ED
:100A000072B6FEE7AFF30080AFF30080AFF3008073
:100A100008B500F0ADFA4FF0200383F3118800F021
:100A200077FA00F0CDF900F08BFA4FF0000383F372
:100A3000118800F0C5FA00F03BF808BDAFF3008064
:100A400010B483B0EFF309840194019B03F12003F8
:100A50000193019B83F309884FF0000383F311880E
:100A600003B010BC704700BFAFF30080AFF300804D
:100A700008B50D4B4FF000029A600B4B0B4ADA6041
:100A80004FF007004FF0100100F012F94FF00A008C
:100A90004FF0200100F00CF94FF00B004FF08001F7
:100AA00000F006F908BD00BF00ED00E00003FA0504
:100AB00010B483B04FF0200383F31188204B5B68A0
:100AC00003F40063002B34D0EFF309840194019BFD
:100AD000A3F120030193019B83F30988019B4FF04D
:100AE0008072DA61174B9B6993F82330002B0BD08F
:100AF000144B1B689A68134B9B699B689A4294BF7E
:100B000000230123DBB20AE00E4B1B689A680D4BF1
:100B10009B699B689A4234BF00230123DBB2002B00
:100B200003D0019B084A9A6107E0019B074A9A613A
:100B300003E04FF0000383F3118803B010BC70474B
:100B400000ED00E098090020510B00085C0B000844
:100B500000F0AEF900F024FD00F0C2F900DF00BFA4
:100B600003460A462DE9F04FC2F80CD0D3F80CD05A
:100B7000BDE8F08FAFF30080AFF30080AFF30080EB
:100B800008B500F0ADF94FF0000383F31188284653
:100B9000A04700F02DFE08BDAFF30080AFF300804A
:100BA00010B485B001900091019B03F003034FEA5C
:100BB000C30303931E4B019A4FEA92021C4901980A
:100BC0004FEA900000F1C00051F8200003994FF067
:100BD000FF0404FA01F16FEA010108400399009C47
:100BE00004FA01F140EA010102F1C00243F82210C7
:100BF0000F4B019A4FEA5212019901F01F014FF079
:100C0000010000FA01F102F1600243F82210084BE2
:100C1000019A4FEA5212019901F01F014FF00100B1
:100C200000FA01F143F8221005B010BC704700BF74
:100C300000E100E0AFF30080AFF30080AFF300808D
:100C400010B485B00190019B03F003034FEAC30386
:100C50000393154B019A4FEA5212019901F01F01BB
:100C60004FF0010000FA01F102F1200243F82210D6
:100C70000D4B019A4FEA92020B4901984FEA9000FE
:100C800000F1C00051F8200003994FF0FF0404FA6E
:100C900001F16FEA010100EA010102F1C00243F82B
:100CA000221005B010BC704700E100E0AFF30080F7
:100CB00010B485B001900091019B03F003034FEA4B
:100CC000C3030393104B019A4FEA92020E49019815
:100CD0004FEA900000F1060051F8200003994FF010
:100CE000FF0404FA01F16FEA010108400399009C36
:100CF00004FA01F140EA010102F1060243F8221070
:100D000005B010BC704700BF00ED00E0AFF30080FD
:100D100082B00190024B9B69024A9A61FEE700BFD4
:100D20009809002020960008AFF30080AFF3008000
:100D300000B583B0FFF79CFE00F072FA00F0A8F94E
:100D400001F0F6F801F054F914484FF0400100F0BA
:100D500047FC0246124B9A61114B9B694FF001020E
:100D600083F820200E4B9B690E4ADA6100F088F868
:100D70004FF0000383F3118862B6094B9B690A4A5E
:100D80009A610A4B4FF00002009209484FF0C001EF
:100D90004FF0010200F0CCFC03B000BD3009002090
:100DA000980900200004002080A00008110D000810
:100DB00070080020AFF30080AFF30080AFF3008035
:100DC00000B583B000F024F9284B9B6993F82330D9
:100DD000002B08D0254B9B6993F8232002F1FF32AA
:100DE000D2B283F82320214B9B695A6A02F1010297
:100DF0005A621F4BDB6803F101021D4BDA601C4B8A
:100E00001B681A461A4B9A422DD0194B1B689A68D8
:100E100002F1FF329A601FE0019BDB680093019BA7
:100E20004FF00002DA60019B1B68114A5A60019B77
:100E30001A680F4B1A6000F083F84FF0000383F339
:100E40001188019B1A69009B104698474FF02003B8
:100E500083F3118800F05CF8054B1B680193019B3C
:100E60009B68002BD8D003B000BD00BF98090020BC
:100E700088090020AFF30080AFF30080AFF300805B
:100E800008B5064B1B68002B03D1054B1B68002BD4
:100E900002D0044800F0ECF808BD00BF7C09002037
:100EA0008009002040960008AFF30080AFF3008077
:100EB00008B5084B1B68002B03D1074B1B68002BA0
:100EC00002D0064800F0D4F8034B4FF001021A603C
:100ED00008BD00BF7C09002080090020489600085A
:100EE00008B5084B1B68002B03D1074B1B68002B70
:100EF00002DC064800F0BCF8034B4FF000021A6019
:100F000008BD00BF7C090020800900205096000821
:100F100008B5084B1B68002B03DD074B1B68002B33
:100F200002D0064800F0A4F8034B4FF001021A600B
:100F300008BD00BF7C0900208009002058960008E9
:100F400008B5084B1B68002B03DD074B1B68002B03
:100F500002DC064800F08CF8034B4FF000021A60E8
:100F600008BD00BF7C0900208009002060960008B1
:100F700008B54FF0200383F311880B4B1B68002B3F
:100F800003DB0A4B1B68002B02D0094800F070F805
:100F9000054B1B6803F10102034B1A604FF000037D
:100FA00083F3118808BD00BF7C0900208009002060
:100FB00068960008AFF30080AFF30080AFF30080C5
:100FC00008B54FF0200383F311880B4B1B68002BEF
:100FD00003DD0A4B1B68002B02D0094800F048F8DB
:100FE000054B1B6803F1FF32034B1A604FF00003FF
:100FF00083F3118808BD00BF7C0900208009002010
:1010000070960008AFF30080AFF30080AFF300806C
:1010100008B5064B1B68002B03DB054B1B68002B38
:1010200002DC044800F024F808BD00BF7C09002061
:101030008009002078960008AFF30080AFF30080AD
:1010400008B5064B1B68002B03D1054B1B68002B12
:1010500002DC044800F00CF808BD00BF7C09002049
:101060008009002080960008AFF30080AFF3008075
:1010700000B583B00190034B019A1A60FFF7C0FCE2
:1010800003B000BD84090020AFF30080AFF30080FF
:10109000074A074B5A60064B5A68054B1A60044BC7
:1010A0004FF0FF329A60024B4FF00002DA60704757
:1010B00088090020AFF30080AFF30080AFF3008019
:1010C00000B587B00390029101920093FFF7A0FF53
:1010D000039B002B05D0019B002B02D0029B002B11
:1010E00002D11C48FFF7C4FF039B009A1A61039BBF
:1010F000019ADA60184B1B68059307E0059B9B6813
:10110000029AD31A0293059B1B680593059B9A6864
:10111000029B9A42F2D3039B059A1A60039B1B68B9
:101120005A68039B5A60039B5B68059A0399516058
:10113000059A52681A60039B029A9A60059A064BB8
:101140009A4205D0059B9A68029BD21A059B9A6029
:1011500007B000BD9096000888090020AFF300801A
:1011600000B583B00190FFF753FF019B002B02D124
:101170001348FFF77DFF019BDB68002B02D111486C
:10118000FFF776FF019B1A680F4B9A4208D0019B2C
:101190001B68019A12689168019A92688A189A608D
:1011A000019B5B68019A12681A60019B1B68019A97
:1011B00052685A60019B4FF00002DA6003B000BD34
:1011C000A0960008B096000888090020AFF30080C0
:1011D00084B00190019B1B680393039B1A68019BD9
:1011E0001A60019B1B68019A5A60039B184604B061
:1011F000704700BFAFF30080AFF30080AFF3008013
:1012000082B00190019B5B68019A12681A60019B91
:101210001B68019A52685A60019B184602B07047D9
:10122000094A094B5A60084B5A68074B1A60064B2B
:101230004FF000029A60044A034B5A61024B5A690C
:10124000014B1A61704700BF98090020AFF300807E
:1012500000B585B00190FFF7DBFE019B93F82030CD
:10126000002B04D0019B93F820300E2B02D11348A1
:10127000FFF7FEFE019B4FF0000283F82020104B89
:101280000393039B1B680393039B9A68019B9B68D2
:101290009A42F6D2019B039A1A60039B5A68019BFB
:1012A0005A60019B5B68039A01995160039A5268E6
:1012B0001A60019B184605B000BD00BFD09600081B
:1012C00098090020AFF30080AFF30080AFF30080F7
:1012D00000B585B003468DF80730FFF7B1FE154B1A
:1012E0009B690393039B9DF8072083F82020039BB1
:1012F0004FF0140283F823200E48FFF769FF0246DF
:101300000C4B9A610B4B9B694FF0010283F8202034
:101310006B46A3F12402039BDB699A4202D2064882
:10132000FFF7A6FE034B9B6918460399FFF718FCCD
:1013300005B000BD98090020E4960008AFF30080D6
:1013400000B585B00190019B03934FF0200383F318
:101350001188FFF7DDFD039B93F820300D2B2FD86C
:1013600001A252F823F000BFA1130008C113000826
:10137000C1130008AF130008C1130008BB13000815
:10138000C1130008C1130008C1130008C1130008ED
:10139000C1130008C1130008C1130008BB130008E3
:1013A000FFF7CEFD4FF0000383F3118815E0039B98
:1013B0009B6A9A6802F101029A600398FFF720FF86
:1013C000039B4FF0FF329A620398FFF741FFFFF74C
:1013D000B7FD4FF0000383F3118805B000BD00BFD7
:1013E00000B589B0034600918DF80730FFF728FE5D
:1013F000009BB3F1FF3F14D00F4B9B6903AA10462B
:1014000000990E4AFFF75CFE9DF807301846FFF77B
:101410005FFF069B002B09D003AB1846FFF7A0FE29
:1014200004E09DF807301846FFF752FF024B9B6916
:101430009B6A184609B000BD9809002041130008B6
:1014400000B585B001900091FFF7FAFD019B009A6D
:101450009A62019B9A68134B9B699B689A4203D8D6
:101460000198FFF7F5FE1BE00E4B9B691846FFF74E
:10147000EFFE03900B4B019A9A61019B4FF0010222
:1014800083F820206B46A3F12402039BDB699A4278
:1014900002D20548FFF7ECFD01980399FFF760FBC6
:1014A00005B000BD98090020E4960008AFF3008065
:1014B00000B583B0144B9B6901931348FFF788FE76
:1014C0000246114B9A61104B9B694FF0010283F861
:1014D0002020019B4FF0140283F823200198FFF78E
:1014E000B7FE6B46A3F12402019BDB699A4202D24C
:1014F0000648FFF7BDFD044B9B6918460199FFF7AD
:101500002FFB03B000BD00BF98090020E49600083F
:1015100000B583B01F4B9B6900931E48FFF758FE30
:1015200002461C4B9A611B4B9B694FF0010283F8EA
:101530002020009B4FF0000283F82020154B0193E0
:10154000019B1B680193019B9A68009B9B689A42D0
:10155000F6D8009B019A1A60019B5A68009B5A605A
:10156000009B5B68019A00995160019A52681A6069
:101570006B46A3F12402009BDB699A4202D2064823
:10158000FFF776FD034B9B6918460099FFF7E8FAD1
:1015900003B000BD98090020E4960008AFF3008076
:1015A00008B5064B9B6993F82330002B02D1FFF757
:1015B0007FFF01E0FFF7ACFF08BD00BF98090020E6
:1015C00084B00190019B1B680393039B1A68019BE5
:1015D0001A60039B184604B0704700BFAFF3008049
:1015E00082B001900091019B009A9A60019B4FF09C
:1015F000020283F82020019B4FF0000283F8212093
:10160000019B4FF0140283F82320019B009A5A6437
:10161000019B4FF000021A64019B4FF00002DA6355
:10162000019B4FF000025A62019B4FF0010283F8C8
:101630002220019B4FF000029A61144A019B1A611B
:10164000124B5A69019B5A61019B5B690F4A0199D0
:1016500051610E4A52691A61019B03F12C031A462B
:10166000019BDA62019B03F130031A46019B5A6326
:10167000019B5A6B019B1A63019B03F14C02019B76
:10168000DA61019B184602B0704700BF980900203C
:1016900084B00390029113468DF8073007E0039B56
:1016A0009DF807201A70039B03F101030393039A2B
:1016B000029B9A42F3D304B0704700BFAFF300809F
:1016C00000B587B00390029101920093039B0593AC
:1016D000FFF79EFC039B002B08D0029BAF2B05D984
:1016E000019B7F2B02D8009B002B02D10E48FFF7F5
:1016F000BFFC039A029BA3F12403D218059BDA6076
:10170000059BDB68009A1A60059BDB68089A5A60A3
:10171000059BDB68054A1A6205980199FFF760FF8F
:101720000346184607B000BD00970008810B00086B
:1017300000B589B00590049103920293059A059B28
:1017400003F14C03104619464FF0FF02FFF7A0FFCC
:10175000059B03F14C020599049BCB1810461946D2
:101760004FF05502FFF794FF4FF0200383F31188E9
:10177000FFF79EFB0A9B009305980499039A029B2E
:10178000FFF79EFF079007984FF00001FFF758FE04
:10179000FFF7A6FB4FF0000383F31188079B184661
:1017A00009B000BDAFF30080AFF30080AFF300805D
:1017B00000B583B00190019B002B02D10A48FFF7CE
:1017C00057FC4FF0200383F31188FFF771FB4FF0B4
:1017D00006000199FFF704FEFFF782FB4FF00003BC
:1017E00083F3118803B000BD40970008AFF3008079
:1017F00000B583B001904FF0200383F31188FFF709
:1018000057FB019800F004F803B000BDAFF300806F
:1018100000B585B00190194B9B690393039B019A16
:101820009A6209E0039B03F12C031846FFF7C8FEF8
:1018300003461846FFF70CFD039BDA6A039B03F18E
:101840002C039A42EED1039B93F8213003F003035B
:10185000002B09D1039B5B69039A12691A61039BF0
:101860001B69039A52695A614FF00E00FFF730FD71
:101870000348FFF7FDFB05B000BD00BF980900203D
:1018800050970008AFF30080AFF30080AFF3008003
:1018900000B583B00190019B002B02D10848FFF7EF
:1018A000E7FB019B1A46019B5A60019B5A68019B0A
:1018B0001A60019B4FF000029A6003B000BD00BFA8
:1018C000A0970008AFF30080AFF30080AFF3008073
:1018D00000B585B001900091FFF79AFB019B002BAA
:1018E00002D10F48FFF7C4FB019B1B68039310E074
:1018F000039BDA68009B1A43039BDA60039B5A68D8
:10190000039B9B681046194600F012F8039B1B6866
:101910000393019B039A9A42EAD105B000BD00BF30
:101920007C980008AFF30080AFF30080AFF3008035
:1019300000B583B001900091FFF76AFB019B002B7B
:1019400002D11648FFF794FB019BDA6B009B1A4308
:10195000019BDA63019B93F82030082B07D1019B90
:10196000DA6B019B9B6A02EA0303002B0DD1019BFA
:1019700093F82030092B0FD1019BDA6B019B9B6AF6
:101980001A40019B9B6A9A4206D10198FFF760FCBE
:1019900003464FF000029A6203B000BDA49800080D
:1019A00082B001900091009A019B1A60009B5A68D6
:1019B000019B5A60019B5B68009A01995160009AF3
:1019C00052681A6002B07047AFF30080AFF3008036
:1019D00084B00190019B1B680393039B1A68019BD1
:1019E0001A60019B1B68019A5A60039B184604B059
:1019F000704700BFAFF30080AFF30080AFF300800B
:101A000000B583B001900091009B002B02D14FF0F4
:101A1000FF3310E0094B9B69019A9A62074B9A6960
:101A2000019B10461946FFF7BBFF4FF00D000099D0
:101A3000FFF7D6FC0346184603B000BD9809002006
:101A400084B00390029101920093039B1A46039B7A
:101A50005A60039B5A68039B1A60039B4FF0000275
:101A60009A60039B029A5A61039B5A69039B9A618D
:101A7000039B9A69039BDA60029A019BD218039B2D
:101A80001A61039B009ADA61039B049A1A6204B0FC
:101A9000704700BFAFF30080AFF30080AFF300806A
:101AA00000B583B001900B468DF80330FFF7B0FA14
:101AB000019B5A69019B9B699A4206D1019B9B68D5
:101AC000002B02D04FF0010301E04FF00003DBB226
:101AD000002B02D06FF003032BE0019B9B6803F106
:101AE0000102019B9A60019B5B699DF803201A70BB
:101AF00003F10102019B5A61019B5A69019B1B6919
:101B00009A4203D3019BDA68019B5A61019B1A68D0
:101B1000019B9A420BD0019B1846FFF759FF0346E1
:101B20001846FFF795FB03464FF000029A624FF00C
:101B30000003184603B000BDAFF30080AFF3008090
:101B400000B585B0019000914FF0200383F3118818
:101B5000FFF7AEF9019BDB69002B14D0019BDB6919
:101B60000198984710E001980099FFF749FF03900A
:101B7000039B002B08DAFFF7B3F94FF0000383F360
:101B80001188039B25E000BF019B9B68002BEAD0D6
:101B9000019B9B6803F1FF32019B9A60019B9B694B
:101BA0001A788DF80B2003F10102019B9A61019BC9
:101BB0009A69019B1B699A4203D3019BDA68019BD6
:101BC0009A61FFF78DF94FF0000383F311889DF8B8
:101BD0000B30184605B000BDAFF30080AFF30080B6
:101BE00000B587B00390029101920093039BDB69DB
:101BF00004934FF000030593019B002B02D12F4863
:101C0000FFF736FA4FF0200383F31188FFF750F9FE
:101C1000049B002B12D0049B039898470FE0039875
:101C20000099FFF7EDFE0346002B08D0FFF758F9A7
:101C30004FF0000383F31188059B3BE000BF039B3B
:101C40009B68002BEBD0039B9B6803F1FF32039B47
:101C50009A60039B9B691978029A1170029A02F1AB
:101C60000102029203F10102039B9A61039B9A69AC
:101C7000039B1B699A4203D3039BDA68039B9A6117
:101C8000FFF72EF94FF0000383F31188059B03F152
:101C900001030593019B03F1FF330193019B002B8B
:101CA00001D1059B06E04FF0200383F31188FFF775
:101CB000FFF8ADE7184607B000BD00BFE098000888
:101CC00084B00390029101920093039B1A46039BF8
:101CD0005A60039B5A68039B1A60039B019A9A609F
:101CE000039B029A5A61039B5A69039B9A61039B67
:101CF0009A69039BDA60029A019BD218039B1A61CE
:101D0000039B009ADA61039B049A1A6204B070473D
:101D100000B587B003900B4601928DF80B304FF061
:101D2000200383F31188FFF7C3F80FE003980199AC
:101D3000FFF766FE0590059B002B07DAFFF7D0F84A
:101D40004FF0000383F31188059B2CE0039B9B68F5
:101D5000002BEBD0039B9B6803F1FF32039B9A603F
:101D6000039B5B699DF80B201A7003F10102039B32
:101D70005A61039B5A69039B1B699A4203D3039BD5
:101D8000DA68039B5A61039BDB69002B03D0039B3A
:101D9000DB6903989847FFF7A3F84FF0000383F33C
:101DA00011884FF00003184607B000BDAFF3008064
:101DB00000B585B00190FFF72BF9019B5A69019B93
:101DC0009B699A4206D1019B9B68002B02D04FF081
:101DD000010301E04FF00003DBB2002B02D06FF0F3
:101DE00002032BE0019B9B6803F10102019B9A60B7
:101DF000019B9B691A788DF80F2003F10102019B6A
:101E00009A61019B9A69019B1B699A4203D3019BCA
:101E1000DA68019B9A61019B1A68019B9A420BD078
:101E2000019B1846FFF7D4FD03461846FFF710FA4A
:101E300003464FF000029A629DF80F30184605B035
:101E400000BD00BFAFF30080AFF30080AFF30080B0
:101E500000B587B00390029101920093039BDB6968
:101E600004934FF000030593019B002B02D12F48F0
:101E7000FFF7FEF84FF0200383F31188FFF718F8FF
:101E80000EE003980099FFF7BBFD0346002B07D037
:101E9000FFF726F84FF0000383F31188059B41E01C
:101EA000039B9B68002BECD0039B9B6803F1FF32E4
:101EB000039B9A60039B5B69029A12781A7003F184
:101EC0000102039B5A61029B03F101030293039BEE
:101ED0005A69039B1B699A4203D3039BDA68039BED
:101EE0005A61049B002B02D0049B03989847FEF78D
:101EF000F7FF4FF0000383F31188059B03F1010303
:101F00000593019B03F1FF330193019B002B01D14A
:101F1000059B07E04FF0200383F31188FEF7C8FF0D
:101F200000BFBDE7184607B000BD00BFF498000829
:101F3000074B03F1070323F007031A46054B1A600A
:101F4000054B23F007031A46044B1A60704700BF85
:101F5000E80F0020B409002000200020B80900206C
:101F600000B585B001904FF0200383F31188FEF790
:101F70009FFF019800F00CF80390FEF7B1FF4FF0BF
:101F8000000383F31188039B184605B000BD00BF12
:101F900000B585B00190FFF73BF8019B03F1070303
:101FA00023F0070301930D4B1B681A460C4B1B686B
:101FB000D31A1A46019B9A4202D24FF0000309E05D
:101FC000074B1B680393064B1A68019BD218044BFE
:101FD0001A60039B184605B000BD00BFB809002079
:101FE000B4090020AFF30080AFF30080AFF30080AE
:101FF00008B5074B074A1A60054B4FF000029A607C
:10200000034B4FF00002DA600348FFF741FC08BDC4
:10201000C0090020611F0008D0090020AFF3008034
:1020200008B502F085FA01F07BFA094802F028FBB6
:1020300000F0EEFF01F06CF801F0E2FC00F078FA3D
:1020400001F05EF800F0ECFE03F0EAFE08BD00BF10
:10205000D0A20008AFF30080AFF30080AFF30080A0
:1020600000B585B00390029101920093039B18463E
:10207000029900F00DFC0346002B15D04FF0010330
:1020800021E0039B1846019900F05AFC0346002BFF
:1020900002D04FF0010316E0019B03F5007301939A
:1020A000009B03F1FF330093009B002BE9D1039BBE
:1020B000184600F0A5FC0346002B02D04FF00103A8
:1020C00001E04FF00003184605B000BDAFF30080FB
:1020D00000B585B00390029101920093039B1846CE
:1020E000029900F0BDFC0346002B15D04FF0010310
:1020F00021E0039B1846019900F00AFD0346002BDE
:1021000002D04FF0010316E0019B03F50073019329
:10211000009B03F1FF330093009B002BE9D1039B4D
:10212000184600F055FD0346002B02D04FF0010386
:1021300001E04FF00003184605B000BDAFF300808A
:1021400084B00346029101928DF80F300FE09DF8A4
:102150000F304FEA4302029B1B7882EA03030C4ACA
:10216000D35C8DF80F30029B03F101030293019BB6
:10217000002B0CBF00230123DBB2019A02F1FF32D6
:102180000192002BE3D19DF80F30184604B0704740
:10219000C0A00008AFF30080AFF30080AFF3008071
:1021A00000B585B001904FF00003039311E0019B4F
:1021B000DB6A1A6802AB10464FF001011A4601F0C3
:1021C0001FF99DF80830FF2B19D0039B03F1010381
:1021D0000393039B0F2BEADD019BDB6A1A6802ABBA
:1021E00010464FF001011A4601F00AF99DF8083037
:1021F000FF2B06D04FF00100FFF7DAFAECE700BF43
:1022000000E000BF05B000BDAFF30080AFF3008079
:1022100000B587B003900B4601928DF80B30039800
:10222000FFF7BEFF9DF80B3043F04003DBB28DF8A3
:102230001030019B4FEA1363DBB28DF81130019B24
:102240004FEA1343DBB28DF81230019B4FEA1323A0
:10225000DBB28DF81330019BDBB28DF8143004AB88
:102260004FF0000019464FF00502FFF769FF0346E3
:102270004FEA4303DBB243F00103DBB2DBB28DF87C
:102280001530039BDB6A1A6804AB10464FF0060159
:102290001A4601F065F807B000BD00BFAFF300803B
:1022A00000B585B001904FF00003039314E0019B4B
:1022B000DB6A1A6802AB10464FF001011A4601F0C2
:1022C0009FF89DF80830FF2B02D09DF8083008E0F9
:1022D000039B03F101030393039B082BE7DD4FF0FE
:1022E000FF03184605B000BDAFF30080AFF30080D8
:1022F00000B585B0019000910198FFF7D1FF03462A
:102300008DF80F30019BDB6A1B6818464FF0040103
:10231000009A01F075F89DF80F30184605B000BD21
:1023200000B587B003900B4601928DF80B30039BEC
:10233000DB6A1B68184600F073FF9DF80B300398AA
:102340001946019AFFF764FF0398FFF7A9FF0346B8
:102350008DF81730039BDB6A1B68184600F088FF76
:102360009DF81730184607B000BD00BFAFF30080DE
:1023700000B587B00390019200930B468DF80B30A7
:10238000039BDB6A1B68184600F04AFF9DF80B3080
:1023900003981946019AFFF73BFF03980099FFF74E
:1023A000A7FF03468DF81730039BDB6A1B681846AE
:1023B00000F05EFF9DF81730184607B000BD00BF63
:1023C00000B58DB003900B4601928DF80B30039B46
:1023D000DB6A1B68184600F023FF9DF80B3003985A
:1023E00019464FF00002FFF713FF0398FFF758FF5D
:1023F0000346002B08D0039BDB6A1B68184600F0DD
:1024000037FF4FF0010363E04FF000030B9358E0F8
:10241000039BDB6A1A6805AB10464FF001011A46B0
:1024200000F0EEFF9DF81430FE2B46D1039BDB6AD3
:102430001A6805AB10464FF010011A4600F0E0FF95
:1024400005AB0A93019B03F10C03099320E00A9B5F
:102450001B784FEA03620A9B03F101031B784FEAE2
:1024600003431A430A9B03F102031B784FEA032339
:102470001A430A9B03F103031B781A43099B1A6052
:102480000A9B03F104030A93099BA3F10403099334
:10249000099A019B9A42DAD2039BDB6A1B681846B1
:1024A0004FF0020100F00CFF039BDB6A1B6818462B
:1024B00000F0DEFE4FF000030AE00B9B03F1010386
:1024C0000B930B9A42F20F739A42A1D94FF001037A
:1024D00018460DB000BD00BFAFF30080AFF3008021
:1024E00000B585B00190019BDB6A1B68184600F0BF
:1024F00097FE019BDB6A1A6803AB10464FF001019F
:102500001A4600F07DFF9DF80C30FF2B07D1019B90
:10251000DB6A1B68184600F0ABFE05B000BD4FF04B
:102520000100FFF745F9E4E7AFF30080AFF3008067
:10253000704700BFAFF30080AFF30080AFF30080BF
:1025400082B00190019B084A1A60019B4FF0010282
:102550001A71019B4FF00002DA62019B4FF00002FA
:1025600083F8302002B07047A0A00008AFF30080CD
:1025700000B583B001900091019B002B02D0009B1D
:10258000002B02D10B48FEF773FD019B1B79012B39
:1025900006D0019B1B79022B02D00748FEF768FD8D
:1025A000019B009ADA62019B4FF002021A7103B09C
:1025B00000BD00BF1099000820990008AFF300800B
:1025C00000B587B00190019B002B02D18048FEF737
:1025D0004FFD019B1B79022B06D0019B1B79052B1C
:1025E00002D07C48FEF744FD019B4FF003021A71B4
:1025F000019BDB6A1A68019BDB6A5B68104619461F
:1026000000F0A6FD019BDB6A1B6818464FF0100125
:1026100000F056FE4FF00003059301984FF00001C3
:102620004FF00002FFF77CFE0346012B0BD103ABFA
:1026300001984FF008014FF4D572FFF799FE034659
:10264000052B0DD143E0059B03F101030593059B89
:10265000092B00F29E804FF00A00FFF7A9F8DCE793
:102660004FF00003059301984FF037014FF000023F
:10267000FFF756FE0346012B18D103AB01984FF02C
:102680002901554AFFF774FE0346002B0ED103AB18
:1026900001984FF03A014FF00002FFF769FE9DF8F4
:1026A0000C3003F04003002B0CD110E0059B03F12C
:1026B00001030593059B632B6DD84FF00A00FFF7CC
:1026C00077F8D0E7019B4FF0010283F830204FF0FC
:1026D0000003059301984FF001014FF00002FFF74E
:1026E0001FFE03468DF813309DF81330002B14D1D4
:1026F000019BDB6A1A68019BDB6A9B6810461946DE
:1027000000F026FD01984FF010014FF40072FFF722
:1027100007FE0346002B40D10FE09DF81330012B3C
:102720003DD1059B03F101030593059B632B38D82D
:102730004FF00A00FFF73CF8CCE7019B03F11803C8
:1027400001984FF009011A46FFF73AFE0346002BA5
:1027500029D1019B03F11803184600F019FB02462A
:10276000019B9A62019B9B6A002B1ED0019B03F187
:10277000080301984FF00A011A46FFF721FE0346AD
:10278000002B14D1019B4FF005021A714FF000038A
:102790001AE000BF0CE000BF0AE000BF08E000BF85
:1027A00006E000BF04E000BF02E000BF00E000BFA1
:1027B000019BDB6A1B68184600F002FD019B4FF08D
:1027C00002021A714FF00103184607B000BD00BFA6
:1027D0004C9900085C990008AA010040AFF3008002
:1027E00000B583B00190019B002B02D12348FEF776
:1027F0003FFC4FF0200383F31188FEF759FB019B48
:102800001B79022B06D0019B1B79052B02D01C489B
:10281000FEF72EFC019B1B79022B08D1FEF760FB13
:102820004FF0000383F311884FF0000322E0019B77
:102830004FF004021A71FEF753FB4FF0000383F3CD
:102840001188019BDB6A1A68019BDB6A9B68104652
:10285000194600F07DFC0198FFF742FE019BDB6A00
:102860001B68184600F0ACFC019B4FF002021A7185
:102870004FF00003184603B000BD00BF7099000878
:1028800084990008AFF30080AFF30080AFF30080BD
:1028900000B583B001900091019B002B02D1254827
:1028A000FEF7E6FB019B1B79052B02D02248FEF7C1
:1028B000DFFB019B4FF006021A71019BDB6A1A686D
:1028C000019BDB6A9B681046194600F041FC019BA6
:1028D000DB6A1B68184600F0A3FC019B93F83030BC
:1028E000002B06D001984FF01201009AFFF790FCE0
:1028F00008E0009B4FEA432301984FF012011A466B
:10290000FFF786FC0198FFF7CBFC0346002B0CD0A9
:10291000019BDB6A1B68184600F052FC019B4FF0DC
:1029200005021A714FF0010301E04FF00003184651
:1029300003B000BD98990008B4990008AFF3008077
:1029400000B585B001900091019B002B02D0009B47
:10295000002B02D12648FEF78BFB019B1B79062B2F
:1029600002D04FF001033FE04FF00003039324E057
:10297000019BDB6A1B6818464FF00101009A00F0CA
:102980003FFD009B1B78FE2B13D1019BDB6A1B686C
:1029900018464FF40071009A00F032FD019BDB6A8B
:1029A0001B6818464FF0020100F08AFC4FF000034C
:1029B0001AE0039B03F101030393039A42F20F739E
:1029C0009A42D5DD019BDB6A1B68184600F050FC7B
:1029D000019BDB6A1B68184600F0F2FB019B4FF07D
:1029E00005021A714FF00103184605B000BD00BF83
:1029F000D4990008AFF30080AFF30080AFF30080FC
:102A000000B583B00190019B002B02D11248FEF764
:102A10002FFB019B1B79062B02D04FF0010317E01F
:102A2000019BDB6A1B6818464FF007010B4A00F058
:102A300097FC0198FFF734FC019BDB6A1B68184682
:102A400000F016FC019B4FF005021A714FF00003D5
:102A5000184603B000BD00BFEC990008E0A10008D3
:102A600000B583B001900091019B002B02D1254855
:102A7000FEF7FEFA019B1B79052B02D02248FEF7D8
:102A8000F7FA019B4FF007021A71019BDB6A1A6883
:102A9000019BDB6A9B681046194600F059FB019BBD
:102AA000DB6A1B68184600F0BBFB019B93F83030D3
:102AB000002B06D001984FF01901009AFFF7A8FBF0
:102AC00008E0009B4FEA432301984FF019011A4692
:102AD000FFF79EFB0198FFF7E3FB0346002B0CD0AA
:102AE000019BDB6A1B68184600F06AFB019B4FF0F4
:102AF00005021A714FF0010301E04FF00003184680
:102B000003B000BD089A0008249A0008AFF30080C3
:102B100000B585B001900091019B002B02D0009B75
:102B2000002B02D12748FEF7A3FA019B1B79072B44
:102B300002D04FF0010341E0019BDB6A1B6818469D
:102B40004FF00201204A00F00BFC019BDB6A1B687E
:102B500018464FF40071009A00F002FC019BDB6AFA
:102B60001B6818464FF0020100F0AAFB019BDB6ACC
:102B70001A6803AB10464FF001011A4600F040FC02
:102B80009DF80C3003F01F03052B05D10198FFF7CA
:102B900007FB4FF0000311E0019BDB6A1B6818463E
:102BA00000F066FB019BDB6A1B68184600F008FB1F
:102BB000019B4FF005021A714FF00103184605B052
:102BC00000BD00BF449A0008D0A10008AFF3008008
:102BD00000B583B00190019B002B02D11048FEF795
:102BE00047FA019B1B79072B02D04FF0010314E039
:102BF000019BDB6A1B6818464FF00201094A00F08E
:102C0000AFFB019BDB6A1B68184600F031FB019BA0
:102C10004FF005021A714FF00003184603B000BDD3
:102C20005C9A0008C0A10008AFF30080AFF30080F9
:102C300000B583B00190019B002B02D11148FEF733
:102C400017FA019B1B79052B02D04FF0010316E008
:102C5000019B4FF008021A71019BDB6A1A68019B05
:102C6000DB6A9B681046194600F072FA0198FFF77C
:102C700037FC019B4FF005021A714FF00003184614
:102C800003B000BD789A0008AFF30080AFF3008076
:102C900000B583B001900091019B002B02D0009BF6
:102CA000002B02D10B48FEF7E3F9019B1B79052BA2
:102CB00002D04FF0010309E0019B9A6A009B5A6021
:102CC000009B4FF400721A604FF00003184603B0E7
:102CD00000BD00BF849A0008AFF30080AFF300800E
:102CE00000B589B0039002910192029A019B9A4229
:102CF00004D3029A019BD31A1F2B02D92248FEF754
:102D0000B7F9019B4FEA53130793019B03F01F038D
:102D10000693029B4FEA53130593029B03F01F0394
:102D200003F101034FF0010202FA03F303F1FF3351
:102D30000493079A059B9A4218D2079B4FEA830394
:102D4000039AD3181A68069B22FA03F2059B4FEAEE
:102D500083030399CB181968049B1940069BC3F1A0
:102D6000200301FA03F342EA03030AE0079B4FEA58
:102D70008303039AD3181A68049B1A40069B22FA0D
:102D800003F3184609B000BDB09A0008AFF3008005
:102D900000B587B00190019B03F10C031B684FEA5B
:102DA0009373002B02D0012B26D032E001984FF014
:102DB00049014FF03E02FFF793FF059001984FF055
:102DC00031014FF02F02FFF78BFF049001984FF075
:102DD00053014FF05002FFF783FF0390059B03F16F
:102DE0000102049B03F1020302FA03F2039BA3F125
:102DF000090302FA03F30EE001984FF045014FF08A
:102E00003002FFF76DFF034603F101034FEA83230E
:102E100001E04FF00003184607B000BDAFF300809B
:102E200008B501F0FDFC08BDAFF30080AFF30080F2
:102E300000B583B001900091019B002B02D0009B54
:102E4000002B02D10A48FEF713F94FF0200383F359
:102E50001188FEF72DF80198009901F011FDFEF799
:102E60003FF84FF0000383F3118803B000BD00BFAB
:102E7000E09A0008AFF30080AFF30080AFF300806A
:102E800000B583B00190019B002B02D10448FEF7EE
:102E9000EFF8019801F03CFD0346184603B000BD71
:102EA000D09A0008AFF30080AFF30080AFF300804A
:102EB00000B585B0039002910192039B03F13003AA
:102EC00018460299019A4FF0FF33FEF7C1FF0346FF
:102ED000184605B000BD00BFAFF30080AFF300801F
:102EE00000B585B0039002910192039B03F10C039E
:102EF00018460299019A4FF0FF33FEF771FE034620
:102F0000184605B000BD00BFAFF30080AFF30080EE
:102F100000B583B001900B468DF80330019B03F19F
:102F200030029DF80330104619464FF0FF32FEF78D
:102F3000EFFE0346184603B000BD00BFAFF30080AC
:102F400000B583B00190019B03F10C0318464FF0CC
:102F5000FF31FEF7F5FD0346184603B000BD00BF84
:102F600000B585B003900B4601928DF80B30039BA2
:102F700003F130029DF80B3010461946019AFEF716
:102F8000C7FE0346184605B000BD00BFAFF3008082
:102F900000B583B001900091019B03F10C0318462A
:102FA0000099FEF7CDFD0346184603B000BD00BFF3
:102FB00000B585B00390029101920093039B03F149
:102FC000300318460299019A009BFEF741FF034621
:102FD000184605B000BD00BFAFF30080AFF300801E
:102FE00000B585B00390029101920093039B03F119
:102FF0000C0318460299019A009BFEF7F1FD034667
:10300000184605B000BD00BFAFF30080AFF30080ED
:1030100008B502F01DF808BDAFF30080AFF30080E3
:1030200000B587B0059004910392059B154A1A607C
:10303000059B03F104031A46059B5A60059B4FF05C
:1030400001021A72059B03F10C02059B03F1540364
:1030500005990091104619464FF01002049BFEF7A7
:10306000EFFC059B03F13002059B03F16403059916
:103070000091104619464FF01002039BFEF720FE08
:1030800007B000BDF0A10008AFF30080AFF30080EF
:1030900000B583B001900B468DF80330FDF7B8FF03
:1030A000019B002B02D11248FDF7E2FF019B5B69F7
:1030B000002B07D1019B03F1040318464FF00401D4
:1030C000FEF706FC019B03F10C029DF8033010464D
:1030D0001946FEF7E5FC0346002B07DA019B03F1D6
:1030E000040318464FF08001FEF7F2FB03B000BD69
:1030F000689B0008AFF30080AFF30080AFF300805F
:10310000704700BFAFF30080AFF30080AFF30080E3
:1031100008B501F0B5FC08BDAFF30080AFF3008047
:1031200000B583B00190019B4FF001021A70019B22
:103130004FF000025A60019B4FF000029A60019B21
:1031400003F10C031846FEF7A3FB03B000BD00BF5C
:1031500000B583B001900091019B002B02D0009B31
:10316000002B02D11248FDF783FF4FF0200383F3B9
:103170001188FDF79DFE019B1B78012B06D0019B5A
:103180001B78022B02D00B48FDF772FF019B009ABF
:103190005A60019801F09CFC019B4FF002021A70EA
:1031A000FDF79EFE4FF0000383F3118803B000BDCE
:1031B000909B0008A09B0008AFF30080AFF3008055
:1031C00000B583B00190019B002B02D11248FDF79E
:1031D0004FFF4FF0200383F31188FDF769FE019B39
:1031E0001B78012B06D0019B1B78022B02D00B48C9
:1031F000FDF73EFF019801F043FD019801F000FD4D
:10320000019B4FF001021A70FDF76AFE4FF00003B8
:1032100083F3118803B000BDB09B0008BC9B00087D
:1032200000B583B00190019B002B02D10D48FDF742
:103230001FFF4FF0200383F31188FDF739FE019B38
:103240001B78022B02D00848FDF712FF019801F00D
:1032500007FDFDF745FE4FF0000383F3118803B02F
:1032600000BD00BFCC9B0008DC9B0008AFF30080D2
:1032700000B583B00190019B002B02D10D48FDF7F2
:10328000F7FE4FF0200383F31188FDF711FE019B39
:103290001B78022B02D00848FDF7EAFE019801F0E6
:1032A000EFFCFDF71DFE4FF0000383F3118803B020
:1032B00000BD00BFEC9B0008FC9B0008AFF3008042
:1032C00000B583B001900091019B002B02D0009BC0
:1032D000002B02D11B48FDF7CBFE4FF0200383F3F8
:1032E0001188FDF7E5FD019B1B78022B02D01648E3
:1032F000FDF7BEFE019B5B681B68002B02D01348E4
:10330000FDF7B6FE019B4FF003021A700198009979
:1033100001F0C6FC019B9B68002B02D00C48FDF716
:10332000A7FE0C4B9A69019B9A604FF00200FDF7D3
:10333000CFFFFDF7D5FD4FF0000383F3118803B0F5
:1033400000BD00BFC09C0008D49C0008E49C00089D
:10335000F49C000898090020AFF30080AFF30080D0
:1033600000B585B0039002910192039B002B05D01C
:10337000029B002B02D0019B002B02D11B48FDF7C2
:1033800077FE4FF0200383F31188FDF791FD039B37
:103390001B78022B02D01648FDF76AFE039B5B6880
:1033A0001B68002B02D01348FDF762FE039B4FF011
:1033B00003021A7003980299019A01F0B1FC039B71
:1033C0009B68002B02D00C48FDF752FE0B4B9A690C
:1033D000039B9A604FF00200FDF77AFFFDF780FD36
:1033E0004FF0000383F3118805B000BD3C9D000839
:1033F000489D0008589D0008F49C0008980900208A
:1034000000B585B0039002910192039B002B05D07B
:10341000029B002B02D0019B002B02D11B48FDF721
:1034200027FE4FF0200383F31188FDF741FD039B36
:103430001B78022B02D01648FDF71AFE039B5B682F
:103440001B68002B02D01348FDF712FE039B4FF0C0
:1034500003021A7003980299019A01F0A1FC039BE0
:103460009B68002B02D00C48FDF702FE0B4B9A69BB
:10347000039B9A604FF00200FDF72AFFFDF730FD35
:103480004FF0000383F3118805B000BD689D00086C
:10349000789D00088C9D0008F49C00089809002085
:1034A00082B00190024B5A68019B9A6002B070474B
:1034B000001000E0AFF30080AFF30080AFF30080B6
:1034C00084B00190114B5B680393019B9B68039A46
:1034D000D21A0F4B1B68D21A019B9A60019B9A6803
:1034E000019BDB689A4204D9019B9A68019BDA60D0
:1034F00009E0019B9A68019B1B699A4203D2019BD8
:103500009A68019B1A6104B0704700BF001000E088
:10351000E0090020AFF30080AFF30080AFF300803C
:1035200000B587B00A4B4FF000021A6001AB184695
:1035300000F016F8019B01AA10469847029B01AAC9
:1035400010469847039A024B1A6007B000BD00BFAF
:10355000E0090020AFF30080AFF30080AFF30080FC
:1035600082B00190019B094A1A60019B084A5A6087
:10357000019B4FF000029A60019B4FF00002DA605D
:10358000019B4FF0FF321A6102B07047A13400086E
:10359000C1340008AFF30080AFF30080AFF30080C8
:1035A00000B583B00190019B93F87620019B83F8CE
:1035B0007E20019802F06CF9019B5B681B68002B70
:1035C00006D0019B5B681B6801984FF0010198478A
:1035D000019B4FF003021A7003B000BDAFF30080EF
:1035E00010B584B00190019B93F8743003F07F0212
:1035F000019B93F875304FEA032342EA0303B3F5C6
:10360000407F63D0B3F5407F12DC022B00F00A81CB
:10361000022B05DC002B28D0012B00F0F580E3E124
:10362000B3F5807F32D0B3F5817F00F06081DBE1BC
:10363000B3F5C06F78D0B3F5C06F08DC40F202324A
:10364000934200F08E81B3F5A06F5FD0CCE1B3F56B
:10365000106F00F0AA8040F60242934200F0D4803E
:10366000B3F5006F00F09180BEE1019B03F17C0394
:103670001A46019B9A66019B4FF00202DA66019B93
:103680004FF000021A674FF00103AFE1019B93F87E
:103690007630012B17D1019BB3F87C3023F0020365
:1036A0009AB2019BA3F87C20019B4FF000029A661E
:1036B000019B4FF00002DA66019B4FF000021A678F
:1036C0004FF0010392E14FF000038FE1019B93F86B
:1036D0007630012B17D1019BB3F87C3043F0020305
:1036E0009AB2019BA3F87C20019B4FF000029A66DE
:1036F000019B4FF00002DA66019B4FF000021A674F
:103700004FF0010372E14FF000036FE1019B4FF0B6
:1037100000029A66019B4FF00002DA66019B954A0F
:103720001A674FF0010361E1019B5B685C68019BD4
:1037300093F87710019B93F87620019B03F17803AF
:103740001B781846019B03F179031B784FEA03238A
:103750009BB240EA03039BB29BB20198A04703903F
:10376000039B002B02D14FF000033FE1039B5A68FB
:10377000019B9A66039B1A68019BDA66019B4FF0D6
:1037800000021A674FF0010330E1019B03F17F0251
:10379000019B9A66019B4FF00102DA66019B4FF094
:1037A00000021A674FF0010320E1019B93F8762095
:1037B000019B83F87F20019B93F87F30002B04D17D
:1037C000019B4FF003021A7003E0019B4FF00402CB
:1037D0001A70019B5B681B68002B06D0019B5B681D
:1037E0001B6801984FF002019847019B4FF00002BF
:1037F0009A66019B4FF00002DA66019B4FF00002CF
:103800001A674FF00103F1E0019B5B4A9A66019B46
:103810004FF00202DA66019B4FF000021A674FF088
:103820000103E3E0019B93F87830DBB25BB2002B3D
:103830002EDA019B93F8783003F00F03DBB2019886
:10384000194602F015F90346012B02D0022B0ED0C7
:103850001BE0019B494A9A66019B4FF00202DA661F
:10386000019B4FF000021A674FF00103BEE0019B7D
:10387000434A9A66019B4FF00202DA66019B4FF0C1
:1038800000021A674FF00103B0E04FF00003ADE013
:10389000019B93F8783003F00F03DBB201981946CF
:1038A00002F0C6F80346012B02D0022B0ED01BE01B
:1038B000019B324A9A66019B4FF00202DA66019B35
:1038C0004FF000021A674FF001038FE0019B2C4A72
:1038D0009A66019B4FF00202DA66019B4FF00002EC
:1038E0001A674FF0010381E04FF000037EE0019B77
:1038F00093F87630002B02D04FF0000376E0019B66
:1039000093F8783003F00F03002B1BDD019B93F835
:103910007830DBB25BB2002B0ADA019B93F8783087
:1039200003F00F03DBB20198194602F049FA09E0EF
:10393000019B93F8783003F00F03DBB2019819462E
:1039400002F016FA019B4FF000029A66019B4FF0BD
:103950000002DA66019B4FF000021A674FF0010384
:1039600044E0019B93F87630002B0BD04FF000031E
:103970003CE000BFA135000810A2000830A20008FA
:1039800020A20008019B93F8783003F00F03002B6E
:103990001BDD019B93F87830DBB25BB2002B0ADAB7
:1039A000019B93F8783003F00F03DBB201981946BE
:1039B00002F0BEF909E0019B93F8783003F00F03A1
:1039C000DBB20198194602F093F9019B4FF0000217
:1039D0009A66019B4FF00002DA66019B4FF00002ED
:1039E0001A674FF0010301E04FF00003184604B0DE
:1039F00010BD00BFAFF30080AFF30080AFF30080D5
:103A000008B501F00DFF08BDAFF30080AFF30080F3
:103A100084B00190019B4FF001021A70019B4FF09E
:103A200000025A604FF00003039315E0019A039BD4
:103A300003F10A034FEA8303D3184FF000025A60E0
:103A4000019B039A02F112024FF0000143F8221089
:103A5000039B03F101030393039B062BE6D9019B10
:103A60004FF000021A81019B4FF000025A8104B00E
:103A7000704700BFAFF30080AFF30080AFF300806A
:103A800000B587B00390019200930B468DF80B3080
:103A90009DF80B30039A03F102034FEA8303D31816
:103AA0005B689B690593059B4FF000021A70059BAC
:103AB000019ADA60059B009A5A60059B4FF000025C
:103AC0009A609DF80B300398194602F031F807B060
:103AD00000BD00BFAFF30080AFF30080AFF3008004
:103AE00000B587B00390019200930B468DF80B3020
:103AF0009DF80B30039A03F102034FEA8303D318B6
:103B00005B685B690593059B4FF000021A70059B8B
:103B1000019ADA60059B009A5A60059B4FF00002FB
:103B20009A609DF80B300398194602F041F807B0EF
:103B300000BD00BFAFF30080AFF30080AFF30080A3
:103B400000B583B001900B468DF80330FDF760FAA5
:103B5000019B002B02D11648FDF78AFA019B5B8975
:103B60001A469DF8033042FA03F303F00103DBB277
:103B7000002B02D04FF0010317E0019B5B899AB242
:103B80009DF803304FF0010101FA03F39BB242EAC2
:103B900003039BB29AB2019B5A819DF803300198AE
:103BA000194602F065F84FF00003184603B000BD57
:103BB000949E0008AFF30080AFF30080AFF3008065
:103BC00000B583B001900B468DF80330FDF720FA65
:103BD000019B002B02D11648FDF74AFA019B1B8975
:103BE0001A469DF8033042FA03F303F00103DBB2F7
:103BF000002B02D04FF0010317E0019B1B899AB202
:103C00009DF803304FF0010101FA03F39BB242EA41
:103C100003039BB29AB2019B1A819DF8033001986D
:103C2000194602F045F84FF00003184603B000BDF6
:103C3000AC9E0008AFF30080AFF30080AFF30080CC
:103C400000B585B00190019B4FF002021A70019BF4
:103C50004FF00002A3F87C20019B4FF0000283F894
:103C60007E20019B4FF0000283F87F20019B4FF0E4
:103C700000021A81019B4FF000025A814FF00003AD
:103C800003930DE0019A039B03F102034FEA8303C0
:103C9000D3184FF000025A60039B03F10103039312
:103CA000039B072BEED9019B4FF0000283F86420A1
:103CB000019801F0BDFD05B000BD00BFAFF300806D
:103CC00000B585B001900B468DF80330019B4FF095
:103CD000000283F86420019B03F174039DF8032024
:103CE000019811461A4601F0E3FE019B5B689B6850
:103CF000002B0AD0019B5B689B680198984703469C
:103D000083F00103DBB2002B2BD0019B93F87430BE
:103D100003F06003002B08D10198FFF761FC034614
:103D200083F00103DBB2002B1BD001984FF00001A0
:103D300001F0FEFF01984FF0000101F0D9FF019B57
:103D40005B681B68002B06D0019B5B681B680198B1
:103D50004FF005019847019B4FF0060283F864205D
:103D6000A3E0019B03F17A031B781A46019B03F140
:103D70007B031B784FEA032342EA03030393019B6F
:103D8000DA6E039B9A4202D9019B039ADA66019B81
:103D900093F87430DBB25BB2002B43DA019BDB6E2D
:103DA000002B1FD0019B4FF0010283F86420019B80
:103DB0009A6E019BDB6E01984FF00001FFF790FEB9
:103DC0004FF0200383F31188FDF7A2F801984FF01C
:103DD0000001FFF7F5FEFDF7B3F84FF0000383F3A2
:103DE000118862E0019B4FF0030283F86420019880
:103DF0004FF000014FF000024FF00003FFF740FECC
:103E00004FF0200383F31188FDF782F801984FF0FB
:103E10000001FFF795FEFDF793F84FF0000383F3E1
:103E2000118842E0019BDB6E002B1FD0019B4FF0FD
:103E3000040283F86420019B9A6E019BDB6E01985B
:103E40004FF00001FFF71CFE4FF0200383F31188B1
:103E5000FDF75EF801984FF00001FFF771FEFDF7E6
:103E60006FF84FF0000383F311881EE0019B4FF0C1
:103E7000050283F8642001984FF000014FF0000222
:103E80004FF00003FFF72CFE4FF0200383F311885F
:103E9000FDF73EF801984FF00001FFF791FEFDF7A6
:103EA0004FF84FF0000383F3118805B000BD00BF49
:103EB00000B585B001900B468DF80330019B93F857
:103EC0006430022B42D0052B60D0012B6CD1019BBA
:103ED00003F17A031B781A46019B03F17B031B78DD
:103EE0004FEA032342EA03030393019BDA6E039B29
:103EF0009A422BD2019BDB6E019AD268128AB3FBE5
:103F0000F2F102FB01F29B1A002B1FD101984FF036
:103F100000014FF000024FF00003FFF7E1FD4FF00A
:103F2000200383F31188FCF7F3FF01984FF00001A1
:103F3000FFF746FEFDF704F84FF0000383F3118806
:103F4000019B4FF0020283F8642048E0019B4FF090
:103F5000030283F8642001984FF000014FF0000243
:103F60004FF00003FFF78CFD4FF0200383F311881F
:103F7000FCF7CEFF01984FF00001FFF7E1FDFCF7E1
:103F8000DFFF4FF0000383F3118828E0019B1B6FD4
:103F9000002B03D0019B1B6F01989847019B4FF0AA
:103FA000000283F864201AE001984FF0000101F04C
:103FB000BFFE01984FF0000101F09AFE019B5B6883
:103FC0001B68002B06D0019B5B681B6801984FF0B3
:103FD00005019847019B4FF0060283F8642005B065
:103FE00000BD00BFAFF30080AFF30080AFF30080EF
:103FF00000B583B001900B468DF80330019B93F818
:104000006430032B21D0042B34D1019B4FF00502E7
:1040100083F8642001984FF000014FF000024FF048
:104020000003FFF75DFD4FF0200383F31188FCF7D9
:104030006FFF01984FF00001FFF7C2FDFCF780FF12
:104040004FF0000383F311882FE0019BDB689B692D
:104050009B68002B0DD1019B1B6F002B03D0019B94
:104060001B6F01989847019B4FF0000283F8642072
:104070001BE000BF01984FF0000101F059FE0198CC
:104080004FF0000101F034FE019B5B681B68002BC0
:1040900006D0019B5B681B6801984FF005019847AB
:1040A000019B4FF0060283F8642003B000BD00BFFF
:1040B00000B583B0FCF75CFF0C4B1B6803F00F03EB
:1040C00001930A4B019A5A60094B1B68002B06D0DA
:1040D000074B1B68064A5268104601999847FCF73F
:1040E0006FFFFCF7E5FC03B000BD00BF000002401D
:1040F000E8090020AFF30080AFF30080AFF3008049
:1041000000B583B0FCF734FF0E4B1B684FEA131366
:1041100003F00F0301930B4B019A4FEA02125A600E
:10412000094B9B68002B06D0074B9B68064AD26858
:10413000104601999847FCF743FFFCF7B9FC03B020
:1041400000BD00BF00000240E8090020AFF300807E
:1041500000B583B0FCF70CFF0E4B1B684FEA13232E
:1041600003F00F0301930B4B019A4FEA02225A60AE
:10417000094B1B69002B06D0074B1B69064A526985
:10418000104601999847FCF71BFFFCF791FC03B020
:1041900000BD00BF00000240E8090020AFF300802E
:1041A00000B583B0FCF7E4FE0E4B1B684FEA1333F7
:1041B00003F00F0301930B4B019A4FEA02325A604E
:1041C000094B9B69002B06D0074B9B69064AD269B5
:1041D000104601999847FCF7F3FEFCF769FC03B021
:1041E00000BD00BF00000240E8090020AFF30080DE
:1041F00000B583B0FCF7BCFE0E4B1B684FEA1343BF
:1042000003F00F0301930B4B019A4FEA02425A60ED
:10421000094B1B6A002B06D0074B1B6A064A526AE1
:10422000104601999847FCF7CBFEFCF741FC03B020
:1042300000BD00BF00000240E8090020AFF300808D
:1042400000B583B0FCF794FE0E4B1B684FEA135386
:1042500003F00F0301930B4B019A4FEA02525A608D
:10426000094B9B6A002B06D0074B9B6A064AD26A11
:10427000104601999847FCF7A3FEFCF719FC03B020
:1042800000BD00BF00000240E8090020AFF300803D
:1042900000B583B0FCF76CFE0E4B1B684FEA13634E
:1042A00003F00F0301930B4B019A4FEA02625A602D
:1042B000094B1B6B002B06D0074B1B6B064A526B3E
:1042C000104601999847FCF77BFEFCF7F1FB03B021
:1042D00000BD00BF00000240E8090020AFF30080ED
:1042E00082B0144B4FF000021A604FF000030193AC
:1042F00016E01149019A13464FEA43039B184FEA0F
:104300008303CB181B684FF000021A600B4B019A15
:104310004FF0000143F83210019B03F101030193B8
:10432000019B062BE5DD064B4FF0FF325A6002B0D1
:10433000704700BFE409002040A20008E8090020FF
:1043400000000240AFF30080AFF30080AFF30080C5
:1043500000B585B00390029101920093039B002B5E
:1043600002D13148FCF784FE039B5B7A4FF00102D7
:1043700002FA03F31A462D4B1B6802EA0303002BD3
:1043800002D04FF001034BE0039B5B7A1A46284BA7
:10439000019943F83210039B5B7A254A4FEAC30325
:1043A000D318009A5A60039B5B7A4FF0010202FA1D
:1043B00003F31A461D4B1B681A431C4B1A601B4B18
:1043C0001B6803F07F03002B05D01A4B194A526972
:1043D00042F001025A61039B1B68039A126812683B
:1043E00022F00F021A60039B5B68039A127A4FF067
:1043F0000F0101FA02F21A60039B1B684FF00002E2
:104400001A60019B002B09D0039B9B7A1A46029BE2
:104410004FEA031310461946FCF7C2FB4FF00003A6
:10442000184605B000BD00BF009F0008E409002049
:10443000E809002000100240AFF30080AFF30080D5
:1044400000B583B00190019B002B02D11948FCF705
:104450000FFE019B5B7A4FF0010202FA03F31A464A
:10446000154B1B6802EA0303002B02D11348FCF72B
:10447000FFFD019B9B7A1846FCF7E2FB019B5B7AF0
:104480004FF0010202FA03F36FEA03031A460A4BE4
:104490001B681A40084B1A60074B1B6803F07F0328
:1044A000002B05D1064B064A526922F001025A61DF
:1044B00003B000BD189F0008E4090020309F0008E9
:1044C00000100240AFF30080AFF30080AFF3008034
:1044D00008B5154B144A126842F480721A60134BE7
:1044E0001B6A03F44073B3F5407F07D00F4B4FF4C2
:1044F00080321A620D4B4FF000021A620B4B1B6A9E
:1045000003F40043002B0DD1084B084A126A42F411
:1045100040721A6200F05CF9044B044A126A42F4D9
:1045200000421A6208BD00BF007000400010024047
:1045300008B51E4B1B691D4B4FF0FF321A611B4B18
:104540004FF000021A61194BDB68184B4FF0FF3235
:10455000DA60164B4FF00002DA60154B154A5A60CC
:10456000134B4FF000029A60114B4FF007021A6094
:10457000114B114AD26842F08072DA600F4B0F4A39
:10458000126842F001021A60084B084AD26942F0F0
:104590008052DA61054B054AD26942F00062DA6165
:1045A000FFF796FFFFF79CFE08BD00BF001002401A
:1045B00010E000E03F190100F0ED00E0001000E025
:1045C000294B294A126842F001021A6000BF264BAB
:1045D0001B6803F00203002BF9D0234B224A126818
:1045E00002F0F9021A60204B4FF000025A6000BF3F
:1045F0001D4B5B6803F00C03002BF9D11A4B1A4AD0
:10460000126842F480321A6000BF174B1B6803F433
:104610000033002BF9D0144B134A526842F4E812CD
:104620005A60114B104A126842F080721A6000BF43
:104630000D4B1B6803F00073002BF9D00A4B0B4A9B
:104640005A600B4B4FF012021A60074B064A526831
:1046500042F002025A6000BF034B5B6803F00C0398
:10466000082BF9D1704700BF0010024000641D0004
:1046700000200240AFF30080AFF30080AFF3008072
:1046800082B00190214B214A926942F07D029A61E9
:104690001F4B019A1268DA601D4B019A92685A60AA
:1046A0001B4B019A52681A601A4B019AD268DA6061
:1046B000184B019A52695A60164B019A12691A6096
:1046C000154B019A9269DA60134B019A126A5A608B
:1046D000114B019AD2691A60104B019A526ADA6042
:1046E0000E4B019AD26A5A600C4B019A926A1A6078
:1046F0000B4B019A126BDA60094B019A926B5A606C
:10470000074B019A526B1A6002B0704700100240CA
:1047100000080140000C014000100140001401405D
:1047200000180140AFF30080AFF30080AFF30080CA
:1047300000B583B0FCF71CFC214B9B889BB203F0B7
:104740000803002BF8D01E4B1B889AB21C4B9B8889
:104750009BB202EA0303ADF80630194B184A92885F
:1047600092B222F0070292B29A80BDF8063003F0AE
:104770000103DBB2002B05D0124B1B6811484FF030
:1047800000019847BDF8063003F00203002B05D066
:104790000C4B1B680B484FF001019847BDF80630E1
:1047A00003F00403002B05D0064B1B6805484FF0AF
:1047B00002019847FCF704FCFCF77AF903B000BD4E
:1047C00000280040200A0020AFF30080AFF30080F3
:1047D0000F4B9B889BB203F02003002BF8D00C4BAF
:1047E0000B4A928892B242F0100292B29A80084B21
:1047F0004FF000021A81064B4FF223429A81044B7C
:10480000034A928892B222F0100292B29A807047C4
:1048100000280040AFF30080AFF30080AFF30080CA
:1048200008B5124B114A928892B222F0080292B255
:104830009A800E4B9B889BB203F00803002BF8D0A4
:104840000A4B9B889BB203F02003002BF8D0074B48
:104850004FF000021A80064B4FF000021A604FF032
:1048600003004FF0F001FCF79BF908BD0028004061
:10487000200A0020AFF30080AFF30080AFF3008088
:1048800084B0019000911D4B9B889BB203F00803FC
:10489000002BF8D0194B1B8B9BB24FEA0342174BEE
:1048A0009B8B9BB2D218009B1A60144B1B8A9BB245
:1048B0004FEA0342114B9B8A9BB2D3180393009B90
:1048C0001A680E4B1B8B9BB24FEA03410B4B9B8B21
:1048D0009BB2CB189A42DDD1039B094A02FB03F23B
:1048E000084BD318084AA2FB03134FEA93339BB239
:1048F0001A46009B5A6004B0704700BF0028004071
:1049000018FCFFFFB8A8B90383DE1B43AFF3008098
:1049100000B58FB0019002AB0198194604F0A0FDDC
:10492000029B4FEA63030D93039B4FEA43130D9AD7
:1049300042EA03030D93049B4FEAC3230D9A42EA14
:1049400003030D93059B4FEA03430D9A42EA0303C9
:104950000D93069B03F101034FEA43530D9A42EA7C
:1049600003030D93079BA3F150034FEA43630D9A92
:1049700042EA03030D930D9B18460FB000BD00BF24
:1049800000B585B001900091009B03F00803002B57
:1049900001D0FCF735F8019B5B6A1B68019A526AEB
:1049A0001268126822F00F021A60019B5B6A5B6852
:1049B000019A526A127A4FF00F0101FA02F21A605C
:1049C000019B1B6A1B68019A126A1268126822F026
:1049D0000F021A60019B1B6A5B68019A126A127AC5
:1049E0004FF00F0101FA02F21A60019B5B681B682D
:1049F000002B11D0019B4FF004021A70019B5B68E1
:104A00001B6801989847019B1B78042B08D1019BD8
:104A10004FF002021A7003E0019B4FF002021A707D
:104A20004FF0200383F31188FCF772FA019B9B6817
:104A3000002B0DD0019B9B680393019B4FF000025C
:104A40009A60039B4FF000029A620398FCF700FC07
:104A5000FCF776FA4FF0000383F3118805B000BD30
:104A600000B583B001900091009B03F00803002B78
:104A700001D0FBF7C5FF03B000BD00BFAFF300805E
:104A800008B50C4B4FF6FF721A800B48FEF748FB37
:104A9000094B0A4ADA61084B094A1A62064B094A6D
:104AA0005A62054B41F20A029A62034B41F2180224
:104AB000DA6208BD540A0020240A002000380040B1
:104AC00064A2000870A20008AFF30080AFF300807A
:104AD00000B585B00190019B1B78012B41D1019A53
:104AE000414B9A422DD1019B1A6A404B10464FF020
:104AF0000A011A46019BFFF72BFC03468DF80F3085
:104B00009DF80F30002B02D03948FCF7B1FA019B19
:104B10005A6A384B10464FF00A011A46019BFFF7BC
:104B200017FC03468DF80F309DF80F30002B02D094
:104B30003148FCF79DFA314B304AD26942F4804249
:104B4000DA61019B1B6A1B68019AD26902F10C02AF
:104B50009A60019B5B6A1B68019AD26902F10C02A0
:104B60009A60019B5B685B8903F40063002B0CD1A6
:104B7000019B9B6A23F47062019B9A62019BDB6A32
:104B800023F47062019BDA620FE0019B9B6A23F4BD
:104B9000706343F4A062019B9A62019BDB6A23F479
:104BA000706343F4A062019BDA62019BDB694FF002
:104BB00000021A80019BDB69019A5268528942F413
:104BC000417292B21A80019BDB694FF007029A8012
:104BD000019BDB69019AD269128892B242F04002CD
:104BE00092B21A8005B000BD240A00208149000855
:104BF000509F0008614A0008649F000800100240AE
:104C000000B583B00190019B1B78022B1DD1019B45
:104C1000DB694FF000021A80019BDB694FF0000254
:104C20009A80019B1B6A1846FFF70AFC019B5B6A8E
:104C30001846FFF705FC019A054B9A4205D1054B32
:104C4000044AD26922F48042DA6103B000BD00BF99
:104C5000240A002000100240AFF30080AFF3008070
:104C600082B00190019B5B685B68019A526812896F
:104C70004FF0010101FA02F25A6102B0704700BF21
:104C800082B00190019B5B685B68019A526812894F
:104C90004FF0010101FA02F21A6102B0704700BF41
:104CA00082B001900091019B1B6A1B68194ADA606F
:104CB000019B1B6A1B68009A5A60019B1B6A1B6858
:104CC000019A926A1A60019B5B6A1B68124ADA6059
:104CD000019B5B6A1B68009A5A60019B5B6A1B68B8
:104CE000019AD26A1A60019B1B6A1B68019A126AB8
:104CF0001268126842F001021A60019B5B6A1B682D
:104D0000019A526A1268126842F001021A6002B0F7
:104D1000704700BF560A0020540A0020AFF30080FD
:104D200084B0039002910192039B1B6A1B681A4A8C
:104D3000DA60039B1B6A1B68029A5A60039B1B6A1A
:104D40001B68039A926A1A60039B5B6A1B68019A4C
:104D5000DA60039B5B6A1B68029A5A60039B5B6A7A
:104D60001B68039AD26A42F080021A60039B1B6A96
:104D70001B68039A126A1268126842F001021A60F4
:104D8000039B5B6A1B68039A526A1268126842F0BE
:104D900001021A6004B07047560A0020AFF3008089
:104DA00084B0039002910192039B1B6A1B68019AD5
:104DB000DA60039B1B6A1B68029A5A60039B1B6A9A
:104DC0001B68039A926A42F080021A60039B5B6A36
:104DD0001B68114ADA60039B5B6A1B68029A5A607F
:104DE000039B5B6A1B68039AD26A1A60039B1B6A67
:104DF0001B68039A126A1268126842F001021A6074
:104E0000039B5B6A1B68039A526A1268126842F03D
:104E100001021A6004B07047540A0020AFF300800A
:104E200000B585B001900B46ADF802304FF000039D
:104E30000393BDF8023003F00803002B03D0039B5B
:104E400043F080030393BDF8023003F00103DBB2AB
:104E5000002B03D0039B43F020030393BDF80230E3
:104E600003F00203002B03D0039B43F040030393A2
:104E7000BDF8023003F00403002B03D0039B43F47E
:104E800080730393019B03F1040318460399FCF715
:104E90001FFD05B000BD00BFAFF30080AFF3008081
:104EA00000B587B00190019B5B6F0493049B9B89C5
:104EB000ADF80E30049B1B88ADF81630BDF81630E7
:104EC00003F48073002B17D04FF0200383F3118875
:104ED000FCF71EF8019B03F1040318464FF4007120
:104EE000FCF7F6FCFCF72CF84FF0000383F3118875
:104EF000049B4FF6FF621A804FF0200383F3118862
:104F0000FCF706F817E0BDF8163003F00F03002B8E
:104F100005D0BDF8163001981946FFF781FF049BB4
:104F20009B889BB2DBB201981946FEF7B1F8049B4F
:104F30001B88ADF81630BDF8163003F02003002BA7
:104F4000E1D1FBF7FDFF4FF0000383F31188BDF8BB
:104F50000E3003F08003002B33D0BDF8163003F081
:104F60008003002B2DD04FF0200383F31188FBF733
:104F7000CFFF019B03F130031846FCF719FF0290A5
:104F8000029B002B13DA019B03F1040318464FF038
:104F90000801FCF79DFCBDF80E3023F0C0039BB266
:104FA00043F040039BB29AB2049B9A8103E0029BB8
:104FB0009AB2049B9A80FBF7C3FF4FF0000383F380
:104FC0001188BDF8163003F04003002B1ED04FF0BF
:104FD000200383F31188FBF79BFF019B03F104037C
:104FE00018464FF01001FCF773FCFBF7A9FF4FF0D8
:104FF000000383F31188BDF80E3023F0C0039AB28A
:10500000049B9A81049B4FF6BF721A8007B000BDC3
:1050100082B00190044B044A928992B242F080021D
:1050200092B29A8102B0704700440040AFF3008012
:1050300008B5FBF79DFF0448FFF732FFFBF7C0FF01
:10504000FBF736FD08BD00BF580A0020AFF3008013
:1050500008B505484FF00001044AFDF7E1FF024B97
:10506000034A5A6708BD00BF580A002011500008C3
:1050700000440040AFF30080AFF30080AFF3008046
:1050800084B00190019B1B680393039B1A68019BEA
:105090001A60019B1B68019A5A60039B184604B072
:1050A000704700BFAFF30080AFF30080AFF3008024
:1050B00082B00190019B4FF04002C3F8802002B003
:1050C000704700BFAFF30080AFF30080AFF3008004
:1050D00000B585B001900091019BD3F88030039317
:1050E000019BD3F88020009BD218019BC3F880203D
:1050F000019BD3F88030B3F5007F02D90348FBF75A
:10510000B7FF039B184605B000BD00BF809F000895
:1051100086B0039002910192039B9B6803F10053B8
:1051200003F540534FEA43030593019B03F1010349
:105130004FEA5303019310E0029B059A126892B262
:105140001A80059B03F104030593029B03F10203FC
:105150000293019B03F1FF330193019B002BEBD1E1
:1051600006B07047AFF30080AFF30080AFF300806C
:1051700000B589B0039002910192039B9B6803F1F3
:10518000005303F540534FEA43030693019B4FEA54
:105190005303079332E0069B1B680593069B03F1BC
:1051A00004030693029B5B69059AD2B21A7003F15D
:1051B0000102029B5A61029B5A69029B1B699A4237
:1051C00003D3029BDA68029B5A61029B5B69059AD2
:1051D0004FEA1222D2B21A7003F10102029B5A6105
:1051E000029B5A69029B1B699A4203D3029BDA68AD
:1051F000029B5A61079B03F1FF330793079B002B28
:10520000C9D1019B03F00103DBB2002B13D0029B39
:105210005B69069A1268D2B21A7003F10102029B0E
:105220005A61029B5A69029B1B699A4203D3029BF3
:10523000DA68029B5A614FF0200383F31188FBF771
:1052400067FE029B9A68019BD218029B9A600BE052
:10525000029B1846FFF714FF03461846FBF7F8FFBA
:1052600003464FF000029A62029B1A68029B9A4220
:10527000EED1FBF765FE4FF0000383F3118809B010
:1052800000BD00BFAFF30080AFF30080AFF300803C
:1052900086B0039002910192039B1B6803F10053B7
:1052A00003F540534FEA43030593019B9AB2039BD6
:1052B0009A80019B03F101034FEA5303019310E02D
:1052C000029B1B881A46059B1A60059B03F1040389
:1052D0000593029B03F102030293019B03F1FF3349
:1052E0000193019B002BEBD106B07047AFF3008018
:1052F00000B589B0039002910192039B1B6803F1F2
:10530000005303F540534FEA43030693019B9AB2BF
:10531000039B9A80019B4FEA5303079333E0029B60
:105320009B691A78059203F10102029B9A61029B24
:105330009A69029B1B699A4203D3029BDA68029B1B
:105340009A61029B9B691A784FEA0222059941EA09
:105350000202059203F10102029B9A61029B9A6983
:10536000029B1B699A4203D3029BDA68029B9A61F3
:10537000069B059A1A60069B03F104030693079B9C
:1053800003F1FF330793079B002BC8D1019B03F068
:105390000103DBB2002B13D0029B9B691A781146E4
:1053A000069A116003F10102029B9A61029B9A69BD
:1053B000029B1B699A4203D3029BDA68029B9A61A3
:1053C0004FF0200383F31188124B4FF001021A6053
:1053D000029B9A68019BD218029B9A600BE0029B89
:1053E0001846FFF74DFE03461846FBF731FF03460C
:1053F0004FF000029A62029B1A68029B9A42EED119
:10540000044B4FF000021A604FF0000383F3118841
:1054100009B000BD80090020AFF30080AFF3008029
:1054200008B5FBF7A5FDFBF7CBFDFBF741FB08BD7E
:1054300000B58BB0854B0793FBF79AFD844B5B6CF3
:105440000993099B03F48063002B12D00798FEF7A1
:10545000F7FB079B5B681B68002B06D0079B5B680C
:105460001B6807984FF000019847794B6FF48062F2
:105470005A64099B03F40063002B15D0744B744AE3
:10548000126C42F008021A64079B5B681B68002BD1
:1054900006D0079B5B681B6807984FF0030198478D
:1054A0006B4B6FF400625A64099B03F48053002B2A
:1054B0001DD0674B9B6C0693069B03F40043002BA7
:1054C00011D1634B624A126C22F008021A64079BE6
:1054D0005B681B68002B06D0079B5B681B680798FE
:1054E0004FF0040198475A4B6FF480525A64099B5D
:1054F00003F40073002B00F07D81079B5B68DB6881
:10550000002B04D0079B5B68DB6807989847504BDB
:105510006FF400725A646EE14D4B099A02F00F026B
:105520000592059A53F822300493079A059B03F1DC
:1055300002034FEA8303D3185B680393049B03F0D1
:105540008003002B00F0A680414A414B059953F897
:10555000213023F4F04323F0F003059942F8213081
:105560003B4B1A6D059B4FEAC303D31803F100535D
:1055700003F540534FEA43039B889BB20293039B7E
:105580005B69039A52699168029A8A189A60039B30
:105590005B695A68039B5B699B68D31A0893089BF5
:1055A000002B57D0039B1B8A1A46089B9A4202D2B3
:1055B000039B1B8A0893039B5B691B78002B15D008
:1055C000234B1A6D059B4FEAC303D31803F1005315
:1055D00003F540534FEA43031A46039B5B69DB68BC
:1055E00010461946089AFFF783FE1CE0039B5B698F
:1055F000039A5269D168029A8A18DA60144B1A6DBC
:10560000059B4FEAC303D31803F1005303F540533E
:105610004FEA43031A46039B5B69DB681046194651
:10562000089AFFF735FE4FF0200383F31188FBF74C
:105630006FFC059BDBB20798194600F039FBFBF7BE
:105640007FFC4FF0000383F3118823E0D00A002091
:10565000005C0040079B1B899AB2059B4FF001013B
:1056600001FA03F39BB26FEA03039BB202EA03035E
:105670009BB29AB2079B1A81079A059B03F102031A
:105680004FEA8303D3185B689B68059AD2B20798E8
:1056900011469847049B03F40043002B00F0A680BA
:1056A0005B4A5B4B059953F8213023F4784323F090
:1056B0007003059942F82130049B03F40063002B2A
:1056C0000ED0079A059B03F102034FEA8303D31818
:1056D0005B685B68059AD2B207981146984785E0E7
:1056E0004B4B1A6D059B4FEAC303D31803F10053CC
:1056F00003F540534FEA43030193019B9B899BB2FF
:105700004FEA83534FEA93530893039B9B691B789B
:10571000002B08D0039B9B69DB6801981946089A07
:10572000FFF726FD0FE0039B9B69DB680198194694
:10573000089AFFF7EDFC039B9B69039A9269D16875
:10574000089A8A18DA60039B9B69039A92699168A8
:10575000089A8A189A60039B9B69039A9269516818
:10576000089A8A1A5A60039B9B69039A9269128A63
:1057700002F1FF3292B21A82039B5B8A1A46089B9F
:105780009A4204D8039B9B691B8A002B20D1079B5C
:105790005B899AB2059B4FF0010101FA03F39BB2BA
:1057A0006FEA03039BB202EA03039BB29AB2079B20
:1057B0005A81079A059B03F102034FEA8303D3182A
:1057C0005B68DB68059AD2B20798114698470DE0EE
:1057D0000F4A0F4B059953F8213023F4904323F0DF
:1057E000700383F44051059B42F82310084B5B6C17
:1057F000099300E000BF099B03F40043002B7FF4F2
:105800008BAEFBF7DDFBFBF753F90BB000BD00BF20
:10581000005C0040AFF30080AFF30080AFF3008086
:1058200008B50248FEF7F4F808BD00BFD00A002012
:1058300000B585B00190144B4FF000021A65124B71
:105840004FF000025A64104B4FF08002DA644FF4BC
:105850001C430393019B5B68DB68002B03D0039B15
:1058600043F400730393084B039A1A640198FFF7FB
:105870001FFC019B054ADA6001984FF0000100F01F
:1058800017F805B000BD00BF005C0040A0A20008F2
:1058900082B00190044B019A92F87E2062F07F0260
:1058A000D2B2DA6402B07047005C0040AFF300800F
:1058B00010B586B001900B468DF803309DF803308B
:1058C000019A03F102034FEA8303D3185B68049340
:1058D000049B1B6803F00303022B08D0032B0BD09F
:1058E000012B0ED14FF48063ADF814300DE04FF072
:1058F0000003ADF8143008E04FF4C063ADF8143085
:1059000003E04FF40073ADF81430049B9B68002B48
:1059100005D0BDF8143043F02003ADF81430049BDB
:10592000DB68002B05D0BDF8143043F40053ADF80C
:1059300014303D4A9DF80310BDF814009DF8033063
:1059400040EA030323F4F04323F0700342F82130CC
:10595000354A9DF80310344B9DF8030053F820009E
:10596000BDF8144047F6700304EA030380EA03031A
:1059700042F82130049B5B8A3E2B18D9049B5B8A3A
:1059800003F1FF3343F01F0303F10103002B01DA9E
:1059900003F11F034FEA63134FEA83239BB26FEABD
:1059A00043436FEA53439BB2ADF8163011E0049BBA
:1059B0005B8A03F1FF3343F0010303F101034FEA74
:1059C000D372D3184FEA63039BB24FEA8323ADF837
:1059D0001630154B1A6D9DF803304FEAC303D318E8
:1059E00003F1005303F540534FEA43030393039B32
:1059F0004FF000029A80039BBDF816209A81049B09
:105A00001B8A01981946FFF763FB0246039B1A6045
:105A1000049B5B8A01981946FFF75AFB0246039BD9
:105A20009A6006B010BD00BF005C0040AFF300807C
:105A300082B001900B468DF803300C4B9DF803208B
:105A400053F8223003F44053002B03D0B3F5805FAA
:105A500003D005E04FF0000304E04FF0010301E044
:105A60004FF00203184602B0704700BF005C0040D0
:105A700082B001900B468DF803300B4B9DF803204C
:105A800053F8223003F03003002B02D0102B03D048
:105A900005E04FF0000304E04FF0010301E04FF098
:105AA0000203184602B07047005C0040AFF300806C
:105AB00088B003900B4601928DF80B30184B1A6D8D
:105AC0009DF80B304FEAC303D31803F1005303F5DD
:105AD00040534FEA43030593059B9B6803F1005332
