:020000040800F2
:10000000000400201101000801020008010200089C
:1000100001020008010200080102000801020008B4
:100020000102000801020008010200084102000864
:100030000102000801020008010200082102000874
:10004000010200080102000801020008D13700087F
:100050000102000801020008010200080102000874
:10006000010200080102000801020008B12D000889
:10007000012E0008612E0008C12E0008212F000863
:10008000812F0008E12F000801020008010200088A
:100090000102000801020008010200080102000834
:1000A00001020008D13F00080102000801400008D9
:1000B0000102000801020008D14000080102000806
:1000C0000102000801020008010200080102000804
:1000D000010200080102000881470008010200082F
:0C00E000010200080102000801020008F3
:1000F000704700BFAFF30080AFF30080AFF3008024
:10010000FEE700BFAFF30080AFF30080AFF30080E5
:1001100072B640F60004C2F2000484F309884FF07E
:10012000020484F31488BFF36F8F40F20004C2F21C
:10013000000440F20045C2F2000504E04FF05533E0
:10014000236004F10404AC42F8D340F20044C2F24C
:10015000000440F60005C2F2000504E04FF05533FC
:10016000236004F10404AC42F8D304F031FB46F6FA
:100170001055C0F6000540F60004C2F2000405E088
:100180002B68236004F1040405F1040540F65803CC
:10019000C2F200039C42F3D340F65804C2F20004BA
:1001A00041F2CC35C2F2000504E04FF000032360B9
:1001B00004F10404AC42F8D3FFF79AFF40F2EC04D8
:1001C000C0F6000403E02368984704F1040440F2F9
:1001D000EC03C0F600039C42F5D305F089FF40F222
:1001E000EC04C0F6000403E02368984704F104041B
:1001F00040F2EC03C0F600039C42F5D3FFF780FF0A
:10020000FEE700BFAFF30080AFF30080AFF30080E4
:1002100072B6FEE7AFF30080AFF30080AFF300806B
:1002200008B54FF0200383F3118800F0F9F94FF07F
:10023000000383F3118800F043F808BDAFF300809A
:1002400010B483B0EFF309840194019B03F1200300
:100250000193019B83F309884FF0000383F3118816
:1002600003B010BC704700BFAFF30080AFF3008055
:1002700008B54FF46D43CEF200034FF000029A60D0
:100280004FF46D43CEF200034FF44072C0F2FA52C5
:10029000DA604FF007004FF0100100F031F94FF035
:1002A0000A004FF0200100F02BF94FF00B004FF047
:1002B000800100F025F908BDAFF30080AFF30080A6
:1002C00010B483B04FF0200383F311884FF46D43D3
:1002D000CEF200035B6803F40063002B48D0EFF319
:1002E00009840194019BA3F120030193019B83F3F3
:1002F0000988019B4FF08072DA6140F67013C2F2F8
:1003000000039B69DB7F002B11D040F67013C2F213
:1003100000031B689A6840F67013C2F200039B69E1
:100320009B689A4294BF00230123DBB210E040F6A1
:100330007013C2F200031B689A6840F67013C2F291
:1003400000039B699B689A4234BF00230123DBB200
:10035000002B06D0019A40F28133C0F6000393616E
:100360000AE0019A40F28433C0F60003936103E08F
:100370004FF0000383F3118803B010BC704700BF37
:1003800000F05EFC00DF00BFAFF30080AFF3008041
:1003900003460A462DE9F04FC2F80CD0D3F80CD032
:1003A000BDE8F08FAFF30080AFF30080AFF30080C3
:1003B0004FF0000383F311882846A04700F030FD7A
:1003C000704700BFAFF30080AFF30080AFF3008051
:1003D00084B001900091019B03F003034FEAC30333
:1003E00003934FF46143CEF20003019A4FEA920067
:1003F0004FF46142CEF2000201994FEA910101F1FE
:10040000C00152F82110039A4FF0FF0C0CFA02F2CF
:100410006FEA020201EA0201039ADDF800C00CFA59
:1004200002F241EA020100F1C00243F822104FF447
:100430006143CEF20003019A4FEA5212019901F092
:100440001F014FF0010000FA01F102F1600243F8D0
:1004500022104FF46143CEF20003019A4FEA521288
:10046000019901F01F014FF0010000FA01F143F87A
:10047000221004B0704700BFAFF30080AFF30080DC
:1004800084B00190019B03F003034FEAC30303937D
:100490004FF46143CEF20003019A4FEA52120199E0
:1004A00001F01F014FF0010000FA01F102F12002FA
:1004B00043F822104FF46143CEF20003019A4FEA51
:1004C00092004FF46142CEF2000201994FEA91018D
:1004D00001F1C00152F82110039A4FF0FF0C0CFA01
:1004E00002F26FEA020201EA020100F1C00243F8DF
:1004F000221004B0704700BFAFF30080AFF300805C
:1005000084B001900091019B03F003034FEAC30301
:1005100003934FF46D43CEF20003019A4FEA920029
:100520004FF46D42CEF2000201994FEA910101F1C0
:10053000060152F82110039A4FF0FF0C0CFA02F258
:100540006FEA020201EA0201039ADDF800C00CFA28
:1005500002F241EA020100F1060243F8221004B05F
:10056000704700BFAFF30080AFF30080AFF30080AF
:1005700082B0019040F67013C2F200039A6946F20D
:100580003053C0F600039361FEE700BFAFF3008075
:1005900000B583B0FFF76CFE00F07AF900F0B0F818
:1005A00001F026F901F094F940F61810C2F20000AB
:1005B0004FF0400100F064FB024640F67013C2F2B7
:1005C00000039A6140F67013C2F200039B694FF07A
:1005D00001021A774FF0000383F3118862B640F6E8
:1005E0007013C2F200039A6946F27053C0F600031A
:1005F000936140F27153C0F600034FF00002009285
:1006000040F65800C2F200004FF0C0014FF0010266
:1006100000F0C6FB03B000BDAFF30080AFF3008075
:1006200000B583B040F67013C2F200039B69DB7F14
:10063000002B09D040F67013C2F200039B69DA7FE9
:1006400002F1FF32D2B2DA7740F67013C2F2000341
:100650009B691A6A02F101021A6240F66013C2F243
:100660000003DB6803F1010240F66013C2F20003ED
:10067000DA6040F66013C2F200031B681A4640F6C7
:100680006013C2F200039A4235D040F66013C2F202
:1006900000031B689A6802F1FF329A6021E0019B17
:1006A000DB680093019B4FF00002DA60019B1A683F
:1006B00040F66013C2F200035360019B1A6840F6D3
:1006C0006013C2F200031A604FF0000383F3118835
:1006D000019B1A69009B104698474FF0200383F353
:1006E000118840F66013C2F200031B680193019B5E
:1006F0009B68002BD3D003B000BD00BFAFF30080D8
:1007000040F66012C2F2000240F66013C2F200032B
:100710005A6040F66013C2F200035A6840F6601354
:10072000C2F200031A6040F66013C2F200034FF0F9
:10073000FF329A6040F66013C2F200034FF00002ED
:10074000DA607047AFF30080AFF30080AFF3008052
:1007500086B00390029101920093039B002B04D07A
:10076000019B002B01D0029B002B039B009A1A6176
:10077000039B019ADA6040F66013C2F200031B6823
:10078000059308E0059B9B68029AC3EB0203029362
:10079000059B1B680593059B9A68029B9A42F1D3BF
:1007A000039B059A1A60039B1B685A68039B5A6057
:1007B000039B5B68059A03995160059A52681A6019
:1007C000039B029A9A60059A40F66013C2F20003F6
:1007D0009A4206D0059B9A68029BC3EB0202059BD6
:1007E0009A6006B0704700BFAFF30080AFF300809F
:1007F00082B00190019B002B019BDB68002B019BC9
:100800001A6840F66013C2F200039A4208D0019BB6
:100810001B68019A12689168019A92680A449A606A
:10082000019B5B68019A12681A60019B1B68019A20
:1008300052685A60019B4FF00002DA6002B07047C4
:1008400084B00190019B1B680393039B1A68019B72
:100850001A60019B1B68019A5A60039B184604B0FA
:10086000704700BFAFF30080AFF30080AFF30080AC
:1008700082B00190019B5B68019A12681A60019B2B
:100880001B68019A52685A60019B184602B0704773
:1008900040F67012C2F2000240F67013C2F200037A
:1008A0005A6040F67013C2F200035A6840F67013A3
:1008B000C2F200031A6040F67013C2F200034FF058
:1008C00000029A6040F67012C2F2000240F6701305
:1008D000C2F200035A6140F67013C2F200035A6973
:1008E00040F67013C2F200031A617047AFF3008044
:1008F00084B00190019B1B7F002B03D0019B1B7FC9
:100900000E2B00BF019B4FF000021A7740F67013C8
:10091000C2F200030393039B1B680393039B9A6833
:10092000019B9B689A42F6D2019B039A1A60039B33
:100930005A68019B5A60019B5B68039A0199516058
:10094000039A52681A60019B184604B0704700BFB2
:1009500000B585B003468DF8073040F67013C2F23B
:1009600000039B690393039B9DF807201A77039B61
:100970004FF01402DA7740F67010C2F20000FFF771
:100980005FFF024640F67013C2F200039A6140F620
:100990007013C2F200039B694FF001021A7740F610
:1009A0007013C2F200039B6918460399FFF7F0FC2D
:1009B00005B000BDAFF30080AFF30080AFF300805F
:1009C00000B585B00190019B03934FF0200383F3A2
:1009D0001188039B1B7F0D2B2CD801A252F823F00A
:1009E000190A0008350A0008350A0008230A000819
:1009F000350A00082F0A0008350A0008350A0008E1
:100A0000350A0008350A0008350A0008350A0008CA
:100A1000350A00082F0A00084FF0000383F31188FD
:100A200013E0039B5B6A9A6802F101029A600398E3
:100A3000FFF71EFF039B4FF0FF325A620398FFF748
:100A400057FF4FF0000383F3118805B000BD00BFCE
:100A500000B589B0034600918DF80730009BB3F1D3
:100A6000FF3F1AD040F67013C2F200039B6903AA3D
:100A70001046009940F6C112C0F60002FFF768FE6A
:100A80009DF807301846FFF763FF069B002B0AD03E
:100A900003AB1846FFF7ACFE06E09DF8073018469A
:100AA000FFF756FF00E000BF40F67013C2F20003EC
:100AB0009B695B6A184609B000BD00BFAFF30080B8
:100AC00000B585B001900091019B009A5A62019B8C
:100AD0009A6840F67013C2F200039B699B689A42C1
:100AE00003D80198FFF704FF17E040F67013C2F235
:100AF00000039B691846FFF7FBFE0346039340F68D
:100B00007013C2F20003019A9A61019B4FF0010237
:100B10001A7701980399FFF73BFC05B000BD00BFB1
:100B200008B540F67013C2F200031B689A6840F6DD
:100B30007013C2F200039B699B689A4201D900F0CE
:100B400037F808BDAFF30080AFF30080AFF300804B
:100B500000B583B040F67013C2F200039B690193A5
:100B600040F67010C2F20000FFF76AFE024640F63F
:100B70007013C2F200039A6140F67013C2F20003D0
:100B80009B694FF001021A77019B4FF01402DA774C
:100B90000198FFF7ADFE40F67013C2F200039B69A7
:100BA00018460199FFF7F4FB03B000BDAFF30080D6
:100BB00000B583B040F67013C2F200039B69009346
:100BC00040F67010C2F20000FFF73AFE024640F60F
:100BD0007013C2F200039A6140F67013C2F2000370
:100BE0009B694FF001021A77009B4FF000021A77C1
:100BF00040F67013C2F200030193019B1B6801933E
:100C0000019B9A68009B9B689A42F6D8009B019AC8
:100C10001A60019B5A68009B5A60009B5B68019AAE
:100C200000995160019A52681A6040F67013C2F23E
:100C300000039B6918460099FFF7AAFB03B000BDAB
:100C400008B540F67013C2F200039B69DB7F002BEE
:100C500002D1FFF77DFF01E0FFF7AAFF08BD00BF4B
:100C600084B00190019B1B680393039B1A68019B4E
:100C70001A60039B184604B0704700BFAFF30080B2
:100C800082B001900091019B009A9A60019B4FF005
:100C900002021A77019B4FF000025A77019B4FF036
:100CA0001402DA77019B009A1A64019B4FF000024C
:100CB000DA63019B4FF000029A63019B4FF0000240
:100CC0001A62019B4FF001029A77019B4FF00002DC
:100CD0009A6140F67013C2F20003019A136140F664
:100CE0007013C2F200035A69019B5A61019B5A6951
:100CF00040F67013C2F200030199596140F6701377
:100D0000C2F200035B691361019B03F128031A46D9
:100D1000019B9A62019B03F12C031A46019B1A6303
:100D2000019B1A6B019BDA62019B184602B0704767
:100D300000B587B00390029101920093039B059345
:100D4000039B002B07D0029BAF2B04D9019B7F2B69
:100D500001D8009B002B039A029BA3F124031A44A1
:100D6000059BDA60059BDB68009A1A60059BDB68CF
:100D7000089A5A60059BDA6840F2B133C0F6000366
:100D8000136205980199FFF77BFF0346184607B0E9
:100D900000BD00BFAFF30080AFF30080AFF3008071
:100DA00000B589B005900491039202934FF020039F
:100DB00083F311880A9B009305980499039A029B78
:100DC000FFF7B6FF0346079307984FF00001FFF7C0
:100DD00077FE4FF0000383F31188079B184609B094
:100DE00000BD00BFAFF30080AFF30080AFF3008021
:100DF00000B583B00190019B002B4FF0200383F3DB
:100E000011884FF006000199FFF722FE4FF0000312
:100E100083F3118803B000BDAFF30080AFF300800F
:100E200000B583B001904FF0200383F3118801983F
:100E300000F006F803B000BDAFF30080AFF3008010
:100E400000B585B0019040F67013C2F200039B69B3
:100E50000393039B019A5A6209E0039B03F1280361
:100E60001846FFF7FDFE03461846FFF741FD039BBA
:100E70009A6A039B03F128039A42EED1039B5B7F9E
:100E800003F00303002B09D1039B5B69039A1269EA
:100E90001A61039B1B69039A52695A614FF00E0055
:100EA000FFF756FD05B000BDAFF30080AFF3008043
:100EB00082B001900091009A019B1A60009B5A68D1
:100EC000019B5A60019B5B68009A01995160009AEE
:100ED00052681A6002B07047AFF30080AFF3008031
:100EE00084B00190019B1B680393039B1A68019BCC
:100EF0001A60019B1B68019A5A60039B184604B054
:100F0000704700BFAFF30080AFF30080AFF3008005
:100F100082B001900091019B002B01D0009B002B1F
:100F2000019B1A46019B5A60019B5A68019B1A60FB
:100F3000019B009A9A6002B0704700BFAFF3008037
:100F400000B583B001900091019B002B019B9B6831
:100F5000002B04DB019B1A68019B9A4208D0019B7D
:100F60009B68002B05DA019B1A68019B9A4200E0FE
:100F700000BF019B9B6803F1FF32019B9A60019BBC
:100F80009B68002B23DA009B002B08D1019B9B68F8
:100F900003F10102019B9A604FF0FF3319E040F624
:100FA0007013C2F200039B69019A5A6240F67013F3
:100FB000C2F200039A69019B10461946FFF778FFB9
:100FC0004FF003000099FFF743FD034601E04FF0A7
:100FD0000003184603B000BDAFF30080AFF30080FC
:100FE00000B585B00190019B002B019B9B68002BF5
:100FF00004DB019B1A68019B9A4208D0019B9B6805
:10100000002B05DA019B1A68019B9A4200E000BFA1
:10101000019B9B6803F10102019B9A60019B9B6805
:10102000002B0CDC019B1846FFF75AFF0346039385
:10103000039B4FF000025A620398FFF759FC05B07A
:1010400000BD00BFAFF30080AFF30080AFF30080BE
:1010500082B00190019B002B019B1A46019B5A60B4
:10106000019B5A68019B1A60019B4FF000029A6035
:1010700002B07047AFF30080AFF30080AFF30080A1
:1010800000B585B001900091019B002B019B1B686E
:10109000039311E0039BDA68009B42EA0302039B7F
:1010A000DA60039B5A68039B9B681046194600F060
:1010B0000FF8039B1B680393019B039A9A42E9D1A3
:1010C00005B000BDAFF30080AFF30080AFF3008048
:1010D00000B583B001900091019B002B019B9A6B9E
:1010E000009B42EA0302019B9A63019B1B7F082B32
:1010F00007D1019B9A6B019B5B6A02EA0303002BF9
:101100000DD1019B1B7F092B10D1019B9A6B019B79
:101110005B6A02EA0302019B5B6A9A4206D101986C
:10112000FFF7E6FB03464FF000025A6203B000BD32
:1011300000B585B0039002910192039B002B04D06F
:10114000029B002B01D0019B002B039B029ADA60CB
:10115000039BDA68039B9A60039B9A68039B1A605F
:10116000019B4FEA8303029A1A44039B5A60039B34
:1011700003F11C0318460199FFF7CAFE039B03F114
:10118000100318464FF00001FFF7C2FE05B000BD86
:1011900000B583B001900091019B002B019B5B6A1D
:1011A000002B02DC4FF0FF331FE0019B5B6A03F171
:1011B000FF32019B5A62019B9B68009A1A6003F1FF
:1011C0000402019B9A60019B9A68019B5B689A42AA
:1011D00003D3019B1A68019B9A60019B03F11003E2
:1011E0001846FFF7FDFE4FF00003184603B000BDA0
:1011F00000B587B00390029101924FF0200383F372
:10120000118803980299019A00F00AF803460593A1
:101210004FF0000383F31188059B184607B000BD0B
:1012200000B587B0039002910192039B002B01D07F
:10123000029B002B039B03F1100318460199FFF753
:101240007FFE03460593059B002B1AD1039BDB68A9
:101250001968029A116003F10402039BDA60039B90
:10126000DA68039B5B689A4203D3039B1A68039B6B
:10127000DA60039B03F11C031846FFF7B1FEFFF78A
:101280004FFC059B184607B000BD00BFAFF30080C0
:1012900082B001900091009A019B1A60009B5A68ED
:1012A000019B5A60019B5B68009A01995160009A0A
:1012B00052681A6002B07047AFF30080AFF300804D
:1012C00084B00190019B1B680393039B1A68019BE8
:1012D0001A60019B1B68019A5A60039B184604B070
:1012E000704700BFAFF30080AFF30080AFF3008022
:1012F00000B583B001900091009B002B02D14FF00C
:10130000FF3316E040F67013C2F200039B69019AA6
:101310005A6240F67013C2F200039A69019B1046AC
:101320001946FFF7B5FF4FF00D000099FFF790FB4E
:101330000346184603B000BDAFF30080AFF3008052
:1013400084B00390029101920093039B1A46039B81
:101350005A60039B5A68039B1A60039B4FF000027C
:101360009A60039B029A5A61039B5A69039B9A6194
:10137000039B9A69039BDA60029A019B1A44039BC0
:101380001A61039B009ADA61039B049A1A6204B003
:10139000704700BFAFF30080AFF30080AFF3008071
:1013A00000B583B001900B468DF80330019B5A695C
:1013B000019B9B699A4206D1019B9B68002B02D03E
:1013C0004FF0010301E04FF00003DBB2002B02D02D
:1013D0006FF003032BE0019B9B6803F10102019B6B
:1013E0009A60019B5B699DF803201A7003F101026A
:1013F000019B5A61019B5A69019B1B699A4203D365
:10140000019BDA68019B5A61019B1A68019B9A4211
:101410000BD0019B1846FFF753FF03461846FFF712
:1014200067FA03464FF000025A624FF00003184675
:1014300003B000BDAFF30080AFF30080AFF30080D6
:1014400000B585B0019000914FF0200383F311881F
:10145000019BDB69002B13D0019BDB690198984746
:101460000FE001980099FFF743FF03460393039BA6
:10147000002B06DA4FF0000383F31188039B23E06F
:1014800000BF019B9B68002BEBD0019B9B6803F185
:10149000FF32019B9A60019B9B691A788DF80B20A3
:1014A00003F10102019B9A61019B9A69019B1B69EF
:1014B0009A4203D3019BDA68019B9A614FF00003C3
:1014C00083F311889DF80B30184605B000BD00BFAE
:1014D00000B587B00390029101920093039BDB69F2
:1014E00004934FF000030593019B002B4FF0200362
:1014F00083F31188049B002B10D0049B039898471A
:101500000DE003980099FFF7F3FE0346002B06D089
:101510004FF0000383F31188059B37E000BF039B66
:101520009B68002BEDD0039B9B6803F1FF32039B6C
:101530009A60039B9B691978029A1170029A02F1D2
:101540000102029203F10102039B9A61039B9A69D3
:10155000039B1B699A4203D3039BDA68039B9A613E
:101560004FF0000383F31188059B03F101030593FA
:10157000019B03F1FF330193019B002B01D1059BDC
:1015800004E04FF0200383F31188B3E7184607B057
:1015900000BD00BFAFF30080AFF30080AFF3008069
:1015A00084B00390029101920093039B1A46039B1F
:1015B0005A60039B5A68039B1A60039B019A9A60C6
:1015C000039B029A5A61039B5A69039B9A61039B8E
:1015D0009A69039BDA60029A019B1A44039B1A6181
:1015E000039B009ADA61039B049A1A6204B0704765
:1015F00000B587B003900B4601928DF80B304FF089
:10160000200383F311880EE003980199FFF770FE21
:1016100003460593059B002B05DA4FF0000383F387
:101620001188059B2AE0039B9B68002BECD0039B51
:101630009B6803F1FF32039B9A60039B5B699DF8F3
:101640000B201A7003F10102039B5A61039B5A6934
:10165000039B1B699A4203D3039BDA68039B5A617D
:10166000039BDB69002B03D0039BDB69039898473E
:101670004FF0000383F311884FF00003184607B0C2
:1016800000BD00BFAFF30080AFF30080AFF3008078
:1016900000B585B00190019B5A69019B9B699A42F4
:1016A00006D1019B9B68002B02D04FF0010301E0A3
:1016B0004FF00003DBB2002B02D06FF002032BE0EF
:1016C000019B9B6803F10102019B9A60019B9B694E
:1016D0001A788DF80F2003F10102019B9A61019B9A
:1016E0009A69019B1B699A4203D3019BDA68019BAB
:1016F0009A61019B1A68019B9A420BD0019B184684
:10170000FFF7DEFD03461846FFF7F2F803464FF0F9
:1017100000025A629DF80F30184605B000BD00BFA8
:1017200000B587B00390029101920093039BDB699F
:1017300004934FF000030593019B002B4FF020030F
:1017400083F311880CE003980099FFF7D1FD03465D
:10175000002B05D04FF0000383F31188059B3DE07B
:10176000039B9B68002BEED0039B9B6803F1FF3229
:10177000039B9A60039B5B69029A12781A7003F1CB
:101780000102039B5A61029B03F101030293039B35
:101790005A69039B1B699A4203D3039BDA68039B34
:1017A0005A61049B002B02D0049B039898474FF08A
:1017B000000383F31188059B03F101030593019B4B
:1017C00003F1FF330193019B002B01D1059B05E041
:1017D0004FF0200383F3118800BFC1E7184607B01C
:1017E00000BD00BFAFF30080AFF30080AFF3008017
:1017F00041F2CC33C2F2000303F1070323F00703E5
:101800001A4640F68C13C2F200031A6042F200033B
:10181000C2F2000323F007031A4640F69013C2F207
:1018200000031A60704700BFAFF30080AFF3008081
:1018300000B585B001904FF0200383F31188019823
:1018400000F00EF8034603934FF0000383F3118872
:10185000039B184605B000BDAFF30080AFF30080D6
:1018600084B00190019B03F1070323F00703019368
:1018700040F69013C2F200031B681A4640F68C1320
:10188000C2F200031B68C3EB02031A46019B9A4293
:1018900002D24FF0000312E040F68C13C2F20003B4
:1018A0001B68039340F68C13C2F200031A68019B75
:1018B0001A4440F68C13C2F200031A60039B1846C8
:1018C00004B07047AFF30080AFF30080AFF3008047
:1018D00008B540F69813C2F2000341F63102C0F693
:1018E00000021A6040F69813C2F200034FF00002A3
:1018F0009A6040F69813C2F200034FF00002DA60DB
:101900000148FFF7A5FB08BDA8090020AFF3008040
:1019100008B501F0E5FC01F00BFA46F28070C0F664
:10192000000001F05DFE00F013F800F0C9FE01F0C8
:101930000FF801F07DF800F0A3FA00F051FF02F07B
:101940004FFF08BDAFF30080AFF30080AFF300801E
:1019500008B501F0D5FD08BDAFF30080AFF30080FE
:1019600000B583B00190019B4FF001021A70019BFA
:101970004FF000025A60019B4FF000029A60019BF9
:101980004FF00002DA60019B4FF000021A61019BE8
:101990004FF000025A61019B03F118031846FFF74C
:1019A00057FB03B000BD00BFAFF30080AFF3008072
:1019B00000B585B00390029101920093039B1846F5
:1019C000029900F0E5FB0346002B15D04FF0010310
:1019D00021E0039B1846019900F02AFC0346002BE6
:1019E00002D04FF0010316E0019B03F50073019351
:1019F000009B03F1FF330093009B002BE9D1039B75
:101A0000184600F06DFC0346002B02D04FF0010396
:101A100001E04FF00003184605B000BDAFF30080B1
:101A200000B585B00390029101920093039B184684
:101A3000029900F085FC0346002B15D04FF00103FE
:101A400021E0039B1846019900F0CAFC0346002BD5
:101A500002D04FF0010316E0019B03F500730193E0
:101A6000009B03F1FF330093009B002BE9D1039B04
:101A7000184600F00DFD0346002B02D04FF0010385
:101A800001E04FF00003184605B000BDAFF3008041
:101A900084B00346029101928DF80F3012E09DF858
:101AA0000F304FEA4302029B1B7882EA030246F2A0
:101AB000B053C0F600039B5C8DF80F30029B03F11E
:101AC00001030293019B002B0CBF00230123DBB217
:101AD000019A02F1FF320192002BE0D19DF80F3004
:101AE000184604B0704700BFAFF30080AFF300802A
:101AF00000B585B001904FF00003039311E0019B06
:101B0000DB6A1A6802AB10464FF001011A4601F079
:101B100097F89DF80830FF2B19D0039B03F10103C0
:101B20000393039B0F2BEADD019BDB6A1A6802AB70
:101B300010464FF001011A4601F082F89DF8083076
:101B4000FF2B06D04FF00100FFF752F9ECE700BF82
:101B500000E000BF05B000BDAFF30080AFF3008030
:101B600000B587B003900B4601928DF80B300398B7
:101B7000FFF7BEFF9DF80B3043F04003DBB28DF85A
:101B80001030019B4FEA1363DBB28DF81130019BDB
:101B90004FEA1343DBB28DF81230019B4FEA132357
:101BA000DBB28DF81330019BDBB28DF8143004AB3F
:101BB0004FF0000019464FF00502FFF769FF03469A
:101BC0004FEA4303DBB243F00103DBB2DBB28DF833
:101BD0001530039BDB6A1A6804AB10464FF0060110
:101BE0001A4600F0F5FF07B000BD00BFAFF300805C
:101BF00000B585B001904FF00003039314E0019B02
:101C0000DB6A1A6802AB10464FF001011A4601F078
:101C100017F89DF80830FF2B02D09DF8083008E037
:101C2000039B03F101030393039B082BE7DD4FF0B4
:101C3000FF03184605B000BDAFF30080AFF300808E
:101C400000B585B0019000910198FFF7D1FF0346E0
:101C50008DF80F30019BDB6A1B6818464FF00401BA
:101C6000009A00F0EDFF9DF80F30184605B000BD5A
:101C700000B587B003900B4601928DF80B30039BA3
:101C8000DB6A1B68184600F043FF9DF80B30039891
:101C90001946019AFFF764FF0398FFF7A9FF03466F
:101CA0008DF81730039BDB6A1B68184600F048FF6D
:101CB0009DF81730184607B000BD00BFAFF3008095
:101CC00000B587B00390019200930B468DF80B305E
:101CD000039BDB6A1B68184600F01AFF9DF80B3067
:101CE00003981946019AFFF73BFF03980099FFF705
:101CF000A7FF03468DF81730039BDB6A1B68184665
:101D000000F01EFF9DF81730184607B000BD00BF59
:101D100000B58DB003900B4601928DF80B30039BFC
:101D2000DB6A1B68184600F0F3FE9DF80B30039841
:101D300019464FF00002FFF713FF0398FFF758FF13
:101D40000346002B08D0039BDB6A1B68184600F093
:101D5000F7FE4FF0010366E04FF000030B935BE0EA
:101D6000039BDB6A1A6805AB10464FF001011A4667
:101D700000F066FF9DF81430FE2B49D1039BDB6A0F
:101D80001A6805AB10464FF010011A4600F058FFD4
:101D900005AB0A93019B03F10C03099323E00A9B13
:101DA0001B784FEA03620A9B03F101031B784FEA99
:101DB000034342EA03020A9B03F102031B784FEA42
:101DC000032342EA03020A9B03F103031B7842EA5E
:101DD0000302099B1A600A9B03F104030A93099BFF
:101DE000A3F104030993099A019B9A42D7D2039B5A
:101DF000DB6A1B6818464FF0020100F0B9FE039B36
:101E0000DB6A1B68184600F09BFE4FF000030AE0F7
:101E10000B9B03F101030B930B9A42F20F739A424F
:101E20009ED94FF0010318460DB000BDAFF30080FE
:101E300000B585B00190019BDB6A1B68184600F075
:101E400067FE019BDB6A1A6803AB10464FF0010185
:101E50001A4600F0F5FE9DF80C30FF2B07D1019BD0
:101E6000DB6A1B68184600F06BFE05B000BD4FF042
:101E70000100FEF7BDFFE4E7AFF30080AFF30080A1
:101E8000704700BFAFF30080AFF30080AFF3008076
:101E900082B00190019A46F29053C0F6000313609D
:101EA000019B4FF001021A71019B4FF00002DA62B0
:101EB000019B4FF0000283F8302002B0704700BF52
:101EC00082B001900091019B002B01D0009B002B60
:101ED000019B1B79012B03D0019B1B79022B00BFB7
:101EE000019B009ADA62019B4FF002021A7102B064
:101EF000704700BFAFF30080AFF30080AFF3008006
:101F000000B587B00190019B002B019B1B79022B30
:101F100003D0019B1B79052B00BF019B4FF00302EF
:101F20001A71019BDB6A1A68019BDB6A5B681046C9
:101F3000194600F09DFD019BDB6A1B6818464FF0B7
:101F4000100100F015FE4FF00003059301984FF0CB
:101F500000014FF00002FFF78BFE0346012B0BD16F
:101F600003AB01984FF008014FF4D572FFF7A8FEBC
:101F70000346052B0DD146E0059B03F101030593B4
:101F8000059B092B00F2A1804FF00A00FEF730FFFD
:101F9000DCE74FF00003059301984FF037014FF055
:101FA0000002FFF765FE0346012B1BD103AB01982E
:101FB0004FF029014FF4D572C4F20002FFF780FE02
:101FC0000346002B0ED103AB01984FF03A014FF0BE
:101FD0000002FFF775FE9DF80C3003F04003002B64
:101FE0000CD110E0059B03F101030593059B632BC6
:101FF0006DD84FF00A00FEF7FBFECDE7019B4FF0D6
:10200000010283F830204FF00003059301984FF050
:1020100001014FF00002FFF72BFE03468DF813304D
:102020009DF81330002B14D1019BDB6A1A68019BC9
:10203000DB6A9B681046194600F01AFD01984FF0C4
:1020400010014FF40072FFF713FE0346002B40D13E
:102050000FE09DF81330012B3DD1059B03F10103E7
:102060000593059B632B38D84FF00A00FEF7C0FE9E
:10207000CCE7019B03F1180301984FF009011A46C0
:10208000FFF746FE0346002B29D1019B03F11803FD
:10209000184600F0C5FA0246019B9A62019B9B6AB2
:1020A000002B1ED0019B03F1080301984FF00A0199
:1020B0001A46FFF72DFE0346002B14D1019B4FF06B
:1020C00005021A714FF000031AE000BF0CE000BFD8
:1020D0000AE000BF08E000BF06E000BF04E000BF68
:1020E00002E000BF00E000BF019BDB6A1B681846EE
:1020F00000F0E6FC019B4FF002021A714FF0010361
:10210000184607B000BD00BFAFF30080AFF30080FA
:1021100000B583B00190019B002B4FF0200383F3A7
:102120001188019B1B79022B03D0019B1B79052B86
:1021300000BF019B1B79022B06D14FF0000383F3F4
:1021400011884FF0000320E0019B4FF004021A7148
:102150004FF0000383F31188019BDB6A1A68019B2F
:10216000DB6A9B681046194600F082FC0198FFF775
:102170005FFE019BDB6A1B68184600F0A1FC019B17
:102180004FF002021A714FF00003184603B000BD71
:1021900000B583B001900091019B002B019B1B793E
:1021A000052B019B4FF006021A71019BDB6A1A682E
:1021B000019BDB6A9B681046194600F059FC019BA5
:1021C000DB6A1B68184600F0A3FC019B93F83030D3
:1021D000002B06D001984FF01201009AFFF7C0FCC7
:1021E00008E0009B4FEA432301984FF012011A4682
:1021F000FFF7B6FC0198FFF7FBFC0346002B0CD061
:10220000019BDB6A1B68184600F05AFC019B4FF0EB
:1022100005021A714FF0010301E04FF00003184668
:1022200003B000BDAFF30080AFF30080AFF30080D8
:1022300000B585B001900091019B002B01D0009B5F
:10224000002B019B1B79062B02D04FF001033FE0CE
:102250004FF00003039324E0019BDB6A1B681846E0
:102260004FF00101009A00F0EBFC009B1B78FE2B65
:1022700013D1019BDB6A1B6818464FF40071009A6A
:1022800000F0DEFC019BDB6A1B6818464FF0020180
:1022900000F06EFC4FF000031AE0039B03F1010312
:1022A0000393039A42F20F739A42D5DD019BDB6AD6
:1022B0001B68184600F044FC019BDB6A1B6818464B
:1022C00000F0FEFB019B4FF005021A714FF0010375
:1022D000184605B000BD00BFAFF30080AFF300802B
:1022E00000B583B00190019B002B019B1B79062B4D
:1022F00002D04FF001031AE0019BDB6A1B6818460D
:102300004FF0070146F2D062C0F6000200F060FC18
:102310000198FFF76DFC019BDB6A1B68184600F013
:102320000FFC019B4FF005021A714FF00003184695
:1023300003B000BDAFF30080AFF30080AFF30080C7
:1023400000B583B001900091019B002B019B1B798C
:10235000052B019B4FF007021A71019BDB6A1A687B
:10236000019BDB6A9B681046194600F081FB019BCC
:10237000DB6A1B68184600F0CBFB019B93F83030FA
:10238000002B06D001984FF01901009AFFF7E8FBE7
:1023900008E0009B4FEA432301984FF019011A46C9
:1023A000FFF7DEFB0198FFF723FC0346002B0CD060
:1023B000019BDB6A1B68184600F082FB019B4FF013
:1023C00005021A714FF0010301E04FF000031846B7
:1023D00003B000BDAFF30080AFF30080AFF3008027
:1023E00000B585B001900091019B002B01D0009BAE
:1023F000002B019B1B79072B02D04FF0010344E017
:10240000019BDB6A1B6818464FF0020146F2C0626E
:10241000C0F6000200F0DCFB019BDB6A1B6818467B
:102420004FF40071009A00F0D3FB019BDB6A1B683C
:1024300018464FF0020100F09BFB019BDB6A1A6813
:1024400003AB10464FF001011A4600F0F9FB9DF86E
:102450000C3003F01F03052B05D10198FFF748FB53
:102460004FF0000311E0019BDB6A1B68184600F087
:1024700067FB019BDB6A1B68184600F021FB019B90
:102480004FF005021A714FF00103184605B000BD68
:1024900000B583B00190019B002B019B1B79072B9A
:1024A00002D04FF0010317E0019BDB6A1B6818465E
:1024B0004FF0020146F2B062C0F6000200F088FB65
:1024C000019BDB6A1B68184600F03AFB019B4FF04A
:1024D00005021A714FF00003184603B000BD00BF9B
:1024E00000B583B00190019B002B019B1B79052B4C
:1024F00002D04FF0010316E0019B4FF008021A7161
:10250000019BDB6A1A68019BDB6A9B6810461946CF
:1025100000F0AEFA0198FFF78BFC019B4FF005022B
:102520001A714FF00003184603B000BDAFF30080EE
:1025300082B001900091019B002B01D0009B002BE9
:10254000019B1B79052B02D04FF0010309E0019B91
:102550009A6A009B5A60009B4FF400721A604FF019
:102560000003184602B07047AFF30080AFF300805D
:1025700088B0039002910192029A019B9A4204D37F
:10258000029A019BC3EB02031F2B019B4FEA5313DB
:102590000793019B03F01F030693029B4FEA53131B
:1025A0000593029B03F01F0303F101034FF00102A7
:1025B00002FA03F303F1FF330493079A059B9A424F
:1025C00019D2079B4FEA8303039A13441A68069BA8
:1025D00022FA03F2059B4FEA830303990B4419681F
:1025E000049B01EA0301069BC3F1200301FA03F3F4
:1025F00042EA03030BE0079B4FEA8303039A134469
:102600001A68049B02EA0302069B22FA03F31846A7
:1026100008B07047AFF30080AFF30080AFF30080E5
:1026200000B587B00190019B03F10C031B684FEAD2
:102630009373002B02D0012B29D035E001984FF085
:1026400049014FF03E02FFF793FF034605930198BF
:102650004FF031014FF02F02FFF78AFF034604933A
:1026600001984FF053014FF05002FFF781FF0346EE
:102670000393059B03F10102049B03F1020302FA99
:1026800003F2039BA3F1090302FA03F30EE001989E
:102690004FF045014FF03002FFF76AFF034603F1A8
:1026A00001034FEA832301E04FF00003184607B00F
:1026B00000BD00BFAFF30080AFF30080AFF3008038
:1026C00008B501F015FD08BDAFF30080AFF3008041
:1026D00082B00190019B4FF001021A70019B4FF0F4
:1026E00000025A6002B07047AFF30080AFF3008081
:1026F00000B583B001900091019B002B01D0009B9D
:10270000002B4FF0200383F31188019B1B78012BD2
:1027100003D0019B1B78022B00BF019B009A5A60DB
:10272000009B9A88019B1A81019801F001FD019B91
:102730004FF002021A704FF0000383F3118803B0C8
:1027400000BD00BFAFF30080AFF30080AFF30080A7
:1027500000B583B00190019B002B4FF0200383F361
:102760001188019B1B78012B03D0019B1B78022B46
:1027700000BF019801F034FE019B4FF001021A7076
:102780004FF0000383F3118803B000BDAFF3008066
:1027900000B583B0019013460A468DF80320ADF8CA
:1027A0000030019B002B02D09DF80330032B4FF02B
:1027B000200383F31188019B1B78022B9DF80320D3
:1027C000BDF80030019811461A4601F059FE4FF04D
:1027D000000383F3118803B000BD00BFAFF3008096
:1027E00008B501F095F808BDAFF30080AFF30080A5
:1027F00000B585B0039002910192039B03F1300371
:1028000018460299019A4FF0FF33FEF789FF0346FD
:10281000184605B000BD00BFAFF30080AFF30080E5
:1028200000B585B0039002910192039B03F10C0364
:1028300018460299019A4FF0FF33FEF749FE03460E
:10284000184605B000BD00BFAFF30080AFF30080B5
:1028500000B583B001900B468DF80330019B03F166
:1028600030029DF80330104619464FF0FF32FEF754
:10287000BFFE0346184603B000BD00BFAFF30080A3
:1028800000B583B00190019B03F10C0318464FF093
:10289000FF31FEF7D5FD0346184603B000BD00BF6B
:1028A00000B585B003900B4601928DF80B30039B69
:1028B00003F130029DF80B3010461946019AFEF7DD
:1028C00097FE0346184605B000BD00BFAFF3008079
:1028D00000B583B001900091019B03F10C031846F1
:1028E0000099FEF7ADFD0346184603B000BD00BFDA
:1028F00000B585B00390029101920093039B03F110
:10290000300318460299019A009BFEF709FF03461F
:10291000184605B000BD00BFAFF30080AFF30080E4
:1029200000B585B00390029101920093039B03F1DF
:102930000C0318460299019A009BFEF7C9FD034655
:10294000184605B000BD00BFAFF30080AFF30080B4
:1029500008B501F025FF08BDAFF30080AFF300809C
:1029600000B587B0059004910392059A46F2E063A2
:10297000C0F600031360059B03F104031A46059B90
:102980005A60059B4FF001021A72059B03F10C027D
:10299000059B03F1540305990091104619464FF029
:1029A0001002049BFEF7CCFC059B03F13002059B53
:1029B00003F1640305990091104619464FF0100287
:1029C000039BFEF7EDFD07B000BD00BFAFF3008035
:1029D00000B583B001900B468DF80330019B002BAE
:1029E000019B5B69002B07D1019B03F1040318468F
:1029F0004FF00401FEF744FB019B03F10C029DF82C
:102A0000033010461946FEF7CBFC0346002B07DACD
:102A1000019B03F1040318464FF08001FEF730FBE1
:102A200003B000BDAFF30080AFF30080AFF30080D0
:102A300008B501F025F808BDAFF30080AFF30080C2
:102A400000B583B00190019B4FF001021A70019B09
:102A50004FF000025A60019B4FF000029A60019B08
:102A600003F10C031846FEF7F3FA03B000BD00BFF4
:102A700000B583B001900091019B002B01D0009B19
:102A8000002B4FF0200383F31188019B1B78012B4F
:102A900003D0019B1B78022B00BF019B009A5A6058
:102AA000019801F055F8019B4FF002021A704FF0A7
:102AB000000383F3118803B000BD00BFAFF30080B3
:102AC00000B583B00190019B002B4FF0200383F3EE
:102AD0001188019B1B78012B03D0019B1B78022BD3
:102AE00000BF019801F04CF9019801F0F1F8019B49
:102AF0004FF001021A704FF0000383F3118803B006
:102B000000BD00BFAFF30080AFF30080AFF30080E3
:102B100000B583B00190019B002B4FF0200383F39D
:102B20001188019B1B78022B019801F019F94FF0D5
:102B3000000383F3118803B000BD00BFAFF3008032
:102B400000B583B00190019B002B4FF0200383F36D
:102B50001188019B1B78022B019801F011F94FF0AD
:102B6000000383F3118803B000BD00BFAFF3008002
:102B700000B583B001900091019B002B01D0009B18
:102B8000002B4FF0200383F31188019B1B78022B4D
:102B9000019B5B681B68002B019B4FF003021A70BE
:102BA0000198009901F0FCF8019B9B68002B40F60E
:102BB0007013C2F200039A69019B9A604FF0020001
:102BC000FDF7C6FE4FF0000383F3118803B000BD8C
:102BD00000B585B0039002910192039B002B04D0B5
:102BE000029B002B01D0019B002B4FF0200383F3AD
:102BF0001188039B1B78022B039B5B681B68002BCF
:102C0000039B4FF003021A7003980299019A01F096
:102C100007F9039B9B68002B40F67013C2F2000378
:102C20009A69039B9A604FF00200FDF791FE4FF006
:102C3000000383F3118805B000BD00BFAFF300802F
:102C400000B585B0039002910192039B002B04D044
:102C5000029B002B01D0019B002B4FF0200383F33C
:102C60001188039B1B78022B039B5B681B68002B5E
:102C7000039B4FF003021A7003980299019A01F026
:102C80000FF9039B9B68002B40F67013C2F2000300
:102C90009A69039B9A604FF00200FDF759FE4FF0CE
:102CA000000383F3118805B000BD00BFAFF30080BF
:102CB00082B001904FF48053CEF200035A68019B1A
:102CC0009A6002B0704700BFAFF30080AFF300809E
:102CD00084B001904FF48053CEF200035B680393FD
:102CE000019B9B68039AC3EB020240F6B813C2F241
:102CF00000031B68C3EB0202019B9A60019B9A6868
:102D0000019BDB689A4204D9019B9A68019BDA60B7
:102D100009E0019B9A68019B1B699A4203D2019BBF
:102D20009A68019B1A6104B0704700BFAFF300803E
:102D300000B587B040F6B813C2F200034FF00002AE
:102D40001A6001AB184600F013F8019B01AA104667
:102D50009847029B01AA10469847039A40F6B81379
:102D6000C2F200031A6007B000BD00BFAFF30080DD
:102D700082B00190019A42F6B143C0F6000313609D
:102D8000019A42F6D143C0F600035360019B4FF015
:102D900000029A60019B4FF00002DA60019B4FF045
:102DA000FF321A6102B07047AFF30080AFF30080CA
:102DB00000B583B04FF00003C4F202031B6803F0B8
:102DC0000F0301934FF00003C4F20203019A5A600B
:102DD00040F6C013C2F200031B68002B0CD040F673
:102DE000C013C2F200031A6840F6C013C2F2000317
:102DF0005B68184601999047FDF762FA03B000BD81
:102E000000B583B04FF00003C4F202031B684FEA21
:102E1000131303F00F0301934FF00003C4F20203F6
:102E2000019A4FEA02125A6040F6C013C2F2000340
:102E30009B68002B0CD040F6C013C2F200039A68C6
:102E400040F6C013C2F20003DB68184601999047B0
:102E5000FDF736FA03B000BDAFF30080AFF300809A
:102E600000B583B04FF00003C4F202031B684FEAC1
:102E7000132303F00F0301934FF00003C4F2020386
:102E8000019A4FEA02225A6040F6C013C2F20003D0
:102E90001B69002B0CD040F6C013C2F200031A6964
:102EA00040F6C013C2F200035B69184601999047CF
:102EB000FDF706FA03B000BDAFF30080AFF300806A
:102EC00000B583B04FF00003C4F202031B684FEA61
:102ED000133303F00F0301934FF00003C4F2020316
:102EE000019A4FEA02325A6040F6C013C2F2000360
:102EF0009B69002B0CD040F6C013C2F200039A6904
:102F000040F6C013C2F20003DB69184601999047EE
:102F1000FDF7D6F903B000BDAFF30080AFF300803A
:102F200000B583B04FF00003C4F202031B684FEA00
:102F3000134303F00F0301934FF00003C4F20203A5
:102F4000019A4FEA02425A6040F6C013C2F20003EF
:102F50001B6A002B0CD040F6C013C2F200031A6AA1
:102F600040F6C013C2F200035B6A1846019990470D
:102F7000FDF7A6F903B000BDAFF30080AFF300800A
:102F800000B583B04FF00003C4F202031B684FEAA0
:102F9000135303F00F0301934FF00003C4F2020335
:102FA000019A4FEA02525A6040F6C013C2F200037F
:102FB0009B6A002B0CD040F6C013C2F200039A6A41
:102FC00040F6C013C2F20003DB6A1846019990472D
:102FD000FDF776F903B000BDAFF30080AFF30080DA
:102FE00000B583B04FF00003C4F202031B684FEA40
:102FF000136303F00F0301934FF00003C4F20203C5
:10300000019A4FEA02625A6040F6C013C2F200030E
:103010001B6B002B0CD040F6C013C2F200031A6BDE
:1030200040F6C013C2F200035B6B1846019990474B
:10303000FDF746F903B000BDAFF30080AFF30080A9
:1030400082B040F6BC13C2F200034FF000021A60D7
:103050004FF0000301931CE046F20072C0F600023C
:1030600001990B464FEA43030B444FEA8303134491
:103070001B684FF000021A6040F6C013C2F2000352
:10308000019A4FF0000143F83210019B03F1010354
:103090000193019B062BDFDD4FF00003C4F2020316
:1030A0004FF0FF325A6002B0704700BFAFF30080AC
:1030B00000B585B00390029101920093039B002B11
:1030C000039B5B7A4FF0010202FA03F31A4640F6C3
:1030D000BC13C2F200031B6802EA0303002B02D0F8
:1030E0004FF0010361E0039B5B7A1A4640F6C01380
:1030F000C2F20003019943F83210039B5B7A40F659
:10310000C012C2F200024FEAC3031344009A5A608D
:10311000039B5B7A4FF0010202FA03F31A4640F672
:10312000BC13C2F200031B6842EA030240F6BC1360
:10313000C2F200031A6040F6BC13C2F200031B681F
:1031400003F07F03002B0BD04FF48053C4F2020333
:103150004FF48052C4F20202526942F001025A61F5
:10316000039B1B68039A1268126822F00F021A6010
:10317000039B5B68039A127A4FF00F0101FA02F287
:103180001A60039B1B684FF000021A60019B002B22
:1031900009D0039B9B7A1A46029B4FEA0313104601
:1031A0001946FDF715F94FF00003184605B000BDAC
:1031B00000B583B00190019B002B019B5B7A4FF01F
:1031C000010202FA03F31A4640F6BC13C2F20003EE
:1031D0001B6802EA0303002B019B9B7A1846FDF74C
:1031E0004FF9019B5B7A4FF0010202FA03F36FEA99
:1031F00003031A4640F6BC13C2F200031B6802EA3E
:10320000030240F6BC13C2F200031A6040F6BC137E
:10321000C2F200031B6803F07F03002B0BD14FF4B5
:103220008053C4F202034FF48052C4F20202526986
:1032300022F001025A6103B000BD00BFAFF300806D
:1032400008B54FF4E043C4F200034FF4E042C4F287
:103250000002126842F480721A604FF48053C4F284
:1032600002031B6A03F44073B3F5407F0DD04FF4A3
:103270008053C4F202034FF480321A624FF4805339
:10328000C4F202034FF000021A624FF48053C4F2FA
:1032900002031B6A03F40043002B19D14FF480533F
:1032A000C4F202034FF48052C4F20202126A42F4E2
:1032B00040721A6200F0F4FA4FF48053C4F2020331
:1032C0004FF48052C4F20202126A42F400421A62BF
:1032D00008BD00BFAFF30080AFF30080AFF3008004
:1032E00008B54FF48053C4F202031B694FF48053B6
:1032F000C4F202034FF0FF321A614FF48053C4F25C
:1033000002034FF000021A614FF48053C4F202032B
:10331000DB684FF48053C4F202034FF0FF32DA60EF
:103320004FF48053C4F202034FF00002DA604EF211
:103330001003CEF2000345F6BF525A604EF210035E
:10334000CEF200034FF000029A604EF21003CEF26C
:1033500000034FF007021A604EF6F053CEF200035E
:103360004EF6F052CEF20002D26842F08072DA607D
:103370004FF48053CEF200034FF48052CEF200029D
:10338000126842F001021A604FF48053C4F2020343
:103390004FF48052C4F20202D26942F08052DA61E4
:1033A0004FF48053C4F202034FF48052C4F202027D
:1033B000D26942F00062DA61FFF742FFFFF740FE98
:1033C00008BD00BFAFF30080AFF30080AFF3008013
:1033D0004FF48053C4F202034FF48052C4F202024D
:1033E000126842F001021A6000BF4FF48053C4F229
:1033F00002031B6803F00203002BF6D04FF4805346
:10340000C4F202034FF48052C4F20202126802F0C6
:10341000F9021A604FF48053C4F202034FF0000225
:103420005A6000BF4FF48053C4F202035B6803F09C
:103430000C03002BF6D14FF48053C4F202034FF477
:103440008052C4F20202126842F480321A6000BF55
:103450004FF48053C4F202031B6803F40033002BC3
:10346000F6D04FF48053C4F202034FF48052C4F2FA
:103470000202526842F4A0225A604FF48053C4F210
:1034800002034FF48052C4F20202126842F08072CA
:103490001A6000BF4FF48053C4F202031B6803F0AC
:1034A0000073002BF6D04FF48053C4F202034FF4A4
:1034B000C842C0F245025A604FF40053C4F20203FE
:1034C0004FF010021A604FF48053C4F202034FF41D
:1034D0008052C4F20202526842F002025A6000BFF7
:1034E0004FF48053C4F202035B6803F00C03082B13
:1034F000F6D17047AFF30080AFF30080AFF30080E8
:1035000008B540F6F810C2F20000FEF729FA40F6BE
:10351000F813C2F200034FF41052C4F201029A628F
:1035200040F6F813C2F2000346F20072C0F6000241
:10353000DA6240F6F813C2F2000342F28A521A63CA
:103540004FF48053C4F202034FF48052C4F20202DB
:10355000926942F400729A614FF41053C4F201036D
:103560004FF000025A604FF41053C4F201034FF0C1
:1035700001029A604FF41053C4F201034FF00902A4
:103580009A6000BF4FF41053C4F201039B6803F02C
:103590000803002BF6D14FF41053C4F201034FF08F
:1035A00005029A6000BF4FF41053C4F201039B68F8
:1035B00003F00403002BF6D14FF41053C4F20103BF
:1035C0004FF000029A604FF48053C4F202034FF4AC
:1035D0008052C4F20202926922F400729A6108BD1C
:1035E00082B001904FF48053C4F202034FF4805232
:1035F000C4F20202926942F07D029A614FF40063C4
:10360000C4F20103019A1268DA604FF40063C4F255
:103610000103019A92685A604FF40063C4F20103F7
:10362000019A52681A604FF44063C4F20103019A90
:10363000D268DA604FF44063C4F20103019A526920
:103640005A604FF44063C4F20103019A12691A6090
:103650004FF48053C4F20103019A9269DA604FF487
:103660008053C4F20103019A126A5A604FF48053E6
:10367000C4F20103019AD2691A604FF4A053C4F254
:103680000103019A526ADA604FF4A053C4F20103B5
:10369000019AD26A5A604FF4A053C4F20103019A0E
:1036A000926A1A604FF4C053C4F20103019A126B7C
:1036B000DA604FF4C053C4F20103019A926B5A606E
:1036C0004FF4C053C4F20103019A526B1A6002B066
:1036D000704700BFAFF30080AFF30080AFF300800E
:1036E0008AB0039002910192019B032B03D1039BAB
:1036F000029A1A6105E0019B042B02D1039B029AF6
:103700005A6146F26073C0F60003019A13441B78B5
:1037100004934FF000030693069B0793079B0893BF
:10372000089B09934FF00003059335E0089B4FEA8F
:1037300003130893099B4FEA03130993069B4FEA6F
:1037400003130693079B4FEA03130793029B03F0AF
:103750008003002B04D1089B43F00F03089304E07F
:10376000069A049B42EA03030693029B03F4004378
:10377000002B04D1099B43F00F03099304E0079A3F
:10378000049B42EA03030793029B4FEA430302931D
:10379000059B03F101030593059B072BC6D9039BEA
:1037A0005A68099B02EA0302079B42EA0302039B51
:1037B0005A60039B1A68089B02EA0302069B42EACE
:1037C0000302039B1A600AB0704700BFAFF300808A
:1037D00000B583B04FF42053C4F200039B889BB222
:1037E00003F00803002BF5D04FF42053C4F200037C
:1037F0001B889AB24FF42053C4F200039B889BB2FB
:1038000002EA0303ADF806304FF42053C4F200037C
:103810004FF42052C4F20002928892B222F00702C2
:1038200092B29A80BDF8063003F00103DBB2002BA0
:103830000BD040F62C23C2F200031B6840F62C206C
:10384000C2F200004FF000019847BDF8063003F0C7
:103850000203002B0BD040F62C23C2F200031B689E
:1038600040F62C20C2F200004FF001019847BDF84D
:10387000063003F00403002B0BD040F62C23C2F2D9
:1038800000031B6840F62C20C2F200004FF002013A
:103890009847FCF715FD03B000BD00BFAFF30080F3
:1038A0004FF42053C4F200039B889BB203F0200323
:1038B000002BF5D04FF42053C4F200034FF42052F4
:1038C000C4F20002928892B242F0100292B29A8040
:1038D0004FF42053C4F200034FF000021A814FF45A
:1038E0002053C4F200034FF223429A814FF4205335
:1038F000C4F200034FF42052C4F20002928892B244
:1039000022F0100292B29A80704700BFAFF300809D
:1039100008B54FF42053C4F200034FF42052C4F210
:103920000002928892B222F0080292B29A804FF47A
:103930002053C4F200039B889BB203F00803002BC2
:10394000F5D04FF42053C4F200039B889BB203F0E0
:103950002003002BF5D04FF42053C4F200034FF0A6
:1039600000021A8040F62C23C2F200034FF000023E
:103970001A604FF003004FF0F001FCF729FD08BD7D
:1039800000B585B001900091009B03F00803002B67
:1039900001D0FCF73DFC019B5B6A1B68019A526AEF
:1039A0001268126822F00F021A60019B5B6A5B6862
:1039B000019A526A127A4FF00F0101FA02F21A606C
:1039C000019B1B6A1B68019A126A1268126822F036
:1039D0000F021A60019B1B6A5B68019A126A127AD5
:1039E0004FF00F0101FA02F21A60019B5B681B683D
:1039F000002B11D0019B4FF004021A70019B5B68F1
:103A00001B6801989847019B1B78042B08D1019BE8
:103A10004FF002021A7003E0019B4FF002021A708D
:103A20004FF0200383F31188019B9B68002B0DD07E
:103A3000019B9B680393019B4FF000029A60039BDC
:103A40004FF000025A620398FCF752FF4FF0000358
:103A500083F3118805B000BDAFF30080AFF30080A1
:103A600000B583B001900091009B03F00803002B88
:103A700001D0FCF7CDFB03B000BD00BFAFF3008069
:103A800008B540F69023C2F200034FF6FF721A8089
:103A900040F63020C2F20000FEF7D2FF40F630239D
:103AA000C2F200034FF44052C4F20102DA6140F660
:103AB0003023C2F20003204A1A6240F63023C2F2D9
:103AC00000031E4A5A6240F63023C2F2000341F25C
:103AD0000A029A6240F63023C2F2000341F2180251
:103AE000DA6240F66020C2F20000FEF7A9FF40F65D
:103AF0006023C2F200034FF46052C4F20002DA61A4
:103B000040F66023C2F200030D4A1A6240F66023B9
:103B1000C2F200030B4A5A6240F66023C2F200036D
:103B200041F20A029A6240F66023C2F2000341F2B7
:103B30001802DA6208BD00BF0C67000818670008A9
:103B40002467000830670008AFF30080AFF30080FF
:103B500000B585B00190019B1B78012B75D1019AAE
:103B600040F63023C2F200039A422BD1019B1A6A1D
:103B700043F68113C0F6000310464FF00A011A46BF
:103B8000019BFFF795FA03468DF80F30019B5A6AA7
:103B900043F66123C0F6000310464FF00A011A46AF
:103BA000019BFFF785FA03468DF80F304FF48053E1
:103BB000C4F202034FF48052C4F20202926942F44A
:103BC00080529A61019A40F66023C2F200039A4241
:103BD0002BD1019B1A6A43F68113C0F600031046ED
:103BE0004FF00A011A46019BFFF762FA03468DF86F
:103BF0000E30019B5A6A43F66123C0F6000310465B
:103C00004FF00A011A46019BFFF752FA03468DF85E
:103C10000E304FF48053C4F202034FF48052C4F2CA
:103C20000202D26942F48042DA61019B1B6A1B687E
:103C3000019AD26902F10C029A60019B5B6A1B68CF
:103C4000019AD26902F10C029A60019B5B685B8960
:103C500003F40063002B0CD1019B9B6A23F4706278
:103C6000019B9A62019BDB6A23F47062019BDA621A
:103C70000FE0019B9B6A23F4706343F4A062019BF5
:103C80009A62019BDB6A23F4706343F4A062019B98
:103C9000DA62019BDB694FF000021A80019BDB694D
:103CA000019A5268528942F4417292B21A80019B81
:103CB000DB694FF007029A80019BDB69019AD269A8
:103CC000128892B242F0400292B21A8005B000BD52
:103CD00000B583B00190019B1B78022B39D1019B69
:103CE000DB694FF000021A80019BDB694FF0000294
:103CF0009A80019B1B6A1846FFF75AFA019B5B6A80
:103D00001846FFF755FA019A40F63023C2F2000335
:103D10009A420BD14FF48053C4F202034FF4805205
:103D2000C4F20202926922F480529A61019A40F62A
:103D30006023C2F200039A420BD14FF48053C4F2C5
:103D400002034FF48052C4F20202D26922F480428C
:103D5000DA6103B000BD00BFAFF30080AFF30080B5
:103D600082B00190019B5B685B68019A526812897E
:103D70004FF0010101FA02F25A6102B0704700BF30
:103D800082B00190019B5B685B68019A526812895E
:103D90004FF0010101FA02F21A6102B0704700BF50
:103DA00082B001900091019B1B6A1A6840F6922331
:103DB000C2F20003D360019B1B6A1B68009A5A6021
:103DC000019B1B6A1B68019A926A1A60019B5B6ADD
:103DD0001A6840F69023C2F20003D360019B5B6A2D
:103DE0001B68009A5A60019B5B6A1B68019AD26A41
:103DF0001A60019B1B6A1B68019A126A126812689A
:103E000042F001021A60019B5B6A1B68019A526AC8
:103E10001268126842F001021A6002B0704700BFD7
:103E200084B0039002910192039B1B6A1A6840F6CA
:103E30009223C2F20003D360039B1B6A1B68029AA1
:103E40005A60039B1B6A1B68039A926A1A60039B61
:103E50005B6A1B68019ADA60039B5B6A1B68029AC3
:103E60005A60039B5B6A1B68039AD26A42F0800225
:103E70001A60039B1B6A1B68039A126A1268126815
:103E800042F001021A60039B5B6A1B68039A526A44
:103E90001268126842F001021A6004B0704700BF55
:103EA00084B0039002910192039B1B6A1B68019AE4
:103EB000DA60039B1B6A1B68029A5A60039B1B6AA9
:103EC0001B68039A926A42F080021A60039B5B6A45
:103ED0001A6840F69023C2F20003D360039B5B6A2A
:103EE0001B68029A5A60039B5B6A1B68039AD26A3A
:103EF0001A60039B1B6A1B68039A126A1268126895
:103F000042F001021A60039B5B6A1B68039A526AC3
:103F10001268126842F001021A6004B0704700BFD4
:103F200000B585B00190019B1B691B69ADF80E308F
:103F3000019B1B69DB689AB2BDF80E3002EA0303ED
:103F40009BB203F0FF03ADF80E30019B1B69BDF877
:103F50000E206FEA02021A61BDF80E3003F0020370
:103F6000002B04D0019B5B681B6901989847BDF842
:103F70000E3003F00403002B04D0019B5B689B69A7
:103F800001989847BDF80E3003F00803002B04D0C9
:103F9000019B5B681B6A01989847BDF80E3003F0DF
:103FA0001003002B04D0019B5B689B6A0198984723
:103FB000BDF80E3003F00103DBB2002B04D0019BEF
:103FC0005B689B680198984705B000BDAFF300801F
:103FD00008B54FF43053C4F201036FF001021A61C7
:103FE00040F69423C2F200035B689B6840F694207D
:103FF000C2F200009847FCF763F908BDAFF30080F8
:1040000000B583B04FF43053C4F201031B699AB278
:104010004FF43053C4F20103DB689BB202EA03039E
:104020009BB203F0FF03ADF806304FF43053C4F2F7
:104030000103BDF806206FEA02021A61BDF80630DE
:1040400003F00203002B0AD040F69423C2F20003CF
:104050005B681B6940F69420C2F200009847BDF8E7
:10406000063003F00403002B0AD040F69423C2F27A
:1040700000035B689B6940F69420C2F200009847F9
:10408000BDF8063003F00803002B0AD040F6942355
:10409000C2F200035B681B6A40F69420C2F2000083
:1040A0009847BDF8063003F01003002B0AD040F605
:1040B0009423C2F200035B689B6A40F69420C2F22C
:1040C00000009847FCF7FCF803B000BDAFF3008098
:1040D00008B540F6A820C2F20000FFF721FFFCF768
:1040E000EFF808BDAFF30080AFF30080AFF30080BE
:1040F00008B540F69420C2F20000FEF7E9FA40F657
:104100009423C2F200034FF43052C4F201021A6148
:1041100040F6A820C2F20000FEF7DAFA40F6A82323
:10412000C2F200034FF40062C4F200021A6108BD3B
:1041300000B585B00190019B1B78012B74D1019AC9
:1041400040F69423C2F200039A4230D14FF48053D8
:10415000C4F202034FF48052C4F20202926942F4A4
:1041600000629A614FF48053C4F202034FF480520C
:10417000C4F20202D26842F40062DA604FF4805363
:10418000C4F202034FF00002DA604FF019004FF062
:104190007001FCF71DF94FF01B004FF07001FCF7A8
:1041A00017F9019A4FF45853C0F26E13D360019A75
:1041B00040F6A823C2F200039A422AD14FF480535A
:1041C000C4F202034FF48052C4F20202D26942F0F8
:1041D0000402DA614FF48053C4F202034FF48052B8
:1041E000C4F20202126942F004021A614FF48053D1
:1041F000C4F202034FF000021A614FF01E004FF0AC
:104200007001FCF7E5F8019A4FF45853C0F26E13B1
:10421000D360019B1B6946F668029A61019B1B698A
:1042200046F66802DA612AE0019B1B694FF0000242
:104230001A60019B1B69019A5268126B22F0FF02FF
:10424000DA60019B1B694FF000021A61019B1B6938
:104250004FF000025A63019B1B694FF000029A6302
:10426000019B1B694FF00002DA63019B1B694FF051
:1042700000021A64019B1B694FF000025A62019B05
:10428000DA68019B5B681B68B2FBF3F303F1FF3351
:104290000293029A4FF6FF739A420BD8029B03F1E6
:1042A0000103019A5268126802FB03F2019BDB686A
:1042B0009A4200BF019B1B69029A92B29A62019BCB
:1042C0001B69019A128902F1FF3292B2DA62019BF4
:1042D0001B69019A5268D26A5A604FF00003ADF828
:1042E0000E30019B5B68DB6803F00F03012B07D0E6
:1042F000022B0BD1BDF80E3043F00203ADF80E30A7
:10430000BDF80E3043F00103ADF80E30019B5B6841
:104310005B6903F00F03012B07D0022B0BD1BDF813
:104320000E3043F02003ADF80E30BDF80E3043F0F0
:104330001003ADF80E30019B5B68DB6903F00F03DF
:10434000012B07D0022B0BD1BDF80E3043F40073C4
:10435000ADF80E30BDF80E3043F48073ADF80E307A
:10436000019B5B685B6A03F00F03012B07D0022BF4
:104370000BD1BDF80E3043F40053ADF80E30BDF84C
:104380000E3043F48053ADF80E30019B1B69BDF82D
:104390000E201A62019B1B694FF001025A61019BBA
:1043A0001B69019A1269D168019A52689268002AC1
:1043B0000CBF0022012241EA0202DA60019B1B6964
:1043C0004FF000021A61019B1B694FF400425A64CE
:1043D000019B1B694FF085021A6005B000BD00BF4C
:1043E00000B583B00190019B1B78022B45D1019B46
:1043F0001B694FF000021A60019B1B694FF000021D
:10440000DA60019B1B694FF000021A61019B1B6976
:104410004FF000025A64019A40F69423C2F200035E
:104420009A4213D14FF01900FCF72AF84FF01B0005
:10443000FCF726F84FF48053C4F202034FF4805285
:10444000C4F20202926922F400629A61019A40F673
:10445000A823C2F200039A420FD14FF01E00FCF7CE
:104460000FF84FF48053C4F202034FF48052C4F2A9
:104470000202D26922F00402DA6103B000BD00BF7B
:1044800084B0019013460A468DF80320ADF8003041
:10449000019B19699DF80330BDF8002003F10C035E
:1044A0004FEA83030B445A60019B5A689DF803301E
:1044B00003F101034FEAC30313449B68002B27D089
:1044C000019B1B69DB6803939DF803304FF00202E8
:1044D00002FA03F31A46039B02EA0303002B17D1E7
:1044E000019B1B699DF803204FF0020101FA02F2C3
:1044F0001146039A41EA0202DA60019B1B699DF8AA
:1045000003204FF0020101FA02F26FEA02021A617F
:1045100004B07047AFF30080AFF30080AFF30080CA
:1045200082B001900B468DF80330019B1A699DF80B
:10453000033003F10C034FEA830313444FF00002EE
:104540005A60019B1B69019A1269D1689DF803208A
:104550004FF0020000FA02F26FEA020201EA0202E0
:10456000DA6002B0704700BFAFF30080AFF30080A5
:1045700000B585B001900B46ADF802304FF0000356
:104580000393BDF8023003F00803002B03D0039B14
:1045900043F080030393BDF8023003F00103DBB264
:1045A000002B03D0039B43F020030393BDF802309C
:1045B00003F00203002B03D0039B43F0400303935B
:1045C000BDF8023003F00403002B03D0039B43F437
:1045D00080730393019B03F1040318460399FCF7CE
:1045E0004FFD05B000BD00BFAFF30080AFF300800A
:1045F00000B587B00190019B5B6F0493049B9B897E
:10460000ADF80E30049B1B88ADF81630BDF816309F
:1046100003F48073002B13D04FF0200383F3118831
:10462000019B03F1040318464FF40071FCF728FDC9
:104630004FF0000383F31188049B4FF6FF621A804A
:104640004FF0200383F3118817E0BDF8163003F014
:104650000F03002B05D0BDF8163001981946FFF75F
:1046600087FF049B9B889BB2DBB201981946FEF73B
:10467000AFF9049B1B88ADF81630BDF8163003F077
:104680002003002BE1D14FF0000383F31188BDF824
:104690000E3003F08003002B30D0BDF8163003F04D
:1046A0008003002B2AD04FF0200383F31188019B55
:1046B00003F130031846FCF7EBFF03460293029B1D
:1046C000002B13DA019B03F1040318464FF0080195
:1046D000FCF7D6FCBDF80E3023F0C0039BB243F0CC
:1046E00040039BB29AB2049B9A8103E0029B9AB268
:1046F000049B9A804FF0000383F31188BDF81630B5
:1047000003F04003002B1AD04FF0200383F31188ED
:10471000019B03F1040318464FF01001FCF7B0FCB5
:104720004FF0000383F31188BDF80E3023F0C0036F
:104730009AB2049B9A81049B4FF6BF721A8007B00D
:1047400000BD00BFAFF30080AFF30080AFF3008087
:1047500082B001904FF48843C4F200034FF48842C2
:10476000C4F20002928992B242F0800292B29A811F
:1047700002B07047AFF30080AFF30080AFF300806A
:1047800008B540F6BC20C2F20000FFF731FFFBF78E
:1047900097FD08BDAFF30080AFF30080AFF300805A
:1047A00008B540F6BC20C2F200004FF0000144F210
:1047B0005172C0F60002FEF7D3F840F6BC23C2F2F5
:1047C00000034FF48842C4F200025A6708BD00BFDC
:1047D00008B5FEF7FDFD08BDAFF30080AFF3008024
:1047E000704700BFAFF30080AFF30080AFF30080ED
:1047F00000B585B003468DF807309DF80730002BD3
:1048000022D14FF000038DF80F3041F26C33C2F229
:1048100000031B79052B05D09DF80F3043F00103F1
:104820008DF80F3041F26C30C2F2000001F078FEDA
:104830000346002B05D09DF80F3043F004038DF89C
:104840000F309DF80F3001E04FF00203184605B01D
:1048500000BD00BFAFF30080AFF30080AFF3008076
:1048600000B585B003468DF807309DF80730002B62
:1048700022D14FF000038DF80F3041F26C33C2F2B9
:1048800000031B79052B05D09DF80F3043F0010381
:104890008DF80F3041F26C30C2F2000001F040FEA2
:1048A0000346002B05D09DF80F3043F004038DF82C
:1048B0000F309DF80F3001E04FF00203184605B0AD
:1048C00000BD00BFAFF30080AFF30080AFF3008006
:1048D00000B585B00291019202468DF80F208DF847
:1048E00003309DF80F30002B40D141F26C33C2F2FF
:1048F00000031B79052B02D04FF0030338E041F28F
:104900006C30C2F200000199FDF742FC0346002B17
:1049100019D04FF001032BE041F26C30C2F20000DD
:104920000299FDF785FC0346002B02D04FF00103EE
:104930001EE0029B03F5007302939DF8033003F120
:10494000FF338DF803309DF80330002BE4D141F2A2
:104950006C30C2F20000FDF7C3FC0346002B02D00E
:104960004FF0010304E04FF0000301E04FF00403B7
:10497000184605B000BD00BFAFF30080AFF3008064
:1049800086B0039002910192039B0593029B0493CE
:104990000FE0059B049A12681A60059B03F104035B
:1049A0000593049B03F104030493019BA3F1040307
:1049B0000193019B032BECD80BE0049B1A78059B19
:1049C0001A70059B03F101030593049B03F1010396
:1049D0000493019B002B0CBF00230123DBB2019A3F
:1049E00002F1FF320192002BE7D106B0704700BF01
:1049F00086B0039002910192039B059307E0029B0E
:104A0000DAB2059B1A70059B03F101030593019B24
:104A1000002B0CBF00230123DBB2019A02F1FF320D
:104A20000192002BEBD106B0704700BFAFF30080BE
:104A300088B0039002910192039B0793029B069317
:104A40004FF00003059300BF019B002B0CBF002318
:104A50000123DBB2019A02F1FF320192002B17D041
:104A6000079B1B781A46069B1B78C3EB0203059332
:104A7000059B002B14BF00230123DBB2079A02F130
:104A800001020792069A02F101020692002BDBD185
:104A9000059B184608B07047AFF30080AFF3008065
:104AA00082B00190009103E0019B03F101030193A7
:104AB000019B1B78002B05D0019B1B781A46009B9D
:104AC0009A42F1D1019B1B78184602B0704700BF93
:104AD00000B585B001900091019B1B6A0393039A76
:104AE000009B9A4217D0009B002B14D0019B5A7850
:104AF000019B03F1240310461946009A4FF001036D
:104B0000FFF7E6FE0346002B02D04FF0010304E05E
:104B1000019B009A1A624FF00003184605B000BDD1
:104B200082B001900091009BA3F102030093019BCE
:104B3000DB68A3F10202009B9A4202D84FF0000307
:104B400007E0019B9B78009A02FB03F2019BDB6963
:104B50001344184602B07047AFF30080AFF30080F3
:104B600000B587B001900091009B012B04D9019BF7
:104B7000DA68009B9A4202D84FF001039AE0019B49
:104B80001B78022B53D0032B6DD0012B40F090806B
:104B9000009B0593059B4FEA5303059A1344059325
:104BA000019B5A69059B4FEA532313440198194608
:104BB000FFF78EFF0346002B73D1059B4FEAC353CB
:104BC0004FEAD353019A134493F824300493059B7E
:104BD00003F101030593019B5A69059B4FEA532397
:104BE000134401981946FFF773FF0346002B5AD16F
:104BF000059B4FEAC3534FEAD353019A134493F8EA
:104C000024304FEA0323049A42EA03030493009BEF
:104C100003F00103DBB2002B03D0049B4FEA131314
:104C200004E0049B4FEA03534FEA135342E0019B15
:104C30005A69009B4FEA1323134401981946FFF762
:104C400047FF0346002B30D1019B03F12402009B58
:104C50004FEA43034FEAC3534FEAD353134403933A
:104C6000039B1B8826E0019B5A69009B4FEAD313E4
:104C7000134401981946FFF72BFF0346002B16D16A
:104C8000019B03F12402009B4FEA83034FEAC353C5
:104C90004FEAD35313440393039B1B6823F07043E1
:104CA00008E000BF04E000BF02E000BF00E000BF7A
:104CB0004FF0FF33184607B000BD00BFAFF30080D0
:104CC00000B585B001900B46ADF80230019BBDF8F0
:104CD0000220DA80019B9B680393039B012B05D084
:104CE000019B1B68DA68039B9A4202D84FF00203CB
:104CF00079E0039B002B08D1019B1B681B78032BD9
:104D000003D1019B1B689B690393039B002B18D164
:104D1000019B039ADA60019B1B681B89BDF8022086
:104D20009A4202D34FF002035DE0019B1B689A692F
:104D3000BDF802304FEA13139BB21A44019B1A616B
:104D400042E0019B1B689B784FEA0313ADF80A30E1
:104D500022E0019B1B6818460399FFF701FF0346F9
:104D60000393039BB3F1FF3F02D14FF001033AE0FD
:104D7000039B012B05D9019B1B68DA68039B9A42B0
:104D800002D84FF002032EE0BDF80220BDF80A3031
:104D9000C3EB0203ADF80230BDF80220BDF80A30C3
:104DA0009A42D6D2019B039ADA60019B1B6818468F
:104DB0000399FFF7B5FE0246BDF802304FEA131320
:104DC0009BB21A44019B1A61019B1B6803F12402E8
:104DD000BDF8023003F00F034FEA43131A44019B5E
:104DE0005A614FF00003184605B000BDAFF30080D4
:104DF00000B585B001900091019BDB8803F10103B0
:104E0000ADF80E30BDF80E30002B03D0019B1B69AE
:104E1000002B02D14FF004036AE0BDF80E3003F01E
:104E20000F039BB2002B50D1019B1B6903F10102C0
:104E3000019B1A61019BDB68002B09D1019B1B6858
:104E40001B89BDF80E209A423ED34FF004034FE079
:104E5000BDF80E304FEA13139BB21A46019B1B6834
:104E60009B7803F1FF3302EA0303002B2DD1019B52
:104E70001A68019BDB6810461946FFF771FE03466E
:104E80000293029B012B02D84FF0020330E0029BF9
:104E9000B3F1FF3F02D14FF0010329E0019B1B68F2
:104EA000DA68029B9A4202D84FF0040320E0019B8B
:104EB000029ADA60019B1B6818460299FFF730FEE0
:104EC0000246019B1A6100E000BF019BBDF80E2065
:104ED000DA80019B1B6803F12402BDF80E3003F059
:104EE0000F034FEA43131A44019B5A614FF000032A
:104EF000184605B000BD00BFAFF30080AFF30080DF
:104F000000B587B001900091009B1B7823F040030F
:104F100003F1FF3213464FEA430313444FEA83037E
:104F2000134405934FF0000304934FF00103ADF8D1
:104F30000E30009A46F2C073C0F6000304990B4489
:104F40001B7813441B88ADF80C30BDF80E30002BD5
:104F50001FD0BDF80C30184601F092F80346ADF8AA
:104F60000E30059BFE2B11D8059B4FEA4303019A97
:104F700013441B88059A02F101020592184601F0BC
:104F80007FF80346BDF80E209A420BD04FF0000385
:104F900027E0BDF80C204FF6FF739A4203D04FF084
:104FA00000031EE000BF049B03F101030493049B74
:104FB0000C2BBED9009B1B7803F04003002B0ED0B6
:104FC000BDF80E30002B0AD0059B4FEA4303019A2F
:104FD00013441B88002B02D04FF0000301E04FF078
:104FE0000103184607B000BDAFF30080AFF30080A7
:104FF00084B001904FF000038DF80F304FF00B0399
:1050000002939DF80F304FEAC312DBB24FEA53030D
:1050100042EA0303DAB2019B1B7813448DF80F3088
:10502000019B03F101030193029B03F1FF33029300
:10503000029B002BE5D19DF80F30184604B0704755
:1050400000B587B0019001984FF00001FFF738FEDE
:1050500003468DF817309DF81730002B02D09DF8CD
:105060001730C5E04FF0FF038DF814309DF8143071
:105070008DF81530019B1A68019B1B691046194673
:10508000FFF726FD03468DF817309DF81730002BEB
:1050900040F0A780019B5B690493049B1B788DF80B
:1050A00016309DF81630002B04D14FF004038DF814
:1050B00017309BE0049B03F10B031B7803F03F03C5
:1050C0008DF80F309DF81630E52B09D09DF80F3084
:1050D00003F00803002B08D09DF80F300F2B04D0ED
:1050E0004FF0FF038DF815306DE09DF80F300F2B5A
:1050F0003FD1019BDB69002B64D09DF8163003F093
:105100004003002B13D0049B03F10D031B788DF893
:1051100014309DF8163023F040038DF816309DF8BA
:1051200016308DF81530019BDA88019B1A849DF8A2
:1051300016209DF815309A4216D1049B03F10D03F9
:105140001B789DF814209A420ED1019BDB6918460A
:105150000499FFF7D5FE0346002B05D09DF81530C6
:1051600003F1FF33DBB201E04FF0FF038DF81530A0
:1051700029E09DF81530002B07D10498FFF738FF80
:1051800003469DF814209A422DD04FF0FF038DF86E
:105190001530019B4FF6FF721A84019B9B6903F146
:1051A0000B031B7803F00103002B0CD1019B9B69BF
:1051B000049819464FF00B02FFF73AFC0346002B08
:1051C00013D000E000BF01984FF00001FFF710FE80
:1051D00003468DF817309DF81730002B3FF44AAF87
:1051E00004E000BF02E000BF00E000BF9DF8173000
:1051F000184607B000BD00BFAFF30080AFF30080DA
:1052000000B58BB001900091009B1B68049303E0F4
:10521000049B03F101030493049B1B782F2BF7D00D
:10522000049B1B785C2BF3D0019BDB6903934FF04D
:1052300000030593059B0693049A069B13441B7871
:10524000ADF82430069B03F101030693BDF824302A
:105250001F2B44D9BDF824302F2B40D0BDF824306B
:105260005C2B3CD0059BFE2B02D94FF00603C7E117
:10527000BDF8243003F0FF03ADF82430BDF824302E
:1052800018464FF0010100F0ABFE0346ADF82430A4
:10529000BDF82430002B02D14FF00603B0E1BDF879
:1052A00024307F2B0ED8BDF8243046F24050C0F693
:1052B00000001946FFF7F4FB0346002B02D04FF025
:1052C00006039DE1059B4FEA4303039A1344BDF88F
:1052D00024201A80059B03F101030593ACE7049A8F
:1052E000069B1A44009B1A60BDF824301F2B02D87D
:1052F0004FF0040301E04FF000038DF8263015E075
:10530000059B03F1FF334FEA4303039A13441B88C1
:10531000ADF82430BDF82430202B03D0BDF8243064
:105320002E2B07D1059B03F1FF330593059B002B23
:10533000E6D100E000BF059B002B02D14FF0060331
:105340005EE1059B4FEA4303039A13444FF00002CA
:105350001A80019B9B6918464FF020014FF00B0209
:10536000FFF746FB4FF00003069303E0069B03F1B3
:1053700001030693069B4FEA4303039A13441B88D9
:10538000202BF3D0069B4FEA4303039A13441B8858
:105390002E2BEBD0069B002B0AD09DF8263043F035
:1053A00003038DF8263003E0059B03F1FF330593DB
:1053B000059B002B09D0059B03F1FF334FEA430304
:1053C000039A13441B882E2BEED14FF00003089351
:1053D0004FF000038DF827304FF008030793069B2A
:1053E0004FEA4303039A13441B88ADF82430069B0D
:1053F00003F101030693BDF82430002B00F0B180C7
:10540000BDF82430202B07D0BDF824302E2B0AD134
:10541000069A059B9A4206D09DF8263043F0030376
:105420008DF826309CE0089A079B9A4203D2069A90
:10543000059B9A4226D1079B0B2B06D19DF826305F
:1054400043F003038DF826308EE0069A059B9A42BE
:1054500005D09DF8263043F003038DF82630069AD8
:10546000059B9A427FD8059B06934FF0080308934B
:105470004FF00B0307939DF827304FEA83038DF815
:1054800027306DE0BDF824307F2B1ED9BDF82430C5
:1054900018464FF0000100F0A3FD0346ADF824309C
:1054A000BDF82430002B0AD0BDF82430A3F18002CF
:1054B00046F2D073C0F600039B5CADF824309DF833
:1054C000263043F002038DF82630BDF82430002B3F
:1054D0000BD0BDF8243046F24C50C0F600001946FF
:1054E000FFF7DEFA0346002B0AD04FF05F03ADF85A
:1054F00024309DF8263043F003038DF8263022E057
:10550000BDF82430402B0AD9BDF824305A2B06D8D8
:105510009DF8273043F002038DF8273013E0BDF8E3
:105520002430602B0FD9BDF824307A2B0BD89DF88E
:10553000273043F001038DF82730BDF82430A3F164
:105540002003ADF82430019B9A69089B1344BDF8F1
:105550002420D2B21A70089B03F1010308933EE79E
:105560003DE700BF00E000BF019B9B691B78E52B76
:1055700004D1019B9B694FF005021A70079B082B11
:1055800005D19DF827304FEA83038DF827309DF829
:10559000273003F00C030C2B05D09DF8273003F0C7
:1055A0000303032B05D19DF8263043F002038DF849
:1055B00026309DF8263003F00203002B17D19DF80A
:1055C000273003F00303012B05D19DF8263043F06B
:1055D00010038DF826309DF8273003F00C03042BC0
:1055E00005D19DF8263043F008038DF82630019B45
:1055F0009B6903F10B039DF826201A704FF00003FE
:1056000018460BB000BD00BFAFF30080AFF30080C1
:1056100000B585B001900091009B1B782F2B03D023
:10562000009B1B785C2B03D1009B03F101030093CB
:10563000019B4FF000029A60009B1B781F2B0CD837
:1056400001984FF00001FFF73BFB03468DF80F3048
:10565000019B4FF000025A6157E06B4601981946D2
:10566000FFF7CEFD03468DF80F309DF80F30002B6D
:1056700044D10198FFF7E4FC03468DF80F30019BFD
:105680009B6903F10B031B788DF80E309DF80F30EA
:10569000002B0ED09DF80F30042B31D19DF80E3029
:1056A00003F00403002B2DD14FF005038DF80F30CC
:1056B0002BE09DF80E3003F00403002B24D1019B56
:1056C0005B690293029B03F10B031B7803F0100349
:1056D000002B04D14FF005038DF80F3015E0029B2D
:1056E00003F114031B884FEA0342029B03F11A03E0
:1056F0001B8842EA0302019B9A60AEE700BF04E008
:1057000000BF02E000BF00E000BF9DF80F30184668
:1057100005B000BDAFF30080AFF30080AFF30080B1
:1057200000B583B001900091019B5A78019B03F171
:10573000240310461946009A4FF00103FFF7C8F8FA
:105740000346002B02D04FF0030330E0019B03F12E
:10575000240303F5FF731A884AF655239A4202D0B0
:105760004FF0020323E0019B03F1240303F136030E
:105770001B6823F07F4244F24613C0F254039A425E
:1057800002D14FF0000312E0019B03F1240303F167
:1057900052031B6823F07F4244F24613C0F25403C5
:1057A0009A4202D14FF0000301E04FF00103184686
:1057B00003B000BDAFF30080AFF30080AFF3008013
:1057C00000B593B00390029113468DF80730039B08
:1057D0001B680B930B9B1B78A3F130031093109B5A
:1057E000092B0DD80B9B03F101031B783A2B07D132
:1057F0000B9B03F102030B93039B0B9A1A6002E0CD
:105800004FF000031093109B002B02D04FF00B03BE
:10581000C0E140F63433C2F20003109A53F822304C
:105820000A93029B0A9A1A600A9B002B02D14FF03E
:105830000C03AFE10A9B1B78002B10D00A9B5B780E
:105840001846FFF70DF803468DF827309DF82730EE
:1058500003F00103002B02D14FF000039AE10A9BF1
:105860004FF000021A70109BDAB20A9B5A700A9B22
:105870005B781846FEF7BCFF03468DF827309DF88D
:10588000273003F00103DBB2002B02D04FF00303FB
:1058900080E14FF000030F930A980F99FFF740FF44
:1058A00003468DF847309DF84730012B2AD14FF041
:1058B00000038DF846309DF84630002B05D09DF84A
:1058C000463003F1FF338DF846300A9B03F1240282
:1058D0009DF846304FEA031303F5DF731344089332
:1058E000089B03F104031B78002B0BD0089B03F1EA
:1058F00008031B680F930A980F99FFF711FF0346DF
:105900008DF847309DF84730032B02D14FF001034B
:1059100040E19DF84730002B02D04FF00D0339E1F4
:105920000A9B03F1240303F10B031B88B3F5007FEB
:1059300002D04FF00D032DE10A9B03F1240303F184
:1059400016031B880E930E9B002B06D10A9B03F1B6
:10595000240303F124031B680E930A9B0E9A1A6119
:105960000A9B93F834308DF81F300A9B9DF81F2056
:10597000DA709DF81F30012B06D09DF81F30022BE6
:1059800002D04FF00D0305E19DF81F200E9B02FB96
:1059900003F30E930A9B93F831308DF81F300A9B66
:1059A0009DF81F209A709DF81F30002B09D09DF89C
:1059B0001F209DF81F3003F1FF3302EA0303002B81
:1059C00002D04FF00D03E5E00A9B03F1240303F13D
:1059D00011031A880A9B1A810A9B1B8903F00F0383
:1059E0009BB2002B02D04FF00D03D3E00A9B03F1D2
:1059F000240303F113031B880D930D9B002B06D189
:105A00000A9B03F1240303F120031B680D930A9BF7
:105A100003F1240303F10E031B88ADF81C30BDF81D
:105A20001C30002B02D14FF00D03B3E0BDF81C2059
:105A30000E9B1A440A9B1B894FEA13139BB2134413
:105A400006930D9A069B9A4202D24FF00D03A1E0F5
:105A50000D9A069BC3EB02020A9B9B78B2FBF3F301
:105A60000593059B002B02D14FF00D0392E04FF000
:105A700001038DF84730059A40F6F5739A4203D931
:105A80004FF002038DF84730059A4FF6F5739A42AE
:105A900003D94FF003038DF84730059B03F1020251
:105AA0000A9BDA600F9A069B1A440A9BDA61BDF8DA
:105AB0001C200F9B1A440A9B5A619DF84730032B08
:105AC00014D10A9B1B89002B02D04FF00D0361E01B
:105AD0000A9B03F1240303F12C031A680A9B9A61C1
