:020000040800F2
:1000000000280020417E00082940000835400008F3
:100010003D400008454000084D4000080000000039
:100020000000000000000000000000005540000833
:1000300061400008000000006D40000879400008A1
:10004000857E0008857E0008857E0008857E000884
:10005000857E0008857E0008857E0008857E000874
:10006000857E0008857E0008857E0008857E000864
:10007000857E0008857E0008857E0008857E000854
:10008000857E0008857E0008857E00088540000882
:1000900091400008857E0008857E0008857E000866
:1000A000857E0008857E0008857E0008857E000824
:1000B000857E0008857E0008857E0008857E000814
:1000C000857E0008857E0008857E0008857E000804
:1000D000857E0008857E0008857E0008857E0008F4
:1000E000857E0008857E0008857E000800000000EF
:1000F0000000000000000000000000000000000000
:0C01000000000000000000005FF808F1A3
:10010C0040F23813C2F200031A780AB901201870B1
:10011C00704700BF40F23810C2F2000008B5036807
:10012C002BB140F20003C0F2000303B1984708BDA5
:10013C0080B487B000AFF860B9607A60FB687B610F
:10014C00BB683B610BE03B691A787B691A707B6971
:10015C0003F101037B613B6903F101033B617B68A4
:10016C00002B0CBF00230123DBB27A6802F1FF32B3
:10017C007A60002BE7D107F11C07BD4680BC7047A5
:10018C0080B487B000AFF860B9607A60FB687B61BF
:10019C0007E0BB68DAB27B691A707B6903F1010373
:1001AC007B617B68002B0CBF00230123DBB27A68D8
:1001BC0002F1FF327A60002BEBD107F11C07BD4630
:1001CC0080BC704780B489B000AFF860B9607A60C9
:1001DC00FB68FB61BB68BB614FF000037B6100BF38
:1001EC007B68002B0CBF00230123DBB27A6802F181
:1001FC00FF327A60002B16D0FB691B781A46BB695C
:10020C001B78D31A7B617B69002B14BF002301235D
:10021C00DBB2FA6902F10102FA61BA6902F1010278
:10022C00BA61002BDCD17B69184607F12407BD4667
:10023C0080BC704780B483B000AF7860396003E055
:10024C007B6803F101037B607B681B78002B05D076
:10025C007B681B781A463B689A42F1D17B681B7805
:10026C00184607F10C07BD4680BC704780B584B0BA
:10027C0000AF786039607B68DB6AFB60FA683B68CA
:10028C009A4255D07B681B79002B39D07B685A7801
:10029C007B6803F1300310461946FA684FF00103EE
:1002AC0002F086FF0346002B02D04FF0010341E021
:1002BC007B684FF000021A717B681A6A7B68DB69F5
:1002CC00D218FB689A421BD97B68DB78FB7214E06E
:1002DC007B68DB69FA68D318FB607B685A787B68AB
:1002EC0003F1300310461946FA684FF0010302F08F
:1002FC005FFFFB7A03F1FF33FB72FB7A012BE7D82C
:10030C003B68002B14D07B685A787B6803F1300370
:10031C00104619463A684FF0010302F0D7FE034627
:10032C00002B02D04FF0010304E07B683A68DA62DC
:10033C004FF00003184607F11007BD4680BD00BF03
:10034C0080B584B000AF786078684FF00001FFF79B
:10035C008DFF0346FB73FB7B002B40F0D2807B6848
:10036C001B78032B40F0BE807B685B79002B00F080
:10037C00B9807B684FF00002DA627B6803F13003CE
:10038C0018464FF000014FF40072FFF7F9FE7B683E
:10039C0003F50A7303F106034FF055021A707B68DC
:1003AC0003F50A7303F107034FF0AA021A707B6876
:1003BC004FF0520283F830207B6803F131034FF089
:1003CC0052021A707B6803F132034FF061021A700B
:1003DC007B6803F133034FF041021A707B6803F51D
:1003EC0005734FF072021A707B6803F5047303F106
:1003FC0005034FF072021A707B6803F5047303F166
:10040C0006034FF041021A707B6803F5047303F185
:10041C0007034FF061021A707B6803F506737A6864
:10042C001269D2B21A707B6803F5067303F10103EB
:10043C007A68126992B24FEA122292B2D2B21A7050
:10044C007B6803F5067303F102037A6812694FEABD
:10045C001242D2B21A707B6803F5067303F10303E0
:10046C007A6812694FEA1262D2B21A707B6803F58D
:10047C0007737A68D268D2B21A707B6803F5067378
:10048C0003F105037A68D26892B24FEA122292B253
:10049C00D2B21A707B6803F5067303F106037A680F
:1004AC00D2684FEA1242D2B21A707B6803F5067317
:1004BC0003F107037A68D2684FEA1262D2B21A705B
:1004CC007B6859787B6803F130027B685B6908466E
:1004DC0011461A464FF0010302F06AFE7B684FF09A
:1004EC0000025A717B685B7818464FF000014FF0A0
:1004FC00000202F0EBFE0346002B02D04FF001038A
:10050C00FB73FB7B184607F11007BD4680BD00BF8F
:10051C0080B483B000AF786039603B68A3F102030C
:10052C003B607B689B69A3F102023B689A4202D84C
:10053C004FF0000307E07B689B783A6802FB03F2FC
:10054C007B689B6AD318184607F10C07BD4680BC24
:10055C00704700BF80B586B000AF786039603B68EB
:10056C00012B04D97B689A693B689A4202D84FF0F8
:10057C000103BCE07B681B78022B54D0032B79D091
:10058C00012B40F0B2803B687B617B694FEA5303DF
:10059C007A69D3187B617B681A6A7B694FEA5323AB
:1005AC00D31878681946FFF761FE0346002B40F01C
:1005BC0095807B694FEAC3534FEAD3537A68D318BB
:1005CC0093F830303B617B6903F101037B617B68FD
:1005DC001A6A7B694FEA5323D31878681946FFF7D8
:1005EC0045FE0346002B7BD17B694FEAC3534FEA90
:1005FC00D3537A68D31893F830304FEA03233A690F
:10060C0042EA03033B613B6803F00103DBB2002BBE
:10061C0003D03B694FEA131304E03B694FEA0353E1
:10062C004FEA135363E07B681A6A3B684FEA132363
:10063C00D31878681946FFF719FE0346002B51D1E1
:10064C007B6803F130023B684FEA43034FEAC35324
:10065C004FEAD353D318FB60FB6803F101031B78FB
:10066C004FEA03239AB2FB681B7842EA03039BB25E
:10067C009BB23CE07B681A6A3B684FEAD313D318F1
:10068C0078681946FFF7F2FD0346002B2CD17B68E6
:10069C0003F130023B684FEA83034FEAC3534FEA3E
:1006AC00D353D318FB60FB6803F103031B784FEAA9
:1006BC000362FB6803F102031B784FEA03431A43FE
:1006CC00FB6803F101031B784FEA03231A43FB6811
:1006DC001B7842EA030323F0704308E000BF04E0F8
:1006EC0000BF02E000BF00E000BF4FF0FF33184630
:1006FC0007F11807BD4680BD80B588B000AFF86023
:10070C00B9607A60BB68012B04D9FB689A69BB6835
:10071C009A4203D84FF00203FB7718E1FB681B7871
:10072C00022B00F08380032B00F0AA80012B40F0F9
:10073C00FF80BB68BB61BB694FEA5303BA69D3182E
:10074C00BB61FB681A6ABB694FEA5323D318F8687C
:10075C001946FFF78BFD0346FB77FB7F002B40F020
:10076C00EB80FB6803F13002BB694FEAC3534FEADD
:10077C00D353D3187B61BB6803F00103DBB2002BAE
:10078C000FD07B691B78DBB203F00F03DAB27B6806
:10079C00DBB24FEA0313DBB242EA0303DBB2DBB298
:1007AC0001E07B68DBB27A691370BB6903F101036A
:1007BC00BB61FB684FF001021A71FB681A6ABB69D6
:1007CC004FEA5323D318F8681946FFF74FFD034639
:1007DC00FB77FB7F002B40F0B180FB6803F130020C
:1007EC00BB694FEAC3534FEAD353D3187B61BB6841
:1007FC0003F00103DBB2002B04D07B684FEA131328
:10080C00DBB210E07B691B78DBB223F00F03DAB2AA
:10081C007B684FEA1323DBB203F00F03DBB242EA2F
:10082C000303DBB2DBB27A6913708CE0FB681A6AE3
:10083C00BB684FEA1323D318F8681946FFF716FD67
:10084C000346FB77FB7F002B7AD1FB6803F1300268
:10085C00BB684FEA43034FEAC3534FEAD353D31851
:10086C007B617B68DAB27B691A707B6903F10103E7
:10087C007A6892B24FEA122292B2D2B21A7062E045
:10088C00FB681A6ABB684FEAD313D318F868194689
:10089C00FFF7ECFC0346FB77FB7F002B52D1FB6888
:1008AC0003F13002BB684FEA83034FEAC3534FEAAC
:1008BC00D353D3187B617B6903F103031B784FEA95
:1008CC0003627B6903F102031B784FEA03431A436B
:1008DC007B6903F101031B784FEA03231A437B69FD
:1008EC001B7842EA030303F070437A6842EA03037D
:1008FC007B607B68DAB27B691A707B6903F1010358
:10090C007A6892B24FEA122292B2D2B21A707B6912
:10091C0003F102037A684FEA1242D2B21A707B6971
:10092C0003F103037A684FEA1262D2B21A700AE03A
:10093C004FF00203FB7706E000BF04E000BF02E0CB
:10094C0000BF00E000BFFB684FF001021A71FB7F93
:10095C00184607F12007BD4680BD00BF80B584B0A6
:10096C0000AF786039603B68012B04D97B689A69C9
:10097C003B689A4203D84FF00203FB733FE04FF001
:10098C000003FB7332E078683968FFF7E3FDB86069
:10099C00BB68002B30D0BB68012B03D14FF0020396
:1009AC00FB732CE0BB68B3F1FF3F03D14FF00103A5
:1009BC00FB7324E0786839684FF00002FFF79CFE67
:1009CC000346FB73FB7B002B18D17B681B69B3F1CF
:1009DC00FF3F09D07B681B6903F101027B681A6138
:1009EC007B684FF001025A71BB683B607B689A6967
:1009FC003B689A42C7D802E000BF00E000BFFB7B17
:100A0C00184607F11007BD4680BD00BF80B586B003
:100A1C0000AF786039603B68002B0ED17B68DB68D7
:100A2C003B613B69002B04D07B689A693B699A4215
:100A3C0017D84FF001033B6113E078683968FFF772
:100A4C0089FDB860BB68012B02D84FF001036DE043
:100A5C007B689A69BB689A4201D9BB6866E03B68BF
:100A6C003B613B697B6100E000BF7B6903F10103E3
:100A7C007B617B689A697B699A4209D84FF00203C3
:100A8C007B617A693B699A4202D94FF000034DE0D1
:100A9C0078687969FFF75EFDB860BB68002B0BD1F5
:100AAC00786879696FF07042FFF726FE0346FB7396
:100ABC00FB7B002B10D019E0BB68B3F1FF3F02D0D9
:100ACC00BB68012B01D1BB6830E07A693B699A4263
:100ADC00CAD14FF0000329E03B68002B06D07868A0
:100AEC0039687A69FFF708FE0346FB73FB7B002B22
:100AFC0012D17B687A69DA607B681B69B3F1FF3FBE
:100B0C0013D07B681B6903F1FF327B681A617B6829
:100B1C004FF001025A7108E0FB7B012B02D14FF020
:100B2C00FF3301E04FF001037B617B69184607F14D
:100B3C001807BD4680BD00BF80B584B000AF78609B
:100B4C000B467B807B687A88DA807B689B68FB60CD
:100B5C00FB68012B05D07B681B689A69FB689A427D
:100B6C0002D84FF002036DE0FB68002B08D17B68C4
:100B7C001B681B78032B03D17B681B685B6AFB60CB
:100B8C00FB68002B16D17B68FA68DA607B681B68FF
:100B9C001B897A889A4202D34FF0020352E07B6899
:100BAC001B685A6A7B884FEA13139BB2D2187B6876
:100BBC001A6139E07B681B689B784FEA03137B81D1
:100BCC001DE07B681B681846F968FFF7C3FCF860EA
:100BDC00FB68B3F1FF3F02D14FF0010332E0FB6839
:100BEC00012B05D97B681B689A69FB689A4202D86D
:100BFC004FF0020326E07A887B89D31A7B807A88AF
:100C0C007B899A42DDD27B68FA68DA607B681B6864
:100C1C001846F968FFF77CFC02467B884FEA1313F1
:100C2C009BB2D2187B681A617B681B6803F1300297
:100C3C007B8803F00F034FEA4313D2187B685A6189
:100C4C004FF00003184607F11007BD4680BD00BFEA
:100C5C0090B585B000AF786039607B68DB8803F1B4
:100C6C0001033B813B89002B03D07B681B69002B64
:100C7C0002D14FF00403D4E03B8903F00F039BB285
:100C8C00002B40F0BD807B681B6903F101027B687F
:100C9C001A617B68DB68002B09D17B681B681B8998
:100CAC003A899A42C0F0AC804FF00403B9E03B891A
:100CBC004FEA13139BB21A467B681B689B7803F1AF
:100CCC00FF3302EA0303002B40F09A807B681A681A
:100CDC007B68DB6810461946FFF73CFCF860FB6844
:100CEC00012B02D84FF002039BE0FB68B3F1FF3FEE
:100CFC0002D14FF0010394E07B681B689A69FB6892
:100D0C009A4271D83B68002B02D14FF0040388E063
:100D1C007B681A687B68DB6810461946FFF776FE1D
:100D2C00F860FB68002B02D14FF0070379E0FB68F9
:100D3C00012B02D14FF0020373E0FB68B3F1FF3FCC
:100D4C0002D14FF001036CE07B681B6818464FF032
:100D5C000001FFF78BFA0346002B02D04FF0010382
:100D6C005FE07B681B6803F1300318464FF000010D
:100D7C004FF40072FFF704FA7B681C687B681B68F1
:100D8C001846F968FFF7C4FB0346E3624FF0000313
:100D9C00FB721BE07B681B684FF001021A717B68C9
:100DAC001B6818464FF00001FFF760FA0346002B52
:100DBC0002D04FF0010334E07B681B68DA6A02F161
:100DCC000102DA62FB7A03F10103FB727B681B6898
:100DDC009B78FA7A9A42DDD37B681B687A68126832
:100DEC00D16AFA7A8A1ADA627B68FA68DA607B6806
:100DFC001B681846F968FFF78BFB02467B681A6183
:100E0C007B683A89DA807B681B6803F130023B8986
:100E1C0003F00F034FEA4313D2187B685A614FF06B
:100E2C000003184607F11407BD4690BD80B586B087
:100E3C0000AF786078684FF00001FFF77DFE034645
:100E4C00FB75FB7D002B01D0FB7D3BE07B681A68BA
:100E5C007B681B6910461946FFF708FA0346FB75B9
:100E6C00FB7D002B2AD17B685B693B613B691B785E
:100E7C00FB73FB7B002B03D14FF00403FB7520E0CD
:100E8C003B6903F10B031B7803F00803002B0AD119
:100E9C007B689B69386919464FF00B02FFF792F992
:100EAC000346002B0CD078684FF00001FFF7D0FE02
:100EBC000346FB75FB7D002BC8D002E000BF00E0B1
:100ECC0000BFFB7D184607F11807BD4680BD00BF6B
:100EDC0080B584B000AF786078684FF00001FFF700
:100EEC002BFE0346FB73FB7B002B22D17B681A681D
:100EFC007B681B6910461946FFF7B8F90346FB736C
:100F0C00FB7B002B14D17B685B691B78BB73BB7BB1
:100F1C00E52B0ED0BB7B002B0BD078684FF001017A
:100F2C00FFF796FE0346FB73FB7B002BDED000E045
:100F3C0000BFFB7B002B23D17B681A687B681B6985
:100F4C0010461946FFF792F90346FB73FB7B002B07
:100F5C0016D17B685B69BB60B8684FF000014FF03D
:100F6C002002FFF70DF97B689B69B86819464FF0B2
:100F7C000B02FFF7DDF87B681B684FF001021A715A
:100F8C00FB7B184607F11007BD4680BD80B588B0C5
:100F9C0000AF786039603B681B68FB6003E0FB685E
:100FAC0003F10103FB60FB681B782F2BF7D0FB6868
:100FBC001B785C2BF3D07B689B69BB60B8684FF0E7
:100FCC0020014FF00B02FFF7DBF84FF00003FB772B
:100FDC004FF000033B613B697B614FF00803BB6141
:100FEC00FA687B69D3181B78BB777B6903F1010323
:100FFC007B61BB7F202B5DD9BB7F2F2B5AD0BB7F56
:10100C005C2B57D0BB7F2E2B03D03A69BB699A421D
:10101C0014D3BB69082B02D1BB7F2E2B02D04FF00F
:10102C00060383E04FF008033B614FF00B03BB61F9
:10103C00FB7F4FEA8303FB7700BFD1E7BB7F5BB23B
:10104C00002B09DAFB7F43F00303FB77BB7FA3F193
:10105C008003394AD35CBB77BB7F38481946FFF70E
:10106C00E9F80346002B02D04FF006035EE0BB7F8D
:10107C00402B07D9BB7F5A2B04D8FB7F43F00203CC
:10108C00FB770DE0BB7F602B0AD9BB7F7A2B07D88F
:10109C00FB7F43F00103FB77BB7FA3F12003BB77FE
:1010AC00BA683B69D318BA7F1A703B6903F1010324
:1010BC003B6195E7FA687B69D2183B681A60BB7F85
:1010CC00202B02D84FF0040301E04FF00003BB7754
:1010DC003B69002B02D14FF0060327E0BB681B785D
:1010EC00E52B03D1BB684FF005021A70BB69082BC6
:1010FC0003D1FB7F4FEA8303FB77FB7F03F00303F2
:10110C00012B03D1BB7F43F01003BB77FB7F03F0B4
:10111C000C03042B03D1BB7F43F00803BB77BB68E4
:10112C0003F10B03BA7F1A704FF00003184607F156
:10113C002007BD4680BD00BF6C7F0008887E00087C
:10114C0080B584B000AF786039603B681B782F2B7A
:10115C0003D03B681B785C2B03D13B6803F1010384
:10116C003B607B684FF000029A603B681B781F2B3A
:10117C000BD878684FF00001FFF7DEFC0346FB73D9
:10118C007B684FF000025A6162E03B467868194672
:10119C00FFF7FCFE0346FB73FB7B002B51D17868F9
:1011AC00FFF744FE0346FB737B689B6903F10B035B
:1011BC001B78BB73FB7B002B0BD0FB7B042B42D12E
:1011CC00BB7B03F00403002B3FD14FF00503FB73F3
:1011DC003EE0BB7B03F00403002B38D17B685B69DA
:1011EC00BB60BB6803F10B031B7803F01003002BEF
:1011FC0003D14FF00503FB732AE0BB6803F1150321
:10120C001B784FEA03239AB2BB6803F114031B78D3
:10121C0042EA03039BB29BB24FEA0342BB6803F161
:10122C001B031B784FEA032399B2BB6803F11A0323
:10123C001B7841EA03039BB29BB21A437B689A600A
:10124C00A3E700BF04E000BF02E000BF00E000BF66
:10125C00FB7B184607F11007BD4680BD80B582B0F8
:10126C0000AF786039607B685A787B6803F1300393
:10127C00104619463A684FF0010301F027FF034668
:10128C00002B02D04FF003035EE07B6803F50A737A
:10129C0003F107031B784FEA03239AB27B6803F52B
:1012AC000A7303F106031B7842EA03039BB21AB2DA
:1012BC00284B9A4202D04FF0020345E07B6803F1C1
:1012CC0069031B784FEA03627B6803F168031B78A0
:1012DC004FEA03431A437B6803F167031B784FEA19
:1012EC0003231A437B6803F166031B7842EA03036A
:1012FC0023F07F42184B9A4202D14FF0000323E0B7
:10130C007B6803F185031B784FEA03627B6803F16A
:10131C0084031B784FEA03431A437B6803F183036E
:10132C001B784FEA03231A437B6803F182031B7873
:10133C0042EA030323F07F42074B9A4202D14FF05B
:10134C00000301E04FF00103184607F10807BD4602
:10135C0080BD00BF55AAFFFF4641540080B592B036
:10136C0000AFF860B9601346FB71FB681B68FB6249
:10137C00FB6A1B78A3F130033B643B6C092B0DD843
:10138C00FB6A03F101031B783A2B07D1FB6A03F1CB
:10139C000203FB62FB68FA6A1A6002E04FF000037A
:1013AC003B643B6C002B02D04FF00B0308E39E4BCD
:1013BC003A6C53F82230BB62BB68BA6A1A60BB6ADB
:1013CC00002B02D14FF00C03FAE2BB6A1B78002B06
:1013DC001CD0BB6A5B78184601F062FE034687F8A6
:1013EC00273097F8273003F00103002B0ED1FB793F
:1013FC00002B08D097F8273003F00403002B02D001
:10140C004FF00A03DCE24FF00003D9E2BB6A4FF065
:10141C0000021A703B6CDAB2BB6A5A70BB6A5B781A
:10142C00184601F049FD034687F8273097F8273016
:10143C0003F00103DBB2002B02D04FF00303BFE239
:10144C00FB79002B08D097F8273003F00403002B0E
:10145C0002D04FF00A03B3E24FF00003FB63B86A0B
:10146C00F96BFFF7FBFE034687F8473097F84730D8
:10147C00012B40D14FF0000387F8463097F84630E7
:10148C00002B05D097F8463003F1FF3387F8463030
:10149C00BB6A03F1300297F846304FEA031303F5A9
:1014AC00DF73D3183B623B6A03F104031B78002BF8
:1014BC0021D03B6A03F10B031B784FEA03623B6AB2
:1014CC0003F10A031B784FEA03431A433B6A03F107
:1014DC0009031B784FEA03231A433B6A03F1080301
:1014EC001B7842EA0303FB63B86AF96BFFF7B6FE9D
:1014FC00034687F8473097F84730032B02D14FF05B
:10150C0001035DE297F84730002B02D04FF00D033A
:10151C0056E2BB6A03F13C031B784FEA03239AB2F1
:10152C00BB6A03F13B031B7842EA03039BB21BB279
:10153C00B3F5007F02D04FF00D0341E2BB6A03F11B
:10154C0047031B784FEA03239AB2BB6A03F14603A5
:10155C001B7842EA03039BB29BB2BB63BB6B002BB1
:10156C001AD1BB6A03F157031B784FEA0362BB6ABB
:10157C0003F156031B784FEA03431A43BB6A03F18A
:10158C0055031B784FEA03231A43BB6A03F1540338
:10159C001B7842EA0303BB63BB6ABA6BDA61BB6AB2
:1015AC0093F84030FB77BB6AFA7FDA70FB7F012B34
:1015BC0005D0FB7F022B02D04FF00D0300E2FA7F27
:1015CC00BB6B02FB03F3BB63BB6A93F83D30FB7749
:1015DC00BB6AFA7F9A70FB7F002B07D0FA7FFB7FE8
:1015EC0003F1FF3302EA0303002B02D04FF00D038B
:1015FC00E6E1BB6A03F142031B784FEA03239AB27C
:10160C00BB6A03F141031B7842EA03039BB29AB213
:10161C00BB6A1A81BB6A1B8903F00F039BB2002BB8
:10162C0004D04FF00D03CBE13C010020BB6A03F169
:10163C0044031B784FEA03239AB2BB6A03F14303BA
:10164C001B7842EA03039BB29BB27B637B6B002B40
:10165C001AD1BB6A03F153031B784FEA0362BB6ACE
:10166C0003F152031B784FEA03431A43BB6A03F19D
:10167C0051031B784FEA03231A43BB6A03F150034F
:10168C001B7842EA03037B63BB6A03F13F031B78BD
:10169C004FEA03239AB2BB6A03F13E031B7842EA7A
:1016AC0003039BB2BB83BB8B002B02D14FF00D030A
:1016BC0086E1BA8BBB6BD218BB6A1B894FEA13133A
:1016CC009BB2D318BB617A6BBB699A4202D24FF0C2
:1016DC000D0375E17A6BBB69D21ABB6A9B78B2FBBE
:1016EC00F3F37B617B69002B02D14FF00D0367E1B3
:1016FC004FF0010387F847307A6940F6F5739A4248
:10170C0003D94FF0020387F847307A694FF6F57327
:10171C009A4203D94FF0030387F847307B6903F1F2
:10172C000202BB6A9A61FA6BBB69D218BB6A9A62F5
:10173C00BA8BFB6BD218BB6A1A6297F84730032B33
:10174C0027D1BB6A1B89002B02D04FF00D0337E168
:10175C00BB6A03F15F031B784FEA0362BB6A03F1B8
:10176C005E031B784FEA03431A43BB6A03F15D0324
:10177C001B784FEA03231A43BB6A03F15C031B7803
:10178C001A43BB6A5A62BB6A9B694FEA83033B6389
:10179C0023E0BB6A1B89002B02D14FF00D030FE134
:1017AC00BB6A1A6ABB6BD218BB6A5A6297F847308D
:1017BC00022B04D1BB6A9B694FEA43030CE0BB6A62
:1017CC009A6913464FEA43039B184FEA5302BB6ACC
:1017DC009B6903F00103D3183B63BB6ADA693B6B6B
:1017EC0003F5FE7303F103034FEA53239A4202D22B
:1017FC004FF00D03E4E0BB6A4FF0FF321A61BB6A95
:10180C004FF00002DA6097F84730032B40F0BF80AE
:10181C00BB6A4FF000025A71BB6A03F161031B787B
:10182C004FEA03239AB2BB6A03F160031B7842EAC6
:10183C0003039BB29BB21A46FB6BD218BB6A5A616C
:10184C00BB6A5978BB6A03F13002BB6A5B69084614
:10185C0011461A464FF0010301F038FC0346002BE9
:10186C0040F09580BB6A03F50A7303F107031B78FC
:10187C004FEA03239AB2BB6A03F50A7303F106031A
:10188C001B7842EA03039BB21AB2504B9A427ED1A8
:10189C00BB6A03F133031B784FEA0362BB6A03F1A3
:1018AC0032031B784FEA03431A43BB6A03F131033B
:1018BC001B784FEA03231A43BB6A93F830301A4360
:1018CC00434B9A4263D1BB6A03F5047303F10703DC
:1018DC001B784FEA0362BB6A03F5047303F106033A
:1018EC001B784FEA03431A43BB6A03F5047303F1F5
:1018FC0005031B784FEA03231A43BB6A03F50573F0
:10190C001B781A43334B9A4241D1BB6A03F50673D9
:10191C0003F107031B784FEA0362BB6A03F50673F6
:10192C0003F106031B784FEA03431A43BB6A03F522
:10193C00067303F105031B784FEA03231A43BB6AB2
:10194C0003F507731B781A43BB6ADA60BB6A03F5AD
:10195C00067303F103031B784FEA0362BB6A03F5BA
:10196C00067303F102031B784FEA03431A43BB6A65
:10197C0003F5067303F101031B784FEA03231A43A3
:10198C00BB6A03F506731B781A43BB6A1A61BB6A00
:10199C0097F847201A70104B1B8803F101039AB279
:1019AC000D4B1A800C4B1A88BB6ADA80BB6A4FF05D
:1019BC000002DA62BB6A4FF000021A714FF00003AA
:1019CC00184607F14807BD4680BD00BF55AAFFFF6A
:1019DC0052526141727241614001002080B582B067
:1019EC0000AF78600B467B807B68002B08D07B684F
:1019FC001B78002B04D07B68DB887A889A4202D053
:101A0C004FF009030FE07B685B78184601F048FB48
:101A1C00034603F00103DBB2002B02D04FF00303AB
:101A2C0001E04FF00003184607F10807BD4680BDE2
:101A3C0080B485B000AF03463960FB71FB79002B95
:101A4C0002D04FF00B0319E0FA790F4B53F8223008
:101A5C00FB60FB68002B03D0FB684FF000021A7090
:101A6C003B68002B03D03B684FF000021A70FA79E8
:101A7C00054B396843F822104FF00003184607F164
:101A8C001407BD4680BC70473C01002080B592B065
:101A9C0000AFF860B9601346FB71FB684FF00002B1
:101AAC001A60FB7903F01F03FB71FB7923F0010330
:101ABC00DBB207F1080107F11C02084611461A4671
:101ACC00FFF74CFC034687F8473007F110037B63A4
:101ADC0097F84730002B09D1BB6807F11C02104660
:101AEC001946FFF72DFB034687F847303B6B3B64E9
:101AFC0097F84730002B06D13B6C002B03D14FF0ED
:101B0C00060387F84730FB7903F01C03002B00F029
:101B1C00D88097F84730002B12D097F84730042B19
:101B2C0007D107F11C031846FFF7D2F9034687F8D3
:101B3C004730FB7943F00803FB713B6B3B6415E0CA
:101B4C003B6C03F10B031B7803F01103002B04D047
:101B5C004FF0070387F8473008E0FB7903F00403E4
:101B6C00002B03D04FF0080387F8473097F8473025
:101B7C00002B40F0C980FB7903F00803002B00F028
:101B8C00C38002F039F8F8633B6C03F10E03FA6B77
:101B9C00D2B21A703B6C03F10F03FA6B92B24FEA9C
:101BAC00122292B2D2B21A703B6C03F11003FA6B90
:101BBC004FEA1242D2B21A703B6C03F11103FA6B6A
:101BCC004FEA1262D2B21A703B6C03F10B034FF066
:101BDC0000021A703B6C03F11C034FF000021A70E8
:101BEC003B6C03F11D034FF000021A703B6C03F1C8
:101BFC001E034FF000021A703B6C03F11F034FF0F1
:101C0C0000021A703B6C03F115031B784FEA032397
:101C1C009AB23B6C03F114031B7842EA03039BB2A8
:101C2C009BB24FEA03423B6C03F11B031B784FEA58
:101C3C00032399B23B6C03F11A031B7841EA0303AB
:101C4C009BB29BB242EA0303BB633B6C03F11A03E6
:101C5C004FF000021A703B6C03F11B034FF00002B3
:101C6C001A703B6C03F114034FF000021A703B6CBA
:101C7C0003F115034FF000021A70FB694FF00102DB
:101C8C001A71BB6B002B3FD0FB69DB6AFB63FB69F2
:101C9C001846B96BFEF762FE034687F8473097F893
:101CAC004730002B30D1FB69BA6B02F1FF32DA609E
:101CBC00FB691846F96BFEF7D9FA034687F84730EB
:101CCC0022E097F84730002B1ED13B6C03F10B033D
:101CDC001B7803F01003002B04D04FF0040387F89B
:101CEC00473011E0FB7903F00203002B0CD03B6C66
:101CFC0003F10B031B7803F00103DBB2002B03D0C1
:101D0C004FF0070387F8473097F84730002B0FD177
:101D1C00FB7903F00803002B03D0FB7943F020037D
:101D2C00FB71FB69DA6AFB68DA61FB683A6C1A6270
:101D3C0097F84730002B4FD1FB68FA799A713B6CBE
:101D4C0003F115031B784FEA03239AB23B6C03F1A2
:101D5C0014031B7842EA03039BB29BB24FEA034283
:101D6C003B6C03F11B031B784FEA032399B23B6CCA
:101D7C0003F11A031B7841EA03039BB29BB21A438B
:101D8C00FB681A613B6C03F11F031B784FEA03627B
:101D9C003B6C03F11E031B784FEA03431A433B6C65
:101DAC0003F11D031B784FEA03231A433B6C03F129
:101DBC001C031B781A43FB68DA60FB684FF00002C7
:101DCC009A60FB684FF000029A61FA69FB681A602E
:101DDC00FB69DA88FB689A8097F84730184607F158
:101DEC004807BD4680BD00BF80B58CB000AFF86021
:101DFC00B9607A603B60BB683B623B684FF00002A5
:101E0C001A60FB681A68FB689B8810461946FFF736
:101E1C00E5FD0346FB77FB7F002B01D0FB7F55E1F3
:101E2C00FB689B79DBB25BB2002B02DA4FF002034A
:101E3C004CE1FB689B7903F00103002B02D14FF0BE
:101E4C00070343E1FB68DA68FB689B68D31ABB6144
:101E5C007A68BB699A4240F23381BB697B602FE19F
:101E6C00FB689B684FEAC3534FEAD353002B40F0F7
:101E7C00F580FB689B684FEA5323DAB2FB681B685A
:101E8C009B7803F1FF33DBB202EA0303FB75FB7DA6
:101E9C00002B2ED1FB689B68002B03D1FB681B69C0
:101EAC00FB6208E0FB681A68FB685B691046194620
:101EBC00FEF750FBF862FB6A012B09D8FB689B7993
:101ECC0063F07F03DAB2FB689A714FF00203FDE016
:101EDC00FB6AB3F1FF3F09D1FB689B7963F07F0389
:101EEC00DAB2FB689A714FF00103EFE0FB68FA6A13
:101EFC005A61FB681A68FB685B6910461946FEF765
:101F0C0007FB38613B69002B09D1FB689B7963F0B7
:101F1C007F03DAB2FB689A714FF00203D6E0FB7DC7
:101F2C003A69D3183B617B684FEA53237B627B6A27
:101F3C00002B48D0FA7D7B6AD218FB681B689B7813
:101F4C009A4206D9FB681B689B781A46FB7DD31A0C
:101F5C007B62FB681B685A787B6ADBB21046396A75
:101F6C003A6901F0B3F80346002B09D0FB689B7962
:101F7C0063F07F03DAB2FB689A714FF00103A5E0BE
:101F8C00FB689B7903F04003002B17D0FB689A6920
:101F9C003B69D21A7B6A9A4210D2FB689A693B69F8
:101FAC00D31A4FEA43233A6AD218FB6803F124038D
:101FBC00104619464FF40072FEF7BAF87B6A4FEAE6
:101FCC004323BB6268E0FB689A693B699A4242D042
:101FDC00FB689B7903F04003002B22D0FB681B6845
:101FEC005978FB6803F12402FB689B69084611468B
:101FFC001A464FF0010301F0DBF80346002B09D021
:10200C00FB689B7963F07F03DAB2FB689A714FF03F
:10201C0001035BE0FB689B7923F04003DAB2FB68B9
:10202C009A71FB681B685A78FB6803F1240310460D
:10203C0019463A694FF0010301F048F80346002BAA
:10204C0009D0FB689B7963F07F03DAB2FB689A7165
:10205C004FF001033AE0FB683A699A61FB689B68B0
:10206C004FEAC3534FEAD353C3F50073BB62BA6A4A
:10207C007B689A4201D97B68BB62FB6803F124023E
:10208C00FB689B684FEAC3534FEAD353D318386AA3
:10209C001946BA6AFEF74CF83A6ABB6AD3183B6227
:1020AC00FB689A68BB6AD218FB689A603B681A682E
:1020BC00BB6AD2183B681A607A68BB6AD31A7B6019
:1020CC007B68002B7FF4CCAE4FF00003184607F171
:1020DC003007BD4680BD00BF80B58AB000AFF86048
:1020EC00B9607A603B60BB68BB613B684FF0000233
:1020FC001A60FB681A68FB689B8810461946FFF744
:10210C006DFC0346FB75FB7D002B01D0FB7D87E14D
:10211C00FB689B79DBB25BB2002B02DA4FF0020357
:10212C007EE1FB689B7903F00203002B02D14FF098
:10213C00070375E1FB68DA687B68D218FB68DB681B
:10214C009A4280F054814FF000037B604FE1FB68B2
:10215C009B684FEAC3534FEAD353002B40F00E81D8
:10216C00FB689B684FEA5323DAB2FB681B689B78C9
:10217C0003F1FF33DBB202EA0303BB75BB7D002B1B
:10218C0040D1FB689B68002B11D1FB681B697B62FB
:10219C007B6A002B14D1FB681B6818464FF00001BA
:1021AC00FEF734FC7862FB687A6A1A6108E0FB6817
:1021BC001A68FB685B6910461946FEF727FC7862C3
:1021CC007B6A002B00F018817B6A012B09D1FB681C
:1021DC009B7963F07F03DAB2FB689A714FF00203CC
:1021EC001EE17B6AB3F1FF3F09D1FB689B7963F079
:1021FC007F03DAB2FB689A714FF0010310E1FB68C0
:10220C007A6A5A61FB689B7903F04003002B22D059
:10221C00FB681B685978FB6803F12402FB689B6917
:10222C00084611461A464FF0010300F0C1FF034661
:10223C00002B09D0FB689B7963F07F03DAB2FB6853
:10224C009A714FF00103EBE0FB689B7923F040039C
:10225C00DAB2FB689A71FB681A68FB685B69104616
:10226C001946FEF755F938613B69002B09D1FB681B
:10227C009B7963F07F03DAB2FB689A714FF002032B
:10228C00CEE0BB7D3A69D3183B617B684FEA5323A0
:10229C00FB61FB69002B49D0BA7DFB69D218FB6846
:1022AC001B689B789A4206D9FB681B689B781A4678
:1022BC00BB7DD31AFB61FB681B685A78FB69DBB2E8
:1022CC001046B9693A6900F073FF0346002B09D038
:1022DC00FB689B7963F07F03DAB2FB689A714FF06D
:1022EC0001039DE0FB689A693B69D21AFB699A422B
:1022FC0017D2FB6803F12402FB6899693B69CB1A7E
:10230C004FEA4323B969CB18104619464FF40072B3
:10231C00FDF70EFFFB689B7923F04003DAB2FB68F4
:10232C009A71FB694FEA43233B624CE0FB689A6964
:10233C003B699A421FD0FB689A68FB68DB689A423B
:10234C0019D2FB681B685A78FB6803F1240310460A
:10235C0019463A694FF0010300F0B8FE0346002B12
:10236C0009D0FB689B7963F07F03DAB2FB689A7142
:10237C004FF0010354E0FB683A699A61FB689B6873
:10238C004FEAC3534FEAD353C3F500733B623A6A27
:10239C007B689A4201D97B683B62FB6803F124029B
:1023AC00FB689B684FEAC3534FEAD353D3181846C4
:1023BC00B9693A6AFDF7BCFEFB689B7943F04003B0
:1023CC00DAB2FB689A71BA693B6AD318BB61FB68D5
:1023DC009A683B6AD218FB689A603B681A683B6A39
:1023EC00D2183B681A607A683B6AD31A7B607B68A8
:1023FC00002B7FF4ACAE00E000BFFB689A68FB6872
:10240C00DB689A4203D9FB689A68FB68DA60FB6860
:10241C009B7943F02003DAB2FB689A714FF000030A
:10242C00184607F12807BD4680BD00BF80B586B0B1
:10243C0000AF78607B681A687B689B8810461946E9
:10244C00FFF7CCFA0346FB75FB7D002B40F0C780F1
:10245C007B689B7903F02003002B00F0C0807B6825
:10246C009B7903F04003002B1BD07B681B685978C9
:10247C007B6803F124027B689B69084611461A4667
:10248C004FF0010300F094FE0346002B02D04FF0F6
:10249C000103A5E07B689B7923F04003DAB27B68EB
:1024AC009A717B681A687B68DB6910461946FDF7E0
:1024BC00DDFE0346FB75FB7D002B40F090807B68B6
:1024CC001B6A3B613B6903F10B033A6902F10B0296
:1024DC00127842F02002D2B21A703B6903F11C034D
:1024EC007A68D268D2B21A703B6903F11D037A681C
:1024FC00D26892B24FEA122292B2D2B21A703B69EF
:10250C0003F11E037A68D2684FEA1242D2B21A70F3
:10251C003B6903F11F037A68D2684FEA1262D2B2A8
:10252C001A703B6903F11A037A681269D2B21A70F5
:10253C003B6903F11B037A68126992B24FEA1222CB
:10254C0092B2D2B21A703B6903F114037A68126921
:10255C004FEA1242D2B21A703B6903F115037A6842
:10256C0012694FEA124292B24FEA122292B2D2B2DE
:10257C001A7001F041FBF8603B6903F11603FA682D
:10258C00D2B21A703B6903F11703FA6892B24FEAA0
:10259C00122292B2D2B21A703B6903F11803FA6894
:1025AC004FEA1242D2B21A703B6903F11903FA686E
:1025BC004FEA1262D2B21A707B689B7923F0200327
:1025CC00DAB27B689A717B681B684FF001021A7152
:1025DC007B681B681846FDF7B3FE0346FB75FB7D55
:1025EC00184607F11807BD4680BD00BF80B584B002
:1025FC0000AF78607868FFF719FF0346FB73FB7B2D
:10260C00002B03D17B684FF000021A60FB7B18464D
:10261C0007F11007BD4680BD80B588B000AF78606B
:10262C0039607B681A687B689B8810461946FFF7EF
:10263C00D5F90346FB75FB7D002B01D0FB7D57E1E3
:10264C007B689B79DBB25BB2002B02DA4FF00203A2
:10265C004EE17B68DA683B689A4208D27B689B79CA
:10266C0003F00203002B02D17B68DB683B607B68C4
:10267C009B683B614FF00003BB617B68BA699A6051
:10268C003B68002B00F0CF807B681B689B784FEA7F
:10269C004323FB603B69002B1FD03B6803F1FF32E7
:1026AC00FB68B2FBF3F23B6903F1FF31FB68B1FB52
:1026BC00F3F39A4211D33B6903F1FF32FB68C3F188
:1026CC0000031A407B689A607B689B683A68D31A4F
:1026DC003B607B685B69FB612EE07B681B69FB617F
:1026EC00FB69002B25D17B681B6818464FF0000155
:1026FC00FEF78CF9F861FB69012B09D17B689B799A
:10270C0063F07F03DAB27B689A714FF00203EFE05B
:10271C00FB69B3F1FF3F09D17B689B7963F07F03C1
:10272C00DAB27B689A714FF00103E1E07B68FA69D9
:10273C001A617B68FA695A61FB69002B73D047E018
:10274C007B689B7903F00203002B0CD07B681B6821
:10275C001846F969FEF75AF9F861FB69002B09D1A3
:10276C00FB683B6038E07B681B681846F969FDF72D
:10277C00F1FEF861FB69B3F1FF3F09D17B689B79EE
:10278C0063F07F03DAB27B689A714FF00103AFE01C
:10279C00FB69012B05D97B681B689A69FB699A4216
:1027AC0009D87B689B7963F07F03DAB27B689A71F6
:1027BC004FF002039CE07B68FA695A617B689A6867
:1027CC00FB68D2187B689A603A68FB68D31A3B6046
:1027DC003A68FB689A42B3D87B689A683B68D2180F
:1027EC007B689A603B684FEAC3534FEAD353002B84
:1027FC0019D07B681B681846F969FDF789FEB8612A
:10280C00BB69002B09D17B689B7963F07F03DAB23B
:10281C007B689A714FF002036AE03B684FEA5323DE
:10282C00BA69D318BB617B689B684FEAC3534FEA04
:10283C00D353002B4AD07B689A69BB699A4245D026
:10284C007B689B7903F04003002B22D07B681B68CC
:10285C0059787B6803F124027B689B690846114612
:10286C001A464FF0010300F0A3FC0346002B09D0DD
:10287C007B689B7963F07F03DAB27B689A714FF0C7
:10288C00010335E07B689B7923F04003DAB27B6867
:10289C009A717B681B685A787B6803F12403104695
:1028AC001946BA694FF0010300F010FC0346002BE7
:1028BC0009D07B689B7963F07F03DAB27B689A71ED
:1028CC004FF0010314E07B68BA699A617B689A68DF
:1028DC007B68DB689A420AD97B689A687B68DA6005
:1028EC007B689B7943F02003DAB27B689A71FB7D9D
:1028FC00184607F12007BD4680BD00BF80B586B0E5
:10290C0000AF03463960FB71FB793B734FF0010359
:10291C007B6107F10C0207F11003386811467A69E4
:10292C00FFF7DAFB3A697B699A4202D14FF0010357
:10293C0001E04FF0FF33184607F11807BD4680BD84
:10294C0080B584B000AF786039604FF00003FB6055
:10295C0014E07B681B7818463968FFF7CFFF0346F5
:10296C00B3F1FF3F02D14FF0FF330CE07B6803F172
:10297C0001037B60FB6803F10103FB607B681B7840
:10298C00002BE6D1FB68184607F11007BD4680BD49
:10299C0080B485B000AF0346FB710D4B1B889BB216
:1029AC00FB60FB79002B04D1FB6843F03803FB6020
:1029BC0005E0FB6823F0380343F00803FB60044B8D
:1029CC00FA6892B21A8007F11407BD4680BC7047B2
:1029DC000038004080B400AFBD4680BC704700BFDB
:1029EC0080B400AFBD4680BC704700BF80B483B0DC
:1029FC0000AF0346FB7107F10C07BD4680BC704766
:102A0C0080B400AF4FF001031846BD4680BC704740
:102A1C0080B582B000AF0346FB71FB799BB20B48CB
:102A2C00194603F09BF800BF08484FF0010103F072
:102A3C00D1F80346002BF7D0044803F09DF8034669
:102A4C00DBB2184607F10807BD4680BD00380040D0
:102A5C0080B500AF4FF0FF00FFF7DAFF03461846D2
:102A6C0080BD00BF80B582B000AF0B4B4FF032027F
:102A7C001A60FFF7EDFFFFF7EBFF0346FB71FB79E5
:102A8C00FF2B03D0044B1B68002BF4D1FB791846A9
:102A9C0007F10807BD4680BD4801002080B500AF96
:102AAC0003484FF4805102F009FFFFF7D1FF80BDBE
:102ABC00000C014080B588B000AF4FF008004FF01B
:102ACC00010102F017FF4FF480404FF0010102F0BA
:102ADC0033FF4FF00100FFF789FFFFF781FFFFF78E
:102AEC0079FF4FF000033B6004E000BF3B6803F14B
:102AFC0001033B603A6847F22F539A42F5DD4FF4DD
:102B0C0080533B814FF01003FB724FF00303BB72F9
:102B1C0007F108033048194602F0F0FD2E484FF437
:102B2C00805102F0CBFE4FF420433B814FF0030366
:102B3C00BB724FF01803FB7207F1080326481946C5
:102B4C0002F0DCFD4FF480433B814FF04803FB72F5
:102B5C0007F108032048194602F0D0FD4FF000039E
:102B6C00BB814FF48273FB814FF000033B824FF02B
:102B7C0000037B824FF00003BB824FF40073FB8297
:102B8C004FF038033B834FF000037B834FF0070378
:102B9C00BB8307F10C031148194602F073FF0F4871
:102BAC004FF0000102F0F6FF0C484FF0010102F06B
:102BBC00B5FF00BF09484FF0020103F00BF80346C4
:102BCC00002BF7D0054802F0D7FF0346DBB2FB71B0
:102BDC0007F12007BD4680BD000C014000380040C5
:102BEC0080B582B000AF1D4B1B78DBB203F0010344
:102BFC00002B08D11A484FF4805102F06DFEFFF7FC
:102C0C0031FFFFF74BFF174802F0FCFE15484FF061
:102C1C00000102F083FF4FF480404FF0000102F0FE
:102C2C008BFE4FF46043BB804FF02803FB7107F120
:102C3C0004030B48194602F061FD4FF00000FFF74A
:102C4C00D5FE064B1B78DBB243F00103DAB2034B23
:102C5C001A7007F10807BD4680BD00BF00000020B8
:102C6C00000C01400038004080B584B000AF7860A3
:102C7C0039602B4B4FF00A021A60FFF7E9FE03464E
:102C8C00FB73FB7BFF2B03D1254B1B68002BF4D173
:102C9C00FB7BFE2B02D04FF000033CE04FF0FF001B
:102CAC00FFF7B6FE03461A467B681A707B6803F181
:102CBC0001037B604FF0FF00FFF7AAFE03461A46A4
:102CCC007B681A707B6803F101037B604FF0FF0097
:102CDC00FFF79EFE03461A467B681A707B6803F169
:102CEC0001037B604FF0FF00FFF792FE03461A468C
:102CFC007B681A707B6803F101037B603B68A3F16E
:102D0C0004033B603B68002BC8D1FFF7A1FEFFF723
:102D1C009FFE4FF00103184607F11007BD4680BD1A
:102D2C004401002080B584B000AF78600B46FB7086
:102D3C00FFF798FE0346FF2B02D04FF0000338E05C
:102D4C00FB781846FFF764FEFB78FD2B2FD04FF075
:102D5C000003FB737B681B787A6802F101027A60CE
:102D6C001846FFF755FE7B681B787A6802F1010262
:102D7C007A601846FFF74CFEFB7B03F1FF33FB73C5
:102D8C00FB7B002BE6D14FF0FF00FFF741FE4FF02D
:102D9C00FF00FFF73DFEFFF75BFE0346BB73BB7BFB
:102DAC0003F01F03052B02D04FF0000301E04FF09E
:102DBC000103184607F11007BD4680BD80B584B0ED
:102DCC0000AF03463960FB71FB795BB2002B10DA64
:102DDC00FB7903F07F03FB714FF077004FF000019C
:102DEC00FFF7ECFF0346BB73BB7B012B01D9BB7B0D
:102DFC005AE030484FF4805102F060FD2D484FF4FA
:102E0C00805102F069FDFFF72DFE0346FF2B02D027
:102E1C004FF0FF0348E0FB791846FFF7F9FD3B68DC
:102E2C004FEA1363DBB21846FFF7F2FD3B684FEA3B
:102E3C001343DBB21846FFF7EBFD3B684FEA132355
:102E4C00DBB21846FFF7E4FD3B68DBB21846FFF730
:102E5C00DFFD4FF00103FB73FB79402B02D14FF0E8
:102E6C009503FB73FB79482B02D14FF08703FB735F
:102E7C00FB7B1846FFF7CCFDFB794C2B01D1FFF700
:102E8C00E7FD4FF00A03FB73FFF7E2FD0346BB734C
:102E9C00BB7B5BB2002B06DAFB7B03F1FF33FB73CE
:102EAC00FB7B002BF0D1BB7B184607F11007BD460E
:102EBC0080BD00BF000C014090B585B000AF03464B
:102ECC00FB71FB79002B02D04FF00103DCE0714B5E
:102EDC001B78DBB203F00203002B03D06D4B1B7885
:102EEC00DBB2D1E0FFF7E6FD4FF00000FFF750FD3D
:102EFC004FF00A03FB7305E0FFF7AAFDFB7B03F120
:102F0C00FF33FB73FB7B002BF6D14FF000037B737D
:102F1C004FF040004FF00001FFF750FF0346012B2C
:102F2C0040F098805C4B4FF064021A604FF0480000
:102F3C004FF4D571FFF742FF0346012B56D14FF0EA
:102F4C000003FB730DE0FC7BFFF782FD03461A4682
:102F5C0007F110010B1903F8082CFB7B03F101039B
:102F6C00FB73FB7B032BEED9BB7A012B72D1FB7A63
:102F7C00AA2B6FD100BF484B1B68002B08D04FF019
:102F8C00E9004FF08041FFF719FF0346002BF2D107
:102F9C00414B1B68002B5DD04FF07A004FF00001C5
:102FAC00FFF70CFF0346002B54D14FF00003FB73CB
:102FBC000DE0FC7BFFF74CFD03461A4607F11001B0
:102FCC000B1903F8082CFB7B03F10103FB73FB7B50
:102FDC00032BEED93B7A03F04003002B02D04FF0C9
:102FEC000C0301E04FF004037B7333E04FF0E90076
:102FFC004FF00001FFF7E2FE0346012B06D84FF01D
:10300C0002037B734FF0E903BB7306E04FF001033F
:10301C007B734FF04103BB7300BF1F4B1B68002B2E
:10302C0008D0BB7B18464FF00001FFF7C7FE0346E4
:10303C00002BF2D1184B1B68002B08D04FF050001E
:10304C004FF40071FFF7BAFE0346002B02D04FF08D
:10305C0000037B73114B7A7B1A70FFF71FFD7B7B90
:10306C00002B0CD00B4B1B78DBB223F00103DAB234
:10307C00084B1A704FF00100FFF78AFC01E0FFF7D4
:10308C00AFFD044B1B78DBB2184607F11407BD46A5
:10309C0090BD00BF00000020440100204C01002026
:1030AC0080B483B000AF0346FB71FB79002B02D0D8
:1030BC004FF0010302E0044B1B78DBB2184607F11A
:1030CC000C07BD4680BC70470000002080B584B062
:1030DC0000AFB9607A600246FA73FB70FB7B002B81
:1030EC0002D1FB78002B02D14FF0040356E02E4B9B
:1030FC001B78DBB203F00103DBB2002B02D04FF0E4
:10310C0003034BE0294B1B7803F00803002B03D17E
:10311C007B684FEA43237B60FB78012B13D14FF084
:10312C0051007968FFF74AFE0346002B2ED1B86890
:10313C004FF40071FFF798FD0346002B26D04FF09B
:10314C000003FB7022E04FF052007968FFF736FE67
:10315C000346002B1AD1B8684FF40071FFF784FDB9
:10316C000346002B0BD0BB6803F50073BB60FB78E8
:10317C0003F1FF33FB70FB78002BECD100E000BFB8
:10318C004FF04C004FF00001FFF718FEFFF786FCE4
:10319C00FB78002B0CBF00230123DBB2184607F190
:1031AC001007BD4680BD00BF000000204C01002070
:1031BC0080B584B000AFB9607A600246FA73FB70D8
:1031CC00FB7B002B02D1FB78002B02D14FF00403C8
:1031DC0072E03C4B1B78DBB203F00103DBB2002B3B
:1031EC0002D04FF0030367E0364B1B78DBB203F0E1
:1031FC000403002B02D04FF002035DE0324B1B782E
:10320C0003F00803002B03D17B684FEA43237B6058
:10321C00FB78012B13D14FF058007968FFF7CEFDE6
:10322C000346002B40D1B8684FF0FE01FFF77AFD42
:10323C000346002B38D04FF00003FB7034E0224BD8
:10324C001B7803F00603002B05D0FB784FF0D7005A
:10325C001946FFF7B3FD4FF059007968FFF7AEFD43
:10326C000346002B20D1B8684FF0FC01FFF75AFD44
:10327C000346002B0BD0BB6803F50073BB60FB78D7
:10328C0003F1FF33FB70FB78002BECD100E000BFA7
:10329C004FF000004FF0FD01FFF744FD0346002BFB
:1032AC0002D14FF00103FB70FFF7F8FBFB78002B0A
:1032BC000CBF00230123DBB2184607F11007BD46F3
:1032CC0080BD00BF000000204C01002090B58BB0E9
:1032DC0000AF0B463A600246FA71BB713B683B6229
:1032EC00FB79002B02D04FF0040310E24FF00103E6
:1032FC0087F82730BB79042B2DD13B6A1B78012B27
:10330C000FD0022B14D0002B20D1FFF779FB0346F2
:10331C00002B01D0FFF764FC4FF0000387F8273037
:10332C00F3E1FFF7C7FB4FF0000387F82730ECE120
:10333C003B6A03F10104FFF763FB0346DBB2237026
:10334C004FF0000387F8273000BFDEE14FF0040395
:10335C0087F82730D9E1AE4B1B78DBB203F00103C1
:10336C00DBB2002B02D04FF00303D0E1BB790E2B64
:10337C0000F2A98101A252F823F000BFC533000866
:10338C00E5330008B5340008C7340008D33600080C
:10339C00D3360008D3360008D3360008D3360008DD
:1033AC00D3360008DF350008F1350008293600084F
:1033BC0055360008A336000896484FF4805102F0A9
:1033CC008BFAFFF74FFB0346FF2B40F081814FF048
:1033DC00000387F8273096E14FF049004FF00001C9
:1033EC00FFF7ECFC0346002B40F0748107F10C0353
:1033FC0018464FF01001FFF737FC0346002B00F086
:10340C006B813B7B4FEA9313DBB2012B10D17B7D9D
:10341C001A463B7D4FEA03239BB2D3189BB203F1B0
:10342C000103FB833B68FA8B4FEA82221A6036E079
:10343C007B7C03F00F03DAB2BB7D4FEAD313DBB214
:10344C00D318DAB27B7D03F00303DBB24FEA4303FC
:10345C00DBB2D318DBB203F1020387F826303B7DD5
:10346C004FEA9313DBB21A46FB7C4FEA83039BB201
:10347C00D3189AB2BB7C03F003039BB24FEA8323AD
:10348C009BB2D3189BB203F10103FB833B68F98B0E
:10349C0097F82620A2F1090201FA02F21A604FF005
:1034AC00000387F827302EE13B684FF400721A8036
:1034BC004FF0000387F8273025E1574B1B7803F0BA
:1034CC000403002B36D04FF0CD004FF00001FFF776
:1034DC0075FC0346002B40F00181FFF7B9FA07F1A8
:1034EC000C0318464FF01001FFF7BEFB0346002BF0
:1034FC0000F0F6804FF0300387F8263007E0FFF736
:10350C00A7FA97F8263003F1FF3387F8263097F89F
:10351C002630002BF3D13B68BA7D4FEA1212D2B29F
:10352C004FF0100101FA02F21A604FF0000387F815
:10353C002730E8E04FF049004FF00001FFF73EFC68
:10354C000346002B40F0CE8007F10C0318464FF0D9
:10355C001001FFF789FB0346002B00F0C5802E4BB2
:10356C001B7803F00203002B16D03B68BA7D02F0E7
:10357C003F024FEA4201FA7D4FEAD212D2B28A18C8
:10358C0002F101017A7E4FEA9212D2B202F1FF32BD
:10359C0001FA02F21A6017E03B68BA7D02F07C0275
:1035AC004FEAA20292B202F10102F97D01F003018D
:1035BC004FEAC100F97D4FEA5111C9B2411801F12E
:1035CC00010101FB02F21A604FF0000387F827306B
:1035DC0099E0114B1A783B6A1A704FF0000387F888
:1035EC00273090E04FF049004FF00001FFF7E6FB69
:1035FC000346002B7AD1386A4FF01001FFF734FBE9
:10360C000346002B74D04FF0000387F827307AE084
:10361C0000000020000C01404C0100204FF04A003B
:10362C004FF00001FFF7CAFB0346002B62D1386A4A
:10363C004FF01001FFF718FB0346002B5CD04FF046
:10364C00000387F827305EE04FF07A004FF000015E
:10365C00FFF7B4FB0346002B50D14FF0040387F85F
:10366C0026300FE0FFF7F4F903461A463B6A1A704E
:10367C003B6A03F101033B6297F8263003F1FF33F9
:10368C0087F8263097F82630002BEBD14FF000034B
:10369C0087F8273037E04FF0CD004FF00001FFF7EF
:1036AC008DFB0346002B2BD1FFF7D2F9386A4FF074
:1036BC004001FFF7D9FA0346002B23D04FF000034B
:1036CC0087F827301FE04FF0040387F827301AE003
:1036DC0000BF18E000BF16E000BF14E000BF12E00E
:1036EC0000BF10E000BF0EE000BF0CE000BF0AE01E
:1036FC0000BF08E000BF06E000BF04E000BF02E02E
:10370C0000BF00E000BFFFF7C9F997F82730184653
:10371C0007F12C07BD4690BD80B500AF01F0F0FE5F
:10372C004FF00003184680BD80B500AF01F0FAFEE3
:10373C004FF00003184680BD80B582B000AF7860B2
:10374C00786801F0FDFE4FF00003184607F10807FA
:10375C00BD4680BD80B586B000AFF860B9607A60B8
:10376C004FF000037B617B6803F00303002B16D042
:10377C007B687B6109E0BA687B69D3184FF0FF0264
:10378C001A707B6903F101037B617A684FF6FC7355
:10379C0002EA030303F104027B699A42EBD84FF06F
:1037AC0000037B610FE0BA687B69D3181B68F8686B
:1037BC00194601F0FBFEFB6803F10403FB607B6917
:1037CC0003F104037B617A697B689A42EBD34FF077
:1037DC000003184607F11807BD4680BD80B483B0BE
:1037EC0000AF78607B68184607F10C07BD4680BCBB
:1037FC00704700BF80B400AFBD4680BC704700BFAF
:10380C0080B400AFBD4680BC704700BF80B400AF31
:10381C00BD4680BC704700BF80B483B000AF034688
:10382C00FB7107F10C07BD4680BC704780B584B0B6
:10383C0000AF104B1B68FB600F4B1B68BB600F4B42
:10384C001B687B60FA687B68D318FB60FB68002BF5
:10385C000BD0F8680A494FF0080200F015F8B86868
:10386C0008494FF0040200F00FF807F11007BD46AD
:10387C0080BD00BFE8F7FF1FECF7FF1FF0F7FF1F3D
:10388C007A0000208A00002080B487B000AFF86076
:10389C00B9601346FB714FF00003FB754FF000034A
:1038AC00FB7531E0FB684FEA1373092B0DD8FB7DD8
:1038BC004FEA4303BA68D318FA684FEA1272D2B2CD
:1038CC0002F13002D2B21A700CE0FB7D4FEA4303D6
:1038DC00BA68D318FA684FEA1272D2B202F1370200
:1038EC00D2B21A70FB684FEA0313FB60FB7D4FEA00
:1038FC00430303F10103BA68D3184FF000021A70A6
:10390C00FB7D03F10103FB75FA7DFB799A42C9D368
:10391C0007F11C07BD4680BC704700BF80B500AFE7
:10392C0000F002F8FEE700BF90B5ADF5066D83B070
:10393C0000AF07F5C5634FF000001946FEF778F8A5
:10394C00034687F85E3897F85E38002B40F0DA8033
:10395C0007F58163A3F10403184674494FF0010283
:10396C00FEF794F8034687F85E3897F85E38002B1C
:10397C0003D06F4800F0E6F8C9E0FFF7CDFE6D4BC1
:10398C00C7F864384FF0000387F85F3807F5816299
:10399C00A2F1040207F10803A3F1080307F5806400
:1039AC00104619464FF480622346FEF71DFA034673
:1039BC0087F85E3897F85E38002B40F0A580D7F872
:1039CC006408FFF70BFFC7F858084FF00003C7F85F
:1039DC0060381AE007F10803A3F10803D7F8602850
:1039EC009B181A78D7F85818D7F86038CB181B786A
:1039FC009A4204D04FF0010387F85F380CE0D7F8F7
:103A0C00603803F10103C7F8603807F580631B6861
:103A1C00D7F860289A42DDD397F85F38002B0BD18A
:103A2C00D7F8643803F58063C7F8643807F580630A
:103A3C001B68002BAAD100E000BF07F58163A3F13E
:103A4C0004031846FEF7D2FD97F85F38002B03D11C
:103A5C00394800F077F85AE007F58163A3F10403C5
:103A6C00184632494FF00102FEF710F8034687F86A
:103A7C005E3897F85E38002B03D0304800F062F8BF
:103A8C0045E02C4BC7F8643807F58162A2F10402BB
:103A9C0007F10803A3F1080307F5806410461946E3
:103AAC004FF480622346FEF79FF9034687F85E3891
:103ABC0097F85E38002B29D1D7F86408FFF73CFE45
:103ACC0007F580631A6807F10803A3F10803D7F818
:103ADC0064081946FFF73EFED7F8643803F5806397
:103AEC00C7F8643807F580631B68002BCCD107F549
:103AFC008163A3F104031846FEF778FD104800F02B
:103B0C0021F804E000BF02E000BF00E000BFFFF7B7
:103B1C000BFE4FF000004FF00001FDF789FF07F19D
:103B2C006C0707F50067BD4690BD00BF987E000886
:103B3C00A87E000800500008D47E0008087F00080A
:103B4C004C7F000880B5ADF58C6D00AF07F110030C
:103B5C00A3F10C03186007F50B734FF00000194626
:103B6C00FDF766FF034687F85F3497F85F34002B48
:103B7C002CD107F1080318461E494FF01202FDF72D
:103B8C0085FF034687F85F3497F85F34002B1FD10D
:103B9C0007F10803DB6807F1080210461946FEF727
:103BAC003BFD034687F85F3497F85F34002B11D147
:103BBC0007F11003A3F10C0307F108021868114672
:103BCC00FEF7BEFE034687F85F3404E000BF02E058
:103BDC0000BF00E000BF07F108031846FEF706FD22
:103BEC004FF000004FF00001FDF722FF07F58C6746
:103BFC00BD4680BD607F000880B400AF024B184604
:103C0C00BD4680BC704700BF0000213C80B584B02D
:103C1C0000AFB9607A600246FA737B80FB7B002BA5
:103C2C000DD17A687B881046B9681A4602F048F8BC
:103C3C0003461A46054B1A604FF0000301E04FF0A3
:103C4C000103184607F11007BD4680BD5001002046
:103C5C0080B584B000AFB9607A600246FA737B809D
:103C6C00FB7B002B0DD17A687B881046B9681A460D
:103C7C0001F0D0FF03461A46054B1A604FF00003C3
:103C8C0001E04FF00103184607F11007BD4680BD57
:103C9C005001002080B590B000AF0346FB714FF08F
:103CAC000003FB634FF00003BB63FB79002B3BD19C
:103CBC0007F10C03184602F05DF897F82430DBB2DC
:103CCC0003F10203BB633B7DDBB24FF0010202FA4E
:103CDC0003F3002B03DA03F5FE7303F103034FEA3E
:103CEC006323FB63FB6903F10102BB6B02FA03F371
:103CFC00FA6B02FB03F2104B1A60104B4FF400727C
:103D0C001A600D4B1B680D4A126802FB03F20C4B38
:103D1C001A60094B1B68094A126802FB03F2084B34
:103D2C001A604FF0000301E04FF00103184607F151
:103D3C004007BD4680BD00BF9C01002094010020BF
:103D4C008C01002080B584B000AF0346B9607A6066
:103D5C00FB734C4B1B78002B15D1FA7B4A4B53F859
:103D6C002230BA6802FB03F2484B1A60FA7B464BCE
:103D7C0053F822307A6802FB03F2454B1A60414B30
:103D8C004FF001021A703F4B1B78012B5CD1414B59
:103D9C001B68002B21D13D4B1A68F97B3A4B53F829
:103DAC0021309BB2F97B084611463B4AFFF750FF86
:103DBC00394B4FF0810019464FF0400203F0EAFFF7
:103DCC00FA7B314B53F82230A3F14002314B1A608D
:103DDC00324B4FF040021A6016E02F4A2F4B1B68F3
:103DEC00D3184FF0810019464FF0400203F0D2FF78
:103DFC00284B1B68A3F14002264B1A60274B1B680B
:103E0C0003F14002254B1A604FF001004FF04001C6
:103E1C0003F000FF4FF001004FF0300103F046FDBE
:103E2C001A4B1B6803F14002184B1A60184B1B68A5
:103E3C00A3F14002164B1A60194B9B68A3F1400288
:103E4C00174B9A60FFF7D6FC114B1B68002B15D152
:103E5C00104B4FF000021A60104B4FF000021A602A
:103E6C000A4B4FF000021A600E4B4FF003021A700F
:103E7C00044B4FF000021A70FFF7C2FC07F1100759
:103E8C00BD4680BD5C01002094010020680100202B
:103E9C006C01002054010020AC010020A401002082
:103EAC00D4030020CE03002080B586B000AF0346BB
:103EBC00B9607A60FB734E4B1B6803F140037B6166
:103ECC004C4B1B78002B15D1FA7B4B4B53F8223003
:103EDC00BA6802FB03F2494B1A60FA7B464B53F863
:103EEC0022307A6802FB03F2454B1A60414B4FF0CB
:103EFC0001021A703F4B1B78012B5DD1414B4FF0E7
:103F0C0000021A6012E0404A394B1B68D2183D4B34
:103F1C001B683E49C95C117003F10102394B1A60F0
:103F2C00334B1B6803F10102314B1A60304B1A689A
:103F3C007B699A42E7D3364B1B881A462F4B1B687A
:103F4C00D2182E4B1A602E4B1A68314B1B88D21A82
:103F5C002B4B1A602A4B1B68F97B274A52F82120FD
:103F6C00B3FBF2F102FB01F29B1A002B15D1204B93
:103F7C004FF000021A60214B1A68F97B1E4B53F864
:103F8C002130D21AF97B1C4B53F821309BB2F97BB0
:103F9C00084611461C4AFFF739FE1E4B9A681C4B0B
:103FAC001B88D21A1B4B9A604FF002004FF4405101
:103FBC0003F0B6FCFFF71EFC114B1B68002B03D063
:103FCC00154B1B78042B0FD1094B4FF000021A60D4
:103FDC004FF000004FF0010100F0C8FC054B4FF012
:103FEC0000021A70FFF70CFC07F11807BD4680BDE4
:103FFC00580100205C010020940100206001002089
:10400C0064010020A8010020AC010020E80300207E
:10401C00CC030020D4030020CE03002080B400AFDA
:10402C00BD4680BC704700BF80B400AFFEE700BF48
:10403C0080B400AFFEE700BF80B400AFFEE700BF66
:10404C0080B400AFFEE700BF80B400AFBD4680BCBB
:10405C00704700BF80B400AFBD4680BC704700BF46
:10406C0080B400AFBD4680BC704700BF80B400AFC9
:10407C00BD4680BC704700BF80B500AF03F0DAFAD4
:10408C0080BD00BF80B500AF00F0DAFC80BD00BF82
:10409C0080B500AF154B154A126842F001021A6048
:1040AC00124A124B5968124B01EA030353600F4A30
:1040BC000E4B1B6823F0847323F4803313600B4B7B
:1040CC000A4A126822F480221A60084B074A526886
:1040DC0022F4FE025A60054B4FF41F029A6000F066
:1040EC000BF8044B4FF000629A6080BD0010024048
:1040FC000000FFF800ED00E080B500AF00F002F822
:10410C0080BD00BF80B483B000AF4FF000037B6074
:10411C004FF000033B603B4B3A4A126842F480324A
:10412C001A60384B1B6803F400333B607B6803F167
:10413C0001037B603B68002B03D17B68B3F5A06F58
:10414C00EFD1304B1B6803F40033002B03D04FF03E
:10415C0001033B6002E04FF000033B603B68012B26
:10416C004BD1294B284A126842F010021A60264B98
:10417C00254A126822F003021A60234B224A126865
:10418C0042F001021A601F4B1E4A52685A601D4BC6
:10419C001C4A52685A601B4B1A4A526842F480629D
:1041AC005A60184B174A526822F47C125A60154B0D
:1041BC00144A526842F488125A60124B114A12681F
:1041CC0042F080721A6000BF0E4B1B6803F0007344
:1041DC00002BF9D00B4B0B4A526822F003025A60A9
:1041EC00084B084A526842F002025A6000BF054B65
:1041FC005B6803F00C03082BF9D107F10C07BD46E3
:10420C0080BC7047001002400020024080B500AF17
:10421C001F4B1B78A3F10203032B34D801A252F8D5
:10422C0023F000BF574200087942000841420008C1
:10423C0041420008164B4FF000021A704FF002007A
:10424C004FF4405103F06CFB20E0124BDB7B282B2E
:10425C001BD1104B597B104B1A68104B1B6808462E
:10426C0011461A4600F094FF00BF0FE04FF000001B
:10427C004FF0010100F07AFB4FF002004FF4405177
:10428C0003F04EFB02E000BF00E000BF80BD00BFAA
:10429C00CE030020AC030020D0030020E403002058
:1042AC0080B582B000AF284BDB7BFB714FF0020076
:1042BC00264903F097FD03469AB2254B1A80254BED
:1042CC001B78002B02D0012B03D025E000F048F81E
:1042DC0036E0FB792A2B0BD11B4B597B1E4B1A68F2
:1042EC001E4B1B68084611461A4600F0A1FF27E03A
:1042FC004FF0010000F06AFB134B5B7B18464FF04C
:10430C0005014FF0240200F01DFF4FF002004FF0AA
:10431C00000100F02BFB13E04FF0020000F056FB05
:10432C00094B5B7B18464FF005014FF0240200F05F
:10433C0009FF4FF002004FF0000100F017FB00BF27
:10434C0007F10807BD4680BDAC030020E803002040
:10435C00CC030020CE030020D0030020E403002077
:10436C0080B582B000AF4FF000037B600BE0434A96
:10437C007B68D31842497A688A1812781A707B685D
:10438C0003F101037B603F4B1B881A467B689A4202
:10439C00EDD83A4B5A683C4B5A60384B9A683A4BBA
:1043AC009A60384B1B881F2B17D04FF0020000F07F
:1043BC000DFB324B4FF000021A60304B5B7B184602
:1043CC004FF005014FF01A0200F0BCFE4FF0010057
:1043DC004FF0000100F0CAFA98E2284BDB7B282B47
:1043EC0003D0264BDB7B2A2B1FD1244B5B7C4FEA63
:1043FC000362224B9B7C4FEA03431A431F4BDB7C2B
:10440C004FEA03231A431D4B1B7D42EA03031A4652
:10441C001E4B1A60194B9B7D4FEA0322174BDB7D19
:10442C0042EA03031A461A4B1A60144B1A68194BCA
:10443C009A4240F05882114B5B7B1A46164B1B6814
:10444C009A4207D80D4B9B7B002B03D00B4B9B7BCD
:10445C00102B23D94FF0020000F0B8FA074B5B7B0E
:10446C0018464FF005014FF0240200F06BFE4FF0A0
:10447C0001004FF0000100F079FA47E2AC03002094
:10448C00E8030020CC030020D4030020D00300203C
:10449C00E40300205553424380010020DA4BDB7BC0
:1044AC00AF2B00F20C8201A252F823F0D94700087E
:1044BC00CB480008CB480008794700082D48000875
:1044CC00CB480008CB480008CB4800085D480008E2
:1044DC00CB4800088D480008CB480008CB480008A2
:1044EC00CB480008CB480008CB480008CB48000854
:1044FC00CB48000885470008CB480008CB4800088B
:10450C0045480008CB480008CB480008CB480008B9
:10451C00CB480008A947000891470008CB48000881
:10452C00514800089D470008CB480008CB480008BC
:10453C00CB480008CB480008C1470008CB4800080E
:10454C00CD470008CB480008CB480008E5470008D9
:10455C00CB480008FD470008CB480008CB480008B2
:10456C00CB480008CB48000821480008CB4800087D
:10457C00CB480008CB480008CB480008CB480008C3
:10458C00CB480008CB480008CB480008CB480008B3
:10459C00CB480008CB480008CB480008CB480008A3
:1045AC00CB480008CB480008CB480008CB48000893
:1045BC00CB480008CB480008CB480008CB48000883
:1045CC00CB480008CB480008CB480008CB48000873
:1045DC00CB480008CB480008CB480008CB48000863
:1045EC00CB480008CB480008CB480008CB48000853
:1045FC00CB480008CB480008CB480008CB48000843
:10460C0039480008CB480008CB480008CB480008C4
:10461C00CB480008B5470008CB480008CB48000839
:10462C00CB480008CB480008CB480008CB48000812
:10463C00CB480008CB480008CB480008CB48000802
:10464C00CB480008CB480008CB480008CB480008F2
:10465C00CB480008CB480008CB480008CB480008E2
:10466C00CB480008CB480008CB480008CB480008D2
:10467C00CB480008CB480008CB480008CB480008C2
:10468C00CB480008CB480008CB480008CB480008B2
:10469C00CB480008CB480008CB480008CB480008A2
:1046AC00CB480008CB480008CB480008CB48000892
:1046BC00CB480008CB480008CB480008CB48000882
:1046CC00CB480008CB480008CB48000875480008C8
:1046DC00CB480008A5480008CB480008CB48000888
:1046EC00CB480008CB480008BD480008CB48000860
:1046FC00CB480008CB480008CB480008CB48000842
:10470C00CB480008CB480008CB480008CB48000831
:10471C00CB480008CB480008CB480008CB48000821
:10472C00CB48000881480008CB480008CB4800085B
:10473C00CB480008CB480008CB480008CB48000801
:10474C00CB480008CB480008CB4800086948000853
:10475C00CB48000899480008CB480008CB48000813
:10476C00CB480008CB480008B1480008264B5B7BBF
:10477C00184600F0C9FCC9E0234B5B7B184600F0DF
:10478C0083FBC3E0204B5B7B184600F0F1FCBDE0E3
:10479C001D4B5B7B184600F0EBFCB7E01A4B5B7BC8
:1047AC00184600F091FCB1E0174B5B7B184600F00B
:1047BC009BFCABE0144B5B7B184600F09BFBA5E02D
:1047CC00114B5B7B184600F001FC9FE00E4B5B7BB2
:1047DC00184600F0ADFD99E00B4B597B0B4B1A685A
:1047EC000B4B1B68084611461A4600F0D1FC8DE0B5
:1047FC00054B597B054B1A68054B1B68084611463F
:10480C001A4600F015FD81E0AC030020D003002017
:10481C00E40300203F4B5B7B184600F059FD75E02C
:10482C003C4B5B7B184600F0AFFD6FE0394B5B7B7C
:10483C00184600F0CFFD69E0364B5B7B184600F064
:10484C00C9FD63E0334B5B7B184600F0C3FD5DE0B4
:10485C00304B5B7B184600F0BDFD57E02D4B5B7B6E
:10486C00184600F0B7FD51E02A4B5B7B184600F070
:10487C00B1FD4BE0274B5B7B184600F0ABFD45E0F0
:10488C00244B5B7B184600F0A5FD3FE0214B5B7B86
:10489C00184600F09FFD39E01E4B5B7B184600F07C
:1048AC0099FD33E01B4B5B7B184600F093FD2DE02C
:1048BC00184B5B7B184600F08DFD00BF26E04FF0D7
:1048CC00020000F083F8134B5B7B18464FF0050198
:1048DC004FF0200200F036FC4FF001004FF00001C9
:1048EC0000F044F812E04FF0020000F06FF8094BB2
:1048FC005B7B18464FF005014FF0200200F022FCC4
:10490C004FF001004FF0000100F030F807F10807FC
:10491C00BD4680BDAC03002080B582B000AF78608E
:10492C000B467B807B884FF0810079681A4603F038
:10493C0031FA4FF001004FF0300102F0B7FF094B94
:10494C004FF003021A70084B9A687B88D21A064BF8
:10495C009A60054B4FF000021A7307F10807BD4629
:10496C0080BD00BFCE030020D403002080B582B0F0
:10497C0000AF02460B46FA71BB71114B114A1A601B
:10498C000F4BFA791A730E4B4FF0810019464FF00A
:10499C000D0203F0FFF90C4B4FF005021A70BB79B6
:1049AC00002B09D0084B4FF004021A704FF0010095
:1049BC004FF0300102F07AFF07F10807BD4680BDC9
:1049CC00D403002055534253CE03002080B582B04F
:1049DC0000AF0346FB71FB79012B0AD0022B0FD0E1
:1049EC00002B1BD14FF001004FF0100102F05EFFC5
:1049FC0015E04FF002004FF4805102F091FF0EE0F1
:104A0C004FF001004FF0100102F050FF4FF0020088
:104A1C004FF4805102F084FF00BF00E000BF07F1AB
:104A2C000807BD4680BD00BF80B500AFFFF7EEFBA9
:104A3C0080BD00BF80B500AFFFF732FC80BD00BF6A
:104A4C0080B500AF124B1B689AB2124B1A80114BF7
:104A5C001B889BB203F400420F4B1B8802EA030332
:104A6C00002B01D002F04AFC0A4B1B889BB203F4CA
:104A7C008062094B1B8802EA0303002B06D0044B0F
:104A8C004FF6FF321A60054B5B68984780BD00BF3C
:104A9C00445C00402804002060040020D00000206A
:104AAC0080B500AFFEF7C2FE064B1B684FF000024C
:104ABC009A7200F0BBF903F053F9034B4FF000026C
:104ACC001A6080BD5C0400208401002080B500AF1A
:104ADC00454B4FF000029A72444B1B68444AD27902
:104AEC005A724FF0000002F0A5FE4FF000004FF498
:104AFC00007102F0B3FE4FF000004FF0200102F005
:104B0C00D5FE4FF000004FF0180103F023F8394B9D
:104B1C0093F82C304FF00000194603F099F84FF041
:104B2C0000004FF0580102F0F1FF4FF0000002F0CE
:104B3C005DFF4FF0000002F02DFF4FF001004FF031
:104B4C00000102F08BFE4FF001004FF0980102F0D3
:104B5C00DDFF4FF001004FF0200102F0A7FE4FF0F7
:104B6C0001004FF0000102F0DBFE4FF002004FF0AD
:104B7C00000102F073FE4FF002004FF0D80102F07A
:104B8C00E9FF1C4B93F82C304FF00200194603F050
:104B9C005FF84FF002004FF4405102F0C1FE4FF0AD
:104BAC0002004FF0000102F081FE124B93F82C3002
:104BBC004FF00000194603F04BF84FF0000002F0E4
:104BCC00E9FE4FF0000002F051FB0B4B4FF00102DD
:104BDC001A600A4B0A4A1A600A4B4FF000021A700C
:104BEC00FEF714FE80BD00BF3C0400205C040020D6
:104BFC0000800008D000002084010020AC030020BD
:104C0C0055534243CE03002080B400AFBD4680BC58
:104C1C00704700BF80B400AFBD4680BC704700BF7A
:104C2C0080B584B000AF0346FB714FF00003FB600E
:104C3C001C4B1B681B7803F07F03212B17D1FB79CE
:104C4C00FE2B14D1174B1B685B88002B0FD1154B17
:104C5C001B689B88002B0AD1124B1B68DB88012B2D
:104C6C0005D1114BFB60FB68002B03D005E04FF026
:104C7C00020311E04FF002030EE00A4B1B68FA68C6
:104C8C009A61084B1B684FF000025A82FB684FF088
:104C9C00000098474FF00003184607F11007BD4677
:104CAC0080BD00BF5C040020014E000880B582B0BE
:104CBC0000AF0346FB71194B1B681B7803F07F0395
:104CCC00212B23D1FB79FF2B20D1144B1B685B8844
:104CDC00002B1BD1114B1B689B88002B16D10F4B43
:104CEC001B68DB88002B11D14FF0010002F0DCFEB9
:104CFC004FF0020002F0A6FE094B0A4A1A600A4B5A
:104D0C004FF000021A704FF0000301E04FF0020365
:104D1C00184607F10807BD4680BD00BF5C040020A3
:104D2C00AC03002055534243CE03002080B483B023
:104D3C0000AF02460B46FA71BB71BB79002B02D057
:104D4C004FF0020307E0FB79002B02D04FF0020377
:104D5C0001E04FF00003184607F10C07BD4680BC7C
:104D6C00704700BF80B582B000AF0346FB80FB8864
:104D7C001846044901F07EFD0346184607F1080762
:104D8C00BD4680BD0001002080B582B000AF034657
:104D9C00FB80FB881846044901F06CFD034618465D
:104DAC0007F10807BD4680BD0801002080B584B01E
:104DBC0000AF0346FB800D4B1B68DB78FB73FB7B62
:104DCC00052B02D94FF000030AE0FB7B4FEAC3022C
:104DDC00074BD318FA881046194601F04BFD0346D1
:104DEC00184607F11007BD4680BD00BF5C040020CB
:104DFC001001002080B483B000AF0346FB80FB8819
:104E0C00002B07D1074B1B684FF001021A824FF0A1
:104E1C00000300E0044B184607F10C07BD4680BCAC
:104E2C00704700BF5C0400208001002080B582B078
:104E3C0000AF4FF00100FEF7EFFC4FF00103FB80D9
:104E4C000E4BFA881A600E4B4FF000021A800B4B77
:104E5C000B4A12881A600B4B4FF000021A60084B79
:104E6C004FF4E0521A80054B054A12881A604FF035
:104E7C000003184607F10807BD4680BD405C0040A2
:104E8C0060040020445C004080B584B000AF034651
:104E9C00FB71144B1B7C03F00103DBB2002B05D020
:104EAC00114BFB604FF005037B8112E0FB79002B6B
:104EBC0002D10E4BFB6001E00D4BFB60094BDB7C20
:104ECC00242B03D8074BDB7C7B8102E04FF02403BF
:104EDC007B817B89F8681946FFF71EFD07F11007E7
:104EEC00BD4680BDAC0300207001002004000020F2
:104EFC002800002080B582B000AF0346FB71FB791F
:104F0C001846FEF7C7FE0346002B13D02B4B5B7BDA
:104F1C0018464FF002014FF03A0200F013F94FF02F
:104F2C0001004FF00101FFF721FD4FF00000FFF7EA
:104F3C004DFD3FE0FA79224B53F822304FEA1363D0
:104F4C00DAB2204B1A71FA791D4B53F822304FEA22
:104F5C001343DAB21B4B5A71FA79194B53F82230BE
:104F6C004FEA1323DAB2174B9A71FA79144B53F8B0
:104F7C002230DAB2134BDA71FA79134B53F8223030
:104F8C004FEA1343DAB20F4B5A72FA790E4B53F8BD
:104F9C0022304FEA1323DAB20A4B9A72FA790A4B8F
:104FAC0053F82230DAB2074BDA7206484FF00C0194
:104FBC00FFF7B2FC07F10807BD4680BDAC0300202B
:104FCC009C0100206C0000209401002080B582B070
:104FDC0000AF0346FB71FB791846FEF75BFE0346F8
:104FEC00002B13D0344B5B7B18464FF002014FF073
:104FFC003A0200F0A7F84FF001004FF00101FFF763
:10500C00B5FC4FF00000FFF7E1FC51E0FA792B4BB7
:10501C0053F8223003F1FF334FEA1363DAB2284B13
:10502C001A70FA79254B53F8223003F1FF334FEA0B
:10503C001343DAB2224B5A70FA79204B53F82230D0
:10504C0003F1FF334FEA1323DAB21D4B9A70FA794E
:10505C001A4B53F82230DBB203F1FF33DAB2184BA0
:10506C00DA70FA79174B53F822304FEA1363DAB23D
:10507C00134B1A71FA79134B53F822304FEA13433E
:10508C00DAB20F4B5A71FA790E4B53F822304FEAC1
:10509C001323DAB20A4B9A71FA790A4B53F822307D
:1050AC00DAB2074BDA7106484FF00801FFF734FC0F
:1050BC0007F10807BD4680BDAC0300209C01002011
:1050CC00780100209401002080B582B000AF034627
:1050DC00FB7104484FF00401FFF71EFC07F10807B1
:1050EC00BD4680BD4C00002080B582B000AF0346A9
:1050FC00FB7104484FF00801FFF70EFC07F108079D
:10510C00BD4680BD5000002080B584B000AF034682
:10511C00FB710A4BDB7C122B03D8084BDB7CFB733B
:10512C0002E04FF01203FB73FB7B9BB20448194661
:10513C00FFF7F2FB07F11007BD4680BDAC03002062
:10514C005800002080B483B000AF13460246FA71B9
:10515C000A46BA717B71054BBA799A70034B7A790E
:10516C001A7307F10C07BD4680BC7047580000202D
:10517C0080B582B000AF0346FB714FF000004FF0DA
:10518C000101FFF7F3FB07F10807BD4680BD00BF27
:10519C0080B584B000AF0346B9607A60FB73224BD4
:1051AC001B78002B30D1214B5B7B18464FF028012C
:1051BC00BA687B6800F040F90346002B2FD01B4BDC
:1051CC001B7BDBB25BB2002B0ADA174B4FF00202EF
:1051DC001A70FB7B1846B9687A68FEF7B3FD1FE0BE
:1051EC004FF00200FFF7F2FB104B5B7B18464FF0C1
:1051FC0005014FF02402FFF7A5FF4FF001004FF01F
:10520C000101FFF7B3FB0BE0074B1B78022B07D117
:10521C00FB7B1846B9687A68FEF794FD00E000BF86
:10522C0007F11007BD4680BDCE030020AC03002063
:10523C0080B584B000AF0346B9607A60FB73224B33
:10524C001B78002B30D1214B5B7B18464FF02A0189
:10525C00BA687B6800F0F0F80346002B2FD01B4B8C
:10526C001B7BDBB25BB2002B0ADB174B4FF001024E
:10527C001A704FF002004FF4405102F051FB1FE046
:10528C004FF00000FFF7A2FB104B5B7B18464FF072
:10529C0005014FF02402FFF755FF4FF001004FF0CE
:1052AC000001FFF763FB0BE0074B1B78012B07D1C9
:1052BC00FB7B1846B9687A68FEF7F6FD00E000BF84
:1052CC0007F11007BD4680BDCE030020AC030020C3
:1052DC0080B582B000AF0346FB71144B9B68002B6A
:1052EC000CD1124B1B7C03F00403002B06D14FF0A6
:1052FC0000004FF00101FFF739FB12E04FF0020004
:10530C00FFF764FB094B5B7B18464FF005014FF030
:10531C002402FFF717FF4FF001004FF00001FFF7D9
:10532C0025FB07F10807BD4680BD00BFAC0300207C
:10533C0080B582B000AF0346FB71FB791846FEF7CF
:10534C00A9FC0346002B13D00E4B5B7B18464FF089
:10535C0002014FF03A02FFF7F5FE4FF001004FF05B
:10536C000101FFF703FB4FF00000FFF72FFB05E0F7
:10537C004FF000004FF00101FFF7F8FA07F10807B2
:10538C00BD4680BDAC03002080B582B000AF0346A3
:10539C00FB71FB791846FEF77DFC0346002B13D0FE
:1053AC000B4B5B7B18464FF002014FF03A02FFF7B4
:1053BC00C9FE4FF001004FF00101FFF7D7FA4FF093
:1053CC000000FFF703FB00BF07F10807BD4680BDD7
:1053DC00AC03002080B582B000AF0346FB71154BC7
:1053EC009B68002B04D14FF00000FFF7EFFA0EE0A2
:1053FC00104B1B7BDBB25BB2002B04DA4FF00000CE
:10540C00FFF7E4FA03E04FF00200FFF7DFFA094B75
:10541C005B7B18464FF005014FF02002FFF792FE20
:10542C004FF001004FF00001FFF7A0FA07F1080759
:10543C00BD4680BDAC03002080B584B000AFBA601F
:10544C007B600346FB730B46BB73BA687B68D21850
:10545C00F97B284B53F821309A421BD9BB7B2A2B62
:10546C0003D14FF00200FFF7B1FA4FF00000FFF745
:10547C00ADFAFB7B18464FF005014FF02102FFF708
:10548C0061FE4FF001004FF00001FFF76FFA4FF093
:10549C0000032AE0184B9A68F97B184B53F821301B
:1054AC00796801FB03F39A421DD0BB7B2A2B04D1F4
:1054BC004FF00200FFF78AFA03E04FF00000FFF70D
:1054CC0085FA0D4B5B7B18464FF005014FF024021B
:1054DC00FFF738FE4FF001004FF00001FFF746FADE
:1054EC004FF0000301E04FF00103184607F11007DD
:1054FC00BD4680BD9C010020AC030020940100201F
:10550C0080B400AF044B054A5A60034B044A5A60FE
:10551C00BD4680BC704700BF002002402301674598
:10552C00AB89EFCD80B400AF044B044A126942F052
:10553C0080021A61BD4680BC704700BF002002404B
:10554C0080B584B000AF78604FF00403FB734FF468
:10555C00302000F0ADF80346FB73FB7B042B1CD111
:10556C00114B114A126942F002021A610E4B7A6811
:10557C005A610D4B0C4A126942F040021A614FF409
:10558C00302000F095F80346FB73074A064B196967
:10559C0041F6FD7301EA03031361FB7B184607F127
:1055AC001007BD4680BD00BF0020024080B584B00E
:1055BC0000AF786039604FF00403FB734FF00003C9
:1055CC00BB604FF4005000F073F80346FB73FB7B99
:1055DC00042B33D11C4B1C4A126942F001021A6194
:1055EC007B683A6892B21A804FF4005000F060F871
:1055FC000346FB73FB7B042B18D17B6803F102037E
:10560C00BB60BB683A684FEA124292B21A804FF400
:10561C00005000F04DF80346FB730B4A0A4B196916
:10562C0041F6FE7301EA0303136107E0064A064BD9
:10563C00196941F6FE7301EA03031361FB7B1846FB
:10564C0007F11007BD4680BD0020024080B483B036
:10565C0000AF4FF00403FB71144BDB6803F0010344
:10566C00DBB2002B03D04FF00103FB7116E00F4BA4
:10567C00DB6803F00403002B03D04FF00203FB7133
:10568C000CE00A4BDB6803F01003002B03D04FF047
:10569C000303FB7102E04FF00403FB71FB79184626
:1056AC0007F10C07BD4680BC704700BF00200240CC
:1056BC0080B584B000AF78604FF00403FB73FFF744
:1056CC00C5FF0346FB7307E0FFF7C0FF0346FB7300
:1056DC007B6803F1FF337B60FB7B012B02D17B6882
:1056EC00002BF1D17B68002B02D14FF00503FB732B
:1056FC00FB7B184607F11007BD4680BD80B489B00E
:10570C0000AF786039604FF00003FB614FF000038D
:10571C003B614FF00003BB614FF00003FB604FF0A7
:10572C0000037B614FF00003BB603B68DB7803F048
:10573C000F03FB613B68DB7803F01003002B05D0F3
:10574C003B689B78FA6942EA0303FB613B681B8860
:10575C0003F0FF03002B51D07B681B687B614FF07B
:10576C000003BB6144E0BB694FF0010202FA03F392
:10577C00FB603B681B881A46FB6802EA03033B612B
:10578C003A69FB689A422FD1BB694FEA8303FB60ED
:10579C00FB684FF00F0202FA03F3BB60BB686FEAC1
:1057AC0003037A6902EA03037B61FB68FA6902FA74
:1057BC0003F37A6942EA03037B613B68DB78282BAD
:1057CC0007D1BB694FF0010202FA03F27B685A6100
:1057DC000AE03B68DB78482B06D1BB694FF001022D
:1057EC0002FA03F27B681A61BB6903F10103BB6126
:1057FC00BB69072BB7D97B687A691A603B681B8831
:10580C00FF2B56D97B685B687B614FF00003BB6153
:10581C0049E0BB6903F108034FF0010202FA03F3FC
:10582C00FB603B681B881A46FB6802EA03033B617A
:10583C003A69FB689A4232D1BB694FEA8303FB6039
:10584C00FB684FF00F0202FA03F3BB60BB686FEA10
:10585C0003037A6902EA03037B61FB68FA6902FAC3
:10586C0003F37A6942EA03037B613B68DB78282BFC
:10587C0008D1BB6903F108034FF0010202FA03F2ED
:10588C007B685A613B68DB78482B08D1BB6903F114
:10589C0008034FF0010202FA03F27B681A61BB693C
:1058AC0003F10103BB61BB69072BB2D97B687A6931
:1058BC005A6007F12407BD4680BC704780B483B0A2
:1058CC0000AF78600B467B807A887B681A6107F1A1
:1058DC000C07BD4680BC704780B483B000AF7860C5
:1058EC000B467B807A887B685A6107F10C07BD46B2
:1058FC0080BC704780B483B000AF78600B46FB70FF
:10590C00FB78002B07D00B4B0A4A91697A6841EA65
:10591C0002029A6108E0074B064A91697A686FEABD
:10592C00020201EA02029A6107F10C07BD4680BC33
:10593C00704700BF0010024080B483B000AF7860A5
:10594C000B46FB70FB78002B07D00B4B0A4AD16936
:10595C007A6841EA0202DA6108E0074B064AD1692B
:10596C007A686FEA020201EA0202DA6107F10C07B7
:10597C00BD4680BC704700BF0010024080B483B0AD
:10598C0000AF78600B46FB70FB78002B07D00B4BFD
:10599C000A4AD1687A6841EA0202DA6008E0074BE9
:1059AC00064AD1687A686FEA020201EA0202DA60FA
:1059BC0007F10C07BD4680BC704700BF00100240C9
:1059CC0080B483B000AF78600B46FB70FB78002B83
:1059DC0007D00B4B0A4A11697A6841EA02021A6134
:1059EC0008E0074B064A11697A686FEA020201EA7D
:1059FC0002021A6107F10C07BD4680BC704700BF5C
:105A0C000010024080B582B000AF78607A681A4B03
:105A1C009A420CD14FF480504FF00101FFF7AEFFCA
:105A2C004FF480504FF00001FFF7A8FF20E07A6898
:105A3C00124B9A420CD14FF480404FF00101FFF70A
:105A4C00BFFF4FF480404FF00001FFF7B9FF0FE0AC
:105A5C007A680B4B9A420BD14FF400404FF0010186
:105A6C00FFF7AEFF4FF400404FF00001FFF7A8FF27
:105A7C0007F10807BD4680BD0030014000380040EA
:105A8C00003C004080B485B000AF786039604FF0C6
:105A9C000003FB817B681B88FB81FB8903F441536A
:105AAC00FB813B681A883B685B8842EA03039AB225
:105ABC003B689B8842EA03039AB23B68DB8842EA64
:105ACC0003039AB23B681B8942EA03039AB23B6810
