:020000040800F2
:10000000002000203D110008310E0008330E0008CA
:10001000350E0008370E0008390E000800000000F9
:100020000000000000000000000000003B0E00087F
:100030003D0E0008000000003F0E0008410E0008C1
:100040008111000881110008811100088111000848
:100050008111000881110008811100088111000838
:100060008111000881110008811100088111000828
:100070008111000881110008811100088111000818
:10008000811100088111000881110008430E000849
:10009000450E000881110008811100088111000837
:1000A00081110008811100088111000881110008E8
:1000B00081110008811100088111000881110008D8
:1000C00081110008811100088111000881110008C8
:1000D00081110008811100088111000881110008B8
:1000E0008111000881110008811100080000000042
:1000F0000000000000000000000000000000000000
:0C01000000000000000000005FF808F1A3
:10010C0040F20403C2F200031A780AB901201870F5
:10011C00704700BF40F20400C2F2000008B503684B
:10012C002BB140F20003C0F2000303B1984708BDA5
:10013C0008B560B1037853B1C3888B4209D14078BC
:10014C0000F0EAFD10F0010018BF032008BD0920E3
:10015C0008BD092008BD38B5036A05468B420C461C
:10016C000AD059B1407805F124012246012300F050
:10017C00DBFD28B92C6238BD002038BD084638BDDF
:10018C00012038BD10B504460A46407804F124011C
:10019C00012300F0C9FD80BB94F8223294F823228D
:1001AC0043EA0222174B12B29A4228D194F85C20EF
:1001BC0094F85D30120442EA036294F85A301A4300
:1001CC0094F85B3042EA03220F4B22F07F429A42B2
:1001DC0016D094F8780094F87920000440EA026074
:1001EC0094F87620104394F8772040EA022020F00F
:1001FC007F40C01A18BF012010BD032010BD022083
:10020C0010BD00BF55AAFFFF46415400C368023918
:10021C00023B994204D28278C36902FB01307047D9
:10022C00002070470129F8B504460D465BD9C36818
:10023C00994258D20378022B29D0032B38D0012BAA
:10024C0053D101EB5106416901EB5621FFF783FFB6
:10025C0000284AD1F3056169DB0D0136E31820460D
:10026C0001EB562193F82470FFF775FF00283CD161
:10027C00F605F60DA61996F8240015F0010F47EABD
:10028C00002001D00009F8BD0005000DF8BD416942
:10029C0001EB1521FFF75FFF38BB2D06ED0D631940
:1002AC00641993F8243094F8250043EA0020F8BD33
:1002BC00416901EBD511FFF74EFFC8B96D06ED0D85
:1002CC00631993F8270093F8262024335B780006F3
:1002DC0040EA0240641940EA032094F824301843A1
:1002EC0020F07040F8BD0120F8BD4FF0FF30F8BD94
:1002FC004FF0FF30F8BD81680023012910B504468A
:10030C00C3802BD00068C368994227D259B90378AF
:10031C00032B01D1816931B90023E3600389EBB16F
:10032C008369236113E083786BB92068FFF77AFF48
:10033C00B0F1FF3F01460FD001280FD92368DB68CD
:10034C009842F2D30CE0E160FFF760FF2061236874
:10035C0000202433636110BD012010BD022010BDAC
:10036C00022010BD48B9064A136803B1187009B1D0
:10037C0000230B701160002070470B20704700BFEA
:10038C00080000202DE9F04F002303600B788BB0A0
:10039C00303B092B05460C46904606D84A783A2A3B
:1003AC0003D18C1C002B40F0F080B34B1E680096E0
:1003BC00002E00F0EC80337833B1707800F0ACFC98
:1003CC0010F0010000F0EA8000203070707000F036
:1003DC0073FB10F0010740F0DC8030463946FFF724
:1003EC00D1FE012816D196F8E631002B00F0D5800D
:1003FC0096F8EC7196F8ED313F0447EA036796F8EE
:10040C00EA3130461F4396F8EB3147EA0327394669
:10041C00FFF7B8FE032800F0BE80002840F0BD8036
:10042C0096F8302096F82F3043EA0223B3F5007F7C
:10043C0040F0B38096F83B0096F83A3053EA00202F
:10044C000DD196F84A0096F84B30000440EA036050
:10045C0096F84830184396F8493040EA032096F84D
:10046C003490306109F1FF33DBB2012B86F8039035
:10047C0000F2938096F83110B170002900F08D8055
:10048C004B1E0B4240F0898096F8362096F835309A
:10049C0043EA022212F00F0F32817ED196F838C057
:1004AC0096F8373053EA0C230ED196F8463096F86E
:1004BC0047C01B0443EA0C6396F844C043EA0C03A0
:1004CC0096F845C043EA0C2396F833A096F832C050
:1004DC005CEA0A2A61D009FB00F90AEB121CCC4435
:1004EC0063455AD3CCEB0303B3FBF1F3002B54D08D
:1004FC0040F6F5718B4208D94FF6F57B5B458CBF06
:10050C004FF0030B4FF0020B01E04FF0010B0233E5
:10051C000CEB0701BBF1030F5744F360F1617761FA
:10052C0012D1002A39D196F8522096F853101204A1
:10053C0042EA016296F850109B000A4396F851105B
:10054C0042EA0122B2610FE03AB3BBF1020F4FEA6B
:10055C00430218BFD2184F4418BF03F00103B76110
:10056C000CBF134603EB520303F5FE730333B0EBDE
:10057C00532F12D3414A86F800B013880020013360
:10058C001380F3803062307108E00B2006E00C2001
:10059C0004E0032002E0012000E00D2007AB0693ED
:1005AC00002840F0058123782F2B01D05C2B00D143
:1005BC0001340026029623781F2B04D86846FFF7D7
:1005CC009AFE0596F4E02378274601342F2BFAD0B7
:1005DC005C2BF8D006980B23024602E0202102F88F
:1005EC00011B013BFAD200210C4608260A463B5D52
:1005FC000134202B3ED92F2B46D05C2B44D02E2BF4
:10060C0001D0B1420AD3082E40F0CF802E2B40F0FF
:10061C00CC8092003146D2B20336E8E713F0800F5B
:10062C0006D0DFF85CC0803B1CF8033042F00302BC
:10063C00DFF850C01CF8019FB9F1000F02D09945AA
:10064C00F8D1B2E0A3F1410C5FFA8CFCBCF1190FAC
:10065C0002D842F002020AE0A3F1610C5FFA8CFCB2
:10066C00BCF1190F03D8203B42F00102DBB243541A
:10067C000131BCE7042308E008000020060000203C
:10068C0082110008011200080023002900F08D805F
:10069C000178E52901D1E0390170082E01D19200D1
:1006AC00D2B202F00301012902F00C0208BF43F0A0
:1006BC001003042A08BF43F00803C3726846FFF70F
:1006CC001AFE002851D100980499FFF744FD002828
:1006DC004BD1059A1378002B46D0D37A13F0080F20
:1006EC000AD10699034601E00B2B3ED012F803C049
:1006FC00CE5C0133B445F7D0BDF806600136B6B216
:10070C00002E31D0049B002B2ED016F00F0F1DD1D4
:10071C00039901330493009819B90389B34215D88E
:10072C0022E08378013B13EA16130FD1FFF77AFD11
:10073C000128014614D9B0F1FF3F13D00098C368CB
:10074C00994211D20391FFF761FD0490009BADF823
:10075C00066006F00F06243376019E190596B2E763
:10076C00022002E0012000E00420069BDB7A38B175
:10077C0004281DD103F00403002B08BF052017E04B
:10078C0013F0040F14D1059BDA7A12F0100F0ED06F
:10079C00597D1A7D3C1942EA0122D97E9B7E43EA9F
:1007AC00012343EA024302930DE7062000E00520F3
:1007BC00059B38B92BB1DA7A12F0100F05D0043042
:1007CC0000E006200BB0BDE8F08F08F0010885F8BA
:1007DC0006801A7D597DDC7E42EA01219A7E42EA2E
:1007EC00042242EA01422A619A7FD97F120442EA2A
:1007FC000162197F5B7F0A4342EA0323EB60009B93
:10080C00A8602B60DB88A861AB80DBE72DE9F84F93
:10081C000446984600238946C8F800300068A18831
:10082C001746FFF785FC054600287ED1A37913F007
:10083C00800F77D113F0010F76D0E668A368F61A13
:10084C00B74238BF3E466AE0A368DA05D20D002AEB
:10085C0039D1206890F802A00AF1FF3A0AEA532A2B
:10086C005FFA8AFABAF1000F0BD10BB9206902E0DA
:10087C006169FFF7D7FC01280AD9B0F1FF3F28D0F6
:10088C006061D4F800B061695846FFF7BFFC20B92D
:10089C00A37963F07F03A37144E0770A00EB0A02AB
:1008AC0010D09BF8023007EB0A01994288BFCAEBC3
:1008BC0003079BF801004946FBB200F035FA40B93A
:1008CC007F0222E0A2612068A169A768FFF743FCC0
:1008DC0028B1A379012563F07F03A37125E0FF05FF
:1008EC00A368FF0D2168C7F50077DB05DB0DBE4261
:1008FC0038BF37462431C9184A463B4603E011F845
:10090C00010B02F8010B013BF9D2A368B944DB19C6
:10091C00A360D8F80030F61BDB19C8F80030002EA5
:10092C0092D102E0022500E007252846BDE8F88FA9
:10093C0010B50446A1880068FFF7FAFB00B92060E7
:10094C0010BD0000064A13889BB210B943F038035F
:10095C0003E023F0380343F008031380704700BF13
:10096C0000380040014608B5064800F0C8FB0548B1
:10097C00012100F0D6FB0028F9D0024800F0C1FBA1
:10098C00C0B208BD00380040FF20FFF7EBBF0000ED
:10099C0010B5064C32232360FFF7F6FFFFF7F4FF88
:1009AC00FF2802D02368002BF8D110BD10000020C6
:1009BC0010B504484FF4805100F00DFBBDE8104019
:1009CC00FFF7E2BF000C014010F0800F38B5044671
:1009DC000D4607D077200021FFF7F6FF01283AD803
:1009EC0004F07F041C484FF4805100F0F4FA1A48CC
:1009FC004FF4805100F0F1FAFFF7CAFFFF2829D11C
:100A0C002046FFF7AFFF280EFFF7ACFF280CC0B253
:100A1C00FFF7A8FF280AC0B2FFF7A4FFE8B2FFF760
:100A2C00A1FF402C04D0482C0CBF8720012000E0F3
:100A3C009520FFF797FF4C2C01D1FFF7A5FF0A2457
:100A4C00FFF7A2FF10F0800F05D0013CE4B2002CA0
:100A5C00F6D138BDFF2038BD000C014038B5154D1E
:100A6C000A2304462B60FFF78FFFFF2803D1286869
:100A7C000028F8D138BDFE281AD104F50075FF20E6
:100A8C00FFF770FF2070FF20FFF76CFF6070FF20F6
:100A9C00FFF768FFA070FF20FFF764FFE0700434DD
:100AAC00AC42ECD1FFF770FFFFF76EFF012038BDB1
:100ABC00002038BD0C000020F0B58BB0002840F0B1
:100ACC001E81904B1C781D4614F0020401D018783E
:100ADC0016E10820012100F083FA4FF48040012137
:100AEC0000F08AFA079403E000BF079B01330793D9
:100AFC00079A47F22F539A42F6DD4FF48053ADF824
:100B0C00183003241023804806A98DF81B308DF86B
:100B1C001A4000F011FA7C484FF4805100F05BFA57
:100B2C004AF20003ADF8183018230DEB0301764898
:100B3C008DF81B308DF81A4000F0FEF94FF480430D
:100B4C00ADF818307048482306A98DF81B3000F01A
:100B5C00F3F90023ADF804304FF48273ADF806308E
:100B6C000023ADF80830ADF80A30ADF80C304FF476
:100B7C000073ADF80E303823ADF810300023ADF80B
:100B8C0012306248072301A9ADF8143000F08AFA3C
:100B9C005E48002100F0B8FA5C48012100F0A2FA8E
:100BAC005A48022100F0BDFA0028F9D0574800F04D
:100BBC00A8FA8DF827000020FFF7C4FE0A24013C98
:100BCC00E4B2FFF7E1FE002CF9D140202146FFF7FB
:100BDC00FBFE01285CD14E4E642347304FF4D57197
:100BEC003360FFF7F1FE012831D1FFF7CDFE08ABE2
:100BFC0018550134042CF8D19DF82230012B44D126
:100C0C009DF82330AA2B40D1336833B1E9204FF043
:100C1C008041FFF7D9FE0028F6D13468002C37D07C
:100C2C007A200021FFF7D0FE00282ED10446FFF7D2
:100C3C00ABFE08AB18550134042CF8D19DF82040BC
:100C4C0004F04004002C0CBF04240C2420E0E92008
:100C5C002146FFF7B9FE01288CBF012402248CBF6A
:100C6C004127E92733682BB138460021FFF7ACFE4A
:100C7C000028F7D1336853B150204FF40071FFF7BF
:100C8C00A3FE002818BF002402E0002400E01C464C
:100C9C00204B1C70FFF78CFE3CB12B78012003F02D
:100CAC00FE032B70FFF74EFE27E02B7813F0010F9D
:100CBC0008D14FF48051144800F08FF9FFF768FE0B
:100CCC00FFF776FE114800F0BBF91048002100F048
:100CDC0009FA4FF48040002100F08EF94EF2000327
:100CEC00ADF818300848282306A98DF81B3000F001
:100CFC0023F92B7843F001032B70287800E00120B6
:100D0C000BB0F0BD00000020000C0140003800408A
:100D1C000C0000201400002010B9024B187870470A
:100D2C00012070470000002038B50C461D461146C6
:100D3C00002832D1002B30D01A4B1B7813F0010F46
:100D4C002DD1194B1B7813F0080F08BF5102012D40
:100D5C000BD15120FFF738FEC8B92046FFF77EFEB5
:100D6C00D0F1010538BF002511E05220FFF72CFE11
:100D7C0068B92046FFF772FE28B1013DEDB215B1FE
:100D8C0004F50074F5E74C200021FFF71DFEFFF77A
:100D9C000FFE281E18BF012038BD042038BD0320CB
:100DAC0038BD00BF000000201400002010B5ADF5C8
:100DBC00CD6D002089A9FFF7D5FA044638BB0DF597
:100DCC00C96015490122FFF7DDFA20B120466946BA
:100DDC00FFF7C8FA17E00DF5CC630DF5C9600DF5FA
:100DEC0089614FF400720433FFF710FD78B9DDF818
:100DFC006446002CEFD10DF5C960FFF799FD0DF598
:100E0C00C960FFF795FD20462146FFF7ABFA0DF5BB
:100E1C001A7D0DF5806D10BD1112000808B5FFF795
:100E2C00C5FFFEE77047FEE7FEE7FEE7FEE770470B
:100E3C007047704770477047704700003A4B82B05C
:100E4C001A6842F001021A605968384A01EA020233
:100E5C005A601A6822F0847222F480321A601A687E
:100E6C0022F480221A605A6822F4FE025A604FF46F
:100E7C001F029A600022019200921A6842F480329A
:100E8C001A60294B1A6802F400320092019A01325E
:100E9C000192009A1AB9019AB2F5A06FF1D11B68B0
:100EAC0013F4003318BF01230093009B012B34D1A2
:100EBC001F4B1A6842F010021A601A6822F00302E3
:100ECC001A601A6842F001021A60174B5A685A608D
:100EDC005A685A605A6842F480625A605A6822F41E
:100EEC007C125A605A6842F488125A601A6842F0AE
:100EFC0080721A600C4B1A6812F0007FFAD05A6894
:100F0C0022F003025A605A6842F002025A60064B01
:100F1C005B6803F00C03082BF9D1064B4FF0006211
:100F2C009A6002B0704700BF001002400000FFF84A
:100F3C000020024000ED00E0CB78F0B513F0100F6C
:100F4C0003F00F020E881CBF8B781A4316F0FF0FAC
:100F5C001DD00468002301279F4007EA0605BD4207
:100F6C0011D19F004FF00F0C0CFA07FC12FA07F787
:100F7C0024EA0C043C43CF78282F01D1456102E0D0
:100F8C00482F08BF05610133082BE4D104600E889B
:100F9C00FF2E1FD94468002303F108050127AF4039
:100FAC0007EA0605BD4211D19F004FF00F0C0CFA59
:100FBC0007FC12FA07F724EA0C043C43CF78282FDD
:100FCC0001D1456102E0482F08BF05610133082BB0
:100FDC00E2D14460F0BD016170474161704700008F
:100FEC00044B11B19A69104302E09A6922EA00009D
:100FFC009861704700100240044B11B1DA6910433C
:10100C0002E0DA6922EA0000D86170470010024061
:10101C00044B11B1DA68104302E0DA6822EA0000EE
:10102C00D860704700100240044B11B11A6910438C
:10103C0002E01A6922EA00001861704700100240B1
:10104C00154B10B598420BD101214FF48050FFF78E
:10105C00DFFF4FF480500021BDE81040FFF7D8BFF0
:10106C000E4B984207D14FF480400121FFF7DCFF73
:10107C004FF4804009E00A4B98420BD14FF40040EA
:10108C000121FFF7D1FF4FF400400021BDE81040D3
:10109C00FFF7CABF10BD00BF003001400038004050
:1010AC00003C00400B8810B54C88028844EA0303CE
:1010BC008C8802F441522343CC8823430C8923436C
:1010CC004C8923438C892343CC89234342EA030371
:1010DC000380838B23F400631B041B0C83830B8A18
:1010EC00038210BD21B103889BB243F0400304E09E
:1010FC00038823F040031B041B0C03807047818181
:10110C007047808980B2704721B103889BB243F449
:10111C00005304E0038823F400531B041B0C0380CE
:10112C007047038919420CBF002001207047000052
:10113C00002103E00A4B5B584350043109480A4B29
:10114C0042189A42F6D3094A02E0002342F8043BC3
:10115C00074B9A42F9D3FFF771FEFFF75FFE70471A
:10116C007418000800000020040000200400002077
:10117C0018000020FEE7808182828485868788891A
:10118C008A8B8C8D8E8F809192939495969798994B
:10119C008A9B8C8D8E8FA0A2A2A3A4A5A6A7A8A97A
:1011AC00AAABACADAEAFB0B1B2B2A5B5B6B7A8B93B
:1011BC00AABBA3BDBDAFC0C1C2C3C4C5C6C7C8C945
:1011CC00CACBCCCDCECFD0D1D2D3D4D5D6D7D8D9FB
:1011DC00DADBDCDDDEDFC0C1C2C3C4C5C6C7C8C92B
:1011EC00CACBCCCDCECFD0D1D2D3D4D5D6D7D8D9DB
:1011FC00DADBDCDDDEDF222A2B2C3A3B3C3D3E3FAA
:10120C005B5D7C7F00616E7468656D30312E726140
:10121C0077000000F8B500BFF8BC08BC9E467047CC
:0C122C00F8B500BFF8BC08BC9E46704737
:04186C00210100084E
:041870000D0100085E
:04187400010000006F
:040000050800113DA1
:00000001FF
